:1000000000800020BD010000857F00003D7F0000D2
:100010003D7F00003D7F00003D7F00003D7F0000F0
:100020003D7F00003D7F00003D7F0000857F000098
:10003000857F00003D7F0000B99E0000BD9F00004D
:10004000857F0000857F0000857F0000857F0000A0
:10005000857F0000857F0000857F0000857F000090
:10006000857F0000857F0000857F0000857F000080
:10007000857F0000857F0000857F0000857F000070
:10008000857F0000857F0000857F0000857F000060
:10009000857F0000857F0000857F0000857F000050
:1000A000857F0000857F0000857F0000857F000040
:1000B000857F0000597300006573000069730000BC
:1000C00075730000797300007D730000857F000068
:1000D000857F0000857F0000857F0000857F000010
:1000E000857F0000857F0000857F0000857F000000
:1000F000857F0000C5A60000857F0000218C0000E0
:10010000857F0000398F0000857F0000857F00001B
:10011000857F0000857F0000857F0000857F0000CF
:10012000857F0000857F0000857F0000857F0000BF
:10013000857F0000857F0000857F0000857F0000AF
:10014000857F0000857F0000857F0000857F00009F
:10015000857F0000857F0000857F0000857F00008F
:10016000857F000085910000857F0000857F00006D
:10017000857F0000857F0000857F0000857F00006F
:10018000857F0000857F0000857F0000857F00005F
:10019000857F0000857F0000857F0000857F00004F
:1001A000857F0000857F0000857F0000857F00003F
:1001B000857F0000857F0000857F0000564B4CF254
:1001C000205210B51A804DF628121A8000BF00BFC9
:1001D00007F0DCFE514B4FF010621A60504A9A60F3
:1001E000504ADA60504A136813F4807304D14F49BF
:1001F0000B604FF4A85313604D4B1A78110703D5C9
:100200001A7842F008021A704A4B4B492A221A7097
:100210004A4A4B4B8B4204D252F8040F43F8040B6A
:10022000F8E7484B484900228B4202D243F8042B9E
:10023000FAE74649464A002352F8230041F82300D2
:1002400001336F2BF8D1434B434A802103F8011B44
:100250009342FBD1414B3D4A1A60414B8A221A70AE
:10026000A3F5805324225A70A0221A709A7992071B
:10027000FCD59A79D406FCD43A4A937903F00C035E
:10028000082B384BF9D103221A7140225A719A79FE
:100290009006FCD5334A9179324B4906FBD5324A58
:1002A000324911600221516020221A709A7902F0BD
:1002B0000C020C2AFAD12E4B2E4A1A602E4B2F4AD2
:1002C0001A6000225A60072243F8042C2C4AC3F813
:1002D0000C2D62B608F010F9144B1B68DA0705D52F
:1002E000284807F0EDFE284B284A1A60284B1B7857
:1002F0005B0609D5244C254B22689A4204D121483B
:1003000007F0DEFE002323600CF0E0FC07F044FE63
:100310000AF098F8FEE700BF0E2005403080044048
:10032000823F04000100002B10D0034014D0034092
:1003300002D0074000E007402892FF1FEC28010090
:100340002087FF1F2892FF1F18C3FF1F0082FF1F77
:100350000000000000E400E05FE400E008ED00E0E1
:100360000050064000400640448004400000030165
:1003700004800440C010050014E000E0FF76010096
:1003800000002020DB56785C1CE00340A5C3945A93
:1003900000F00740FFFFFFFFFFFFFFFFFFFFFFFF32
:1003A000FFFFFFFFFFFFFFFFFFFFFFFFFFFFFFFF5D
:1003B000FFFFFFFFFFFFFFFFFFFFFFFFFFFFFFFF4D
:1003C000FFFFFFFFFFFFFFFFFFFFFFFFFFFFFFFF3D
:1003D000FFFFFFFFFFFFFFFFFFFFFFFFFFFFFFFF2D
:1003E000FFFFFFFFFFFFFFFFFFFFFFFFFFFFFFFF1D
:1003F000FFFFFFFFFFFFFFFFFFFFFFFFFFFFFFFF0D
:10040000FFFFFFFFFFFFFFFFFFFFFFFFDEF9FFFF23
:1004100010B5054C237833B9044B13B10448AFF33E
:1004200000800123237010BD2892FF1F00000000F0
:10043000E8280100084B10B51BB108490848AFF384
:1004400000800848036803B910BD074B002BFBD0A0
:10045000BDE81040184700BF000000002C92FF1FAD
:10046000E82801002892FF1F00000000F0B400F10E
:100470001C06104F00243146031F00F13C0243F8D4
:10048000044FB34241F8047F4FF0000542F8044F97
:10049000F5D1094A09490566002345668566C566A2
:1004A000C56702678267416780F8843080F89C30B6
:1004B000F0BC70470000A040000048430000C8C2E4
:1004C0002DE9F04190F89C4084B0202364008DF821
:1004D0000530E4B2042380468DF804408DF80630E0
:1004E0000327204608F0C4FC02210DF1050008F0A6
:1004F000C9FC8DF8044001F07BFC30B30921404871
:1005000009F074FB0023102221463E4809F014FE36
:1005100001213D4809F06AFB002310229DF80510D7
:10052000384809F009FE0121374809F05FFB002334
:1005300010229DF80610334809F0FEFD01213248D3
:1005400009F054FB2F4809F0E7FD02208DF8044024
:1005500007F084FF01F04CFC00284CD102AE0024CF
:1005600008F0A6FC70B3072C1FD101E008F0B0FC26
:1005700008F09EFC0028F9D101F03AFC10B12148A6
:1005800009F0CAFD9DF80B009DF80C109DF80D2098
:100590009DF80E30C8F88800C8F88C10C8F8902074
:1005A000C8F8943004B0BDE8F08108F091FC05462D
:1005B00006F8010B01F01CFC70B9013408F078FC5E
:1005C0000028D0D1072CD3D001F012FC78B9013F1C
:1005D000D8D09DF8044084E7E9B2002310220948EE
:1005E00009F0AAFD0121084809F000FBE5E70548EC
:1005F00009F092FDEBE70721044809F0F7FAADE7AF
:10060000980E0100CC87FF1FBC150100A40E01004D
:1006100090F88C00704700BF90F88800704700BFCA
:1006200090F89000704700BF90F89400704700BFAA
:10063000082994BF50F82100002070472DE9F041AF
:100640000B4E8046041F00F11C0754F8045F31462E
:1006500028460CF0B1FA30B1D8F8801028460CF0DA
:10066000C9FA00B12E46BC42EFD13046BDE8F08158
:10067000000020412DE9F041D0F880704FF00008D3
:10068000041F00F11C0654F8045F394628460CF09C
:10069000B1FA084948B128460CF08EFA414620B11B
:1006A00028460CF0A7FA00B1A846B442EBD1404668
:1006B000BDE8F081000070422DE9F047D0F880706D
:1006C00082464FF00009041F00F11C064FF000089D
:1006D00054F8045F394628460CF08CFA0C4950B1A6
:1006E00028460CF069FA30B1484629460BF0BEFFA7
:1006F00008F101088146B442EAD1CAF8A080404618
:100700000CF068F8014648460CF06CF9BDE8F0873B
:1007100000007042D0F8A000704700BF38B5846E6A
:10072000456E214628460CF047FA00B92C46204673
:1007300038BD00BFD0F898302DE9F041002B79D1B9
:10074000866E456E0446314628460BF08FFFE76EF5
:10075000394680460BF08AFF7E490CF043F94FF092
:100760007C5104460CF046FA002861D04FF07C51D1
:1007700028460CF03FFA4FF07C51002860D1284603
:100780000CF01AFA38B14FF07C5130460CF032FAC6
:10079000002840F0A7804FF07C5128460CF02AFA40
:1007A000002860D14FF07C5128460CF023FA002835
:1007B00040F0A1804FF07C5128460CF01BFA002835
:1007C0006CD14FF07C5128460CF0F6F94FF07C517B
:1007D00010B330460CF00EFA38B14FF07C51384669
:1007E0000CF0EAF9002840F0B0804FF07C51304620
:1007F0000CF0E2F9002861D04FF07C5138460CF043
:10080000F9F9002840F0A38038464FF07C510CF0F5
:10081000D3F968B1504C10E028460CF0CDF900280F
:10082000E3D128464FF07C510CF0C6F9002845D1A1
:10083000BDE8F08100EB8300046E2046BDE8F08146
:1008400030460CF0D7F94FF07C5100283ED03846A6
:100850000CF0D0F90028F0D14FF07C5128460CF074
:10086000ABF9002859D14FF07C5130460CF0A4F977
:10087000002840D04FF07C5138460CF0BBF90028DE
:1008800041D14FF07C5130460CF0B4F968B14FF0D3
:100890007C5138460CF090F900284FD14FF07C5134
:1008A00030460CF089F900288BD04FF07C51384647
:1008B0000CF082F9002884D02C46BEE730464FF079
:1008C0007C510CF079F90028B2D09DE728460CF055
:1008D00073F90028C7D04FF07C5130460CF08AF9EC
:1008E0000028C0D04FF07C5138460CF083F9002826
:1008F0003FF451AF18E04FF07C5130460CF07AF9DC
:100900000028CBD0C3E7394628460BF0AFFE4FF0A6
:100910007C510BF0B3FF04468FE74FF07C51384613
:100920000CF068F900289ED0394630460BF09EFE48
:100930004FF07C510BF0A2FF04467EE740464FF09B
:100940007C510BF09BFF044677E7344675E73C4645
:1009500073E700BF000040400000A0C270B504462D
:10096000FFF7E8FE4FF07C510CF044F928B3666EB7
:100970004FF07C5130460CF03DF9A56EF0B9E46EB5
:100980004FF07C5128460CF035F958B129463046D5
:100990000CF030F930B1214628460CF00DF908B1C1
:1009A0002C4620E04FF07C5120460CF023F920B17A
:1009B000284621460CF01EF978B970BD304629460C
:1009C0000CF0FAF8E46E0028DAD0304621460CF03C
:1009D000F3F80028D4D0344605E0304621460CF028
:1009E00009F90028E9D0204670BD00BF02292DE991
:1009F000F8438046154600F0A880032972D00129EB
:100A00003FD0866E476E04684046FFF7A7FFD8F8D0
:100A1000701005460CF0D0F808B1C8F8705039468F
:100A200030460CF0E7F8002854D13946D8F8740065
:100A30000CF0C2F810B13E46C8F8746008F1200608
:100A4000C14608F14005002701E059F8044F30681D
:100A500021460CF0CFF80137214628B1D8F88000A4
:100A60000CF0B4F800B13460214628680CF0A4F80A
:100A7000043600B12C60082F05F10405E5D1BDE86E
:100A8000F883137AC0F8A430D37A907A03EB00206D
:100A90000BF0A0FE46490BF0F1FEC8F864006B7B3A
:100AA0000746287B03EB00200BF094FE40490BF037
:100AB000E5FEC8F86800EB7B0646A87B03EB002048
:100AC0000BF088FE3A490BF0D9FED8F80040C8F880
:100AD0006C0099E7D8F8741030460CF08BF80028B9
:100AE000AAD1ABE7537A107A03EB00200BF072FE29
:100AF0002F490BF0C3FEC8F81000EB7AA87A03EB7D
:100B000000200BF067FE2A490BF0B8FEC8F814006D
:100B10006B7B287B03EB00200BF05CFE24490BF081
:100B2000ADFEC8F81800EB7BA87B03EB00200BF0B0
:100B300051FE1F490BF0A2FED8F86860C8F81C00EF
:100B4000D8F86470D8F800405EE7537A107A03EB67
:100B500000200BF03FFE16490BF090FEC8F8000095
:100B6000EB7A0446A87A03EB00200BF033FE104921
:100B70000BF084FEC8F804006B7B287B03EB00209D
:100B80000BF028FE0A490BF079FEC8F80800EB7B51
:100B9000A87B03EB00200BF01DFE05490BF06EFE59
:100BA000D8F86860D8F86470C8F80C002CE700BF6B
:100BB0006F12833A2DE9F04F90F89C3091B00746C0
:100BC0005B008DF80830FFF77BFCD7F89000D7F872
:100BD0009440D7F88C30D7F8882097F89C108DE88F
:100BE0001100C94801F00AFA30223D2303268DF88E
:100BF00009208DF80A300DF10A059DF8089049F09A
:100C00000108404608F034F90DF10900022108F00E
:100C100039F98DF80880424602AB00205040082484
:100C200010F0800F4FEA400018BF80F00700013C31
:100C3000C0B2F5D19D4202D013F8012FEEE708F0C3
:100C400017F901F0D5F8002840F07C8202208DF8D9
:100C5000089007F003FC01F0CBF8002840F0B882C0
:100C60000DF10C0AD146002408F022F9002843D0E7
:100C7000032C34D101E008F02BF908F019F9002811
:100C8000F9D101F0B5F810B1A04809F045FA3123C7
:100C900003268DF809308DF80A609DF8089049F018
:100CA0000108404608F0E4F80DF10900022108F0BF
:100CB000E9F88DF80880424602AB00205040082435
:100CC00010F0800F4FEA400018BF80F00700013C91
:100CD000C0B2F5D19D4228D013F8012FEEE708F0FD
:100CE000F7F809F8010B804601F082F868B9013481
:100CF00008F0DEF80028BBD1032CBED001F078F854
:100D000078B9013E7FF479AFC1E75FFA88F100233B
:100D100010227E4809F010FA01217D4808F066FF94
:100D2000E5E77A4809F0F8F9EBE708F0A1F801F0F7
:100D30005FF8002840F0C58102208DF8089007F088
:100D40008DFB01F055F8002840F03D820DF10C09B3
:100D5000002408F0ADF8002844D0032C35D101E080
:100D600008F0B6F808F0A4F80028F9D101F040F82E
:100D700010B1664809F0D0F9342201238DF809201A
:100D80008DF80A3003269DF8089049F00108404686
:100D900008F06EF80DF10900022108F073F88DF8E3
:100DA0000880424602AB00205040082410F0800F1B
:100DB0004FEA400018BF80F00700013CC0B2F5D1F7
:100DC0009D4228D013F8012FEEE708F081F809F8CA
:100DD000010B804601F00CF868B9013408F068F89E
:100DE0000028BAD1032CBDD001F002F878B9013E39
:100DF0007FF453AFC0E75FFA88F100231022434825
:100E000009F09AF90121424808F0F0FEE5E73F4871
:100E100009F082F9EBE708F02BF800F0E9FF002871
:100E200040F00E8102208DF8089007F017FB00F0CB
:100E3000DFFF002840F0D6810DF10C09002408F0F6
:100E400037F8002800F08480032C72D101E008F00C
:100E50003FF808F02DF80028F9D100F0C9FF10B1D3
:100E60002A4809F059F9012212238DF809208DF83A
:100E70000A304FF003089DF80840204607F0F8FFBD
:100E800002210DF1090007F0FDFF8DF8084000F088
:100E9000AFFF30B309211F4808F0A8FE002310223D
:100EA00021461A4809F048F90121194808F09EFE28
:100EB000002310229DF80910144809F03DF9012182
:100EC000134808F093FE002310229DF80A100F48E3
:100ED00009F032F901210E4808F088FE0B4809F0AC
:100EE0001BF906208DF8084007F0B8FA00F080FFE3
:100EF000002840F0728103AD002607F0D9FF0028DA
:100F00003FD0162E2FD109E0AC0E0100CC87FF1F79
:100F1000BC150100980E010007F0DAFF07F0C8FFCA
:100F20000028F9D100F064FF162600287DD1152095
:100F300035E007F0CDFF09F8010B804600F058FFBF
:100F400000285BD1013407F0B3FF00287FF47CAFA9
:100F5000032C3FF47EAF00F04BFF00286CD1013E24
:100F60007FF411AF7FE707F0B3FF05F8010B0446EC
:100F700000F03EFF00284DD1013607F099FF002810
:100F8000BFD1162ECAD000F033FF00284DD1B8F1E2
:100F900001087FF470AF701E002840F31E8200230A
:100FA00003AA1C4612F8011B08254C4014F0800FC0
:100FB0004FEA440418BF84F00704013DE4B2F5D1C0
:100FC00001338342EEDB9DF8218089484146224669
:100FD00001F014F8162EC146A34602D1A04500F038
:100FE000138197F89C108348CDF800B04B463246E9
:100FF00001F032F8002011B0BDE8F08F5FFA88F1FF
:10100000002310227C4809F097F801217B4808F062
:10101000EDFD97E7E1B200231022774809F08CF844
:101020000121764808F0E2FDA6E7734809F074F85C
:10103000162EACD11520B2E76F4809F06DF88EE797
:1010400009216F4808F0D2FD2346102241466A4824
:1010500009F072F80121694808F0C8FD2346102202
:101060009DF80910644809F067F80121634808F009
:10107000BDFD102223469DF80A105F4809F05CF878
:1010800001215E4808F0B2FD21460DF10B0002AAD5
:1010900012F8014B6140C9B2082311F0800F4FEAEA
:1010A000410118BF81F00701013BC9B2F5D190425F
:1010B000EED11022504809F03FF84F4809F02CF8C3
:1010C000B0E609214E4808F091FD23461022414622
:1010D000494809F031F80121484808F087FD2346C6
:1010E00010229DF80910444809F026F801214348D0
:1010F00008F07CFD102223469DF80A103E4809F0B6
:101100001BF801213D4808F071FD21460DF10B004F
:1011100002AA12F8014B6140C9B2082311F0800FF6
:101120004FEA410118BF81F00701013BC9B2F5D177
:101130009042EED11022304808F0FEFF2E4808F011
:10114000EBFFF9E509212E4808F050FD2346102257
:101150004146294808F0F0FF0121284808F046FDE3
:10116000234610229DF80910234808F0E5FF0121CD
:10117000224808F03BFD102223469DF80A101E4825
:1011800008F0DAFF01211D4808F030FD21460DF17D
:101190000B0002AA12F8014B6140C9B2082311F0FA
:1011A000800F4FEA410118BF81F00701013BC9B22E
:1011B000F5D19042EED110220F4808F0BDFF0E4845
:1011C00008F0AAFF42E507210E4808F00FFDBDE533
:1011D00007210C4808F00AFD42E50721094808F0FC
:1011E00005FD88E60721074808F000FD24E600BF5A
:1011F000E00E01002C0F0100CC87FF1FBC15010081
:10120000980E0100A40E01009DF80C3097F89C2068
:10121000B3EB420F7FF4EEAE9DF80D30012B7FF45F
:10122000E9AE9DF80E30122B7FF4E4AE9DF810303D
:101230009DF80F0003EB00200BF0CCFA6F490BF088
:101240001DFBF96F386604460BF0D4FC00B1FC6757
:10125000B96F20460BF0B0FC00B1BC67A7F10409E0
:1012600007F1200607F140054FF008089AF806300C
:101270009AF8050003EB00200BF0ACFA60490BF084
:10128000FDFA49F8040F316804460BF095FC0AF1A9
:10129000020A30B1D7F8801020460BF0A1FC00B153
:1012A0003460296820460BF0A5FC043600B12C60A0
:1012B000B8F1010805F10405D8D19DF81E309DF85C
:1012C0001D0003EB002002300BF084FA4D490BF0B7
:1012D00089FB01464C480BF085FB4C490BF0C4F9E7
:1012E0004B490BF0CBFA054609F036FB044628467D
:1012F00009F032FB474909F0A1FB47490546204662
:101300000BF0BCFA45490BF0B1F9454904462846B3
:101310000BF0B4FA014620460BF0A8F901464FF055
:101320007E500BF05FFB3F490BF09EF99DF81F20AC
:101330009DF82030786603EB022009300BF04AFA62
:1013400039490BF04FFB01462F480BF04BFB2F495F
:101350000BF08AF92E490BF091FA054609F0FCFAD8
:101360000446284609F0F8FA2A4909F067FB2A4999
:10137000054620460BF082FA28490BF077F92849F8
:10138000044628460BF07AFA014620460BF06EF927
:1013900001464FF07E500BF025FB22490BF064F91B
:1013A000B86604463846FFF7D9FA396F05460BF0A0
:1013B00003FC00B13D677D6E204629460BF01AFC08
:1013C000A0B92946786F0BF0F7FB08B12C467C6773
:1013D000164800F013FE01200DE69DF821901448F8
:1013E00049464246C34600F009FEFAE5796F2046B9
:1013F0000BF000FC0028EAD1EAE700BF1357053BD9
:101400002003C839001601470AD7E33FE17A644058
:1014100000007A4400004040A40D8F395A80473ABA
:1014200046A6DB3333938843002C0147040F0100A9
:10143000E00E01002DE9F8430026D0F88080066612
:101440008146044600F1200754F8045B41462846D3
:101450000BF0D0FB084950B128460BF0ADFB30B182
:10146000304629460BF002F90646C9F86000BC4236
:10147000EAD13046BDE8F8830000704202299ABFE5
:1014800000EB8100406E0020704700BF3E2998BFEE
:1014900080F89C10704700BF90F88400704700BF30
:1014A000C0F89810704700BF80F88410704700BFE4
:1014B00030B5C0F8801083B008460AF035FD074CFF
:1014C000022502460B460095204608F07DFE204688
:1014D00003B0BDE8304008F01FBE00BFCC87FF1F3F
:1014E00070B5064600F1280400F526552046A834BC
:1014F000FEF7BCFFAC42F9D106F1D0050124284625
:101500000021FFF7D1FF214628460134FFF7BEFF37
:101510003F2C05F1A805F2D142F6881400250548B4
:10152000054A064B3555002130617161B261F361A6
:10153000304670BD00007A44000048430000C8C235
:1015400042F68C132DE9F041002200F52657804623
:10155000C2500C3700F1D00400F5265602E0A83442
:10156000B4420DD02046FFF797FF0028F7D0204661
:101570003D68FFF7CFF8A8342844B4423860F1D171
:1015800042F68C1358F80300BDE8F081F8B50E461A
:10159000096801F47F6500290446A5F5C06511DBE3
:1015A0002D0901F00F07A82303FB0544283420462A
:1015B0000121FFF779FF324639462046BDE8F84061
:1015C000FFF714BA0A4801F00F0708F0A5FD122131
:1015D000084808F00BFB3168054801F00041002382
:1015E0000A2208F0A9FD02482D0908F095FDDAE766
:1015F000CC87FF1F7C0F0100704700BF704700BF02
:101600002DE9F0430446002383B0064644F8D03B5E
:10161000012504E001353F2D04F1A80469D02046DE
:10162000FFF73AFF0028F5D0504800F0E7FC2946C4
:101630004F4800F0E3FC2046FFF7BCFA2046FFF7D6
:10164000F9FE0AF071FC02460B464A4800F0D6FC4F
:101650002046FEF7F3FF80462046FFF70BF80746CB
:1016600040460AF061FC8046384689460AF05CFC38
:1016700042464B46CDE900013F4800F0BFFC002147
:101680002046FFF7FBFE012180462046FFF7F6FECD
:10169000074640460AF048FC8046384689460AF02C
:1016A00043FC42464B46CDE90001344800F0A6FC1D
:1016B0002046FFF7BFFE014630680AF0D7FF3060D2
:1016C0002046FFF74BF9B1690BF076FA002833D1C9
:1016D0002046FFF723F8F1690BF08CFA002899D027
:1016E0002046FFF71BF801353F2DF06104F1A804F7
:1016F00095D170680BF06EF8014630680BF072F906
:101700007169306004460BF075FA00B1746131699B
:1017100020460BF051FA00B134610B2006F068FE50
:1017200042F68813F35C60B99BB142F6881301223C
:10173000F25403B0BDE8F0832046FFF70FF9B06123
:10174000C6E753B942F688130022F25403B0BDE84D
:10175000F0830B4800F080FCE7E70A4800F066FCE5
:1017600042F688130022F254F0E700BF781101001E
:10177000900F0100CC0F0100E00F01000C100100E0
:101780002810010060100100104B70B50646836000
:1017900000F1D00400F5265502E0A834AC4213D085
:1017A0002046FFF779FE0028F7D02046FEF746FFD7
:1017B000B1680BF001FA0028EFD02046FEF73EFF9B
:1017C000A834AC42B060EBD1B06870BD0000A0405E
:1017D000002370B50646C36000F1D00400F526551D
:1017E00002E0A834AC4213D02046FFF755FE002893
:1017F000F7D02046FEF73EFFF1680BF0FBF900281A
:10180000EFD02046FEF736FFA834AC42F060EBD1B3
:10181000F06870BD0068704741607047F8B50F46CA
:10182000164600F1D004012504E001353F2D04F1F6
:10183000A8041BD02046FFF72FFE0028F5D029462C
:101840000B4808F0B9FC0A4808F066FC782008F05C
:1018500051FA20463946FFF723FE0135204631462E
:10186000FFF726FE3F2D04F1A804E3D1F8BD00BF29
:10187000CC87FF1F2DE9F84342F68413002700F5BB
:1018800026568046C7504FF00009043600F1D004B8
:1018900000F5265502E0A834A54213D02046FFF7F4
:1018A000FBFD0028F7D03368013333602046FEF794
:1018B00041FF1D490BF09EF988B9A834A54207F1F4
:1018C0000107EBD142F6841358F80300C01B0AF05D
:1018D00081FF014648460BF085F8BDE8F8832046B5
:1018E000FEF728FF014648460AF0C0FE8146204622
:1018F000FEF720FFD8F820100BF07CF970B92046D5
:10190000FEF718FFD8F824100BF056F90028C2D0C3
:101910002046FEF70FFFC8F82400BCE72046FEF77C
:1019200009FFC8F82000EAE700008CC2006A70478F
:10193000406A7047F8B50746002600F1D00400F56C
:10194000265502E0A834AC420FD02046FFF7A4FD94
:101950000028F7D02046FEF7AFFE014630460AF0D9
:1019600085FEA834AC420646EFD142F68413F858FF
:101970000AF030FF014630460BF034F8F8BD00BFE6
:101980002DE9F04F06468FB083488B4600F0DEFA13
:10199000814800F0DBFA804800F0D8FA42F6841360
:1019A0003046F2580D92FFF7CBFD73680C93074653
:1019B00030680AF0B9FA804630468946FFF7BAFF28
:1019C00082463046B468F568FFF754FF0AF0ACFA77
:1019D000CDE90A01214628460AF046FE6F490AF081
:1019E0004DFF0AF0A1FACDE9080128460AF09CFA59
:1019F000CDE9060120460AF097FACDE904015046E8
:101A00000AF092FA0D9A0C9BCDE90201CDE900890A
:101A1000114663483A4600F099FA5F4800F096FA9A
:101A2000D0364FF001084FF0000A07E008F1010836
:101A3000B8F13F0F06F1A80600F0A5803046FFF789
:101A40002BFD0028F2D03046FEF7E2FD3046FEF7CF
:101A5000E3FD3046FEF7E4FD3046FEF7E5FD0821E4
:101A6000504808F0C3F841464F4808F0A5FBB8F1CC
:101A7000090F40F38B8002214C4808F0B7F830463C
:101A8000FFF7D8FC0AF050FA5FFA8BF902460B46D2
:101A9000CDF80090444808F097FB0121444808F035
:101AA000A5F85546002420E00621424808F09EF89B
:101AB00029463D4808F080FB02213F4808F096F88F
:101AC00021463046FEF7B4FD0AF02EFACDF800901C
:101AD00002460B46344808F077FB013401213448B4
:101AE00008F084F8082C09D03D46092D05F10107BE
:101AF000DADC0121314808F079F8D5E72A4808F006
:101B00000BFB09212E4808F071F800213046FFF741
:101B1000B5FC0AF009FA022402460B46009422485A
:101B200008F052FB0A21274808F060F801213046EE
:101B3000FFF7A4FC0AF0F8F9009402460B461A4895
:101B400008F042FB0A21204808F050F821463046B0
:101B5000FFF794FC0AF0E8F9009402460B4612489D
:101B600008F032FB0121194808F040F808F101089B
:101B70000D4808F0D1FAB8F13F0F0AF1080A06F152
:101B8000A8067FF45BAF0FB0BDE8F08F01210B48D2
:101B900008F02CF86FE700BF7811010000007A44CC
:101BA00010130100B0130100CC87FF1FE0210100DA
:101BB000BC130100C0130100AC150100BC150100ED
:101BC000C8130100D4130100E0130100EC1301005D
:101BD0002DE9F04F00F1D00583B0884691462E469E
:101BE0004FF0010B06E00BF1010BBBF13F0F06F1CB
:101BF000A80672D03046FFF74FFC0028F3D0002330
:101C00000A224146744808F097FA0121734807F008
:101C1000EDFF48460AF088F9022402460B4600947C
:101C20006D4808F0D1FA01216C4807F0DFFF5946F2
:101C3000694808F0C1FA0121684807F0D7FFA246B9
:101C4000002421463046FEF7F3FC0AF06DF9CDF88A
:101C500000A002460B46604808F0B6FA01340121A4
:101C60005E4807F0C3FF082C4FF00207E9D10021BE
:101C70003046FFF703FC0AF057F9009702460B467F
:101C8000554808F0A1FA0121544807F0AFFF01219F
:101C90003046FFF7F3FB0AF047F9009702460B4680
:101CA0004D4808F091FA01214C4807F09FFF394652
:101CB0003046FFF7E3FB0AF037F9009702460B4680
:101CC000454808F081FA0BF1010B434808F024FA6B
:101CD000BBF13F0F06F1A8068CD14FF0010A06E0D8
:101CE0000AF1010ABAF13F0F05F1A80570D02846A4
:101CF000FFF7D2FB0028F3D000230A2241463848E0
:101D000008F01AFA0121354806F086FE48460AF026
:101D10000BF9022702460B460097314808F054FAA7
:101D200001212E4806F078FE51462D4808F044FA6D
:101D300001212A4806F070FE002421462846FEF7BD
:101D400077FC0AF0F1F8009702460B46244808F0A9
:101D50003BFA01340121214806F05EFE082C4FF0C9
:101D60000206EAD100212846FFF788FB0AF0DCF8DA
:101D7000009602460B461A4808F026FA0121174839
:101D800006F04AFE01212846FFF778FB0AF0CCF85E
:101D9000009602460B46124808F016FA01210F4839
:101DA00006F03AFE31462846FFF768FB0AF0BCF819
:101DB000009602460B460A4808F006FA0AF1010AA4
:101DC000074808F0A9F9BAF13F0F05F1A8058ED12F
:101DD00003B0BDE8F08F00BFCC87FF1FF0130100F8
:101DE000BC87FF1F014B1870704700BF2087FF1F83
:101DF000024B1878B0FA80F0400970472087FF1F27
:101E00000278002A00F0908070B5034682B00D463B
:101E1000252A2AD158785C1C08B325282FD073288E
:101E200031D0642824D0692822D066284FD07A285F
:101E300059D0782835D058282FD062283ED0422853
:101E400038D06C2814D0632812D0742857D0542866
:101E50005FD007F04FFF6278631C002AD8D1344866
:101E600002B0BDE8704008F057B918781C46F0E79A
:101E70002B1D29682E481D4608F09EF9EBE71046F9
:101E800007F038FFE7E72E6830460BF019FD0146F2
:101E90003046043507F0AAFEDDE70221254807F0A9
:101EA000A5FE2E1D2968224800231022354608F081
:101EB00043F9D0E70221204807F098FE2E1D29683B
:101EC0001B4800230222354608F036F9C3E70735E0
:101ED00025F007050321D5E90023154800910835B1
:101EE00008F072F9B7E7073525F007050021D5E9B5
:101EF00000230F480091083508F066F9ABE7296820
:101F000001290EBF0D480E480121043507F06EFE71
:101F1000A1E72B68012B07BF04210A480A480521C5
:101F2000043507F063FE96E7014808F0F5B800BFF6
:101F3000CC87FF1FF4130100F8130100FC1301000C
:101F400000140100041401000C1401000FB400B5CA
:101F500083B004A951F8040B0191FFF751FF03B0BE
:101F60005DF804EB04B0704770B51B4B1B4C1B684D
:101F700082B00D460193019B23601946044600235D
:101F8000164617480A2208F0D7F80321154807F02B
:101F90002DFE032C07D8DFE804F01A1510020521E6
:101FA000114807F023FE0221104807F01FFE3146BA
:101FB0002846FFF725FF02B070BD07210C4807F047
:101FC00015FEF0E704210B4807F010FEEBE70521B2
:101FD000094807F00BFEE6E720C0FF1F4492FF1FF1
:101FE000CC87FF1F1414010030140100AC15010050
:101FF0002814010020140100181401000FB400B5CA
:10200000094B187883B020B103B05DF804EB04B03D
:10201000704705AB1A4604990193FFF7A5FF03B07B
:102020005DF804EB04B070472087FF1F0FB4094B25
:1020300000B51B78012B83B004D903B05DF804EB25
:1020400004B0704705AB1A46049901930120FFF7CD
:102050008BFFF2E72087FF1F0FB40B4B00B51B78F7
:10206000032B83B004D903B05DF804EB04B07047D0
:1020700005AB1A46049901930320FFF775FF03B0DF
:102080005DF804EB04B070472087FF1FF8B53A48AD
:102090003A4F3B4D3B4E3C4CFFF758FF3B4B3C49C6
:1020A0003C4A3D485960DA603C491F6100223C4F80
:1020B00058615D623B489E614FF07C553A4E9C6290
:1020C0003A4CD9621A630C21394A5F639863394FDD
:1020D0005D6440F61C400A259E64DC6441F20406FF
:1020E0005A2419651A6202210122C3F8B870986651
:1020F000314FDD66002064251E675C674FF49676DD
:102100003224597059721A725A65DF61DF6383F89D
:1021100040005E66DE651C664FF47A7E9D65274F43
:102120009867274ED967C3F88000C3F89440C3F876
:10213000A040C3F89C00FF24C3F8A820C3F8AC104B
:10214000052041F2883183F8BC2040F2D662C3F802
:10215000B050C3F898E0C3F88870C3F88C60C3F837
:10216000A440A3F8B600C3F89010A3F8B410A3F8E5
:102170008420A3F88620F8BD3814010000004040F8
:10218000CDCCCC3DCDCC4C40000082423093FF1FE3
:1021900020A107006666864033338340000020C1DB
:1021A000000020420000A0409A9979400AD7233DC0
:1021B000333373409A99993ECDCC4C3E000068422F
:1021C00000C02044F0B54FF47A6085B006F046F9BF
:1021D00000210F2006F01AF900210E2006F016F952
:1021E0000021112006F012F90021102006F00EF94E
:1021F0000021122006F00AF90021132006F006F94A
:1022000001210B2006F002F901210C2006F0FEF856
:102210000121142006F0FAF80121152006F0F6F845
:102220000121162006F0F2F80121172006F0EEF841
:102230000121052006F0EAF88E4C8F4D0121062081
:1022400006F0E4F801210D2006F0E0F820880AF0FD
:10225000BDFA0146162006F043F820880AF0B6FAC7
:102260000146172006F03CF820880AF0AFFA014634
:10227000052006F035F820880AF0A8FA0024014667
:10228000062006F02DF8009423467C4A7C497D48C0
:1022900004F00AFDE6B2324677497A4804F0B2FC0F
:1022A0002B79754977486FF30003013432462B715F
:1022B00004F09EFC082CEDD10924E6B232466E49AA
:1022C000704804F09FFC2B796B496E4843F0010382
:1022D000013432462B7104F08BFC0D2CEDD16A4C8D
:1022E0004FF0FF322068102105F0AAF820684FF067
:1022F000FF32102105F07CF820684FF0FF320221F8
:1023000005F08AF820684FF0FF32022105F08EF8C0
:1023100000220F21206805F09DF80C215B4807F092
:1023200065FC5B4807F0F8FE14215A4807F05EFC94
:10233000574807F0F1FE564807F0EEFE17215648C1
:1023400007F054FC524807F0E7FE544B1B789A06FE
:1023500000F1BE80514B1B781B0700F1C5804F4B2D
:102360001B785F0700F1CC804C4B1B789E0700F177
:10237000D3804B4B1B781D0600F1DA80484B1B784D
:102380005C0600F1E180464B1B78980600F1E8807E
:10239000434B1B78590700F1EF80414B1B781A071C
:1023A00000F1F6803E4B1B789B0700F1FD8038481A
:1023B00007F0B2FE72B63B4A4CF220534DF628119C
:1023C0002024138023461180013BFDD1364D374830
:1023D000374900234FF480562E8003800B8032F85B
:1023E0000E3C9BB243F0D30322F80E3C62B69D2014
:1023F00006F0EEFC21462F482F4D07F0F7FB24484E
:1024000007F08AFE05F1C0062F462C46601B05F03A
:1024100003FD04F8010BB442F8D13B78102B01D036
:10242000FFF734FE2548FFF7E9F80420FFF7DAFC50
:10243000234B224800221A60FFF7DEF801210D200D
:1024400005F0D0FF796D1D48FFF7E6F97A6C97F833
:1024500040101A48FFF7E2F91A4B1B491A68039219
:1024600003981B680293029A184B08601A6005B023
:10247000F0BD00BF2887FF1FF893FF1F14C0FF1F88
:1024800020A1070078BEFF1FA894FF1F5814010069
:10249000CC87FF1F681401008014010001F0074081
:1024A00000F007400E2005400420054006200540AE
:1024B00016200540841501003093FF1FDC94FF1F98
:1024C0005892FF1F20C0FF1FD894FF1F0094FF1FCA
:1024D0002121394807F08AFB384807F01DFE384BA8
:1024E0001B781B077FF53BAF0C21364807F07EFBBE
:1024F000324807F011FE324B1B785F077FF534AF8F
:102500000E21314807F072FB2C4807F005FE2C4BDA
:102510001B789E077FF52DAF17212C4807F066FB2F
:10252000264807F0F9FD2A4B1B781D067FF526AFDC
:102530000E21284807F05AFB204807F0EDFD244BF8
:102540001B785C067FF51FAF1221234807F04EFB76
:102550001A4807F0E1FD1E4B1B7898067FF518AF6F
:1025600013211E4807F042FB144807F0D5FD184B15
:102570001B7859077FF511AF1C21194807F036FB6E
:102580000E4807F0C9FD124B1B781A077FF50AAFFA
:102590001921144807F02AFB084807F0BDFD0C4B31
:1025A0001B789B077FF503AF18210F4807F01EFB30
:1025B000024807F0B1FDFAE698140100CC87FF1F2E
:1025C00001F00740BC140100CC140100DC14010030
:1025D00000F00740F4140100041501001815010073
:1025E0002C1501004C1501006815010070B5464C12
:1025F000464D4748E66800232B70FFF7E9F801468F
:1026000030460AF0D9FA08B104232B704048FFF78E
:10261000BBF821690AF0D0FA18B12B7843F0100307
:102620002B703B48FFF726F9A16A0AF0E3FA18B1CC
:102630002B7843F040032B70002335486B70FFF775
:1026400019F9E16A314E0AF0B7FA08B10123737043
:1026500000232F48EB70FFF7BBF805462C482B4EA4
:10266000FFF792F80146284609F0FEFFE16B0AF0F9
:10267000C1FA08B10123F370264D254800232B70C1
:10268000FFF7A6F8616A0646E06809F0EDFF01462B
:1026900030460AF0AFFA08B104232B701C48FFF74C
:1026A00073F8616A0646206909F0E0FF014630468A
:1026B0000AF082FA18B12B7843F010032B701448FB
:1026C000FFF7D8F8A16B0646A06A09F0CDFF0146D6
:1026D00030460AF08FFA18B12B7843F040032B7084
:1026E00000230B486B70FFF7C5F8A16B0546E06A45
:1026F000084C09F0BBFF014628460AF05DFA08B114
:102700000123637070BD00BF3093FF1F2C93FF1F28
:10271000DC94FF1F9894FF1F2DE9F0417C4C236847
:10272000012B82B031D0022B00F0A880032B00F0E7
:10273000C8803BBB774B784AD3F8A010D3F8A430BD
:1027400012685B1A632B0EDD744803FB02F380FBF7
:102750000302DB17C3EB62131944062002B0BDE885
:10276000F04105F0BFBC6E4803FB022380FB03026F
:10277000DB17C3EB22121144062002B0BDE8F04182
:1027800005F0B0BC02B0BDE8F081664E33680A3394
:10279000B3F57A7F00F3B780184633600AF01AF871
:1027A00061490AF06BF880465A4DD5F8A0000AF04E
:1027B00011F80746D5F8A4000AF00CF8394609F0DC
:1027C00053FF41460AF05AF858490AF00BF93946C6
:1027D00009F04CFF0AF02EFA0146062005F082FCB3
:1027E0000221534807F002FA524807F095FC0621EF
:1027F000514807F0FBF9306809F0ECFF4A490AF04C
:102800003DF809F091FB022702460B460097494824
:1028100007F0DAFC0D21494807F0E8F9D5F8A000E7
:1028200009F0D8FF8046306809F0D4FF3E490AF02D
:1028300025F80646D5F8A40009F0CCFF414609F07A
:1028400013FF014630460AF019F838490AF0CAF871
:10285000414609F00BFF09F067FB00970B46024663
:10286000344807F0B1FC3946314807F0BFF9314828
:1028700007F052FC2368022B7FF458AF294B254EFA
:1028800000221A60D6F8A00009F0A4FF0546D6F889
:10289000A40009F09FFF294609F0E6FE002109F097
:1028A000EDFF22490AF09EF8294609F0DFFE0AF002
:1028B000C1F90146062005F015FC2368032B7FF4BF
:1028C00038AF184B134E4FF47A721A60D6F8A00046
:1028D00009F080FF0546D6F8A40009F07BFF2946E1
:1028E00009F0C2FE114909F0C9FF10490AF07AF84F
:1028F000294609F0BBFE0AF09DF90146062005F0C5
:10290000F1FB236815E700234FF0000833604BE725
:102910008494FF1F3093FF1F3487FF1F1F85EB51E7
:10292000CBF08D285C92FF1FCDCCCC3D0000C8427F
:10293000E0210100CC87FF1FA8150100B0150100A0
:1029400070B5A248A24C07F0E7FBA04807F0E4FBF3
:102950009E4807F0E1FB0D219E4807F047F9D4F8A7
:102960009C30012B11D09C4C9848217800230A22DE
:1029700007F0E2FB2378052B67D8DFE813F0E900C6
:10298000EE00F300F800FD00E4000921934807F091
:102990002DF99348FEF7F8FE21690AF00DF918B1F8
:1029A0000F21904807F022F98D48FEF711FFE168EA
:1029B0000AF020F918B10E218B4807F017F9884862
:1029C000FEF706FF05468648FEF7DEFE014628466E
:1029D00009F04AFEE16B0AF00DF918B111218348A4
:1029E00007F004F97E48FEF745FFA16A0AF002F9F4
:1029F00018B10C217E4807F0F9F87948FEF73AFF44
:102A0000E16A0AF0D9F818B10D217A4807F0EEF81A
:102A1000794B73481B68012B00F0C280FEF7B4FEAF
:102A200021696B4D0AF0E6F878B16D48FEF7D0FEEB
:102A3000E9680AF0C1F840B1674B1B78052B00F03C
:102A4000C08008216D4807F0D1F802216C4807F0DA
:102A5000CDF8122005F0CCFC012800F09C8011205C
:102A600005F0C6FC012800F09180664B1B68012B25
:102A700000F087800221624807F0B8F8624B5348A3
:102A8000196807F099FB514807F046FB04215F489D
:102A900007F0ACF80B2005F0ABFC002301460A223E
:102AA0004A4807F049FB0C2005F0A2FC0023014630
:102AB0000A22464807F040FB142005F099FC002349
:102AC00001460A22414807F037FB152005F090FC2B
:102AD000002301460A223D4807F02EFB06214C4800
:102AE00007F084F84B4B394819680222002307F09D
:102AF00023FB0421484807F079F8112005F078FC01
:102B0000002301460A22314807F016FB102005F089
:102B10006FFC002301460A222C4807F00DFB12200F
:102B200005F066FC002301460A22284807F004FB52
:102B3000132005F05DFC002301460A222348BDE86E
:102B4000704007F0F9BA0721344807F04FF87CE7E6
:102B50000621334807F04AF877E70721314807F0A4
:102B600045F872E70721304807F040F86DE7082183
:102B70002E4807F03BF868E70B212D4807F036F8A0
:102B800063E711212B4807F031F873E70A212A483F
:102B900007F02CF869E70E21284807F027F85EE7D0
:102BA000FEF7F2FD216A0AF025F800283FF449AF4C
:102BB0001621234807F01AF80A21224807F016F8D0
:102BC00043E70A211F4807F011F83EE7CC87FF1FB3
:102BD0003093FF1FC01501009494FF1FD015010012
:102BE000DC94FF1FDC150100EC150100FC15010051
:102BF00010160100201601006892FF1F54160100F4
:102C0000E0210100B094FF1F8894FF1FC816010047
:102C1000D0160100F093FF1FD81601009016010096
:102C200060160100681601007C1601008416010080
:102C300070160100B4160100A816010098160100D4
:102C400030160100481601002DE9F04F934C944FC7
:102C5000E36F012B8DB000F04981032B50D0914ED2
:102C6000914DA36F9148012B09BF2968296801F193
:102C70000041296004F0C2FF3368002B40F0CE8091
:102C80008A4804F091FFE36F3860012B064600F09C
:102C9000D280874909F0AEFF78B98649304609F0FD
:102CA0008BFF50B9844A854B12680B920B9A1A60BD
:102CB00000232B600DB0BDE8F08FDFF8FC817F4C66
:102CC000D8F800300A930A9823687D4FC01A09F09B
:102CD0007DFD314609F0D2FD7A4909F083FE79493C
:102CE00009F080FE396809F0C1FCD8F8003009937A
:102CF000099B2360002338602B600DB0BDE8F08F86
:102D0000DFF8C881704DD8F80000664E012300221C
:102D10000F212B6004F09EFB2B68012B336800F021
:102D20000381002B40F0A6810021D8F80000DFF8D5
:102D3000B891664D04F0E0FB33681FFA80FBC9F8D8
:102D400000B0002B40F07B810021D8F80000564DE8
:102D5000DFF878A104F056FBB4F8863040F6E44181
:102D600001FB0BF1B1FBF0F0C01A00B209F032FD2B
:102D700057498346D4F8880009F080FD014658463B
:102D800009F030FED9F800302860632BDFF858B125
:102D900000F3498100232B603368002B3FF461AFBF
:102DA00002214C4806F022FFD9F80020D8F8000094
:102DB00040F6E443002103FB02F804F023FBB8FBD8
:102DC000F0F009F003FD8046B4F8860009F002FD3A
:102DD0000146404609F048FC09F0A6F84FF0020809
:102DE00002460B46CDF800803B4807F0EDF941461E
:102DF000384806F0FBFE286809F096F8CDF8008008
:102E000002460B46344807F0DFF94146334806F0E6
:102E1000EDFE41462F4806F0E9FE22E7234804F084
:102E2000C3FE09F081F8022602460B4600962A48A6
:102E300007F0CAF924E7244B1B68012B00F0268118
:102E4000022B7FF435AF264909F0D4FE30B925496D
:102E5000304609F0B1FE002800F04781DFF85880C5
:102E6000164CD8F80030079307982368144FC01AFF
:102E700009F0ACFC314609F001FD124909F0B2FD40
:102E8000104909F0AFFD396809F0F0FBD8F80030BF
:102E90000693069B386023600AE700BF3093FF1F4C
:102EA0007492FF1FD494FF1F6492FF1F0893FF1FAB
:102EB0000000FA430000FAC320C0FF1FA494FF1FC4
:102EC0008092FF1F00007A445087FF1FA894FF1FC5
:102ED00017B7D138E0210100CC87FF1F1C17010074
:102EE00000C82F4800A08CC62893FF1F3D68984952
:102EF000284609F061FE30B12846964909F07AFE6D
:102F000000287FF4FDAEDFF85882934DD8F800001A
:102F1000924E022300220E212B6004F09BFA2B68B4
:102F2000012B33687FF4FDAE002B40F000810021BF
:102F3000D8F80000DFF86C92894D04F0DDFA3368B0
:102F40001FFA80FBC9F800B0002B40F0D5800021AB
:102F5000D8F80000834D04F055FAB4F8843040F6F8
:102F6000E44A0AFB0BFBBBFBF0F0C01A00B209F00D
:102F700031FC7D498346D4F88C0009F07FFC014682
:102F8000584609F02FFDD9F8003028600021D8F804
:102F900000000AFB03FA04F035FAB4F88430BAFBF7
:102FA000F0F00FFA80FAC3EB0A03002BB4F8B62056
:102FB000B8BF5B429342BCBF00232B603368002B39
:102FC0003FF44FAE0221694806F010FED9F8002008
:102FD000D8F8000040F6E443002103FB02F804F0B7
:102FE00011FAB4F88410B8FBF0F000B2411A60484E
:102FF00007F0E2F802215D4806F0F8FD286808F0C5
:1030000093FF4FF0020802460B46CDF80080584867
:1030100007F0DAF80321574806F0E8FD4146534827
:1030200006F0E4FD1DE6DAF80000002104F0EAF9FC
:10303000DBF8003064389842FFF4ACAEACE6002117
:10304000286804F0DFF940F6E44100230A2201FB7E
:103050000BF1B1FBF0F1464807F06EF8022143484E
:1030600006F0C4FDB4F88610414807F0A5F8D9F879
:1030700000B069E63E4807F04FF80C213E4806F0E4
:10308000B5FD0C213D4806F0B1FD4DE63C4909F087
:10309000B1FD58B93B49304609F08EFD30B93A4A86
:1030A0003A4B12680592059A1A6001E6DFF8D8805B
:1030B000364CD8F80030049304982368344FC01A73
:1030C00009F084FB314609F0D9FB324909F08AFC4A
:1030D000304909F087FC396809F0C8FAD8F800309F
:1030E0000393039B38602360E2E5274A274B12686D
:1030F0000892089A1A60DBE50021286804F082F93A
:1031000040F6E44100230A2201FB0BF1B1FBF0F190
:10311000174807F011F801211F4806F067FDB4F8C1
:103120008410134807F048F8D9F800B00FE71048AA
:1031300006F0F2FFE36F012B4FF00B010CBF1748B5
:10314000174806F053FD0C210C4806F04FFDEEE643
:1031500000709446007094C65087FF1FD494FF1FE0
:10316000A894FF1F6492FF1F17B7D138E021010018
:10317000CC87FF1F081701000C170100F81601008B
:103180000000FA430000FAC320C0FF1FA494FF1FF1
:103190008092FF1F00007A44BC150100E016010078
:1031A000EC1601002893FF1F2DE9F047B24D2B6864
:1031B00084B0002B7ED0B14CDFF8C882B04EE36FF4
:1031C000AE4D012B00F08F80D4F88030AB4F012B37
:1031D00000F0BC80D6F80090D7F858A07D6DA94FBC
:1031E00005FB0AF54FF47A7000FB05F009F0F2FADE
:1031F000A5490546484609F041FB294609F0F2FB7E
:10320000A24909F03BFB09F015FD6328C8F800004E
:103210004BDD28469C4909F0E5FB642330603B60A8
:103220009B4B1B68002B3DD0E36F944D012B00F0AE
:10323000BB80032B00F00981022B00F00C810221DE
:10324000944806F0D3FC944B186808F06DFE0224F5
:1032500002460B460094914806F0B6FF214690487E
:1032600006F0C4FC21468B4806F0C0FCD8F80010DC
:103270008A4806F0A1FF06218A4806F0B7FC3068AC
:10328000814909F0FBFA08F04FFE009402460B4614
:10329000824806F099FF0321834806F0A7FC7F4887
:1032A00006F03AFF04B0BDE8F0870028BCBF002359
:1032B0003B60B5E77D4E714C33680293029A42F24F
:1032C00028339A4200F2BA8033680393039A42F299
:1032D00010739A4274D8E36FDFF8A881684E674D87
:1032E000012B7FF471AF7248FEF724FB7149D5F8CA
:1032F0006890EF6E09F0C2FA09F0C2FC2A6F6B6F9A
:10330000C9EB0202DB1B80B29A42C9EB000040F31A
:10331000AD8003FB0000531C90FBF3F31F44A06D32
:10332000636DC8F8007000FB07F003FB00F000EBD2
:103330008000400009F04EFA5349504F09F052FB0B
:10334000D4F880303060012B7FF444AF5848FEF74A
:10335000F1FA5849D7F86890FD6E09F08FFA09F034
:103360008FFC3A6F7B6FD4F858A0C9EB02025B1B4D
:1033700080B29A42C9EB0000C6BF03FB00000132D5
:10338000584390FBF2F02844656D00FB0AF005FB02
:1033900000F000EB8000400009F01CFA3A4909F007
:1033A00021FB814630601AE7434B1B68012B4FF02D
:1033B0000A010CBF4148424806F018FCEB6F38E7A1
:1033C0003B48FEF7B7FA3B49A76EE66E09F056FA9E
:1033D00009F056FC226F636FD21B9B1B80B29A428E
:1033E000A0EB07003CDD03FB0000531C90FBF3F354
:1033F0009819A26DDFF88C80636DC8F8000002FB9D
:1034000000F003FB00F000EB8000400009F0E2F95F
:103410001D491B4E09F0E6FA0123306002211D48C8
:103420002B6006F0E3FB1D4806F076FE5921254887
:1034300006F0DCFB194806F06FFEC0E61C48626C23
:1034400094F84010FEF7EAF93EE710211E4806F016
:10345000CDFBE36FF0E607211C4806F0C7FBEEE664
:1034600003FB00F393FBF2F39819C2E703FB00F3AD
:1034700093FBF2F31F4452E76092FF1F3093FF1F4C
:103480008092FF1F3487FF1FE4388E3E0000C84241
:103490003C87FF1FE02101007492FF1FCC87FF1FB4
:1034A0001C170100B0170100B817010020C0FF1F52
:1034B000DC94FF1F00007A445087FF1F7C17010037
:1034C000881701002017010094170100A8170100B8
:1034D00030B5112083B004F08BFF012818D01220E2
:1034E00004F086FF012813D000210B2004F07AFF9E
:1034F00000210C2004F076FF0021152004F072FF5B
:103500002649274B0120002208701A6003B030BD05
:103510000121152004F066FF224A234C234B126838
:10352000D4F8901001921B68019A1D4D0B449342F0
:103530004FF00201296005D901210C2004F052FF4F
:1035400003B030BDD4F8980009F044F9184B19685D
:1035500009F032FB0028EFD101210B2004F042FFDB
:1035600094F8BC3003242C6043B10C4B02221A7037
:1035700000210C2004F036FF03B030BD122004F00F
:1035800037FF012808BF054B4FF0110008BF1C7022
:1035900004F02EFF0128EBD1E7E700BF9494FF1F52
:1035A000D094FF1F20C0FF1F3093FF1FD894FF1F30
:1035B0007492FF1FF0B5684E684D34682B689C42CA
:1035C00087B039D014F0010155D014F0020149D070
:1035D00014F004013DD0E3070ED52B68DF070BD4B0
:1035E0005F4F3A68002A00F082805E4B1B680193AF
:1035F000019B93426DD83468A0070DD52B689907BD
:103600000AD4594F3A68002A4CD0564B1B68039392
:10361000039B934238D8346862070DD52B685B074B
:103620000BD4524F3A68002A7ED04E4B1B6805934C
:10363000059B934268D834680CB107B0F0BD2146B1
:10364000162004F04FFD2146172004F04BFD07B073
:10365000F0BD052004F046FD2B68346803F0FB0341
:103660002B60B8E7172004F03DFD2B68346803F0A9
:10367000FD032B60ACE7162004F034FD2B683468A2
:1036800003F0FE032B60A0E7394B1720D3F894100A
:1036900004F028FD2B68346843F0020300222B60FD
:1036A0003A60B9E7334806F037FD0C21324806F09E
:1036B0009DFA304806F030FDFF21172004F012FD7E
:1036C000284B2E4A19680291029912680A443A60FE
:1036D0009CE7274B1620D3F8941004F003FD2B68C9
:1036E000346843F0010300222B603A6084E7FF2135
:1036F000162004F0F7FC1B4B204A19680091009932
:1037000012680A443A6071E7194B0520D3F8941007
:1037100004F0E8FC2B68346843F0040300222B60BB
:103720003A60002C89D18AE7124806F0F5FC0C219A
:10373000134806F05BFA0F4806F0EEFCFF21052067
:1037400004F0D0FC074B0D4A1968049104991268E3
:103750000A443A606AE700BFD094FF1FF093FF1F4E
:103760006894FF1F20C0FF1F6C94FF1F7094FF1F01
:103770003093FF1FCC87FF1FBC1701006887FF1F16
:10378000CC1701002DE9F047544EDFF87481DFF8C3
:1037900074913068524D00220F2103F05BFE00232C
:1037A000012222214F48C8F80030C9F8002006F055
:1037B0001DFAD8F80030132B22DC40F6E447002134
:1037C0003068B5F884A003F097FE00210446306805
:1037D00003F018FEA4B2012107FB04F4B4FBF0F4DB
:1037E00041485444A5F8844006F000FA642004F0EF
:1037F00035FED8F800300133132BC8F80030DEDD79
:10380000B5F88430394A3A48A2FB03129B1A02EBFE
:103810005303C3F30F131946A5F8843006F0CCFC0C
:103820001D21344806F0E2F90221334806F0DEF9A2
:103830002F4806F071FC00231A460E213068C8F8A4
:10384000003003F007FE022322212648C9F8003089
:1038500006F0CCF9D8F80030132B22DC40F6E44710
:1038600000213068B5F8869003F046FE002104463A
:10387000306803F0C7FDA4B2012107FB04F4B4FBD8
:10388000F0F419484C44A5F8864006F0AFF96420DE
:1038900004F0E4FDD8F800300133132BC8F80030F1
:1038A000DEDDB5F88630114A1148A2FB03129B1ADF
:1038B00002EB5303C3F30F131946A5F8863006F045
:1038C0007BFC1D210D4806F091F902210A4806F003
:1038D0008DF90748BDE8F04706F01EBCA894FF1F0D
:1038E0003093FF1FDC170100201801008761188644
:1038F000CC87FF1F00180100E021010024180100FF
:103900008C94FF1F5087FF1FA24B2DE9F0411B68CD
:10391000A14CA24D40F2513108222160E271286D84
:10392000002B40F0E48008F055FF6969064608F076
:10393000A5FF9B49994F08F0A1FF09F0A1F980B2BA
:1039400003126372974A984B12681B68A969A372A5
:1039500015121B12E372227320726573304608F051
:103960008DFF8F498C4E08F089FF09F089F983B2E9
:103970001A1231468D48A373E27303F08DFB8C4B12
:103980008C4A1B681288A272DDB205EB8501257294
:1039900003EB8305490045F3D71540F2553E12125B
:1039A0004FF008081B1221736573314600257F48CC
:1039B000C4F800E0E2726372A573E57384F80780CF
:1039C00003F06AFB40F256337B48236084F807809B
:1039D000FDF720FF794908F051FF09F051F92072F5
:1039E0007548FDF717FF754908F048FF09F048F9D9
:1039F000734A7249C0F307236372106808F0F2FF3C
:103A000009F018F940FA08F203466B48E272A37213
:103A1000FDF730FF624908F031FF09F031F92073FA
:103A20006548FDF727FF5E4908F028FF09F028F9EF
:103A30003146C0F307235D486373A573E57303F054
:103A40002BFB022004F00AFD5E4B25731A7859788F
:103A50006573A573E57322729D78DA78617240F21E
:103A60005A3331465148A572E272236084F80780C8
:103A700003F012FB544B4D481A7859782272617248
:103A80009A78D978A272E1721A7959799D7922735C
:103A90006173DA79E27340F25E3331462360A573D5
:103AA00084F8078003F0F8FA022004F0D7FC474BB3
:103AB0003E481A785978227261729A78D978A2723F
:103AC000E1721A7959799D7922736173DA7984F8F0
:103AD00007804FF45C7331462360A573E27303F0F3
:103AE000DBFA3B4B1B68012B06D0BDE8F08108F0E8
:103AF00071FE296A06461AE72F48FDF745FEF96C64
:103B000008F0B4FD05462C48FDF762FE0146284644
:103B100009F052F80028E8D040F2C333264886F86E
:103B200007803360FDF730FEBD6C294609F044F88C
:103B3000D0B12849284608F0A1FE09F0A1F880B2CA
:103B400040FA08F370723372002301260425032221
:103B5000A672E57222736373A373E3730E4913486D
:103B6000BDE8F04103F098BA1348FDF70DFE19497E
:103B700008F084FE09F084F8C0F307230E4833727E
:103B8000FDF702FE134908F079FE09F079F870722A
:103B9000DAE700BF6892FF1FC094FF1F3093FF1F3A
:103BA00000002041A094FF1F5092FF1F78BEFF1F0E
:103BB0003487FF1F3887FF1FDC94FF1F0000C842B7
:103BC0007492FF1F2C93FF1F2C87FF1F5487FF1F2A
:103BD000B094FF1F00007A44F0B59C4C9C4D83B01C
:103BE00005F09EFF23682860042B00F0AC82022BB6
:103BF0004BD0082B00F09280072B40F051813328E6
:103C000001F0F28300F3AD80312801F00084322806
:103C100040F0B08005F0C0FF002840F33F818D48A0
:103C20008D4E06F00BFC08F0D5FD8C4908F026FE01
:103C300061230122F06322602B601846A0F1520339
:103C40001F2B01F2AF83DFE813F02E0BAD0BAD0B92
:103C5000AD0BAD0BAD0BAD0BAD0BAD0BAD0BAD0BA4
:103C6000AD0BAD0BAD0BAD0BB203CB0C3905A705FE
:103C70007304AD0BAD0BAD0B2604AD0BCE0CAD0B31
:103C8000AD0BAD0BAD0BAD0B300BA0F13102422AE9
:103C900070D8DFE812F0F006FC060A0717072A07BB
:103CA00039076F006F006F006F006F006F006F00CB
:103CB0006F006F006F006F006F006F006F006F008C
:103CC0006F006F006F006F006F006F006F006F007C
:103CD0006F006F006F006F006F006F006F006F006C
:103CE0006F006F006F006F006F006F006F006F005C
:103CF0006F006F006F006F006F00DD066F006F00D8
:103D00006F006F006F006F006F006F006F006F003B
:103D10006F006F006F006B006F00E306322800F049
:103D20002F83712822D0312824D105F035FF0028B7
:103D300040F3CF854748484E06F080FBC0B286F876
:103D40004000022894BF01460021726C444888BF9D
:103D500086F84010FDF762FD01236920236028608A
:103D60006CE7342801F02E83712803D100237320DF
:103D700023602860002B08BF73280CBF012000209F
:103D8000002860D0334806F0C7F90421354805F013
:103D90002DFF304806F0C0F91021334805F026FF0A
:103DA0002C4806F0B9F91321304805F01FFF304BBD
:103DB0002848196806F000FA264806F0ADF91421E3
:103DC0002C4805F013FF234806F0A6F91E212A48C7
:103DD00005F00CFF1F4806F09FF91521274805F054
:103DE00005FF1C4806F098F91E21254805F0FEFE47
:103DF000184806F091F92021224805F0F7FE1548F1
:103E000006F08AF91921204805F0F0FE114806F065
:103E100083F912211D4805F0E9FE0E4806F07CF9F1
:103E20000F211B4805F0E2FE0A4806F075F90D2146
:103E3000184805F0DBFE074806F06EF9164A002127
:103E400001231160236003B0F0BD00BF8492FF1F07
:103E50007092FF1FCC87FF1F3093FF1F6F12833AB2
:103E6000DC94FF1F5C200100642001007820010029
:103E70002487FF1F8C200100A4200100C420010022
:103E8000DC200100FC200100202101003C21010078
:103E900050210100602101003C87FF1F2368286832
:103EA000062B40F08D80A0F13102402A3FF662AF30
:103EB00001A151F822F000BFDD48000009490000CF
:103EC000354900005B490000814900009F4900001E
:103ED0003D4A0000753D0000753D0000753D000045
:103EE000753D0000753D0000753D0000753D00000A
:103EF000753D0000753D0000753D0000753D0000FA
:103F0000753D0000753D0000753D0000753D0000E9
:103F1000753D0000753D0000753D0000753D0000D9
:103F2000753D0000753D0000753D0000753D0000C9
:103F3000753D0000753D0000753D0000753D0000B9
:103F4000753D0000753D0000753D0000753D0000A9
:103F5000753D0000753D0000753D0000753D000099
:103F6000753D0000753D0000753D0000753D000089
:103F7000753D0000753D0000753D0000753D000079
:103F8000753D0000753D0000753D0000753D000069
:103F9000753D0000753D0000753D0000753D000059
:103FA000753D0000753D0000753D0000753D000049
:103FB000753D0000753D00006D3D000023682868D8
:103FC000052B15D1332801F0498240F3478135286C
:103FD00001F06B82C1F2538271287FF4CBAEDC4AD0
:103FE00000237320136023602860C3E623682868D9
:103FF000032B40F0A480A0F13002422A3FF6BAAE73
:1040000001A151F822F000BF15410000B15100009C
:104010005F50000087500000A9500000CB50000006
:10402000D9510000015200001F520000435200000D
:10403000753D0000753D0000753D0000753D0000B8
:10404000753D0000753D0000753D0000753D0000A8
:10405000753D0000753D0000753D0000753D000098
:10406000753D0000753D0000753D0000753D000088
:10407000753D0000753D0000753D0000753D000078
:10408000753D0000753D0000753D0000753D000068
:10409000753D0000753D0000753D0000753D000058
:1040A000753D0000753D0000753D0000753D000048
:1040B000753D0000753D0000753D0000753D000038
:1040C000753D0000753D0000753D0000F350000097
:1040D0000B4C00006B52000089520000535100004D
:1040E00071510000C14B0000E54B0000753D000020
:1040F000753D0000753D0000753D0000753D0000F8
:10410000753D0000753D0000753D00001151000037
:104110001D51000005F040FD002841F34C818D4801
:104120008D4E06F08BF901270346014662228B482B
:10413000736527602A60FDF76FFB23682868012BF1
:104140007FF418AE7AE5A0F13102402A3FF612AEB4
:1041500001A151F822F000BF234B00003B4B0000AF
:104160003F4B0000654B0000A54B0000694B000071
:104170007B4B00007F4B0000834B0000753D00002F
:10418000753D0000753D0000753D0000753D000067
:10419000753D0000753D0000753D0000753D000057
:1041A000753D0000753D0000753D0000753D000047
:1041B000753D0000753D0000753D0000753D000037
:1041C000753D0000753D0000753D0000753D000027
:1041D000753D0000753D0000753D0000753D000017
:1041E000753D0000753D0000753D0000753D000007
:1041F000753D0000753D0000753D0000753D0000F7
:10420000753D0000753D0000753D0000753D0000E6
:10421000753D0000753D0000753D0000753D0000D6
:10422000753D0000753D0000753D0000753D0000C6
:10423000753D0000753D0000753D0000753D0000B6
:10424000753D0000753D0000753D0000753D0000A6
:10425000753D0000753D00006D3D0000312801F006
:10426000EC8032287FF486AD05F096FC00287FF7BD
:10427000BDAE3848384E06F0E1F801226B23C6F88F
:10428000980022602B6001E005F04AFC05F084FCF8
:104290000028F9D12F4805F03FFF2E4805F03CFFDC
:1042A0002C4805F039FF2B4805F036FF294805F06A
:1042B00033FF21212A4805F099FC264805F02CFF00
:1042C0001521284805F092FCD6F89010214805F0F9
:1042D00073FF0221244805F089FC1E4805F01CFFED
:1042E0001E21224805F082FCD6F89810194805F0E6
:1042F00063FF03211E4805F079FC164805F00CFF0A
:104300001E211C4805F072FCD6F89410114805F0E7
:1043100053FF104805F000FF1D21174805F066FC0B
:10432000D6F8A0100B4805F047FF0A4805F0F4FE48
:104330001E21124805F05AFCD6F8A410054805F0D5
:104340003BFF044805F0E8FE052323607BE500BF42
:104350008494FF1FCC87FF1F3093FF1FDC94FF1F47
:10436000D41A0100F81A0100E4190100101B010021
:1043700008170100301B0100501B0100701B0100D9
:1043800005F00AFC002840F3A082B248B24E06F0C5
:1043900055F808F01FFAB14908F070FA03460246D2
:1043A00096F84010AE487364D4E405F0B9FB05F00C
:1043B000F3FB05460028F8D1A648A74E05F0ACFE51
:1043C000A44805F0A9FEA34805F0A6FEA14805F003
:1043D000A3FEA04805F0A0FE1F21A24805F006FCA0
:1043E0009C4805F099FE1C219F4805F0FFFB706A70
:1043F0009E4908F043FA07F097FD009502460B46E8
:10440000944805F0E1FE0221994805F0EFFB914840
:1044100005F082FE2321974805F0E8FBF06B9349F5
:1044200008F02CFA07F080FD009502460B468948FB
:1044300005F0CAFE02218E4805F0D8FB854805F03C
:104440006BFE19218C4805F0D1FBB06B07F06CFDB9
:1044500002250B46024600957E4805F0B5FE29462A
:10446000864805F0C3FB7B4805F056FE19218448B9
:1044700005F0BCFBB6F8B410764805F09DFE0321AC
:10448000804805F0B3FB734805F046FE0723236020
:10449000D9E405F045FB05F07FFB05460028F8D17F
:1044A0006C486D4E05F038FE6A4805F035FE6948E7
:1044B00005F032FE674805F02FFE664805F02CFE39
:1044C0001521714805F092FB624805F025FE182180
:1044D0006E4805F08BFB2B460A2296F840105D488B
:1044E00005F02AFE5B4805F017FE2821684805F014
:1044F0007DFB706C5D4908F0C1F907F015FD009572
:104500000B460246534805F05FFE0221584805F06D
:104510006DFB504805F000FE13215E4805F066FB78
:104520004C4805F0F9FD082323608CE405F0F8FA07
:1045300005F032FB05460028F8D14648464E05F006
:10454000EBFD444805F0E8FD424805F0E5FD414833
:1045500005F0E2FD3F4805F0DFFD11214E4805F072
:1045600045FB3C4805F0D8FD28214C4805F03EFBB2
:1045700070693E4908F082F907F0D6FC00950246C2
:104580000B46344805F020FE0221394805F02EFB89
:10459000304805F0C1FD1621414805F027FBF069C0
:1045A000324908F06BF907F0BFFC00950B46024654
:1045B000284805F009FE02212D4805F017FB254883
:1045C00005F0AAFDD6F8AC30002B32DD1D213548B0
:1045D00005F00CFBF06D08F0FDF8334908F04EF9DA
:1045E00007F0A2FC022502460B460095194805F08B
:1045F000EBFD01212D4805F0F9FA164805F08CFD78
:104600001F212B4805F0F2FA306E08F0E3F8264936
:1046100008F034F907F088FC009502460B460D4877
:1046200005F0D2FD0121214805F0E0FA094805F026
:1046300073FD11211F4805F0D9FAD6F8AC30052BCF
:1046400000F26086DFE813F095069A065A06A9067E
:10465000A4069F06CC87FF1F3093FF1F6F12833A7B
:10466000DC94FF1F301A0100501A010000007A4448
:10467000BC180100701A0100941A0100B01A010060
:10468000B41A0100D01A010024210100741801009D
:1046900090180100C0180100C8200100D4180100C2
:1046A0000019010018190100CDCCCC3DB41D01004A
:1046B000381901005819010005F032FA05F06CFABA
:1046C0000028F9D1BF48C04E05F026FDBD4805F0D1
:1046D00023FDBC4805F020FDBA4805F01DFDB94892
:1046E00005F01AFD1F21B94805F080FAB54805F01C
:1046F00013FD1E21B64805F079FAB24805F00CFD0D
:104700001A21B44805F072FAF36F022B00F03787D4
:10471000032B00F02B87012B00F03A870921AE48CC
:1047200005F064FAA74805F0F7FC1421AB48A64F42
:1047300005F05CFAB16FA34805F03EFDA14805F015
:10474000EBFC1C21A64805F051FAD6F880109D48D4
:1047500005F032FD9B4805F0DFFC1C21A14805F067
:1047600045FAD6F8A810974805F026FD954805F0BB
:10477000D3FCF56F25F00205012D00F0B186132161
:10478000994805F033FA8F4805F0C6FC02232360F0
:10479000FFF759BB05F0C4F905F0FEF90028F9D17F
:1047A000884805F0B9FC874805F0B6FC854805F057
:1047B000B3FC844805F0B0FC824805F0ADFC132141
:1047C0008A4805F013FA7F4805F0A6FC0D218848B9
:1047D00005F00CFA7B4805F09FFC0F21854805F099
:1047E00005FA854B7748196805F0E6FC754805F031
:1047F00093FC1321814805F0F9F9814B7148196840
:1048000005F0DAFC6F4805F087FC12217D4805F0C1
:10481000EDF97D4B6B48196805F0CEFC694805F051
:104820007BFC1121794805F0E1F9794B654819685D
:1048300005F0C2FC634805F06FFC0E21754805F0D9
:10484000D5F9614B5F48D3F89C1005F0B5FC5D4885
:1048500005F062FC1921704805F0C8F96F4B594802
:10486000196805F0A9FC574805F056FC11216C4861
:1048700005F0BCF96B4B5348196805F09DFC514895
:1048800005F04AFC1021684805F0B0F9674B4D4827
:10489000196805F091FC4B4805F03EFC1C2164486A
:1048A00005F0A4F9634B4748196805F085FC4548B5
:1048B00005F032FC13214C4805F098F9414805F009
:1048C0002BFC04232360FFF7BEBA23682868FFF798
:1048D00093B93D4E96F84000FFF733BA05F05CF906
:1048E00000287FF76BAB3748374E05F0A7FD07F080
:1048F00071FF514908F076F865230122706122604A
:104900002B601846FFF79AB905F046F900287FF7A3
:1049100055AB2C482C4E05F091FD07F05BFF464946
:1049200008F060F865230122F06122602B601846D0
:10493000FFF784B905F030F900287FF73FAB214835
:10494000214E05F07BFD00EB800043000122652035
:10495000F36522602860FFF771B905F01DF90028A2
:104960007FF72CAB1748184E05F068FD00EB800070
:10497000430001226520336622602860FFF75EB99C
:10498000114AD2F8AC300133052BC8BF0023C2F85E
:10499000AC300123652023602860FFF74FB905F094
:1049A000FBF800287FF70AAB0648074E05F046FDE6
:1049B00065230122C6F8B00022602B601846FFF77D
:1049C0003DB900BFCC87FF1F3093FF1F741C01004F
:1049D000941C0100B41C01002C1D0100381D0100B5
:1049E000501D0100701D0100C0180100901B010046
:1049F000A41B0100B41B01006494FF1FC41B010031
:104A0000D494FF1FD81B0100B894FF1FEC1B0100BA
:104A1000BC94FF1F001C0100101C01008894FF1FA4
:104A20002C1C01008494FF1F401C01006C92FF1F8E
:104A3000541C01005C87FF1F00007A447A4B93F8F6
:104A4000BC20002A00F03F85002283F8BC20A0E7AC
:104A5000FEF798FE23682868FFF7CBB8724AD36F39
:104A60000133032BC8BF0023D367012363202360D6
:104A70002860FFF7E3B86C4EB36FB3FA83F35B09BA
:104A800001226320B36722602860FFF7D7B8664E23
:104A9000D6F88030B3FA83F35B0901226320C6F8AD
:104AA000803022602860FFF7C9B80123236005F039
:104AB00073F80028D9DD5D485B4E05F0BFFCC6F8F1
:104AC000A800D2E70123236005F066F8002807DD7F
:104AD0005648554E05F0B2FC07F07CFEC6F88C0037
:104AE000632028602368FFF787B80123236005F05F
:104AF00053F80028F4DD4D484B4E05F09FFC07F0BD
:104B000069FEC6F88800EBE70123236005F044F84E
:104B10000028E5DD4548444E05F090FCA6F8B600B7
:104B2000DEE7434A1368B3FA83F35B09012164208B
:104B3000136021602860FFF781B83E4AF2E73E4AE1
:104B40003E4F1368002B0CBF012300234FF00100E0
:104B50001360206040F0F484034664222A606420DD
:104B6000FFF747B8364ADDE7012336482360FCF7F4
:104B7000E7FC354A23681060EFE7344AD2E7344A4D
:104B8000D0E70123236005F007F8002800F3A08494
:104B9000304B1A68042AC4BF02221A6064232B60B7
:104BA0002368DCE7204ED6F89C30B3FA83F35B0928
:104BB00001226420C6F89C3022602860FFF73EB8CE
:104BC00004F0EAFF00280DDD1848174E05F036FC0A
:104BD00007F000FE204907F005FF01226223306242
:104BE00022602B6004F0D8FF00280EDD0F480E4E27
:104BF00005F024FC07F0EEFD174907F0F3FE012253
:104C00006223C6F8B80022602B6004F0C5FF0028BC
:104C100040F3D1830548044E05F010FC01226223C5
:104C2000B06622602B601BE03093FF1FCC87FF1F14
:104C30006494FF1FD494FF1FB894FF1F8492FF1F3A
:104C4000BC94FF1FDC94FF1F8894FF1F8494FF1FF8
:104C50006C92FF1F5C87FF1F00007A4404F060FF26
:104C600004F09AFF05460028F8D1C24805F054FA2E
:104C7000C04805F051FABF4805F04EFABD4805F0AE
:104C80004BFABC4805F048FA1521BB4804F0AEFFCA
:104C9000B84805F041FA1421B84804F0A7FFB54818
:104CA00005F03AFA1B21B64804F0A0FFB14805F020
:104CB00033FA1321B34804F099FFAE4805F02CFAFB
:104CC000AC4805F029FAAB4805F026FA2021AE4899
:104CD00004F08CFFF068AD4907F0D0FD07F024F92F
:104CE000009502460B46A34805F06EFA0221A8483B
:104CF00004F07CFF0221A74804F078FF9D4805F0EE
:104D00000BFA2121A44804F071FF30699F4907F094
:104D1000B5FD07F009F9009502460B46954805F0E8
:104D200053FA02219A4804F061FF0221994804F0E5
:104D30005DFF904805F0F0F91F21984804F056FFF8
:104D4000B06A07F0F1F8022702460B46009789483F
:104D500005F03AFA0121924804F048FF39468D489F
:104D600004F044FF834805F0D7F920218D4804F072
:104D70003DFFF06A07F0D8F8009702460B467D48E1
:104D800005F022FA0121864804F030FF39468148B7
:104D900004F02CFF774805F0BFF92321824804F086
:104DA00025FFB06C794907F069FD07F0BDF8009563
:104DB00002460B466F4805F007FA3946744804F07E
:104DC00015FF3946734804F011FF6A4805F0A4F94D
:104DD0001F21764804F00AFFF06C6C4907F04EFD85
:104DE00007F0A2F8009502460B46624805F0ECF980
:104DF0003946674804F0FAFE3946664804F0F6FE84
:104E00005C4805F089F91921694804F0EFFEB16D9D
:104E1000584805F0D1F93946664804F0E7FE3946AE
:104E20005C4804F0E3FE534805F076F91821624827
:104E300004F0DCFE706E07F0CDFC604907F01EFD4B
:104E400007F072F8009702460B464A4805F0BCF995
:104E500001215B4804F0CAFE39464E4804F0C6FE04
:104E6000444805F059F92B21564804F0BFFEB069BB
:104E7000464907F003FD07F057F8009502460B4638
:104E80003C4805F0A1F93946414804F0AFFE3946E7
:104E9000404804F0ABFE374805F03EF91F214A4870
:104EA00004F0A4FE716D334805F086F9394639489F
:104EB00004F09CFE2F4805F02FF92021434804F010
:104EC00095FE316D2B4805F077F93946314804F0ED
:104ED0008DFE284805F020F910213D4804F086FE9B
:104EE000B16E244805F068F93946294804F07EFE81
:104EF0003946284804F07AFE1E4805F00DF91321C2
:104F0000344804F073FEF16E1A4805F055F901219A
:104F1000314804F06BFE39461E4804F067FE154820
:104F200005F0FAF810212D4804F060FE316F1148A9
:104F300005F042F93946164804F058FE394615483E
:104F400004F054FE0B4805F0E7F81421244804F05F
:104F50004DFE716F074805F02FF901211E4804F03E
:104F600045FE39460B4804F041FE024805F0D4F8EE
:104F7000162137E0CC87FF1FFC1D0100141E010025
:104F80002C1E0100C0180100481E010000007A44D8
:104F9000BC180100E02101006C1E0100901E010000
:104FA000EC130100B01E0100D41E0100F81E010028
:104FB000181F0100341F0100381F0100CDCCCC3D6B
:104FC000B41D0100541F0100801F0100A01F01003B
:104FD000C41F0100D81F0100EC1F0100F01F0100D9
:104FE00004200100BA4804F001FE306AB94907F014
:104FF00045FC06F099FF009502460B46B64805F0C1
:10500000E3F83946B54804F0F1FD3946B44804F0F8
:10501000EDFDB14805F080F82421B24804F0E6FD2A
:10502000D6F8B800AB4907F029FC06F07DFF0095E3
:105030000B460246A84805F0C7F83946A74804F0D1
:10504000D5FD3946A64804F0D1FDA34805F064F823
:10505000A14805F061F803232360FEF7F4BE04F0D5
:105060009BFD002840F3A7819B489F4E05F0E6F981
:1050700007F0B0FB974907F0B5FC012262233061CD
:1050800022602B60ECE504F087FD002840F393815B
:105090009148954E05F0D2F907F09CFB012262235E
:1050A000B06222602B60DBE504F076FD002840F35F
:1050B000828189488C4E05F0C1F907F08BFB0122F3
:1050C0006223F06222602B60CAE504F065FD0028CF
:1050D00040F371818048844E05F0B0F907F07AFB07
:1050E0007C4907F07FFC01226223B06422602B60C0
:1050F000B6E504F051FD002840F35D8176487A4E14
:1051000005F09CF901226223306522602B60A7E53F
:105110000022732322602B60FEF734BE734B70486D
:10512000714E002202211A6004F060FD6A4804F00A
:10513000F3FF0B216E4804F059FD0221684804F08A
:1051400055FD654804F0E8FF0122622322602B60D0
:1051500086E504F021FD002840F32D815E48624E73
:1051600005F06CF901226223706722602B6077E5FD
:10517000FCF78CFF02215A485B4E04F037FD56487D
:1051800004F0CAFF0221564804F030FD524804F0F2
:10519000C3FF0221524804F029FD4F4804F0BCFF30
:1051A0001721544804F022FD4B4804F0B5FFC4E732
:1051B00004F0F2FC002840F3FE8047484A4E05F018
:1051C0003DF907F007FB434907F00CFC012262237D
:1051D000F06022602B6043E504F0DEFC002840F321
:1051E000EA803D48404E05F029F907F0F3FA3949C5
:1051F00007F0F8FB01226223F06422602B602FE5A8
:1052000004F0CAFC002840F3D6803348364E05F03F
:1052100015F901226223B06522602B6020E504F0BD
:10522000BBFC002840F3C7802B482F4E05F006F941
:1052300000EB8000430001216222736621602A6036
:105240000EE504F0A9FC002840F3B5802248264E64
:1052500005F0F4F807F0BEFA1E4907F0C3FB01227F
:105260006223B06122602B60FAE404F095FC002810
:1052700040F3A18018481C4E05F0E0F8012262239B
:10528000F06622602B60EBE404F086FC002840F31B
:1052900092801148144E05F0D1F801226223306744
:1052A00022602B60DCE403F06BFFC02200210E487B
:1052B00002F0CCFD2868104AA0F173000121002300
:1052C000B0FA80F0400911602360FEF759BD00BFBD
:1052D0001C20010000007A44CC87FF1FBC1801008D
:1052E000E0210100342001003093FF1F6092FF1F76
:1052F00068180100501801003C87FF1F0C21BB48B3
:1053000004F074FCBA48BB4D04F006FFD6F8AC308C
:10531000002B12DD1821B84804F068FCD5F8B01055
:10532000B34804F049FF0221B44804F05FFCB048E0
:1053300004F0F2FEAE4804F0EFFE1B21B04804F08A
:1053400055FC96F8BC30012B15BF12211421AD4835
:10535000AD4804F04BFCA64804F0DEFE1321AB4838
:1053600004F044FCA24804F0D7FE06232360FEF7B5
:105370006ABD0D21A64804F039FCC3E70C21A548FD
:1053800004F034FCBEE70B21A34804F02FFCB9E77E
:105390000D21A24804F02AFCB4E70D21A04804F036
:1053A00025FCAFE72368002B08BF73280CBF012042
:1053B0000020FEF7E5BC23682868012B7EF4DAACF8
:1053C000FEF73CBC04F0E8FB00287EF767AD884898
:1053D000884E05F033F861230122A6F8B40022605C
:1053E0002B601846FEF72ABC04F0D6FB00287EF797
:1053F00055AD7F487F4E05F021F807F0EBF96123AA
:105400000122B06322602B601846FEF717BC04F03F
:10541000C3FB00287EF742AD7548764E05F00EF8C6
:1054200007F0D8F97F4907F029FA61230122706259
:1054300022602B601846FEF701BC04F0ADFB00288B
:105440007EF7D4AD6A486B4E04F0F8FF01226B235F
:10545000C6F8900022602B60FEF718BF04F09CFB9A
:1054600000287EF7C3AD6248624E04F0E7FF0122D8
:105470006B23C6F8940022602B60FEF707BF04F090
:105480008BFB00287EF7B2AD59485A4E04F0D6FF88
:10549000654BC6F8A00002221A60FDF73DF9012213
:1054A0006B2322602B60FEF7F1BE04F075FB002831
:1054B0007EF79CAD4E484F4E04F0C0FF5A4BC6F8E5
:1054C000A4000322E8E7012283F8BC20FFF761BAB9
:1054D000474804F0B3FF554B02461860FFF75ABB2C
:1054E0001C21534804F082FBD7F88C00514907F087
:1054F000C5F906F019FD009502460B463C4804F03C
:1055000063FE05214C4804F071FB394804F004FEA9
:10551000FD6F012D45D0032D7FF431A91C21474893
:1055200004F064FBB6F8B610314804F045FE0321E0
:10553000434804F05BFB2E4804F0EEFDFFF71FB973
:10554000404B002631460B201E6002F04BFF3146D7
:105550000C2002F047FF3146142002F043FF314691
:10556000152002F03FFF3B68FFF7F7BA20213648CD
:1055700004F03CFB1E4804F0CFFDFFF7D6B817211E
:10558000324804F033FB1A4804F0C6FDFFF7CDB8EB
:105590001E212F4804F02AFB154804F0BDFDFFF73B
:1055A000C4B81D212B4804F021FBD7F888002149FD
:1055B00007F064F906F0B8FC00950B4602460C486B
:1055C00004F002FE05211C4804F010FB084804F01A
:1055D000A3FDFB6F23F00203012B9FD0FFF7CFB891
:1055E000044EFFF73DBB034EFEF750BE8C19010081
:1055F000CC87FF1F3093FF1FC8190100E419010079
:10560000E8190100041A0100181A0100C01801006D
:105610006C1901007C190100BC190100AC190100D2
:105620009C1901006F12833A8494FF1F5C87FF1F4F
:10563000901D0100CDCCCC3DB01D0100D81D010056
:10564000F81D0100D094FF1FF01C0100141D010083
:10565000D01C0100B81D010038B5164C164A23684D
:10566000101D12F8011F904241EA0323F9D1236073
:10567000124C03F100432360114BDB6F022B11D05E
:10568000104B1B68012B00D038BD0F4804F044FDBF
:1056900021680D4804F090FD03210C48BDE8384016
:1056A00004F0A4BA20680A4D07F094F82860FDF7CA
:1056B000CBFAE5E74892FF1F7B94FF1F9C94FF1FE6
:1056C0003093FF1F6494FF1FCC87FF1F70210100E0
:1056D0006492FF1F30B53F4C3F4883B0214601F034
:1056E000D3FB236840F2C232934258D06FF4C061BA
:1056F0005A18B2F5FF7F4CD903F100436FF4C06232
:105700001344B3F5FF7F3FD9344B1B68012B01D005
:1057100003B030BD324B1B68012BF9D1314B3248FD
:105720001B6801930A220023019904F005FD2268F9
:10573000284B002ADB7945DB2C492D4808F07CF802
:105740002B4808F0BDF80146294804F04FFA2568B7
:10575000204B15F0804526D1DB798BB163192549A3
:105760001A7A234808F068F8214808F0A9F8014699
:105770001F4804F03BFA0135E379EDB2AB42EDD8B6
:10578000194804F0C9FCC3E712491B48FBF7FEFEA9
:10579000BAE710491848FBF7F9FE2368ACE7FFF7B2
:1057A0005BFF2368A2E7154D114C0FCD0FC495E8A0
:1057B000030044F8040B204620F81419152104F0C6
:1057C00015FADDE70E490A4822F0604208F034F885
:1057D000B6E700BF7494FF1F78BEFF1F3C87FF1F12
:1057E0006494FF1F20C0FF1FCC87FF1F9C21010076
:1057F0008892FF1FC8210100DC94FF1FB021010027
:10580000742101002DE9F84F9A4B9B4C1B78052B16
:1058100008D09A48FCF72EF8E16A07F0CDF9002885
:1058200000F09380964E974D002333602B60964B8B
:1058300092481B68904F012B45D0FBF7C9FFE169E7
:105840008046606906F010FF0146404607F0D2F935
:1058500000284CD18948FBF7BBFFE16807F0CAF983
:1058600008B100232B608548834FFBF78DFF21692A
:1058700007F0A2F958B1002333602B68814A002B4E
:1058800001DBBDE8F88F00231360BDE8F88F7B488B
:10589000FBF77AFFB96907F08FF90028EBD1774859
:1058A000FBF772FFD7F8B8100446B86906F0DEFEC1
:1058B0000146204607F09EF9002873D0786E3060CC
:1058C0000028D8DBD9E7FBF783FFE1698046206A2F
:1058D00006F0CAFE0146404607F08CF90028B9D010
:1058E0006648FBF775FFD7F82090834605E06348CC
:1058F000FBF76EFFD7F814908346F969484606F027
:10590000B3FE8246F86D06F065FF8046386E06F0FD
:1059100061FF414606F0A8FE51460746584606F08C
:10592000A3FE0146384606F0A9FF51460746484601
:1059300006F09AFE0146384607F054F8414606F054
:1059400095FE07F077F9286084E74C48FBF792FF53
:10595000216B07F031F9002849D0494E636E474862
:105960003360FBF787FF8146E06DE76A454D06F03F
:1059700031FF39468046484606F076FE01464046ED
:1059800006F07CFF39468046206B06F06DFE01462E
:10599000404607F027F8002106F068FE07F04AF9B4
:1059A000286044E73548FBF7EFFE8146F86DBC6997
:1059B00006F010FF21468046484606F055FE014697
:1059C000404606F05BFFD7F8B8108046204606F048
:1059D0004DFE214606F048FE0146404607F002F81B
:1059E000002106F043FE07F025F9306068E7234800
:1059F000FBF740FF616B07F0DFF830B1204E214D1F
:105A0000626EE36D32602B6011E71C48FBF732FFDA
:105A1000A16A07F0D1F800283FF404AF1748184EE8
:105A2000184DFBF727FF8146606ED4F8348006F0EE
:105A3000D1FE41460746484606F016FE39468146E5
:105A4000002006F011FE0146484606F017FF4146C9
:105A50008146A06A06F008FE0146484606F0C2FFED
:105A6000394606F003FE07F0E5F8E36D30602B6081
:105A7000DDE600BF9494FF1F3093FF1FDC94FF1FEF
:105A8000A094FF1F5092FF1F6892FF1F08B5274880
:105A900004F042FB0721264804F0A8F8112002F088
:105AA000A7FC0621F8B1234804F0A0F8122002F068
:105AB0009FFC062100B3204804F098F8122002F061
:105AC00097FC062108B31D4804F090F8132002F05B
:105AD0008FFC062110BB1A4804F088F81348BDE873
