:1000000000800020BD010000AD820000658200007C
:100010006582000065820000658200006582000044
:10002000658200006582000065820000AD820000EC
:10003000AD82000065820000E1A10000E5A20000A1
:10004000AD820000AD820000AD820000AD820000F4
:10005000AD820000AD820000AD820000AD820000E4
:10006000AD820000AD820000AD820000AD820000D4
:10007000AD820000AD820000AD820000AD820000C4
:10008000AD820000AD820000AD820000AD820000B4
:10009000AD820000AD820000AD820000AD820000A4
:1000A000AD820000AD820000AD820000AD82000094
:1000B000AD820000817600008D7600009176000010
:1000C0009D760000A1760000A5760000AD820000BC
:1000D000AD820000AD820000AD820000AD82000064
:1000E000AD820000AD820000AD820000AD82000054
:1000F000AD820000EDA90000AD820000498F000034
:10010000AD82000061920000AD820000AD8200006F
:10011000AD820000AD820000AD820000AD82000023
:10012000AD820000AD820000AD820000AD82000013
:10013000AD820000AD820000AD820000AD82000003
:10014000AD820000AD820000AD820000AD820000F3
:10015000AD820000AD820000AD820000AD820000E3
:10016000AD820000AD940000AD820000AD820000C1
:10017000AD820000AD820000AD820000AD820000C3
:10018000AD820000AD820000AD820000AD820000B3
:10019000AD820000AD820000AD820000AD820000A3
:1001A000AD820000AD820000AD820000AD82000093
:1001B000AD820000AD820000AD820000564B4CF2D3
:1001C000205210B51A804DF628121A8000BF00BFC9
:1001D00008F070F8514B4FF010621A60504A9A6064
:1001E000504ADA60504A136813F4807304D14F49BF
:1001F0000B604FF4A85313604D4B1A78110703D5C9
:100200001A7842F008021A704A4B4B492A221A7097
:100210004A4A4B4B8B4204D252F8040F43F8040B6A
:10022000F8E7484B484900228B4202D243F8042B9E
:10023000FAE74649464A002352F8230041F82300D2
:1002400001336F2BF8D1434B434A802103F8011B44
:100250009342FBD1414B3D4A1A60414B8A221A70AE
:10026000A3F5805324225A70A0221A709A7992071B
:10027000FCD59A79D406FCD43A4A937903F00C035E
:10028000082B384BF9D103221A7140225A719A79FE
:100290009006FCD5334A9179324B4906FBD5324A58
:1002A000324911600221516020221A709A7902F0BD
:1002B0000C020C2AFAD12E4B2E4A1A602E4B2F4AD2
:1002C0001A6000225A60072243F8042C2C4AC3F813
:1002D0000C2D62B608F0A4FA144B1B68DA0705D59A
:1002E000284808F081F8284B284A1A60284B1B78C8
:1002F0005B0609D5244C254B22689A4204D121483B
:1003000008F072F8002323600CF074FE07F0D8FFA9
:100310000AF02CFAFEE700BF0E20054030800440B2
:10032000823F04000100002B10D0034014D0034092
:1003300002D0074000E007402892FF1F442C010034
:100340002087FF1F2892FF1F24C5FF1F0082FF1F69
:100350000000000000E400E05FE400E008ED00E0E1
:100360000050064000400640448004400000030165
:1003700004800440C010050014E000E0FF76010096
:1003800000002020F6EC7A5C1CE00340A5C3945AE0
:1003900000F00740FFFFFFFFFFFFFFFFFFFFFFFF32
:1003A000FFFFFFFFFFFFFFFFFFFFFFFFFFFFFFFF5D
:1003B000FFFFFFFFFFFFFFFFFFFFFFFFFFFFFFFF4D
:1003C000FFFFFFFFFFFFFFFFFFFFFFFFFFFFFFFF3D
:1003D000FFFFFFFFFFFFFFFFFFFFFFFFFFFFFFFF2D
:1003E000FFFFFFFFFFFFFFFFFFFFFFFFFFFFFFFF1D
:1003F000FFFFFFFFFFFFFFFFFFFFFFFFFFFFFFFF0D
:10040000FFFFFFFFFFFFFFFFFFFFFFFFDEF9FFFF23
:1004100010B5054C237833B9044B13B10448AFF33E
:1004200000800123237010BD2892FF1F00000000F0
:10043000402C0100084B10B51BB108490848AFF328
:1004400000800848036803B910BD074B002BFBD0A0
:10045000BDE81040184700BF000000002C92FF1FAD
:10046000402C01002892FF1F00000000F0B400F1B2
:100470001C06134F00243146031F00F13C0243F8D1
:10048000044FB34241F8047F4FF0000542F8044F97
:10049000F5D100230B4A0C4C056647F230514566F6
:1004A0008566C566C56744670267826780F88430E1
:1004B00080F8853080F89C30A0F8AE10F0BC704712
:1004C0000000A040000048430000C8C22DE9F041F0
:1004D00090F89C4084B0202364008DF80530E4B28D
:1004E000042380468DF804408DF80630032720460B
:1004F00008F052FE02210DF1050008F057FE8DF8BC
:10050000044001F063FD30B30921404809F002FDC9
:100510000023102221463E4809F0A2FF01213D4858
:1005200009F0F8FC002310229DF80510384809F066
:1005300097FF0121374809F0EDFC002310229DF8B8
:100540000610334809F08CFF0121324809F0E2FC23
:100550002F4809F075FF02208DF8044008F012F9C9
:1005600001F034FD00284CD102AE002408F034FE26
:1005700070B3072C1FD101E008F03EFE08F02CFEFE
:100580000028F9D101F022FD10B1214809F058FFEF
:100590009DF80B009DF80C109DF80D209DF80E3075
:1005A000C8F88800C8F88C10C8F89020C8F89430B3
:1005B00004B0BDE8F08108F01FFE054606F8010B07
:1005C00001F004FD70B9013408F006FE0028D0D116
:1005D000072CD3D001F0FAFC78B9013FD8D09DF8B0
:1005E000044084E7E9B200231022094809F038FFEB
:1005F0000121084809F08EFCE5E7054809F020FFD5
:10060000EBE70721044809F085FCADE798110100EC
:10061000CC87FF1FBC180100A411010090F88C00CA
:10062000704700BF90F88800704700BF90F89000B6
:10063000704700BF90F89400704700BF082994BF2E
:1006400050F82100002070472DE9F0410B4E804604
:10065000041F00F11C0754F8045F314628460CF0D3
:100660003FFC30B1D8F8801028460CF057FC00B1A0
:100670002E46BC42EFD13046BDE8F081000020415B
:100680002DE9F041D0F880704FF00008041F00F110
:100690001C0654F8045F394628460CF03FFC084914
:1006A00048B128460CF01CFC414620B128460CF00D
:1006B00035FC00B1A846B442EBD14046BDE8F0811C
:1006C000000070422DE9F047D0F8807082464FF06C
:1006D0000009041F00F11C064FF0000854F8045FE5
:1006E000394628460CF01AFC0C4950B128460CF04B
:1006F000F7FB30B1484629460CF04CF908F10108E7
:100700008146B442EAD1CAF8A08040460CF0F6F91E
:10071000014648460CF0FAFABDE8F0870000704246
:10072000D0F8A000704700BF38B5846E456E2146F2
:1007300028460CF0D5FB00B92C46204638BD00BF3A
:10074000D0F898302DE9F041002B79D1866E456EB6
:100750000446314628460CF01DF9E76E39468046BE
:100760000CF018F97E490CF0D1FA4FF07C51044698
:100770000CF0D4FB002861D04FF07C5128460CF0DF
:10078000CDFB4FF07C51002860D128460CF0A8FB2F
:1007900038B14FF07C5130460CF0C0FB002840F0DF
:1007A000A7804FF07C5128460CF0B8FB002860D1A0
:1007B0004FF07C5128460CF0B1FB002840F0A1809E
:1007C0004FF07C5128460CF0A9FB00286CD14FF06B
:1007D0007C5128460CF084FB4FF07C5110B330461E
:1007E0000CF09CFB38B14FF07C5138460CF078FB94
:1007F000002840F0B0804FF07C5130460CF070FB88
:10080000002861D04FF07C5138460CF087FB00285F
:1008100040F0A38038464FF07C510CF061FB68B18A
:10082000504C10E028460CF05BFB0028E3D1284632
:100830004FF07C510CF054FB002845D1BDE8F0810D
:1008400000EB8300046E2046BDE8F08130460CF0DA
:1008500065FB4FF07C5100283ED038460CF05EFB23
:100860000028F0D14FF07C5128460CF039FB0028CD
:1008700059D14FF07C5130460CF032FB002840D06B
:100880004FF07C5138460CF049FB002841D14FF025
:100890007C5130460CF042FB68B14FF07C51384639
:1008A0000CF01EFB00284FD14FF07C5130460CF06D
:1008B00017FB00288BD04FF07C5138460CF010FB12
:1008C000002884D02C46BEE730464FF07C510CF017
:1008D00007FB0028B2D09DE728460CF001FB00285A
:1008E000C7D04FF07C5130460CF018FB0028C0D028
:1008F0004FF07C5138460CF011FB00283FF451AF0B
:1009000018E04FF07C5130460CF008FB0028CBD0AB
:10091000C3E7394628460CF03DF84FF07C510CF007
:1009200041F904468FE74FF07C5138460CF0F6FA57
:1009300000289ED0394630460CF02CF84FF07C5100
:100940000CF030F904467EE740464FF07C510CF045
:1009500029F9044677E7344675E73C4673E700BF5C
:10096000000040400000A0C270B50446FFF7E8FE5A
:100970004FF07C510CF0D2FA28B3666E4FF07C51E8
:1009800030460CF0CBFAA56EF0B9E46E4FF07C5116
:1009900028460CF0C3FA58B1294630460CF0BEFA8E
:1009A00030B1214628460CF09BFA08B12C4620E0D5
:1009B0004FF07C5120460CF0B1FA20B12846214678
:1009C0000CF0ACFA78B970BD304629460CF088FAC4
:1009D000E46E0028DAD0304621460CF081FA002877
:1009E000D4D0344605E0304621460CF097FA002872
:1009F000E9D0204670BD00BF2DE9F04F02294FF02D
:100A0000000885B00746144680F8AC8000F0EC8002
:100A1000032900F08F80012956D0856E466ECDF8EF
:100A200004803846FFF7A0FF396F04460CF058FAEF
:100A300000B13C67314628460CF070FA002869D1B5
:100A40003146786F0CF04CFA08B135467D6707F1F6
:100A50001C0BA7F1040907F13C0A5D46C84656463F
:100A600058F8044F55F8040F21460CF057FA30B1EE
:100A7000D7F8801020460CF047FA00B12C6056F8E9
:100A8000041F20460CF04AFA00B13460AA45E7D1B1
:100A9000019B002B45D08E4AD7F8A83012680392EC
:100AA0000399B7F8AE205B1A93420AD9002249F89D
:100AB000042FCB454FF00003F9D13B667B66BB6644
:100AC000FB6605B0BDE8F08F137AC0F8A430D37A86
:100AD000907A03EB00200CF011F87E490CF062F8DC
:100AE0007866637B0646207B03EB00200CF006F85B
:100AF00078490CF057F8B866E37B0546A07B03EB1A
:100B000000200BF0FBFF73490CF04CF8CDF804808B
:100B1000F86686E72946786F0CF0E2F9002895D14F
:100B200095E76B4B1B680293029BC7F8A83005B092
:100B3000BDE8F08F107A537A03EB00200BF0DEFF54
:100B400064490CF02FF8D7F88050294606460CF07F
:100B5000E5F928B1604930460CF0C2F900B13E61B8
:100B6000E37AA07A03EB00200BF0C8FF59490CF0A0
:100B700019F80646014628460CF0B2F928B1564944
:100B800030460CF0ADF900B17E61637B207B03EB56
:100B900000200BF0B3FF4F490CF004F80646014665
:100BA00028460CF09DF928B14B4930460CF098F9D5
:100BB00000B1BE61E37BA07B03EB00200BF09EFF46
:100BC00044490BF0EFFF0446014628460CF088F933
:100BD00028B1414920460CF083F900B1FC610023A3
:100BE000BD6E7E6E01931CE7107A537A03EB0020F2
:100BF0000BF084FF37490BF0D5FFD7F8805029461A
:100C000006460CF08BF900284AD1012387F8AC3056
:100C1000E37AA07A03EB00200BF070FF2D490BF074
:100C2000C1FF0646014628460CF05AF900284AD072
:100C3000294930460CF054F9002844D07E60637B8B
:100C4000207B03EB00200BF059FF22490BF0AAFF99
:100C50000646014628460CF043F900282FD01E49CD
:100C600030460CF03DF950B3BE60E37BA07B03EB54
:100C700000200BF043FF17490BF094FF0446014698
:100C800028460CF02DF998B1134920460CF028F9AC
:100C900070B197F8AC30FC60BD6E01937E6EC0E61B
:100CA0000D4930460CF01CF90028AED03E60AFE78D
:100CB0000123BD6E7E6E87F8AC300193B1E601234F
:100CC00087F8AC30D1E7012387F8AC30B7E700BF35
:100CD0002CC2FF1F6F12833A000070422DE9F04FC3
:100CE00090F89C3091B007465B008DF80830FFF714
:100CF000EDFBD7F89000D7F89440D7F88C30D7F8B0
:100D0000882097F89C108DE81100C94801F064FA1A
:100D100030223D2303268DF809208DF80A300DF18D
:100D20000A059DF8089049F00108404608F034FA99
:100D30000DF10900022108F039FA8DF808804246C9
:100D400002AB00205040082410F0800F4FEA400012
:100D500018BF80F00700013CC0B2F5D19D4202D01F
:100D600013F8012FEEE708F017FA01F02FF9002829
:100D700040F07C8202208DF8089007F003FD01F01E
:100D800025F9002840F0B8820DF10C0AD146002464
:100D900008F022FA002843D0032C34D101E008F0F7
:100DA0002BFA08F019FA0028F9D101F00FF910B167
:100DB000A04809F045FB312303268DF809308DF852
:100DC0000A609DF8089049F00108404608F0E4F9EF
:100DD0000DF10900022108F0E9F98DF8088042467A
:100DE00002AB00205040082410F0800F4FEA400072
:100DF00018BF80F00700013CC0B2F5D19D4228D059
:100E000013F8012FEEE708F0F7F909F8010B804617
:100E100001F0DCF868B9013408F0DEF90028BBD134
:100E2000032CBED001F0D2F878B9013E7FF479AF3F
:100E3000C1E75FFA88F1002310227E4809F010FB19
:100E400001217D4809F066F8E5E77A4809F0F8FAEB
:100E5000EBE708F0A1F901F0B9F8002840F0C581EE
:100E600002208DF8089007F08DFC01F0AFF8002803
:100E700040F03D820DF10C09002408F0ADF9002886
:100E800044D0032C35D101E008F0B6F908F0A4F9FC
:100E90000028F9D101F09AF810B1664809F0D0FAAB
:100EA000342201238DF809208DF80A3003269DF89D
:100EB000089049F00108404608F06EF90DF109006C
:100EC000022108F073F98DF80880424602AB002039
:100ED0005040082410F0800F4FEA400018BF80F007
:100EE0000700013CC0B2F5D19D4228D013F8012F74
:100EF000EEE708F081F909F8010B804601F066F889
:100F000068B9013408F068F90028BAD1032CBDD0C3
:100F100001F05CF878B9013E7FF453AFC0E75FFAA7
:100F200088F100231022434809F09AFA012142482F
:100F300008F0F0FFE5E73F4809F082FAEBE708F038
:100F40002BF901F043F8002840F00E8102208DF8C3
:100F5000089007F017FC01F039F8002840F0D6811E
:100F60000DF10C09002408F037F9002800F0848006
:100F7000032C72D101E008F03FF908F02DF90028A8
:100F8000F9D101F023F810B12A4809F059FA0122E9
:100F900012238DF809208DF80A304FF003089DF8D0
:100FA0000840204608F0F8F802210DF1090008F089
:100FB000FDF88DF8084001F009F830B309211F4809
:100FC00008F0A8FF0023102221461A4809F048FA29
:100FD0000121194808F09EFF002310229DF80910F6
:100FE000144809F03DFA0121134808F093FF00234B
:100FF00010229DF80A100F4809F032FA01210E481C
:1010000008F088FF0B4809F01BFA06208DF808400D
:1010100007F0B8FB00F0DAFF002840F0728103AD62
:10102000002608F0D9F800283FD0162E2FD109E06D
:10103000AC110100CC87FF1FBC1801009811010002
:1010400008F0DAF808F0C8F80028F9D100F0BEFF7F
:10105000162600287DD1152035E008F0CDF809F8D6
:10106000010B804600F0B2FF00285BD1013408F08C
:10107000B3F800287FF47CAF032C3FF47EAF00F080
:10108000A5FF00286CD1013E7FF411AF7FE708F087
:10109000B3F805F8010B044600F098FF00284DD185
:1010A000013608F099F80028BFD1162ECAD000F0FA
:1010B0008DFF00284DD1B8F101087FF470AF701E8C
:1010C000002840F31E82002303AA1C4612F8011BCD
:1010D00008254C4014F0800F4FEA440418BF84F0F8
:1010E0000704013DE4B2F5D101338342EEDB9DF804
:1010F000218089484146224601F06EF8162EC146ED
:10110000A34602D1A04500F0138197F89C108348B4
:10111000CDF800B04B46324601F08CF8002011B0FB
:10112000BDE8F08F5FFA88F1002310227C4809F0B7
:1011300097F901217B4808F0EDFE97E7E1B2002323
:101140001022774809F08CF90121764808F0E2FE78
:10115000A6E7734809F074F9162EACD11520B2E752
:101160006F4809F06DF98EE709216F4808F0D2FE4B
:101170002346102241466A4809F072F90121694864
:1011800008F0C8FE234610229DF80910644809F0B3
:1011900067F90121634808F0BDFE102223469DF83F
:1011A0000A105F4809F05CF901215E4808F0B2FEC0
:1011B00021460DF10B0002AA12F8014B6140C9B2A1
:1011C000082311F0800F4FEA410118BF81F0070199
:1011D000013BC9B2F5D19042EED11022504809F03E
:1011E0003FF94F4809F02CF9B0E609214E4808F0C4
:1011F00091FE234610224146494809F031F9012168
:10120000484808F087FE234610229DF809104448FC
:1012100009F026F90121434808F07CFE10222346FC
:101220009DF80A103E4809F01BF901213D4808F0DD
:1012300071FE21460DF10B0002AA12F8014B61402C
:10124000C9B2082311F0800F4FEA410118BF81F0A5
:101250000701013BC9B2F5D19042EED110223048CE
:1012600009F0FEF82E4809F0EBF8F9E509212E48BF
:1012700008F050FE234610224146294809F0F0F8B4
:101280000121284808F046FE234610229DF8091047
:10129000234809F0E5F80121224808F03BFE10221E
:1012A00023469DF80A101E4809F0DAF801211D486E
:1012B00008F030FE21460DF10B0002AA12F8014B96
:1012C0006140C9B2082311F0800F4FEA410118BFF5
:1012D00081F00701013BC9B2F5D19042EED1102255
:1012E0000F4809F0BDF80E4809F0AAF842E50721B9
:1012F0000E4808F00FFEBDE507210C4808F00AFE75
:1013000042E50721094808F005FE88E6072107485D
:1013100008F000FE24E600BFE01101002C120100DD
:10132000CC87FF1FBC18010098110100A411010017
:101330009DF80C3097F89C20B3EB420F7FF4EEAE93
:101340009DF80D30012B7FF4E9AE9DF80E30122B85
:101350007FF4E4AE9DF810309DF80F0003EB002001
:101360000BF0CCFB6F490BF01DFCF96F386604469F
:101370000BF0D4FD00B1FC67B96F20460BF0B0FD57
:1013800000B1BC67A7F1040907F1200607F1400589
:101390004FF008089AF806309AF8050003EB002091
:1013A0000BF0ACFB60490BF0FDFB49F8040F316812
:1013B00004460BF095FD0AF1020A30B1D7F880100F
:1013C00020460BF0A1FD00B13460296820460BF0E7
:1013D000A5FD043600B12C60B8F1010805F1040543
:1013E000D8D19DF81E309DF81D0003EB002002307F
:1013F0000BF084FB4D490BF089FC01464C480BF087
:1014000085FC4C490BF0C4FA4B490BF0CBFB05466D
:1014100009F036FC0446284609F032FC474909F039
:10142000A1FC4749054620460BF0BCFB45490BF0A3
:10143000B1FA4549044628460BF0B4FB0146204664
:101440000BF0A8FA01464FF07E500BF05FFC3F49CD
:101450000BF09EFA9DF81F209DF82030786603EB74
:10146000022009300BF04AFB39490BF04FFC0146D2
:101470002F480BF04BFC2F490BF08AFA2E490BF04A
:1014800091FB054609F0FCFB0446284609F0F8FBF1
:101490002A4909F067FC2A49054620460BF082FBE1
:1014A00028490BF077FA2849044628460BF07AFBC6
:1014B000014620460BF06EFA01464FF07E500BF0CD
:1014C00025FC22490BF064FAB86604463846FFF75B
:1014D0004BFA396F05460BF003FD00B13D677D6E99
:1014E000204629460BF01AFDA0B92946786F0BF06B
:1014F000F7FC08B12C467C67164800F06DFE012011
:101500000DE69DF82190144849464246C34600F036
:1015100063FEFAE5796F20460BF000FD0028EAD162
:10152000EAE700BF1357053B2003C83900160147FF
:101530000AD7E33FE17A644000007A44000040406B
:10154000A40D8F395A80473A46A6DB33339388433C
:10155000002C014704120100E01101002DE9F843BD
:101560000026D0F8808006668146044600F12007F8
:1015700054F8045B414628460BF0D0FC084950B1B2
:1015800028460BF0ADFC30B1304629460BF002FA8C
:101590000646C9F86000BC42EAD13046BDE8F8838F
:1015A0000000704202299ABF00EB8100406E0020CB
:1015B000704700BF3E2998BF80F89C10704700BF5D
:1015C00090F88400704700BF90F88500704700BF16
:1015D000C0F89810704700BF80F88410704700BFB3
:1015E00080F88510704700BF30B5C0F8801083B018
:1015F00008460AF02DFE074C022502460B460095D0
:10160000204608F075FF204603B0BDE8304008F0E2
:1016100017BF00BFCC87FF1F70B500F52D550646DC
:10162000383500F128042046B034FEF71FFFAC42E5
:10163000F9D106F1D805012428460021FFF7CCFF97
:10164000214628460134FFF7B5FF3F2C05F1B005D0
:10165000F2D142F6843400250548064A064B35553A
:10166000002130617161B261F361304670BD00BF2D
:1016700000007A44000048430000C8C270B500F57D
:101680002D56383600F1D804002507E00125204604
:101690000021B034FFF7A4FFB4420AD02046FFF780
:1016A0008FFF0028F3D02046FFF78EFF0028EDD1F2
:1016B00070BD284670BD00BF42F688332DE9F04169
:1016C000002200F52D5600F52E578046C2503836C0
:1016D000083700F1D80402E0B034B4420DD02046FF
:1016E000FFF76EFF0028F7D020463D68FFF718F897
:1016F000B0342844B4423860F1D142F6883358F807
:101700000300BDE8F08100BFF8B50E46096801F49A
:101710007F6500290446A5F5C06515DB2D0901F09C
:101720000F07B02303FB0544283420460121FFF7AF
:1017300053FF20460121FFF753FF3246394620462A
:10174000BDE8F840FFF758B90A4801F00F0708F064
:1017500077FE1221084808F0DDFB3168054801F0EA
:10176000004100230A2208F07BFE02482D0908F000
:1017700067FED6E7CC87FF1F7C1201002DE9F043FE
:101780000446002383B0064644F8D83B012504E014
:1017900001353F2D04F1B00469D02046FFF710FF5A
:1017A0000028F5D0504800F017FD29464F4800F0BA
:1017B00013FD2046FFF792FA2046FFF7CFFE0AF00E
:1017C00047FD02460B464A4800F006FD2046FEF75C
:1017D0003BFF80462046FEF753FF074640460AF08F
:1017E00037FD8046384689460AF032FD42464B4670
:1017F000CDE900013F4800F0EFFC00212046FFF753
:10180000D1FE012180462046FFF7CCFE0746404628
:101810000AF01EFD8046384689460AF019FD424608
:101820004B46CDE90001344800F0D6FC2046FFF7D6
:1018300095FE014630680BF0ADF830602046FFF7AA
:1018400093F8B1690BF04CFB002833D12046FEF72A
:101850006BFFF1690BF062FB002899D02046FEF780
:1018600063FF01353F2DF06104F1B00495D170683C
:101870000BF044F9014630680BF048FA71693060AA
:1018800004460BF04BFB00B17461316920460BF04C
:1018900027FB00B134610B2006F03EFF42F6843393
:1018A000F35C60B99BB142F684330122F25403B079
:1018B000BDE8F0832046FFF757F8B061C6E753B99B
:1018C00042F684330022F25403B0BDE8F0830B48A3
:1018D00000F0B0FCE7E70A4800F096FC42F68433DB
:1018E0000022F254F0E700BF7814010090120100CA
:1018F000CC120100E01201000C13010028130100BA
:101900006013010070B5114B836000F52D5506463C
:10191000383500F1D80402E0B034AC4213D0204690
:10192000FFF74EFE0028F7D02046FEF78DFEB16887
:101930000BF0D6FA0028EFD02046FEF785FEB03433
:10194000AC42B060EBD1B06870BD00BF0000A040F9
:1019500070B5002300F52D550646C360383500F1FB
:10196000D80402E0B034AC4213D02046FFF728FE82
:101970000028F7D02046FEF783FEF1680BF0CEFA80
:101980000028EFD02046FEF77BFEB034AC42F0607A
:10199000EBD1F06870BD00BF0068704741607047D0
:1019A000F8B542F6903442F68C3301510F46164694
:1019B000C25000F1D804012504E001353F2D04F1A7
:1019C000B0041BD02046FFF7FBFD0028F5D02946C8
:1019D0000B4808F085FD0A4808F032FD782008F031
:1019E0001DFB20463946FFF7F3FD01352046314601
:1019F000FFF7FAFD3F2D04F1B004E3D1F8BD00BFBD
:101A0000CC87FF1F2DE9F84300F52D5542F67C33B6
:101A10002E4600278046C7504FF0000938353C3627
:101A200000F1D80402E0B034A54213D02046FFF7FD
:101A3000C7FD0028F7D03368013333602046FEF736
:101A40007FFE27490BF06AFA20BBB034A54207F1AC
:101A50000107EBD142F67C3358F80340E01B0BF052
:101A60004DF8014648460BF051F908F52E5305464E
:101A70001A6894420BD042F68C3242F690311C60C8
:101A800058F8022058F801104046FFF789FF284611
:101A9000BDE8F8832046FEF753FE014648460AF0AB
:101AA00079FF81462046FEF74BFED8F820100BF058
:101AB00035FA70B92046FEF743FED8F824100BF033
:101AC0000FFA0028AFD02046FEF73AFEC8F82400EF
:101AD000A9E72046FEF734FEC8F82000EAE700BF79
:101AE00000008CC2006A7047406A7047F8B500F584
:101AF0002D5507460026383500F1D80402E0B034F1
:101B0000AC420FD02046FFF75BFD0028F7D02046FF
:101B1000FEF7D8FD014630460AF03CFFB034AC4237
:101B20000646EFD142F67C33F8580AF0E7FF01464B
:101B300030460BF0EBF8F8BD2DE9F04F06468FB0BC
:101B400083488B4600F0F0FA814800F0EDFA8048B7
:101B500000F0EAFA42F67C333046F2580D92FFF775
:101B6000ABFD73680C93074630680AF071FB804642
:101B700030468946FFF7BAFF82463046B468F568BA
:101B8000FFF740FF0AF064FBCDE90A012146284631
:101B90000AF0FEFE6F490BF005F80AF059FBCDE99B
:101BA000080128460AF054FBCDE9060120460AF058
:101BB0004FFBCDE9040150460AF04AFB0D9A0C9BFD
:101BC000CDE90201CDE90089114663483A4600F0AB
:101BD000ABFA5F4800F0A8FAD8364FF001084FF092
:101BE000000A07E008F10108B8F13F0F06F1B0065E
:101BF00000F0A5803046FFF7E3FC0028F2D0304625
:101C0000FEF70CFD3046FEF70DFD3046FEF70EFDEB
:101C10003046FEF70FFD0821504808F07BF9414699
:101C20004F4808F05DFCB8F1090F40F38B800221AA
:101C30004C4808F06FF93046FFF790FC0AF008FBBB
:101C40005FFA8BF902460B46CDF80090444808F045
:101C50004FFC0121444808F05DF95546002420E07E
:101C60000621424808F056F929463D4808F038FC5C
:101C700002213F4808F04EF921463046FEF7DEFCCF
:101C80000AF0E6FACDF8009002460B46344808F018
:101C90002FFC01340121344808F03CF9082C09D00C
:101CA0003D46092D05F10107DADC0121314808F034
:101CB00031F9D5E72A4808F0C3FB09212E4808F07E
:101CC00029F900213046FFF76DFC0AF0C1FA022421
:101CD00002460B460094224808F00AFC0A212748D5
:101CE00008F018F901213046FFF75CFC0AF0B0FA61
:101CF000009402460B461A4808F0FAFB0A212048D5
:101D000008F008F921463046FFF74CFC0AF0A0FA2B
:101D1000009402460B46124808F0EAFB01211948DC
:101D200008F0F8F808F101080D4808F089FBB8F14F
:101D30003F0F0AF1080A06F1B0067FF45BAF0FB05F
:101D4000BDE8F08F01210B4808F0E4F86FE700BF11
:101D50007814010000007A4410160100B01601004A
:101D6000CC87FF1FE0240100BC160100C016010053
:101D7000AC180100BC180100C8160100D4160100FF
:101D8000E0160100EC1601002DE9F04F85B000F1DE
:101D9000D8058A4603929B462E464FF0010806E07E
:101DA00008F10108B8F13F0F06F1B0067BD03046CC
:101DB000FFF706FC0028F3D000230A2251467D4895
:101DC00008F04EFB01217C4808F0A4F803980AF0C3
:101DD0003FFA00230246009376480B4608F088FB42
:101DE0000121754808F096F85946724808F078FBCA
:101DF0000121714808F08EF841466E4808F070FBEA
:101E000001216D4808F086F800244FF002092146B0
:101E10003046FEF713FC0AF01BFACDF8009002469C
:101E20000B46644808F064FB01340121624808F065
:101E300071F8082C4FF00207E9D100213046FFF776
:101E4000B1FB0AF005FA009702460B46594808F024
:101E50004FFB0121584808F05DF801213046FFF79B
:101E6000A1FB0AF0F5F9009702460B46514808F02D
:101E70003FFB0121504808F04DF839463046FFF746
:101E800091FB0AF0E5F9009702460B46494808F035
:101E90002FFB08F10108474808F0D2FAB8F13F0FCC
:101EA00006F1B00683D101274FF0000904E00137A5
:101EB0003F2F05F1B00579D02846FFF781FB0028B8
:101EC000F5D000230A2251463C4808F0C9FA012106
:101ED000394806F035FF03980AF0BAF9CDF80090BA
:101EE00002460B46354808F003FB0121324806F054
:101EF00027FF5946314808F0F3FA01212E4806F031
:101F00001FFF39462D4808F0EBFA01212A4806F058
:101F100017FF00244FF0020821462846FEF78EFBEB
:101F20000AF096F9CDF8008002460B46234808F0E7
:101F3000DFFA01340121204806F002FF082C4FF09F
:101F40000206E9D100212846FFF72CFB0AF080F9B0
:101F5000009602460B46194808F0CAFA01211648B5
:101F600006F0EEFE01212846FFF71CFB0AF070F98F
:101F7000009602460B46114808F0BAFA01210E48B5
:101F800006F0DEFE31462846FFF70CFB0AF060F94A
:101F9000009602460B46094808F0AAFA013707489E
:101FA00008F04EFA3F2F05F1B00585D105B0BDE828
:101FB000F08F00BFCC87FF1FF0160100BC87FF1F0A
:101FC000014B1870704700BF2087FF1F024B187825
:101FD000B0FA80F0400970472087FF1F0278002A7E
:101FE00000F0908070B5034682B00D46252A2AD1B4
:101FF00058785C1C08B325282FD0732831D064286A
:1020000024D0692822D066284FD07A2859D0782841
:1020100035D058282FD062283ED0422838D06C289E
:1020200014D0632812D0742857D054285FD007F0FA
:10203000F5FF6278631C002AD8D1344802B0BDE8AD
:10204000704008F0FDB918781C46F0E72B1D296890
:102050002E481D4608F044FAEBE7104607F0DEFF75
:10206000E7E72E6830460BF0ABFD014630460435FD
:1020700007F050FFDDE70221254807F04BFF2E1D3A
:102080002968224800231022354608F0E9F9D0E7F4
:102090000221204807F03EFF2E1D29681B4800231F
:1020A0000222354608F0DCF9C3E7073525F00705BD
:1020B0000321D5E9002315480091083508F018FAE6
:1020C000B7E7073525F007050021D5E900230F48BC
:1020D0000091083508F00CFAABE7296801290EBF1A
:1020E0000D480E480121043507F014FFA1E72B68C5
:1020F000012B07BF04210A480A480521043507F0CF
:1021000009FF96E7014808F09BB900BFCC87FF1F85
:10211000F4160100F8160100FC160100001701007A
:10212000041701000C1701000FB400B583B004A917
:1021300051F8040B0191FFF751FF03B05DF804EB78
:1021400004B0704770B51B4B1B4C1B6882B00D462A
:102150000193019B23601946044600231646174845
:102160000A2208F07DF90321154807F0D3FE032C5D
:1021700007D8DFE804F01A1510020521114807F00E
:10218000C9FE0221104807F0C5FE31462846FFF778
:1021900025FF02B070BD07210C4807F0BBFEF0E739
:1021A00004210B4807F0B6FEEBE70521094807F0CC
:1021B000B1FEE6E72CC2FF1F4492FF1FCC87FF1F32
:1021C0001417010030170100AC1801002817010096
:1021D00020170100181701000FB400B5094B18783B
:1021E00083B020B103B05DF804EB04B0704705ABD9
:1021F0001A4604990193FFF7A5FF03B05DF804EBBD
:1022000004B070472087FF1F0FB4094B00B51B783F
:10221000012B83B004D903B05DF804EB04B0704720
:1022200005AB1A46049901930120FFF78BFFF2E7F3
:102230002087FF1F0FB40B4B00B51B78032B83B017
:1022400004D903B05DF804EB04B0704705AB1A463F
:10225000049901930320FFF775FF03B05DF804EBC9
:1022600004B070472087FF1F2DE9F84F994C9A481A
:10227000FFF7C8FBE16A0AF033FE002851D0974E01
:10228000974D002333602B60964B93481B68914F0A
:10229000012B5ED0FFF75CFBE169804660690AF0C4
:1022A00077FB014640460AF039FE002865D18A488E
:1022B000FFF74EFBE1680AF031FE08B100232B6006
:1022C0008548844FFFF71EFB21690AF009FE58B1CB
:1022D000002333602B68824A002B01DBBDE8F88FB6
:1022E00000231360BDE8F88F7B48FFF70BFBB9694B
:1022F0000AF0F6FD0028EBD17748FFF703FBD7F88B
:10230000B8100446B8690AF045FB014620460AF0B9
:1023100005FE002800F08480786E30600028D7DB4E
:10232000D8E76D48FFF76EFB216B0AF0D9FD002856
:1023300051D16948FFF766FB616B0AF0D1FD0028B7
:1023400000F09380654E664D626EE36D32602B60E7
:102350009AE7FFF7FDFAE1698046206A0AF018FB68
:10236000014640460AF0DAFD0028A0D05A48FFF79F
:10237000EFFAD7F82090834605E05748FFF7E8FAD0
:10238000D7F814908346F96948460AF001FB824663
:10239000F86D0AF0B3FB8046386E0AF0AFFB414699
:1023A0000AF0F6FA5146074658460AF0F1FA014695
:1023B00038460AF0F7FB5146074648460AF0E8FA65
:1023C000014638460AF0A2FC41460AF0E3FA0AF058
:1023D000C5FD28606BE7414E636E3F483360FFF7F1
:1023E00011FB8146E06DE76A3D4D0AF087FB3946F7
:1023F000804648460AF0CCFA014640460AF0D2FB35
:1024000039468046206B0AF0C3FA014640460AF07E
:102410007DFC00210AF0BEFA0AF0A0FD286033E737
:102420002D48FFF76FFA8146F86DBC690AF066FB2C
:102430002146804648460AF0ABFA014640460AF07B
:10244000B1FBD7F8B810804620460AF0A3FA21461F
:102450000AF09EFA014640460AF058FC00210AF0B4
:1024600099FA0AF07BFD306058E71B48FFF7CAFA7B
:10247000A16A0AF035FD00283FF401AF1648174E57
:10248000174DFFF7BFFA8146606ED4F834800AF02A
:1024900035FB4146074648460AF07AFA39468146F6
:1024A00000200AF075FA014648460AF07BFB4146D7
:1024B0008146A06A0AF06CFA014648460AF026FCFA
:1024C00039460AF067FA0AF049FDE36D30602B6087
:1024D000DAE600BF3493FF1FE494FF1FA894FF1FA8
:1024E0005092FF1F6C92FF1FF8B53A483A4F3B4D90
:1024F0003B4E3C4CFFF718FE3B4B3C493C4A3D48A9
:102500005960DA603C491F6100223C4F58615D62AE
:102510003B489E614FF07C553A4E9C623A4CD962E2
:102520001A630C21394A5F639863394F5D6440F642
:102530001C400A259E64DC6441F204065A24196595
:102540001A6202210122C3F8B8709866314FDD6625
:10255000002064251E675C674FF49676322459701C
:1025600059721A725A65DF61DF6383F840005E6654
:10257000DE651C664FF47A7E9D65274F9867274E6F
:10258000D967C3F88000C3F89440C3F8A040C3F8EB
:102590009C00FF24C3F8A820C3F8AC10052041F22A
:1025A000883183F8BC2040F2D662C3F8B050C3F83B
:1025B00098E0C3F88870C3F88C60C3F8A440A3F80F
:1025C000B600C3F89010A3F8B410A3F88420A3F8C1
:1025D0008620F8BD3817010000004040CDCCCC3D2E
:1025E000CDCC4C40000082423493FF1F20A1070055
:1025F0006666864033338340000020C100002042DD
:102600000000A0409A9979400AD7233D33337340A4
:102610009A99993ECDCC4C3E0000684200C02044BF
:10262000F0B54FF47A6085B006F0ACF800210F20C9
:1026300006F080F800210E2006F07CF80021112021
:1026400006F078F80021102006F074F8002112201E
:1026500006F070F80021132006F06CF801210B2021
:1026600006F068F801210C2006F064F8012114201E
:1026700006F060F80121152006F05CF80121162013
:1026800006F058F80121172006F054F80121052022
:1026900006F050F88C4C8D4D0121062006F04AF8CA
:1026A00001210D2006F046F820880AF023FA0146A1
:1026B000162005F0A9FF20880AF01CFA0146172011
:1026C00005F0A2FF20880AF015FA0146052005F062
:1026D0009BFF20880AF00EFA00240146062005F030
:1026E00093FF009423467A4A7A497B4804F070FCB1
:1026F000E6B232467549784804F018FC2B797349E4
:1027000075486FF30003013432462B7104F004FC6A
:10271000082CEDD10924E6B232466C496E4804F02B
:1027200005FC2B7969496C4843F0010301343246BA
:102730002B7104F0F1FB0D2CEDD1684C4FF0FF3202
:102740002068102105F010F820684FF0FF321021AA
:1027500004F0E2FF20684FF0FF32022104F0F0FFA6
:1027600020684FF0FF32022104F0F4FF00220F2115
:10277000206805F003F80C21594807F0CBFB5948B5
:1027800007F05EFE1421584807F0C4FB554807F0D7
:1027900057FE544807F054FE1721544807F0BAFB7F
:1027A000504807F04DFE524B1B789A0600F1BC8052
:1027B0004F4B1B781B0700F1C3804D4B1B785F0705
:1027C00000F1CA804A4B1B789E0700F1D180494B2B
:1027D0001B781D0600F1D880464B1B785C0600F183
:1027E000DF80444B1B78980600F1E680414B1B7854
:1027F000590700F1ED803F4B1B781A0700F1F48078
:102800003C4B1B789B0700F1FB80364807F018FE15
:1028100072B6394A4CF220534DF628112024138009
:1028200023461180013BFDD1344D35483549002305
:102830004FF480562E8003800B8032F80E3C9BB202
:1028400043F0D30322F80E3C62B69D2006F054FC00
:1028500021462D482D4D07F05DFB224807F0F0FD85
:1028600005F1C0062F462C46601B05F069FC04F8F4
:10287000010BB442F8D13B78102B01D0FFF734FEA6
:102880000420FFF79DFB224B224D002401210D2047
:102890001C6005F03BFF796D1F48FFF77FF87A6CED
:1028A00097F840101C48FFF77BF81C4B1C491A682E
:1028B000039203981B680293029A1A4B2C700860CB
:1028C0001A6005B0F0BD00BF2887FF1F0094FF1FEE
:1028D00020C2FF1F20A1070084C0FF1FB094FF1F6C
:1028E00058170100CC87FF1F6817010080170100EF
:1028F00001F0074000F007400E200540042005408D
:102900000620054016200540841801003493FF1F5F
:102910005C92FF1F9C94FF1FE494FF1F2CC2FF1FBB
:10292000E094FF1F0894FF1F2121394807F0F2FAB5
:10293000384807F085FD384B1B781B077FF53DAF06
:102940000C21364807F0E6FA324807F079FD324BA1
:102950001B785F077FF536AF0E21314807F0DAFAB2
:102960002C4807F06DFD2C4B1B789E077FF52FAF91
:1029700017212C4807F0CEFA264807F061FD2A4BB4
:102980001B781D067FF528AF0E21284807F0C2FAF4
:10299000204807F055FD244B1B785C067FF521AFDE
:1029A0001221234807F0B6FA1A4807F049FD1E4BDA
:1029B0001B7898067FF51AAF13211E4807F0AAFA74
:1029C000144807F03DFD184B1B7859077FF513AFEE
:1029D0001C21194807F09EFA0E4807F031FD124BF2
:1029E0001B781A077FF50CAF1921144807F092FAEB
:1029F000084807F025FD0C4B1B789B077FF505AFBA
:102A000018210F4807F086FA024807F019FDFCE686
:102A100098170100CC87FF1F01F00740BC17010089
:102A2000CC170100DC17010000F00740F41701008B
:102A300004180100181801002C1801004C1801009E
:102A40006818010070B5464C464D4748E6680023BB
:102A50002B70FEF77DFF014630460AF041FA08B1BF
:102A600004232B704048FEF74DFF21690AF038FA25
:102A700018B12B7843F010032B703B48FEF7C2FFD0
:102A8000A16A0AF04BFA18B12B7843F040032B707F
:102A9000002335486B70FEF7B5FFE16A314E0AF04E
:102AA0001FFA08B10123737000232F48EB70FEF763
:102AB0004FFF05462C482B4EFEF724FF01462846C3
:102AC00009F066FFE16B0AF029FA08B10123F370FF
:102AD000264D254800232B70FEF73AFF616A064613
:102AE000E06809F055FF014630460AF017FA08B1D0
:102AF00004232B701C48FEF705FF616A0646206917
:102B000009F048FF014630460AF0EAF918B12B787F
:102B100043F010032B701448FEF774FFA16B0646B8
:102B2000A06A09F035FF014630460AF0F7F918B1FE
:102B30002B7843F040032B7000230B486B70FEF79B
:102B400061FFA16B0546E06A084C09F023FF0146CE
:102B500028460AF0C5F908B10123637070BD00BFB3
:102B60003493FF1F3093FF1FE494FF1FA094FF1FB7
:102B70002DE9F0417C4C2368012B82B031D0022B2F
:102B800000F0A880032B00F0C8803BBB774B784A4D
:102B9000D3F8A010D3F8A43012685B1A632B0EDDB3
:102BA000744803FB02F380FB0302DB17C3EB6213E1
:102BB0001944062002B0BDE8F04105F027BC6E487C
:102BC00003FB022380FB0302DB17C3EB2212114439
:102BD000062002B0BDE8F04105F018BC02B0BDE827
:102BE000F081664E33680A33B3F57A7F00F3B7801D
:102BF0001846336009F082FF614909F0D3FF80462F
:102C00005A4DD5F8A00009F079FF0746D5F8A40081
:102C100009F074FF394609F0BBFE414609F0C2FFD6
:102C200058490AF073F8394609F0B4FE0AF096F9EB
:102C30000146062005F0EAFB0221534807F06AF935
:102C4000524807F0FDFB0621514807F063F9306850
:102C500009F054FF4A4909F0A5FF09F0F9FA0227E3
:102C600002460B460097494807F042FC0D214948AF
:102C700007F050F9D5F8A00009F040FF8046306811
:102C800009F03CFF3E4909F08DFF0646D5F8A40047
:102C900009F034FF414609F07BFE0146304609F059
:102CA00081FF38490AF032F8414609F073FE09F015
:102CB000CFFA00970B460246344807F019FC394614
:102CC000314807F027F9314807F0BAFB2368022B97
:102CD0007FF458AF294B254E00221A60D6F8A00089
:102CE00009F00CFF0546D6F8A40009F007FF2946B5
:102CF00009F04EFE002109F055FF22490AF006F8BE
:102D0000294609F047FE0AF029F90146062005F098
:102D10007DFB2368032B7FF438AF184B134E4FF421
:102D20007A721A60D6F8A00009F0E8FE0546D6F8D7
:102D3000A40009F0E3FE294609F02AFE114909F032
:102D400031FF104909F0E2FF294609F023FE0AF09D
:102D500005F90146062005F059FB236815E7002315
:102D60004FF0000833604BE78C94FF1F3493FF1F34
:102D70003487FF1F1F85EB51CBF08D286092FF1F1A
:102D8000CDCCCC3D0000C842E0240100CC87FF1F21
:102D9000A8180100B018010070B5A248A24C07F0B5
:102DA0004FFBA04807F04CFB9E4807F049FB0D2164
:102DB0009E4807F0AFF8D4F89C30012B11D09C4C02
:102DC0009848217800230A2207F04AFB2378052B34
:102DD00067D8DFE813F0E900EE00F300F800FD002B
:102DE000E4000921934807F095F89348FEF78AFD1F
:102DF00021690AF075F818B10F21904807F08AF898
:102E00008D48FEF7A5FDE1680AF088F818B10E219B
:102E10008B4807F07FF88848FEF79AFD05468648FC
:102E2000FEF770FD0146284609F0B2FDE16B0AF09D
:102E300075F818B11121834807F06CF87E48FEF749
:102E4000E1FDA16A0AF06AF818B10C217E4807F08A
:102E500061F87948FEF7D6FDE16A0AF041F818B149
:102E60000D217A4807F056F8794B73481B68012BFF
:102E700000F0C280FEF746FD21696B4D0AF04EF866
:102E800078B16D48FEF764FDE9680AF029F840B1B1
:102E9000674B1B78052B00F0C08008216D4807F0B8
:102EA00039F802216C4807F035F8122005F034FC9F
:102EB000012800F09C80112005F02EFC012800F074
:102EC0009180664B1B68012B00F0878002216248CD
:102ED00007F020F8624B5348196807F001FB51488E
:102EE00007F0AEFA04215F4807F014F80B2005F054
:102EF00013FC002301460A224A4807F0B1FA0C20CD
:102F000005F00AFC002301460A22464807F0A8FA09
:102F1000142005F001FC002301460A22414807F075
:102F20009FFA152005F0F8FB002301460A223D48D0
:102F300007F096FA06214C4806F0ECFF4B4B394857
:102F400019680222002307F08BFA0421484806F092
:102F5000E1FF112005F0E0FB002301460A22314881
:102F600007F07EFA102005F0D7FB002301460A2265
:102F70002C4807F075FA122005F0CEFB002301461D
:102F80000A22284807F06CFA132005F0C5FB00233D
:102F900001460A222348BDE8704007F061BA0721C4
:102FA000344806F0B7FF7CE70621334806F0B2FF4D
:102FB00077E70721314806F0ADFF72E70721304877
:102FC00006F0A8FF6DE708212E4806F0A3FF68E78A
:102FD0000B212D4806F09EFF63E711212B4806F0D8
:102FE00099FF73E70A212A4806F094FF69E70E214A
:102FF000284806F08FFF5EE7FEF784FC216A09F09F
:103000008DFF00283FF449AF1621234806F082FFC8
:103010000A21224806F07EFF43E70A211F4806F0F6
:1030200079FF3EE7CC87FF1F3493FF1FC0180100D4
:103030009C94FF1FD0180100E494FF1FDC180100CE
:10304000EC180100FC180100101901002019010002
:103050006C92FF1F54190100E0240100B894FF1F77
:103060009094FF1FC8190100D0190100F493FF1FAD
:10307000D8190100901901006019010068190100B8
:103080007C1901008419010070190100B4190100B4
:10309000A819010098190100301901004819010010
:1030A0002DE9F04F934C944FE36F012B8DB000F05E
:1030B0004981032B50D0914E914DA36F9148012B24
:1030C00009BF2968296801F10041296004F02AFF3D
:1030D0003368002B40F0CE808A4804F0F9FEE36F9D
:1030E0003860012B064600F0D280874909F016FFB0
:1030F00078B98649304609F0F3FE50B9844A854BC9
:1031000012680B920B9A1A6000232B600DB0BDE879
:10311000F08FDFF8FC817F4CD8F800300A930A98D2
:1031200023687D4FC01A09F0E5FC314609F03AFDED
:103130007A4909F0EBFD794909F0E8FD396809F0B1
:1031400029FCD8F800300993099B236000233860DC
:103150002B600DB0BDE8F08FDFF8C881704DD8F856
:103160000000664E012300220F212B6004F006FBB5
:103170002B68012B336800F00381002B40F0A681FF
:103180000021D8F80000DFF8B891664D04F048FB44
:1031900033681FFA80FBC9F800B0002B40F07B8138
:1031A0000021D8F80000564DDFF878A104F0BEFAEF
:1031B000B4F8863040F6E44101FB0BF1B1FBF0F0CE
:1031C000C01A00B209F09AFC57498346D4F8880027
:1031D00009F0E8FC0146584609F098FDD9F800309E
:1031E0002860632BDFF858B100F3498100232B607E
:1031F0003368002B3FF461AF02214C4806F08AFE91
:10320000D9F80020D8F8000040F6E443002103FB81
:1032100002F804F08BFAB8FBF0F009F06BFC804682
:10322000B4F8860009F06AFC0146404609F0B0FB9C
:1032300009F00EF84FF0020802460B46CDF8008068
:103240003B4807F055F94146384806F063FE2868C8
:1032500008F0FEFFCDF8008002460B46344807F028
:1032600047F94146334806F055FE41462F4806F0DF
:1032700051FE22E7234804F02BFE08F0E9FF022666
:1032800002460B4600962A4807F032F924E7244B01
:103290001B68012B00F02681022B7FF435AF2649F5
:1032A00009F03CFE30B92549304609F019FE0028E6
:1032B00000F04781DFF85880164CD8F800300793AB
:1032C00007982368144FC01A09F014FC314609F01E
:1032D00069FC124909F01AFD104909F017FD396817
:1032E00009F058FBD8F800300693069B386023603D
:1032F0000AE700BF3493FF1F7892FF1FDC94FF1F83
:103300006892FF1F0C93FF1F0000FA430000FAC3EE
:103310002CC2FF1FAC94FF1F8492FF1F00007A4451
:103320005087FF1FB094FF1F17B7D138E02401006A
:10333000CC87FF1F1C1A010000C82F4800A08CC6B4
:103340002C93FF1F3D689849284609F0C9FD30B10C
:103350002846964909F0E2FD00287FF4FDAEDFF82B
:103360005882934DD8F80000924E022300220E217D
:103370002B6004F003FA2B68012B33687FF4FDAE59
:10338000002B40F000810021D8F80000DFF86C929B
:10339000894D04F045FA33681FFA80FBC9F800B084
:1033A000002B40F0D5800021D8F80000834D04F0B8
:1033B000BDF9B4F8843040F6E44A0AFB0BFBBBFBD2
:1033C000F0F0C01A00B209F099FB7D498346D4F8A9
:1033D0008C0009F0E7FB0146584609F097FCD9F844
:1033E000003028600021D8F800000AFB03FA04F03E
:1033F0009DF9B4F88430BAFBF0F00FFA80FAC3EB11
:103400000A03002BB4F8B620B8BF5B429342BCBF9E
:1034100000232B603368002B3FF44FAE0221694834
:1034200006F078FDD9F80020D8F8000040F6E44313
:10343000002103FB02F804F079F9B4F88410B8FB1A
:10344000F0F000B2411A604807F04AF802215D48E6
:1034500006F060FD286808F0FBFE4FF00208024607
:103460000B46CDF80080584807F042F80321574832
:1034700006F050FD4146534806F04CFD1DE6DAF8D3
:103480000000002104F052F9DBF800306438984263
:10349000FFF4ACAEACE60021286804F047F940F632
:1034A000E44100230A2201FB0BF1B1FBF0F1464895
:1034B00006F0D6FF0221434806F02CFDB4F8861032
:1034C000414807F00DF8D9F800B069E63E4806F02B
:1034D000B7FF0C213E4806F01DFD0C213D4806F0CB
:1034E00019FD4DE63C4909F019FD58B93B493046F4
:1034F00009F0F6FC30B93A4A3A4B12680592059A3F
:103500001A6001E6DFF8D880364CD8F80030049312
:1035100004982368344FC01A09F0ECFA314609F0D8
:1035200041FB324909F0F2FB304909F0EFFB396801
:1035300009F030FAD8F800300393039B3860236019
:10354000E2E5274A274B12680892089A1A60DBE5E1
:103550000021286804F0EAF840F6E44100230A223A
:1035600001FB0BF1B1FBF0F1174806F079FF0121E7
:103570001F4806F0CFFCB4F88410134806F0B0FFE3
:10358000D9F800B00FE7104806F05AFFE36F012B9F
:103590004FF00B010CBF1748174806F0BBFC0C217D
:1035A0000C4806F0B7FCEEE600709446007094C636
:1035B0005087FF1FDC94FF1FB094FF1F6892FF1F0E
:1035C00017B7D138E0240100CC87FF1F081A01008B
:1035D0000C1A0100F81901000000FA430000FAC3B8
:1035E0002CC2FF1FAC94FF1F8492FF1F00007A447F
:1035F000BC180100E0190100EC1901002C93FF1F19
:103600002DE9F047B24D2B6884B0002B7ED0B14C31
:10361000DFF8C882B04EE36FAE4D012B00F08F8013
:10362000D4F88030AB4F012B00F0BC80D6F800906E
:10363000D7F858A07D6DA94F05FB0AF54FF47A70B5
:1036400000FB05F009F05AFAA5490546484609F07D
:10365000A9FA294609F05AFBA24909F0A3FA09F090
:103660007DFC6328C8F800004BDD28469C4909F022
:103670004DFB642330603B609B4B1B68002B3DD0AF
:10368000E36F944D012B00F0BB80032B00F0098108
:10369000022B00F00C810221944806F03BFC944B75
:1036A000186808F0D5FD022402460B4600949148A4
:1036B00006F01EFF2146904806F02CFC21468B4860
:1036C00006F028FCD8F800108A4806F009FF062109
:1036D0008A4806F01FFC3068814909F063FA08F057
:1036E000B7FD009402460B46824806F001FF032115
:1036F000834806F00FFC7F4806F0A2FE04B0BDE848
:10370000F0870028BCBF00233B60B5E77D4E714CBD
:1037100033680293029A42F228339A4200F2BA8046
:1037200033680393039A42F210739A4274D8E36F9A
:10373000DFF8A881684E674D012B7FF471AF7248A6
:10374000FEF7D4F97149D5F86890EF6E09F02AFABE
:1037500009F02AFC2A6F6B6FC9EB0202DB1B80B2F7
:103760009A42C9EB000040F3AD8003FB0000531CFC
:1037700090FBF3F31F44A06D636DC8F8007000FB6D
:1037800007F003FB00F000EB8000400009F0B6F901
:103790005349504F09F0BAFAD4F880303060012B09
:1037A0007FF444AF5848FEF7A1F95849D7F868901C
:1037B000FD6E09F0F7F909F0F7FB3A6F7B6FD4F86B
:1037C00058A0C9EB02025B1B80B29A42C9EB000011
:1037D000C6BF03FB00000132584390FBF2F02844BF
:1037E000656D00FB0AF005FB00F000EB8000400077
:1037F00009F084F93A4909F089FA814630601AE7FC
:10380000434B1B68012B4FF00A010CBF4148424853
:1038100006F080FBEB6F38E73B48FEF767F93B4962
:10382000A76EE66E09F0BEF909F0BEFB226F636F6A
:10383000D21B9B1B80B29A42A0EB07003CDD03FB2E
:103840000000531C90FBF3F39819A26DDFF88C80F5
:10385000636DC8F8000002FB00F003FB00F000EB12
:103860008000400009F04AF91D491B4E09F04EFA4C
:103870000123306002211D482B6006F04BFB1D48E0
:1038800006F0DEFD5921254806F044FB194806F0F4
:10389000D7FDC0E61C48626C94F84010FEF780F833
:1038A0003EE710211E4806F035FBE36FF0E60721E6
:1038B0001C4806F02FFBEEE603FB00F393FBF2F34C
:1038C0009819C2E703FB00F393FBF2F31F4452E79E
:1038D0006492FF1F3493FF1F8492FF1F3487FF1FE2
:1038E000E4388E3E0000C8423C87FF1FE024010000
:1038F0007892FF1FCC87FF1F1C1A0100B01A01002D
:10390000B81A01002CC2FF1FE494FF1F00007A4484
:103910005087FF1F7C1A0100881A0100201A01003D
:10392000941A0100A81A010030B5112083B004F0E8
:10393000F3FE012818D0122004F0EEFE012813D067
:1039400000210B2004F0E2FE00210C2004F0DEFE3A
:103950000021152004F0DAFE2649274B0120002221
:1039600008701A6003B030BD0121152004F0CEFEAE
:10397000224A234C234B1268D4F8901001921B6802
:10398000019A1D4D0B4493424FF00201296005D965
:1039900001210C2004F0BAFE03B030BDD4F8980029
:1039A00009F0ACF8184B196809F09AFA0028EFD121
:1039B00001210B2004F0AAFE94F8BC3003242C60F3
:1039C00043B10C4B02221A7000210C2004F09EFE21
:1039D00003B030BD122004F09FFE012808BF054B44
:1039E0004FF0110008BF1C7004F096FE0128EBD1C7
:1039F000E7E700BF9C94FF1FD894FF1F2CC2FF1F56
:103A00003493FF1FE094FF1F7892FF1FF0B5684EBC
:103A1000684D34682B689C4287B039D014F001019E
:103A200055D014F0020149D014F004013DD0E30751
:103A30000ED52B68DF070BD45F4F3A68002A00F0E1
:103A400082805E4B1B680193019B93426DD8346862
:103A5000A0070DD52B6899070AD4594F3A68002A58
:103A60004CD0564B1B680393039B934238D8346861
:103A700062070DD52B685B070BD4524F3A68002ABA
:103A80007ED04E4B1B680593059B934268D83468E3
:103A90000CB107B0F0BD2146162004F0B7FC21465A
:103AA000172004F0B3FC07B0F0BD052004F0AEFC15
:103AB0002B68346803F0FB032B60B8E7172004F091
:103AC000A5FC2B68346803F0FD032B60ACE71620DF
:103AD00004F09CFC2B68346803F0FE032B60A0E725
:103AE000394B1720D3F8941004F090FC2B683468FD
:103AF00043F0020300222B603A60B9E7334806F036
:103B00009FFC0C21324806F005FA304806F098FC7C
:103B1000FF21172004F07AFC284B2E4A19680291E5
:103B2000029912680A443A609CE7274B1620D3F8A2
:103B3000941004F06BFC2B68346843F001030022FE
:103B40002B603A6084E7FF21162004F05FFC1B4BDA
:103B5000204A19680091009912680A443A6071E796
:103B6000194B0520D3F8941004F050FC2B683468EE
:103B700043F0040300222B603A60002C89D18AE7CD
:103B8000124806F05DFC0C21134806F0C3F90F48FB
:103B900006F056FCFF21052004F038FC074B0D4AC7
:103BA00019680491049912680A443A606AE700BFF0
:103BB000D894FF1FF493FF1F7094FF1F2CC2FF1FA8
:103BC0007494FF1F7894FF1F3493FF1FCC87FF1F4F
:103BD000BC1A01006887FF1FCC1A01002DE9F047CD
:103BE000544EDFF87481DFF874913068524D002232
:103BF0000F2103F0C3FD0023012222214F48C8F802
:103C00000030C9F8002006F085F9D8F80030132BF1
:103C100022DC40F6E44700213068B5F884A003F0C8
:103C2000FFFD00210446306803F080FDA4B20121AD
:103C300007FB04F4B4FBF0F441485444A5F8844075
:103C400006F068F9642004F09DFDD8F800300133D7
:103C5000132BC8F80030DEDDB5F88430394A3A4815
:103C6000A2FB03129B1A02EB5303C3F30F13194673
:103C7000A5F8843006F034FC1D21344806F04AF9DA
:103C80000221334806F046F92F4806F0D9FB0023FD
:103C90001A460E213068C8F8003003F06FFD022389
:103CA00022212648C9F8003006F034F9D8F800304F
:103CB000132B22DC40F6E44700213068B5F88690EB
:103CC00003F0AEFD00210446306803F02FFDA4B2DE
:103CD000012107FB04F4B4FBF0F419484C44A5F8A7
:103CE000864006F017F9642004F04CFDD8F8003047
:103CF0000133132BC8F80030DEDDB5F88630114AE9
:103D00001148A2FB03129B1A02EB5303C3F30F13D8
:103D10001946A5F8863006F0E3FB1D210D4806F094
:103D2000F9F802210A4806F0F5F80748BDE8F0471F
:103D300006F086BBB094FF1F3493FF1FDC1A01000E
:103D4000201B010087611886CC87FF1F001B010024
:103D5000E0240100241B01009494FF1F5087FF1FE3
:103D6000A24B2DE9F0411B68A14CA24D40F251310C
:103D700008222160E271286D002B40F0E48008F0F9
:103D8000BDFE6969064608F00DFF9B49994F08F092
:103D900009FF09F009F980B203126372974A984B40
:103DA00012681B68A969A37215121B12E3722273B1
:103DB00020726573304608F0F5FE8F498C4E08F08E
:103DC000F1FE09F0F1F883B21A1231468D48A3735F
:103DD000E27303F0F5FA8C4B8C4A1B681288A272CE
:103DE000DDB205EB8501257203EB8305490045F340
:103DF000D71540F2553E12124FF008081B122173DE
:103E00006573314600257F48C4F800E0E2726372B2
:103E1000A573E57384F8078003F0D2FA40F25633B5
:103E20007B48236084F80780FDF7B6FD794908F0E8
:103E3000B9FE09F0B9F820727548FDF7ADFD754976
:103E400008F0B0FE09F0B0F8734A7249C0F30723D6
:103E50006372106808F05AFF09F080F840FA08F21F
:103E600003466B48E272A372FDF7CCFD624908F08D
:103E700099FE09F099F820736548FDF7C3FD5E4986
:103E800008F090FE09F090F83146C0F307235D4832
:103E90006373A573E57303F093FA022004F072FCD8
:103EA0005E4B25731A7859786573A573E573227292
:103EB0009D78DA78617240F25A3331465148A572E2
:103EC000E272236084F8078003F07AFA544B4D487D
:103ED0001A785978227261729A78D978A272E1724E
:103EE0001A7959799D7922736173DA79E27340F214
:103EF0005E3331462360A57384F8078003F060FACF
:103F0000022004F03FFC474B3E481A785978227251
:103F100061729A78D978A272E1721A7959799D7989
:103F200022736173DA7984F807804FF45C73314649
:103F30002360A573E27303F043FA3B4B1B68012B2C
:103F400006D0BDE8F08108F0D9FD296A06461AE7D7
:103F50002F48FDF7D7FCF96C08F01CFD05462C48EE
:103F6000FDF7F6FC0146284608F0BAFF0028E8D025
:103F700040F2C333264886F807803360FDF7C2FC61
:103F8000BD6C294608F0ACFFD0B12849284608F09E
:103F900009FE09F009F880B240FA08F37072337232
:103FA0000023012604250322A672E572227363739F
:103FB000A373E3730E491348BDE8F04103F000BA60
:103FC0001348FDF79FFC194908F0ECFD08F0ECFFE1
:103FD000C0F307230E483372FDF794FC134908F031
:103FE000E1FD08F0E1FF7072DAE700BF6C92FF1F9D
:103FF000C894FF1F3493FF1F00002041A894FF1FA7
:104000005092FF1F84C0FF1F3487FF1F3887FF1F98
:10401000E494FF1F0000C8427892FF1F3093FF1FF7
:104020002C87FF1F5487FF1FB894FF1F00007A449E
:10403000F0B59C4C9C4D83B005F006FF23682860CA
:10404000042B00F0AC82022B4BD0082B00F09280A6
:10405000072B40F05181332801F0F28300F3AD804B
:10406000312801F00084322840F0B08005F028FFAC
:10407000002840F33F818D488D4E06F073FB08F019
:104080003DFD8C4908F08EFD61230122F063226022
:104090002B601846A0F152031F2B01F2AF83DFE81B
:1040A00013F02E0BAD0BAD0BAD0BAD0BAD0BAD0B84
:1040B000AD0BAD0BAD0BAD0BAD0BAD0BAD0BAD0B40
:1040C000B203CB0C3905A7057304AD0BAD0BAD0BDB
:1040D0002604AD0BCE0CAD0BAD0BAD0BAD0BAD0B8C
:1040E000300BA0F13102422A70D8DFE812F0F0065E
:1040F000FC060A0717072A0739076F006F006F00D1
:104100006F006F006F006F006F006F006F006F0037
:104110006F006F006F006F006F006F006F006F0027
:104120006F006F006F006F006F006F006F006F0017
:104130006F006F006F006F006F006F006F006F0007
:104140006F006F006F006F006F006F006F006F00F7
:104150006F00DD066F006F006F006F006F006F0073
:104160006F006F006F006F006F006F006F006B00DB
:104170006F00E306322800F02F83712822D0312807
:1041800024D105F09DFE002840F3CF854748484ED6
:1041900006F0E8FAC0B286F84000022894BF014653
:1041A0000021726C444888BF86F84010FDF7F8FB88
:1041B00001236920236028606CE7342801F02E83F6
:1041C000712803D10023732023602860002B08BFCF
:1041D00073280CBF01200020002860D0334806F06F
:1041E0002FF90421354805F095FE304806F028F9EE
:1041F0001021334805F08EFE2C4806F021F91321DA
:10420000304805F087FE304B2848196806F068F9F9
:10421000264806F015F914212C4805F07BFE2348AA
:1042200006F00EF91E212A4805F074FE1F4806F01C
:1042300007F91521274805F06DFE1C4806F000F926
:104240001E21254805F066FE184806F0F9F82021E1
:10425000224805F05FFE154806F0F2F819212048C3
:1042600005F058FE114806F0EBF812211D4805F044
:1042700051FE0E4806F0E4F80F211B4805F04AFEF7
:104280000A4806F0DDF80D21184805F043FE0748FE
:1042900006F0D6F8164A002101231160236003B00E
:1042A000F0BD00BF8892FF1F7492FF1FCC87FF1FD5
:1042B0003493FF1F6F12833AE494FF1F5C230100C5
:1042C00064230100782301002487FF1F8C23010051
:1042D000A4230100C4230100DC230100FC2301000E
:1042E000202401003C24010050240100602401002E
:1042F0003C87FF1F23682868062B40F08D80A0F1C3
:104300003102402A3FF662AF01A151F822F000BF0E
:10431000354D0000614D00008D4D0000B34D000093
:10432000D94D0000F74D0000954E0000CD41000032
:10433000CD410000CD410000CD410000CD41000045
:10434000CD410000CD410000CD410000CD41000035
:10435000CD410000CD410000CD410000CD41000025
:10436000CD410000CD410000CD410000CD41000015
:10437000CD410000CD410000CD410000CD41000005
:10438000CD410000CD410000CD410000CD410000F5
:10439000CD410000CD410000CD410000CD410000E5
:1043A000CD410000CD410000CD410000CD410000D5
:1043B000CD410000CD410000CD410000CD410000C5
:1043C000CD410000CD410000CD410000CD410000B5
:1043D000CD410000CD410000CD410000CD410000A5
:1043E000CD410000CD410000CD410000CD41000095
:1043F000CD410000CD410000CD410000CD41000085
:10440000CD410000CD410000CD410000CD41000074
:10441000C541000023682868052B15D1332801F019
:10442000498240F34781352801F06B82C1F2538203
:1044300071287FF4CBAEDC4A002373201360236025
:104440002860C3E623682868032B40F0A480A0F10D
:104450003002422A3FF6BAAE01A151F822F000BF65
:104460006D45000009560000B7540000DF540000FD
:104470000155000023550000315600005956000038
:10448000775600009B560000CD410000CD41000052
:10449000CD410000CD410000CD410000CD410000E4
:1044A000CD410000CD410000CD410000CD410000D4
:1044B000CD410000CD410000CD410000CD410000C4
:1044C000CD410000CD410000CD410000CD410000B4
:1044D000CD410000CD410000CD410000CD410000A4
:1044E000CD410000CD410000CD410000CD41000094
:1044F000CD410000CD410000CD410000CD41000084
:10450000CD410000CD410000CD410000CD41000073
:10451000CD410000CD410000CD410000CD41000063
:10452000CD4100004B55000063500000C356000011
:10453000E1560000AB550000C955000019500000BD
:104540003D500000CD410000CD410000CD410000B4
:10455000CD410000CD410000CD410000CD41000023
:10456000CD410000695500007555000005F0A8FC1C
:10457000002841F34C818D488D4E06F0F3F8012759
:104580000346014662228B48736527602A60FDF767
:1045900005FA23682868012B7FF418AE7AE5A0F1AC
:1045A0003102402A3FF612AE01A151F822F000BFBD
:1045B0007B4F0000934F0000974F0000BD4F00005D
:1045C000FD4F0000C14F0000D34F0000D74F000047
:1045D000DB4F0000CD410000CD410000CD41000087
:1045E000CD410000CD410000CD410000CD41000093
:1045F000CD410000CD410000CD410000CD41000083
:10460000CD410000CD410000CD410000CD41000072
:10461000CD410000CD410000CD410000CD41000062
:10462000CD410000CD410000CD410000CD41000052
:10463000CD410000CD410000CD410000CD41000042
:10464000CD410000CD410000CD410000CD41000032
:10465000CD410000CD410000CD410000CD41000022
:10466000CD410000CD410000CD410000CD41000012
:10467000CD410000CD410000CD410000CD41000002
:10468000CD410000CD410000CD410000CD410000F2
:10469000CD410000CD410000CD410000CD410000E2
:1046A000CD410000CD410000CD410000CD410000D2
:1046B000C5410000312801F0EC8032287FF486AD3E
:1046C00005F0FEFB00287FF7BDAE3848384E06F0F7
:1046D00049F801226B23C6F8980022602B6001E0A4
:1046E00005F0B2FB05F0ECFB0028F9D12F4805F0EE
:1046F000A7FE2E4805F0A4FE2C4805F0A1FE2B488D
:1047000005F09EFE294805F09BFE21212A4805F070
:1047100001FC264805F094FE1521284805F0FAFB17
:10472000D6F89010214805F0DBFE0221244805F060
:10473000F1FB1E4805F084FE1E21224805F0EAFB2D
:10474000D6F89810194805F0CBFE03211E4805F055
:10475000E1FB164805F074FE1E211C4805F0DAFB4B
:10476000D6F89410114805F0BBFE104805F068FE1D
:104770001D21174805F0CEFBD6F8A0100B4805F018
:10478000AFFE0A4805F05CFE1E21124805F0C2FB90
:10479000D6F8A410054805F0A3FE044805F050FE25
:1047A000052323607BE500BF8C94FF1FCC87FF1F90
:1047B0003493FF1FE494FF1FD41D0100F81D010076
:1047C000E41C0100101E0100081A0100301E010047
:1047D000501E0100701E010005F072FB002840F31E
:1047E000A082B248B24E05F0BDFF08F087F9B1498A
:1047F00008F0D8F90346024696F84010AE487364B4
:10480000D4E405F021FB05F05BFB05460028F8D158
:10481000A648A74E05F014FEA44805F011FEA348D3
:1048200005F00EFEA14805F00BFEA04805F008FEBD
:104830001F21A24805F06EFB9C4805F001FE1C21DB
:104840009F4805F067FB706A9E4908F0ABF907F0D6
:10485000FFFC009502460B46944805F049FE0221F4
:10486000994805F057FB914805F0EAFD2321974848
:1048700005F050FBF06B934908F094F907F0E8FC61
:10488000009502460B46894805F032FE02218E480B
:1048900005F040FB854805F0D3FD19218C4805F053
:1048A00039FBB06B07F0D4FC02250B46024600959D
:1048B0007E4805F01DFE2946864805F02BFB7B4807
:1048C00005F0BEFD1921844805F024FBB6F8B410AC
:1048D000764805F005FE0321804805F01BFB734870
:1048E00005F0AEFD07232360D9E405F0ADFA05F02D
:1048F000E7FA05460028F8D16C486D4E05F0A0FD9A
:104900006A4805F09DFD694805F09AFD674805F085
:1049100097FD664805F094FD1521714805F0FAFAF7
:10492000624805F08DFD18216E4805F0F3FA2B461C
:104930000A2296F840105D4805F092FD5B4805F0AC
:104940007FFD2821684805F0E5FA706C5D4908F0A4
:1049500029F907F07DFC00950B460246534805F007
:10496000C7FD0221584805F0D5FA504805F068FD0A
:1049700013215E4805F0CEFA4C4805F061FD08238E
:1049800023608CE405F060FA05F09AFA05460028E9
:10499000F8D14648464E05F053FD444805F050FD19
:1049A000424805F04DFD414805F04AFD3F4805F0FD
:1049B00047FD11214E4805F0ADFA3C4805F040FD99
:1049C00028214C4805F0A6FA70693E4908F0EAF83B
:1049D00007F03EFC009502460B46344805F088FD82
:1049E0000221394805F096FA304805F029FD1621D4
:1049F000414805F08FFAF069324908F0D3F807F022
:104A000027FC00950B460246284805F071FD02215F
:104A10002D4805F07FFA254805F012FDD6F8AC3098
:104A2000002B32DD1D21354805F074FAF06D08F0D9
:104A300065F8334908F0B6F807F00AFC022502468B
:104A40000B460095194805F053FD01212D4805F04E
:104A500061FA164805F0F4FC1F212B4805F05AFABC
:104A6000306E08F04BF8264908F09CF807F0F0FB90
:104A7000009502460B460D4805F03AFD01212148FC
:104A800005F048FA094805F0DBFC11211F4805F044
:104A900041FAD6F8AC30052B00F26086DFE813F05F
:104AA00095069A065A06A906A4069F06CC87FF1FFC
:104AB0003493FF1F6F12833AE494FF1F301D0100EF
:104AC000501D010000007A44BC1B0100701D010054
:104AD000941D0100B01D0100B41D0100D01D010096
:104AE00024240100741B0100901B0100C01B010065
:104AF000C8230100D41B0100001C0100181C010088
:104B0000CDCCCC3DB4200100381C0100581C010064
:104B100005F09AF905F0D4F90028F9D1BF48C04E44
:104B200005F08EFCBD4805F08BFCBC4805F088FC08
:104B3000BA4805F085FCB94805F082FC1F21B94848
:104B400005F0E8F9B54805F07BFC1E21B64805F0F4
:104B5000E1F9B24805F074FC1A21B44805F0DAF91D
:104B6000F36F022B00F03787032B00F02B87012B0C
:104B700000F03A870921AE4805F0CCF9A74805F0C6
:104B80005FFC1421AB48A64F05F0C4F9B16FA348F0
:104B900005F0A6FCA14805F053FC1C21A64805F031
:104BA000B9F9D6F880109D4805F09AFC9B4805F0AD
:104BB00047FC1C21A14805F0ADF9D6F8A81097488C
:104BC00005F08EFC954805F03BFCF56F25F00205DD
:104BD000012D00F0B1861321994805F09BF98F480B
:104BE00005F02EFC02232360FFF759BB05F02CF9DA
:104BF00005F066F90028F9D1884805F021FC8748BE
:104C000005F01EFC854805F01BFC844805F018FCE7
:104C1000824805F015FC13218A4805F07BF97F488E
:104C200005F00EFC0D21884805F074F97B4805F06D
:104C300007FC0F21854805F06DF9854B7748196809
:104C400005F04EFC754805F0FBFB1321814805F08B
:104C500061F9814B7148196805F042FC6F4805F015
:104C6000EFFB12217D4805F055F97D4B6B48196823
:104C700005F036FC694805F0E3FB1121794805F0A1
:104C800049F9794B6548196805F02AFC634805F035
:104C9000D7FB0E21754805F03DF9614B5F48D3F80D
:104CA0009C1005F01DFC5D4805F0CAFB19217048F9
:104CB00005F030F96F4B5948196805F011FC574859
:104CC00005F0BEFB11216C4805F024F96B4B5348ED
:104CD000196805F005FC514805F0B2FB1021684841
:104CE00005F018F9674B4D48196805F0F9FB4B487A
:104CF00005F0A6FB1C21644805F00CF9634B4748FE
:104D0000196805F0EDFB454805F09AFB13214C4866
:104D100005F000F9414805F093FB04232360FFF7F9
:104D2000BEBA23682868FFF793B93D4E96F8400055
:104D3000FFF733BA05F0C4F800287FF76BAB3748AC
:104D4000374E05F00FFD07F0D9FE514907F0DEFFA1
:104D500065230122706122602B601846FFF79AB923
:104D600005F0AEF800287FF755AB2C482C4E05F027
:104D7000F9FC07F0C3FE464907F0C8FF652301228E
:104D8000F06122602B601846FFF784B905F098F8AF
:104D900000287FF73FAB2148214E05F0E3FC00EBF4
:104DA0008000430001226520F36522602860FFF740
:104DB00071B905F085F800287FF72CAB1748184E1D
:104DC00005F0D0FC00EB8000430001226520336633
:104DD00022602860FFF75EB9114AD2F8AC30013387
:104DE000052BC8BF0023C2F8AC3001236520236027
:104DF0002860FFF74FB905F063F800287FF70AAB8A
:104E00000648074E05F0AEFC65230122C6F8B00047
:104E100022602B601846FFF73DB900BFCC87FF1F0B
:104E20003493FF1F741F0100941F0100B41F010081
:104E30002C200100382001005020010070200100CA
:104E4000C01B0100901E0100A41E0100B41E010041
:104E50006C94FF1FC41E0100DC94FF1FD81E0100CC
:104E6000C094FF1FEC1E0100C494FF1F001F01002F
:104E7000101F01009094FF1F2C1F01008C94FF1F36
:104E8000401F01007092FF1F541F01005C87FF1F2D
:104E900000007A447A4B93F8BC20002A00F03F854A
:104EA000002283F8BC20A0E7FEF798FE236828685C
:104EB000FFF7CBB8724AD36F0133032BC8BF00236F
:104EC000D3670123632023602860FFF7E3B86C4EAB
:104ED000B36FB3FA83F35B0901226320B3672260E7
:104EE0002860FFF7D7B8664ED6F88030B3FA83F360
:104EF0005B0901226320C6F8803022602860FFF73A
:104F0000C9B80123236004F0DBFF0028D9DD5D4828
:104F10005B4E05F027FCC6F8A800D2E7012323600A
:104F200004F0CEFF002807DD5648554E05F01AFC68
:104F300007F0E4FDC6F88C00632028602368FFF7C3
:104F400087B80123236004F0BBFF0028F4DD4D483F
:104F50004B4E05F007FC07F0D1FDC6F88800EBE7E3
:104F60000123236004F0ACFF0028E5DD4548444EF2
:104F700005F0F8FBA6F8B600DEE7434A1368B3FA7B
:104F800083F35B0901216420136021602860FFF72F
:104F900081B83E4AF2E73E4A3E4F1368002B0CBFF1
:104FA000012300234FF001001360206040F0F484DF
:104FB000034664222A606420FFF747B8364ADDE7DB
:104FC000012336482360FCF777FB354A23681060DD
:104FD000EFE7344AD2E7344AD0E70123236004F0F4
:104FE0006FFF002800F3A084304B1A68042AC4BF66
:104FF00002221A6064232B602368DCE7204ED6F877
:105000009C30B3FA83F35B0901226420C6F89C301C
:1050100022602860FFF73EB804F052FF00280DDD43
:105020001848174E05F09EFB07F068FD204907F071
:105030006DFE01226223306222602B6004F040FF8B
:1050400000280EDD0F480E4E05F08CFB07F056FDD4
:10505000174907F05BFE01226223C6F8B800226000
:105060002B6004F02DFF002840F3D1830548044E47
:1050700005F078FB01226223B06622602B601BE002
:105080003493FF1FCC87FF1F6C94FF1FDC94FF1F1E
:10509000C094FF1F8892FF1FC494FF1FE494FF1F5A
:1050A0009094FF1F8C94FF1F7092FF1F5C87FF1F5F
:1050B00000007A4404F0C8FE04F002FF0546002810
:1050C000F8D1C24805F0BCF9C04805F0B9F9BF48AD
:1050D00005F0B6F9BD4805F0B3F9BC4805F0B0F9E4
:1050E0001521BB4804F016FFB84805F0A9F91421B2
:1050F000B84804F00FFFB54805F0A2F91B21B648E7
:1051000004F008FFB14805F09BF91321B34804F0FF
:1051100001FFAE4805F094F9AC4805F091F9AB48B1
:1051200005F08EF92021AE4804F0F4FEF068AD4998
:1051300007F038FD07F08CF8009502460B46A348AF
:1051400005F0D6F90221A84804F0E4FE0221A748A0
:1051500004F0E0FE9D4805F073F92121A44804F015
:10516000D9FE30699F4907F01DFD07F071F80095E1
:1051700002460B46954805F0BBF902219A4804F017
:10518000C9FE0221994804F0C5FE904805F058F97F
:105190001F21984804F0BEFEB06A07F059F80227B4
:1051A00002460B460097894805F0A2F90121924872
:1051B00004F0B0FE39468D4804F0ACFE834805F09B
:1051C0003FF920218D4804F0A5FEF06A07F040F871
:1051D000009702460B467D4805F08AF90121864872
:1051E00004F098FE3946814804F094FE774805F0B3
:1051F00027F92321824804F08DFEB06C794907F02D
:10520000D1FC07F025F8009502460B466F4805F0E3
:105210006FF93946744804F07DFE3946734804F04E
:1052200079FE6A4805F00CF91F21764804F072FEF9
:10523000F06C6C4907F0B6FC07F00AF800950246DE
:105240000B46624805F054F93946674804F062FE9F
:105250003946664804F05EFE5C4805F0F1F8192115
:10526000694804F057FEB16D584805F039F93946E0
:10527000664804F04FFE39465C4804F04BFE534844
:1052800005F0DEF81821624804F044FE706E07F065
:1052900035FC604907F086FC06F0DAFF009702460D
:1052A0000B464A4805F024F901215B4804F032FE20
:1052B00039464E4804F02EFE444805F0C1F82B2133
:1052C000564804F027FEB069464907F06BFC06F02B
:1052D000BFFF009502460B463C4805F009F93946E8
:1052E000414804F017FE3946404804F013FE3748A1
:1052F00005F0A6F81F214A4804F00CFE716D3348F2
:1053000005F0EEF83946394804F004FE2F4805F060
:1053100097F82021434804F0FDFD316D2B4805F03E
:10532000DFF83946314804F0F5FD284805F088F8E3
:1053300010213D4804F0EEFDB16E244805F0D0F890
:105340003946294804F0E6FD3946284804F0E2FDD4
:105350001E4805F075F81321344804F0DBFDF16EAA
:105360001A4805F0BDF80121314804F0D3FD394653
:105370001E4804F0CFFD154805F062F810212D48B5
:1053800004F0C8FD316F114805F0AAF839461648F7
:1053900004F0C0FD3946154804F0BCFD0B4805F08B
:1053A0004FF81421244804F0B5FD716F074805F04B
:1053B00097F801211E4804F0ADFD39460B4804F072
:1053C000A9FD024805F03CF8162137E0CC87FF1F05
:1053D000FC200100142101002C210100C01B010050
:1053E0004821010000007A44BC1B0100E0240100B8
:1053F0006C21010090210100EC160100B021010098
:10540000D4210100F82101001822010034220100FA
:1054100038220100CDCCCC3DB42001005422010043
:1054200080220100A0220100C4220100D822010034
:10543000EC220100F022010004230100BA4804F02C
:1054400069FD306AB94907F0ADFB06F001FF009530
:1054500002460B46B64805F04BF83946B54804F00D
:1054600059FD3946B44804F055FDB14804F0E8FF51
:105470002421B24804F04EFDD6F8B800AB4907F03D
:1054800091FB06F0E5FE00950B460246A84805F0A4
:105490002FF83946A74804F03DFD3946A64804F0E8
:1054A00039FDA34804F0CCFFA14804F0C9FF032351
:1054B0002360FEF7F4BE04F003FD002840F3A7814B
:1054C0009B489F4E05F04EF907F018FB974907F0EF
:1054D0001DFC01226223306122602B60ECE504F0A8
:1054E000EFFC002840F393819148954E05F03AF97E
:1054F00007F004FB01226223B06222602B60DBE52F
:1055000004F0DEFC002840F3828189488C4E05F0CF
:1055100029F907F0F3FA01226223F06222602B607E
:10552000CAE504F0CDFC002840F371818048844E28
:1055300005F018F907F0E2FA7C4907F0E7FB0122D1
:105540006223B06422602B60B6E504F0B9FC002849
:1055500040F35D8176487A4E05F004F9012262231A
:10556000306522602B60A7E50022732322602B6048
:10557000FEF734BE734B7048714E002202211A6050
:1055800004F0C8FC6A4804F05BFF0B216E4804F08D
:10559000C1FC0221684804F0BDFC654804F050FFDE
:1055A0000122622322602B6086E504F089FC00283A
:1055B00040F32D815E48624E05F0D4F8012262234B
:1055C000706722602B6077E5FCF78EFF02215A4856
:1055D0005B4E04F09FFC564804F032FF022156480F
:1055E00004F098FC524804F02BFF0221524804F0CA
:1055F00091FC4F4804F024FF1721544804F08AFC22
:105600004B4804F01DFFC4E704F05AFC002840F3A7
:10561000FE8047484A4E05F0A5F807F06FFA434967
:1056200007F074FB01226223F06022602B6043E5E7
:1056300004F046FC002840F3EA803D48404E05F067
:1056400091F807F05BFA394907F060FB0122622309
:10565000F06422602B602FE504F032FC002840F358
:10566000D6803348364E05F07DF801226223B065BE
:1056700022602B6020E504F023FC002840F3C78063
:105680002B482F4E05F06EF800EB800043000121FF
:105690006222736621602A600EE504F011FC002886
:1056A00040F3B5802248264E05F05CF807F026FA54
:1056B0001E4907F02BFB01226223B06122602B60A0
:1056C000FAE404F0FDFB002840F3A18018481C4ECA
:1056D00005F048F801226223F06622602B60EBE4BB
:1056E00004F0EEFB002840F392801148144E05F0C0
:1056F00039F801226223306722602B60DCE403F07A
:10570000D3FEC02200210E4802F034FD2868104A62
:10571000A0F1730001210023B0FA80F0400911606C
:105720002360FEF759BD00BF1C23010000007A442E
:10573000CC87FF1FBC1B0100E024010034230100C3
:105740003493FF1F6492FF1F681B0100501B010070
:105750003C87FF1F0C21BB4804F0DCFBBA48BB4D63
:1057600004F06EFED6F8AC30002B12DD1821B848DC
:1057700004F0D0FBD5F8B010B34804F0B1FE02211C
:10578000B44804F0C7FBB04804F05AFEAE4804F039
:1057900057FE1B21B04804F0BDFB96F8BC30012B2E
:1057A00015BF12211421AD48AD4804F0B3FBA64843
:1057B00004F046FE1321AB4804F0ACFBA24804F011
:1057C0003FFE06232360FEF76ABD0D21A64804F0C4
:1057D000A1FBC3E70C21A54804F09CFBBEE70B210D
:1057E000A34804F097FBB9E70D21A24804F092FB0F
:1057F000B4E70D21A04804F08DFBAFE72368002B30
:1058000008BF73280CBF01200020FEF7E5BC236809
:105810002868012B7EF4DAACFEF73CBC04F050FBA8
:1058200000287EF767AD8848884E04F09BFF61230F
:105830000122A6F8B40022602B601846FEF72ABCAD
:1058400004F03EFB00287EF755AD7F487F4E04F004
:1058500089FF07F053F961230122B06322602B60B6
:105860001846FEF717BC04F02BFB00287EF742AD6C
:105870007548764E04F076FF07F040F97F4907F04F
:1058800091F961230122706222602B601846FEF7B5
:1058900001BC04F015FB00287EF7D4AD6A486B4EBE
:1058A00004F060FF01226B23C6F8900022602B6099
:1058B000FEF718BF04F004FB00287EF7C3AD624872
:1058C000624E04F04FFF01226B23C6F89400226061
:1058D0002B60FEF707BF04F0F3FA00287EF7B2ADA5
:1058E00059485A4E04F03EFF654BC6F8A00002220C
:1058F0001A60FDF73DF901226B2322602B60FEF751
:10590000F1BE04F0DDFA00287EF79CAD4E484F4E04
:1059100004F028FF5A4BC6F8A4000322E8E701224E
:1059200083F8BC20FFF761BA474804F01BFF554BD2
:1059300002461860FFF75ABB1C21534804F0EAFAEC
:10594000D7F88C00514907F02DF906F081FC00953D
:1059500002460B463C4804F0CBFD05214C4804F0C0
:10596000D9FA394804F06CFDFD6F012D45D0032DA7
:105970007FF431A91C21474804F0CCFAB6F8B610E0
:10598000314804F0ADFD0321434804F0C3FA2E482A
:1059900004F056FDFFF71FB9404B002631460B209F
:1059A0001E6002F0B3FE31460C2002F0AFFE31461D
:1059B000142002F0ABFE3146152002F0A7FE3B6832
:1059C000FFF7F7BA2021364804F0A4FA1E4804F085
:1059D00037FDFFF7D6B81721324804F09BFA1A4872
:1059E00004F02EFDFFF7CDB81E212F4804F092FAE7
:1059F000154804F025FDFFF7C4B81D212B4804F01D
:105A000089FAD7F88800214907F0CCF806F020FC85
:105A100000950B4602460C4804F06AFD05211C481F
:105A200004F078FA084804F00BFDFB6F23F0020342
:105A3000012B9FD0FFF7CFB8044EFFF73DBB034EBD
:105A4000FEF750BE8C1C0100CC87FF1F3493FF1F54
:105A5000C81C0100E41C0100E81C0100041D010039
:105A6000181D0100C01B01006C1C01007C1C010002
:105A7000BC1C0100AC1C01009C1C01006F12833A8D
:105A80008C94FF1F5C87FF1F90200100CDCCCC3D84
:105A9000B0200100D8200100F8200100D894FF1F99
:105AA000F01F010014200100D01F0100B8200100E8
:105AB00038B5164C164A2368101D12F8011F904283
:105AC00041EA0323F9D12360124C03F10043236020
:105AD000114BDB6F022B11D0104B1B68012B00D038
