:1000000000800020BD010000497000000170000068
:10001000017000000170000001700000017000001C
:1000200001700000017000000170000049700000C4
:10003000497000000170000055890000598A0000D5
:1000400049700000497000004970000049700000CC
:1000500049700000497000004970000049700000BC
:1000600049700000497000004970000049700000AC
:10007000497000004970000049700000497000009C
:10008000497000004970000049700000497000008C
:10009000497000004970000049700000497000007C
:1000A000497000004970000049700000497000006C
:1000B000497000001D640000296400002D640000E8
:1000C000396400003D640000416400004970000094
:1000D000497000004970000049700000497000003C
:1000E000497000004970000049700000497000002C
:1000F000497000001D90000049700000BD760000AE
:1001000049700000D5790000497000004970000076
:1001100049700000497000004970000049700000FB
:1001200049700000497000004970000049700000EB
:1001300049700000497000004970000049700000DB
:1001400049700000497000004970000049700000CB
:1001500049700000497000004970000049700000BB
:1001600049700000217C00004970000049700000C7
:10017000497000004970000049700000497000009B
:10018000497000004970000049700000497000008B
:10019000497000004970000049700000497000007B
:1001A000497000004970000049700000497000006B
:1001B000497000004970000049700000564B4CF235
:1001C000205210B51A804DF628121A8000BF00BFC9
:1001D00006F03EFF514B4FF010621A60504A9A6091
:1001E000504ADA60504A136813F4807304D14F49BF
:1001F0000B604FF4A85313604D4B1A78110703D5C9
:100200001A7842F008021A704A4B4B492A221A7097
:100210004A4A4B4B8B4204D252F8040F43F8040B6A
:10022000F8E7484B484900228B4202D243F8042B9E
:10023000FAE74649464A002352F8230041F82300D2
:1002400001336F2BF8D1434B434A802103F8011B44
:100250009342FBD1414B3D4A1A60414B8A221A70AE
:10026000A3F5805324225A70A0221A709A7992071B
:10027000FCD59A79D406FCD43A4A937903F00C035E
:10028000082B384BF9D103221A7140225A719A79FE
:100290009006FCD5334A9179324B4906FBD5324A58
:1002A000324911600221516020221A709A7902F0BD
:1002B0000C020C2AFAD12E4B2E4A1A602E4B2F4AD2
:1002C0001A6000225A60072243F8042C2C4AC3F813
:1002D0000C2D62B607F072F9144B1B68DA0705D5CE
:1002E000284806F04FFF284B284A1A60284B1B78F5
:1002F0005B0609D5244C254B22689A4204D121483B
:1003000006F040FF002323600BF08CF906F0A6FEF8
:1003100008F044FDFEE700BF0E2005403080044099
:10032000823F04000100002B10D0034014D0034092
:1003300002D0074000E007401892FF1F240F010081
:100340002087FF1F1892FF1FD8C2FF1F0082FF1FC8
:100350000000000000E400E05FE400E008ED00E0E1
:100360000050064000400640448004400000030165
:1003700004800440C010050014E000E0FF76010096
:10038000000020200116F05B1CE00340A5C3945A36
:1003900000F00740FFFFFFFFFFFFFFFFFFFFFFFF32
:1003A000FFFFFFFFFFFFFFFFFFFFFFFFFFFFFFFF5D
:1003B000FFFFFFFFFFFFFFFFFFFFFFFFFFFFFFFF4D
:1003C000FFFFFFFFFFFFFFFFFFFFFFFFFFFFFFFF3D
:1003D000FFFFFFFFFFFFFFFFFFFFFFFFFFFFFFFF2D
:1003E000FFFFFFFFFFFFFFFFFFFFFFFFFFFFFFFF1D
:1003F000FFFFFFFFFFFFFFFFFFFFFFFFFFFFFFFF0D
:10040000FFFFFFFFFFFFFFFFFFFFFFFFDEF9FFFF23
:1004100010B5054C237833B9044B13B10448AFF33E
:1004200000800123237010BD1892FF1F0000000000
:10043000200F0100084B10B51BB108490848AFF365
:1004400000800848036803B910BD074B002BFBD0A0
:10045000BDE81040184700BF000000001C92FF1FBD
:10046000200F01001892FF1F00000000F0B400F1FF
:100470001C06104F00243146031F00F13C0243F8D4
:10048000044FB34241F8047F4FF0000542F8044F97
:10049000F5D1094A09490566002345668566C566A2
:1004A000C56702678267416780F8843080F89C30B6
:1004B000F0BC70470000A040000048430000C8C2E4
:1004C0002DE9F04190F89C4084B0202364008DF821
:1004D0000530E4B2042380468DF804408DF80630E0
:1004E0000327204607F012FA02210DF1050007F05C
:1004F00017FA8DF8044001F03FFB30B30921404862
:1005000008F0C2F80023102221463E4808F0BEFA47
:1005100001213D4808F0B8F8002310229DF805108D
:10052000384808F0B3FA0121374808F0ADF8002345
:1005300010229DF80610334808F0A8FA012132482D
:1005400008F0A2F82F4808F091FA02208DF8044034
:1005500006F0E6FF01F010FB00284CD102AE0024AB
:1005600007F0F4F970B3072C1FD101E007F0FEF992
:1005700007F0ECF90028F9D101F0FEFA10B121489A
:1005800008F074FA9DF80B009DF80C109DF80D20F2
:100590009DF80E30C8F88800C8F88C10C8F8902074
:1005A000C8F8943004B0BDE8F08107F0DFF90546E3
:1005B00006F8010B01F0E0FA70B9013407F0C6F952
:1005C0000028D0D1072CD3D001F0D6FA78B9013F5A
:1005D000D8D09DF8044084E7E9B2002310220948EE
:1005E00008F054FA0121084808F04EF8E5E70548FC
:1005F00008F03CFAEBE70721044808F045F8ADE7BE
:10060000D8F70000BC87FF1FD8FE0000E4F7000009
:1006100090F88C00704700BF90F88800704700BFCA
:1006200090F89000704700BF90F89400704700BFAA
:10063000082994BF50F82100002070472DE9F041AF
:100640000B4E8046041F00F11C0754F8045F31462E
:1006500028460AF05DFF30B1D8F8801028460AF02D
:1006600075FF00B12E46BC42EFD13046BDE8F081A7
:10067000000020412DE9F041D0F880704FF00008D3
:10068000041F00F11C0654F8045F394628460AF09E
:100690005DFF084948B128460AF03AFF414620B1BB
:1006A00028460AF053FF00B1A846B442EBD14046B9
:1006B000BDE8F081000070422DE9F047D0F880706D
:1006C00082464FF00009041F00F11C064FF000089D
:1006D00054F8045F394628460AF038FF0C4950B1F7
:1006E00028460AF015FF30B1484629460AF06AFC50
:1006F00008F101088146B442EAD1CAF8A080404618
:100700000AF014FD014648460AF018FEBDE8F087DD
:1007100000007042D0F8A000704700BF38B5846E6A
:10072000456E214628460AF0F3FE00B92C462046C5
:1007300038BD00BFD0F898302DE9F041002B79D1B9
:10074000866E456E0446314628460AF03BFCE76E4D
:10075000394680460AF036FC7E490AF0EFFD4FF03C
:100760007C5104460AF0F2FE002861D04FF07C5123
:1007700028460AF0EBFE4FF07C51002860D1284655
:100780000AF0C6FE38B14FF07C5130460AF0DEFE6A
:10079000002840F0A7804FF07C5128460AF0D6FE92
:1007A000002860D14FF07C5128460AF0CFFE002887
:1007B00040F0A1804FF07C5128460AF0C7FE002887
:1007C0006CD14FF07C5128460AF0A2FE4FF07C51CC
:1007D00010B330460AF0BAFE38B14FF07C513846BB
:1007E0000AF096FE002840F0B0804FF07C51304671
:1007F0000AF08EFE002861D04FF07C5138460AF096
:10080000A5FE002840F0A38038464FF07C510AF046
:100810007FFE68B1504C10E028460AF079FE0028AF
:10082000E3D128464FF07C510AF072FE002845D1F2
:10083000BDE8F08100EB8300046E2046BDE8F08146
:1008400030460AF083FE4FF07C5100283ED03846F7
:100850000AF07CFE0028F0D14FF07C5128460AF0C7
:1008600057FE002859D14FF07C5130460AF050FE17
:10087000002840D04FF07C5138460AF067FE00282F
:1008800041D14FF07C5130460AF060FE68B14FF024
:100890007C5138460AF03CFE00284FD14FF07C5185
:1008A00030460AF035FE00288BD04FF07C51384698
:1008B0000AF02EFE002884D02C46BEE730464FF0CA
:1008C0007C510AF025FE0028B2D09DE728460AF0A8
:1008D0001FFE0028C7D04FF07C5130460AF036FE8C
:1008E0000028C0D04FF07C5138460AF02FFE002877
:1008F0003FF451AF18E04FF07C5130460AF026FE2D
:100900000028CBD0C3E7394628460AF05BFB4FF0FE
:100910007C510AF05FFC04468FE74FF07C5138466B
:100920000AF014FE00289ED0394630460AF04AFBF1
:100930004FF07C510AF04EFC04467EE740464FF0F3
:100940007C510AF047FC044677E7344675E73C469D
:1009500073E700BF000040400000A0C270B504462D
:10096000FFF7E8FE4FF07C510AF0F0FD28B3666E09
:100970004FF07C5130460AF0E9FDA56EF0B9E46E07
:100980004FF07C5128460AF0E1FD58B12946304627
:100990000AF0DCFD30B1214628460AF0B9FD08B165
:1009A0002C4620E04FF07C5120460AF0CFFD20B1CC
:1009B000284621460AF0CAFD78B970BD304629465E
:1009C0000AF0A6FDE46E0028DAD0304621460AF08F
:1009D0009FFD0028D4D0344605E0304621460AF079
:1009E000B5FD0028E9D0204670BD00BF02292DE9E1
:1009F000F8438046154600F0A880032972D00129EB
:100A00003FD0866E476E04684046FFF7A7FFD8F8D0
:100A1000701005460AF07CFD08B1C8F870503946E0
:100A200030460AF093FD002854D13946D8F87400B6
:100A30000AF06EFD10B13E46C8F8746008F1200659
:100A4000C14608F14005002701E059F8044F30681D
:100A500021460AF07BFD0137214628B1D8F88000F5
:100A60000AF060FD00B13460214628680AF050FDAC
:100A7000043600B12C60082F05F10405E5D1BDE86E
:100A8000F883137AC0F8A430D37A907A03EB00206D
:100A90000AF04CFB46490AF09DFBC8F864006B7BEA
:100AA0000746287B03EB00200AF040FB40490AF090
:100AB00091FBC8F86800EB7B0646A87B03EB00209F
:100AC0000AF034FB3A490AF085FBD8F80040C8F830
:100AD0006C0099E7D8F8741030460AF037FD00280A
:100AE000AAD1ABE7537A107A03EB00200AF01EFB81
:100AF0002F490AF06FFBC8F81000EB7AA87A03EBD5
:100B000000200AF013FB2A490AF064FBC8F814001D
:100B10006B7B287B03EB00200AF008FB24490AF0DA
:100B200059FBC8F81800EB7BA87B03EB00200AF008
:100B3000FDFA1F490AF04EFBD8F86860C8F81C009F
:100B4000D8F86470D8F800405EE7537A107A03EB67
:100B500000200AF0EBFA16490AF03CFBC8F8000046
:100B6000EB7A0446A87A03EB00200AF0DFFA10497A
:100B70000AF030FBC8F804006B7B287B03EB0020F5
:100B80000AF0D4FA0A490AF025FBC8F80800EB7B02
:100B9000A87B03EB00200AF0C9FA05490AF01AFB0A
:100BA000D8F86860D8F86470C8F80C002CE700BF6B
:100BB0006F12833A2DE9F04F90F89C3091B00746C0
:100BC0005B008DF80830FFF77BFCD7F89000D7F872
:100BD0009440D7F88C30D7F8882097F89C108DE88F
:100BE0001100C94801F0C2F830223D2303268DF8D8
:100BF00009208DF80A300DF10A059DF8089049F09A
:100C00000108404606F082FE0DF10900022106F0BF
:100C100087FE8DF80880424602AB00205040082431
:100C200010F0800F4FEA400018BF80F00700013C31
:100C3000C0B2F5D19D4202D013F8012FEEE706F0C5
:100C400065FE00F099FF002840F07C8202208DF8BC
:100C5000089006F065FC00F08FFF002840F0B88295
:100C60000DF10C0AD146002406F070FE002843D096
:100C7000032C34D101E006F079FE06F067FE00286F
:100C8000F9D100F079FF10B1A04807F0EFFE312351
:100C900003268DF809308DF80A609DF8089049F018
:100CA0000108404606F032FE0DF10900022106F06F
:100CB00037FE8DF80880424602AB002050400824E1
:100CC00010F0800F4FEA400018BF80F00700013C91
:100CD000C0B2F5D19D4228D013F8012FEEE706F0FF
:100CE00045FE09F8010B804600F046FF68B9013463
:100CF00006F02CFE0028BBD1032CBED000F03CFF38
:100D000078B9013E7FF479AFC1E75FFA88F100233B
:100D100010227E4807F0BAFE01217D4807F0B4FC9E
:100D2000E5E77A4807F0A2FEEBE706F0EFFD00F0FA
:100D300023FF002840F0C58102208DF8089006F0BE
:100D4000EFFB00F019FF002840F03D820DF10C0987
:100D5000002406F0FBFD002844D0032C35D101E02F
:100D600006F004FE06F0F2FD0028F9D100F004FFC1
:100D700010B1664807F07AFE342201238DF809206D
:100D80008DF80A3003269DF8089049F00108404686
:100D900006F0BCFD0DF10900022106F0C1FD8DF841
:100DA0000880424602AB00205040082410F0800F1B
:100DB0004FEA400018BF80F00700013CC0B2F5D1F7
:100DC0009D4228D013F8012FEEE706F0CFFD09F879
:100DD000010B804600F0D0FE68B9013406F0B6FD84
:100DE0000028BAD1032CBDD000F0C6FE78B9013E70
:100DF0007FF453AFC0E75FFA88F100231022434825
:100E000007F044FE0121424807F03EFCE5E73F4879
:100E100007F02CFEEBE706F079FD00F0ADFE0028B0
:100E200040F00E8102208DF8089006F079FB00F06A
:100E3000A3FE002840F0D6810DF10C09002406F035
:100E400085FD002800F08480032C72D101E006F0BB
:100E50008DFD06F07BFD0028F9D100F08DFE10B16C
:100E60002A4807F003FE012212238DF809208DF88D
:100E70000A304FF003089DF80840204606F046FD72
:100E800002210DF1090006F04BFD8DF8084000F03D
:100E900073FE30B309211F4807F0F6FB0023102230
:100EA00021461A4807F0F2FD0121194807F0ECFB32
:100EB000002310229DF80910144807F0E7FD0121D6
:100EC000134807F0E1FB002310229DF80A100F4899
:100ED00007F0DCFD01210E4807F0D6FB0B4807F0B8
:100EE000C5FD06208DF8084006F01AFB00F044FE10
:100EF000002840F0728103AD002606F027FD00288F
:100F00003FD0162E2FD109E0ECF70000BC87FF1F61
:100F1000D8FE0000D8F7000006F028FD06F016FD08
:100F20000028F9D100F028FE162600287DD11520D2
:100F300035E006F01BFD09F8010B804600F01CFEB1
:100F400000285BD1013406F001FD00287FF47CAF5E
:100F5000032C3FF47EAF00F00FFE00286CD1013E61
:100F60007FF411AF7FE706F001FD05F8010B0446A1
:100F700000F002FE00284DD1013606F0E7FC002803
:100F8000BFD1162ECAD000F0F7FD00284DD1B8F120
:100F900001087FF470AF701E002840F31E8200230A
:100FA00003AA1C4612F8011B08254C4014F0800FC0
:100FB0004FEA440418BF84F00704013DE4B2F5D1C0
:100FC00001338342EEDB9DF8218089484146224669
:100FD00000F0CCFE162EC146A34602D1A04500F07B
:100FE000138197F89C108348CDF800B04B463246E9
:100FF00000F0EAFE002011B0BDE8F08F5FFA88F142
:10100000002310227C4807F041FD01217B4807F0B6
:101010003BFB97E7E1B200231022774807F036FD4B
:101020000121764807F030FBA6E7734807F01EFD64
:10103000162EACD11520B2E76F4807F017FD8EE7EA
:1010400009216F4807F020FB2346102241466A48D9
:1010500007F01CFD0121694807F016FB234610220A
:101060009DF80910644807F011FD0121634807F05D
:101070000BFB102223469DF80A105F4807F006FD7F
:1010800001215E4807F000FB21460DF10B0002AA8A
:1010900012F8014B6140C9B2082311F0800F4FEAEA
:1010A000410118BF81F00701013BC9B2F5D190425F
:1010B000EED11022504807F0E9FC4F4807F0D6FC6B
:1010C000B0E609214E4807F0DFFA234610224146D8
:1010D000494807F0DBFC0121484807F0D5FA2346D0
:1010E00010229DF80910444807F0D0FC0121434824
:1010F00007F0CAFA102223469DF80A103E4807F06E
:10110000C5FC01213D4807F0BFFA21460DF10B0057
:1011100002AA12F8014B6140C9B2082311F0800FF6
:101120004FEA410118BF81F00701013BC9B2F5D177
:101130009042EED11022304807F0A8FC2E4807F06C
:1011400095FCF9E509212E4807F09EFA2346102266
:101150004146294807F09AFC0121284807F094FAF3
:10116000234610229DF80910234807F08FFC012127
:10117000224807F089FA102223469DF80A101E48DB
:1011800007F084FC01211D4807F07EFA21460DF18D
:101190000B0002AA12F8014B6140C9B2082311F0FA
:1011A000800F4FEA410118BF81F00701013BC9B22E
:1011B000F5D19042EED110220F4807F067FC0E489F
:1011C00007F054FC42E507210E4807F05DFABDE543
:1011D00007210C4807F058FA42E50721094807F0B3
:1011E00053FA88E60721074807F04EFA24E600BFC5
:1011F00020F800006CF80000BC87FF1FD8FE00003C
:10120000D8F70000E4F700009DF80C3097F89C2018
:10121000B3EB420F7FF4EEAE9DF80D30012B7FF45F
:10122000E9AE9DF80E30122B7FF4E4AE9DF810303D
:101230009DF80F0003EB002009F078FF6F4909F0DB
:10124000C9FFF96F386604460AF080F900B1FC67FF
:10125000B96F20460AF05CF900B1BC67A7F1040938
:1012600007F1200607F140054FF008089AF806300C
:101270009AF8050003EB002009F058FF604909F0D7
:10128000A9FF49F8040F316804460AF041F90AF150
:10129000020A30B1D7F8801020460AF04DF900B1AB
:1012A0003460296820460AF051F9043600B12C60F8
:1012B000B8F1010805F10405D8D19DF81E309DF85C
:1012C0001D0003EB0020023009F030FF4D490AF009
:1012D00035F801464C480AF031F84C4909F070FEE7
:1012E0004B4909F077FF054607F0E2FF0446284620
:1012F00007F0DEFF474908F04DF84749054620460C
:1013000009F068FF454909F05DFE45490446284655
:1013100009F060FF0146204609F054FE01464FF0F7
:101320007E500AF00BF83F4909F04AFE9DF81F2055
:101330009DF82030786603EB0220093009F0F6FEB4
:10134000394909F0FBFF01462F4809F0F7FF2F4903
:1013500009F036FE2E4909F03DFF054607F0A8FFCB
:101360000446284607F0A4FF2A4908F013F82A4942
:101370000546204609F02EFF284909F023FE28499A
:101380000446284609F026FF0146204609F01AFEC9
:1013900001464FF07E5009F0D1FF224909F010FEBE
:1013A000B86604463846FFF7D9FA396F05460AF0A1
:1013B000AFF800B13D677D6E204629460AF0C6F8B9
:1013C000A0B92946786F0AF0A3F808B12C467C67CB
:1013D000164800F0CBFC01200DE69DF82190144842
:1013E00049464246C34600F0C1FCFAE5796F204603
:1013F0000AF0ACF80028EAD1EAE700BF1357053B32
:101400002003C839001601470AD7E33FE17A644058
:1014100000007A4400004040A40D8F395A80473ABA
:1014200046A6DB3333938843002C014744F8000081
:1014300020F800002DE9F8430026D0F880800666E9
:101440008146044600F1200754F8045B41462846D3
:101450000AF07CF8084950B128460AF059F830B132
:101460003046294609F0AEFD0646C9F86000BC4288
:10147000EAD13046BDE8F8830000704202299ABFE5
:1014800000EB8100406E0020704700BF3E2998BFEE
:1014900080F89C10704700BF90F88400704700BF30
:1014A000C0F89810704700BF80F88410704700BFE4
:1014B00030B50F4CC0F8801083B020460D4607F0C1
:1014C000D5FA204607F0D2FA284609F0D9F90225C4
:1014D00002460B460095204607F022FB204607F007
:1014E000C5FA204603B0BDE8304007F0BFBA00BFE0
:1014F000BC87FF1F70B500F525550646383500F14D
:1015000020042046A834FEF7B1FFAC42F9D106F121
:10151000C805012428460021FFF7C6FF21462846BA
:101520000134FFF7B3FF3F2C05F1A805F2D106F512
:101530002653064A3261002405480649B06100225C
:101540007461F16130461A7070BD00BF00007A44CA
:10155000000048430000C8C242F684132DE9F04160
:10156000002200F5255600F526578046C250383631
:10157000043700F1C80402E0A834B4420DD020467C
:10158000FFF78AFF0028F7D020463D68FFF7C2F832
:10159000A8342844B4423860F1D142F6841358F894
:1015A0000300BDE8F08100BFF8B50E46096801F4FC
:1015B0007F6500290446A5F5C06511DB2D0901F002
:1015C0000F07A82303FB0544203420460121FFF721
:1015D0006BFF324639462046BDE8F840FFF706BAB1
:1015E0000A4801F00F0707F041FA1221084807F0F6
:1015F0004BF83168054801F0004100230A2207F04A
:1016000045FA02482D0907F031FADAE7BC87FF1FD7
:10161000BCF80000704700BF704700BF704700BFB4
:101620002DE9F0430446002383B0064644F8C83B46
:10163000012504E001353F2D04F1A80469D02046BE
:10164000FFF72AFF0028F5D04D4800F08FFB294610
:101650004C4800F08BFB2046FFF7ACFA2046FFF722
:10166000E9FE09F00DF902460B46474800F07EFB03
:101670002046FEF7E3FF80462046FEF7FBFF0746C5
:10168000404609F0FDF880463846894609F0F8F8EA
:1016900042464B46CDE900013C4800F067FB002183
:1016A0002046FFF7EBFE012180462046FFF7E6FECD
:1016B0000746404609F0E4F880463846894609F076
:1016C000DFF842464B46CDE90001314800F04EFBC1
:1016D0002046FFF7AFFE0146306809F073FC30602A
:1016E0002046FFF73BF9B16909F012FF002831D11C
:1016F0002046FFF713F8F16909F028FF002899D078
:101700002046FFF70BF801353F2DF06104F1A804E6
:1017100095D1706809F00AFD0146306809F00EFEA7
:1017200071693060044609F011FF00B174613169DC
:10173000204609F0EDFE00B134610B2005F0BAFE41
:1017400006F52656337850B97BB10123337003B0C8
:10175000BDE8F0832046FFF701F9B061C8E743B95F
:101760000023337003B0BDE8F0830A4800F02CFB7F
:10177000EBE7094800F012FB00233370F2E700BFEB
:10178000B8FA0000D0F800000CF9000020F90000C1
:101790004CF9000068F90000A0F9000070B5114B89
:1017A000836000F525550646383500F1C80402E08F
:1017B000A834AC4213D02046FFF76EFE0028F7D0C5
:1017C0002046FEF73BFFB16809F0A2FE0028EFD0EB
:1017D0002046FEF733FFA834AC42B060EBD1B068CE
:1017E00070BD00BF0000A04070B5002300F5255576
:1017F0000646C360383500F1C80402E0A834AC42A4
:1018000013D02046FFF748FE0028F7D02046FEF709
:1018100031FFF16809F09AFE0028EFD02046FEF76C
:1018200029FFA834AC42F060EBD1F06870BD00BF76
:101830000068704741607047F8B500F525550F46C0
:101840001646383500F1C80402E0A834AC420FD087
:101850002046FFF721FE0028F7D020463946FFF743
:101860001FFE20463146A834FFF722FEAC42EFD1DE
:10187000F8BD00BF2DE9F84300F5255542F67C136D
:101880002E4600278146C7504FF0000838353C36B9
:1018900000F1C80402E0A834AC4213D02046FFF7A0
:1018A000FBFD0028F7D03368013333602046FEF794
:1018B00041FF0F4909F04AFE88B9A834AC4207F14C
:1018C0000107EBD142F67C1359F80300C01B09F065
:1018D0002DFC0146404609F031FDBDE8F883204665
:1018E000FEF728FF0146404609F06CFB8046D2E730
:1018F00000008CC2F8B500F525550746002638359E
:1019000000F1C80402E0A834AC420FD02046FFF733
:10191000C3FD0028F7D02046FEF7CEFE0146304634
:1019200009F050FBA834AC420646EFD142F67C13D6
:10193000F85809F0FBFB0146304609F0FFFCF8BD02
:101940002DE9F04F06468DB07B4800F0B7F97A4894
:1019500000F0B4F9784800F0B1F942F67C13304653
:10196000F758FFF7F9FD0B90306808F089FF04463F
:1019700030460D46FFF7BEFF0A90B06808F080FFC2
:101980008246F0688B4608F07BFF804630468946E9
:10199000FFF770FF08F074FF0A9BCDE908011846B5
:1019A000CDE904ABCDE9068908F06AFF0B9ACDE9D1
:1019B0000201CDE900453946604800F07FF95E48F4
:1019C00000F07CF9C8364FF001094FF0000A07E03B
:1019D00009F10109B9F13F0F06F1A80600F0A38053
:1019E0003046FFF759FD0028F2D03046FEF710FED2
:1019F0003046FEF711FE3046FEF712FE3046FEF787
:101A000013FE08214E4806F03FFE49464D4807F0B8
:101A10007DF8B9F1090F40F3898002214A4806F0A8
:101A200033FE3046FFF706FD08F02AFF0224024687
:101A30000B460094434807F073F80121434806F031
:101A400023FE554600241FE00621414806F01CFEF7
:101A500029463C4807F05AF802213E4806F014FE99
:101A600021463046FEF7E4FD08F00AFF00970246E3
:101A70000B46344807F054F801340121334806F08E
:101A800003FE082C0BD04546092D4FF0020705F147
:101A90000108D9DC0121304806F0F6FDD4E72948D9
:101AA00006F0E4FF09212D4806F0EEFD0021304646
:101AB000FFF7E4FC08F0E4FE009702460B462148DD
:101AC00007F02EF80A21264806F0DEFD01213046F7
:101AD000FFF7D4FC08F0D4FE009702460B461948E5
:101AE00007F01EF80A211F4806F0CEFD39463046A1
:101AF000FFF7C4FC08F0C4FE009702460B461148ED
:101B000007F00EF80121184806F0BEFD09F10109A1
:101B10000C4806F0ABFFB9F13F0F0AF1080A06F1D5
:101B2000A8067FF45DAF0DB0BDE8F08F01210A4833
:101B300006F0AAFD71E700BFB8FA000050FC0000F3
:101B4000D0FC0000BC87FF1F10090100DCFC000076
:101B5000E0FC0000C8FE0000D8FE0000E8FC000029
:101B6000F4FC000000FD00000CFD0000014B1870AB
:101B7000704700BF2087FF1F024B1878B0FA80F033
:101B8000400970472087FF1F0278002A00F08580F7
:101B900070B5034682B00D4621E058785C1C68B3EE
:101BA000252831D0732833D064281DD069281BD054
:101BB000662851D0782839D0582833D0622842D0AE
:101BC00042283CD06C280FD063280DD074284FD009
:101BD000542857D006F0DCFD6278631C72B1252AC8
:101BE000DBD018781C46F5E72B1D29682C481D46CC
:101BF00006F08CFF6278631C002AF0D1284802B0FE
:101C0000BDE8704006F032BF104606F0C1FDE3E7C4
:101C10002E6830460AF0F4FA01463046043506F0E4
:101C200033FDD9E702211F4806F02EFD2E1D29683D
:101C30001B4800231022354606F028FFCCE702217E
:101C4000194806F021FD2E1D29681548002302229F
:101C5000354606F01BFFBFE7073525F007050321D2
:101C6000D5E900230E480091083506F059FFB3E787
:101C7000296801290EBF0D480D480121043506F0E1
:101C800003FDA9E72B68012B07BF042109480A4877
:101C90000521043506F0F8FC9EE7014806F0E6BE93
:101CA000BC87FF1F10FD000014FD000018FD0000A0
:101CB0001CFD000020FD000028FD00000FB400B551
:101CC00083B004A951F8040B0191FFF75DFF03B045
:101CD0005DF804EB04B0704770B51B4B1B4C1B68E0
:101CE00082B00D460193019B2360194604460023F0
:101CF000164617480A2206F0C9FE0321154806F0C9
:101D0000C3FC032C07D8DFE804F01A1510020521E4
:101D1000114806F0B9FC0221104806F0B5FC314626
:101D20002846FFF731FF02B070BD07210C4806F0CE
:101D3000ABFCF0E704210B4806F0A6FCEBE705211D
:101D4000094806F0A1FCE6E7E0BFFF1F3492FF1F41
:101D5000BC87FF1F30FD00004CFD0000C8FE0000E6
:101D600044FD00003CFD000034FD00000FB400B550
:101D7000094B187883B020B103B05DF804EB04B0D0
:101D8000704705AB1A4604990193FFF7A5FF03B00E
:101D90005DF804EB04B070472087FF1F0FB4094BB8
:101DA00000B51B78012B83B004D903B05DF804EBB8
:101DB00004B0704705AB1A46049901930120FFF760
:101DC0008BFFF2E72087FF1F0FB40B4B00B51B788A
:101DD000032B83B004D903B05DF804EB04B0704763
:101DE00005AB1A46049901930320FFF775FF03B072
:101DF0005DF804EB04B070472087FF1FF8B52F484B
:101E00002F4C304F304EFFF759FF304B304A31489E
:101E100031495A60012510221D7258612F4D3048FA
:101E20001A70D9602F4A30491C615F6200242F4F1D
:101E30001E629D624FF07C562D4D58630A209A61B8
:101E4000D9622C4A1C630E2140F61C449F635E64D9
:101E500041F204075A26DD64D866274D9A644FF490
:101E60009670022219659C66002164241F675E67D4
:101E7000DD61DD635866D86541F2883732204FF462
:101E80007A76FF255A705A725A6583F8401099671E
:101E90009C65DA67C3F88010C3F89C10C3F8AC20C7
:101EA000C3F8B040C3F89070C3F89860C3F8A4506A
:101EB000C3F89400C3F8A000F8BD00BF54FD0000B3
:101EC00000004040CDCCCC3D333373402093FF1F06
:101ED00020A10700333383406666864000008242BB
:101EE00000002042CDCC4C40000020C10000A040AA
:101EF0000AD7233D9A997940CDCC4C3EF0B54FF4AA
:101F00007A6083B005F00CFB00210E2005F0E0FAAA
:101F100000210F2005F0DCFA0021112005F0D8FA8D
:101F20000021102005F0D4FA0021122005F0D0FA8B
:101F30000021132005F0CCFA01210B2005F0C8FA8E
:101F400001210C2005F0C4FA0121142005F0C0FA8B
:101F50000121152005F0BCFA0121162005F0B8FA80
:101F60000121172005F0B4FA0121052005F0B0FA8F
:101F7000894C8A4D0121062005F0AAFA01210D2085
:101F800005F0A6FA208809F0CDF80146162005F0E4
:101F900009FA208809F0C6F80146172005F002FA70
:101FA000208809F0BFF80146052005F0FBF92088DC
:101FB00009F0B8F800240146062005F0F3F9009472
:101FC0002346774A7749784803F0D0FEE6B2324696
:101FD0007249754803F078FE2B79704972486FF3A7
:101FE0000003013432462B7103F064FE082CEDD15E
:101FF0000924E6B2324669496B4803F065FE2B7945
:102000006649694843F00103013432462B7103F0FD
:1020100051FE0D2CEDD1654C4FF0FF3220681021A0
:1020200004F070FA20684FF0FF32102104F042FAF9
:1020300020684FF0FF32022104F050FA20684FF080
:10204000FF32022104F054FA00220E21206804F02D
:1020500063FA0C21564806F017FB564806F006FDB9
:102060001421554806F010FB524806F0FFFC514879
:1020700006F0FCFC1721514806F006FB4D4806F01F
:10208000F5FC4F4B1B789A0600F1AE804C4B1B7849
:102090001B0700F1B5804A4B1B785F0700F1BC803D
:1020A000474B1B789E0700F1C380464B1B781D06EB
:1020B00000F1CA80434B1B785C0600F1D180414B94
:1020C0001B78980600F1D8803E4B1B78590700F129
:1020D000DF803C4B1B781A0700F1E680394B1B78F8
:1020E0009B0700F1ED80334806F0C0FC72B6364A1B
:1020F0004CF220534DF628112024138023461180E2
:10210000013BFDD1314D3248324900234FF4805616
:102110002E8003800B8032F80E3C9BB243F0D30339
:1021200022F80E3C62B69D2005F0A0FB21462A480D
:102130002A4D06F0A9FA1F4806F098FC05F1B406EE
:102140002F462C46601B04F0C9FE04F8010BB44274
:10215000F8D13B78102B01D0FFF750FE2048FFF755
:102160005DFA0420FFF702FD1E4B1D4800221A6095
:10217000FFF752FA01210D2005F096F9796D184804
:10218000FFF758FB7A6C97F84010154803B0BDE88C
:10219000F040FFF751BB00BF2C87FF1FDC93FF1FF0
:1021A000D4BFFF1F20A1070038BEFF1F6C94FF1F84
:1021B00074FD0000BC87FF1F84FD00009CFD000033
:1021C00001F0074000F007400E20054004200540C4
:1021D0000620054016200540A0FE00002093FF1FAA
:1021E000A494FF1F4492FF1F2121394806F04CFAA6
:1021F000384806F03BFC384B1B781B077FF54BAF8C
:102200000C21364806F040FA324806F02FFC324BDB
:102210001B785F077FF544AF0E21314806F034FA92
:102220002C4806F023FC2C4B1B789E077FF53DAF16
:1022300017212C4806F028FA264806F017FC2A4BEE
:102240001B781D067FF536AF0E21284806F01CFAD4
:10225000204806F00BFC244B1B785C067FF52FAF63
:102260001221234806F010FA1A4806F0FFFB1E4B15
:102270001B7898067FF528AF13211E4806F004FA54
:10228000144806F0F3FB184B1B7859077FF521AF74
:102290001C21194806F0F8F90E4806F0E7FB124B2E
:1022A0001B781A077FF51AAF1921144806F0ECF9CC
:1022B000084806F0DBFB0C4B1B789B077FF513AF40
:1022C00018210F4806F0E0F9024806F0CFFB0AE7B4
:1022D000B4FD0000BC87FF1F01F00740D8FD0000DF
:1022E000E8FD0000F8FD000000F0074010FE0000CF
:1022F00020FE000034FE000048FE000068FE0000E2
:1023000084FE000070B5464C464D4748E668002301
:102310002B70FFF769FA0146304609F0F9F808B169
:1023200004232B704048FFF739FA216909F0F0F8CF
:1023300018B12B7843F010032B703B48FFF79AFA43
:10234000A16A09F003F918B12B7843F040032B7010
:10235000002335486B70FFF78DFAE16A314E09F0C2
:10236000D7F808B10123737000232F48EB70FFF7F3
:102370003BFA05462C482B4EFFF710FA014628463B
:1023800008F01EFEE16B09F0E1F808B10123F370DB
:10239000264D254800232B70FFF726FA616A064672
:1023A000E06808F00DFE0146304609F0CFF808B1AC
:1023B00004232B701C48FFF7F1F9616A0646206977
:1023C00008F000FE0146304609F0A2F818B12B785B
:1023D00043F010032B701448FFF74CFAA16B06462C
:1023E000A06A08F0EDFD0146304609F0AFF818B1DB
:1023F0002B7843F040032B7000230B486B70FFF7E2
:1024000039FAA16B0546E06A084C08F0DBFD01468D
:10241000284609F07DF808B10123637070BD00BF44
:102420002093FF1F1C93FF1FA494FF1F5894FF1FAE
:10243000514B1B68002B74D0F0B5504D2B68053301
:10244000B3F57A7F83B040F38E80002300272B60A2
:102450004B4CD4F8A00008F069FE0646D4F8A4005E
:1024600008F064FE314608F0ABFD394608F0B2FED4
:10247000444908F063FF314608F0A4FD09F086F8EE
:102480000146062004F090FE02213F4806F0FCF8C9
:102490003E4806F0EBFA06213D4806F0F5F82868BC
:1024A00008F044FE3B4908F095FE08F0E9F90226E1
:1024B00002460B460096354806F032FB0D213648A1
:1024C00006F0E2F8D4F8A00008F030FE07462868CD
:1024D00008F02CFE2F4908F07DFE0546D4F8A40034
:1024E00008F024FE394608F06BFD0146284608F046
:1024F00071FE244908F022FF394608F063FD08F018
:10250000BFF9009602460B46204806F009FB31460B
:102510001D4806F0B9F81D4803B0BDE8F04006F0CC
:10252000A5BA174B1D4AD3F8A010D3F8A4301268EF
:102530005B1A632B0BDD1A4803FB02F380FB0302DB
:10254000DB17C3EB62131944062004F02DBE1548B7
:1025500003FB022380FB0302DB17C3EB22121144AF
:10256000062004F021BE18462B6008F0DFFD094963
:1025700008F030FE07466BE74C94FF1F4892FF1FA0
:102580002093FF1F0000C84210090100BC87FF1FF5
:10259000C4FE0000CDCCCC3DCCFE00003C87FF1F2C
:1025A0001F85EB51CBF08D2838B54E484E4C06F0C8
:1025B0005DFA4C4806F05AFA4A4806F057FA0D21DF
:1025C0004A4806F061F8D4F89C30012B0ED0484CF4
:1025D0004448217800230A2206F058FA2378052B74
:1025E00035D8DFE803F04C51565B6047092141487C
:1025F00006F04AF84048FFF7D1F8216908F088FF53
:1026000018B10F213D4806F03FF83B48FFF7ECF8C2
:10261000E16808F09BFF18B10E21394806F034F844
:102620003548314DFFF7BAF8216908F08FFF70B1D6
:102630003148FFF7D9F8E96808F06AFF38B12C4B48
:102640001B78052B48D008212E4806F01DF80221E2
:102650002D4806F019F8122004F02CFF01282DD087
:10266000112004F027FF012831D0284B1B68012BD3
:102670001ED038BD0721264806F006F8E7E70621F8
:10268000244806F001F8E2E70721234805F0FCFFA3
:10269000DDE70721214805F0F7FFD8E708212048AA
:1026A00005F0F2FFD3E70B211E4805F0EDFFCEE762
:1026B00011211D48BDE8384005F0E6BF0E211B483A
:1026C00005F0E2FF112004F0F5FE0128CDD10A212A
:1026D000174805F0D9FFC8E70A21164805F0D4FFCE
:1026E000B5E700BFBC87FF1F2093FF1FDCFE000083
:1026F0005494FF1FECFE0000A494FF1FF8FE00009E
:1027000008FF000024FF0000100901007494FF1F5F
:1027100060FF000030FF000038FF00004CFF0000A9
:1027200054FF000040FF000084FF000068FF00002D
:1027300078FF000018FF00002DE9F04FB24CB34FB6
:10274000E56F012D8DB000F08D80B14EB14DA36FBE
:10275000B148012B09BF2968296801F100412960AE
:1027600004F0AEFA3368002B3ED1AB4804F07EFA99
:10277000E36F3860012B064643D0A84908F0E6FE17
:1027800078B9A749304608F0C3FE50B9A54AA64B10
:1027900012680B920B9A1A6000232B600DB0BDE8F3
:1027A000F08FDFF88082A04CD8F800300A930A98A6
:1027B00023689E4FC01A08F0B5FC314608F00AFDA8
:1027C0009B4908F0BBFD9A4908F0B8FD396808F04C
:1027D000F9FBD8F800300993099B23600023386087
:1027E0002B600DB0BDE8F08F8B4804F03FFA08F085
:1027F00047F8022602460B4600968E4806F090F9EE
:10280000B3E78D4B1B68012B00F09D81022BC3D1D8
:102810008A4908F09BFE30B98949304608F078FEB5
:10282000002800F0BF81DFF8FC817F4CD8F8003031
:102830000793079823687D4FC01A08F073FC314650
:1028400008F0C8FC7A4908F079FD794908F076FD6E
:10285000396808F0B7FBD8F800300693069B38605B
:10286000236099E73E687749DFF8E081304608F059
:102870004FFE68B13046744908F068FE40B16E4EB4
:10288000D8F80000356000220E2103F045FE08E074
:10289000694ED8F80000022300220F21336003F0B4
:1028A0003BFE33685A4E012B336800F0DD80002B6D
:1028B00040F09E800021D8F80000DFF8A891634D19
:1028C00003F07CFE33681FFA80FBC9F800B0002BD0
:1028D00068D10021D8F800004E4DDFF870A103F058
:1028E000F3FDB4F8863040F6E44101FB0BF1B1FB97
:1028F000F0F0C01A00B208F019FC55498346D4F82C
:10290000880008F067FC0146584608F017FDD9F822
:1029100000302860632BDFF84CB15EDC00232B60B5
:102920003368002B3FF413AF02214A4805F0ACFE98
:10293000D9F80020D8F8000040F6E443002103FB5A
:1029400002F803F0C1FDB8FBF0F008F0EBFB8046A5
:10295000B4F8860008F0EAFB0146404608F030FB78
:1029600007F08EFF4FF0020802460B46CDF80080BC
:10297000304806F0D5F84146364805F085FE28680F
:1029800007F07EFFCDF8008002460B46294806F08E
:10299000C7F84146304805F077FE41462D4805F01E
:1029A00073FED4E60021286803F08EFD40F6E44172
:1029B00000230A2201FB0BF1B1FBF0F11D4806F0E8
:1029C00065F80221234805F05FFEB4F88610194827
:1029D00006F09CF8D9F800B07BE7DAF80000002197
:1029E00003F072FDDBF800306438984296D397E725
:1029F000104806F03BF80C21184805F045FE0C2164
:102A0000174805F041FE55E72093FF1F5C92FF1F1A
:102A10009894FF1F5092FF1FF892FF1F0000FA4387
:102A20000000FAC3E0BFFF1F6894FF1F6492FF1FFE
:102A300000007A44BC87FF1F2887FF1F00C82F486B
:102A400000A08CC600709446007094C66C94FF1F62
:102A500017B7D13810090100C8FF0000B8FF000007
:102A6000A4FF00001893FF1F002B40F0A28000215C
:102A7000D8F80000DFF8DC91674D03F09FFD336864
:102A80001FFA80FBC9F800B0002B40F0AA8000219B
:102A9000D8F80000614DDFF880A103F015FDB4F80F
:102AA000843040F6E44101FB0BF1B1FBF0F0C01AB9
:102AB00000B208F03BFB5A498346D4F88C0008F07A
:102AC00089FB0146584608F039FCD9F800302860E7
:102AD000632BDFF880B178DC00232B603368002B98
:102AE0003FF435AE02214F4805F0CEFDD9F8002065
:102AF000D8F8000040F6E443002103FB02F803F09D
:102B0000E3FCB4F88410B8FBF0F000B2411A464878
:102B100005F0FCFF0221434805F0B6FD286807F0E8
:102B2000AFFE4FF0020802460B46CDF800803E484B
:102B300005F0F6FF03213D4805F0A6FD4146394862
:102B400005F0A2FD03E63A4908F000FD58B93949FD
:102B5000304608F0DDFC30B9374A384B1268059230
:102B6000059A1A6018E6DFF8D080344CD8F80030A7
:102B7000049304982368324FC01A08F0D3FA314600
:102B800008F028FB2F4908F0D9FB2E4908F0D6FBA6
:102B9000396808F017FAD8F800300393039B3860BF
:102BA0002360F9E5244A254B12680892089A1A60B6
:102BB000F2E51D4805F05AFF0B21234805F064FD9E
:102BC0000C21224805F060FD51E7DAF800000021F1
:102BD00003F07AFCDBF8003064389842FFF47CAFF5
:102BE0007CE70021286803F06FFC40F6E4410023F5
:102BF0000A2201FB0BF1B1FBF0F10B4805F046FF97
:102C00000121134805F040FDB4F88410064805F092
:102C10007DFFD9F800B03AE76C94FF1F5092FF1F78
:102C200017B7D13810090100BC87FF1FB4FF00009F
:102C30000000FA430000FAC3E0BFFF1F6894FF1FC3
:102C40006492FF1F00007A4498FF0000A4FF000078
:102C5000D8FE00001893FF1F2DE9F0478C4C236825
:102C600084B0002B76D08B4DDFF830828A4FD5F8B8
:102C70008030884E012B00F08780D7F80090D6F87E
:102C800058A0746D854E04FB0AF44FF47A7000FB73
:102C900004F008F04BFA82490446484608F09AFAD4
:102CA000214608F04BFB7F4908F094FA08F06EFCCF
:102CB0006328C8F8000048DD2046794908F03EFB4B
:102CC000642338603360784B1B68002B3AD0EB6F7D
:102CD000012B00F087800721744805F0D5FC022104
:102CE000734805F0D1FC734B186807F0C9FD022446
:102CF00002460B460094704805F012FF21466F48CB
:102D000005F0C2FC21466A4805F0BEFCD8F8001068
:102D1000694805F0FBFE0621694805F0B5FC3868F6
:102D20005F4908F057FA07F0ABFD009402460B46E6
:102D3000614805F0F5FE0321624805F0A5FC5E48F8
:102D400005F094FE04B0BDE8F0870028BCBF002366
:102D50003360B8E75C4E4F4D33680293029A42F2FB
:102D600028339A4200F2878033680393039A42F231
:102D700010739A4241D8D5F88030DFF82081464F51
:102D8000444E012B7FF479AF5048FEF7B3FD504914
:102D9000D6F86890F46E08F01DFA08F01DFC326F4A
:102DA000736FD5F858A0C9EB02021B1B80B29A4280
:102DB000C9EB0000C6BF03FB00000132584390FB83
:102DC000F2F020446C6D00FB0AF004FB00F000EB15
:102DD0008000400008F0AAF9314908F0AFFA8146B6
:102DE00038604FE73B4B1B68012B4FF00A010CBFCB
:102DF00039483A4805F048FC71E73448FEF77AFD57
:102E00003349AF6EEE6E08F0E5F908F0E5FB2A6F86
:102E10006B6FD21B9B1B80B29A42A0EB070031DD87
:102E200003FB0000531C90FBF3F31E44A86D6B6D75
:102E3000DFF86880184FC8F8006000FB06F003FB5D
:102E400000F000EB8000400008F070F9144908F031
:102E500075FA0123386002211548236005F014FC3F
:102E6000154805F003FE59211D4805F00DFC1248D8
:102E700005F0FCFDFBE615486A6C95F84010FEF77E
:102E8000DBFC71E703FB00F393FBF2F31E44CDE799
:102E90004C92FF1F2093FF1F6492FF1F3C87FF1F70
:102EA000E4388E3E0000C8424487FF1F4000010006
:102EB000100901005C92FF1FBC87FF1FC8FF0000C4
:102EC0004800010050000100E0BFFF1FA494FF1F55
:102ED00000007A442887FF1F280001003400010009
:102EE000CCFF0000F0B5112083B004F0E3FA012814
:102EF00013D000210B2004F0D7FA00210C2004F09D
:102F0000D3FA0021152004F0CFFA1D491D4B0120F2
:102F1000002208701A6003B0F0BD01460446152077
:102F200004F0C2FA1849194A194B09680191D2F8FC
:102F300090001B680199134D034402268B422E60BA
:102F400017D8D2F8980008F0F1F8124B196808F079
:102F5000DFFA074668B921460B2004F0A5FA084AB3
:102F6000032339460C2016702B6004F09DFA03B041
:102F7000F0BD01210C2004F097FA03B0F0BD00BFB2
:102F80005494FF1F9494FF1FE0BFFF1F2093FF1F67
:102F90009C94FF1F5C92FF1F2DE9F041484E494D64
:102FA00033682C68A34284B012D013F001016DD0B5
:102FB0009B0719D5444FDFF81C813B682BB3D8F829
:102FC00000200192019A9A4231D83468A10769D44D
:102FD0003CB92146162004F0E7F82146172004F0FA
:102FE000E3F804B0BDE8F0810021172004F0DCF81C
:102FF0002B68346803F0FD03E7072B60E6D5324FFA
:10300000DFF8D0803B68002BD9D1FF21162004F0D7
:10301000CBF8D8F800202D4B0092009A1B6813447F
:10302000D8F800200192019A3B609A42CDD9284BF2
:103030001620D3F8941004F0B7F82B68346843F0E6
:1030400001030022A0072B603A60C1D5FF211720A1
:1030500004F0AAF8D8F800201C4B0292029A1B68D0
:103060001344D8F800200392039A3B609A4225D972
:10307000174B1720D3F8941004F096F82B68346897
:1030800043F0020300222B603A60A1E7162004F00F
:103090008BF82B68326803F0FE032B609307A3D5EF
:1030A000D20787D4084FDFF82C803B68002BCDD0A7
:1030B000D8F800200392039A9A42D9D8346887E757
:1030C0009494FF1FD493FF1FD893FF1F6887FF1F9F
:1030D0002093FF1FE0BFFF1F2DE9F8434B4DDFF8A2
:1030E000589128684A4E4B4F00220E2103F014FAE3
:1030F000012322214848C9F8003005F0C5FA336899
:10310000132B1EDC40F6E4480021286803F056FA31
:1031100000210446286803F0D7F93B88A4B20121B6
:1031200008FB04F4B4FBF0F43C481C443C8005F07C
:10313000ABFA642004F0F4F933680133132B3360E5
:10314000E2DD3B88364A3748A2FB03129B1A02EBAA
:103150005303C3F30F1319463B8005F0D7FC1D2121
:103160003148324F05F090FA0221314805F08CFACF
:103170002C4805F07BFC00231A460F212868336099
:1031800003F0CAF9022322212348C9F8003005F0D0
:103190007BFA3368132B1EDC40F6E44800212868D4
:1031A00003F00CFA00210446286803F08DF93B88EF
:1031B000A4B2012108FB04F4B4FBF0F417481C444A
:1031C0003C8005F061FA642004F0AAF93368013309
:1031D000132B3360E2DD3B88114A1248A2FB031235
:1031E0009B1A02EB5303C3F30F1319463B8005F000
:1031F0008DFC1D210F4805F047FA02210C4805F00F
:1032000043FA0848BDE8F84305F030BC6C94FF1F52
:103210005892FF1F5487FF1F5400010098000100BF
:1032200087611886BC87FF1F780001005687FF1F43
:10323000100901009C0001002887FF1FF8B59C4C75
:103240009C4F082640F251332360386DE67107F039
:103250006DFF7969054607F0BDFF974907F0BAFF92
:1032600008F0BAF9954B964A1B681268A37281B2AE
:1032700041FA06FE3341284642FA06F584F809E091
:10328000E372227321726573B96907F0A3FF8A495B
:1032900007F0A0FF08F0A0F983B243FA06F2214636
:1032A0008848A373E27302F059FF874B874A1B6873
:1032B0001288A2725FFA83FC40F255310CEB8C0E3F
:1032C000216043FA06F103EB83034FEA4E0E3241CD
:1032D000002543F3D71361727A4884F808C0214669
:1032E00084F80CE0E2726373A573E573E67102F093
:1032F00035FF40F2563376482360E671FEF798FAC0
:10330000744907F067FF08F067F920727048FEF70C
:103310008FFA704907F05EFF08F05EF96E4A6D495A
:10332000C0F307236372106808F008F808F02EF95C
:1033300040FA06F203466648E272A372FEF79AFA72
:103340005D4907F047FF08F047F920736048FEF732
:1033500091FA594907F03EFF08F03EF92146C0F3C3
:10336000072358486373A573E57302F0F7FE022044
:1033700004F0D6F8594B5348197893F801E02172BC
:1033800040F25A32226021469A78DB7884F809E0CC
:1033900025736573A573E573A272E372E67102F09B
:1033A000DDFE4F4B47481A785978227240F25E355D
:1033B000DA78256061729D781979A572E2725D797B
:1033C0009A792173DB79A2732146E3736573E67101
:1033D00002F0C4FE022004F0A3F8424B39481A78E8
:1033E000597822724FF45C75DA78256061729D78A5
:1033F0001979A572E2725D799A792173DB79E373A9
:103400002146E6716573A27302F0A8FE364B1B6875
:10341000012B00D0F8BD2E48FEF7C0F9F96C07F07B
:10342000D1FD05462A48FEF7DFF90146284608F097
:103430006FF80028EED040F2C3332548E6712360D0
:10344000FEF7ACF9BD6C294608F062F8D0B1274907
:10345000284607F0BFFE08F0BFF880B240FA06F336
:10346000607223720023012604250322A672E572EE
:1034700022736373A373E3730D491248BDE8F840E8
:1034800002F06CBE1248FEF789F9184907F0A2FE57
:1034900008F0A2F8C0F307230D482372FEF77EF967
:1034A000124907F097FE08F097F86072DAE700BF5C
:1034B0008494FF1F2093FF1F000020414092FF1FB4
:1034C0006494FF1F38BEFF1F3C87FF1F4087FF1F0C
:1034D000A494FF1F0000C8425C92FF1F1C93FF1FB3
:1034E0003087FF1F5C87FF1F7494FF1F00007A4422
:1034F000F0B5AC4CAC4D83B005F060F823682860A3
:10350000042B00F0D282022B72D0082B00F0FE8038
:10351000072B40F07381322800F0EF8340F3648181
:10352000332800F0FF83712803D100237320236028
:103530002860002B08BF73280CBF01200020002842
:1035400054D09A4805F092FA0421994805F09CF865
:10355000964805F08BFA1021964805F095F89348A7
:1035600005F084FA1421944805F08EF88F4805F090
:103570007DFA1E21914805F087F88C4805F076FA0F
:1035800015218F4805F080F8884805F06FFA1E2154
:103590008C4805F079F8854805F068FA20218A48BA
:1035A00005F072F8814805F061FA1921874805F0A5
:1035B0006BF87E4805F05AFA1221854805F064F848
:1035C0007A4805F053FA0F21824805F05DF87748F4
:1035D00005F04CFA0D21804805F056F8734805F0C7
:1035E00045FA7E4A002101231160236003B0F0BD3B
:1035F000A0F13102422A9CD801A151F822F000BF6B
:103600008B3E00002B3F0000453F0000A13E000024
:10361000C73E00003335000033350000333500006D
:1036200033350000333500003335000033350000FA
:1036300033350000333500003335000033350000EA
:1036400033350000333500003335000033350000DA
:1036500033350000333500003335000033350000CA
:1036600033350000333500003335000033350000BA
:1036700033350000333500003335000033350000AA
:10368000333500003335000033350000333500009A
:10369000333500003335000033350000333500008A
:1036A000333500003335000033350000333500007A
:1036B000333500003335000033350000333500006A
:1036C0003335000033350000E53E0000333500009F
:1036D000333500003335000033350000333500004A
:1036E000333500003335000033350000333500003A
:1036F000333500003335000033350000333500002A
:103700002B35000033350000F13E0000322800F078
:10371000DF8271283FF409AF31287FF40AAF04F04B
:1037200089FF002840F3818320482D4E05F032FBAD
:10373000C0B286F84000022894BF01460021726C96
:10374000284888BF86F84010FEF776F801236920E4
:1037500023602860A0F152031F2B01F20982DFE8E9
:1037600013F0050A070A070A070A070A070A070AE1
:10377000070A070A070A070A070A070A070A070AC1
:10378000A609A00A2209A508BF07070A070A070A0F
:103790007707070AA30A070A070A070A070A070A98
:1037A0004C0700BFA094FF1F3C92FF1FBC87FF1F68
:1037B000A0070100A8070100BC070100D407010011
:1037C000F40701000C0801002C080100500801005A
:1037D0006C08010080080100900801004487FF1F69
:1037E0002093FF1FA494FF1F31287FF4A2AE04F0A2
:1037F00021FF002800F3B38323682868062B40F0DC
:103800008D80A0F13102402A3FF693AE01A151F81C
:1038100022F000BFCF3D0000F93D0000493D00000F
:103820006D3D0000913D0000AD3D000033350000CE
:1038300033350000333500003335000033350000E8
:1038400033350000333500003335000033350000D8
:1038500033350000333500003335000033350000C8
:1038600033350000333500003335000033350000B8
:1038700033350000333500003335000033350000A8
:103880003335000033350000333500003335000098
:103890003335000033350000333500003335000088
:1038A0003335000033350000333500003335000078
:1038B0003335000033350000333500003335000068
:1038C0003335000033350000333500003335000058
:1038D0003335000033350000333500003335000048
:1038E0003335000033350000333500003335000038
:1038F0003335000033350000333500003335000028
:103900003335000033350000333500003335000017
:10391000333500002B35000023682868052B1AD1A9
:10392000332801F08C8140F34B81352801F07681FA
:10393000BFF6F9AD04F07EFE00280ADDD948DA4E64
:1039400005F028FA01226B23C6F8A00022602B6044
:103950004BE123682868032B40F0A380A0F13002DC
:10396000422A3FF6E6AD01A151F822F0793A000073
:10397000474400006F440000B3430000D5430000FB
:10398000F74300001F44000097440000B5440000C6
:10399000D9440000333500003335000033350000D2
:1039A0003335000033350000333500003335000077
:1039B0003335000033350000333500003335000067
:1039C0003335000033350000333500003335000057
:1039D0003335000033350000333500003335000047
:1039E0003335000033350000333500003335000037
:1039F0003335000033350000333500003335000027
:103A00003335000033350000333500003335000016
:103A10003335000033350000333500003335000006
:103A200033350000333500003335000033350000F6
:103A300001450000D93F0000DD4500001F450000A2
:103A40003D4500005B450000B53F000033350000F8
:103A500033350000333500003335000033350000C6
:103A600033350000333500003335000033350000B6
:103A7000B1450000BD45000004F0DCFD002841F325
:103A800080808848884E05F085F901270346014665
:103A900062228648736527602A60FDF7CBFE2368A3
:103AA0002868012B7FF445AD54E6A0F13102402A8D
:103AB0003FF63FAD01A151F822F000BF513E00009A
:103AC000493E00004D3E0000553E0000593E0000BA
:103AD000733E0000333E00003335000033350000F4
:103AE0003335000033350000333500003335000036
:103AF0003335000033350000333500003335000026
:103B00003335000033350000333500003335000015
:103B10003335000033350000333500003335000005
:103B200033350000333500003335000033350000F5
:103B300033350000333500003335000033350000E5
:103B400033350000333500003335000033350000D5
:103B500033350000333500003335000033350000C5
:103B600033350000333500003335000033350000B5
:103B700033350000333500003335000033350000A5
:103B80003335000033350000333500003335000095
:103B90003335000033350000333500003335000085
:103BA0003335000033350000333500003335000075
:103BB0003335000033350000333500002B3500006D
:103BC000312801F04D8032287FF4B3AC04F032FD8F
:103BD00000287FF7BEAE3348334E05F0DBF80122F4
:103BE0006B23C6F8980022602B602E4804F03EFF3D
:103BF0002C4804F03BFF2B4804F038FF294804F020
:103C000035FF284804F032FF2121294804F03CFD0B
:103C1000244804F02BFF1521264804F035FDD6F882
:103C20009010204804F072FF0221234804F02CFD7C
:103C30001C4804F01BFF1E21204804F025FDD6F887
:103C40009810184804F062FF01211D4804F01CFD83
:103C5000144804F00BFF1E211A4804F015FDD6F895
:103C60009410104804F052FF0E4804F0FFFE1D218E
:103C7000154804F009FDD6F8A0100A4804F046FFE4
:103C8000084804F0F3FE1E21104804F0FDFCD6F8AD
:103C9000A410044804F03AFF024804F0E7FE0523AC
:103CA0002360A3E4BC87FF1F2093FF1FA494FF1F82
:103CB000F4020100180301006C020100300301004E
:103CC000440501005003010070030100900301004E
:103CD00004F0B0FC002840F3A480A948A94E05F0E8
:103CE00059F807F023FAA84907F074FA0346024688
:103CF00096F84010A548736426E504F09BFC002864
:103D00007FF77AAD9E489F4E05F044F807F00EFA13
:103D10009D4907F05FFA61230122F06322602B6066
:103D2000184617E504F086FC00287FF765AD944837
:103D3000944E05F02FF807F0F9F961230122B063E2
:103D400022602B60184605E504F074FC00287FF71C
:103D5000E3AD8B488B4E05F01DF800EB800043006F
:103D600001226520F36522602860F3E404F062FC20
:103D700000287FF7D1AD8248824E05F00BF800EBAA
:103D80008000430001226520336622602860E1E460
:103D90007C4AD2F8AC300133032BC8BF0023C2F8F1
:103DA000AC306520012323602860D3E404F042FC9A
:103DB00000287FF7B1AD7248724E04F0EBFF652327
:103DC0000122C6F8B00022602B601846C2E404F05D
:103DD00031FC00287FF7A0AD69486A4E04F0DAFF95
:103DE00007F0A4F96A4907F0A9FA65230122706176
:103DF00022602B601846ADE404F01CFC00287FF71D
:103E00008BAD5F485F4E04F0C5FF07F08FF9604946
:103E100007F094FA65230122F06122602B601846B6
:103E200098E423682868FFF773BB564E96F8400065
:103E300081E4584A1368B3FA83F35B0901216420D3
:103E400013602160286085E4534AF3E7534AF1E7A1
:103E5000534AEFE7534AEDE74A4ED6F89C30B3FA9F
:103E600083F35B0901226420C6F89C30226028603D
:103E700070E4012345482360FDF76EFB4A4A23683E
:103E8000106064202860FFF740BB3E4EB36FB3FA6A
:103E900083F35B0901226320B3672260286059E441
:103EA0000123236004F0C6FB002807DD3448354EAB
:103EB00004F070FF07F03AF9C6F88C006320286020
:103EC0002368FFF725BB0123236004F0B3FB002820
:103ED000F4DD2B482B4E04F05DFF07F027F9C6F800
:103EE0008800EBE7FFF7F8F823682868FFF70DBBB9
:103EF000244BDA6F012A00F0C486012202212B48EC
:103F0000DA6704F0C1FB1E4804F0B0FD192128480F
:103F100004F0BAFB0221254804F0B6FB184804F06F
:103F2000A5FD23682868FFF7F0BA164ED6F8803052
:103F3000B3FA83F35B0901226320C6F88030226064
:103F4000286007E40123236004F074FB0028B5DD3A
:103F50000B480C4E04F01EFFC6F8A800AEE7084858
:103F6000084E04F017FF07F0E1F8074907F032F9AF
:103F700061230122706222602B601846FFF7EABBC2
:103F8000BC87FF1F2093FF1F6F12833AA494FF1F6B
:103F900000007A444C94FF1F9894FF1F7C94FF1FED
:103FA0004894FF1F8094FF1F5094FF1F10090100C9
:103FB000E000010004F03EFB00280DDDC148C24EC8
:103FC00004F0E8FE07F0B2F8C04907F0B7F90122A3
:103FD0006223306222602B6004F02CFB002840F347
:103FE000D085B848B84E04F0D5FE01226223B066F1
:103FF00022602B60B34804F039FDB24804F036FD6E
:10400000B04804F033FDAF4804F030FDAD4804F093
:104010002DFD1521AE4804F037FBAA4804F026FD1B
:104020001421AC4804F030FBA64804F01FFD1B210E
:10403000A94804F029FBA34804F018FD1321A74860
:1040400004F022FB9F4804F011FD9E4804F00EFD91
:104050009C4804F00BFD2021A14804F015FBF068FA
:104060009A4907F0B7F806F00BFC002702460B460A
:104070000097944804F054FD02219A4804F004FB90
:104080000221994804F000FB8E4804F0EFFC212146
:10409000964804F0F9FA30698C4907F09BF806F06D
:1040A000EFFB009702460B46864804F039FD0221DB
:1040B0008C4804F0E9FA02218B4804F0E5FA8148C3
:1040C00004F0D4FC1F218A4804F0DEFAB06A06F03E
:1040D000D7FB022502460B4600957A4804F020FDE6
:1040E0000121844804F0D0FA29467F4804F0CCFA34
:1040F000744804F0BBFC20217F4804F0C5FAF06A44
:1041000006F0BEFB009502460B466E4804F008FD23
:104110000121784804F0B8FA2946734804F0B4FA4B
:10412000684804F0A3FC2321744804F0ADFAB06C95
:10413000664907F04FF806F0A3FB009702460B46CE
:10414000604804F0EDFC2946664804F09DFA2946D3
:10415000654804F099FA5B4804F088FC1F21684820
:1041600004F092FAF06C594907F034F806F088FB35
:10417000009702460B46534804F0D2FC29465948A2
:1041800004F082FA2946584804F07EFA4D4804F0BB
:104190006DFC19215B4804F077FAB16D494804F0D1
:1041A000B5FC2946584804F06FFA29464E4804F0F9
:1041B0006BFA444804F05AFC1821544804F064FA9D
:1041C000706E06F0B3FF524907F004F806F058FB92
:1041D000009502460B463B4804F0A2FC01214D48E5
:1041E00004F052FA2946404804F04EFA354804F0EB
:1041F0003DFC2B21484804F047FAB069334906F0EA
:10420000E9FF06F03DFB009702460B462D4804F0FF
:1042100087FC2946334804F037FA2946324804F02F
:1042200033FA284804F022FC1F213C4804F02CFA01
:10423000716D244804F06AFC29462B4804F024FAE6
:10424000204804F013FC2021354804F01DFA316D9C
:104250001C4804F05BFC2946234804F015FA194871
:1042600004F004FC10212F4804F00EFAB16E15483A
:1042700004F04CFC29461B4804F006FA29461A486B
:1042800004F002FA0F4804F0F1FB1321264804F071
:10429000FBF9F16E0B4804F039FC0121234804F0CE
:1042A000F3F92946104804F0EFF9064804F0DEFB64
:1042B00010211F4804F0E8F9316F024804F026FC91
:1042C000294637E0BC87FF1F2093FF1F00007A4478
:1042D0006805010080050100980501006C010100DE
:1042E000B40501006801010010090100D8050100B2
:1042F000FC0501000CFD00001C0601004006010049
:104300006406010084060100A0060100A406010065
:10431000CDCCCC3D44050100C0060100EC060100F7
:104320000C07010030070100440701005807010095
:104330005C070100BA4804F0A7F92946B94804F01F
:10434000A3F9B94804F092FB1421B84804F09CF991
:10435000716FB54804F0DAFB0121B54804F094F917
:104360002946B04804F090F9AF4804F07FFB1621CD
:10437000B04804F089F9306AAF4906F02BFF06F027
:104380007FFA00970B460246A74804F0C9FB29466E
:10439000A34804F079F92946A24804F075F9A24827
:1043A00004F064FBA04804F061FB03232360FFF7E3
:1043B0001DB904F03FF9002840F3E3839A489F4E6B
:1043C00004F0E8FC06F0B2FE01226223B062226033
:1043D0002B600FE604F02EF9002840F3D2839248B8
:1043E000964E04F0D7FC06F0A1FE01226223F06293
:1043F00022602B60FEE504F01DF9002840F3C18324
:1044000089488E4E04F0C6FC06F090FE8A4906F0FC
:1044100095FF01226223B06422602B60EAE504F07C
:1044200009F9002840F3AD837F48844E04F0B2FCC4
:1044300006F07CFE804906F081FF01226223F064D1
:1044400022602B60D6E504F0F5F8002840F399834C
:1044500075487A4E04F09EFC06F068FE764906F038
:104460006DFF01226223F06022602B60C2E504F040
:10447000E1F8002840F385836B48704E04F08AFC15
:1044800006F054FE6C4906F059FF012262233061A8
:1044900022602B60AEE504F0CDF8002840F3718374
:1044A0006148664E04F076FC01226223B06522600A
:1044B0002B609FE504F0BEF8002840F362835A4861
:1044C0005E4E04F067FC00EB800043000121622295
:1044D000736621602A608DE504F0ACF8002840F393
:1044E00050835148554E04F055FC06F01FFE5249CA
:1044F00006F024FF01226223B06122602B6079E57F
:1045000004F098F8002840F33C8347484B4E04F0F1
:1045100041FC01226223306522602B606AE504F0D1
:1045200089F8002840F32D833F48444E04F032FCC4
:1045300001226223306722602B605BE504F07AF889
:10454000002840F31E8338483C4E04F023FC01222F
:104550006223706722602B604CE5FDF74FFC02215F
:104560003048364E04F090F82F4804F07FFA0221CC
:104570002C4804F089F82C4804F078FA02212948E4
:1045800004F082F8284804F071FA17212C4804F04E
:104590007BF8254804F06AFA0221224804F074F8F6
:1045A000214804F063FA0122622322602B6021E596
:1045B0000022732322602B60FEF7C3BF214B1948F2
:1045C0001E4E002202211A6004F05EF8164804F024
:1045D0004DFA0B211C4804F057F8DDE704F02AF8E7
:1045E000002840F3CE821048144E04F0D3FB012281
:1045F0006223F06622602B60FCE4B42200210F48A5
:1046000002F086FC2868114AA0F173000121002302
:10461000B0FA80F0400911602360FEF790BF00BF40
:104620006801010010090100BC87FF1F700701002D
:10463000580701008807010000007A442093FF1FFB
:10464000FC0001004C92FF1F140101004487FF1F72
:104650008048814D04F00AFA7E4804F007FA7D484C
:1046600004F004FA7B4804F001FA7A4804F0FEF9F9
:1046700015217A4804F008F8764804F0F7F9182173
:10468000774804F001F800230A2295F84010714899
:1046900004F0FCF96F4804F0E9F92821714803F0AF
:1046A000F3FF686C704906F095FD06F0E9F8002507
:1046B0000B4602460095674804F032FA02216B4827
:1046C00003F0E2FF634804F0D1F91321684803F0D6
:1046D000DBFF604804F0CAF908232360FEF786BFB9
:1046E0005C485D4E04F0C2F95A4804F0BFF95948DD
:1046F00004F0BCF9574804F0B9F9564804F0B6F98B
:1047000011215C4803F0C0FF524804F0AFF92821A2
:10471000594803F0B9FF7069534906F05BFD06F094
:10472000AFF8002502460B4600954A4804F0F8F918
:1047300002214E4803F0A8FF464804F097F91621DD
:104740004E4803F0A1FFF069474906F043FD06F02B
:1047500097F8009502460B463E4804F0E1F9022125
:10476000424803F091FF3B4804F080F91D21444882
:1047700003F08AFFF06D06F0D9FC424906F02AFDED
:1047800006F07EF8022502460B460095314804F0FB
:10479000C7F901213C4803F077FF2E4804F066F981
:1047A0001F213A4803F070FF306E06F0BFFC354918
:1047B00006F010FD06F064F800950B460246254809
:1047C00004F0AEF90121304803F05EFF214804F007
:1047D0004DF911212E4803F057FFD6F8AC30032BCA
:1047E00007D8DFE803F0312C27020D21294803F018
:1047F0004BFF184804F03AF91821274803F044FF0A
:10480000D6F8B010134804F081F90221234803F0D0
:104810003BFF104804F02AF90E4804F027F9132151
:10482000134803F031FF0B4804F020F906232360FE
:10483000FEF7DCBE0C211A4803F026FFD9E70C2155
:10484000184803F021FFD4E70421174803F01CFFA8
:10485000CFE700BFBC87FF1F2093FF1F5408010054
:10486000200101003C01010000007A4468010100C0
:104870006C010100F807010080010100AC0101009A
:10488000C4010100CDCCCC3D44050100E401010090
:104890000402010040020100500201006C0201000C
:1048A000300201002002010018020100B84804F0A3
:1048B000DDF8B74804F0DAF8B54804F0D7F8B448A2
:1048C00004F0D4F8B24804F0D1F81321B14803F051
:1048D000DBFEAF4804F0CAF80D21AF4803F0D4FE68
:1048E000AB4804F0C3F80F21AC4803F0CDFEAC4B4D
:1048F000A748196804F00AF9A54804F0B7F813218D
:10490000A84803F0C1FEA84BA148196804F0FEF8BE
:104910009F4804F0ABF81221A44803F0B5FEA44B65
:104920009B48196804F0F2F8994804F09FF81121A7
:10493000A04803F0A9FEA04B9548196804F0E6F8DA
:10494000934804F093F80E219C4803F09DFE9C4B85
:104950008F48D3F89C1004F0D9F88D4804F086F8FD
:104960001921984803F090FE974B8948196804F084
:10497000CDF8874804F07AF81121944803F084FEBA
:10498000934B8348196804F0C1F8814804F06EF82D
:104990001321904803F078FE7D4804F067F8042363
:1049A0002360FEF723BE7A48854D04F05FF878480F
:1049B00004F05CF8764804F059F8754804F056F8AD
:1049C000734804F053F81F21834803F05DFE7048DC
:1049D00004F04CF81E21814803F056FE6C4804F0A8
:1049E00045F825217E4803F04FFE694804F03EF863
:1049F00014217C4803F048FEA96F654804F086F84E
:104A0000634804F033F81C21774803F03DFED5F8E5
:104A100080105F4804F07AF85D4804F027F81C2104
:104A2000724803F031FED5F8A810594804F06EF82A
:104A3000574804F01BF81C216D4803F025FED5F8FB
:104A40008C006C4906F0C6FB05F01AFF01260246F1
:104A50000B4600964E4804F063F80521664803F0C3
:104A600013FE4B4804F002F81D21644803F00CFECD
:104A7000D5F888005F4906F0ADFB05F001FF009610
:104A80000B460246424804F04BF805215A4803F011
:104A9000FBFD3F4803F0EAFF13214E4803F0F4FD0D
:104AA0003B4803F0E3FF02232360FEF79FBD384835
:104AB000434D03F0DBFF364803F0D8FF344803F0E2
:104AC000D5FF334803F0D2FF314803F0CFFF1F2159
:104AD0004B4803F0D9FD2E4803F0C8FF1C2149487C
:104AE00003F0D2FD686A484906F074FB05F0C8FE81
:104AF000002602460B460096254804F011F80221D4
:104B0000424803F0C1FD224803F0B0FF2321404892
:104B100003F0BAFDE86B3C4906F05CFB05F0B0FE23
:104B2000009602460B461A4803F0FAFF0221374866
:104B300003F0AAFD164803F099FF1921354803F048
:104B4000A3FDA86B05F09CFE02250B4602460095CE
:104B50000F4803F0E5FF29462F4803F095FD0C4868
:104B600003F084FF07232360FEF740BD03F056F8EF
:104B70002368002B08BF73280CBF01200020FEF71C
:104B8000DEBC23682868012B7EF4D3ACFEF7E2BDBF
:104B9000BC87FF1FB0030100C4030100D403010060
:104BA0004894FF1FE40301009894FF1FF8030100DD
:104BB0007C94FF1F0C0401008094FF1F200401005F
:104BC0002093FF1F300401005094FF1F4C0401008C
:104BD0004C94FF1F6C01010060040100800401007F
:104BE000A0040100C8040100E00401000005010068
:104BF00020050100CDCCCC3D400501004805010059
:104C0000700201009002010000007A446801010076
:104C1000B0020100D4020100F002010003F00AFD1D
:104C200000287EF796AE2248224E04F0B3F8012207
:104C30006B23C6F8A40022602B60FEF7D6BF03F0FA
:104C4000F9FC00287EF785AE19481A4E04F0A2F848
:104C500001226B23C6F8940022602B60FEF7C5BFCB
:104C600003F0E8FC00287EF774AE1148114E04F002
:104C700091F801226B23C6F8900022602B60FEF7AA
:104C8000B4BF022631460C48DE6703F0FDFC08483D
:104C900003F0ECFE1721094803F0F6FC3146FFF75C
:104CA0003AB9044EFFF7A6B9024EFEF79EBF00BF09
:104CB000BC87FF1F2093FF1F10090100C8000100DF
:104CC00038B5164C164A2368101D12F8011F904281
:104CD00041EA0323F9D12360124C03F1004323601E
:104CE000114BDB6F022B11D0104B1B68012B00D036
:104CF00038BD0F4803F0BAFE21680D4803F006FFE7
:104D000003210C48BDE8384003F0BEBC20680A4DC2
:104D100006F00CFA2860FDF70FFDE5E73892FF1F5B
:104D20006F92FF1F5C94FF1F2093FF1F4894FF1F8B
:104D3000BC87FF1FA00801005092FF1F30B53F4CF9
:104D40003F4883B0214601F001F9236840F2C232A6
:104D5000934258D06FF4C0615A18B2F5FF7F4CD916
:104D600003F100436FF4C0621344B3F5FF7F3FD9F2
:104D7000344B1B68012B01D003B030BD324B1B6894
:104D8000012BF9D1314B32481B6801930A220023D1
:104D9000019903F07BFE2268284B002ADB7945DB72
:104DA0002C492D4807F0F4F92B4807F029FA014661
:104DB000294803F069FC2568204B15F0804526D171
:104DC000DB798BB1631925491A7A234807F0E0F99A
:104DD000214807F015FA01461F4803F055FC01353C
:104DE000E379EDB2AB42EDD8194803F03FFEC3E7DB
:104DF00012491B48FCF7D8FBBAE710491848FCF7E2
:104E0000D3FB2368ACE7FFF75BFF2368A2E7154DF0
:104E1000114C0FCD0FC495E8030044F8040B204655
:104E200020F81419152103F02FFCDDE70E490A487C
:104E300022F0604207F0ACF9B6E700BF6892FF1FAE
:104E400038BEFF1F4487FF1F4894FF1FE0BFFF1FAE
:104E5000BC87FF1FCC0801007892FF1FF8080100F3
:104E6000A494FF1FE0080100A40801002DE9F84FF9
:104E7000794B7A4C1B78052B07D07948FCF7FAFC64
:104E8000E16A06F045FB002878D0764D764E002387
:104E90002B603360754B72481B68704F012B2BD011
:104EA000FCF7A2FCE1698046606906F089F80146DA
:104EB000404606F04BFB002832D16948FCF794FCD1
:104EC000E16806F043FB08B1002333606448634E99
:104ED000FCF764FC216906F01BFB18B100232B6072
:104EE000BDE8F88F5E48FCF759FCB16906F010FB8D
:104EF0000028F3D1BDE8F88FFCF776FCE169804625
:104F0000206A06F05DF80146404606F01FFB0028C7
:104F1000D3D05348FCF768FCD7F82090834605E0CF
:104F20004F48FCF761FCD7F814908346F96948466E
:104F300006F046F88246F86D06F0F8F88046386EBE
:104F400006F0F4F8414606F03BF85146074658464D
:104F500006F036F80146384606F03CF95146074659
:104F6000484606F02DF80146384606F0E7F9414676
:104F700006F028F806F00AFB30609EE73848FCF798
:104F800079FC216B06F0C4FA20B3364D636E3448C9
:104F90002B60FCF76FFC8146E06DE76A324E06F04D
:104FA000C5F839468046484606F00AF801464046AC
:104FB00006F010F939468046206B06F001F80146EC
:104FC000404606F0BBF9002105F0FCFF06F0DEFAD2
:104FD00030605FE72248FCF74DFC616B06F098FA01
:104FE00030B1204D204E626EE36D2A60336051E790
:104FF0001B48FCF73FFCA16A06F08AFA00283FF440
:1050000044AF1748174D184EFCF734FC8146606ECC
:10501000D4F8348006F08AF841460746484605F041
:10502000CFFF39468146002005F0CAFF01464846B9
:1050300006F0D0F841468146A06A05F0C1FF01465E
:10504000484606F07BF9394605F0BCFF06F09EFAAB
:10505000E36D286033601DE75494FF1F2093FF1F0A
:10506000A494FF1F6494FF1F4092FF1F5492FF1FE0
:1050700008B5274803F0FAFC0721264803F004FB93
:10508000112002F017FA0621F8B1234803F0FCFAC8
:10509000122002F00FFA062100B3204803F0F4FAC0
:1050A000122002F007FA062108B31D4803F0ECFABB
:1050B000132002F0FFF9062110BB1A4803F0E4FAAE
:1050C0001348BDE8084003F0D1BC174803F0DCFAF0
:1050D000122002F0EFF906210028DED1134803F078
:1050E000D3FA122002F0E6F906210028DDD110489B
:1050F00003F0CAFA132002F0DDF906210028DCD003
:105100000C4803F0C1FA0248BDE8084003F0AEBC09
:10511000BC87FF1F040901000C0901001C090100E4
:105120002C090100440901001409010024090100AF
:10513000340901003C09010010B5254C2368042BFB
:1051400027DC01210B2002F0AFF901210C2002F035
:10515000ABF90121142002F0A7F90121152002F07A
:10516000A3F90121162002F09FF90121172002F076
:105170009BF90121052002F097F90121062002F098
:1051800093F9236801330A2B2360C4BF00232360F3
:1051900010BD00210B2002F087F900210C2002F045
:1051A00083F90021142002F07FF90021152002F07C
:1051B0007BF90021162002F077F90021172002F078
:1051C00073F90021052002F06FF90021D6E700BF36
:1051D0007894FF1F2DE9F041704ED6F8AC40032CB7
:1051E0003BD0012C64D0022C01D0BDE8F0816C4D85
:1051F0006C482C7240F20E32012329462A60EB7172
:1052000000F0ACFF684B1B685B00FF2BC8BFFF239F
:10521000042140224FF441702860E9712A726B72B8
:10522000306D05F083FF716905F0D4FF5F490446D6
:1052300006F08CF9002800F0A7802146204605F0F2
:10524000C1FE06F0C9F980B20312E872AB7254498C
:105250005448BDE8F04100F081BF534B544A504DD3
:1052600012681B6893FBF2F31A12072140F2FF2722
:105270006A720122AB722A72306D2F60E97105F0FB
:1052800055FF716905F0A6FF4A4905F0A3FF06F036
:10529000A3F983B21F12E822294642486C732B738C
:1052A000EF72AA7300F05AFFD6F8AC40012C9AD1E5
:1052B000414B3B4D1B682B60072280231020EA7175
:1052C0002B7202F0F7F8002865D13C4B1B68DFF821
:1052D000D880374F306D324C03EB83035B001A12DA
:1052E000AB726A72D8F800303A6893FBF2F31A1284
:1052F0006A73AB7305F01AFF716905F06BFF304BF1
:10530000196805F05DFE2B4905F064FF06F064F9AD
:1053100080B20312214628732248EB7200F01EFF70
:10532000022002F0FDF8274B1B682B600722802328
:105330001020EA712B7202F0BDF850BB1F4B1B68A6
:10534000306D03EB83035B001A12A372627205F0E7
:10535000EDFE716905F03EFF164905F03BFF06F0D2
:105360003BF982B214123868D8F800302A7393FBE4
:10537000F0F30B490B48EC721A12AB736A7300F02E
:10538000EDFED6F8AC402EE701229023AA72EB7214
:105390005DE70D4BD3E70C4B98E700BF2093FF1F51
:1053A0008494FF1F38BEFF1F4092FF1F0000484338
:1053B0005087FF1F000020416487FF1F2487FF1FC5
:1053C0005887FF1F3887FF1F4C87FF1F2DE9F04FBD
:1053D0008DB001E0FFF7B2FCA04800F081FD00288D
:1053E000F8D103F027F9002801DDFEF781F89C4F82
:1053F0003B68012B01D0FDF7CFFD9A4CD4F89C50AF
:10540000012D00F04B81984E3378052B2CD8DFE826
:1054100013F0A000DA00FF0006001901BA00934B58
:105420000022012114201A6002F03EF89048FCF797
:10543000DBF9A16C06F08AF8002840F008828D4B59
:1054400018608B48FCF7D0F9616906F07FF80028F6
:1054500040F0F681122002F02DF828B90146142000
:1054600002F022F801233370834DE36F012B00F02B
:1054700087802B68814A0793079B11687E485B1AD7
:10548000B3F5FA7F1ED82B680A930A9B7C4A2B68D7
:105490000993099B1068D4F8B010774D714C1B1A12
:1054A0008B420CD92B680B93D4F89C300B9911606C
:1054B000012B00F0CE803378032B00F0CA800DB0B2
:1054C000BDE8F08F03680893089B69481360FCF7F8
:1054D000A7F86748FCF762F9216906F019F8002877
:1054E00030D1684B1B68002B40F03981664B1B683C
:1054F000002B40F031813B68002B40F02A81FDF702
:10550000ABFBFFF7B3FCFDF799FED4F89C30012B01
:1055100001D0FCF78DFF5D4F55483B68ABB1FCF700
:105520001BF83B6898421CBF05233370FCF7EAFE6A
:1055300072B6574B4AF202614BF2804219801A80D0
:1055400062B6A0E705233370CBE7FCF705F83860B7
:10555000ECE7464B484D4FF0000841461420C3F895
:10556000008001F0A1FF41460B2001F09DFF0123C7
:105570003370E36F474A012BC2F800807FF479AFA4
:10558000FDF7DAF875E7394B002212201A6001F0B6
:1055900091FF012808BF0323354808BF3370FBF78C
:1055A000DBFF3A4B1B6898427FF45EAF3048FCF754
:1055B000F5F8216905F0C0FF00283FF455AF01233D
:1055C0002D4D337051E7294B2948264D00221A6092
:1055D000FCF70AF9A16C05F0B9FF002840F018812A
:1055E000244B00221A60122001F064FF012800F011
:1055F0007D81112001F05EFF01281F4D7FF435AF42
:105600002A68254B0692069A1A60042333702CE709
:10561000164B4FF001081120C3F8008001F04AFF3B
:10562000054600287FF420AF0146152001F03CFF1D
:1056300029460B2001F038FF164B86F800801D60CC
:105640000D4D12E7094B0C4D00221A60FDF74AFC84
:105650000BE7FFF7BFFD0DB0BDE8F08F38BEFF1FB1
:105660007C94FF1F2093FF1F5494FF1F7094FF1F13
:10567000A494FF1F7494FF1FE0BFFF1F6094FF1FDF
:105680006092FF1F4487FF1F8094FF1F5094FF1FED
:105690000C2005409494FF1F9C94FF1FDFF8BC82F0
:1056A000A74ED8F80030DFF8B89243F00403002288
:1056B0001120C8F80030327001F0FCFED9F800303B
:1056C000002852D1012B00F0E5809E489E4DFCF74A
:1056D0008BF8A16C05F03AFF00286AD19B4B0022A1
:1056E0001A60D9F800509748012D76D0FCF77CF865
:1056F000E168DFF8549205F029FF002800F0AE8041
:10570000934D0021142001F0CFFE2A68D8F8003014
:105710000292904A0299116003F0FD03C8F800302C
:105720008848DFF82492FCF739F8216905F0F0FE8B
:1057300000B300210B2001F0B7FE2A68D8F8003032
:105740000492854A0499116003F0FE03C8F8003002
:105750008BE6FFF7F1FCD2E6FFF78AFCCBE6FCF71D
:1057600023FF7848FCF7ECF8C0E6002BADD1C9F870
:105770000050AAE77348FCF711F8D9F8181005F0A3
:10578000C7FE0028D5D101210B2001F08DFE724B00
:105790002A68D9F890101B680592059A0B44934229
:1057A000BFF463AED8F8003043F00103C8F800300E
:1057B0005BE66448FCF718F882466248FBF7EEFFA8
:1057C000E96C05F0FFFB0146504605F0BFFE0028DE
:1057D00084D05E4B01221A6083E7FCF705F8216A4A
:1057E000DFF864A105F0B2FE8146002855D0584D7F
:1057F0000021142001F058FE2A68D8F800300092E9
:10580000544A0099116003F0FD03C8F8003087E79F
:105810004C48FBF7E9FF80464A48FBF7BFFFE96CBD
:1058200005F0D0FB0146404605F090FE00283FF40D
:10583000D7AE4448FBF7EEFE444B01221A60D2E695
:105840000021142001F030FE0123337002E63D48B0
:10585000FBF7E0FE3D4B01221A60F2E53948FBF709
:10586000C3FFD9F8141005F071FE00287FF448AF8B
:105870003448FBF7B9FFD9F81C100546D9F81400D5
:1058800005F09EFB0146284605F042FE00283FD168
:105890002F4D45E7C9F8000017E72A48FBF7A4FF9A
:1058A000DAF81C108346DAF8200005F089FB01467F
:1058B000584605F02DFE0028EAD029461420244D34
:1058C00001F0F2FD234A2968DAF89000136801918B
:1058D000019903448B427FF623AFD8F80030C2F819
:1058E000009043F00203C8F8003019E71548FBF7B1
:1058F0007BFFE1690546606905F062FB01462846C9
:1059000005F006FE00283FF474AE0323337070E602
:10591000012114200E4D01F0C7FD0E4B2A68D9F865
:1059200090101B680392039A0B449342BFF4F8AEA5
:10593000D8F8003043F00203C8F80030F0E600BFAA
:105940005494FF1FA494FF1F2093FF1F7494FF1F04
:10595000E0BFFF1F9C94FF1FE493FF1F9494FF1F61
:105960005492FF1F10B501F071FA0B48FBF7C2FD0E
:105970000A4800F01BF80A4A0A481268002301216D
:1059800001F056F94FF4B67003F010FA044600F037
:105990005FFD054B1C6010BDA494FF1FE893FF1F23
:1059A0004887FF1FF892FF1F6C94FF1F30B4074D0C
:1059B000074C084900232B7023600365436583650A
:1059C00080F85C300B6030BC704700BF34BEFF1FF6
:1059D00030BEFF1F2CBEFF1F00207047704700BF66
:1059E00030B40B46054603C905EBC204043484E811
:1059F0000300197911F0010F296812D11C681248AF
:105A00001023843113FB0211A4042040086029688C
:105A1000803113FB021230BC136823F400131360AF
:105A2000704718688431102313FB021120F0604086
:105A300008602968803113FB021230BC136843F4FC
:105A400000131360704700BF0000FC1F70B4438850
:105A500082689BB202EB031304461E685D689A6875
:105A6000DB68CB608A600E604D606388A18801208E
:105A70009BB2034493FBF1F201FB12339BB26380B0
:105A800070BC7047F8B5204C204A21790546034682
:105A900001F0FD0102202A606FF30001002285F869
:105AA00094011D2720261020C5F8A020C5F8F87005
:105AB000A5F89661A5F8980121712260114643F876
:105AC000B02F05F1F00243F8041F93424FF0000499
:105AD000F9D1C5F88440C5F88840C5F88C40C5F8B0
