:1000000000800020BD010000B98C0000718C000050
:10001000718C0000718C0000718C0000718C0000EC
:10002000718C0000718C0000718C0000B98C000094
:10003000B98C0000718C0000CD820000D1830000DB
:10004000B98C0000B98C0000B98C0000B98C00009C
:10005000B98C0000B98C0000B98C0000B98C00008C
:10006000B98C0000B98C0000B98C0000B98C00007C
:10007000B98C0000B98C0000B98C0000B98C00006C
:10008000B98C0000B98C0000B98C0000B98C00005C
:10009000B98C0000B98C0000B98C0000B98C00004C
:1000A000B98C0000B98C0000B98C0000B98C00003C
:1000B000B98C0000B9780000C5780000C97800004C
:1000C000D5780000D9780000DD780000B98C0000F8
:1000D000B98C0000B98C0000B98C0000B98C00000C
:1000E000B98C0000B98C0000B98C0000B98C0000FC
:1000F000B98C00004DAF0000B98C0000AD99000034
:10010000B98C0000C59C0000B98C0000B98C0000BF
:10011000B98C0000B98C0000B98C0000B98C0000CB
:10012000B98C0000B98C0000B98C0000B98C0000BB
:10013000B98C0000B98C0000B98C0000B98C0000AB
:10014000B98C0000B98C0000B98C0000B98C00009B
:10015000B98C0000B98C0000B98C0000B98C00008B
:10016000B98C0000559F0000B98C0000B98C0000CC
:10017000B98C0000B98C0000B98C0000B98C00006B
:10018000B98C0000B98C0000B98C0000B98C00005B
:10019000B98C0000B98C0000B98C0000B98C00004B
:1001A000B98C0000B98C0000B98C0000B98C00003B
:1001B000B98C0000B98C0000B98C0000564B4CF291
:1001C000205210B51A804DF628121A8000BF00BFC9
:1001D00008F076FD514B4FF010621A60504A9A6059
:1001E000504ADA60504A136813F4807304D14F49BF
:1001F0000B604FF4A85313604D4B1A78110703D5C9
:100200001A7842F008021A704A4B4B492A221A7097
:100210004A4A4B4B8B4204D252F8040F43F8040B6A
:10022000F8E7484B484900228B4202D243F8042B9E
:10023000FAE74649464A002352F8230041F82300D2
:1002400001336F2BF8D1434B434A802103F8011B44
:100250009342FBD1414B3D4A1A60414B8A221A70AE
:10026000A3F5805324225A70A0221A709A7992071B
:10027000FCD59A79D406FCD43A4A937903F00C035E
:10028000082B384BF9D103221A7140225A719A79FE
:100290009006FCD5334A9179324B4906FBD5324A58
:1002A000324911600221516020221A709A7902F0BD
:1002B0000C020C2AFAD12E4B2E4A1A602E4B2F4AD2
:1002C0001A6000225A60072243F8042C2C4AC3F813
:1002D0000C2D62B608F0D4FF144B1B68DA0705D565
:1002E000284808F0B1FD284B284A1A60284B1B7893
:1002F0005B0609D5244C254B22689A4204D121483B
:1003000008F0A2FD002323600DF020F908F0DEFCC8
:1003100008F00CFCFEE700BF0E20054030800440D2
:10032000823F04000100002B10D0034014D0034092
:1003300002D0074000E007402892FF1FF43101007F
:100340002087FF1F2892FF1F20C5FF1F0082FF1F6D
:100350000000000000E400E05FE400E008ED00E0E1
:100360000050064000400640448004400000030165
:1003700004800440C010050014E000E0FF76010096
:100380000000202098A8ED5C1CE00340A5C3945A0F
:1003900000F00740FFFFFFFFFFFFFFFFFFFFFFFF32
:1003A000FFFFFFFFFFFFFFFFFFFFFFFFFFFFFFFF5D
:1003B000FFFFFFFFFFFFFFFFFFFFFFFFFFFFFFFF4D
:1003C000FFFFFFFFFFFFFFFFFFFFFFFFFFFFFFFF3D
:1003D000FFFFFFFFFFFFFFFFFFFFFFFFFFFFFFFF2D
:1003E000FFFFFFFFFFFFFFFFFFFFFFFFFFFFFFFF1D
:1003F000FFFFFFFFFFFFFFFFFFFFFFFFFFFFFFFF0D
:10040000FFFFFFFFFFFFFFFFFFFFFFFFDEF9FFFF23
:1004100010B5054C237833B9044B13B10448AFF33E
:1004200000800123237010BD2892FF1F00000000F0
:10043000F0310100084B10B51BB108490848AFF373
:1004400000800848036803B910BD074B002BFBD0A0
:10045000BDE81040184700BF000000002C92FF1FAD
:10046000F03101002892FF1F00000000F0B400F1FD
:100470001C06134F00243146031F00F13C0243F8D1
:10048000044FB34241F8047F4FF0000542F8044F97
:10049000F5D100230B4A0C4C056647F230514566F6
:1004A0008566C566C56744670267826780F88430E1
:1004B00080F8853080F89C30A0F8AE10F0BC704712
:1004C0000000A040000048430000C8C22DE9F041F0
:1004D00090F89C4084B0202364008DF80530E4B28D
:1004E000042380468DF804408DF80630032720460B
:1004F00009F084FB02210DF1050009F089FB8DF85C
:10050000044001F0BDFD30B3092140480AF0B8FBBA
:100510000023102221463E4808F018F801213D48EA
:100520000AF0AEFB002310229DF80510384808F0B1
:100530000DF8012137480AF0A3FB002310229DF893
:100540000610334808F002F8012132480AF098FBFF
:100550002F4807F0EBFF02208DF8044008F042FE20
:1005600001F08EFD00284CD102AE002409F066FB9C
:1005700070B3072C1FD101E009F070FB09F05EFB9E
:100580000028F9D101F07CFD10B1214807F0CEFF21
:100590009DF80B009DF80C109DF80D209DF80E3075
:1005A000C8F88800C8F88C10C8F89020C8F89430B3
:1005B00004B0BDE8F08109F051FB054606F8010BD7
:1005C00001F05EFD70B9013409F038FB0028D0D18C
:1005D000072CD3D001F054FD78B9013FD8D09DF855
:1005E000044084E7E9B200231022094807F0AEFF77
:1005F000012108480AF044FBE5E7054807F096FFAB
:10060000EBE7072104480AF03BFBADE718170100B0
:10061000C887FF1F601E01002417010090F88C009E
:10062000704700BF90F88800704700BF90F89000B6
:10063000704700BF90F89400704700BF082994BF2E
:1006400050F82100002070472DE9F0410B4E804604
:10065000041F00F11C0754F8045F314628460CF0D3
:10066000EBFE30B1D8F8801028460CF003FF00B143
:100670002E46BC42EFD13046BDE8F081000020415B
:100680002DE9F041D0F880704FF00008041F00F110
:100690001C0654F8045F394628460CF0EBFE084966
:1006A00048B128460CF0C8FE414620B128460CF05F
:1006B000E1FE00B1A846B442EBD14046BDE8F0816E
:1006C000000070422DE9F047D0F8807082464FF06C
:1006D0000009041F00F11C064FF0000854F8045FE5
:1006E000394628460CF0C6FE0E4950B128460CF09B
:1006F000A3FE30B1484629460CF0F8FB08F101088A
:100700008146B442EAD1B8F1000F01D0CAF8A08006
:1007100040460CF09FFC014648460CF0A3FDBDE8A6
:10072000F08700BF00007042D0F8A000704700BF03
:1007300038B5846E456E214628460CF07DFE00B922
:100740002C46204638BD00BFD0F898302DE9F04146
:10075000002B79D1866E456E0446314628460CF052
:10076000C5FBE76E394680460CF0C0FB7E490CF0B5
:1007700079FD4FF07C5104460CF07CFE002861D0DE
:100780004FF07C5128460CF075FE4FF07C5100284C
:1007900060D128460CF050FE38B14FF07C51304605
:1007A0000CF068FE002840F0A7804FF07C512846EE
:1007B0000CF060FE002860D14FF07C5128460CF010
:1007C00059FE002840F0A1804FF07C5128460CF0E3
:1007D00051FE00286CD14FF07C5128460CF02CFEC5
:1007E0004FF07C5110B330460CF044FE38B14FF05E
:1007F0007C5138460CF020FE002840F0B0804FF0CD
:100800007C5130460CF018FE002861D04FF07C512E
:1008100038460CF02FFE002840F0A38038464FF0F9
:100820007C510CF009FE68B1504C10E028460CF0E9
:1008300003FE0028E3D128464FF07C510CF0FCFD6C
:10084000002845D1BDE8F08100EB8300046E20460E
:10085000BDE8F08130460CF00DFE4FF07C510028D1
:100860003ED038460CF006FE0028F0D14FF07C5107
:1008700028460CF0E1FD002859D14FF07C5130465C
:100880000CF0DAFD002840D04FF07C5138460CF0D7
:10089000F1FD002841D14FF07C5130460CF0EAFDCB
:1008A00068B14FF07C5138460CF0C6FD00284FD19E
:1008B0004FF07C5130460CF0BFFD00288BD04FF03C
:1008C0007C5138460CF0B8FD002884D02C46BEE799
:1008D00030464FF07C510CF0AFFD0028B2D09DE7C0
:1008E00028460CF0A9FD0028C7D04FF07C513046B7
:1008F0000CF0C0FD0028C0D04FF07C5138460CF001
:10090000B9FD00283FF451AF18E04FF07C5130465C
:100910000CF0B0FD0028CBD0C3E7394628460CF0D8
:10092000E5FA4FF07C510CF0E9FB04468FE74FF0FD
:100930007C5138460CF09EFD00289ED0394630464A
:100940000CF0D4FA4FF07C510CF0D8FB04467EE753
:1009500040464FF07C510CF0D1FB044677E734461B
:1009600075E73C4673E700BF000040400000A0C2AE
:1009700070B50446FFF7E8FE4FF07C510CF07AFDAD
:1009800028B3666E4FF07C5130460CF073FDA56EB7
:10099000F0B9E46E4FF07C5128460CF06BFD58B175
:1009A000294630460CF066FD30B1214628460CF051
:1009B00043FD08B12C4620E04FF07C5120460CF05E
:1009C00059FD20B1284621460CF054FD78B970BD80
:1009D000304629460CF030FDE46E0028DAD030466F
:1009E00021460CF029FD0028D4D0344605E03046DD
:1009F00021460CF03FFD0028E9D0204670BD00BF25
:100A00002DE9F04F022987B00746144600F03281E5
:100A1000032900F0C680012900F0938097F8AC30DC
:100A20007E6EBD6E01933846FFF7A2FF396F044614
:100A30000CF002FD00B13C67294630460CF0FCFC8E
:100A4000002842D13146786F0CF0F6FC002875D1B1
:100A500007F11C0BA7F1040A07F13C095D46D046DB
:100A60004E4658F8044F55F8040F21460CF002FD8D
:100A700030B1D7F8801020460CF0F2FC00B12C60A9
:100A800056F8041F20460CF0F5FC00B13460A9456F
:100A9000E7D1019B002B7BD0A84CD7F8A820236876
:100AA0000393039BB7F8AE109B1A8B4215D3002219
:100AB0004AF8042FD3454FF00003F9D13B667B661B
:100AC000BB66FB6607B0BDE8F08F2946786F0CF077
:100AD000B3FC0028BCD07D67BAE723680493049B6D
:100AE000C91A0A4441F287339A42EBD8022194484A
:100AF0000AF0C6F8934807F019FD062192480AF05B
:100B0000BFF800230A2297F89C108E4807F01EFDBC
:100B100019218E480AF0B4F823680593059AB7F8AE
:100B2000AE30D7F8A81087489B1A19440A22002330
:100B300007F00CFD834807F0F9FCC3E735467D67F5
:100B400086E7137AC0F8A430D37A907A03EB0020BA
:100B50000CF080FA7E490CF0D1FA7866637B064689
:100B6000207B03EB00200CF075FA79490CF0C6FAF3
:100B7000B866E37B0546A07B03EB00200CF06AFA25
:100B800073490CF0BBFA97F8AC300193F8664AE76A
:100B90006A4B1B680293029BC7F8A83007B0BDE8F8
:100BA000F08F107A537A03EB00200CF053FA684967
:100BB0000CF0A4FAD7F88050294606460CF05AFCEF
:100BC00040B1644930460CF037FC18B100233E6157
:100BD00087F8AC30E37AA07A03EB00200CF03AFA05
:100BE0005B490CF08BFA0646014628460CF024FCC3
:100BF00040B1584930460CF01FFC18B100237E610B
:100C000087F8AC30637B207B03EB00200CF022FAEA
:100C10004F490CF073FA0646014628460CF00CFCCE
:100C200040B14C4930460CF007FC18B10023BE61BE
:100C300087F8AC30E37BA07B03EB00200CF00AFAD2
:100C400043490CF05BFA0446014628460CF0F4FBDD
:100C500000283FF4E3AE3F4920460CF0EDFB0028AE
:100C60003FF4DCAE0023FC6187F8AC3001937E6E6C
:100C7000BD6ED8E6107A537A03EB00200CF0EAF947
:100C800033490CF03BFAD7F88050294606460CF061
:100C9000F1FB002860D1012387F8AC30E37AA07A19
:100CA00003EB00200CF0D6F929490CF027FA064690
:100CB000014628460CF0C0FB002863D02549304689
:100CC0000CF0BAFB00285DD000237E6087F8AC30C2
:100CD000637B207B03EB00200CF0BCF91C490CF07B
:100CE0000DFA0646014628460CF0A6FB002845D022
:100CF000184930460CF0A0FB00283FD00023BE600E
:100D000087F8AC30E37BA07B03EB00200CF0A2F96A
:100D10000F490CF0F3F90446014628460CF08CFB11
:100D200028B30C4920460CF087FB00B30023FC607D
:100D300087F8AC3001937E6EBD6E74E648C2FF1F2B
:100D4000902A0100C887FF1F2C17010034170100EB
:100D50006F12833A000070420C4930460CF06CFB75
:100D6000002898D000233E6087F8AC3096E7012336
:100D70007E6EBD6E87F8AC30019354E6012387F890
:100D8000AC30BFE7012387F8AC30A1E70000704228
:100D90002DE9F04F90F89C3091B007465B008DF83C
:100DA0000830FFF793FBD7F89000D7F89440D7F8B6
:100DB0008C30D7F8882097F89C108DE81100C9482E
:100DC00001F064FA30223D2303268DF809208DF8C6
:100DD0000A300DF10A059DF8089049F001084046D7
:100DE00008F00CFF0DF10900022108F011FF8DF849
:100DF0000880424602AB00205040082410F0800FCB
:100E00004FEA400018BF80F00700013CC0B2F5D1A6
:100E10009D4202D013F8012FEEE708F0EFFE01F03B
:100E20002FF9002840F07C8202208DF8089008F00D
:100E3000D9F901F025F9002840F0B8820DF10C0A2B
:100E4000D146002408F0FAFE002843D0032C34D108
:100E500001E008F003FF08F0F1FE0028F9D101F0ED
:100E60000FF910B1A04807F061FB312303268DF87C
:100E700009308DF80A609DF8089049F00108404655
:100E800008F0BCFE0DF10900022108F0C1FE8DF84A
:100E90000880424602AB00205040082410F0800F2A
:100EA0004FEA400018BF80F00700013CC0B2F5D106
:100EB0009D4228D013F8012FEEE708F0CFFE09F885
:100EC000010B804601F0DCF868B9013408F0B6FE89
:100ED0000028BBD1032CBED001F0D2F878B9013E76
:100EE0007FF479AFC1E75FFA88F1002310227E48D2
:100EF00007F02CFB01217D4809F0C2FEE5E77A48A6
:100F000007F014FBEBE708F079FE01F0B9F80028D0
:100F100040F0C58102208DF8089008F063F901F0D7
:100F2000AFF8002840F03D820DF10C09002408F0D4
:100F300085FE002844D0032C35D101E008F08EFE58
:100F400008F07CFE0028F9D101F09AF810B166484B
:100F500007F0ECFA342201238DF809208DF80A30CD
:100F600003269DF8089049F00108404608F046FE27
:100F70000DF10900022108F04BFE8DF80880424671
:100F800002AB00205040082410F0800F4FEA4000D0
:100F900018BF80F00700013CC0B2F5D19D4228D0B7
:100FA00013F8012FEEE708F059FE09F8010B80460F
:100FB00001F066F868B9013408F040FE0028BAD1A3
:100FC000032CBDD001F05CF878B9013E7FF453AF3B
:100FD000C0E75FFA88F100231022434807F0B6FA11
:100FE0000121424809F04CFEE5E73F4807F09EFA30
:100FF000EBE708F003FE01F043F8002840F00E8113
:1010000002208DF8089008F0EDF801F039F800287A
:1010100040F0D6810DF10C09002408F00FFE0028E5
:1010200000F08480032C72D101E008F017FE08F074
:1010300005FE0028F9D101F023F810B12A4807F085
:1010400075FA012212238DF809208DF80A304FF02D
:1010500003089DF80840204608F0D0FD02210DF15C
:10106000090008F0D5FD8DF8084001F009F830B30B
:1010700009211F4809F004FE0023102221461A48C6
:1010800007F064FA0121194809F0FAFD0023102243
:101090009DF80910144807F059FA0121134809F086
:1010A000EFFD002310229DF80A100F4807F04EFABA
:1010B00001210E4809F0E4FD0B4807F037FA06203D
:1010C0008DF8084008F08EF800F0DAFF002840F0B4
:1010D000728103AD002608F0B1FD00283FD0162E26
:1010E0002FD109E050170100C887FF1F601E0100C3
:1010F0001817010008F0B2FD08F0A0FD0028F9D192
:1011000000F0BEFF162600287DD1152035E008F03E
:10111000A5FD09F8010B804600F0B2FF00285BD165
:10112000013408F08BFD00287FF47CAF032C3FF4E2
:101130007EAF00F0A5FF00286CD1013E7FF411AF17
:101140007FE708F08BFD05F8010B044600F098FFDF
:1011500000284DD1013608F071FD0028BFD1162EB0
:10116000CAD000F08DFF00284DD1B8F101087FF4FE
:1011700070AF701E002840F31E82002303AA1C4695
:1011800012F8011B08254C4014F0800F4FEA44046C
:1011900018BF84F00704013DE4B2F5D10133834266
:1011A000EEDB9DF8218089484146224601F06EF829
:1011B000162EC146A34602D1A04500F0138197F830
:1011C0009C108348CDF800B04B46324601F08CF8B5
:1011D000002011B0BDE8F08F5FFA88F100231022E3
:1011E0007C4807F0B3F901217B4809F049FD97E7F6
:1011F000E1B200231022774807F0A8F901217648D0
:1012000009F03EFDA6E7734807F090F9162EACD121
:101210001520B2E76F4807F089F98EE709216F487A
:1012200009F02EFD2346102241466A4807F08EF948
:101230000121694809F024FD234610229DF8091078
:10124000644807F083F90121634809F019FD102271
:1012500023469DF80A105F4807F078F901215E489F
:1012600009F00EFD21460DF10B0002AA12F8014B08
:101270006140C9B2082311F0800F4FEA410118BF45
:1012800081F00701013BC9B2F5D19042EED11022A5
:10129000504807F05BF94F4807F048F9B0E60921DC
:1012A0004E4809F0EDFC234610224146494807F01C
:1012B0004DF90121484809F0E3FC234610229DF82E
:1012C0000910444807F042F90121434809F0D8FCCD
:1012D000102223469DF80A103E4807F037F90121F5
:1012E0003D4809F0CDFC21460DF10B0002AA12F891
:1012F000014B6140C9B2082311F0800F4FEA410150
:1013000018BF81F00701013BC9B2F5D19042EED17F
:101310001022304807F01AF92E4807F007F9F9E5CE
:1013200009212E4809F0ACFC2346102241462948E9
:1013300007F00CF90121284809F0A2FC23461022ED
:101340009DF80910234807F001F90121224809F00E
:1013500097FC102223469DF80A101E4807F0F6F865
:1013600001211D4809F08CFC21460DF10B0002AA59
:1013700012F8014B6140C9B2082311F0800F4FEA07
:10138000410118BF81F00701013BC9B2F5D190427C
:10139000EED110220F4807F0D9F80E4807F0C6F832
:1013A00042E507210E4809F06BFCBDE507210C481A
:1013B00009F066FC42E50721094809F061FC88E66E
:1013C0000721074809F05CFC24E600BF84170100F0
:1013D000D0170100C887FF1F601E01001817010009
:1013E000241701009DF80C3097F89C20B3EB420FB6
:1013F0007FF4EEAE9DF80D30012B7FF4E9AE9DF841
:101400000E30122B7FF4E4AE9DF810309DF80F00E3
:1014100003EB00200BF01EFE6F490BF06FFEF96F1F
:10142000386604460CF026F800B1FC67B96F204618
:101430000CF002F800B1BC67A7F1040907F120061F
:1014400007F140054FF008089AF806309AF80500B1
:1014500003EB00200BF0FEFD60490BF04FFE49F856
:10146000040F316804460BF0E7FF0AF1020A30B1BD
:10147000D7F8801020460BF0F3FF00B134602968E4
:1014800020460BF0F7FF043600B12C60B8F10108DC
:1014900005F10405D8D19DF81E309DF81D0003EB21
:1014A000002002300BF0D6FD4D490BF0DBFE01466B
:1014B0004C480BF0D7FE4C490BF016FD4B490BF096
:1014C0001DFE054609F088FE0446284609F084FE04
:1014D000474909F0F3FE4749054620460BF00EFE4A
:1014E00045490BF003FD4549044628460BF006FE2E
:1014F000014620460BF0FAFC01464FF07E500BF0FF
:10150000B1FE3F490BF0F0FC9DF81F209DF8203004
:10151000786603EB022009300BF09CFD39490BF093
:10152000A1FE01462F480BF09DFE2F490BF0DCFC7D
:101530002E490BF0E3FD054609F04EFE0446284611
:1015400009F04AFE2A4909F0B9FE2A490546204613
:101550000BF0D4FD28490BF0C9FC28490446284665
:101560000BF0CCFD014620460BF0C0FC01464FF0CD
:101570007E500BF077FE22490BF0B6FCB8660446AD
:101580003846FFF7F5F9396F05460BF055FF00B106
:101590003D677D6E204629460BF06CFFA0B92946B9
:1015A000786F0BF049FF08B12C467C67164800F0B5
:1015B0006DFE01200DE69DF82190144849464246F3
:1015C000C34600F063FEFAE5796F20460BF052FF48
:1015D0000028EAD1EAE700BF1357053B2003C839CA
:1015E000001601470AD7E33FE17A644000007A44DD
:1015F00000004040A40D8F395A80473A46A6DB339D
:1016000033938843002C0147A81701008417010079
:101610002DE9F8430026D0F880800666814604460E
:1016200000F1200754F8045B414628460BF022FFE6
:10163000084950B128460BF0FFFE30B1304629462C
:101640000BF054FC0646C9F86000BC42EAD13046B3
:10165000BDE8F8830000704202299ABF00EB8100C8
:10166000406E0020704700BF3E2998BF80F89C1054
:10167000704700BF90F88400704700BF90F8850065
:10168000704700BFC0F89810704700BF80F8841002
:10169000704700BF80F88510704700BF30B5C0F8B4
:1016A000801083B008460BF07FF8074C02250246F5
:1016B0000B460095204606F093FF204603B0BDE898
:1016C000304006F033BF00BFC887FF1F70B500F57C
:1016D0002D550646383500F128042046B034FEF773
:1016E000C5FEAC42F9D106F1D805012428460021F7
:1016F000FFF7CCFF214628460134FFF7B5FF3F2C0A
:1017000005F1B005F2D142F6843400250548064AB9
:10171000064B3555002130617161B261F36130468D
:1017200070BD00BF00007A44000048430000C8C2FA
:1017300070B500F52D56383600F1D804002507E0C5
:10174000012520460021B034FFF7A4FFB4420AD09F
:101750002046FFF78FFF0028F3D02046FFF78EFFCB
:101760000028EDD170BD284670BD00BF42F6883319
:101770002DE9F041002200F52D5600F52E57804648
:10178000C2503836083700F1D80402E0B034B44211
:101790000DD02046FFF76EFF0028F7D020463D68A9
:1017A000FEF7C2FFB0342844B4423860F1D142F6AB
:1017B000883358F80300BDE8F08100BFF8B50E4645
:1017C000096801F47F6500290446A5F5C06515DBAD
:1017D0002D0901F00F07B02303FB054428342046F0
:1017E0000121FFF753FF20460121FFF753FF324647
:1017F00039462046BDE8F840FFF702B90A4801F033
:101800000F0706F093FE1221084809F039FA3168F3
:10181000054801F0004100230A2206F097FE024825
:101820002D0906F083FED6E7C887FF1F20180100A8
:101830002DE9F0430446002383B0064644F8D83B24
:10184000012504E001353F2D04F1B00469D02046A4
:10185000FFF710FF0028F5D0504800F017FD29468B
:101860004F4800F013FD2046FFF792FA2046FFF79D
:10187000CFFE0AF099FF02460B464A4800F006FDEB
:101880002046FEF7E1FE80462046FEF7F9FE0746B9
:1018900040460AF089FF8046384689460AF084FFB0
:1018A00042464B46CDE900013F4800F0EFFC0021E5
:1018B0002046FFF7D1FE012180462046FFF7CCFEEF
:1018C000074640460AF070FF8046384689460AF0CF
:1018D0006BFF42464B46CDE90001344800F0D6FC90
:1018E0002046FFF795FE014630680BF0FFFA3060A6
:1018F0002046FFF73DF8B1690BF09EFD002833D17B
:101900002046FEF715FFF1690BF0B4FD002899D0D1
:101910002046FEF70DFF01353F2DF06104F1B004C4
:1019200095D170680BF096FB014630680BF09AFC7D
:101930007169306004460BF09DFD00B1746131693E
:1019400020460BF079FD00B134610B2007F014FC48
:1019500042F68433F35C60B99BB142F684330122D2
:10196000F25403B0BDE8F0832046FFF701F8B06100
:10197000C6E753B942F684330022F25403B0BDE8FF
:10198000F0830B4800F0B0FCE7E70A4800F096FC53
:1019900042F684330022F254F0E700BF1C1A010023
:1019A000341801007018010084180100B0180100FB
:1019B000CC1801000419010070B5114B836000F5CB
:1019C0002D550646383500F1D80402E0B034AC425B
:1019D00013D02046FFF74EFE0028F7D02046FEF732
:1019E00033FEB1680BF028FD0028EFD02046FEF74B
:1019F0002BFEB034AC42B060EBD1B06870BD00BF1C
:101A00000000A04070B5002300F52D550646C360C8
:101A1000383500F1D80402E0B034AC4213D020468F
:101A2000FFF728FE0028F7D02046FEF729FEF168D0
:101A30000BF020FD0028EFD02046FEF721FEB03449
:101A4000AC42F060EBD1F06870BD00BF0068704739
:101A500041607047F8B542F6903442F68C3301513C
:101A60000F461646C25000F1D804012504E00135A6
:101A70003F2D04F1B0041BD02046FFF7FBFD0028EA
:101A8000F5D029460B4806F0A1FD0A4806F04EFDA8
:101A9000782009F079F920463946FFF7F3FD013542
:101AA00020463146FFF7FAFD3F2D04F1B004E3D1A3
:101AB000F8BD00BFC887FF1F2DE9F84300F52D557D
:101AC00042F67C332E4600278046C7504FF000096F
:101AD00038353C3600F1D80402E0B034A54213D0CA
:101AE0002046FFF7C7FD0028F7D033680133336085
:101AF0002046FEF729FE27490BF0BCFC20BBB03482
:101B0000A54207F10107EBD142F67C3358F80340B8
:101B1000E01B0BF09FFA014648460BF0A3FB08F5CB
:101B20002E5305461A6894420BD042F68C3242F688
:101B300090311C6058F8022058F801104046FFF719
:101B400089FF2846BDE8F8832046FEF7FDFD0146E3
:101B500048460BF0CBF981462046FEF7F5FDD8F854
:101B600020100BF087FC70B92046FEF7EDFDD8F889
:101B700024100BF061FC0028AFD02046FEF7E4FDF6
:101B8000C8F82400A9E72046FEF7DEFDC8F82000CB
:101B9000EAE700BF00008CC2006A7047406A7047E5
:101BA000F8B500F52D5507460026383500F1D80464
:101BB00002E0B034AC420FD02046FFF75BFD0028B6
:101BC000F7D02046FEF77EFD014630460BF08EF939
:101BD000B034AC420646EFD142F67C33F8580BF0F5
:101BE00039FA014630460BF03DFBF8BD2DE9F04FC8
:101BF00006468FB083488B4600F0F0FA814800F02B
:101C0000EDFA804800F0EAFA42F67C333046F258AA
:101C10000D92FFF7ABFD73680C93074630680AF02E
:101C2000C3FD804630468946FFF7BAFF82463046FC
:101C3000B468F568FFF740FF0AF0B6FDCDE90A0188
:101C4000214628460BF050F96F490BF057FA0AF07D
:101C5000ABFDCDE9080128460AF0A6FDCDE9060155
:101C600020460AF0A1FDCDE9040150460AF09CFD92
:101C70000D9A0C9BCDE90201CDE90089114663481C
:101C80003A4600F0ABFA5F4800F0A8FAD8364FF0B9
:101C900001084FF0000A07E008F10108B8F13F0F12
:101CA00006F1B00600F0A5803046FFF7E3FC0028FF
:101CB000F2D03046FEF7B2FC3046FEF7B3FC3046B9
:101CC000FEF7B4FC3046FEF7B5FC0821504808F09A
:101CD000D7FF41464F4806F079FCB8F1090F40F3B1
:101CE0008B8002214C4808F0CBFF3046FFF790FC78
:101CF0000AF05AFD5FFA8BF902460B46CDF80090C8
:101D0000444806F06DFC0121444808F0B9FF5546EF
:101D1000002420E00621424808F0B2FF29463D4851
:101D200006F054FC02213F4808F0AAFF2146304645
:101D3000FEF784FC0AF038FDCDF8009002460B4611
:101D4000344806F04DFC01340121344808F098FF76
:101D5000082C09D03D46092D05F10107DADC0121E7
:101D6000314808F08DFFD5E72A4806F0DFFB09214E
:101D70002E4808F085FF00213046FFF76DFC0AF081
:101D800013FD022402460B460094224806F028FC6C
:101D90000A21274808F074FF01213046FFF75CFC58
:101DA0000AF002FD009402460B461A4806F018FCA1
:101DB0000A21204808F064FF21463046FFF74CFC1A
:101DC0000AF0F2FC009402460B46124806F008FCAA
:101DD0000121194808F054FF08F101080D4806F0E8
:101DE000A5FBB8F13F0F0AF1080A06F1B0067FF42F
:101DF0005BAF0FB0BDE8F08F01210B4808F040FF4A
:101E00006FE700BF1C1A010000007A44B41B0100F8
:101E1000541C0100C887FF1F902A0100601C0100AC
:101E2000641C0100501E0100601E01006C1C0100BA
:101E3000781C0100841C0100901C01002DE9F04F6A
:101E400085B000F1D8058A4603929B462E464FF096
:101E5000010806E008F10108B8F13F0F06F1B006ED
:101E60007BD03046FFF706FC0028F3D000230A227F
:101E700051467D4806F06AFB01217C4808F000FFCE
:101E800003980AF091FC00230246009376480B4623
:101E900006F0A6FB0121754808F0F2FE594672488B
:101EA00006F094FB0121714808F0EAFE41466E48B5
:101EB00006F08CFB01216D4808F0E2FE00244FF093
:101EC000020921463046FEF7B9FB0AF06DFCCDF859
:101ED000009002460B46644806F082FB0134012163
:101EE000624808F0CDFE082C4FF00207E9D100212E
:101EF0003046FFF7B1FB0AF057FC009702460B464D
:101F0000594806F06DFB0121584808F0B9FE01213F
:101F10003046FFF7A1FB0AF047FC009702460B464C
:101F2000514806F05DFB0121504808F0A9FE3946F2
:101F30003046FFF791FB0AF037FC009702460B464C
:101F4000494806F04DFB08F10108474806F0EEFA53
:101F5000B8F13F0F06F1B00683D101274FF0000919
:101F600004E001373F2F05F1B00579D02846FFF78F
:101F700081FB0028F5D000230A2251463C4806F098
:101F8000E5FA0121394807F00DFC03980AF00CFC32
:101F9000CDF8009002460B46354806F021FB0121A2
:101FA000324807F0FFFB5946314806F00FFB01218C
:101FB0002E4807F0F7FB39462D4806F007FB0121B4
:101FC0002A4807F0EFFB00244FF00208214628467C
:101FD000FEF734FB0AF0E8FBCDF8008002460B4622
:101FE000234806F0FDFA01340121204807F0DAFB0E
:101FF000082C4FF00206E9D100212846FFF72CFB00
:102000000AF0D2FB009602460B46194806F0E8FAA1
:102010000121164807F0C6FB01212846FFF71CFBEB
:102020000AF0C2FB009602460B46114806F0D8FAA9
:1020300001210E4807F0B6FB31462846FFF70CFB9E
:102040000AF0B2FB009602460B46094806F0C8FAB1
:102050000137074806F06AFA3F2F05F1B00585D130
:1020600005B0BDE8F08F00BFC887FF1F941C0100BA
:10207000AC87FF1F014B1870704700BF2087FF1F00
:10208000024B1878B0FA80F0400970472087FF1F94
:102090000278002A00F0908070B5034682B00D46A9
:1020A000252A2AD158785C1C08B325282FD07328FC
:1020B00031D0642824D0692822D066284FD07A28CD
:1020C00059D0782835D058282FD062283ED04228C1
:1020D00038D06C2814D0632812D0742857D05428D4
:1020E0005FD008F051FE6278631C002AD8D13448D2
:1020F00002B0BDE8704006F019BA18781C46F0E747
:102100002B1D29682E481D4606F060FAEBE71046A5
:1021100008F03AFEE7E72E6830460CF011F8014669
:102120003046043508F0ACFDDDE70221254808F013
:10213000A7FD2E1D2968224800231022354606F0EF
:1021400005FAD0E70221204808F09AFD2E1D2968E3
:102150001B4800230222354606F0F8F9C3E707358D
:1021600025F007050321D5E900231548009108351E
:1021700006F036FAB7E7073525F007050021D5E95F
:1021800000230F480091083506F02AFAABE72968CA
:1021900001290EBF0D480E480121043508F070FDDD
:1021A000A1E72B68012B07BF04210A480A48052133
:1021B000043508F065FD96E7014806F0B7B900BFA1
:1021C000C887FF1F981C01009C1C0100A01C010077
:1021D000A41C0100A81C0100B01C01000FB400B534
:1021E00083B004A951F8040B0191FFF751FF03B02C
:1021F0005DF804EB04B0704770B51B4B1B4C1B68BB
:1022000082B00D460193019B2360194604460023CA
:10221000164617480A2206F099F90321154808F0D6
:102220002FFD032C07D8DFE804F01A151002052152
:10223000114808F025FD0221104808F021FD314623
:102240002846FFF725FF02B070BD07210C4808F0B3
:1022500017FDF0E704210B4808F012FDEBE705211C
:10226000094808F00DFDE6E748C2FF1F4492FF1F32
:10227000C887FF1FB81C0100D41C0100501E0100BC
:10228000CC1C0100C41C0100BC1C01000FB400B533
:10229000094B187883B020B103B05DF804EB04B0AB
:1022A000704705AB1A4604990193FFF7A5FF03B0E9
:1022B0005DF804EB04B070472087FF1F0FB4094B93
:1022C00000B51B78012B83B004D903B05DF804EB93
:1022D00004B0704705AB1A46049901930120FFF73B
:1022E0008BFFF2E72087FF1F0FB40B4B00B51B7865
:1022F000032B83B004D903B05DF804EB04B070473E
:1023000005AB1A46049901930320FFF775FF03B04C
:102310005DF804EB04B070472087FF1F2DE9F84FEC
:10232000994C9A48FFF7C8FBE16A0BF085F8002842
:1023300051D0974E974D002333602B60964B9348B6
:102340001B68914F012B5ED0FFF75CFBE169804673
:1023500060690AF0C9FD014640460BF08BF8002881
:1023600065D18A48FFF74EFBE1680BF083F808B1AE
:1023700000232B608548844FFFF71EFB21690BF07B
:102380005BF858B1002333602B68824A002B01DBD5
:10239000BDE8F88F00231360BDE8F88F7B48FFF796
:1023A0000BFBB9690BF048F80028EBD17748FFF731
:1023B00003FBD7F8B8100446B8690AF097FD014648
:1023C00020460BF057F8002800F08480786E3060CB
:1023D0000028D7DBD8E76D48FFF76EFB216B0BF0C9
:1023E0002BF8002851D16948FFF766FB616B0BF0B1
:1023F00023F8002800F09380654E664D626EE36D11
:1024000032602B609AE7FFF7FDFAE1698046206AA7
:102410000AF06AFD014640460BF02CF80028A0D0D7
:102420005A48FFF7EFFAD7F82090834605E057485F
:10243000FFF7E8FAD7F814908346F96948460AF09E
:1024400053FD8246F86D0AF005FE8046386E0AF0AC
:1024500001FE41460AF048FD5146074658460AF03B
:1024600043FD014638460AF049FE514607464846B4
:102470000AF03AFD014638460AF0F4FE41460AF0F9
:1024800035FD0BF017F828606BE7414E636E3F484F
:102490003360FFF711FB8146E06DE76A3D4D0AF0BE
:1024A000D9FD3946804648460AF01EFD01464046A1
:1024B0000AF024FE39468046206B0AF015FD0146DD
:1024C00040460AF0CFFE00210AF010FD0AF0F2FFAC
:1024D000286033E72D48FFF76FFA8146F86DBC6935
:1024E0000AF0B8FD2146804648460AF0FDFC014648
:1024F00040460AF003FED7F8B810804620460AF09E
:10250000F5FC21460AF0F0FC014640460AF0AAFE1E
:1025100000210AF0EBFC0AF0CDFF306058E71B48C1
:10252000FFF7CAFAA16A0AF087FF00283FF401AF5B
:102530001648174E174DFFF7BFFA8146606ED4F864
:1025400034800AF087FD4146074648460AF0CCFC35
:102550003946814600200AF0C7FC014648460AF089
:10256000CDFD41468146A06A0AF0BEFC01464846C0
:102570000AF078FE39460AF0B9FC0AF09BFFE36DD9
:1025800030602B60DAE600BF3493FF1FE494FF1F36
:10259000A894FF1F5092FF1F6C92FF1FF8B53B4895
:1025A0003B4F3C4D3C4E3D4CFFF718FE3C4B3D4AEB
:1025B0003D485A60DF60112200273C491A701861BB
:1025C0003B4A3C485D615E623B4D9C614FF07C56EE
:1025D0003A4C1F633A4F9962DA623A4958630C22C7
:1025E00039489D635E6440F61C450A269C641F6260
:1025F00041F20404354FD9641A6502210122C3F85F
:10260000B8009D6600206425DE661C674FF4967650
:102610003224DF61DF635A27597059721A725A6582
:1026200083F840005E66DE651C669D654FF47A7E29
:102630005F67274E274F9867D967C3F88000C3F8B4
:102640009440C3F8A040C3F89C00FF24C3F8A8201E
:10265000C3F8AC10052041F2883183F8BC2040F269
:10266000D662C3F8B050C3F898E0C3F88870C3F8D6
:102670008C60C3F8A440A3F8B600C3F89010A3F888
:10268000B410A3F88420A3F88620F8BDDC1C010058
:102690006666864033338340CDCCCC3DCDCC4C40B8
:1026A0003493FF1F20A10700000040400000824239
:1026B000000020C1000020420000A0409A9979400B
:1026C000333373400AD7233D9A99993ECDCC4C3E83
:1026D00000C0204400006842F0B54FF47A6085B035
:1026E00006F080FD00210F2006F054FD00210E2091
:1026F00006F050FD0021112006F04CFD00211020B5
:1027000006F048FD0021122006F044FD00211320B0
:1027100006F040FD01210B2006F03CFD01210C20BC
:1027200006F038FD0121142006F034FD01211520AA
:1027300006F030FD0121162006F02CFD01211720A6
:1027400006F028FD0121052006F024FD8E4C8F4D5A
:102750000121062006F01EFD01210D2006F01AFDC4
:1027600020880AF073FC0146162006F07DFC2088C4
:102770000AF06CFC0146172006F076FC20880AF06F
:1027800065FC0146052006F06FFC20880AF05EFC1F
:1027900000240146062006F067FC009423467C4A8C
:1027A0007C497D4804F030FDE6B2324677497A48EC
:1027B00004F0D8FC2B79754977486FF30003013496
:1027C00032462B7104F0C4FC082CEDD10924E6B28A
:1027D00032466E49704804F0C5FC2B796B496E484F
:1027E00043F00103013432462B7104F0B1FC0D2C8F
:1027F000EDD16A4C4FF0FF322068102105F0D0F87F
:1028000020684FF0FF32102105F0A2F820684FF049
:10281000FF32022105F0B0F820684FF0FF320221AC
:1028200005F0B4F800220F21206805F0C3F80C2150
:102830005B4808F025FA5B4805F078FE14215A48F9
:1028400008F01EFA574805F071FE40F2836006F06A
:1028500087FD544805F06AFE1721544808F010FA25
:10286000504805F063FE524B1B789A0600F1BC807D
:102870004F4B1B781B0700F1C3804D4B1B785F0744
:1028800000F1CA804A4B1B789E0700F1D180494B6A
:102890001B781D0600F1D880464B1B785C0600F1C2
:1028A000DF80444B1B78980600F1E680414B1B7893
:1028B000590700F1ED803F4B1B781A0700F1F480B7
:1028C0003C4B1B789B0700F1FB80364805F02EFE41
:1028D00072B6394A4CF220534DF628112024138049
:1028E00023461180013BFDD1344D35483549002345
:1028F0004FF480562E8003800B8032F80E3C9BB242
:1029000043F0D30322F80E3C62B69D2007F026F96F
:1029100021462D482D4D08F0B3F9224805F006FE5A
:1029200005F1C0062F462C46601B06F06DF804F832
:10293000010BB442F8D13B78112B01D0FFF72EFEEA
:102940000420FFF797FB224B224D002401210D208C
:102950001C6006F00BFC796D1F48FFF779F87A6C64
:1029600097F840101C48FFF775F81C4B1C491A6873
:10297000039203981B680293029A1A4B2C7008600A
:102980001A6005B0F0BD00BF2887FF1F0094FF1F2D
:1029900020C2FF1F20A1070084C0FF1FB094FF1FAB
:1029A000FC1C0100C887FF1F0C1D0100241D010035
:1029B00001F0074000F007400E20054004200540CC
:1029C0000620054016200540281E01003493FF1FF5
:1029D0005C92FF1F9C94FF1FE494FF1F48C2FF1FDF
:1029E000E094FF1F0894FF1F2121394808F048F99F
:1029F000384805F09BFD384B1B781B077FF53DAF32
:102A00000C21364808F03CF9324805F08FFD324B76
:102A10001B785F077FF536AF0E21314808F030F99B
:102A20002C4805F083FD2C4B1B789E077FF52FAFBC
:102A300017212C4808F024F9264805F077FD2A4B89
:102A40001B781D067FF528AF0E21284808F018F9DD
:102A5000204805F06BFD244B1B785C067FF521AF09
:102A60001221234808F00CF91A4805F05FFD1E4BAF
:102A70001B7898067FF51AAF13211E4808F000F95D
:102A8000144805F053FD184B1B7859077FF513AF19
:102A90001C21194808F0F4F80E4805F047FD124BC8
:102AA0001B781A077FF50CAF1921144808F0E8F8D5
:102AB000084805F03BFD0C4B1B789B077FF505AFE5
:102AC00018210F4808F0DCF8024805F02FFDFCE65D
:102AD0003C1D0100C887FF1F01F00740601D010079
:102AE000701D0100801D010000F00740981D0100CD
:102AF000A81D0100BC1D0100D01D0100F01D01003A
:102B00000C1E010070B5464C464D4748E668002350
:102B10002B70FEF777FF014630460AF08DFC08B1B6
:102B200004232B704048FEF747FF21690AF084FC1C
:102B300018B12B7843F010032B703B48FEF7BCFF15
:102B4000A16A0AF097FC18B12B7843F040032B7070
:102B5000002335486B70FEF7AFFFE16A314E0AF093
:102B60006BFC08B10123737000232F48EB70FEF754
:102B700049FF05462C482B4EFEF71EFF014628460E
:102B80000AF0B2F9E16B0AF075FC08B10123F370A9
:102B9000264D254800232B70FEF734FF616A064658
:102BA000E0680AF0A1F9014630460AF063FC08B17A
:102BB00004232B701C48FEF7FFFE616A064620695D
:102BC0000AF094F9014630460AF036FC18B12B7829
:102BD00043F010032B701448FEF76EFFA16B0646FE
:102BE000A06A0AF081F9014630460AF043FC18B1A8
:102BF0002B7843F040032B7000230B486B70FEF7DB
:102C00005BFFA16B0546E06A084C0AF06FF90146CC
:102C100028460AF011FC08B10123637070BD00BFA3
:102C20003493FF1F3093FF1FE494FF1FA094FF1FF6
:102C30002DE9F0417C4C2368012B82B031D0022B6E
:102C400000F0A880032B00F0C8803BBB774B784A8C
:102C5000D3F8A010D3F8A43012685B1A632B0EDDF2
:102C6000744803FB02F380FB0302DB17C3EB621320
:102C70001944062002B0BDE8F04106F0F7B86E48EE
:102C800003FB022380FB0302DB17C3EB2212114478
:102C9000062002B0BDE8F04106F0E8B802B0BDE899
:102CA000F081664E33680A33B3F57A7F00F3B7805C
:102CB000184633600AF0CEF961490AF01FFA8046DF
:102CC0005A4DD5F8A0000AF0C5F90746D5F8A4007A
:102CD0000AF0C0F939460AF007F941460AF00EFA3F
:102CE00058490AF0BFFA39460AF000F90AF0E2FB47
:102CF0000146062006F0BAF80221534807F0C0FF4B
:102D0000524805F013FC0621514807F0B9FF30681E
:102D10000AF0A0F94A490AF0F1F909F045FD022745
:102D200002460B460097494805F05AFC0D214948D8
:102D300007F0A6FFD5F8A0000AF08CF980463068AD
:102D40000AF088F93E490AF0D9F90646D5F8A400F8
:102D50000AF080F941460AF0C7F8014630460AF009
:102D6000CDF938490AF07EFA41460AF0BFF809F079
:102D70001BFD00970B460246344805F031FC3946EE
:102D8000314807F07DFF314805F0D0FB2368022B66
:102D90007FF458AF294B254E00221A60D6F8A000C8
:102DA0000AF058F90546D6F8A4000AF053F9294666
:102DB0000AF09AF800210AF0A1F922490AF052FA21
:102DC00029460AF093F80AF075FB0146062006F042
:102DD0004DF82368032B7FF438AF184B134E4FF494
:102DE0007A721A60D6F8A0000AF034F90546D6F8CF
:102DF000A4000AF02FF929460AF076F811490AF0E2
:102E00007DF910490AF02EFA29460AF06FF80AF007
:102E100051FB0146062006F029F8236815E7002338
:102E20004FF0000833604BE78C94FF1F3493FF1F73
:102E30003487FF1F1F85EB51CBF08D286092FF1F59
:102E4000CDCCCC3D0000C842902A0100C887FF1FAE
:102E50004C1E0100541E010070B5B548B54C05F07C
:102E600065FBB34805F062FBB14805F05FFB0D213F
:102E7000B14807F005FFD4F89C30012B11D0AF4CBE
:102E8000AB48217800230A2205F060FB2378052B4C
:102E900067D8DFE813F006010B01100115011A01D4
:102EA00001010921A64807F0EBFEA648FEF784FDC4
:102EB00021690AF0C1FA18B10F21A34807F0E0FE1A
:102EC000A048FEF79FFDE1680AF0D4FA18B10E2180
:102ED0009E4807F0D5FE9B48FEF794FD05469948AD
:102EE000FEF76AFD0146284609F0FEFFE16B0AF095
:102EF000C1FA18B11121964807F0C2FE9148FEF7B9
:102F0000DBFDA16A0AF0B6FA18B10C21914807F06E
:102F1000B7FE8C48FEF7D0FDE16A0AF08DFA18B1D1
:102F20000D218D4807F0ACFE8C4B86481B68012BA9
:102F300000F0E880FEF740FD21697E4D0AF09AFA24
:102F400078B18048FEF75EFDE9680AF075FA40B195
:102F50007A4B1B78052B00F0E6800821804807F0AB
:102F60008FFE02217F4807F08BFE122006F004F945
:102F7000012800F0AF80112006F0FEF8012800F0D3
:102F8000B380794B1B68012B00F0B7800221754894
:102F9000764C07F075FE764B6548196805F016FB10
:102FA000634805F0C3FA0421724807F069FE0B205C
:102FB00006F0E2F8002301460A225D4805F0C6FA51
:102FC0000C2006F0D9F8002301460A22584805F0E3
:102FD000BDFA142006F0D0F8002301460A22544816
:102FE00005F0B4FA152006F0C7F80A2200230146BE
:102FF0004F4805F0ABFA06215F4807F041FE236811
:10300000DD074FF001014CBF5C485D4807F038FE1A
:10301000236898074FF001014CBF5848584807F003
:103020002FFE23685A074FF001014CBF5348544804
:1030300007F026FE23681B074CBF5048504801216B
:1030400007F01EFE04214F4807F01AFE112006F07B
:1030500093F8002301460A22354805F077FA10203C
:1030600006F08AF8002301460A22314805F06EFA7C
:10307000122006F081F8002301460A222C4805F0B0
:1030800065FA132006F078F8002301460A22284842
:10309000BDE8704005F05ABA07213B4807F0F0FD43
:1030A0005FE70621394807F0EBFD5AE7072138486A
:1030B00007F0E6FD55E70721364807F0E1FD50E748
:1030C0000821354807F0DCFD4BE70B21334807F0BA
:1030D000D7FD46E70E21324807F0D2FD112006F059
:1030E0004BF801287FF44DAF0A212E4807F0C8FDA8
:1030F0001D4B1B68012B7FF449AF11212A4807F0B3
:10310000BFFD43E7FEF758FC216A0AF0B3F9002837
:103110003FF423AF1621254807F0B2FD0A212448C9
:1031200007F0AEFD1DE70A21214807F0A9FD18E7C9
:10313000C887FF1F3493FF1F641E01009C94FF1F6C
:10314000741E0100E494FF1F801E0100901E010008
:10315000A01E0100B41E0100C41E01006C92FF1FDE
:10316000F81E0100902A0100B894FF1FF493FF1F7E
:103170009094FF1F6C1F0100741F01007C1F010051
:10318000342C0100801F0100341F0100041F0100C6
:103190000C1F0100201F0100281F0100141F010047
:1031A0003C1F01004C1F0100581F0100D41E0100EC
:1031B000EC1E01002DE9F04F9B4C9C4FE36F012B5F
:1031C0008DB000F05981032B5AD0994E994DA36FC1
:1031D0009948012B09BF2968296801F1004129603C
:1031E00004F0DAFF3368002B40F0D880924804F0F6
:1031F000A9FFE36F3860012B064600F0DC808F49A1
:103200000AF038F9B8B98E4930460AF015F990B984
:103210008C4A8D4B12680B920B9A1A60D4F8A80056
:1032200009F018FF314609F069FF002338602B6070
:103230000DB0BDE8F08FDFF80CA2DFF80C82DAF8F1
:1032400000300A930A98D8F80030DFF82492C01AA8
:1032500009F0FCFE314609F051FF7C490AF002F802
:103260007A4909F0FFFFD9F8001009F03FFEDAF8BB
:1032700000300993099BC9F80000C8F80030CDE779
:10328000DFF8D081724DD8F80000694E012300228A
:103290000F212B6004F08EFB2B68012B336800F0AC
:1032A0000981002B40F0AC810021D8F80000DFF844
:1032B000C491684D04F0D0FB33681FFA80FBC9F855
:1032C00000B0002B40F081810021D8F80000594D5A
:1032D000DFF880A104F046FBB4F8863040F6E44104
:1032E00001FB0BF1B1FBF0F0C01A00B209F0B2FE25
:1032F00059498346D4F8880009F000FF0146584632
:1033000009F0B0FFD9F800302860632BDFF864B112
:1033100000F34F8100232B603368002B3FF457AF3D
:1033200002214E4807F0ACFCD9F80020D8F8000084
:1033300040F6E443002103FB02F804F013FBB8FB62
:10334000F0F009F083FE8046B4F8860009F082FEB2
:103350000146404609F0C8FD09F026FA4FF0020880
:1033600002460B46CDF800803D4805F039F941464C
:103370003A4807F085FC286809F016FACDF8008075
:1033800002460B46364805F02BF94146354807F012
:1033900077FC4146314807F073FC18E7264804F0F3
:1033A000D1FE09F001FA022602460B4600962C488F
:1033B00005F016F91AE7264B1B68012B00F02C814B
:1033C000022B7FF42BAF28490AF054F830B9274973
:1033D00030460AF031F8002800F05381DFF864A08D
:1033E000DFF86480DAF8003007930798D8F80030E7
:1033F000DFF87C90C01A09F029FE314609F07EFE04
:10340000124909F02FFF114909F02CFFD9F80010DB
:1034100009F06CFDDAF800300693069BC9F800004D
:10342000C8F80030FAE600BF3493FF1F7892FF1F00
:10343000DC94FF1F6892FF1F0C93FF1F0000FA43EC
:103440000000FAC348C2FF1FAC94FF1F00007A447B
:103450005087FF1FB094FF1F17B7D138902A010083
:10346000C887FF1FC41F010000C82F4800A08CC6DA
:103470008492FF1F2C93FF1F3D689B49284609F04B
:10348000DBFF30B12846994909F0F4FF00287FF4AA
:10349000F7AEDFF86482964DD8F80000954E02230F
:1034A00000220E212B6004F085FA2B68012B336873
:1034B0007FF4F7AE002B40F006810021D8F8000021
:1034C000DFF874928C4D04F0C7FA33681FFA80FB62
:1034D000C9F800B0002B40F0DB800021D8F80000D4
:1034E000864D04F03FFAB4F8843040F6E44A0AFB13
:1034F0000BFBBBFBF0F0C01A00B209F0ABFD80493A
:103500008346D4F88C0009F0F9FD0146584609F0CD
:10351000A9FED9F8003028600021D8F800000AFB85
:1035200003FA04F01FFAB4F88430BAFBF0F00FFA93
:1035300080FAC3EB0A03002BB4F8B620B8BF5B4295
:103540009342BCBF00232B603368002B3FF43FAE97
:1035500002216C4807F094FBD9F80020D8F800004D
:1035600040F6E443002103FB02F804F0FBF9B4F851
:103570008410B8FBF0F000B2411A634805F026F859
:103580000221604807F07CFB286809F00DF94FF034
:10359000020802460B46CDF800805B4805F020F893
:1035A00003215A4807F06CFB4146564807F068FB78
:1035B0000DE6DAF80000002104F0D4F9DBF8003061
:1035C00064389842FFF4A6AEA6E60021286804F00D
:1035D000C9F940F6E44100230A2201FB0BF1B1FBDB
:1035E000F0F1494804F0B2FF0221464807F048FBD9
:1035F000B4F88610444804F0E9FFD9F800B063E657
:10360000414804F093FF0C21414807F039FB0C219D
:10361000404807F035FB47E63F4909F02BFF58B912
:103620003E49304609F008FF30B93D4A3D4B12682B
:103630000592059A1A60F1E5DFF8E4A0DFF8E4806E
:10364000DAF8003004930498D8F80030DFF8EC90F2
:10365000C01A09F0FBFC314609F050FD324909F06F
:1036600001FE314909F0FEFDD9F8001009F03EFCD9
:10367000DAF800300393039BC9F80000C8F8003063
:10368000CCE5274A274B12680892089A1A60C5E5CC
:103690000021286804F066F940F6E44100230A227C
:1036A00001FB0BF1B1FBF0F1174804F04FFF0121D2
:1036B0001E4807F0E5FAB4F88410134804F086FFBA
:1036C000D9F800B009E7104804F030FFE36F012B90
:1036D0004FF00B010CBF1648164807F0D1FA0C2129
:1036E0000C4807F0CDFAE8E600709446007094C6E6
:1036F0005087FF1FDC94FF1FB094FF1F6892FF1FCD
:1037000017B7D138902A0100C887FF1FB01F0100EA
:10371000B41F0100A01F01000000FA430000FAC31B
:1037200048C2FF1FAC94FF1F00007A44601E0100D6
:10373000881F0100941F01002C93FF1F8492FF1F1C
:103740002DE9F047A84D2B6884B043B9A74B1B68FF
:103750000393039A42F210739A4200F28A80A44CB7
:10376000DFF89482E36FA34EA14D012B00F0C580DA
:10377000D4F880309E4F012B00F0F180D6F80090F5
:10378000D7F858A07D6D9C4F05FB0AF54FF47A7071
:1037900000FB05F009F05EFC98490546484609F033
:1037A000ADFC294609F05EFD954909F0A7FC09F03A
:1037B00081FE6328C8F800004ADD28468F4909F0D9
:1037C00051FD642330603B608E4B1B68002B3CD066
:1037D000E36F874D012B40D0032B00F0F380022BC9
:1037E00000F0EB800221884807F04AFA874B1868FE
:1037F00008F0DAFF022402460B460094844804F0E5
:10380000EFFE2146834807F03BFA21467E4807F049
:1038100037FAD8F800107E4804F0D8FE06217E481A
:1038200007F02EFA3068754909F068FC08F0BCFF13
:10383000009402460B46764804F0D2FE03217748F6
:1038400007F01EFA724804F071FE04B0BDE8F0877C
:103850000028BCBF00233B60B6E7714B1B68012BFF
:103860004FF00A010CBF6F486F4807F009FAEB6F81
:10387000B2E76E485E4CFEF793F96D49A76EE66EAF
:1038800009F03CFC09F03CFE226F636FD21B9B1BCE
:1038900080B29A42A0EB070040F39A8003FB00003D
:1038A000531C90FBF3F39819A26DDFF84C81636D04
:1038B000C8F8000002FB00F003FB00F000EB800002
:1038C000400009F0C7FB4D494A4E09F0CBFC0123EB
:1038D000022130604C482B6007F0D2F94C48444D2F
:1038E00004F024FE5921534807F0CAF9484804F06F
:1038F0001DFEE36F012B7FF43BAF4C48FEF750F900
:103900004B49D5F86890EF6E09F0F8FB09F0F8FD27
:103910002A6F6B6FC9EB0202DB1B80B29A42C9EBC4
:1039200000005BDD03FB0000531C90FBF3F31F441E
:10393000A06D636DC8F8007000FB07F003FB00F09A
:1039400000EB8000400009F085FB2C49284F09F06E
:1039500089FCD4F880303060012B7FF40FAF3348FE
:10396000FEF71EF93249D7F86890FD6E09F0C6FBE4
:1039700009F0C6FD3A6F7B6FD4F858A0C9EB02027C
:103980005B1B80B29A42C9EB0000C6BF03FB00007C
:103990000132584390FBF2F02844656D00FB0AF0B9
:1039A00005FB00F000EB8000400009F053FB1349D9
:1039B00009F058FC81463060E5E607211E4807F013
:1039C0005FF90FE710211D4807F05AF9E36F06E78A
:1039D00003FB00F393FBF2F3981965E703FB00F395
:1039E00093FBF2F31F44A3E76492FF1F48C2FF1F3B
:1039F0003493FF1F8492FF1F3487FF1FE4388E3EED
:103A00000000C8423C87FF1F902A01007892FF1FE8
:103A1000C887FF1FC41F010058200100602001005B
:103A20005087FF1F2420010030200100E494FF1F75
:103A300000007A44C81F0100502001003C20010012
:103A400030B5112083B005F097FB012818D0122063
:103A500005F092FB012813D000210B2005F086FB16
:103A600000210C2005F082FB0021152005F07EFBD3
:103A70002649274B0120002208701A6003B030BD90
:103A80000121152005F072FB224A234C234B1268BA
:103A9000D4F8901001921B68019A1D4D0B4493427B
:103AA0004FF00201296005D901210C2005F05EFBD1
:103AB00003B030BDD4F8980009F0CCFA184B19685F
:103AC00009F0BAFC0028EFD101210B2005F04EFBD4
:103AD00094F8BC3003242C6043B10C4B02221A70C2
:103AE00000210C2005F042FB03B030BD122005F090
:103AF00043FB012808BF054B4FF0110008BF1C70A5
:103B000005F03AFB0128EBD1E7E700BF9C94FF1FCB
:103B1000D894FF1F48C2FF1F3493FF1FE094FF1F7C
:103B20007892FF1FF0B5684E684D34682B689C4250
:103B300087B039D014F0010155D014F0020149D0FA
:103B400014F004013DD0E3070ED52B68DF070BD43A
:103B50005F4F3A68002A00F082805E4B1B68019339
:103B6000019B93426DD83468A0070DD52B68990747
:103B70000AD4594F3A68002A4CD0564B1B6803931D
:103B8000039B934238D8346862070DD52B685B07D6
:103B90000BD4524F3A68002A7ED04E4B1B680593D7
:103BA000059B934268D834680CB107B0F0BD21463C
:103BB000162005F05BF92146172005F057F907B0EC
:103BC000F0BD052005F052F92B68346803F0FB03C3
:103BD0002B60B8E7172005F049F92B68346803F02B
:103BE000FD032B60ACE7162005F040F92B68346824
:103BF00003F0FE032B60A0E7394B1720D3F8941095
:103C000005F034F92B68346843F0020300222B607E
:103C10003A60B9E7334804F089FC0C21324807F0D8
:103C20002FF8304804F082FCFF21172005F01EF920
:103C3000284B2E4A19680291029912680A443A6088
:103C40009CE7274B1620D3F8941005F00FF92B684A
:103C5000346843F0010300222B603A6084E7FF21BF
:103C6000162005F003F91B4B204A196800910099B2
:103C700012680A443A6071E7194B0520D3F8941092
:103C800005F0F4F82B68346843F0040300222B603D
:103C90003A60002C89D18AE7124804F047FC0C21D5
:103CA000134806F0EDFF0F4804F040FCFF2105200B
:103CB00005F0DCF8074B0D4A196804910499126865
:103CC0000A443A606AE700BFD894FF1FF493FF1FCD
:103CD0007094FF1F48C2FF1F7494FF1F7894FF1F4A
:103CE0003493FF1FC887FF1F642001006887FF1FF0
:103CF000742001002DE9F047544EDFF87481DFF89D
:103D000074913068524D00220F2103F053FE0023BE
:103D1000012222214F48C8F80030C9F8002006F0DF
:103D2000AFFFD8F80030132B22DC40F6E447002127
:103D30003068B5F884A003F08FFE00210446306897
:103D400003F010FEA4B2012107FB04F4B4FBF0F46D
:103D500041485444A5F8844006F092FF642005F0E1
:103D600041FAD8F800300133132BC8F80030DEDDFB
:103D7000B5F88430394A3A48A2FB03129B1A02EB89
:103D80005303C3F30F131946A5F8843004F01EFC47
:103D90001D21344806F074FF0221334806F070FFFD
:103DA0002F4804F0C3FB00231A460E213068C8F8E0
:103DB000003003F0FFFD022322212648C9F800301D
:103DC00006F05EFFD8F80030132B22DC40F6E44703
:103DD00000213068B5F8869003F03EFE00210446CD
:103DE000306803F0BFFDA4B2012107FB04F4B4FB6B
:103DF000F0F419484C44A5F8864006F041FF6420D1
:103E000005F0F0F9D8F800300133132BC8F8003072
:103E1000DEDDB5F88630114A1148A2FB03129B1A69
:103E200002EB5303C3F30F131946A5F8863004F0D1
:103E3000CDFB1D210D4806F023FF02210A4806F0A4
:103E40001FFF0748BDE8F04704F070BBB094FF1FA8
:103E50003493FF1F84200100C82001008761188669
:103E6000C887FF1FA8200100902A0100CC20010074
:103E70009494FF1F5087FF1FA24B2DE9F0411B6850
:103E8000A14CA24D40F2513108222160E271286D0F
:103E9000002B40F0E48009F0DDF86969064609F07E
:103EA0002DF99B49994F09F029F909F029FB80B2B6
:103EB00003126372974A984B12681B68A969A37230
:103EC00015121B12E372227320726573304609F0DB
:103ED00015F98F498C4E09F011F909F011FB83B2E5
:103EE0001A1231468D48A373E27303F085FB8C4BA5
:103EF0008C4A1B681288A272DDB205EB850125721F
:103F000003EB8305490045F3D71540F2553E1212E5
:103F10004FF008081B1221736573314600257F4856
:103F2000C4F800E0E2726372A573E57384F8078059
:103F300003F062FB40F256337B48236084F807802D
:103F4000FDF784FD794909F0D9F809F0D9FA207212
:103F50007548FDF77BFD754909F0D0F809F0D0FAF6
:103F6000734A7249C0F307236372106809F07AF943
:103F700009F0A0FA40FA08F203466B48E272A37215
:103F8000FDF79AFD624909F0B9F809F0B9FA207312
:103F90006548FDF791FD5E4909F0B0F809F0B0FA07
:103FA0003146C0F307235D486373A573E57303F0DF
:103FB00023FB022005F016F95E4B25731A78597819
:103FC0006573A573E57322729D78DA78617240F2A9
:103FD0005A3331465148A572E272236084F8078053
:103FE00003F00AFB544B4D481A78597822726172DB
:103FF0009A78D978A272E1721A7959799D792273E7
:104000006173DA79E27340F25E3331462360A5735F
:1040100084F8078003F0F0FA022005F0E3F8474B3C
:104020003E481A785978227261729A78D978A272C9
:10403000E1721A7959799D7922736173DA7984F87A
:1040400007804FF45C7331462360A573E27303F07D
:10405000D3FA3B4B1B68012B06D0BDE8F08108F07A
:10406000F9FF296A06461AE72F48FDF7A5FCF96C07
:1040700008F03CFF05462C48FDF7C4FC01462846E5
:1040800009F0DAF90028E8D040F2C333264886F870
:1040900007803360FDF790FCBD6C294609F0CCF930
:1040A000D0B12849284609F029F809F029FA80B248
:1040B00040FA08F3707233720023012604250322AC
:1040C000A672E57222736373A373E3730E491348F8
:1040D000BDE8F04103F090BA1348FDF76DFC1949B3
:1040E00009F00CF809F00CFAC0F307230E483372FC
:1040F000FDF762FC134909F001F809F001FA70724A
:10410000DAE700BF6C92FF1FC894FF1F3493FF1FB4
:1041100000002041A894FF1F5092FF1F84C0FF1F82
:104120003487FF1F3887FF1FE494FF1F0000C84239
:104130007892FF1F3093FF1F2C87FF1F5487FF1FAC
:10414000B894FF1F00007A44F0B59C4C9C4D83B09E
:1041500006F030FD23682860042B00F0AC82022BAF
:104160004BD0082B00F09280072B40F05181332870
:1041700001F0F98300F3AD80312801F00784322883
:1041800040F0B08006F052FD002840F33F818D489A
:104190008D4E04F05FFB08F05DFF8C4908F0AEFF28
:1041A00061230122F06322602B601846A0F15203C4
:1041B0001F2B01F2B683DFE813F0420BB40BB40BF4
:1041C000B40BB40BB40BB40BB40BB40BB40BB40BF7
:1041D000B40BB40BB40BB40BB203D20C3B05A90562
:1041E0007304B40BB40BB40B2604B40BD50CB40B92
:1041F000B40BB40BB40BB40B300BA0F13102422A58
:1042000070D8DFE812F0F206FE060C0719072C073B
:104210003B076F006F006F006F006F006F006F0053
:104220006F006F006F006F006F006F006F006F0016
:104230006F006F006F006F006F006F006F006F0006
:104240006F006F006F006F006F006F006F006F00F6
:104250006F006F006F006F006F006F006F006F00E6
:104260006F006F006F006F006F00DF066F006F0060
:104270006F006F006F006F006F006F006F006F00C6
:104280006F006F006F006B006F00E506322800F0D2
:104290002F83712822D0312824D106F0C7FC0028B2
:1042A00040F3D1854748484E04F0D4FAC0B286F8AE
:1042B0004000022894BF01460021726C444888BF28
:1042C00086F84010FDF7C6FB0123692023602860B3
:1042D0006CE7342801F03583712803D10023732063
:1042E00023602860002B08BF73280CBF012000202A
:1042F000002860D0334804F019F90421354806F04D
:10430000BFFC304804F012F91021334806F0B8FC25
:104310002C4804F00BF91321304806F0B1FC304B67
:104320002848196804F052F9264804F0FFF81421CF
:104330002C4806F0A5FC234804F0F8F81E212A4872
:1043400006F09EFC1F4804F0F1F81521274806F0FE
:1043500097FC1C4804F0EAF81E21254806F090FC62
:10436000184804F0E3F82021224806F089FC15489B
:1043700004F0DCF81921204806F082FC114804F012
:10438000D5F812211D4806F07BFC0E4804F0CEF84B
:104390000F211B4806F074FC0A4804F0C7F80D21F1
:1043A000184806F06DFC074804F0C0F8164A0021D2
:1043B00001231160236003B0F0BD00BF8892FF1F8E
:1043C0007492FF1FC887FF1F3493FF1F6F12833A39
:1043D000E494FF1F0C290100142901002829010081
:1043E0002487FF1F3C290100542901007429010082
:1043F0008C290100AC290100D0290100EC29010021
:10440000002A0100102A01003C87FF1F236828684A
:10441000062B40F08D80A0F13102402A3FF662AFBA
:1044200001A151F822F000BF514E00007D4E000066
:10443000A94E0000CF4E0000F54E0000134F0000C3
:10444000B14F0000E5420000E5420000E5420000F7
:10445000E5420000E5420000E5420000E5420000C0
:10446000E5420000E5420000E5420000E5420000B0
:10447000E5420000E5420000E5420000E5420000A0
:10448000E5420000E5420000E5420000E542000090
:10449000E5420000E5420000E5420000E542000080
:1044A000E5420000E5420000E5420000E542000070
:1044B000E5420000E5420000E5420000E542000060
:1044C000E5420000E5420000E5420000E542000050
:1044D000E5420000E5420000E5420000E542000040
:1044E000E5420000E5420000E5420000E542000030
:1044F000E5420000E5420000E5420000E542000020
:10450000E5420000E5420000E5420000E54200000F
:10451000E5420000E5420000E5420000E5420000FF
:10452000E5420000E5420000DD4200002368286803
:10453000052B15D1332801F0508240F347813528EF
:1045400001F07282C1F25A8271287FF4CBAEDC4A4C
:1045500000237320136023602860C3E62368286863
:10456000032B40F0A480A0F13002422A3FF6BAAEFD
:1045700001A151F822F000BF854600002557000038
:10458000D3550000FB5500001D5600003F560000AB
:104590004D5700007557000093570000B7570000B3
:1045A000E5420000E5420000E5420000E54200006F
:1045B000E5420000E5420000E5420000E54200005F
:1045C000E5420000E5420000E5420000E54200004F
:1045D000E5420000E5420000E5420000E54200003F
:1045E000E5420000E5420000E5420000E54200002F
:1045F000E5420000E5420000E5420000E54200001F
:10460000E5420000E5420000E5420000E54200000E
:10461000E5420000E5420000E5420000E5420000FE
:10462000E5420000E5420000E5420000E5420000EE
:10463000E5420000E5420000E54200006756000048
:104640007F510000DF570000FD570000C7560000F3
:10465000E55600003551000059510000E5420000C8
:10466000E5420000E5420000E5420000E5420000AE
:10467000E5420000E5420000E542000085560000EA
:104680009156000006F0D2FA002841F353818D487C
:104690008D4E04F0DFF801270346014662228B4865
:1046A000736527602A60FDF7D3F923682868012B1A
:1046B0007FF418AE7AE5A0F13102402A3FF612AE3F
:1046C00001A151F822F000BF97500000AF50000048
:1046D000B3500000D9500000DD500000F950000038
:1046E0000B5100000F51000013510000E542000083
:1046F000E5420000E5420000E5420000E54200001E
:10470000E5420000E5420000E5420000E54200000D
:10471000E5420000E5420000E5420000E5420000FD
:10472000E5420000E5420000E5420000E5420000ED
:10473000E5420000E5420000E5420000E5420000DD
:10474000E5420000E5420000E5420000E5420000CD
:10475000E5420000E5420000E5420000E5420000BD
:10476000E5420000E5420000E5420000E5420000AD
:10477000E5420000E5420000E5420000E54200009D
:10478000E5420000E5420000E5420000E54200008D
:10479000E5420000E5420000E5420000E54200007D
:1047A000E5420000E5420000E5420000E54200006D
:1047B000E5420000E5420000E5420000E54200005D
:1047C000E5420000E5420000DD420000312801F032
:1047D000F38032287FF486AD06F028FA00287FF7B0
:1047E000BDAE3848384E04F035F801226B23C6F8C8
:1047F000980022602B6001E006F0DCF906F016FA62
:104800000028F9D12F4803F091FE2E4803F08EFEC8
:104810002C4803F08BFE2B4803F088FE294803F058
:1048200085FE21212A4806F02BFA264803F07EFE59
:104830001521284806F024FAD6F89010214803F0F4
:10484000C5FE0221244806F01BFA1E4803F06EFE46
:104850001E21224806F014FAD6F89810194803F0E1
:10486000B5FE03211E4806F00BFA164803F05EFE63
:104870001E211C4806F004FAD6F89410114803F0E3
:10488000A5FE104803F052FE1D21174806F0F8F966
:10489000D6F8A0100B4803F099FE0A4803F046FE34
:1048A0001E21124806F0ECF9D6F8A410054803F0D2
:1048B0008DFE044803F03AFE052323607BE500BF2C
:1048C0008C94FF1FC887FF1F3493FF1FE494FF1FC2
:1048D00084230100A823010094220100C0230100C9
:1048E000B01F0100E023010000240100202401008A
:1048F00006F09CF9002840F3A282B348B34E03F0BF
:10490000A9FF08F0A7FBB24908F0F8FB03460246EE
:1049100096F84010AF487364D4E406F04BF906F003
:1049200085F905460028F8D1A748A84E03F0FEFDFA
:10493000A54803F0FBFDA44803F0F8FDA24803F0EE
:10494000F5FDA14803F0F2FD1F21A34806F098F9F8
:104950009D4803F0EBFD1C21A04806F091F9706A18
:104960009F4908F0CBFB07F01FFF009502460B465E
:10497000954803F035FE02219A4806F081F99248E5
:1049800003F0D4FD2321984806F07AF9F06B94499E
:1049900008F0B4FB07F008FF009502460B468A4872
:1049A00003F01EFE02218F4806F06AF9864803F0E4
:1049B000BDFD19218D4806F063F9B06B07F0F4FED8
:1049C00002250B46024600957F4803F009FE294662
:1049D000874806F055F97C4803F0A8FD1921854861
:1049E00006F04EF9B6F8B410774803F0EFFD032156
:1049F000814806F045F9744803F098FD07232360C9
:104A0000D9E406F0D7F806F011F905460028F8D1E8
:104A10006D486E4E03F08AFD6B4803F087FD6A48CF
:104A200003F084FD684803F081FD674803F07EFDD4
:104A30001521724806F024F9634803F077FD182128
:104A40006F4806F01DF92B460A2296F840105E4882
:104A500003F07CFD5C4803F069FD2821694806F0FD
:104A60000FF9706C5E4908F049FB07F09DFE009558
:104A70000B460246544803F0B3FD0221594806F0A4
:104A8000FFF8514803F052FD13215F4806F0F8F893
:104A90004D4803F04BFD082323608CE406F08AF8B0
:104AA00006F0C4F805460028F8D14748474E03F001
:104AB0003DFD454803F03AFD434803F037FD4248C9
:104AC00003F034FD404803F031FD11214F4806F05A
:104AD000D7F83D4803F02AFD28214D4806F0D0F8CC
:104AE00070693F4908F00AFB07F05EFE0095024638
:104AF0000B46354803F074FD02213A4806F0C0F831
:104B0000314803F013FD1621424806F0B9F8F06968
:104B1000334908F0F3FA07F047FE00950B460246CA
:104B2000294803F05DFD02212E4806F0A9F8264829
:104B300003F0FCFCD6F8AC30002B32DD1D213648EA
:104B400006F09EF8F06D08F085FA344908F0D6FAC0
:104B500007F02AFE022502460B4600951A4803F08C
:104B60003FFD01212E4806F08BF8174803F0DEFCCC
:104B70001F212C4806F084F8306E08F06BFA2749A4
:104B800008F0BCFA07F010FE009502460B460E48EE
:104B900003F026FD0121224806F072F80A4803F0CE
:104BA000C5FC1121204806F06BF8D6F8AC30062B76
:104BB00000F26286DFE813F09C0697065C06B006FA
:104BC000AB06A606A10600BFC887FF1F3493FF1FD0
:104BD0006F12833AE494FF1FE022010000230100DA
:104BE00000007A44642101002023010044230100D5
:104BF000602301006423010080230100D429010007
:104C00001C210100382101006821010078290100E0
:104C10007C210100A8210100C0210100CDCCCC3DA8
:104C200064260100E02101000022010005F0C2FF1E
:104C300005F0FCFF0028F9D1BF48C04E03F076FC18
:104C4000BD4803F073FCBC4803F070FCBA4803F0A5
:104C50006DFCB94803F06AFC1F21B94806F010F852
:104C6000B54803F063FC1E21B64806F009F8B248C7
:104C700003F05CFC1A21B44806F002F8F36F022B33
:104C800000F03C87032B00F03087012B00F03F87BA
:104C90000921AE4805F0F4FFA74803F047FC1421B2
:104CA000AB48A64F05F0ECFFB16FA34803F08EFCB4
:104CB000A14803F03BFC1C21A64805F0E1FFD6F813
:104CC00080109D4803F082FC9B4803F02FFC1C21C0
:104CD000A14805F0D5FFD6F8A810974803F076FC58
:104CE000954803F023FCF56F25F00205012D00F037
:104CF000B6861321994805F0C3FF8F4803F016FCD0
:104D000002232360FFF757BB05F054FF05F08EFF29
:104D10000028F9D1884803F009FC874803F006FC15
:104D2000854803F003FC844803F000FC824803F04C
:104D3000FDFB13218A4805F0A3FF7F4803F0F6FB33
:104D40000D21884805F09CFF7B4803F0EFFB0F2105
:104D5000854805F095FF854B7748196803F036FCC8
:104D6000754803F0E3FB1321814805F089FF814B6F
:104D70007148196803F02AFC6F4803F0D7FB122131
:104D80007D4805F07DFF7D4B6B48196803F01EFCE4
:104D9000694803F0CBFB1121794805F071FF794B8D
:104DA0006548196803F012FC634803F0BFFB0E214D
:104DB000754805F065FF614B5F48D3F89C1003F020
:104DC00005FC5D4803F0B2FB1921704805F058FF5F
:104DD0006F4B5948196803F0F9FB574803F0A6FBDD
:104DE00011216C4805F04CFF6B4B5348196803F0D8
:104DF000EDFB514803F09AFB1021684805F040FF95
:104E0000674B4D48196803F0E1FB4B4803F08EFBFC
:104E10001C21644805F034FF634B4748196803F0D0
:104E2000D5FB454803F082FB13214C4805F028FFD1
:104E3000414803F07BFB04232360FFF7BCBA2368DF
:104E40002868FFF791B93D4E96F84000FFF731BA58
:104E500005F0ECFE00287FF769AB3748374E03F0CA
:104E6000F9FC08F0F7F8514908F0FCF96523012234
:104E7000706122602B601846FFF798B905F0D6FEE6
:104E800000287FF753AB2C482C4E03F0E3FC08F0CE
:104E9000E1F8464908F0E6F965230122F061226055
:104EA0002B601846FFF782B905F0C0FE00287FF797
:104EB0003DAB2148214E03F0CDFC00EB80004300C8
:104EC00001226520F36522602860FFF76FB905F0C5
:104ED000ADFE00287FF72AAB1748184E03F0BAFC46
:104EE00000EB8000430001226520336622602860C9
:104EF000FFF75CB9114AD2F8AC300133062BC8BFBA
:104F00000023C2F8AC300123652023602860FFF73E
:104F10004DB905F08BFE00287FF708AB0648074E19
:104F200003F098FC65230122C6F8B00022602B60D4
:104F30001846FFF73BB900BFC887FF1F3493FF1F18
:104F4000242501004425010064250100DC25010021
:104F5000E82501000026010020260100682101004B
:104F60004024010054240100642401006C94FF1FBC
:104F700074240100DC94FF1F88240100C094FF1FEB
:104F80009C240100C494FF1FB0240100C024010030
:104F90009094FF1FDC2401008C94FF1FF02401007B
:104FA0007092FF1F042501005C87FF1F00007A44F8
:104FB0007A4B93F8BC20002A00F04485002283F845
:104FC000BC20A0E7FEF796FE23682868FFF7C9B863
:104FD000724AD36F0133032BC8BF0023D367012369
:104FE000632023602860FFF7E1B86C4EB36FB3FA1B
:104FF00083F35B0901226320B36722602860FFF717
:10500000D5B8664ED6F88030B3FA83F35B09012237
:105010006320C6F8803022602860FFF7C7B80123FC
:10502000236005F003FE0028D9DD5D485B4E03F0E8
:1050300011FCC6F8A800D2E70123236005F0F6FDB5
:10504000002807DD5648554E03F004FC08F002F82E
:10505000C6F88C00632028602368FFF785B8012319
:10506000236005F0E3FD0028F4DD4D484B4E03F0CE
:10507000F1FB07F0EFFFC6F88800EBE701232360A0
:1050800005F0D4FD0028E5DD4548444E03F0E2FB81
:10509000A6F8B600DEE7434A1368B3FA83F35B0968
:1050A00001216420136021602860FFF77FB83E4A29
:1050B000F2E73E4A3E4F1368002B0CBF012300234A
:1050C0004FF001001360206040F0F9840346642231
:1050D0002A606420FFF745B8364ADDE72F4ED6F840
:1050E0009C30B3FA83F35B0901226420C6F89C303C
:1050F00022602860FFF75AB801232F482360FCF78D
:1051000035FB2E4A23681060E1E72D4AC4E72D4A9B
:10511000C2E70123236005F089FD002800F397848E
:10512000294B1A68042AC4BF02221A6064232B6028
:105130002368CEE705F07AFD00280DDD1848174EEC
:1051400003F088FB07F086FF204908F08BF8012266
:105150006223306222602B6005F068FD00280EDDBE
:105160000F480E4E03F076FB07F074FF174908F066
:1051700079F801226223C6F8B80022602B6005F09E
:1051800055FD002840F3D6830548044E03F062FB2A
:1051900001226223B06622602B601BE03493FF1F64
:1051A000C887FF1F6C94FF1FDC94FF1FC094FF1F74
:1051B0008892FF1FC494FF1FE494FF1F9094FF1F69
:1051C0008C94FF1F7092FF1F5C87FF1F00007A44C2
:1051D00005F0F0FC05F02AFD05460028F8D1C2488C
:1051E00003F0A4F9C04803F0A1F9BF4803F09EF909
:1051F000BD4803F09BF9BC4803F098F91521BB4862
:1052000005F03EFDB84803F091F91421B84805F0C7
:1052100037FDB54803F08AF91B21B64805F030FD8B
:10522000B14803F083F91321B34805F029FDAE48D6
:1052300003F07CF9AC4803F079F9AB4803F076F958
:105240002021AE4805F01CFDF068AD4907F056FF7F
:1052500007F0AAFA009502460B46A34803F0C0F9EE
:105260000221A84805F00CFD0221A74805F008FD21
:105270009D4803F05BF92121A44805F001FD306948
:105280009F4907F03BFF07F08FFA009502460B4657
:10529000954803F0A5F902219A4805F0F1FC022196
:1052A000994805F0EDFC904803F040F91F2198481B
:1052B00005F0E6FCB06A07F077FA022702460B46D3
:1052C0000097894803F08CF90121924805F0D8FC39
:1052D00039468D4805F0D4FC834803F027F9202196
:1052E0008D4805F0CDFCF06A07F05EFA00970246A3
:1052F0000B467D4803F074F90121864805F0C0FC97
:105300003946814805F0BCFC774803F00FF92321AA
:10531000824805F0B5FCB06C794907F0EFFE07F064
:1053200043FA009502460B466F4803F059F9394697
:10533000744805F0A5FC3946734805F0A1FC6A489D
:1053400003F0F4F81F21764805F09AFCF06C6C49E4
:1053500007F0D4FE07F028FA009502460B46624893
:1053600003F03EF93946674805F08AFC394666483D
:1053700005F086FC5C4803F0D9F81921694805F06E
:105380007FFCB16D584803F021F93946664805F0B5
:1053900077FC39465C4805F073FC534803F0C6F8C7
:1053A0001821624805F06CFC706E07F053FE6049EE
:1053B00007F0A4FE07F0F8F9009702460B464A48AA
:1053C00003F00EF901215B4805F05AFC39464E48BE
:1053D00005F056FC444803F0A9F82B21564805F087
:1053E0004FFCB069464907F089FE07F0DDF90095EA
:1053F00002460B463C4803F0F3F83946414805F0B5
:105400003FFC3946404805F03BFC374803F08EF836
:105410001F214A4805F034FC716D334803F0D6F87B
:105420003946394805F02CFC2F4803F07FF820213D
:10543000434805F025FC316D2B4803F0C7F8394689
:10544000314805F01DFC284803F070F810213D4854
:1054500005F016FCB16E244803F0B8F83946294827
:1054600005F00EFC3946284805F00AFC1E4803F0FA
:105470005DF81321344805F003FCF16E1A4803F07F
:10548000A5F80121314805F0FBFB39461E4805F01F
:10549000F7FB154803F04AF810212D4805F0F0FB02
:1054A000316F114803F092F83946164805F0E8FBD1
:1054B0003946154805F0E4FB0B4803F037F8142192
:1054C000244805F0DDFB716F074803F07FF80121E8
:1054D0001E4805F0D5FB39460B4805F0D1FB0248C4
:1054E00003F024F8162137E0C887FF1FAC2601001F
:1054F000C4260100DC26010068210100F826010015
:1055000000007A4464210100902A01001C27010058
:1055100040270100901C0100602701008427010042
:10552000A8270100C8270100E4270100E82701009F
:10553000CDCCCC3D642601000428010030280100B8
:105540005028010074280100882801009C280100CF
:10555000A0280100B4280100BA4805F091FB306A88
:10556000B94907F0CBFD07F01FF9009502460B463D
:10557000B64803F035F83946B54805F081FB3946A1
:10558000B44805F07DFBB14802F0D0FF2421B248B9
:1055900005F076FBD6F8B800AB4907F0AFFD07F091
:1055A00003F900950B460246A84803F019F839465E
:1055B000A74805F065FB3946A64805F061FBA348FE
:1055C00002F0B4FFA14802F0B1FF03232360FEF70D
:1055D000F2BE05F02BFB002840F3AC819B489F4EA8
:1055E00003F038F907F036FD974907F03BFE01223A
:1055F0006223306122602B60ECE505F017FB002888
:1056000040F398819148954E03F024F907F022FD6C
:1056100001226223B06222602B60DBE505F006FB0D
:10562000002840F3878189488C4E03F013F907F076
:1056300011FD01226223F06222602B60CAE505F0B1
:10564000F5FA002840F376818048844E03F002F991
:1056500007F000FD7C4907F005FE01226223B064DB
:1056600022602B60B6E505F0E1FA002840F3628184
:1056700076487A4E03F0EEF801226223306522600C
:105680002B60A7E50022732322602B60FEF732BE59
:10569000734B7048714E002202211A6005F0F0FA37
:1056A0006A4802F043FF0B216E4805F0E9FA022137
:1056B000684805F0E5FA654802F038FF01226223E8
:1056C00022602B6086E505F0B1FA002840F33281B4
:1056D0005E48624E03F0BEF80122622370672260CA
:1056E0002B6077E5FCF75AFF02215A485B4E05F024
:1056F000C7FA564802F01AFF0221564805F0C0FAD0
:10570000524802F013FF0221524805F0B9FA4F48FF
:1057100002F00CFF1721544805F0B2FA4B4802F092
:1057200005FFC4E705F082FA002840F303814748EB
:105730004A4E03F08FF807F08DFC434907F092FDC5
:1057400001226223F06022602B6043E505F06EFACF
:10575000002840F3EF803D48404E03F07BF807F00F
:1057600079FC394907F07EFD01226223F064226052
:105770002B602FE505F05AFA002840F3DB80334810
:10578000364E03F067F801226223B06522602B6079
:1057900020E505F04BFA002840F3CC802B482F4E33
:1057A00003F058F800EB8000430001216222736689
:1057B00021602A600EE505F039FA002840F3BA802E
:1057C0002248264E03F046F807F044FC1E4907F035
:1057D00049FD01226223B06122602B60FAE405F0EA
:1057E00025FA002840F3A68018481C4E03F032F832
:1057F00001226223F06622602B60EBE405F016FACA
:10580000002840F397801148144E03F023F801223A
:105810006223306722602B60DCE4C02200210F4845
:1058200003F00CF92868114AA0F17300012100234C
:10583000B0FA80F0400911602360FEF759BD04F012
:1058400087FB00BFCC28010000007A44C887FF1FF7
:1058500064210100902A0100E42801003493FF1F15
:105860006492FF1F10210100F82001003C87FF1FF8
:105870000C21BE4805F004FABD48BE4D02F056FEAC
:10588000D6F8AC30002B12DD1821BB4805F0F8F932
:10589000D5F8B010B64802F099FE0221B74805F0DD
:1058A000EFF9B34802F042FEB14802F03FFE1B217F
:1058B000B34805F0E5F996F8BC30012B15BF12216D
:1058C0001421B048B04805F0DBF9A94802F02EFEDB
:1058D0001321AE4805F0D4F9A54802F027FE0623AF
:1058E0002360FEF768BD0C21A94805F0C9F9C3E79C
:1058F0000D21A84805F0C4F9BEE70421A64805F02B
:10590000BFF9B9E70B21A54805F0BAF9B4E70D21B5
:10591000A34805F0B5F9AFE70D21A24805F0B0F9AD
:10592000AAE72368002B08BF73280CBF01200020C2
:10593000FEF7DEBC23682868012B7EF4D3ACFEF7AB
:1059400035BC05F073F900287EF760AD8848894EB4
:1059500002F080FF61230122A6F8B40022602B60D0
:105960001846FEF723BC05F061F900287EF74EAD1E
:105970007F48804E02F06EFF07F06CFB612301222E
:10598000B06322602B601846FEF710BC05F04EF99C
:1059900000287EF73BAD7648764E02F05BFF07F0BD
:1059A00059FB814907F0AAFB612301227062226042
:1059B0002B601846FEF7FABB05F038F900287EF791
:1059C000CDAD6B486B4E02F045FF01226B23C6F84C
:1059D000900022602B60FEF711BF05F027F9002828
:1059E0007EF7BCAD6248634E02F034FF01226B23A8
:1059F000C6F8940022602B60FEF700BF05F016F990
:105A000000287EF7ABAD5A485A4E02F023FF674B91
:105A1000C6F8A00002221A60FDF70AF901226B23E2
:105A200022602B60FEF7EABE05F000F900287EF741
:105A300095AD4F484F4E02F00DFF5C4BC6F8A400E9
:105A40000322E8E7012283F8BC20FFF75CBA48484C
:105A500002F000FF564B02461860FFF763BB1C21A3
:105A6000544805F00DF9D7F88C00534907F046FB70
:105A700006F09AFE009502460B463D4802F0B0FD46
:105A800005214E4805F0FCF8394802F04FFDFD6F46
:105A9000012D45D0032D7FF42CA91C21484805F089
:105AA000EFF8B6F8B610324802F090FD03214548F1
:105AB00005F0E6F82E4802F039FDFFF71AB9424B1F
:105AC000002631460B201E6003F050FB31460C20AF
:105AD00003F04CFB3146142003F048FB31461520FF
