:1000000000800020BD01000035710000ED7000008F
:10001000ED700000ED700000ED700000ED7000006C
:10002000ED700000ED700000ED7000003571000013
:1000300035710000ED700000418A0000458B000022
:100040003571000035710000357100003571000018
:100050003571000035710000357100003571000008
:1000600035710000357100003571000035710000F8
:1000700035710000357100003571000035710000E8
:1000800035710000357100003571000035710000D8
:1000900035710000357100003571000035710000C8
:1000A00035710000357100003571000035710000B8
:1000B0003571000009650000156500001965000034
:1000C00025650000296500002D65000035710000E0
:1000D0003571000035710000357100003571000088
:1000E0003571000035710000357100003571000078
:1000F000357100000591000035710000A9770000FE
:1001000035710000C17A00003571000035710000C2
:100110003571000035710000357100003571000047
:100120003571000035710000357100003571000037
:100130003571000035710000357100003571000027
:100140003571000035710000357100003571000017
:100150003571000035710000357100003571000007
:10016000357100000D7D0000357100003571000013
:1001700035710000357100003571000035710000E7
:1001800035710000357100003571000035710000D7
:1001900035710000357100003571000035710000C7
:1001A00035710000357100003571000035710000B7
:1001B000357100003571000035710000564B4CF26E
:1001C000205210B51A804DF628121A8000BF00BFC9
:1001D00006F0B4FF514B4FF010621A60504A9A601B
:1001E000504ADA60504A136813F4807304D14F49BF
:1001F0000B604FF4A85313604D4B1A78110703D5C9
:100200001A7842F008021A704A4B4B492A221A7097
:100210004A4A4B4B8B4204D252F8040F43F8040B6A
:10022000F8E7484B484900228B4202D243F8042B9E
:10023000FAE74649464A002352F8230041F82300D2
:1002400001336F2BF8D1434B434A802103F8011B44
:100250009342FBD1414B3D4A1A60414B8A221A70AE
:10026000A3F5805324225A70A0221A709A7992071B
:10027000FCD59A79D406FCD43A4A937903F00C035E
:10028000082B384BF9D103221A7140225A719A79FE
:100290009006FCD5334A9179324B4906FBD5324A58
:1002A000324911600221516020221A709A7902F0BD
:1002B0000C020C2AFAD12E4B2E4A1A602E4B2F4AD2
:1002C0001A6000225A60072243F8042C2C4AC3F813
:1002D0000C2D62B607F0E8F9144B1B68DA0705D558
:1002E000284806F0C5FF284B284A1A60284B1B787F
:1002F0005B0609D5244C254B22689A4204D121483B
:1003000006F0B6FF002323600BF000FA06F01CFF96
:1003100008F0B8FDFEE700BF0E2005403080044025
:10032000823F04000100002B10D0034014D0034092
:1003300002D0074000E007402092FF1F2410010078
:100340002087FF1F2092FF1FE0C2FF1F0082FF1FB8
:100350000000000000E400E05FE400E008ED00E0E1
:100360000050064000400640448004400000030165
:1003700004800440C010050014E000E0FF76010096
:1003800000002020DABBF55B1CE00340A5C3945AB3
:1003900000F00740FFFFFFFFFFFFFFFFFFFFFFFF32
:1003A000FFFFFFFFFFFFFFFFFFFFFFFFFFFFFFFF5D
:1003B000FFFFFFFFFFFFFFFFFFFFFFFFFFFFFFFF4D
:1003C000FFFFFFFFFFFFFFFFFFFFFFFFFFFFFFFF3D
:1003D000FFFFFFFFFFFFFFFFFFFFFFFFFFFFFFFF2D
:1003E000FFFFFFFFFFFFFFFFFFFFFFFFFFFFFFFF1D
:1003F000FFFFFFFFFFFFFFFFFFFFFFFFFFFFFFFF0D
:10040000FFFFFFFFFFFFFFFFFFFFFFFFDEF9FFFF23
:1004100010B5054C237833B9044B13B10448AFF33E
:1004200000800123237010BD2092FF1F00000000F8
:1004300020100100084B10B51BB108490848AFF364
:1004400000800848036803B910BD074B002BFBD0A0
:10045000BDE81040184700BF000000002492FF1FB5
:10046000201001002092FF1F00000000F0B400F1F6
:100470001C06104F00243146031F00F13C0243F8D4
:10048000044FB34241F8047F4FF0000542F8044F97
:10049000F5D1094A09490566002345668566C566A2
:1004A000C56702678267416780F8843080F89C30B6
:1004B000F0BC70470000A040000048430000C8C2E4
:1004C0002DE9F04190F89C4084B0202364008DF821
:1004D0000530E4B2042380468DF804408DF80630E0
:1004E0000327204607F088FA02210DF1050007F0E6
:1004F0008DFA8DF8044001F03FFB30B309214048EC
:1005000008F038F90023102221463E4808F034FB59
:1005100001213D4808F02EF9002310229DF8051016
:10052000384808F029FB0121374808F023F9002357
:1005300010229DF80610334808F01EFB01213248B6
:1005400008F018F92F4808F007FB02208DF8044046
:1005500007F05CF801F010FB00284CD102AE00243B
:1005600007F06AFA70B3072C1FD101E007F074FAA4
:1005700007F062FA0028F9D101F0FEFA10B1214823
:1005800008F0EAFA9DF80B009DF80C109DF80D207C
:100590009DF80E30C8F88800C8F88C10C8F8902074
:1005A000C8F8943004B0BDE8F08107F055FA05466C
:1005B00006F8010B01F0E0FA70B9013407F03CFADB
:1005C0000028D0D1072CD3D001F0D6FA78B9013F5A
:1005D000D8D09DF8044084E7E9B2002310220948EE
:1005E00008F0CAFA0121084808F0C4F8E5E7054810
:1005F00008F0B2FAEBE70721044808F0BBF8ADE7D2
:10060000D8F80000C087FF1FD8FF0000E4F8000002
:1006100090F88C00704700BF90F88800704700BFCA
:1006200090F89000704700BF90F89400704700BFAA
:10063000082994BF50F82100002070472DE9F041AF
:100640000B4E8046041F00F11C0754F8045F31462E
:1006500028460AF0D1FF30B1D8F8801028460AF0B9
:10066000E9FF00B12E46BC42EFD13046BDE8F08133
:10067000000020412DE9F041D0F880704FF00008D3
:10068000041F00F11C0654F8045F394628460AF09E
:10069000D1FF084948B128460AF0AEFF414620B1D3
:1006A00028460AF0C7FF00B1A846B442EBD1404645
:1006B000BDE8F081000070422DE9F047D0F880706D
:1006C00082464FF00009041F00F11C064FF000089D
:1006D00054F8045F394628460AF0ACFF0C4950B183
:1006E00028460AF089FF30B1484629460AF0DEFC68
:1006F00008F101088146B442EAD1CAF8A080404618
:100700000AF088FD014648460AF08CFEBDE8F087F5
:1007100000007042D0F8A000704700BF38B5846E6A
:10072000456E214628460AF067FF00B92C46204650
:1007300038BD00BFD0F898302DE9F041002B79D1B9
:10074000866E456E0446314628460AF0AFFCE76ED9
:10075000394680460AF0AAFC7E490AF063FE4FF053
:100760007C5104460AF066FF002861D04FF07C51AE
:1007700028460AF05FFF4FF07C51002860D12846E0
:100780000AF03AFF38B14FF07C5130460AF052FF80
:10079000002840F0A7804FF07C5128460AF04AFF1D
:1007A000002860D14FF07C5128460AF043FF002812
:1007B00040F0A1804FF07C5128460AF03BFF002812
:1007C0006CD14FF07C5128460AF016FF4FF07C5157
:1007D00010B330460AF02EFF38B14FF07C51384646
:1007E0000AF00AFF002840F0B0804FF07C513046FC
:1007F0000AF002FF002861D04FF07C5138460AF021
:1008000019FF002840F0A38038464FF07C510AF0D1
:10081000F3FE68B1504C10E028460AF0EDFE0028C7
:10082000E3D128464FF07C510AF0E6FE002845D17E
:10083000BDE8F08100EB8300046E2046BDE8F08146
:1008400030460AF0F7FE4FF07C5100283ED0384683
:100850000AF0F0FE0028F0D14FF07C5128460AF053
:10086000CBFE002859D14FF07C5130460AF0C4FE2F
:10087000002840D04FF07C5138460AF0DBFE0028BB
:1008800041D14FF07C5130460AF0D4FE68B14FF0B0
:100890007C5138460AF0B0FE00284FD14FF07C5111
:1008A00030460AF0A9FE00288BD04FF07C51384624
:1008B0000AF0A2FE002884D02C46BEE730464FF056
:1008C0007C510AF099FE0028B2D09DE728460AF034
:1008D00093FE0028C7D04FF07C5130460AF0AAFEA4
:1008E0000028C0D04FF07C5138460AF0A3FE002803
:1008F0003FF451AF18E04FF07C5130460AF09AFEB9
:100900000028CBD0C3E7394628460AF0CFFB4FF08A
:100910007C510AF0D3FC04468FE74FF07C513846F7
:100920000AF088FE00289ED0394630460AF0BEFB09
:100930004FF07C510AF0C2FC04467EE740464FF07F
:100940007C510AF0BBFC044677E7344675E73C4629
:1009500073E700BF000040400000A0C270B504462D
:10096000FFF7E8FE4FF07C510AF064FE28B3666E94
:100970004FF07C5130460AF05DFEA56EF0B9E46E92
:100980004FF07C5128460AF055FE58B129463046B2
:100990000AF050FE30B1214628460AF02DFE08B17B
:1009A0002C4620E04FF07C5120460AF043FE20B157
:1009B000284621460AF03EFE78B970BD30462946E9
:1009C0000AF01AFEE46E0028DAD0304621460AF01A
:1009D00013FE0028D4D0344605E0304621460AF004
:1009E00029FE0028E9D0204670BD00BF02292DE96C
:1009F000F8438046154600F0A880032972D00129EB
:100A00003FD0866E476E04684046FFF7A7FFD8F8D0
:100A1000701005460AF0F0FD08B1C8F8705039466C
:100A200030460AF007FE002854D13946D8F8740041
:100A30000AF0E2FD10B13E46C8F8746008F12006E5
:100A4000C14608F14005002701E059F8044F30681D
:100A500021460AF0EFFD0137214628B1D8F8800081
:100A60000AF0D4FD00B13460214628680AF0C4FDC4
:100A7000043600B12C60082F05F10405E5D1BDE86E
:100A8000F883137AC0F8A430D37A907A03EB00206D
:100A90000AF0C0FB46490AF011FCC8F864006B7B01
:100AA0000746287B03EB00200AF0B4FB40490AF01C
:100AB00005FCC8F86800EB7B0646A87B03EB00202A
:100AC0000AF0A8FB3A490AF0F9FBD8F80040C8F848
:100AD0006C0099E7D8F8741030460AF0ABFD002896
:100AE000AAD1ABE7537A107A03EB00200AF092FB0D
:100AF0002F490AF0E3FBC8F81000EB7AA87A03EB61
:100B000000200AF087FB2A490AF0D8FBC8F8140035
:100B10006B7B287B03EB00200AF07CFB24490AF066
:100B2000CDFBC8F81800EB7BA87B03EB00200AF094
:100B300071FB1F490AF0C2FBD8F86860C8F81C00B6
:100B4000D8F86470D8F800405EE7537A107A03EB67
:100B500000200AF05FFB16490AF0B0FBC8F800005D
:100B6000EB7A0446A87A03EB00200AF053FB104905
:100B70000AF0A4FBC8F804006B7B287B03EB002081
:100B80000AF048FB0A490AF099FBC8F80800EB7B19
:100B9000A87B03EB00200AF03DFB05490AF08EFB21
:100BA000D8F86860D8F86470C8F80C002CE700BF6B
:100BB0006F12833A2DE9F04F90F89C3091B00746C0
:100BC0005B008DF80830FFF77BFCD7F89000D7F872
:100BD0009440D7F88C30D7F8882097F89C108DE88F
:100BE0001100C94801F0C2F830223D2303268DF8D8
:100BF00009208DF80A300DF10A059DF8089049F09A
:100C00000108404606F0F8FE0DF10900022106F049
:100C1000FDFE8DF80880424602AB002050400824BB
:100C200010F0800F4FEA400018BF80F00700013C31
:100C3000C0B2F5D19D4202D013F8012FEEE706F0C5
:100C4000DBFE00F099FF002840F07C8202208DF846
:100C5000089006F0DBFC00F08FFF002840F0B8821F
:100C60000DF10C0AD146002406F0E6FE002843D020
:100C7000032C34D101E006F0EFFE06F0DDFE002883
:100C8000F9D100F079FF10B1A04807F065FF3123DA
:100C900003268DF809308DF80A609DF8089049F018
:100CA0000108404606F0A8FE0DF10900022106F0F9
:100CB000ADFE8DF80880424602AB0020504008246B
:100CC00010F0800F4FEA400018BF80F00700013C91
:100CD000C0B2F5D19D4228D013F8012FEEE706F0FF
:100CE000BBFE09F8010B804600F046FF68B90134ED
:100CF00006F0A2FE0028BBD1032CBED000F03CFFC2
:100D000078B9013E7FF479AFC1E75FFA88F100233B
:100D100010227E4807F030FF01217D4807F02AFDB0
:100D2000E5E77A4807F018FFEBE706F065FE00F00C
:100D300023FF002840F0C58102208DF8089006F0BE
:100D400065FC00F019FF002840F03D820DF10C0910
:100D5000002406F071FE002844D0032C35D101E0B8
:100D600006F07AFE06F068FE0028F9D100F004FFD4
:100D700010B1664807F0F0FE342201238DF80920F7
:100D80008DF80A3003269DF8089049F00108404686
:100D900006F032FE0DF10900022106F037FE8DF853
:100DA0000880424602AB00205040082410F0800F1B
:100DB0004FEA400018BF80F00700013CC0B2F5D1F7
:100DC0009D4228D013F8012FEEE706F045FE09F802
:100DD000010B804600F0D0FE68B9013406F02CFE0D
:100DE0000028BAD1032CBDD000F0C6FE78B9013E70
:100DF0007FF453AFC0E75FFA88F100231022434825
:100E000007F0BAFE0121424807F0B4FCE5E73F488D
:100E100007F0A2FEEBE706F0EFFD00F0ADFE0028C4
:100E200040F00E8102208DF8089006F0EFFB00F0F4
:100E3000A3FE002840F0D6810DF10C09002406F035
:100E4000FBFD002800F08480032C72D101E006F045
:100E500003FE06F0F1FD0028F9D100F08DFE10B17F
:100E60002A4807F079FE012212238DF809208DF817
:100E70000A304FF003089DF80840204606F0BCFDFC
:100E800002210DF1090006F0C1FD8DF8084000F0C7
:100E900073FE30B309211F4807F06CFC00231022B9
:100EA00021461A4807F068FE0121194807F062FC44
:100EB000002310229DF80910144807F05DFE01215F
:100EC000134807F057FC002310229DF80A100F4822
:100ED00007F052FE01210E4807F04CFC0B4807F0CA
:100EE0003BFE06208DF8084006F090FB00F044FE23
:100EF000002840F0728103AD002606F09DFD002819
:100F00003FD0162E2FD109E0ECF80000C087FF1F5C
:100F1000D8FF0000D8F8000006F09EFD06F08CFD1A
:100F20000028F9D100F028FE162600287DD11520D2
:100F300035E006F091FD09F8010B804600F01CFE3B
:100F400000285BD1013406F077FD00287FF47CAFE8
:100F5000032C3FF47EAF00F00FFE00286CD1013E61
:100F60007FF411AF7FE706F077FD05F8010B04462B
:100F700000F002FE00284DD1013606F05DFD00288C
:100F8000BFD1162ECAD000F0F7FD00284DD1B8F120
:100F900001087FF470AF701E002840F31E8200230A
:100FA00003AA1C4612F8011B08254C4014F0800FC0
:100FB0004FEA440418BF84F00704013DE4B2F5D1C0
:100FC00001338342EEDB9DF8218089484146224669
:100FD00000F0CCFE162EC146A34602D1A04500F07B
:100FE000138197F89C108348CDF800B04B463246E9
:100FF00000F0EAFE002011B0BDE8F08F5FFA88F142
:10100000002310227C4807F0B7FD01217B4807F040
:10101000B1FB97E7E1B200231022774807F0ACFD5F
:101020000121764807F0A6FBA6E7734807F094FD78
:10103000162EACD11520B2E76F4807F08DFD8EE774
:1010400009216F4807F096FB2346102241466A4863
:1010500007F092FD0121694807F08CFB234610221E
:101060009DF80910644807F087FD0121634807F0E7
:1010700081FB102223469DF80A105F4807F07CFD93
:1010800001215E4807F076FB21460DF10B0002AA14
:1010900012F8014B6140C9B2082311F0800F4FEAEA
:1010A000410118BF81F00701013BC9B2F5D190425F
:1010B000EED11022504807F05FFD4F4807F04CFD7D
:1010C000B0E609214E4807F055FB23461022414661
:1010D000494807F051FD0121484807F04BFB2346E2
:1010E00010229DF80910444807F046FD01214348AD
:1010F00007F040FB102223469DF80A103E4807F0F7
:101100003BFD01213D4807F035FB21460DF10B0069
:1011100002AA12F8014B6140C9B2082311F0800FF6
:101120004FEA410118BF81F00701013BC9B2F5D177
:101130009042EED11022304807F01EFD2E4807F0F5
:101140000BFDF9E509212E4807F014FB2346102278
:101150004146294807F010FD0121284807F00AFB05
:10116000234610229DF80910234807F005FD0121B0
:10117000224807F0FFFA102223469DF80A101E4865
:1011800007F0FAFC01211D4807F0F4FA21460DF1A1
:101190000B0002AA12F8014B6140C9B2082311F0FA
:1011A000800F4FEA410118BF81F00701013BC9B22E
:1011B000F5D19042EED110220F4807F0DDFC0E4829
:1011C00007F0CAFC42E507210E4807F0D3FABDE557
:1011D00007210C4807F0CEFA42E50721094807F03D
:1011E000C9FA88E60721074807F0C4FA24E600BFD9
:1011F00020F900006CF90000C087FF1FD8FF000035
:10120000D8F80000E4F800009DF80C3097F89C2016
:10121000B3EB420F7FF4EEAE9DF80D30012B7FF45F
:10122000E9AE9DF80E30122B7FF4E4AE9DF810303D
:101230009DF80F0003EB002009F0ECFF6F490AF066
:101240003DF8F96F386604460AF0F4F900B1FC671E
:10125000B96F20460AF0D0F900B1BC67A7F10409C4
:1012600007F1200607F140054FF008089AF806300C
:101270009AF8050003EB002009F0CCFF60490AF062
:101280001DF849F8040F316804460AF0B5F90AF16F
:10129000020A30B1D7F8801020460AF0C1F900B137
:1012A0003460296820460AF0C5F9043600B12C6084
:1012B000B8F1010805F10405D8D19DF81E309DF85C
:1012C0001D0003EB0020023009F0A4FF4D490AF095
:1012D000A9F801464C480AF0A5F84C4909F0E4FE8B
:1012E0004B4909F0EBFF054608F056F8044628463E
:1012F00008F052F8474908F0C1F84749054620462A
:1013000009F0DCFF454909F0D1FE4549044628466D
:1013100009F0D4FF0146204609F0C8FE01464FF00F
:101320007E500AF07FF83F4909F0BEFE9DF81F206D
:101330009DF82030786603EB0220093009F06AFF3F
:1013400039490AF06FF801462F480AF06BF82F4927
:1013500009F0AAFE2E4909F0B1FF054608F01CF875
:101360000446284608F018F82A4908F087F82A4960
:101370000546204609F0A2FF284909F097FE2849B2
:101380000446284609F09AFF0146204609F08EFEE1
:1013900001464FF07E500AF045F8224909F084FEDC
:1013A000B86604463846FFF7D9FA396F05460AF0A1
:1013B00023F900B13D677D6E204629460AF03AF9CF
:1013C000A0B92946786F0AF017F908B12C467C6756
:1013D000164800F0CBFC01200DE69DF82190144842
:1013E00049464246C34600F0C1FCFAE5796F204603
:1013F0000AF020F90028EAD1EAE700BF1357053BBD
:101400002003C839001601470AD7E33FE17A644058
:1014100000007A4400004040A40D8F395A80473ABA
:1014200046A6DB3333938843002C014744F9000080
:1014300020F900002DE9F8430026D0F880800666E8
:101440008146044600F1200754F8045B41462846D3
:101450000AF0F0F8084950B128460AF0CDF830B14A
:101460003046294609F022FE0646C9F86000BC4213
:10147000EAD13046BDE8F8830000704202299ABFE5
:1014800000EB8100406E0020704700BF3E2998BFEE
:1014900080F89C10704700BF90F88400704700BF30
:1014A000C0F89810704700BF80F88410704700BFE4
:1014B00030B50F4CC0F8801083B020460D4607F0C1
:1014C0004BFB204607F048FB284609F04DFA022561
:1014D00002460B460095204607F096FB204607F093
:1014E0003BFB204603B0BDE8304007F035BB00BFF2
:1014F000C087FF1F70B500F525550646383500F149
:1015000020042046A834FEF7B1FFAC42F9D106F121
:10151000C805012428460021FFF7C6FF21462846BA
:101520000134FFF7B3FF3F2C05F1A805F2D106F512
:101530002653064A3261002405480649B06100225C
:101540007461F16130461A7070BD00BF00007A44CA
:10155000000048430000C8C242F684132DE9F04160
:10156000002200F5255600F526578046C250383631
:10157000043700F1C80402E0A834B4420DD020467C
:10158000FFF78AFF0028F7D020463D68FFF7C2F832
:10159000A8342844B4423860F1D142F6841358F894
:1015A0000300BDE8F08100BFF8B50E46096801F4FC
:1015B0007F6500290446A5F5C06511DB2D0901F002
:1015C0000F07A82303FB0544203420460121FFF721
:1015D0006BFF324639462046BDE8F840FFF706BAB1
:1015E0000A4801F00F0707F0B7FA1221084807F080
:1015F000C1F83168054801F0004100230A2207F0D4
:10160000BBFA02482D0907F0A7FADAE7C087FF1FE7
:10161000BCF90000704700BF704700BF704700BFB3
:101620002DE9F0430446002383B0064644F8C83B46
:10163000012504E001353F2D04F1A80469D02046BE
:10164000FFF72AFF0028F5D04D4800F08FFB294610
:101650004C4800F08BFB2046FFF7ACFA2046FFF722
:10166000E9FE09F081F902460B46474800F07EFB8F
:101670002046FEF7E3FF80462046FEF7FBFF0746C5
:10168000404609F071F980463846894609F06CF900
:1016900042464B46CDE900013C4800F067FB002183
:1016A0002046FFF7EBFE012180462046FFF7E6FECD
:1016B0000746404609F058F980463846894609F001
:1016C00053F942464B46CDE90001314800F04EFB4C
:1016D0002046FFF7AFFE0146306809F0E7FC3060B6
:1016E0002046FFF73BF9B16909F086FF002831D1A8
:1016F0002046FFF713F8F16909F09CFF002899D004
:101700002046FFF70BF801353F2DF06104F1A804E6
:1017100095D1706809F07EFD0146306809F082FEBF
:1017200071693060044609F085FF00B17461316968
:10173000204609F061FF00B134610B2005F030FF55
:1017400006F52656337850B97BB10123337003B0C8
:10175000BDE8F0832046FFF701F9B061C8E743B95F
:101760000023337003B0BDE8F0830A4800F02CFB7F
:10177000EBE7094800F012FB00233370F2E700BFEB
:10178000B8FB0000D0F900000CFA000020FA0000BD
:101790004CFA000068FA0000A0FA000070B5114B86
:1017A000836000F525550646383500F1C80402E08F
:1017B000A834AC4213D02046FFF76EFE0028F7D0C5
:1017C0002046FEF73BFFB16809F016FF0028EFD076
:1017D0002046FEF733FFA834AC42B060EBD1B068CE
:1017E00070BD00BF0000A04070B5002300F5255576
:1017F0000646C360383500F1C80402E0A834AC42A4
:1018000013D02046FFF748FE0028F7D02046FEF709
:1018100031FFF16809F00EFF0028EFD02046FEF7F7
:1018200029FFA834AC42F060EBD1F06870BD00BF76
:101830000068704741607047F8B500F525550F46C0
:101840001646383500F1C80402E0A834AC420FD087
:101850002046FFF721FE0028F7D020463946FFF743
:101860001FFE20463146A834FFF722FEAC42EFD1DE
:10187000F8BD00BF2DE9F84300F5255542F67C136D
:101880002E4600278146C7504FF0000838353C36B9
:1018900000F1C80402E0A834AC4213D02046FFF7A0
:1018A000FBFD0028F7D03368013333602046FEF794
:1018B00041FF0F4909F0BEFE88B9A834AC4207F1D8
:1018C0000107EBD142F67C1359F80300C01B09F065
:1018D000A1FC0146404609F0A5FDBDE8F88320467D
:1018E000FEF728FF0146404609F0E0FB8046D2E7BC
:1018F00000008CC2F8B500F525550746002638359E
:1019000000F1C80402E0A834AC420FD02046FFF733
:10191000C3FD0028F7D02046FEF7CEFE0146304634
:1019200009F0C4FBA834AC420646EFD142F67C1362
:10193000F85809F06FFC0146304609F073FDF8BD18
:101940002DE9F04F06468DB07B4800F0B7F97A4894
:1019500000F0B4F9784800F0B1F942F67C13304653
:10196000F758FFF7F9FD0B90306808F0FDFF0446CB
:1019700030460D46FFF7BEFF0A90B06808F0F4FF4E
:101980008246F0688B4608F0EFFF80463046894675
:10199000FFF770FF08F0E8FF0A9BCDE90801184641
:1019A000CDE904ABCDE9068908F0DEFF0B9ACDE95D
:1019B0000201CDE900453946604800F07FF95E48F4
:1019C00000F07CF9C8364FF001094FF0000A07E03B
:1019D00009F10109B9F13F0F06F1A80600F0A38053
:1019E0003046FFF759FD0028F2D03046FEF710FED2
:1019F0003046FEF711FE3046FEF712FE3046FEF787
:101A000013FE08214E4806F0B5FE49464D4807F042
:101A1000F3F8B9F1090F40F3898002214A4806F032
:101A2000A9FE3046FFF706FD08F09EFF022402469D
:101A30000B460094434807F0E7F80121434806F0BD
:101A400099FE554600241FE00621414806F092FE0B
:101A500029463C4807F0D0F802213E4806F08AFEAD
:101A600021463046FEF7E4FD08F07EFF009702466F
:101A70000B46344807F0C8F801340121334806F01A
:101A800079FE082C0BD04546092D4FF0020705F1D1
:101A90000108D9DC0121304806F06CFED4E7294862
:101AA00007F05AF809212D4806F064FE002130465F
:101AB000FFF7E4FC08F058FF009702460B46214868
:101AC00007F0A2F80A21264806F054FE012130460C
:101AD000FFF7D4FC08F048FF009702460B46194870
:101AE00007F092F80A211F4806F044FE39463046B6
:101AF000FFF7C4FC08F038FF009702460B46114878
:101B000007F082F80121184806F034FE09F10109B6
:101B10000C4807F021F8B9F13F0F0AF1080A06F165
:101B2000A8067FF45DAF0DB0BDE8F08F01210A4833
:101B300006F020FE71E700BFB8FB000050FD00007A
:101B4000D0FD0000C087FF1F100A0100DCFD00006F
:101B5000E0FD0000C8FF0000D8FF0000E8FD000025
:101B6000F4FD000000FE00000CFE0000014B1870A8
:101B7000704700BF2087FF1F024B1878B0FA80F033
:101B8000400970472087FF1F0278002A00F08580F7
:101B900070B5034682B00D4621E058785C1C68B3EE
:101BA000252831D0732833D064281DD069281BD054
:101BB000662851D0782839D0582833D0622842D0AE
:101BC00042283CD06C280FD063280DD074284FD009
:101BD000542857D006F052FE6278631C72B1252A51
:101BE000DBD018781C46F5E72B1D29682C481D46CC
:101BF00007F002F86278631C002AF0D1284802B08E
:101C0000BDE8704006F0A8BF104606F037FEE3E7D7
:101C10002E6830460AF074FB01463046043506F063
:101C2000A9FDD9E702211F4806F0A4FD2E1D296851
:101C30001B4800231022354606F09EFFCCE7022108
:101C4000194806F097FD2E1D296815480023022229
:101C5000354606F091FFBFE7073525F0070503215C
:101C6000D5E900230E480091083506F0CDFFB3E713
:101C7000296801290EBF0D480D480121043506F0E1
:101C800079FDA9E72B68012B07BF042109480A4801
:101C90000521043506F06EFD9EE7014806F05CBFA5
:101CA000C087FF1F10FE000014FE000018FE000099
:101CB0001CFE000020FE000028FE00000FB400B54E
:101CC00083B004A951F8040B0191FFF75DFF03B045
:101CD0005DF804EB04B0704770B51B4B1B4C1B68E0
:101CE00082B00D460193019B2360194604460023F0
:101CF000164617480A2206F03FFF0321154806F052
:101D000039FD032C07D8DFE804F01A15100205216D
:101D1000114806F02FFD0221104806F02BFD314638
:101D20002846FFF731FF02B070BD07210C4806F0CE
:101D300021FDF0E704210B4806F01CFDEBE705212F
:101D4000094806F017FDE6E7E8BFFF1F3C92FF1FBA
:101D5000C087FF1F30FE00004CFE0000C8FF0000DF
:101D600044FE00003CFE000034FE00000FB400B54D
:101D7000094B187883B020B103B05DF804EB04B0D0
:101D8000704705AB1A4604990193FFF7A5FF03B00E
:101D90005DF804EB04B070472087FF1F0FB4094BB8
:101DA00000B51B78012B83B004D903B05DF804EBB8
:101DB00004B0704705AB1A46049901930120FFF760
:101DC0008BFFF2E72087FF1F0FB40B4B00B51B788A
:101DD000032B83B004D903B05DF804EB04B0704763
:101DE00005AB1A46049901930320FFF775FF03B072
:101DF0005DF804EB04B070472087FF1FF8B52F484B
:101E00002F4C304F304EFFF759FF304B304A31489E
:101E100031495A60012510221D7258612F4D3048FA
:101E20001A70D9602F4A30491C615F6200242F4F1D
:101E30001E629D624FF07C562D4D58630A209A61B8
:101E4000D9622C4A1C630E2140F61C449F635E64D9
:101E500041F204075A26DD64D866274D9A644FF490
:101E60009670022219659C66002164241F675E67D4
:101E7000DD61DD635866D86541F2883732204FF462
:101E80007A76FF255A705A725A6583F8401099671E
:101E90009C65DA67C3F88010C3F89C10C3F8AC20C7
:101EA000C3F8B040C3F89070C3F89860C3F8A4506A
:101EB000C3F89400C3F8A000F8BD00BF54FE0000B2
:101EC00000004040CDCCCC3D333373402893FF1FFE
:101ED00020A10700333383406666864000008242BB
:101EE00000002042CDCC4C40000020C10000A040AA
:101EF0000AD7233D9A997940CDCC4C3EF0B54FF4AA
:101F00007A6083B005F082FB00210E2005F056FBBD
:101F100000210F2005F052FB0021112005F04EFB9F
:101F20000021102005F04AFB0021122005F046FB9D
:101F30000021132005F042FB01210B2005F03EFBA0
:101F400001210C2005F03AFB0121142005F036FB9D
:101F50000121152005F032FB0121162005F02EFB92
:101F60000121172005F02AFB0121052005F026FBA1
:101F7000894C8A4D0121062005F020FB01210D200E
:101F800005F01CFB208809F041F90146162005F0F8
:101F90007FFA208809F03AF90146172005F078FA0F
:101FA000208809F033F90146052005F071FA2088F0
:101FB00009F02CF900240146062005F069FA009486
:101FC0002346774A7749784803F046FFE6B232461F
:101FD0007249754803F0EEFE2B79704972486FF331
:101FE0000003013432462B7103F0DAFE082CEDD1E8
:101FF0000924E6B2324669496B4803F0DBFE2B79CF
:102000006649694843F00103013432462B7103F0FD
:10201000C7FE0D2CEDD1654C4FF0FF32206810212A
:1020200004F0E6FA20684FF0FF32102104F0B8FA0D
:1020300020684FF0FF32022104F0C6FA20684FF00A
:10204000FF32022104F0CAFA00220E21206804F0B7
:10205000D9FA0C21564806F08DFB564806F07CFD57
:102060001421554806F086FB524806F075FD51488C
:1020700006F072FD1721514806F07CFB4D4806F032
:102080006BFD4F4B1B789A0600F1AE804C4B1B78D2
:102090001B0700F1B5804A4B1B785F0700F1BC803D
:1020A000474B1B789E0700F1C380464B1B781D06EB
:1020B00000F1CA80434B1B785C0600F1D180414B94
:1020C0001B78980600F1D8803E4B1B78590700F129
:1020D000DF803C4B1B781A0700F1E680394B1B78F8
:1020E0009B0700F1ED80334806F036FD72B6364AA4
:1020F0004CF220534DF628112024138023461180E2
:10210000013BFDD1314D3248324900234FF4805616
:102110002E8003800B8032F80E3C9BB243F0D30339
:1021200022F80E3C62B69D2005F016FC21462A4896
:102130002A4D06F01FFB1F4806F00EFD05F1B40600
:102140002F462C46601B04F03FFF04F8010BB442FD
:10215000F8D13B78102B01D0FFF750FE2048FFF755
:102160005DFA0420FFF702FD1E4B1D4800221A6095
:10217000FFF752FA01210D2005F00CFA796D18488D
:10218000FFF758FB7A6C97F84010154803B0BDE88C
:10219000F040FFF751BB00BF3087FF1FE493FF1FE4
:1021A000DCBFFF1F20A1070040BEFF1F7494FF1F6C
:1021B00074FE0000C087FF1F84FE00009CFE00002C
:1021C00001F0074000F007400E20054004200540C4
:1021D0000620054016200540A0FF00002893FF1FA1
:1021E000AC94FF1F4C92FF1F2121394806F0C2FA20
:1021F000384806F0B1FC384B1B781B077FF54BAF16
:102200000C21364806F0B6FA324806F0A5FC324BEF
:102210001B785F077FF544AF0E21314806F0AAFA1C
:102220002C4806F099FC2C4B1B789E077FF53DAFA0
:1022300017212C4806F09EFA264806F08DFC2A4B02
:102240001B781D067FF536AF0E21284806F092FA5E
:10225000204806F081FC244B1B785C067FF52FAFED
:102260001221234806F086FA1A4806F075FC1E4B28
:102270001B7898067FF528AF13211E4806F07AFADE
:10228000144806F069FC184B1B7859077FF521AFFD
:102290001C21194806F06EFA0E4806F05DFC124B40
:1022A0001B781A077FF51AAF1921144806F062FA55
:1022B000084806F051FC0C4B1B789B077FF513AFC9
:1022C00018210F4806F056FA024806F045FC0AE7C6
:1022D000B4FE0000C087FF1F01F00740D8FE0000D9
:1022E000E8FE0000F8FE000000F0074010FF0000CC
:1022F00020FF000034FF000048FF000068FF0000DE
:1023000084FF000070B5464C464D4748E668002300
:102310002B70FFF769FA0146304609F06DF908B1F4
:1023200004232B704048FFF739FA216909F064F95A
:1023300018B12B7843F010032B703B48FFF79AFA43
:10234000A16A09F077F918B12B7843F040032B709C
:10235000002335486B70FFF78DFAE16A314E09F0C2
:102360004BF908B10123737000232F48EB70FFF77E
:102370003BFA05462C482B4EFFF710FA014628463B
:1023800008F092FEE16B09F055F908B10123F370F2
:10239000264D254800232B70FFF726FA616A064672
:1023A000E06808F081FE0146304609F043F908B1C3
:1023B00004232B701C48FFF7F1F9616A0646206977
:1023C00008F074FE0146304609F016F918B12B7872
:1023D00043F010032B701448FFF74CFAA16B06462C
:1023E000A06A08F061FE0146304609F023F918B1F1
:1023F0002B7843F040032B7000230B486B70FFF7E2
:1024000039FAA16B0546E06A084C08F04FFE014618
:10241000284609F0F1F808B10123637070BD00BFD0
:102420002893FF1F2493FF1FAC94FF1F6094FF1F8E
:10243000514B1B68002B74D0F0B5504D2B68053301
:10244000B3F57A7F83B040F38E80002300272B60A2
:102450004B4CD4F8A00008F0DDFE0646D4F8A400EA
:1024600008F0D8FE314608F01FFE394608F026FF76
:10247000444908F0D7FF314608F018FE09F0FAF891
:102480000146062004F006FF02213F4806F072F9DB
:102490003E4806F061FB06213D4806F06BF92868CE
:1024A00008F0B8FE3B4908F009FF08F05DFA022683
:1024B00002460B460096354806F0A6FB0D2136482D
:1024C00006F058F9D4F8A00008F0A4FE07462868E2
:1024D00008F0A0FE2F4908F0F1FE0546D4F8A4004C
:1024E00008F098FE394608F0DFFD0146284608F05E
:1024F000E5FE244908F096FF394608F0D7FD08F0BC
:1025000033FA009602460B46204806F07DFB314622
:102510001D4806F02FF91D4803B0BDE8F04006F055
:102520001BBB174B1D4AD3F8A010D3F8A430126878
:102530005B1A632B0BDD1A4803FB02F380FB0302DB
:10254000DB17C3EB62131944062004F0A3BE154841
:1025500003FB022380FB0302DB17C3EB22121144AF
:10256000062004F097BE18462B6008F053FE094978
:1025700008F0A4FE07466BE75494FF1F5092FF1F1C
:102580002893FF1F0000C842100A0100C087FF1FE8
:10259000C4FF0000CDCCCC3DCCFF00004087FF1F26
:1025A0001F85EB51CBF08D2838B54E484E4C06F0C8
:1025B000D3FA4C4806F0D0FA4A4806F0CDFA0D217D
:1025C0004A4806F0D7F8D4F89C30012B0ED0484C7E
:1025D0004448217800230A2206F0CEFA2378052BFE
:1025E00035D8DFE803F04C51565B6047092141487C
:1025F00006F0C0F84048FFF7D1F8216908F0FCFF69
:1026000018B10F213D4806F0B5F83B48FFF7ECF84C
:10261000E16809F00FF818B10E21394806F0AAF860
:102620003548314DFFF7BAF8216909F003F870B168
:102630003148FFF7D9F8E96808F0DEFF38B12C4BD4
:102640001B78052B48D008212E4806F093F802216C
:102650002D4806F08FF8122004F0A2FF01282DD09B
:10266000112004F09DFF012831D0284B1B68012B5D
:102670001ED038BD0721264806F07CF8E7E7062182
:10268000244806F077F8E2E70721234806F072F8BD
:10269000DDE70721214806F06DF8D8E7082120483A
:1026A00006F068F8D3E70B211E4806F063F8CEE782
:1026B00011211D48BDE8384006F05CB80E211B48CA
:1026C00006F058F8112004F06BFF0128CDD10A2143
:1026D000174806F04FF8C8E70A21164806F04AF8EE
:1026E000B5E700BFC087FF1F2893FF1FDCFF000076
:1026F0005C94FF1FECFF0000AC94FF1FF8FF00008C
:102700000800010024000100100A01007C94FF1F52
:102710006000010030000100380001004C000100A1
:102720005400010040000100840001006800010025
:1027300078000100180001002DE9F04F934C944FF0
:10274000E36F012B8DB000F04981032B50D0914EE7
:10275000914DA36F9148012B09BF2968296801F1A8
:102760000041296004F022FB3368002B40F0CE804A
:102770008A4804F0F1FAE36F3860012B064600F056
:10278000D280874908F056FF78B98649304608F06C
:1027900033FF50B9844A854B12680B920B9A1A602A
:1027A00000232B600DB0BDE8F08FDFF8FC817F4C7B
:1027B000D8F800300A930A9823687D4FC01A08F0B1
:1027C00025FD314608F07AFD7A4908F02BFE79495B
:1027D00008F028FE396808F069FCD8F80030099341
:1027E000099B2360002338602B600DB0BDE8F08F9B
:1027F000DFF8C881704DD8F80000664E0123002232
:102800000E212B6003F0FEFE2B68012B336800F0D5
:102810000381002B40F097810021D8F80000DFF8F9
:10282000B891664D03F040FF33681FFA80FBC9F88A
:1028300000B0002B40F06C810021D8F80000564D0C
:10284000DFF878A103F0B6FEB4F8863040F6E44134
:1028500001FB0BF1B1FBF0F0C01A00B208F0DAFC9A
:1028600057498346D4F8880008F028FD01465846A9
:1028700008F0D8FDD9F800302860632BDFF858B194
:1028800000F33A8100232B603368002B3FF461AFE3
:1028900002214C4805F06EFFD9F80020D8F800005E
:1028A00040F6E443002103FB02F803F083FEB8FB8B
:1028B000F0F008F0ABFC8046B4F8860008F0AAFC03
:1028C0000146404608F0F0FB08F04EF84FF00208D1
:1028D00002460B46CDF800803B4806F095F941468C
:1028E000384805F047FF286808F03EF8CDF800802A
:1028F00002460B46344806F087F94146334805F056
:1029000039FF41462F4805F035FF22E7234804F000
:1029100023FA08F029F8022602460B4600962A48B8
:1029200006F072F924E7244B1B68012B00F0178195
:10293000022B7FF435AF264908F07CFE30B92549DB
:10294000304608F059FE002800F03881DFF8588042
:10295000164CD8F80030079307982368144FC01A14
:1029600008F054FC314608F0A9FC124908F05AFD61
:10297000104908F057FD396808F098FBD8F8003086
:102980000693069B386023600AE700BF2893FF1F69
:102990006492FF1FA094FF1F5892FF1F0093FF1F18
:1029A0000000FA430000FAC3E8BFFF1F7094FF1F46
:1029B0006C92FF1F00007A442C87FF1F7494FF1F46
:1029C00017B7D138100A0100C087FF1FD4000100DB
:1029D00000C82F4800A08CC62093FF1F3D68974970
:1029E000284608F009FE30B12846954908F022FE35
:1029F00000287FF4FDAEDFF85482924DD8F8000035
:102A0000914E022300220F212B6003F0FBFD2B6867
:102A1000012B33687FF4FDAE002B40F0D6800021FF
:102A2000D8F80000DFF86892884D03F03DFE336867
:102A30001FFA80FBC9F800B0002B40F0E3800021B2
:102A4000D8F80000824DDFF804A203F0B3FDB4F81B
:102A5000843040F6E44101FB0BF1B1FBF0F0C01A09
:102A600000B208F0D7FB7B498346D4F88C0008F00D
:102A700025FC0146584608F0D5FCD9F800302860FE
:102A8000632BDFF80CB200F3B18000232B603368B6
:102A9000002B3FF45EAE02216F4805F06BFED9F8C3
:102AA0000020D8F8000040F6E443002103FB02F8C0
:102AB00003F080FDB4F88410B8FBF0F000B2411AC6
:102AC000664806F099F80221634805F053FE28682D
:102AD00007F04AFF4FF0020802460B46CDF800808F
:102AE0005E4806F091F803215D4805F043FE41463B
:102AF000594805F03FFE2CE6DAF80000002103F00B
:102B000059FDDBF8003064389842FFF4BBAEBBE6F9
:102B10000021286803F04EFD40F6E44100230A221C
:102B200001FB0BF1B1FBF0F14C4806F025F8022156
:102B3000494805F01FFEB4F88610484806F05CF8D6
:102B4000D9F800B078E6454806F006F80C2145486B
:102B500005F010FE0C21444805F00CFE5CE64349EC
:102B600008F068FD58B94249304608F045FD30B9D3
:102B7000404A414B12680592059A1A6010E6DFF848
:102B8000F4803D4CD8F800300493049823683B4F00
:102B9000C01A08F03BFB314608F090FB384908F0BA
:102BA00041FC374908F03EFC396808F07FFAD8F854
:102BB00000300393039B38602360F1E52D4A2E4BD0
:102BC00012680892089A1A60EAE5244805F0C4FFE2
:102BD000E36F012B4FF00B010CBF2A482A4805F088
:102BE000C9FD0C21204805F0C5FD18E7DAF8000002
:102BF000002103F0DFFCDBF8003064389842FFF47A
:102C000044AF44E70021286803F0D4FC40F6E441D7
:102C100000230A2201FB0BF1B1FBF0F10F4805F094
:102C2000ABFF0121194805F0A5FDB4F884100B484D
:102C300005F0E2FFD9F800B001E700BF007094464C
:102C4000007094C62C87FF1FA094FF1F7494FF1F71
:102C50005892FF1F17B7D138100A0100C087FF1F15
:102C6000C0000100C4000100B00001000000FA43F0
:102C70000000FAC3E8BFFF1F7094FF1F6C92FF1F94
:102C800000007A4498000100A4000100D8FF000071
:102C90002093FF1F2DE9F043AB4D2B6883B0002B31
:102CA00000F08780A94CAA4EE36FAA4FA74D012BD5
:102CB00000F0BF80D4F88030DFF89082012B00F064
:102CC000ED80D8F85850D7F80090D8F8548005FB1C
:102CD00008F54FF47A7000FB05F008F09BFA9E4966
:102CE000DFF86C820546484608F0E8FA294608F005
:102CF00099FB9A4908F0E2FA08F0BCFC63283060BE
:102D00004BDD2846944908F08DFB6423C8F8003059
:102D1000934B38601B68002B48D0E36F8B4D012B21
:102D200000F0ED80032B00F0FD80022B00F000810D
:102D300002218C4805F01EFD8B4B186807F014FE2D
:102D4000022402460B460094884805F05DFF2146A8
:102D5000874805F00FFD2146824805F00BFD3168DC
:102D6000824805F049FF0621824805F003FD3868D6
:102D7000794908F0A3FA07F0F7FD009402460B46E4
:102D80007A4805F041FF03217B4805F0F3FC7748C2
:102D900003B0BDE8F04305F0DFBE0028BCBF002350
:102DA000C8F800306E4B1B68002BB6D103B0BDE8ED
:102DB000F0837248654CFEF79DFD7149A76EE66E83
:102DC00008F07CFA08F07CFC226F636FD21B9B1B1F
:102DD00080B29342A0EB0700C0F29D8003FB00F39A
:102DE00093FBF2F333445A4E5E483360022105F000
:102DF000C1FC31685D48574F05F0FEFE022159487D
:102E000005F0B8FC3268A06D636D02FB00F003FBB7
:102E100000F000EB8000400008F0FCF94E4908F09B
:102E200001FB01232B60E36F3860012B474D7FF4DA
:102E300041AF5248FEF75EFD5149D5F86890D5F88C
:102E40006C8008F03BFA08F03BFC2A6F6B6FC9EB13
:102E50000202C8EB030380B29A42C9EB00006CDDAA
:102E600003FB0000531C90FBF3F303EB0800A26D7F
:102E7000636D306002FB00F003FB00F000EB8000AC
:102E8000400008F0C7F93449DFF8C08008F0CAFAFA
:102E9000D4F880303860012B7FF413AF3748FEF749
:102EA00029FD3749D8F86890D8F86C5008F006FA30
:102EB00008F006FCD8F87020D8F87430D4F85480A4
:102EC000C9EB02025B1B80B29A42C9EB0000C6BF8D
:102ED00003FB00000132584390FBF2F02844A56D3B
:102EE00000FB05F008FB00F000EB8000400008F05C
:102EF00091F9194908F096FA81463860E7E6214BC6
:102F00001B68012B4FF00A010CBF1F481F4805F03A
:102F100031FCEB6F06E703FB0000531C90FBF3F35F
:102F2000334460E710211A4805F024FCE36FFCE607
:102F30000721184805F01EFCFAE603FB00F393FB9B
:102F4000F2F303EB080092E75492FF1F2893FF1F50
:102F50004087FF1F6C92FF1FE4388E3E0000C8427E
:102F60004887FF1F100A01006492FF1FC087FF1FE0
:102F7000D40001000C01010014010100AC94FF1FFA
:102F800000007A442C87FF1FD8000100E4000100F4
:102F9000F000010004010100F0B5112083B004F03D
:102FA000FFFA012813D000210B2004F0F3FA0021CE
:102FB0000C2004F0EFFA0021152004F0EBFA1D4973
:102FC0001D4B0120002208701A6003B0F0BD0146BD
:102FD0000446152004F0DEFA1849194A194B09680D
:102FE0000191D2F890001B680199134D0344022609
:102FF0008B422E6017D8D2F8980008F00BF9124BCC
:10300000196808F0F9FA074668B921460B2004F060
:10301000C1FA084A032339460C2016702B6004F0CD
:10302000B9FA03B0F0BD01210C2004F0B3FA03B0EB
:10303000F0BD00BF5C94FF1F9C94FF1FE8BFFF1F03
:103040002893FF1FA494FF1F6492FF1F2DE9F041F6
:10305000484E494D33682C68A34284B012D013F017
:1030600001016DD09B0719D5444FDFF81C813B68E7
:103070002BB3D8F800200192019A9A4231D83468D3
:10308000A10769D43CB92146162004F003F9214672
:10309000172004F0FFF804B0BDE8F08100211720EC
:1030A00004F0F8F82B68346803F0FD03E7072B60A1
:1030B000E6D5324FDFF8D0803B68002BD9D1FF2115
:1030C000162004F0E7F8D8F800202D4B0092009A63
:1030D0001B681344D8F800200192019A3B609A4281
:1030E000CDD9284B1620D3F8941004F0D3F82B68D0
:1030F000346843F001030022A0072B603A60C1D579
:10310000FF21172004F0C6F8D8F800201C4B0292CB
:10311000029A1B681344D8F800200392039A3B607C
:103120009A4225D9174B1720D3F8941004F0B2F81F
:103130002B68346843F0020300222B603A60A1E759
:10314000162004F0A7F82B68326803F0FE032B600A
:103150009307A3D5D20787D4084FDFF82C803B68AC
:10316000002BCDD0D8F800200392039A9A42D9D8E8
:10317000346887E79C94FF1FDC93FF1FE093FF1FD9
:103180006C87FF1F2893FF1FE8BFFF1F2DE9F8433F
:103190004B4DDFF8589128684A4E4B4F00220E21C4
:1031A00003F030FA012322214848C9F8003005F025
:1031B000E1FA3368132B1EDC40F6E448002128684E
:1031C00003F072FA00210446286803F0F3F93B8803
:1031D000A4B2012108FB04F4B4FBF0F43C481C4405
:1031E0003C8005F0C7FA642004F010FA336801331C
:1031F000132B3360E2DD3B88364A3748A2FB0312CB
:103200009B1A02EB5303C3F30F1319463B8005F0DF
:10321000F3FC1D213148324F05F0ACFA0221314850
:1032200005F0A8FA2C4805F097FC00231A460F2158
:103230002868336003F0E6F9022322212348C9F805
:10324000003005F097FA3368132B1EDC40F6E44893
:103250000021286803F028FA00210446286803F0BA
:10326000A9F93B88A4B2012108FB04F4B4FBF0F4F3
:1032700017481C443C8005F07DFA642004F0C6F930
:1032800033680133132B3360E2DD3B88114A124867
:10329000A2FB03129B1A02EB5303C3F30F1319464D
:1032A0003B8005F0A9FC1D210F4805F063FA0221BF
:1032B0000C4805F05FFA0848BDE8F84305F04CBC3F
:1032C0007494FF1F6092FF1F5887FF1F18010100B1
:1032D0005C01010087611886C087FF1F3C01010067
:1032E0005A87FF1F100A0100600101002C87FF1F91
:1032F000F8B59C4C9C4F082640F251332360386D42
:10330000E67107F087FF7969054607F0D7FF97490F
:1033100007F0D4FF08F0D4F9954B964A1B68126861
:10332000A37281B241FA06FE3341284642FA06F5FD
:1033300084F809E0E372227321726573B96907F0BA
:10334000BDFF8A4907F0BAFF08F0BAF983B243FA21
:1033500006F221468848A373E27302F075FF874B9B
:10336000874A1B681288A2725FFA83FC40F25531CB
:103370000CEB8C0E216043FA06F103EB83034FEA5A
:103380004E0E3241002543F3D71361727A4884F818
:1033900008C0214684F80CE0E2726373A573E573FC
:1033A000E67102F051FF40F2563376482360E67131
:1033B000FEF73EFA744907F081FF08F081F92072A8
:1033C0007048FEF735FA704907F078FF08F078F991
:1033D0006E4A6D49C0F307236372106808F022F843
:1033E00008F048F940FA06F203466648E272A37212
:1033F000FEF740FA5D4907F061FF08F061F92073BC
:103400006048FEF737FA594907F058FF08F058F9B5
:103410002146C0F3072358486373A573E57302F090
:1034200013FF022004F0F2F8594B5348197893F82F
:1034300001E0217240F25A32226021469A78DB780C
:1034400084F809E025736573A573E573A272E372CE
:10345000E67102F0F9FE4F4B47481A78597822720C
:1034600040F25E35DA78256061729D781979A5722F
:10347000E2725D799A792173DB79A2732146E37355
:103480006573E67102F0E0FE022004F0BFF8424BE3
:1034900039481A78597822724FF45C75DA782560C9
:1034A00061729D781979A572E2725D799A792173BA
:1034B000DB79E3732146E6716573A27302F0C4FE03
:1034C000364B1B68012B00D0F8BD2E48FEF766F97D
:1034D000F96C07F0EBFD05462A48FEF785F9014631
:1034E000284608F089F80028EED040F2C33325487A
:1034F000E6712360FEF752F9BD6C294608F07CF8AE
:10350000D0B12749284607F0D9FE08F0D9F880B293
:1035100040FA06F360722372002301260425032279
:10352000A672E57222736373A373E3730D491248A5
:10353000BDE8F84002F088BE1248FEF72FF918499E
:1035400007F0BCFE08F0BCF8C0F307230D48237257
:10355000FEF724F9124907F0B1FE08F0B1F86072E5
:10356000DAE700BF8C94FF1F2893FF1F0000204163
:103570004892FF1F6C94FF1F40BEFF1F4087FF1F34
:103580004487FF1FAC94FF1F0000C8426492FF1FD6
:103590002493FF1F3487FF1F6087FF1F7C94FF1F4A
:1035A00000007A44F0B5B24CB24D83B005F07CF81F
:1035B00023682860042B00F0E282022B7ED0082BC7
:1035C00000F00A81072B40F08381322800F0FF834E
:1035D00040F37481332800F00F84712803D1002355
:1035E000732023602860002B08BF73280CBF0120C4
:1035F0000020002860D0A04805F0AEFA04219F48C2
:1036000005F0B8F89C4805F0A7FA10219C4805F091
:10361000B1F8994805F0A0FA13219A4805F0AAF8E4
:10362000994B9548196805F0E7FA934805F094FA24
:103630001421964805F09EF88F4805F08DFA1E215A
:10364000934805F097F88C4805F086FA15219148C3
:1036500005F090F8884805F07FFA1E218E4805F0A5
:1036600089F8854805F078FA20218C4805F082F821
:10367000814805F071FA1921894805F07BF87E48E8
:1036800005F06AFA1221874805F074F87A4805F0C7
:1036900063FA0F21844805F06DF8774805F05CFA6D
:1036A0000D21824805F066F8734805F055FA804A06
:1036B000002101231160236003B0F0BDA0F13102AD
:1036C000422A90D801A151F822F000BF5F3F0000CC
:1036D000DD3F0000F73F0000753F00009B3F00000A
:1036E000E7350000E7350000E7350000E73500006A
:1036F000E7350000E7350000E7350000E73500005A
:10370000E7350000E7350000E7350000E735000049
:10371000E7350000E7350000E7350000E735000039
:10372000E7350000E7350000E7350000E735000029
:10373000E7350000E7350000E7350000E735000019
:10374000E7350000E7350000E7350000E735000009
:10375000E7350000E7350000E7350000E7350000F9
:10376000E7350000E7350000E7350000E7350000E9
:10377000E7350000E7350000E7350000E7350000D9
:10378000E7350000E7350000E7350000E7350000C9
:10379000E7350000B93F0000E7350000E7350000DD
:1037A000E7350000E7350000E7350000E7350000A9
:1037B000E7350000E7350000E7350000E735000099
:1037C000E7350000E7350000E7350000DF35000091
:1037D000E7350000C53F0000322800F0E382712881
:1037E0003FF4FDAE31287FF4FEAE04F099FF0028CF
:1037F00040F3858320482F4E05F040FBC0B286F889
:103800004000022894BF01460021726C2A4888BFFC
:1038100086F84010FEF710F8012369202360286025
:10382000A0F152031F2B01F2DB81DFE813F0C50981
:10383000D909D909D909D909D909D909D909D90978
:10384000D909D909D909D909D909D9096609AF0A04
:10385000FE0881089B07D909D909D9095307D90955
:10386000AC0AD909D909D909D909D909C70900BFA9
:10387000A894FF1F4492FF1FC087FF1F8C08010000
:1038800094080100A80801002487FF1FBC0801005C
:10389000D4080100F40801000C0901002C09010002
:1038A000500901006C090100800901009009010024
:1038B0004887FF1F2893FF1FAC94FF1F31287FF418
:1038C00092AE04F02DFF002800F3A283236828683D
:1038D000062B40F08D80A0F13102402A3FF683AEE6
:1038E00001A151F822F000BFA33E0000CD3E000030
:1038F0001D3E0000413E0000653E0000813E00008C
:10390000E7350000E7350000E7350000E735000047
:10391000E7350000E7350000E7350000E735000037
:10392000E7350000E7350000E7350000E735000027
:10393000E7350000E7350000E7350000E735000017
:10394000E7350000E7350000E7350000E735000007
:10395000E7350000E7350000E7350000E7350000F7
:10396000E7350000E7350000E7350000E7350000E7
:10397000E7350000E7350000E7350000E7350000D7
:10398000E7350000E7350000E7350000E7350000C7
:10399000E7350000E7350000E7350000E7350000B7
:1039A000E7350000E7350000E7350000E7350000A7
:1039B000E7350000E7350000E7350000E735000097
:1039C000E7350000E7350000E7350000E735000087
:1039D000E7350000E7350000E7350000E735000077
:1039E000E7350000E7350000DF3500002368286870
:1039F000052B1AD1332801F0578140F34B8135282C
:103A000001F06381BFF6E9AD04F08AFE00280ADD0B
:103A1000D948DA4E05F032FA01226B23C6F8A0002D
:103A200022602B604BE123682868032B40F0A380C1
:103A3000A0F13002422A3FF6D6AD01A151F822F0A2
:103A40004D3B000093450000BB4500007D44000055
:103A500021450000434500006B450000E3450000A0
:103A60000146000025460000E7350000E73500006C
:103A7000E7350000E7350000E7350000E7350000D6
:103A8000E7350000E7350000E7350000E7350000C6
:103A9000E7350000E7350000E7350000E7350000B6
:103AA000E7350000E7350000E7350000E7350000A6
:103AB000E7350000E7350000E7350000E735000096
:103AC000E7350000E7350000E7350000E735000086
:103AD000E7350000E7350000E7350000E735000076
:103AE000E7350000E7350000E7350000E735000066
:103AF000E7350000E7350000E7350000E735000056
:103B0000E73500004D460000854000005F4400009E
:103B10006B460000894600009F44000061400000A1
:103B2000E7350000E7350000E7350000E735000025
:103B3000E7350000E7350000E7350000E735000015
:103B4000E7350000F54400000145000004F0E8FD01
:103B5000002841F34E808848884E05F08FF90127F0
:103B60000346014662228648736527602A60FDF796
:103B700061FE23682868012B7FF435AD50E6A0F183
:103B80003102402A3FF62FAD01A151F822F000BFCB
:103B9000253F00001D3F0000213F0000293F00009D
:103BA0002D3F0000473F0000073F0000E7350000C1
:103BB000E7350000E7350000E7350000E735000095
:103BC000E7350000E7350000E7350000E735000085
:103BD000E7350000E7350000E7350000E735000075
:103BE000E7350000E7350000E7350000E735000065
:103BF000E7350000E7350000E7350000E735000055
:103C0000E7350000E7350000E7350000E735000044
:103C1000E7350000E7350000E7350000E735000034
:103C2000E7350000E7350000E7350000E735000024
:103C3000E7350000E7350000E7350000E735000014
:103C4000E7350000E7350000E7350000E735000004
:103C5000E7350000E7350000E7350000E7350000F4
:103C6000E7350000E7350000E7350000E7350000E4
:103C7000E7350000E7350000E7350000E7350000D4
:103C8000E7350000E7350000E7350000E7350000C4
:103C9000DF350000312800F0B38732287FF4A3AC71
:103CA00004F03EFD00287FF7BEAE3348334E05F0EA
:103CB000E5F801226B23C6F8980022602B602E489D
:103CC00004F04AFF2C4804F047FF2B4804F044FF5F
:103CD000294804F041FF284804F03EFF21212948EB
:103CE00004F048FD244804F037FF1521264804F06D
:103CF00041FDD6F89010204804F07EFF02212348B1
:103D000004F038FD1C4804F027FF1E21204804F071
:103D100031FDD6F89810184804F06EFF03211D48B5
:103D200004F028FD144804F017FF1E211A4804F07F
:103D300021FDD6F89410104804F05EFF0E4804F000
:103D40000BFF1D21154804F015FDD6F8A0100A48F8
:103D500004F052FF084804F0FFFE1E21104804F052
:103D600009FDD6F8A410044804F046FF024804F008
:103D7000F3FE052323609FE4C087FF1F2893FF1FE6
:103D8000AC94FF1F84030100A8030100FC020100A2
:103D9000C0030100C0000100E003010000040100B5
:103DA0002004010004F0BCFC002840F3A480A148DA
:103DB000A14E05F063F807F02DFAA04907F07EFA4E
:103DC0000346024696F840109D48736422E504F0CD
:103DD000A7FC00287FF77AAD9648974E05F04EF87D
:103DE00007F018FA954907F069FA61230122F06398
:103DF00022602B60184613E504F092FC00287FF740
:103E000065AD8C488C4E05F039F807F003FA612354
:103E10000122B06322602B60184601E504F080FCAB
:103E200000287FF7E3AD8348834E05F027F800EBC9
:103E30008000430001226520F36522602860EFE4E2
:103E400004F06EFC00287FF7D1AD7A487A4E05F079
:103E500015F800EB800043000122652033662260E4
:103E60002860DDE4744AD2F8AC300133032BC8BFBC
:103E70000023C2F8AC306520012323602860CFE422
:103E800004F04EFC00287FF7B1AD6A486A4E04F09A
:103E9000F5FF65230122C6F8B00022602B601846AA
:103EA000BEE404F03DFC00287FF7A0AD6148624EFF
:103EB00004F0E4FF07F0AEF9624907F0B3FA6523B6
:103EC0000122706122602B601846A9E404F028FCEE
:103ED00000287FF78BAD5748574E04F0CFFF07F00F
:103EE00099F9584907F09EFA65230122F061226092
:103EF0002B60184694E423682868FFF763BB4E4E96
:103F000096F840007DE4504A1368B3FA83F35B09E6
:103F10000121642013602160286081E44B4AF3E7AB
:103F20004B4AF1E74B4AEFE74B4AEDE7424ED6F8F2
:103F30009C30B3FA83F35B0901226420C6F89C30FD
:103F4000226028606CE401233D482360FDF704FBF8
:103F5000424A2368106064202860FFF730BB364E69
:103F6000B36FB3FA83F35B0901226320B367226066
:103F7000286055E40123236004F0D2FB002807DD0C
:103F80002C482D4E04F07AFF07F044F9C6F88C0057
:103F9000632028602368FFF715BB0123236004F02A
:103FA000BFFB0028F4DD2348234E04F067FF07F031
:103FB00031F9C6F88800EBE7FFF7E8F823682868CE
:103FC000FFF7FDBA1C4AD36F0133032BC8BF002390
:103FD000D367012363202360286021E4164ED6F8BE
:103FE0008030B3FA83F35B0901226320C6F8803086
:103FF0002260286014E40123236004F091FB002870
:10400000E7DD0C480C4E04F039FFC6F8A800E0E7E5
:104010000848094E04F032FF07F0FCF8074907F0A2
:104020004DF961230122706222602B601846FFF770
:10403000F7BB00BFC087FF1F2893FF1F6F12833A93
:10404000AC94FF1F00007A445494FF1FA094FF1FFC
:104050008494FF1F5094FF1F8894FF1F5894FF1FE4
:1040600004F05EFB00280DDDC148C24E04F006FFDF
:1040700007F0D0F8C04907F0D5F901226223306279
:1040800022602B6004F04CFB002840F3B285B84856
:10409000B84E04F0F3FE01226223B06622602B606A
:1040A000B34804F059FDB24804F056FDB04804F09E
:1040B00053FDAF4804F050FDAD4804F04DFD15210F
:1040C000AE4804F057FBAA4804F046FD1421AC4862
:1040D00004F050FBA64804F03FFD1B21A94804F062
:1040E00049FBA34804F038FD1321A74804F042FB24
:1040F0009F4804F031FD9E4804F02EFD9C4804F0DA
:104100002BFD2021A14804F035FBF0689A4907F007
:10411000D5F806F029FC002702460B460097944884
:1041200004F072FD02219A4804F024FB0221994810
:1041300004F020FB8E4804F00FFD2121964804F086
:1041400019FB30698C4907F0B9F806F00DFC0097AF
:1041500002460B46864804F057FD02218C4804F0C5
:1041600009FB02218B4804F005FB814804F0F4FCB4
:104170001F218A4804F0FEFAB06A06F0F5FB02251A
:1041800002460B4600957A4804F03EFD0121844822
:1041900004F0F0FA29467F4804F0ECFA744804F081
:1041A000DBFC20217F4804F0E5FAF06A06F0DCFB36
:1041B000009502460B466E4804F026FD0121784822
:1041C00004F0D8FA2946734804F0D4FA684804F099
:1041D000C3FC2321744804F0CDFAB06C664907F0A3
:1041E0006DF806F0C1FB009702460B46604804F0EC
:1041F0000BFD2946664804F0BDFA2946654804F0DF
:10420000B9FA5B4804F0A8FC1F21684804F0B2FA30
:10421000F06C594907F052F806F0A6FB00970246E9
:104220000B46534804F0F0FC2946594804F0A2FA22
:104230002946584804F09EFA4D4804F08DFC192197
:104240005B4804F097FAB16D494804F0D5FC294663
:10425000584804F08FFA29464E4804F08BFA444837
:1042600004F07AFC1821544804F084FA706E06F0C9
:10427000D1FF524907F022F806F076FB009502467E
:104280000B463B4804F0C0FC01214D4804F072FA93
:104290002946404804F06EFA354804F05DFC2B21B5
:1042A000484804F067FAB069334907F007F806F0A8
:1042B0005BFB009702460B462D4804F0A5FC2946FF
:1042C000334804F057FA2946324804F053FA284894
:1042D00004F042FC1F213C4804F04CFA716D244864
:1042E00004F08AFC29462B4804F044FA204804F0E4
:1042F00033FC2021354804F03DFA316D1C4804F0B0
:104300007BFC2946234804F035FA194804F024FCC4
:1043100010212F4804F02EFAB16E154804F06CFC01
:1043200029461B4804F026FA29461A4804F022FAC6
:104330000F4804F011FC1321264804F01BFAF16E1B
:104340000B4804F059FC0121234804F013FA2946D4
:10435000104804F00FFA064804F0FEFB10211F4835
:1043600004F008FA316F024804F046FC294637E0B1
:10437000C087FF1F2893FF1F00007A4454060100E6
:104380006C06010084060100FC010100A00601008A
:10439000F8010100100A0100C4060100E80601004E
:1043A0000CFE0000080701002C0701005007010067
:1043B000700701008C07010090070100CDCCCC3DB7
:1043C00030060100AC070100D8070100F807010022
:1043D0001C080100300801004408010048080100E1
:1043E000B14804F0C7F92946B04804F0C3F9B04811
:1043F00004F0B2FB1421AF4804F0BCF9716FAC4873
:1044000004F0FAFB0121AC4804F0B4F92946A748AE
:1044100004F0B0F9A64804F09FFB1621A74804F069
:10442000A9F9306AA64906F049FF06F09DFA0097FF
:104430000B4602469E4804F0E7FB29469A4804F0E2
:1044400099F92946994804F095F9994804F084FBB4
:10445000974804F081FB03232360FFF72DB904F094
:104460005FF9002840F3C5839148964E04F006FD9D
:1044700001226223F06622602B6011E604F050F9FD
:10448000002840F3B6838A488E4E04F0F7FC06F00D
:10449000C1FE01226223B06222602B6000E6FDF7BC
:1044A000ADFC02218148874E04F064F9804804F095
:1044B00053FB02217D4804F05DF97D4804F04CFB7C
:1044C00002217A4804F056F9794804F045FB172197
:1044D0007D4804F04FF9764804F03EFB0221734812
:1044E00004F048F9724804F037FB0122622322608D
:1044F0002B60D5E50022732322602B60FFF77BB889
:10450000724B6A486F4E002202211A6004F032F9A1
:10451000674804F021FB0B216D4804F02BF9DDE71F
:1045200004F0FEF8002840F364836148654E04F00F
:10453000A5FC06F06FFE01226223F06222602B6070
:10454000AEE504F0EDF8002840F3538358485D4E83
:1045500004F094FC06F05EFE594906F063FF012268
:104560006223B06422602B609AE504F0D9F8002839
:1045700040F33F834E48534E04F080FC06F04AFE61
:104580004F4906F04FFF01226223F06422602B6046
:1045900086E504F0C5F8002840F32B834448494ED3
:1045A00004F06CFC06F036FE454906F03BFF0122A4
:1045B0006223F06022602B6072E504F0B1F80028FD
:1045C00040F317833A483F4E04F058FC06F022FEB1
:1045D0003B4906F027FF01226223306122602B60F5
:1045E0005EE504F09DF8002840F303833048354E23
:1045F00004F044FC01226223B06522602B604FE589
:1046000004F08EF8002840F3F48229482D4E04F07F
:1046100035FC00EB800043000121622273662160BB
:104620002A603DE504F07CF8002840F3E28220484F
:10463000244E04F023FC06F0EDFD214906F0F2FEC5
:1046400001226223B06122602B6029E504F068F842
:10465000002840F3CE8216481A4E04F00FFC0122C7
:104660006223306522602B601AE504F059F80028B7
:1046700040F3BF820E48134E04F000FC0122622377
:10468000306722602B600BE504F04AF8002840F305
:10469000B08207480B4E04F0F1FB012262237067E1
:1046A00022602B60FCE400BFF8010100100A010049
:1046B000C087FF1F5C080100440801007408010066
:1046C00000007A442893FF1F8C0101005492FF1FC1
:1046D000A40101008048814D04F03EFA7E4804F0B8
:1046E0003BFA7D4804F038FA7B4804F035FA7A4802
:1046F00004F032FA15217A4804F03CF8764804F0C8
:104700002BFA1821774804F035F800230A2295F88F
:104710004010714804F030FA6F4804F01DFA282167
:10472000714804F027F8686C704906F0C7FD06F080
:104730001BF900250B4602460095674804F064FA11
:1047400002216B4804F016F8634804F005FA1321BF
:10475000684804F00FF8604804F0FEF9082323606D
:10476000FEF7AABF5C485D4E04F0F6F95A4804F023
:10477000F3F9594804F0F0F9574804F0EDF95648B8
:1047800004F0EAF911215C4803F0F4FF524804F008
:10479000E3F92821594803F0EDFF7069534906F009
:1047A0008DFD06F0E1F8002502460B4600954A48CB
:1047B00004F02AFA02214E4803F0DCFF464804F0D8
:1047C000CBF916214E4803F0D5FFF069474906F0B2
:1047D00075FD06F0C9F8009502460B463E4804F008
:1047E00013FA0221424803F0C5FF3B4804F0B4F934
:1047F0001D21444803F0BEFFF06D06F00BFD424959
:1048000006F05CFD06F0B0F8022502460B46009566
:10481000314804F0F9F901213C4803F0ABFF2E4880
:1048200004F09AF91F213A4803F0A4FF306E06F015
:10483000F1FC354906F042FD06F096F800950B466E
:104840000246254804F0E0F90121304803F092FFC8
:10485000214804F081F911212E4803F08BFFD6F88E
:10486000AC30032B07D8DFE803F0312C27020D21F1
:10487000294803F07FFF184804F06EF918212748F3
:1048800003F078FFD6F8B010134804F0B5F9022110
:10489000234803F06FFF104804F05EF90E4804F05F
:1048A0005BF91321134803F065FF0B4804F054F93A
:1048B00006232360FEF700BF0C211A4803F05AFFBD
:1048C000D9E70C21184803F055FFD4E70421174815
:1048D00003F050FFCFE700BFC087FF1F2893FF1FE3
:1048E00054090100B0010100CC01010000007A442C
:1048F000F8010100FC010100F808010010020100AC
:104900003C02010054020100CDCCCC3D3006010038
:104910007402010094020100D0020100E0020100D3
:10492000FC020100C0020100B0020100A802010067
:10493000BC4804F011F9BB4804F00EF9B94804F082
:104940000BF9B84804F008F9B64804F005F913214A
:10495000B54803F00FFFB34804F0FEF80D21B3484B
:1049600003F008FFAF4804F0F7F80F21B04803F058
:1049700001FFB04BAB48196804F03EF9A94804F0B8
:10498000EBF81321AC4803F0F5FEAC4BA5481968D1
:1049900004F032F9A34804F0DFF81221A84803F02C
:1049A000E9FEA84B9F48196804F026F99D4804F0D9
:1049B000D3F81121A44803F0DDFEA44B99481968EF
:1049C00004F01AF9974804F0C7F80E21A04803F044
:1049D000D1FEA04B9348D3F89C1004F00DF99148F8
:1049E00004F0BAF819219C4803F0C4FE9B4B8D4893
:1049F000196804F001F98B4804F0AEF811219848C9
:104A000003F0B8FE974B8748196804F0F5F885481D
:104A100004F0A2F81321944803F0ACFE814804F09E
:104A20009BF804232360FEF747BE7E48894E04F0BE
:104A300093F87C4804F090F87A4804F08DF87948AF
:104A400004F08AF8774804F087F81F21874803F0BC
:104A500091FE744804F080F81E21854803F08AFE18
:104A6000704804F079F81A21824803F083FEF36F4E
:104A7000022B00F08081032B00F07581012B00F0E8
:104A80006A8109217C4803F075FE664804F064F8E9
:104A900014217A486F4F03F06DFEB16F614804F046
:104AA000ABF8604804F058F81C21754803F062FE2A
:104AB000D6F880105B4804F09FF85A4804F04CF890
:104AC0001C21704803F056FED6F8A810554804F093
:104AD00093F8544804F040F8F56F25F00205012DD5
:104AE00000F004811321604803F044FE4D4804F0B7
:104AF00033F802232360FEF7DFBD4A48554D04F02A
:104B00002BF8484804F028F8464804F025F84548B2
:104B100004F022F8434804F01FF81F215A4803F01C
:104B200029FE404804F018F81C21584803F022FEE2
:104B3000686A574906F0C2FB05F016FF00260246D8
:104B40000B460096374804F05FF80221514803F005
:104B500011FE344804F000F823214F4803F00AFE08
:104B6000E86B4B4906F0AAFB05F0FEFE00960246F4
:104B70000B462C4804F048F80221464803F0FAFDA1
:104B8000284803F0E9FF1921444803F0F3FDA86B1E
:104B900005F0EAFE02250B4602460095214804F086
:104BA00033F829463E4803F0E5FD1E4803F0D4FFE4
:104BB00007232360FEF780BD03F0A6F8B42200218E
:104BC000244802F01BFA2868364AA0F1730001213C
:104BD0000023B0FA80F0400911602360FEF709BDA0
:104BE0002368002B08BF73280CBF01200020FEF7AC
:104BF00000BD23682868012B7EF4F5ACFEF710BEDB
:104C000003F08EFD00287EF70EAF0648114E04F02B
:104C100035F901226B23C6F8900022602B60FFF764
:104C20004EB800BFC087FF1F4004010054040100BC
:104C3000640401005094FF1F74040100A094FF1F3E
:104C4000880401008494FF1F9C0401008894FF1FC6
:104C5000B00401002893FF1FC00401005894FF1FF7
:104C6000DC0401005494FF1FFC010100F00401006A
:104C70001005010030050100A8050100B405010080
:104C8000CC050100EC050100000301002003010038
:104C900000007A44F80101004003010064030100B0
:104CA000800301004887FF1F03F03AFD00287EF7CC
:104CB000BAAE3848384E04F0E1F801226B23C6F84A
:104CC000940022602B60FEF7FABF03F029FD002854
:104CD0007EF7A9AE2F48304E04F0D0F801226B23A6
:104CE000C6F8A40022602B60FEF7E9BF1C212B4808
:104CF00003F040FDD7F88C00294906F0DFFA05F0F3
:104D000033FE009502460B46224803F07DFF052145
:104D1000244803F02FFD1F4803F01EFFFD6F012DF7
:104D20007FF4E0AE1D21204803F024FDD7F8880071
:104D30001B4906F0C3FA05F017FE009502460B4624
:104D4000144803F061FF0521164803F013FD1148D4
:104D500003F002FFC6E61E21144803F00BFD0D48C8
:104D600003F0FAFE94E62021114803F003FD094800
:104D700003F0F2FE8CE617210E4803F0FBFC054819
:104D800003F0EAFE84E6044EFEF799BF024EFFF7F9
:104D900087B900BFC087FF1F2893FF1F0C060100C3
:104DA000CDCCCC3D2C060100340601004C050100A1
:104DB0006C0501009005010038B5164C164A2368B1
:104DC000101D12F8011F904241EA0323F9D123601C
:104DD000124C03F100432360114BDB6F022B11D007
:104DE000104B1B68012B00D038BD0F4803F0B4FEF8
:104DF00021680D4803F000FF03210C48BDE838404E
:104E000003F0B8BC20680A4D06F004FA2860FDF7EC
:104E100093FCE5E74092FF1F7792FF1F6494FF1F0A
:104E20002893FF1F5094FF1FC087FF1FA009010098
:104E30005892FF1F30B53F4C3F4883B0214601F0E8
:104E4000FBF8236840F2C232934258D06FF4C0613D
:104E50005A18B2F5FF7F4CD903F100436FF4C062DA
:104E60001344B3F5FF7F3FD9344B1B68012B01D0AE
:104E700003B030BD324B1B68012BF9D1314B3248A6
:104E80001B6801930A220023019903F075FE226832
:104E9000284B002ADB7945DB2C492D4807F0ECF93B
:104EA0002B4807F02DFA0146294803F063FC2568DA
:104EB000204B15F0804526D1DB798BB1631925494C
:104EC0001A7A234807F0D8F9214807F019FA014661
:104ED0001F4803F04FFC0135E379EDB2AB42EDD84A
:104EE000194803F039FEC3E712491B48FCF75CFB85
:104EF000BAE710491848FCF757FB2368ACE7FFF7FF
:104F00005BFF2368A2E7154D114C0FCD0FC495E848
:104F1000030044F8040B204620F81419152103F06F
:104F200029FCDDE70E490A4822F0604207F0A4F9A7
:104F3000B6E700BF7092FF1F40BEFF1F4887FF1FEC
:104F40005094FF1FE8BFFF1FC087FF1FCC0901005F
:104F50008092FF1FF8090100AC94FF1FE0090100D7
:104F6000A40901002DE9F84F794B7A4C1B78052BE9
:104F700007D07948FCF77EFCE16A06F03DFB00288B
:104F800078D0764D764E00232B603360754B724897
:104F90001B68704F012B2BD0FCF726FCE169804683
:104FA000606906F081F80146404606F043FB0028A0
:104FB00032D16948FCF718FCE16806F03BFB08B108
:104FC000002333606448634EFCF7E8FB216906F078
:104FD00013FB18B100232B60BDE8F88F5E48FCF787
:104FE000DDFBB16906F008FB0028F3D1BDE8F88FBE
:104FF000FCF7FAFBE1698046206A06F055F80146A5
:10500000404606F017FB0028D3D05348FCF7ECFBD2
:10501000D7F82090834605E04F48FCF7E5FBD7F82A
:1050200014908346F969484606F03EF88246F86DCA
:1050300006F0F0F88046386E06F0ECF8414606F0CF
:1050400033F851460746584606F02EF801463846D2
:1050500006F034F951460746484606F025F8014661
:10506000384606F0DFF9414606F020F806F002FB6C
:1050700030609EE73848FCF7FDFB216B06F0BCFA78
:1050800020B3364D636E34482B60FCF7F3FB81464A
:10509000E06DE76A324E06F0BDF839468046484674
:1050A00006F002F80146404606F008F93946804607
:1050B000206B05F0F9FF0146404606F0B3F90021E8
:1050C00005F0F4FF06F0D6FA30605FE72248FCF7FF
:1050D000D1FB616B06F090FA30B1204D204E626E2C
:1050E000E36D2A60336051E71B48FCF7C3FBA16AFC
:1050F00006F082FA00283FF444AF1748174D184EC7
:10510000FCF7B8FB8146606ED4F8348006F082F874
:1051100041460746484605F0C7FF3946814600200C
:1051200005F0C2FF0146484606F0C8F841468146F0
:10513000A06A05F0B9FF0146484606F073F9394602
:1051400005F0B4FF06F096FAE36D286033601DE7C2
:105150005C94FF1F2893FF1FAC94FF1F6C94FF1FEC
:105160004892FF1F5C92FF1F08B5274803F0F4FC2C
:105170000721264803F0FEFA112002F011FA062159
:10518000F8B1234803F0F6FA122002F009FA0621DA
:1051900000B3204803F0EEFA122002F001FA0621D3
:1051A00008B31D4803F0E6FA132002F0F9F90621CE
:1051B00010BB1A4803F0DEFA1348BDE8084003F0BC
:1051C000CBBC174803F0D6FA122002F0E9F9062109
:1051D0000028DED1134803F0CDFA122002F0E0F9E6
:1051E00006210028DDD1104803F0C4FA132002F094
:1051F000D7F906210028DCD00C4803F0BBFA02489E
:10520000BDE8084003F0A8BCC087FF1F040A0100E6
:105210000C0A01001C0A01002C0A0100440A0100CA
:10522000140A0100240A0100340A01003C0A0100AA
:1052300010B5254C2368042B27DC01210B2002F03C
:10524000A9F901210C2002F0A5F90121142002F096
:10525000A1F90121152002F09DF90121162002F08B
:1052600099F90121172002F095F90121052002F09A
:1052700091F90121062002F08DF9236801330A2BF0
:105280002360C4BF0023236010BD00210B2002F067
:1052900081F900210C2002F07DF90021142002F098
:1052A00079F90021152002F075F90021162002F08D
:1052B00071F90021172002F06DF90021052002F09C
:1052C00069F90021D6E700BF8094FF1F2DE9F04166
:1052D000704DD5F8AC30032B3BD0012B64D0022BA2
:1052E00001D0BDE8F0816C4C6C48237240F20E3264
:1052F000012321462260E37100F0A6FF684B1B6882
:105300005B00FF2BC8BFFF23042140224FF44170F4
:105310002060E17122726372286D05F07BFF69697C
:1053200005F0CCFF5F49054606F084F9002800F03F
:10533000A7802946284605F0B9FE06F0C1F980B2DB
:105340000312E072A37254495448BDE8F04100F0E2
:105350007BBF514C286DA3720122E823072140F244
:10536000FF26227263722660E17105F053FF6969BE
:1053700005F0A4FF4C4905F0A1FF06F0A1F9484B48
:105380004A4A1B68126893FBF2F382B21E1217128C
:10539000214642486373E2722773A67300F054FFFC
:1053A000D5F8AC30012B9AD1414B3B4C1B682360A4
:1053B000072280231020E271237202F0F1F8002806
:1053C00065D13C4B1B68DFF8D880384F286D324ED2
:1053D00003EB83035B001A12A3726272D8F80030E9
:1053E0003A6893FBF2F31A126273A37305F012FF8B
:1053F000696905F063FF304B196805F055FE2A49CD
:1054000005F05CFF06F05CF980B2031231462073B0
:105410002248E37200F018FF022002F0F7F8274B51
:105420001B682360072280231020E271237202F0A0
:10543000B7F850BB1F4B1B68286D03EB83035B0061
:105440001A12B372727205F0E5FE696905F036FF53
:10545000154905F033FF06F033F982B216123868A9
:10546000D8F80030227393FBF0F30B490B48A37379
:105470001A12E672627300F0E7FED5F8AC302EE740
:1054800001229023A272E3725DE70D4BD3E70C4B30
:1054900098E700BF2893FF1F8C94FF1F40BEFF1F9B
:1054A0004892FF1F00004843000020415487FF1F1F
:1054B0006887FF1F2887FF1F5C87FF1F3C87FF1F30
:1054C0005087FF1F2DE9F04F8DB001E0FFF7B2FCD0
:1054D0009D4800F07BFD0028F8D103F021F9002859
:1054E00001DDFEF75FF8994F3B68012B01D0FDF716
:1054F000ADFD974CD4F89C50012D00F04581954EA0
:105500003378052B2CD8DFE813F0A000B400D900C5
:105510000600F300FA00904B0022012114201A60CB
:1055200002F038F88D48FCF75FF9A16C06F082F8BC
:10553000002840F003828A4B18608848FCF754F931
:10554000616906F077F8002840F0F181122002F03E
:1055500027F828B90146142002F01CF80123337003
:10556000804DE36F23F00203012B28D02B687E4A85
:105570000793079B11687B485B1AB3F5FA7F21D824
:105580002B680A930A9B794A2B680993099B106838
:10559000D4F8B010734D6E4C1B1A8B420CD92B688B
:1055A0000B93D4F89C300B991160012B00F0C7804D
:1055B0003378032B00F0C3800DB0BDE8F08FFDF70A
:1055C000BBF8D3E703680893089B64481360FCF7B3
:1055D00027F86248FCF7E2F8216906F00DF8002888
:1055E00030D1634B1B68002B40F02A81614B1B6854
:1055F000002B40F02E813B68002B40F027815E4F4E
:10560000FDF748FBFFF7AEFCFDF772FEFCF710FF5D
:105610003B68524893B1FBF79FFF3B6898421CBF21
:1056200005233370FCF76EFE72B6544B4AF20261EA
:105630004BF2804219801A8062B6A1E7FBF78CFF1B
:105640003860EFE705233370CBE7434B454D4FF010
:10565000000841461420C3F8008001F09BFF41463A
:105660000B2001F097FF464A0123C2F800803370F7
:1056700077E7394B3948364D00221A60FCF7B4F809
:10568000A16C05F0D7FF002840F03981344B00228F
:105690001A60122001F084FF012800F09E81112081
:1056A00001F07EFF01282F4D7FF45BAF2A68354B58
:1056B0000692069A1A600423337052E7264B4FF085
:1056C00001081120C3F8008001F06AFF0546002898
:1056D0007FF446AF0146152001F05CFF29460B2000
:1056E00001F058FF264B86F800801D601D4D38E7FD
:1056F000194B1C4D00221A60FDF74EFC31E7164B8A
:10570000002212201A6001F04BFF012808BF03237A
:10571000124808BF3370FBF71FFF174B1B689842F6
:105720007FF41EAF0D48FCF739F8216905F078FFCA
:1057300000283FF415AF01230A4D337011E7FFF73E
:10574000C5FD0DB0BDE8F08F40BEFF1F8494FF1F64
:105750002893FF1F5C94FF1F7894FF1FAC94FF1FDA
:105760007C94FF1FE8BFFF1F6894FF1F6892FF1F14
:105770004887FF1F8894FF1F5894FF1F0C20054087
:105780009C94FF1FA494FF1FDFF8BC82A74ED8F89B
:105790000030DFF8B89243F0040300221120C8F86B
:1057A0000030327001F0FCFED9F80030002853D1EF
:1057B000012B00F0E6809E489E4DFCF715F8A16C89
:1057C00005F038FF00284CD19B4B00221A60D9F815
:1057D00000509748012D77D0FCF706F8E168DFF814
:1057E000549205F027FF002800F0AF80934D002170
:1057F000142001F0CFFE2A68D8F800300292904AB7
:105800000299116003F0FD03C8F800308848DFF802
:105810002492FBF7C3FF216905F0EEFE002834D087
:1058200000210B2001F0B6FE2A68D8F8003004925F
:10583000844A0499116003F0FE03C8F8003090E632
:10584000FCF7B2FE7A48FCF77BF8CFE6FFF7F0FCF6
:10585000D5E6FFF789FCCEE6002BACD1C9F80050A5
:10586000A9E77348FBF7C0FF82467148FBF796FF34
:10587000E96C05F01BFC0146504605F0DBFE0028F4
:10588000A2D06D4B01221A60A1E76948FBF786FFA1
:10589000D9F8181005F0B0FE0028C1D101210B2065
:1058A00001F078FE674B2A68D9F890101B680592C2
:1058B000059A0B449342BFF454AED8F8003043F03D
:1058C0000103C8F800304CE6FBF78EFF216ADFF8D1
:1058D00064A105F0AFFE8146002855D0574D002148
:1058E000142001F057FE2A68D8F800300092544A7C
:1058F0000099116003F0FD03C8F8003086E74C48BA
:10590000FBF772FF80464A48FBF748FFE96C05F059
:10591000CDFB0146404605F08DFE00283FF4B6AEB3
:105920004348FBF777FE444B01221A60B1E60021A1
:10593000142001F02FFE0123337007E63C48FBF7EB
:1059400069FE3D4B01221A60F7E53948FBF74CFF31
:10595000D9F8141005F06EFE00287FF447AF3448E4
:10596000FBF742FFD9F81C100546D9F8140005F0E2
:105970009BFB0146284605F03FFE00283FD12F4DF6
:1059800044E7C9F8000016E72948FBF72DFFDAF8CD
:105990001C108346DAF8200005F086FB01465846C5
:1059A00005F02AFE0028EAD029461420234D01F0F4
:1059B000F1FD234A2968DAF89000136801910199F2
:1059C00003448B427FF622AFD8F80030C2F8009033
:1059D00043F00203C8F8003018E71548FBF704FF4E
:1059E000E1690546606905F05FFB0146284605F060
:1059F00003FE00283FF453AE032333704FE601212A
:105A000014200E4D01F0C6FD0D4B2A68D9F89010F8
:105A10001B680392039A0B449342BFF4F7AED8F885
:105A2000003043F00203C8F80030EFE65C94FF1F3B
:105A3000AC94FF1F2893FF1F7C94FF1FE8BFFF1F3C
:105A4000A494FF1FEC93FF1F9C94FF1F5C92FF1F09
:105A500010B501F071FA0B48FBF74CFD0A4800F055
:105A60001BF80A4A0A4812680023012101F056F97E
:105A70004FF4B67003F00EFA044600F05FFD054BDC
:105A80001C6010BDAC94FF1FF093FF1F4C87FF1FDD
:105A90000093FF1F7494FF1F30B4074D074C084953
:105AA00000232B70236003654365836580F85C30B9
:105AB0000B6030BC704700BF3CBEFF1F38BEFF1FED
:105AC00034BEFF1F00207047704700BF30B40B4644
:105AD000054603C905EBC204043484E803001979C0
