:1000000000800020BD010000C19200007992000034
:1000100079920000799200007992000079920000B4
:10002000799200007992000079920000C19200005C
:10003000C192000079920000D5880000D9890000A3
:10004000C1920000C1920000C1920000C192000064
:10005000C1920000C1920000C1920000C192000054
:10006000C1920000C1920000C1920000C192000044
:10007000C1920000C1920000C1920000C192000034
:10008000C1920000C1920000C1920000C192000024
:10009000C1920000C1920000C1920000C192000014
:1000A000C1920000C1920000C1920000C192000004
:1000B000C1920000417E00004D7E0000517E000094
:1000C0005D7E0000617E0000657E0000C192000040
:1000D000C1920000C1920000C1920000C1920000D4
:1000E000C1920000C1920000C1920000C1920000C4
:1000F000C192000055B50000C1920000B59F0000FC
:10010000C1920000CDA20000C1920000C192000087
:10011000C1920000C1920000C1920000C192000093
:10012000C1920000C1920000C1920000C192000083
:10013000C1920000C1920000C1920000C192000073
:10014000C1920000C1920000C1920000C192000063
:10015000C1920000C1920000C1920000C192000053
:10016000C19200005DA50000C1920000C192000094
:10017000C1920000C1920000C1920000C192000033
:10018000C1920000C1920000C1920000C192000023
:10019000C1920000C1920000C1920000C192000013
:1001A000C1920000C1920000C1920000C192000003
:1001B000C1920000C1920000C1920000564B4CF267
:1001C000205210B51A804DF628121A8000BF00BFC9
:1001D00009F07AF8514B4FF010621A60504A9A6059
:1001E000504ADA60504A136813F4807304D14F49BF
:1001F0000B604FF4A85313604D4B1A78110703D5C9
:100200001A7842F008021A704A4B4B492A221A7097
:100210004A4A4B4B8B4204D252F8040F43F8040B6A
:10022000F8E7484B484900228B4202D243F8042B9E
:10023000FAE74649464A002352F8230041F82300D2
:1002400001336F2BF8D1434B434A802103F8011B44
:100250009342FBD1414B3D4A1A60414B8A221A70AE
:10026000A3F5805324225A70A0221A709A7992071B
:10027000FCD59A79D406FCD43A4A937903F00C035E
:10028000082B384BF9D103221A7140225A719A79FE
:100290009006FCD5334A9179324B4906FBD5324A58
:1002A000324911600221516020221A709A7902F0BD
:1002B0000C020C2AFAD12E4B2E4A1A602E4B2F4AD2
:1002C0001A6000225A60072243F8042C2C4AC3F813
:1002D0000C2D62B609F0D8FA144B1B68DA0705D565
:1002E000284809F0B5F8284B284A1A60284B1B7893
:1002F0005B0609D5244C254B22689A4204D121483B
:1003000009F0A6F8002323600DF024FC08F0E2FFBA
:1003100008F010FFFEE700BF0E20054030800440CB
:10032000823F04000100002B10D0034014D0034092
:1003300002D0074000E007402892FF1FB4390100B7
:100340002087FF1F2892FF1FB8C7FF1F0082FF1FD3
:100350000000000000E400E05FE400E008ED00E0E1
:100360000050064000400640448004400000030165
:1003700004800440C010050014E000E0FF76010096
:1003800000002020E8A2E65D1CE00340A5C3945ACB
:1003900000F00740FFFFFFFFFFFFFFFFFFFFFFFF32
:1003A000FFFFFFFFFFFFFFFFFFFFFFFFFFFFFFFF5D
:1003B000FFFFFFFFFFFFFFFFFFFFFFFFFFFFFFFF4D
:1003C000FFFFFFFFFFFFFFFFFFFFFFFFFFFFFFFF3D
:1003D000FFFFFFFFFFFFFFFFFFFFFFFFFFFFFFFF2D
:1003E000FFFFFFFFFFFFFFFFFFFFFFFFFFFFFFFF1D
:1003F000FFFFFFFFFFFFFFFFFFFFFFFFFFFFFFFF0D
:10040000FFFFFFFFFFFFFFFFFFFFFFFFDEF9FFFF23
:1004100010B5054C237833B9044B13B10448AFF33E
:1004200000800123237010BD2892FF1F00000000F0
:10043000B0390100084B10B51BB108490848AFF3AB
:1004400000800848036803B910BD074B002BFBD0A0
:10045000BDE81040184700BF000000002C92FF1FAD
:10046000B03901002892FF1F00000000F0B400F135
:100470001C06134F00243146031F00F13C0243F8D1
:10048000044FB34241F8047F4FF0000542F8044F97
:10049000F5D100230B4A0C4C056647F230514566F6
:1004A0008566C566C56744670267826780F88430E1
:1004B00080F8853080F89C30A0F8AE10F0BC704712
:1004C0000000A040000048430000C8C22DE9F041F0
:1004D00090F89C4084B0202364008DF80530E4B28D
:1004E000042380468DF804408DF80630032720460B
:1004F00009F088FE02210DF1050009F08DFE8DF84E
:10050000044001F01BFD30B3092140480AF0BCFE55
:100510000023102221463E4808F01CFB01213D48E3
:100520000AF0B2FE002310229DF80510384808F0AA
:1005300011FB012137480AF0A7FE002310229DF885
:100540000610334808F006FB012132480AF09CFEF1
:100550002F4808F0EFFA02208DF8044009F046F920
:1005600001F0ECFC00284CD102AE002409F06AFE38
:1005700070B3072C1FD101E009F074FE09F062FE90
:100580000028F9D101F0DAFC10B1214808F0D2FAC4
:100590009DF80B009DF80C109DF80D209DF80E3075
:1005A000C8F88800C8F88C10C8F89020C8F89430B3
:1005B00004B0BDE8F08109F055FE054606F8010BD0
:1005C00001F0BCFC70B9013409F03CFE0028D0D128
:1005D000072CD3D001F0B2FC78B9013FD8D09DF8F8
:1005E000044084E7E9B200231022094808F0B2FA77
:1005F000012108480AF048FEE5E7054808F09AFAA4
:10060000EBE7072104480AF03FFEADE7181D0100A3
:10061000C887FF1F78240100241D010090F88C007A
:10062000704700BF90F88800704700BF90F89000B6
:10063000704700BF90F89400704700BF082994BF2E
:1006400050F82100002070472DE9F0410B4E804604
:10065000041F00F11C0754F8045F314628460DF0D2
:10066000EFF930B1D8F8801028460DF007FA00B144
:100670002E46BC42EFD13046BDE8F081000020415B
:100680002DE9F041D0F880704FF00008041F00F110
:100690001C0654F8045F394628460DF0EFF9084966
:1006A00048B128460DF0CCF9414620B128460DF05E
:1006B000E5F900B1A846B442EBD14046BDE8F0816F
:1006C000000070422DE9F047D0F8807082464FF06C
:1006D0000009041F00F11C064FF0000854F8045FE5
:1006E000394628460DF0CAF90E4950B128460DF09A
:1006F000A7F930B1484629460CF0FCFE08F1010884
:100700008146B442EAD1B8F1000F01D0CAF8A08006
:1007100040460CF0A3FF014648460DF0A7F8BDE89F
:10072000F08700BF00007042D0F8A000704700BF03
:10073000D0F8983070B5054673B9866E446E314670
:1007400020460DF07DF970B1ED6E204629460DF082
:1007500077F9D0B1204670BD012B0ED0022B19D0F5
:10076000032B15D070BDEC6E304621460DF068F9B4
:100770000028EFD03446204670BDC46EAD6E2046D2
:1007800029460DF05DF90028E4D12C46204670BDC5
:10079000446EF3E7446ED7E7D0F8983070B505465D
:1007A00073B9866E446E314620460DF067F970B11C
:1007B000ED6E204629460DF061F9D0B1204670BD9E
:1007C000012B0ED0022B19D0032B15D070BDEC6E6F
:1007D000304621460DF052F90028EFD0344620462D
:1007E00070BDC46EAD6E204629460DF047F9002855
:1007F000E4D12C46204670BD446EF3E7446ED7E743
:100800002DE9F04F022987B00746144600F02E81EB
:10081000032900F0C480012900F0838097F8AC30F0
:1008200001933846FFF784FF396F04460DF008F94D
:1008300000B13C673846FFF7AFFF796F04460DF013
:100840001DF900B17C6707F11C0BA7F1040A07F141
:100850003C095D46D0464E4658F8044F55F8040F03
:1008600021460DF00BF930B1D7F8801020460DF07D
:10087000FBF800B12C6056F8041F20460DF0FEF87E
:1008800000B13460A945E7D1019B002B7ED0A84C74
:10089000D7F8A82023680393039BB7F8AE109B1AE0
:1008A0008B420DD300224AF8042FD3454FF00003AA
:1008B000F9D13B667B66BB66FB6607B0BDE8F08F8F
:1008C00023680493049BC91A0A4441F287339A426D
:1008D000F3D8022197480AF0D7FC974808F02AF984
:1008E000062196480AF0D0FC00230A2297F89C10B3
:1008F000914808F02FF9192191480AF0C5FC2368A6
:100900000593059AB7F8AE30D7F8A8108A489B1A15
:1009100019440A22002308F01DF9874808F00AF953
:10092000CBE7137A80F8A430D0F8B400D7F8B060E1
:100930000CF094FEE37A0546A07A03EB00200CF05D
:100940008DFE31460CF0DEFE29460CF0D3FD7866B4
:10095000637B207B03EB00200CF080FE31460CF023
:10096000D1FE29460CF0C6FDB866E37BA07B03EB05
:1009700000200CF073FE31460CF0C4FE29460CF04A
:10098000B9FD97F8AC300193F8664AE7684B1B68ED
:100990000293029BC7F8A83007B0BDE8F08F107A29
:1009A000537A03EB00200CF059FE66490CF0AAFEC6
:1009B000D7F88050294606460DF060F840B16249EC
:1009C00030460DF03DF818B100233E6187F8AC3099
:1009D000E37AA07A03EB00200CF040FE59490CF0BA
:1009E00091FE0646014628460DF02AF840B15649C8
:1009F00030460DF025F818B100237E6187F8AC3041
:100A0000637B207B03EB00200CF028FE4D490CF0AB
:100A100079FE0646014628460DF012F840B14A49D3
:100A200030460DF00DF818B10023BE6187F8AC30E8
:100A3000E37BA07B03EB00200CF010FE41490CF09F
:100A400061FE0446014628460CF0FAFF00283FF4F8
:100A5000E5AE3D4920460CF0F3FF00283FF4DEAE42
:100A60000023FC6187F8AC300193DAE6107A537A00
:100A700003EB00200CF0F2FD32490CF043FED7F8F6
:100A80008050294606460CF0F9FF00285ED101236C
:100A900087F8AC30E37AA07A03EB00200CF0DEFD9F
:100AA00028490CF02FFE0646014628460CF0C8FFE8
:100AB00000285FD0244930460CF0C2FF002859D0EE
:100AC00000237E6087F8AC30637B207B03EB002043
:100AD0000CF0C4FD1B490CF015FE064601462846E5
:100AE0000CF0AEFF002841D0174930460CF0A8FFAB
:100AF00000283BD00023BE6087F8AC30E37BA07BAE
:100B000003EB00200CF0AAFD0E490CF0FBFD04469F
:100B1000014628460CF094FF18B30B4920460CF010
:100B20008FFFF0B10023FC6087F8AC30019378E6CA
:100B3000E0C4FF1F38320100C887FF1F2C1D0100D1
:100B4000341D01006F12833A000070420B49304699
:100B50000CF076FF00289AD000233E6087F8AC3076
:100B600098E7012387F8AC3001935AE6012387F810
:100B7000AC30C3E7012387F8AC30A5E70000704232
:100B80002DE9F04F90F89C3091B007465B008DF84E
:100B90000830FFF79BFCD7F89000D7F89440D7F8BF
:100BA0008C30D7F8882097F89C108DE81100C94840
:100BB00001F0CAFA30223D2303268DF809208DF872
:100BC0000A300DF10A059DF8089049F001084046E9
:100BD00009F018FB0DF10900022109F01DFB8DF849
:100BE0000880424602AB00205040082410F0800FDD
:100BF0004FEA400018BF80F00700013CC0B2F5D1B9
:100C00009D4202D013F8012FEEE709F0FBFA01F044
:100C100095F9002840F07C8202208DF8089008F0B9
:100C2000E5FD01F08BF9002840F0B8820DF10C0AC7
:100C3000D146002409F006FB002843D0032C34D110
:100C400001E009F00FFB09F0FDFA0028F9D101F0ED
:100C500075F910B1A04807F06DFF312303268DF818
:100C600009308DF80A609DF8089049F00108404667
:100C700009F0C8FA0DF10900022109F0CDFA8DF84A
:100C80000880424602AB00205040082410F0800F3C
:100C90004FEA400018BF80F00700013CC0B2F5D118
:100CA0009D4228D013F8012FEEE709F0DBFA09F88E
:100CB000010B804601F042F968B9013409F0C2FA2B
:100CC0000028BBD1032CBED001F038F978B9013E21
:100CD0007FF479AFC1E75FFA88F1002310227E48E4
:100CE00007F038FF01217D480AF0CEFAE5E77A489F
:100CF00007F020FFEBE709F085FA01F01FF9002863
:100D000040F0C58102208DF8089008F06FFD01F0D9
:100D100015F9002840F03D820DF10C09002409F07E
:100D200091FA002844D0032C35D101E009F09AFA59
:100D300009F088FA0028F9D101F000F910B16648ED
:100D400007F0F8FE342201238DF809208DF80A30CF
:100D500003269DF8089049F00108404609F052FA30
:100D60000DF10900022109F057FA8DF8088042467A
:100D700002AB00205040082410F0800F4FEA4000E2
:100D800018BF80F00700013CC0B2F5D19D4228D0C9
:100D900013F8012FEEE709F065FA09F8010B804618
:100DA00001F0CCF868B9013409F04CFA0028BAD146
:100DB000032CBDD001F0C2F878B9013E7FF453AFE7
:100DC000C0E75FFA88F100231022434807F0C2FE13
:100DD000012142480AF058FAE5E73F4807F0AAFE29
:100DE000EBE709F00FFA01F0A9F8002840F00E81B6
:100DF00002208DF8089008F0F9FC01F09FF8002817
:100E000040F0D6810DF10C09002409F01BFA0028EE
:100E100000F08480032C72D101E009F023FA09F07C
:100E200011FA0028F9D101F089F810B12A4807F029
:100E300081FE012212238DF809208DF80A304FF02F
:100E400003089DF80840204609F0DCF902210DF165
:100E5000090009F0E1F98DF8084001F06FF830B3AE
:100E600009211F480AF010FA0023102221461A48CF
:100E700007F070FE012119480AF006FA002310223B
:100E80009DF80910144807F065FE012113480AF087
:100E9000FBF9002310229DF80A100F4807F05AFEB4
:100EA00001210E480AF0F0F90B4807F043FE062036
:100EB0008DF8084008F09AFC01F040F8002840F056
:100EC000728103AD002609F0BDF900283FD0162E2F
:100ED0002FD109E0501D0100C887FF1F78240100B1
:100EE000181D010009F0BEF909F0ACF90028F9D18C
:100EF00001F024F8162600287DD1152035E009F0F0
:100F0000B1F909F8010B804601F018F800285BD10F
:100F1000013409F097F900287FF47CAF032C3FF4EB
:100F20007EAF01F00BF800286CD1013E7FF411AFC9
:100F30007FE709F097F905F8010B044600F0FEFF82
:100F400000284DD1013609F07DF90028BFD1162EB9
:100F5000CAD000F0F3FF00284DD1B8F101087FF4AA
:100F600070AF701E002840F31982002303AA1C46AC
:100F700012F8011B08254C4014F0800F4FEA44047E
:100F800018BF84F00704013DE4B2F5D10133834278
:100F9000EEDB9DF8218089484146224601F0D4F8D5
:100FA000162EC146A34602D1A04500F0138197F842
:100FB0009C108348CDF800B04B46324601F0F2F861
:100FC000002011B0BDE8F08F5FFA88F100231022F5
:100FD0007C4807F0BFFD01217B480AF055F997E7EF
:100FE000E1B200231022774807F0B4FD01217648D2
:100FF0000AF04AF9A6E7734807F09CFD162EACD11B
:101000001520B2E76F4807F095FD8EE709216F487C
:101010000AF03AF92346102241466A4807F09AFD41
:10102000012169480AF030F9234610229DF8091081
:10103000644807F08FFD012163480AF025F910226A
:1010400023469DF80A105F4807F084FD01215E48A1
:101050000AF01AF921460DF10B0002AA12F8014B11
:101060006140C9B2082311F0800F4FEA410118BF57
:1010700081F00701013BC9B2F5D19042EED11022B7
:10108000504807F067FD4F4807F054FDB0E60921CE
:101090004E480AF0F9F8234610224146494807F025
:1010A00059FD012148480AF0EFF8234610229DF827
:1010B0000910444807F04EFD012143480AF0E4F8C6
:1010C000102223469DF80A103E4807F043FD0121F7
:1010D0003D480AF0D9F821460DF10B0002AA12F89A
:1010E000014B6140C9B2082311F0800F4FEA410162
:1010F00018BF81F00701013BC9B2F5D19042EED192
:101100001022304807F026FD2E4807F013FDF9E5C0
:1011100009212E480AF0B8F82346102241462948F2
:1011200007F018FD012128480AF0AEF823461022E6
:101130009DF80910234807F00DFD012122480AF00F
:10114000A3F8102223469DF80A101E4807F002FD5E
:1011500001211D480AF098F821460DF10B0002AA62
:1011600012F8014B6140C9B2082311F0800F4FEA19
:10117000410118BF81F00701013BC9B2F5D190428E
:10118000EED110220F4807F0E5FC0E4807F0D2FC24
:1011900042E507210E480AF077F8BDE507210C4823
:1011A0000AF072F842E5072109480AF06DF888E66E
:1011B000072107480AF068F824E600BF841D0100F3
:1011C000D01D0100C887FF1F78240100181D0100F1
:1011D000241D01009DF80C3097F89C20B3EB420FC2
:1011E0007FF4EEAE9DF80D30012B7FF4E9AE9DF853
:1011F0000E30122B7FF4E4AE9DF810309DF80F00F6
:1012000003EB00200CF02AFA69490CF07BFAF96F25
:10121000386604460CF032FC00B1FC67B96F20461A
:101220000CF00EFC00B1BC67A7F1040907F1200621
:1012300007F140054FF008089AF806309AF80500C3
:1012400003EB00200CF00AFA5A490CF05BFA49F85B
:10125000040F316804460CF0F3FB0AF1020A30B1C6
:10126000D7F8801020460CF0FFFB00B134602968ED
:1012700020460CF003FC043600B12C60B8F10108E4
:1012800005F10405D8D19DF81E309DF81D0003EB33
:10129000002002300CF0E2F947490CF0E7FA014671
:1012A00046480CF0E3FA46490CF022F945490CF0A7
:1012B00029FA05460AF094FA044628460AF090FAFC
:1012C00041490AF0FFFA4149054620460CF01AFA56
:1012D0003F490CF00FF93F49044628460CF012FA3A
:1012E000014620460CF006F901464FF07E500CF006
:1012F000BDFA39490CF0FCF89DF81F209DF820300C
:10130000786603EB022009300CF0A8F933490CF0A1
:10131000ADFA014629480CF0A9FA29490CF0E8F881
:1013200028490CF0EFF905460AF05AFA0446284617
:101330000AF056FA24490AF0C5FA2449054620461F
:101340000CF0E0F922490CF0D5F822490446284671
:101350000CF0D8F9014620460CF0CCF801464FF0CD
:101360007E500CF083FA1C490CF0C2F8B86638467F
:10137000FFF7DEF9396F04460CF062FB00B13C6701
:101380003846FFF709FA796F04460CF077FB00B195
:101390007C67134800F0D8FE012012E69DF82190EA
:1013A000104849464246C34600F0CEFEFFE500BF66
:1013B0001357053B2003C839001601470AD7E33FFE
:1013C000E17A644000007A4400004040A40D8F3967
:1013D0005A80473A46A6DB3333938843002C0147B3
:1013E000A81D0100841D0100D0F8983010B50446F6
:1013F00033B1012B0FD0022B1FD0032B14D010BD03
:10140000816E406E0CF076F8E16E0CF073F80F49C7
:101410000CF02CFA10BDC16E806E0CF06BF84FF022
:101420007C510CF06FF910BD816E406E0CF062F8CB
:101430004FF07C510CF066F910BDC16E406E0CF09F
:1014400059F84FF07C510CF05DF910BD00004040A0
:101450002DE9F8430026D0F88080066681460446D0
:1014600000F1200754F8045B414628460CF006FBC7
:10147000084950B128460CF0E3FA30B1304629460D
:101480000CF038F80646C9F86000BC42EAD1304694
:10149000BDE8F8830000704202299ABF00EB81008A
:1014A000406E0020704700BF3E2998BF80F89C1016
:1014B000704700BF90F8A400704700BF90F8840008
:1014C000704700BF90F88500704700BFC0F89810C3
:1014D000704700BF80F88410704700BF80F8851007
:1014E000704700BF30B5C0F8801083B008460BF0DD
:1014F0005FFC074C022502460B460095204607F08C
:1015000073FB204603B0BDE8304007F013BB00BFBB
:10151000C887FF1FC0F8B010C0F8B420704700BFE4
:1015200070B500F535550646303500F128042046E3
:10153000B834FEF79BFFAC42F9D106F1E005012477
:1015400028460021FFF7C6FF214628460134FFF751
:10155000ABFF3F2C05F1B805F2D142F67C540025D3
:101560000548064A064B3555002130617161B2616C
:10157000F361304670BD00BF00007A44000048436C
:101580000000C8C270B500F53556303600F1E004F1
:10159000002507E0012520460021B834FFF79EFF13
:1015A000B4420AD02046FFF789FF0028F3D0204636
:1015B000FFF788FF0028EDD170BD284670BD00BF41
:1015C000F8B500F53657002300F535563B60303648
:1015D00000F1E00402E0B834B4420DD02046FFF739
:1015E0006DFF0028F7D020463D68FFF79DF8B8341E
:1015F0002844B4423860F1D13868F8BDF8B50E46D9
:10160000096801F47F6500290446A5F5C06515DB6E
:101610002D0901F00F07B82303FB054428342046A9
:101620000121FFF757FF20460121FFF757FF324600
:1016300039462046BDE8F840FFF7E2B80A4801F015
:101640000F0707F077FA1221084809F01DFE3168EC
:10165000054801F0004100230A2207F07BFA024806
:101660002D0907F067FAD6E7C887FF1F201E010083
:101670002DE9F0430446002383B0064644F8E03BDE
:10168000012504E001353F2D04F1B80469D020465E
:10169000FFF714FF0028F5D0504800F055FD29460B
:1016A0004F4800F051FD2046FFF76AFA2046FFF749
:1016B000CFFE0BF07DFB02460B464A4800F044FD8E
:1016C0002046FEF7C1FF80462046FEF7D9FF0746B9
:1016D00040460BF06DFB8046384689460BF068FBB0
:1016E00042464B46CDE900013F4800F02DFD002168
:1016F0002046FFF7D1FE012180462046FFF7CCFEB1
:10170000074640460BF054FB8046384689460BF0AE
:101710004FFB42464B46CDE90001344800F014FD32
:101720002046FFF795FE014630680BF0E3FE30607F
:101730002046FEF7FDFFB1690CF082F9002833D195
:101740002046FFF729F8F1690CF098F9002899D0A4
:101750002046FFF721F801353F2DF06104F1B80470
:1017600095D170680BF07AFF014630680CF07EF876
:101770007169306004460CF081F900B1746131691F
:1017800020460CF05DF900B134610B2007F0F8FF42
:1017900042F67C53F35C60B99BB142F67C53012264
:1017A000F25403B0BDE8F0832046FEF7C1FFB061FC
:1017B000C6E753B942F67C530022F25403B0BDE8A9
:1017C000F0830B4800F0EEFCE7E70A4800F0D4FC99
:1017D00042F67C530022F254F0E700BFE8250100F6
:1017E000341E0100701E0100841E0100B01E0100A5
:1017F000CC1E0100041F010070B5114B836000F581
:1018000035550646303500F1E00402E0B834AC420C
:1018100013D02046FFF752FE0028F7D02046FEF7EF
:1018200013FFB1680CF00CF90028EFD02046FEF74A
:101830000BFFB834AC42B060EBD1B06870BD00BFF4
:101840000000A04070B5002300F535550646C36082
:10185000303500F1E00402E0B834AC4213D0204649
:10186000FFF72CFE0028F7D02046FEF709FFF168AD
:101870000CF004F90028EFD02046FEF701FFB83441
:10188000AC42F060EBD1F06870BD00BF00687047FB
:10189000416070472DE9F84342F6885642F68C5570
:1018A00042F6845E42F69054815140F80E20089E24
:1018B000435100F535550651894690461F4630354F
:1018C00000F1E00402E0B834AC4214D02046FFF747
:1018D000F5FD0028F7D020464946FFF7F7FD2046E2
:1018E0004146FFF7FFFD204632463946B834FFF740
:1018F00011FEAC42EAD1BDE8F88300BF2DE9F04308
:1019000042F6745300F535550027C7502E463A4A23
:101910003A4B426283B080464FF000090362303593
:10192000343600F1E00402E0B834A54213D020467A
:10193000FFF7C4FD0028F7D0336801333360204639
:10194000FFF752FD2E490CF099F880BBB834A54240
:1019500007F10107EBD142F6745358F80340E01B3E
:101960000BF07CFE014648460BF080FF054642F630
:10197000785058F800309C4215D042F6905642F606
:101980008C5342F6845242F6885158F8066058F853
:10199000033058F8022058F8011048F8004000962B
:1019A0004046FFF777FF284603B0BDE8F0832046A6
:1019B000FFF71AFD014648460BF09CFD8146204684
:1019C000FEF7EAFED8F820100CF058F870B920465F
:1019D000FEF7AEFED8F824100CF032F80028A3D0A1
:1019E0002046FEF7A5FEC8F824009DE72046FEF736
:1019F000D3FEC8F82000EAE700C0794400C079C4EB
:101A000000008CC2006A7047406A7047F8B500F564
:101A1000355507460026303500F1E00402E0B834C1
:101A2000AC420FD02046FFF749FD0028F7D02046F2
:101A3000FEF748FE014630460BF05CFDB834AC4280
:101A40000646EFD142F67453F8580BF007FE0146F4
:101A500030460BF00BFFF8BD2DE9F04F91B0064674
:101A600094480F91934600F017FB924800F014FB46
:101A7000904800F011FB42F67453304656F803804C
:101A8000FFF79EFD07463068D6F804900BF090F9FA
:101A900002460B463046CDE90C23FFF7B7FF8246DE
:101AA0003046B468F568FFF729FF0BF081F9CDE9FE
:101AB0000A01214628460BF01BFD7F490BF022FE50
:101AC0000BF076F9CDE9080128460BF071F9CDE964
:101AD000060120460BF06CF9CDE9040150460BF0ED
:101AE00067F9DDE90C23CDE90201CDE90023414688
:101AF0004B463A46714800F0CFFA6E4800F0CCFAF7
:101B00000023E03601270C9305E001373F2F06F153
:101B1000B80600F0BF803046FFF7D0FC0028F4D0B4
:101B20003046FEF77BFD3046FEF77CFD3046FEF783
:101B30007DFD3046FEF77EFD3046FFF7BBFC0821F9
:101B400082465F4809F0A0FB39465E4807F042F83C
:101B5000092F40F3AA8002215B4809F095FB30462B
:101B6000FFF776FC0BF024F99DF83C80CDF800805F
:101B70000B460246534807F037F80121534809F055
:101B800083FB3B460C9C474600254FF001099846D5
:101B90002EE006214E4809F077FB2146494807F020
:101BA00019F802214B4809F06FFB29463046FEF731
:101BB00045FD0BF0FDF800970B460246414807F043
:101BC00013F8012141480C4409F05EFB09FA05F3C2
:101BD000BBF1000F09D013EA0A0F4FF002013E4893
:101BE00004BF3E48022109F04FFB0135082D06D005
:101BF000092CCEDC01213A4809F046FBC9E73148FF
:101C000006F098FF0921374809F03EFB00213046D5
:101C1000FFF742FC0BF0CCF8022402460B4600947E
:101C2000284806F0E1FF0A212F4809F02DFB012189
:101C30003046FFF731FC0BF0BBF8009402460B4630
:101C4000204806F0D1FF0A21284809F01DFB214653
:101C50003046FFF721FC0BF0ABF80B460C990094D3
:101C60000246083117480C91474606F0BDFFBBF10C
:101C7000000F12D00D211E4809F006FB0137224645
:101C8000514600230F4806F065FF3F2F06F1B806C6
:101C90007FF441AF11B0BDE8F08F0121154809F084
:101CA000F3FA084806F046FF2FE701210C4809F037
:101CB000EBFA50E7E825010000007A44B421010066
:101CC00054220100C887FF1F383201006022010042
:101CD00064220100682401006C22010070220100CE
:101CE0007824010074220100802201008C2201006E
:101CF00098220100A82201002DE9F04F85B000F1E3
:101D0000E0058A4603929B462E464FF0010806E006
:101D100008F10108B8F13F0F06F1B8067BD0304654
:101D2000FFF7CCFB0028F3D000230A2251467D4860
:101D300006F010FF01217C4809F0A6FA03980BF089
:101D400037F800230246009376480B4606F04CFF16
:101D50000121754809F098FA5946724806F03AFF91
:101D60000121714809F090FA41466E4806F032FFB1
:101D700001216D4809F088FA00244FF0020921463C
:101D80003046FEF75BFC0BF013F8CDF800900246EE
:101D90000B46644806F028FF01340121624809F02F
:101DA00073FA082C4FF00207E9D100213046FFF703
:101DB00073FB0AF0FDFF009702460B46594806F0F8
:101DC00013FF0121584809F05FFA01213046FFF75F
:101DD00063FB0AF0EDFF009702460B46514806F000
:101DE00003FF0121504809F04FFA39463046FFF70A
:101DF00053FB0AF0DDFF009702460B46494806F008
:101E0000F3FE08F10108474806F094FEB8F13F0FD1
:101E100006F1B80683D101274FF0000904E001372D
:101E20003F2F05F1B80579D02846FFF747FB00287A
:101E3000F5D000230A2251463C4806F08BFE0121D2
:101E4000394807F0B3FF03980AF0B2FFCDF80090CD
:101E500002460B46354806F0C7FE0121324807F01E
:101E6000A5FF5946314806F0B5FE01212E4807F07E
:101E70009DFF39462D4806F0ADFE01212A4807F0A6
:101E800095FF00244FF0020821462846FEF7D6FBB6
:101E90000AF08EFFCDF8008002460B46234806F07C
:101EA000A3FE01340121204807F080FF082C4FF0E9
:101EB0000206E9D100212846FFF7EEFA0AF078FF82
:101EC000009602460B46194806F08EFE0121164880
:101ED00007F06CFF01212846FFF7DEFA0AF068FFE1
:101EE000009602460B46114806F07EFE01210E4880
:101EF00007F05CFF31462846FFF7CEFA0AF058FF9C
:101F0000009602460B46094806F06EFE0137074868
:101F100006F010FE3F2F05F1B80585D105B0BDE8EC
:101F2000F08F00BFC887FF1FAC220100AC87FF1FE6
:101F3000014B1870704700BF2087FF1F024B1878B5
:101F4000B0FA80F0400970472087FF1F0278002A0E
:101F500000F0908070B5034682B00D46252A2AD144
:101F600058785C1C08B325282FD0732831D06428FA
:101F700024D0692822D066284FD07A2859D07828D2
:101F800035D058282FD062283ED0422838D06C282F
:101F900014D0632812D0742857D054285FD009F089
:101FA000F7F96278631C002AD8D1344802B0BDE842
:101FB000704006F0BFBD18781C46F0E72B1D29685D
:101FC0002E481D4606F006FEEBE7104609F0E0F944
:101FD000E7E72E6830460CF0B3FB01463046043587
:101FE00009F052F9DDE70221254809F04DF92E1DCF
:101FF0002968224800231022354606F0ABFDD0E7C1
:102000000221204809F040F92E1D29681B480023B1
:102010000222354606F09EFDC3E7073525F0070589
:102020000321D5E9002315480091083506F0DCFDB1
:10203000B7E7073525F007050021D5E900230F484C
:102040000091083506F0D0FDABE7296801290EBFE5
:102050000D480E480121043509F016F9A1E72B6857
:10206000012B07BF04210A480A480521043509F05D
:102070000BF996E7014806F05DBD00BFC887FF1F5A
:10208000B0220100B4220100B8220100BC220100EC
:10209000C0220100C82201000FB400B583B004A91A
:1020A00051F8040B0191FFF751FF03B05DF804EB09
:1020B00004B0704770B51B4B1B4C1B6882B00D46BB
:1020C0000193019B236019460446002316461748D6
:1020D0000A2206F03FFD0321154809F0D5F8032C2C
:1020E00007D8DFE804F01A1510020521114809F09D
:1020F000CBF80221104809F0C7F831462846FFF70F
:1021000025FF02B070BD07210C4809F0BDF8F0E7CB
:1021100004210B4809F0B8F8EBE70521094809F05C
:10212000B3F8E6E7E0C4FF1F4492FF1FC887FF1F14
:10213000D0220100EC22010068240100E422010009
:10214000DC220100D42201000FB400B5094B18783D
:1021500083B020B103B05DF804EB04B0704705AB69
:102160001A4604990193FFF7A5FF03B05DF804EB4D
:1021700004B070472087FF1F0FB4094B00B51B78D0
:10218000012B83B004D903B05DF804EB04B07047B1
:1021900005AB1A46049901930120FFF78BFFF2E784
:1021A0002087FF1F0FB40B4B00B51B78032B83B0A8
:1021B00004D903B05DF804EB04B0704705AB1A46D0
:1021C000049901930320FFF775FF03B05DF804EB5A
:1021D00004B070472087FF1F0A4A0B49906D536D6A
:1021E00003FB00F34FF47A7000FB03F0642310B597
:1021F0000B600BF033FA0549054C0BF037FB206000
:1022000010BD00BF4893FF1F3887FF1FE4388E3E84
:102210001493FF1F38B5044608460D460CF090FA9B
:102220002368024629465B682046984705462046B3
:1022300006F080FC284438BD2DE9F0414448454F64
:10224000454D464E464CFFF727FF464B4649474A09
:102250005960DF6013210027454819701A6145490C
:10226000454A5D615E62454D9C614FF07C56444C31
:102270001F63444F9862D96243485A630C21434A12
:102280009D635E6440F61C450A269C641F6241F211
:1022900004043F4FD864196502200121C3F8C0200F
:1022A0009D6600226425DE661C674FF49676322414
:1022B000DF61DF635A27587058721972596583F8C5
:1022C00040209D655E66DE651C664FF47A785F6728
:1022D000DFF8C4C09A67D867C3F88010C3F88420B9
:1022E000C3F89C40C3F8A840DFF8B0E0C3F8A420CE
:1022F000C3F8B010C3F8B40044F62067C3F8B85070
:10230000FF2683F8C410052541F2883183F8D020D8
:10231000204CC3F8A08040F2D6626FF03300C3F8BF
:102320008CC0C3F890E0C3F89470C3F8AC60A3F815
:10233000BE50C3F8C840C3F8CC00C3F89810A3F847
:10234000BC10A3F88820A3F88A20BDE8F08100BF64
:10235000F42201006666864033338340CDCCCC3D09
:10236000CDCC4C404893FF1F20A107000000404007
:1023700000008242000020C1000020420000A04076
:102380009A997940333373400AD7233D9A99993EFD
:10239000CDCC4C3E6C09793B0000114400F0C8459F
:1023A000F0B54FF47A6085B007F020FA00210F20D5
:1023B00007F0F4F900210E2007F0F0F900211120B8
:1023C00007F0ECF90021102007F0E8F900211220B5
:1023D00007F0E4F90021132007F0E0F901210B20B8
:1023E00007F0DCF901210C2007F0D8F901211420B5
:1023F00007F0D4F90121152007F0D0F901211620AA
:1024000007F0CCF90121172007F0C8F901210520B8
:1024100007F0C4F9904C914D0121062007F0BEF958
:1024200001210D2007F0BAF920880BF013F90146BD
:10243000162007F01DF920880BF00CF90146172033
:1024400007F016F920880BF005F90146052007F082
:102450000FF920880BF0FEF800240146062007F053
:1024600007F9009423467E4A7E497F4805F090F99B
:10247000E6B2324679497C4805F038F92B7977493C
:1024800079486FF30003013432462B7105F024F9CB
:10249000082CEDD10924E6B232467049724805F0A5
:1024A00025F92B796D49704843F001030134324618
:1024B0002B7105F011F90D2CEDD16C4C4FF0FF3262
:1024C0002068102105F030FD20684FF0FF32102108
:1024D00005F002FD20684FF0FF32022105F010FDEB
:1024E00020684FF0FF32022105F014FD00220F2179
:1024F000206805F023FD0C215D4808F0C5FE5D480D
:1025000006F018FB14215C4808F0BEFE594806F09E
:1025100011FB40F2836007F027FA564806F00AFBE9
:102520001721564808F0B0FE524806F003FB544B02
:102530001B789A0600F1C080514B1B781B0700F1F5
:10254000C7804F4B1B785F0700F1CE804C4B1B7848
:102550009E0700F1D5804B4B1B781D0600F1DC80F7
:10256000484B1B785C0600F1E380464B1B789806CD
:1025700000F1EA80434B1B78590700F1F180414B91
:102580001B781A0700F1F8803E4B1B789B0700F17F
:10259000FF80384806F0CEFA72B63B4A4CF2205320
:1025A0004DF628112024138023461180013BFDD1D4
:1025B000364D3748374900234FF480562E8003802C
:1025C0000B8032F80E3C9BB243F0D30322F80E3C52
:1025D00062B69D2007F0C6FD21462F482F4D08F01A
:1025E00053FE244806F0A6FA05F1D4062F462C46E1
:1025F000601B06F00DFD04F8010BB442F8D13B78E6
:10260000132B01D0FFF718FE0420FFF791FC244B99
:10261000244D002401210D201C6007F0ABF8796DDA
:102620002148FFF735F9D7F8CC00D7F8C8307A6CD5
:1026300097F8401000901C48FFF72CF91B4B1C49E1
:102640001A68039203981B680293029A194B2C7024
:1026500008601A6005B0F0BD2887FF1F8C94FF1F2B
:10266000B8C4FF1F20A107001CC3FF1FE094FF1F79
:1026700014230100C887FF1F242301003C2301000D
:1026800001F0074000F007400E20054004200540FF
:102690000620054016200540402401004893FF1FF6
:1026A0005C92FF1FCC94FF1F7C95FF1FE0C4FF1FAF
:1026B0001495FF1F9494FF1F2121394808F0E4FD71
:1026C000384806F037FA384B1B781B077FF539AFCF
:1026D0000C21364808F0D8FD324806F02BFA324B70
:1026E0001B785F077FF532AF0E21314808F0CCFD33
:1026F0002C4806F01FFA2C4B1B789E077FF52BAF5A
:1027000017212C4808F0C0FD264806F013FA2A4B82
:102710001B781D067FF524AF0E21284808F0B4FD74
:10272000204806F007FA244B1B785C067FF51DAFA6
:102730001221234808F0A8FD1A4806F0FBF91E4BA9
:102740001B7898067FF516AF13211E4808F09CFDF4
:10275000144806F0EFF9184B1B7859077FF50FAFB7
:102760001C21194808F090FD0E4806F0E3F9124BC1
:102770001B781A077FF508AF1921144808F084FD6B
:10278000084806F0D7F90C4B1B789B077FF501AF83
:1027900018210F4808F078FD024806F0CBF9F8E65A
:1027A00054230100C887FF1F01F007407823010070
:1027B000882301009823010000F00740B0230100A6
:1027C000C0230100D4230100E823010008240100F4
:1027D0002424010070B5424C424D4348E668002372
:1027E0002B70FFF72FF8014630460BF029F908B19E
:1027F00004232B703C48FEF7FFFF21690BF020F902
:1028000018B12B7843F010032B703748FFF7FAF814
:10281000A16A0BF033F918B12B7843F040032B7009
:10282000002631486E70FFF7EFF82F48EE70FFF783
:1028300009F805462C482B4EFEF7DEFF01462846D8
:102840000AF056FEE16B0BF019F908B10123F370A1
:10285000264D254800232B70FEF7F4FF616A0646DB
:10286000E0680AF045FE014630460BF007F908B172
:1028700004232B701C48FEF7BFFF616A06462069DF
:102880000AF038FE014630460BF0DAF818B12B7822
:1028900043F010032B701448FFF7B4F8A16B064601
:1028A000A06A0AF025FE014630460BF0E7F818B1A1
:1028B0002B7843F040032B7000230B486B70FFF71D
:1028C000A3F8A16B0546E06A084C0AF013FE014626
:1028D00028460BF0B5F808B10123637070BD00BF46
:1028E0004893FF1F4493FF1F7C95FF1FD094FF1F49
:1028F0002DE9F0417C4C2368012B82B031D0022BB2
:1029000000F0A880032B00F0C8803BBB774B784ACF
:10291000D3F8A810D3F8AC3012685B1A632B0EDD25
:10292000744803FB02F380FB0302DB17C3EB621363
:102930001944062002B0BDE8F04106F09BBD6E4888
:1029400003FB022380FB0302DB17C3EB22121144BB
:10295000062002B0BDE8F04106F08CBD02B0BDE833
:10296000F081664E33680A33B3F57A7F00F3B7809F
:10297000184633600AF072FE61490AF0C3FE8046D1
:102980005A4DD5F8A8000AF069FE0746D5F8AC0004
:102990000AF064FE39460AF0ABFD41460AF0B2FE89
:1029A00058490AF063FF39460AF0A4FD0BF086F897
:1029B0000146062006F05EFD0221534808F064FC43
:1029C000524806F0B7F80621514808F05DFC30681F
:1029D0000AF044FE4A490AF095FE0AF0E9F9022796
:1029E00002460B460097494806F0FEF80D2149487B
:1029F00008F04AFCD5F8A8000AF030FE804630689E
:102A00000AF02CFE3E490AF07DFE0646D5F8AC00E1
:102A10000AF024FE41460AF06BFD014630460AF0FA
:102A200071FE38490AF022FF41460AF063FD0AF0C0
:102A3000BFF900970B460246344806F0D5F83946F0
:102A4000314808F021FC314806F074F82368022B65
:102A50007FF458AF294B254E00221A60D6F8A80003
:102A60000AF0FCFD0546D6F8AC000AF0F7FD294651
:102A70000AF03EFD00210AF045FE22490AF0F6FE6A
:102A800029460AF037FD0BF019F80146062006F03A
:102A9000F1FC2368032B7FF438AF184B134E4FF42F
:102AA0007A721A60D6F8A8000AF0D8FD0546D6F862
:102AB000AC000AF0D3FD29460AF01AFD11490AF0CC
:102AC00021FE10490AF0D2FE29460AF013FD0AF051
:102AD000F5FF0146062006F0CDFC236815E700232C
:102AE0004FF0000833604BE7BC94FF1F4893FF1F73
:102AF0003887FF1F1F85EB51CBF08D286092FF1F99
:102B0000CDCCCC3D0000C84238320100C887FF1F41
:102B1000642401006C24010070B5B548B54C06F082
:102B200009F8B34806F006F8B14806F003F80D219D
:102B3000B14808F0A9FBD4F8A430012B11D0AF4C58
:102B4000AB48217800230A2206F004F82378052BED
:102B500067D8DFE813F006010B01100115011A0117
:102B600001010921A64808F08FFBA648FEF744FEA4
:102B700021690AF065FF18B10F21A34808F084FB12
:102B8000A048FEF75FFEE1680AF078FF18B10E2159
:102B90009E4808F079FB9B48FEF754FE054699488D
:102BA000FEF72AFE014628460AF0A2FCE16B0AF075
:102BB00065FF18B11121964808F066FB9148FEF7B1
:102BC00021FFA16A0AF05AFF18B10C21914808F0C0
:102BD0005BFB8C48FEF718FFE16A0AF031FF18B181
:102BE0000D218D4808F050FB8C4B86481B68012B4B
:102BF00000F0E880FEF700FE21697E4D0AF03EFFFE
:102C000078B18048FEF71EFEE9680AF019FF40B16E
:102C10007A4B1B78052B00F0E6800821804808F0ED
:102C200033FB02217F4808F02FFB122006F0A8FD9D
:102C3000012800F0AF80112006F0A2FD012800F06D
:102C4000B380794B1B68012B00F0B78002217548D7
:102C5000764C08F019FB764B6548196805F0BAFF09
:102C6000634805F067FF0421724808F00DFB0B2054
:102C700006F086FD002301460A225D4805F06AFF42
:102C80000C2006F07DFD002301460A22584805F07D
:102C900061FF142006F074FD002301460A22544807
:102CA00005F058FF152006F06BFD0A2200230146AF
:102CB0004F4805F04FFF06215F4808F0E5FA23680A
:102CC000DD074FF001014CBF5C485D4808F0DCFABD
:102CD000236898074FF001014CBF5848584808F046
:102CE000D3FA23685A074FF001014CBF53485448A8
:102CF00008F0CAFA23681B074CBF5048504801210E
:102D000008F0C2FA04214F4808F0BEFA112006F07C
:102D100037FD002301460A22354805F01BFF10202D
:102D200006F02EFD002301460A22314805F012FF6D
:102D3000122006F025FD002301460A222C4805F04A
:102D400009FF132006F01CFD002301460A22284833
:102D5000BDE8704005F0FEBE07213B4808F094FA3C
:102D60005FE70621394808F08FFA5AE7072138480B
:102D700008F08AFA55E70721364808F085FA50E747
:102D80000821354808F080FA4BE70B21334808F05A
:102D90007BFA46E70E21324808F076FA112006F059
:102DA000EFFC01287FF44DAF0A212E4808F06CFAA1
:102DB0001D4B1B68012B7FF449AF11212A4808F0F5
:102DC00063FA43E7FEF718FD216A0AF057FE002870
:102DD0003FF423AF1621254808F056FA0A2124486B
:102DE00008F052FA1DE70A21214808F04DFA18E7C9
:102DF000C887FF1F4893FF1F7C240100CC94FF1F4E
:102E00008C2401007C95FF1F98240100A824010058
:102E1000B8240100CC240100DC240100F492FF1F3F
:102E20001025010038320100E894FF1F1C94FF1F99
:102E3000C094FF1F842501008C250100942501000A
:102E4000F0330100982501004C2501001C250100EC
:102E50002425010038250100402501002C25010012
:102E6000542501006425010070250100EC240100B7
:102E7000042501002DE9F04FAD4CE36F012B8DB01F
:102E800000F07E81032BDFF8EC8261D0A94EAA4FBF
:102E9000A36FAA48012B09BF3968396801F10041C5
:102EA000396005F03DFC3368002B40F02781A348D2
:102EB000DFF8C09205F00AFC3368C8F80000054648
:102EC000002B40F0CB80E36F994A012B00F0DA80B1
:102ED0009B4928460AF0D2FDC0B99A4928460AF013
:102EE000AFFD98B9984A994B12680B920B9A1A60E9
:102EF000D4F8B0000AF0B2FB29460AF003FC002324
:102F0000C8F800003B600DB0BDE8F08FDFF838A2D4
:102F10008E4EDAF800300A930A983368DFF8589238
:102F2000C01A0AF097FB29460AF0ECFB88490AF020
:102F30009DFC87490AF09AFCD9F800100AF0DAFAE9
:102F4000DAF800300993099BC9F800003360CFE735
:102F5000804D814E2868012300220F21336004F048
:102F6000EDFF3368734E012B336800F02F81002B87
:102F700040F0CC8100212868DFF80092754F05F001
:102F80002FF833681FFA80FBC9F800B0002B40F01F
:102F9000A28100212868684FDFF8B8A104F0A6FFDD
:102FA000B4F88A3040F6E44101FB0BF1B1FBF0F0DC
:102FB000C01A00B20AF052FB68498346D4F88C006C
:102FC0000AF0A0FB014658460AF050FCD9F8003040
:102FD0003860632BDFF8A4B100F3718100233B60FC
:102FE0003368002B3FF454AF02215D4808F04CF9E0
:102FF000D9F80020286840F6E443002103FB02F5DD
:1030000004F074FFB5FBF0F00AF024FB0546B4F8B9
:103010008A000AF023FB014628460AF069FA09F003
:10302000C7FE022502460B4600954E4805F0DCFD22
:1030300029464B4808F028F9386809F0B9FE009590
:1030400002460B46474805F0CFFD2946464808F0A2
:103050001BF92946424808F017F919E709F0A8FEBC
:10306000022502460B4600953E4805F0BDFD0421B1
:103070003E4808F009F9E36FD9F800502C4A012BBB
:103080007FF426AF344B1B68012B00F04B81022BE1
:103090007FF42EAFD2F8946030460AF0DFFA29466A
:1030A0000AF0CEFC40B970420AF0D8FA29460AF07C
:1030B000E5FC002800F06981DFF88CA0234EDAF8E7
:1030C0000030079307983368DFF8AC90C01A0AF015
:1030D000C1FA29460AF016FB1D490AF0C7FB1C4934
:1030E0000AF0C4FBD9F800100AF004FADAF800304C
:1030F0000693069BC9F800003360F9E60F4805F017
:10310000E5FA09F055FE022502460B4600951548E2
:1031100005F06AFD0321164808F0B6F8D4F89410BB
:10312000104805F057FD0321114808F0ADF8BEE640
:103130004893FF1F0C95FF1F1C93FF1F2093FF1F39
:103140000000FA430000FAC3E0C4FF1FDC94FF1F35
:1031500000007A44E094FF1F5487FF1FACC5273757
:1031600038320100C887FF1FDC250100E42501007B
:10317000E02501000893FF1F1493FF1F4093FF1FDA
:10318000DFF8B482D4F89460D8F8005030460AF0E2
:1031900065FA29460AF072FC48B170420AF05EFAFC
:1031A000014628460AF06AFC00287FF4D1AE904D13
:1031B000904E2868022300220E21336004F0BEFEE8
:1031C00033688D4E012B33687FF4D1AE002B40F075
:1031D000FE8000212868DFF86492854F04F000FF2C
:1031E00033681FFA80FBC9F800B0002B40F0D48090
:1031F00000212868814F04F079FEB4F8883040F649
:10320000E44A0AFB0BFBBBFBF0F0C01A00B20AF069
:1032100025FA7B498346D4F890000AF073FA0146F8
:1032200058460AF023FBD9F800303860002128689E
:103230000AFB03FA04F05AFEB4F88830BAFBF0F047
:103240000FFA80FAC3EB0A03002BB4F8BE20B8BF14
:103250005B429342BCBF00233B603368002B3FF4CA
:1032600017AE0221674808F00FF8D9F80020286847
:1032700040F6E443002103FB02F504F037FEB4F806
:103280008810B5FBF0F000B2411A5F4805F0A2FCCF
:1032900002215C4807F0F8FF386809F089FD022533
:1032A00002460B460095584805F09EFC03215748FE
:1032B00007F0EAFF2946534807F0E6FFE8E5DAF8A9
:1032C0000000002104F012FEDBF800306438984260
:1032D000FFF484AE84E60021386804F007FE40F66F
:1032E000E44100230A2201FB0BF1B1FBF0F1464857
:1032F00005F030FC0221434807F0C6FFB4F88A10FD
:10330000414805F067FCD9F800B042E63E4805F0B8
:1033100011FC0C213E4807F0B7FF0C213D4807F097
:10332000B3FF27E63C4928460AF0A8FB58B93B49B9
:1033300028460AF085FB30B9394A3A4B12680592A3
:10334000059A1A60D4E5DFF8D8A0364EDAF80030D6
:10335000049304983368DFF8E890C01A0AF07AF909
:1033600029460AF0CFF930490AF080FA2E490AF0CE
:103370007DFAD9F800100AF0BDF8DAF800300393AE
:10338000039BC9F800003360B2E5254A254B12685B
:103390000892089A1A60ABE50021386804F0A6FD8F
:1033A00040F6E44100230A2201FB0BF1B1FBF0F1EE
:1033B000154805F0CFFB01211C4807F065FFB4F864
:1033C0008810114805F006FCD9F800B010E70E4847
:1033D00005F0B0FBE36F012B4FF00B010CBF14485D
:1033E000144807F051FF0C210A4807F04DFFF0E6A2
:1033F000E094FF1F5487FF1F0C95FF1F1C93FF1FB6
:10340000ACC5273738320100C887FF1FC825010027
:10341000CC250100B82501000000FA430000FAC3E2
:10342000E0C4FF1FDC94FF1F00007A4478240100F1
:10343000A0250100AC2501000893FF1F4093FF1F4A
:103440001493FF1F2DE9F047A74D2B6884B043B9B3
:10345000A64B1B680393039A42F210739A4200F240
:103460008780A34CDFF89082E36FA24EA04D012B22
:1034700000F0C280D4F884309D4F012B00F0EE8024
:10348000D6F80090D7F858A07D6D9B4F05FB0AF544
:103490004FF47A7000FB05F00AF0E0F89749054612
:1034A00048460AF02FF929460AF0E0F994490AF053
:1034B00029F90AF003FB6328C8F8000047DD284615
:1034C0008E490AF0D3F9642330603B608D4B1B6852
:1034D000002B39D0E36F864D012B3DD0032B00F03C
:1034E000F080022B00F0E8800221874807F0CCFE34
:1034F000864B186809F05CFC022402460B460094D7
:10350000834805F071FB2146824807F0BDFE214645
:103510007D4807F0B9FED8F800107D4805F05AFB49
:1035200006217D4807F0B0FE306874490AF0EAF8D9
:1035300009F03EFC009402460B46754805F054FB2A
:103540000321764807F0A0FE04B0BDE8F08700280C
:10355000BCBF00233B60B9E7714B1B68012B4FF0E8
:103560000A010CBF6F48704807F08EFEEB6FB5E79D
:103570006E485F4CFEF74AFA6D49A76EE66E0AF098
:10358000C1F80AF0C1FA226F636FD21B9B1B80B295
:103590009A42A0EB070040F39A8003FB0000531C03
:1035A00090FBF3F39819A26DDFF84C81636DC8F8B6
:1035B000000002FB00F003FB00F000EB8000400085
:1035C0000AF04CF84D494B4E0AF050F90123022104
:1035D00030604D482B6007F057FE4D48444D05F0D4
:1035E000A9FA5921534807F04FFE494805F0A2FABD
:1035F000E36F012B7FF43EAF4C48FEF707FA4C49CE
:10360000D5F86890EF6E0AF07DF80AF07DFA2A6F1F
:103610006B6FC9EB0202DB1B80B29A42C9EB000060
:103620005BDD03FB0000531C90FBF3F31F44A06D14
:10363000636DC8F8007000FB07F003FB00F000EBBF
:10364000800040000AF00AF82C49294F0AF00EF9D0
:10365000D4F884303060012B7FF412AF3348FEF78A
:10366000D5F93349D7F86890FD6E0AF04BF80AF0A7
:103670004BFA3A6F7B6FD4F858A0C9EB02025B1B80
:1036800080B29A42C9EB0000C6BF03FB00000132C2
:10369000584390FBF2F02844656D00FB0AF005FBEF
:1036A00000F000EB8000400009F0D8FF13490AF059
:1036B000DDF881463060E8E607211F4807F0E4FDA9
:1036C00012E710211D4807F0DFFDE36F09E703FB58
:1036D00000F393FBF2F3981965E703FB00F393FB08
:1036E000F2F31F44A3E700BF6C92FF1FE0C4FF1F6B
:1036F0004893FF1F1493FF1F3887FF1FE4388E3E47
:103700000000C8424087FF1F383201000893FF1FA6
:10371000C887FF1FDC2501007C26010084260100EC
:103720005487FF1F48260100542601007C95FF1F87
:1037300000007A44EC250100742601006026010097
:1037400030B5112083B006F01BF8012818D01220E4
:1037500006F016F8012813D000210B2006F00AF815
:1037600000210C2006F006F80021152006F002F8D2
:103770002649274B0120002208701A6003B030BD93
:103780000121152005F0F6FF224A234C234B126835
:10379000D4F8981001921B68019A1D4D0B44934276
:1037A0004FF00201296005D901210C2005F0E2FF4C
:1037B00003B030BDD4F8A00009F050FF184B1968D1
:1037C0000AF03EF90028EFD101210B2005F0D2FFCD
:1037D00094F8C43003242C6043B10C4B02221A70BD
:1037E00000210C2005F0C6FF03B030BD122005F00B
:1037F000C7FF012808BF054B4FF0110008BF1C7020
:1038000005F0BEFF0128EBD1E7E700BFCC94FF1F16
:103810000895FF1FE0C4FF1F4893FF1F1495FF1F6B
:103820000893FF1FF0B5684E684D34682B689C42C2
:1038300087B039D014F0010155D014F0020149D0FD
:1038400014F004013DD0E3070ED52B68DF070BD43D
:103850005F4F3A68002A00F082805E4B1B6801933C
:10386000019B93426DD83468A0070DD52B6899074A
:103870000AD4594F3A68002A4CD0564B1B68039320
:10388000039B934238D8346862070DD52B685B07D9
:103890000BD4524F3A68002A7ED04E4B1B680593DA
:1038A000059B934268D834680CB107B0F0BD21463F
:1038B000162005F0DFFD2146172005F0DBFD07B0DF
:1038C000F0BD052005F0D6FD2B68346803F0FB033E
:1038D0002B60B8E7172005F0CDFD2B68346803F0A6
:1038E000FD032B60ACE7162005F0C4FD2B6834689F
:1038F00003F0FE032B60A0E7394B1720D3F89C1090
:1039000005F0B8FD2B68346843F0020300222B60F9
:103910003A60B9E7334805F00DF90C21324807F059
:10392000B3FC304805F006F9FF21172005F0A2FD91
:10393000284B2E4A19680291029912680A443A608B
:103940009CE7274B1620D3F89C1005F093FD2B68BD
:10395000346843F0010300222B603A6084E7FF21C2
:10396000162005F087FD1B4B204A1968009100992D
:1039700012680A443A6071E7194B0520D3F89C108D
:1039800005F078FD2B68346843F0040300222B60B7
:103990003A60002C89D18AE7124805F0CBF80C2157
:1039A000134807F071FC0F4805F0C4F8FF2105200B
:1039B00005F060FD074B0D4A1968049104991268DF
:1039C0000A443A606AE700BF0895FF1F1C94FF1F76
:1039D000A094FF1FE0C4FF1FA494FF1FA894FF1F23
:1039E0004893FF1FC887FF1F882601006887FF1FB5
:1039F000982601002DE9F047544EDFF87481DFF876
:103A000074913068524D00220F2104F097FA002380
:103A1000012222214F48C8F80030C9F8002007F0E1
:103A200033FCD8F80030132B22DC40F6E4470021A9
:103A30003068B5F888A004F0D3FA00210446306855
:103A400004F054FAA4B2012107FB04F4B4FBF0F42F
:103A500041485444A5F8884007F016FC642005F05E
:103A6000C5FED8F800300133132BC8F80030DEDD76
:103A7000B5F88830394A3A48A2FB03129B1A02EB88
:103A80005303C3F30F131946A5F8883005F0A2F8C5
:103A90001D21344807F0F8FB0221334807F0F4FBFE
:103AA0002F4805F047F800231A460E213068C8F861
:103AB000003004F043FA022322212648C9F80030DE
:103AC00007F0E2FBD8F80030132B22DC40F6E44785
:103AD00000213068B5F88A9004F082FA002104468B
:103AE000306804F003FAA4B2012107FB04F4B4FB2C
:103AF000F0F419484C44A5F88A4007F0C5FB64204F
:103B000005F074FED8F800300133132BC8F80030EC
:103B1000DEDDB5F88A30114A1148A2FB03129B1A68
:103B200002EB5303C3F30F131946A5F88A3005F0CF
:103B300051F81D210D4807F0A7FB02210A4807F0A4
:103B4000A3FB0748BDE8F04704F0F4BFE094FF1F73
:103B50004893FF1FA8260100EC2601008761188604
:103B6000C887FF1FCC26010038320100F026010073
:103B7000C494FF1F5487FF1FA64B2DE9F0411B681B
:103B8000A54CA64D40F2513108222160E271286D0A
:103B9000002B40F0EE8009F061FD6969064609F0EE
:103BA000B1FD9F499D4F09F0ADFD09F0ADFF80B219
:103BB000031263729B4A9C4B12681B68A969A3722B
:103BC00015121B12E372227320726573304609F0DE
:103BD00099FD9349904D09F095FD09F095FF83B249
:103BE0001A1229469148A373E27303F0C9FF904B60
:103BF000904A1B681288A272DEB206EB860126721A
:103C000003EB8306490046F3D71640F2553E1212E5
:103C10004FF000081B12217366732946082683485B
:103C2000C4F800E0E2726372E67184F80E8084F8F2
:103C30000F8003F0A5FF40F256337F482360E67102
:103C4000FDF724FE7D4909F05DFD09F05DFF20725E
:103C50007948FDF71BFE794909F054FD09F054FF3E
:103C6000774A7649C0F307236372106809F0FEFDB6
:103C700009F024FF40FA06F203466F48E272A3728D
:103C8000FDF73CFE664909F03DFD09F017FF207382
:103C90006948FDF733FE624909F034FD09F00EFF73
:103CA000294640F307236148637384F80E8084F843
:103CB0000F8003F065FF022005F098FD614A624B1A
:103CC00010785178207290786172D2781978A07249
:103CD000987893F801E0E2722173DA78A07340F2E9
:103CE0005A332946514884F80DE0E2732360E671A7
:103CF00003F046FF554B4D481A785978227261728D
:103D00009A78D978A272E1721A79597993F806E013
:103D100022736173DA7984F80EE040F25E3329464B
:103D2000E2732360E67103F02BFF022005F05EFDD5
:103D3000474B3E481A785978227261729A78D9783E
:103D4000A272E1721A79597993F806E022736173CD
:103D5000DA79E6714FF45C732946236084F80EE04B
:103D6000E27303F00DFF3B4B1B68012B06D0BDE84F
:103D7000F08109F073FC296A064610E72E48FDF72A
:103D80003BFDF96C09F0B6FB80462B48FDF75AFD68
:103D90000146404609F054FE0028E8D040F2C33303
:103DA0002548EE712B60FDF727FDBE6C314609F00A
:103DB00047FEC8B12849304609F0A4FC09F0A4FE2A
:103DC00080B2031268722B7200230126042503229D
:103DD000A672E57222736373A373E3730E491348EB
:103DE000BDE8F04103F0CCBE1348FDF705FD1A49CC
:103DF00009F088FC09F088FEC0F307230E482B72F7
:103E0000FDF7FAFC144909F07DFC09F07DFE6872AB
:103E1000DAE700BFF492FF1FF894FF1F4893FF1FDB
:103E200000002041D894FF1F5092FF1F1CC3FF1FAA
:103E30003887FF1F3C87FF1F7C95FF1F0000C8428B
:103E40000893FF1F4493FF1FD094FF1F2C87FF1F71
:103E50005887FF1FE894FF1F00007A44F0B59A4C82
:103E60009A4D83B007F0AAF923682860042B00F06C
:103E7000AA82092B7BD0022B4CD1A0F13102422A1D
:103E80007ED8DFE812F0CF0A4A0B2B0B390BEF007C
:103E9000DB0AEA0A1D0B7D007D007D007D007D00B0
:103EA0007D007D007D007D007D007D007D007D002A
:103EB0007D007D007D007D007D007D007D007D001A
:103EC0007D007D007D007D007D007D007D007D000A
:103ED0007D007D007D007D007D007D007D007D00FA
:103EE0007D007D007D007D007D0043007D007D0024
:103EF0007D007D007D007D007D007D007D007D00DA
:103F00007D007D007D0079007D00690AFFF772FD6C
:103F100023682868082B40F0B680332801F0ED8430
:103F200000F3F282312801F00285322828D107F00F
:103F300081F9002841F3C7846548664E04F08EFF7E
:103F400009F08CFB644909F0DDFBD6F8CC20D6F8EB
:103F5000C83096F840100092074602465F487764E2
:103F6000FDF798FC01236920236028606FE3322865
:103F700000F06383712803D100237320236028603D
:103F8000002B08BF73280CBF01200020002867D039
:103F90004F4804F0CFFD0421514807F075F94C4813
:103FA00004F0C8FD10214F4807F06EF9484804F0AE
:103FB000C1FD13214C4807F067F94C4B4448196880
:103FC00004F008FE424804F0B5FD1421484807F00B
:103FD0005BF93F4804F0AEFD1E21464807F054F956
:103FE0003B4804F0A7FD1521434807F04DF9384838
:103FF00004F0A0FD1E21414807F046F9344804F0C2
:1040000099FD20213E4807F03FF9314804F092FD28
:1040100019213C4807F038F92D4804F08BFD122196
:10402000394807F031F92A4804F084FD192137484E
:1040300007F02AF9264804F07DFD0F21344807F0E7
:1040400023F9234804F076FD0D21324807F01CF9CE
:104050001F4804F06FFD304A0021012311602360E6
:1040600003B0F0BD0123236007F0E4F8002807DD6A
:104070001748184E04F0F2FE09F0F0FAC6F88C006A
:10408000632023682860072B4AD1332801F0668417
:1040900000F32682312801F01A8432287FF470AFB1
:1040A00007F0C8F8002839DD09480A4E04F0D6FEAA
:1040B00009F0D4FA084909F025FB61230122F063D5
:1040C00022602B601846C2E21893FF1F0493FF1F63
:1040D000C887FF1F4893FF1F6F12833A7C95FF1F0D
:1040E00098300100A0300100B43001002487FF1F88
:1040F000C8300100E030010000310100183101003A
:10410000383101005C310100783101008C3101004F
:10411000A8310100B83101004087FF1F23682868DB
:10412000062B40F08D80A0F13102402A3FF628AFE7
:1041300001A151F822F000BFC7520000F352000065
:10414000395200005F52000085520000A352000067
:104150001F530000813F000033530000813F0000E7
:10416000813F0000813F0000813F0000813F00004F
:10417000813F0000813F0000813F0000813F00003F
:10418000813F0000813F0000813F0000813F00002F
:10419000813F0000813F0000813F0000813F00001F
:1041A000813F0000813F0000813F0000813F00000F
:1041B000813F0000813F0000813F0000813F0000FF
:1041C000813F0000813F0000813F0000813F0000EF
:1041D000813F0000813F0000813F0000813F0000DF
:1041E000813F0000813F0000813F0000813F0000CF
:1041F000813F0000813F0000813F0000813F0000BF
:10420000813F0000813F0000813F0000813F0000AE
:10421000813F0000813F0000813F0000813F00009E
:10422000813F0000813F0000813F0000813F00008E
:10423000813F0000813F0000793F0000236828682B
:10424000052B15D1332801F0D18340F37481352833
:1042500001F0BE83C1F2A68371287FF491AEC14AFA
:104260000023732013602360286089E62368286890
:10427000032B40F0A480A0F13002422A3FF680AE2A
:1042800001A151F822F000BF954300003356000011
:104290005D5600009B550000BD550000DF55000035
:1042A000095600004B5700006B57000055550000A1
:1042B000813F0000813F0000813F0000813F0000FE
:1042C000813F0000813F0000813F0000813F0000EE
:1042D000813F0000813F0000813F0000813F0000DE
:1042E000813F0000813F0000813F0000813F0000CE
:1042F000813F0000813F0000813F0000813F0000BE
:10430000813F0000813F0000813F0000813F0000AD
:10431000813F0000813F0000813F0000813F00009D
:10432000813F0000813F0000813F0000813F00008D
:10433000813F0000813F0000813F0000813F00007D
:10434000813F0000813F0000813F00007D5500005B
:10435000594D0000375500000B5700002B57000047
:10436000CB560000F14C0000154D0000813F0000CD
:104370003B4D0000813F0000813F0000813F000075
:10438000813F0000813F0000813F00008756000010
:104390009356000006F04EFF002840F3468772480F
:1043A000724E04F05BFD012703460146622270480D
:1043B000736527602A60FDF76BFA23682868012B74
:1043C0007FF4DEAD43E1A0F13002412A3FF6D8ADE3
:1043D00001A151F822F000BFEF5300007353000019
:1043E0008B5300008F530000B5530000B9530000F9
:1043F000D5530000E7530000EB53000003540000C6
:10440000813F0000813F0000813F0000813F0000AC
:10441000813F0000813F0000813F0000813F00009C
:10442000813F0000813F0000813F0000813F00008C
:10443000813F0000813F0000813F0000813F00007C
:10444000813F0000813F0000813F0000813F00006C
:10445000813F0000813F0000813F0000813F00005C
:10446000813F0000813F0000813F0000813F00004C
:10447000813F0000813F0000813F0000813F00003C
:10448000813F0000813F0000813F0000813F00002C
:10449000813F0000813F0000813F0000813F00001C
:1044A000813F0000813F0000813F0000813F00000C
:1044B000813F0000813F0000813F0000813F0000FC
:1044C000813F0000813F0000813F0000813F0000EC
:1044D000813F0000813F0000813F0000793F0000E4
:1044E00034287FF447AD06F0A5FE00287FF716AE0E
:1044F0001D481E4E04F0B2FC61230122A6F8BC0048
:1045000022602B601846A2E034287FF433AD06F019
:1045100091FE002841F3D7811348144E04F09EFC0D
:104520004742D6F8C830726C96F840101048009791
:10453000C6F8CC7014E5312801F0238232287FF4CC
:104540001FAD06F077FE00287FF790AE0648074EB5
:1045500004F084FC01226B23C6F8A00022602B60CB
:104560000AE000BFBC94FF1FC887FF1F4893FF1FCE
:104570007C95FF1F06F022FE06F05CFE0028F9D1B4
:10458000A44804F0D7FAA34804F0D4FAA14804F0F0
:10459000D1FAA04804F0CEFA9E4804F0CBFA2121CB
:1045A0009D4806F071FE9B4804F0C4FA15219B4813
:1045B00006F06AFED6F89810964804F00BFB02212C
:1045C000974806F061FE934804F0B4FA1E2195481E
:1045D00006F05AFED6F8A0108E4804F0FBFA03212C
:1045E000914806F051FE8B4804F0A4FA1E218F4832
:1045F00006F04AFED6F89C10864804F0EBFA85488F
:1046000004F098FA1D218A4806F03EFED6F8A8105C
:10461000804804F0DFFA7F4804F08CFA1E218548B8
:1046200006F032FED6F8AC107A4804F0D3FA794896
:1046300004F080FA0523236012E57F4E96F8D0300F
:1046400001225340782086F8D03022602860A0F103
:104650005203262B01F22E81DFE813F0AC082C095F
:104660002C092C092C092C092C092C092C092C09A2
:104670002C092C092C092C092C092900DD0ADB0244
:1046800034027A012C092C092C090E012C09DA0AB2
:104690002C092C092C092C092C099A082C092C0905
:1046A0002C092C092C092C099D0006F087FD06F029
:1046B000C1FD05460028F8D156485F4E04F03AFA8D
:1046C000544804F037FA534804F034FA514804F0DF
:1046D00031FA504804F02EFA1F21584806F0D4FD54
:1046E0004C4804F027FA1C21554806F0CDFD706AAD
:1046F000544909F007F808F05BFB009502460B46A9
:10470000444804F071FA02214F4806F0BDFD4148CB
:1047100004F010FA23214D4806F0B6FDF06B49492C
:1047200008F0F0FF08F044FB009502460B463948BC
:1047300004F05AFA0221444806F0A6FD354804F078
:10474000F9F91921424806F09FFDB06B08F030FBE3
:1047500002250B46024600952E4804F045FA2946EC
:104760003C4806F091FD2B4804F0E4F919213A4841
:1047700006F08AFDB6F8BC10264804F02BFA032197
:10478000364806F081FD234804F0D4F9072323605E
:1047900066E406F013FD06F04DFD0028F9D11D4832
:1047A00004F0C8F91B4804F0C5F91A4804F0C2F92E
:1047B000184804F0BFF9174804F0BCF9152128483F
:1047C00006F062FD134804F0B5F9124804F0B2F99E
:1047D0002C21244806F058FD0E4804F0ABF91921AD
:1047E000214806F051FD144B93F8D030002B41F0D6
:1047F0001A810E211D4806F047FD064804F09AF97B
:1048000013211B4806F040FD024804F093F90923E8
:10481000236025E4C887FF1F642A0100882A01005D
:1048200054290100A02A0100C8250100C02A010066
:10483000E02A0100002B01004893FF1FC42901005A
:10484000E429010000007A4400280100042A010044
:10485000282A0100C0290100442A0100602A010021
:1048600090310100342701006427010080270100F6
:10487000A427010006F0A2FC06F0DCFC0546002897
:10488000F8D17D487D4E04F055F97B4804F052F98B
:10489000794804F04FF9784804F04CF9764804F070
:1048A00049F91521764806F0EFFC734804F042F907
:1048B0001821744806F0E8FC2B460A2296F84010AE
:1048C0006D4804F047F96C4804F034F928216E482B
:1048D00006F0DAFC706C6D4908F014FF08F068FA15
:1048E000009502460B46644804F07EF902216848B0
:1048F00006F0CAFC604804F01DF91921654806F06D
:10490000C3FCD6F8C80008F053FA04250B4602464B
:104910000095594804F068F9574804F00BF918213C
:104920005D4806F0B1FCD6F8CC10534804F052F9BB
:10493000514804F0FFF81321584806F0A5FC4E48F2
:1049400004F0F8F808232360FFF78ABB06F036FC72
:1049500006F070FC05460028F8D14748474E04F0A1
:10496000E9F8454804F0E6F8434804F0E3F8424823
:1049700004F0E0F8404804F0DDF81121484806F062
:1049800083FC3D4804F0D6F82821464806F07CFC1C
:1049900070693E4908F0B6FE08F00AFA0095024632
:1049A0000B46354804F020F90221394806F06CFC2A
:1049B000314804F0BFF816213B4806F065FCF06969
:1049C000324908F09FFE08F0F3F900950B460246C5
:1049D000294804F009F902212D4806F055FC264823
:1049E00004F0A8F8D6F8B430002B32DD1D212F4892
:1049F00006F04AFCF06D08F031FE2D4908F082FE09
:104A000008F0D6F9022502460B4600951A4804F034
:104A1000EBF80121274806F037FC174804F08AF824
:104A20001F21254806F030FC306E08F017FE2049A3
:104A300008F068FE08F0BCF9009502460B460E48E7
:104A400004F0D2F801211B4806F01EFC0A4804F0CD
:104A500071F81121194806F017FCD6F8B430062B6E
:104A600000F2BE86DFE813F01C0712070D070807E7
:104A7000B8062107170700BFC887FF1F4893FF1F0D
:104A800060310100B8270100D427010000007A44FA
:104A9000002801000428010020280100A4270100AB
:104AA000043101003C280100682801008028010031
:104AB000CDCCCC3D602D0100A0280100C028010014
:104AC00006F07CFB06F0B6FB0028F9D1AA4804F0FA
:104AD00031F8A94804F02EF8A74804F02BF8A648AE
:104AE00004F028F8A44804F025F81321A34806F0A0
:104AF000CBFBA14804F01EF80D21A14806F0C4FB31
:104B00009D4804F017F80F219E4806F0BDFB9E4B10
:104B10009948196804F05EF8974804F00BF81321DF
:104B20009A4806F0B1FB9A4B9348196804F052F882
:104B3000914803F0FFFF1221964806F0A5FB964B23
:104B40008D48196804F046F88B4803F0F3FF1121F3
:104B5000924806F099FB924B8748196804F03AF89E
:104B6000854803F0E7FF0E218E4806F08DFB8E4B43
:104B70008148D3F8A41004F02DF87F4803F0DAFF41
:104B800019218A4806F080FB894B7B48196804F09C
:104B900021F8794803F0CEFF1121864806F074FB16
:104BA000854B7548196804F015F8734803F0C2FF87
:104BB0001021824806F068FB814B6F48196804F0A9
:104BC00009F86D4803F0B6FF1C217E4806F05CFB37
:104BD0007D4B6948196803F0FDFF674803F0AAFFA1
:104BE0001B217A4806F050FB794B6348197803F093
:104BF000F1FF614803F09EFF1321764806F044FB65
:104C00005D4803F097FF04232360FFF729BA06F0FD
:104C1000D5FA06F00FFB0028F9D15748624E03F091
:104C200089FF554803F086FF534803F083FF52483D
:104C300003F080FF504803F07DFF1F21664806F017
:104C400023FB4D4803F076FF1E21644806F01CFB51
:104C5000494803F06FFF1A21614806F015FBF36F16
:104C6000022B00F0AA87032B00F09E87012B00F097
:104C7000AD8709215B4806F007FB3F4803F05AFF68
:104C800014215948484D06F0FFFAB16F3A4803F035
:104C9000A1FF394803F04EFF1C21544806F0F4FAF6
:104CA000D6F88410344803F095FF334803F042FFF0
:104CB0001C214F4806F0E8FAD6F8B0102E4803F051
:104CC00089FF2D4803F036FFF36F23F00202012A1B
:104CD00000F0E886022B00F0828713213D4806F0A1
:104CE000D3FA254803F026FF02232360FFF7B8B963
:104CF00006F0A0FA00280DDD1F482B4E04F0AEF898
:104D000008F0ACFC3B4908F0B1FD0122622330629F
:104D100022602B6006F08EFA00280EDD1648224E27
:104D200004F09CF808F09AFC324908F09FFD01223B
:104D30006223C6F8C00022602B6006F07BFA0028D0
:104D40000ADD0D48184E04F089F808F087FC0122AE
:104D50006223706322602B6006F06CFA002840F337
:104D600064820548104E04F079F801226223B0668F
:104D700022602B6042E000BFC887FF1F202B01008C
:104D8000342B0100442B01009C94FF1F542B010085
:104D90000C95FF1F682B0100F094FF1F7C2B010076
:104DA0007092FF1F902B01004893FF1FA02B010062
:104DB000C094FF1FBC2B0100BC94FF1FD02B01002F
:104DC000F494FF1FE42B01006087FF1F042C0100F7
:104DD0009894FF1FA4270100202C0100402C010003
:104DE000602C0100D82C0100E42C0100FC2C0100F7
:104DF0001C2D010000007A4406F0E0F906F01AFAD2
:104E000005460028F8D1C24803F094FEC04803F0DC
:104E100091FEBF4803F08EFEBD4803F08BFEBC48F8
:104E200003F088FE1521BB4806F02EFAB84803F0BF
:104E300081FE1421B84806F027FAB54803F07AFE3F
:104E40001B21B64806F020FAB14803F073FE132187
:104E5000B34806F019FAAE4803F06CFEAC4803F014
:104E600069FEAB4803F066FE2021AE4806F00CFA5E
:104E7000F068AD4908F046FC07F09AFF009502463D
:104E80000B46A34803F0B0FE0221A84806F0FCF947
:104E90000221A74806F0F8F99D4803F04BFE2121B6
:104EA000A44806F0F1F930699F4908F02BFC07F09F
:104EB0007FFF009502460B46954803F095FE0221C0
:104EC0009A4806F0E1F90221994806F0DDF9904888
:104ED00003F030FE1F21984806F0D6F9B06A07F0BB
:104EE00067FF022702460B460097894803F07CFEC5
:104EF0000121924806F0C8F939468D4806F0C4F9F8
:104F0000834803F017FE20218D4806F0BDF9F06AB2
:104F100007F04EFF009702460B467D4803F064FE03
:104F20000121864806F0B0F93946814806F0ACF90F
:104F3000774803F0FFFD2321824806F0A5F9B06C05
:104F4000794908F0DFFB07F033FF009502460B4676
:104F50006F4803F049FE3946744806F095F9394622
:104F6000734806F091F96A4803F0E4FD1F21764882
:104F700006F08AF9F06C6C4908F0C4FB07F018FFE2
:104F8000009502460B46624803F02EFE39466748FC
:104F900006F07AF93946664806F076F95C4803F07F
:104FA000C9FD1921694806F06FF9B16D584803F041
:104FB00011FE3946664806F067F939465C4806F046
:104FC00063F9534803F0B6FD1821624806F05CF916
:104FD000706E08F043FB604908F094FB07F0E8FEB0
:104FE000009702460B464A4803F0FEFD01215B484C
:104FF00006F04AF939464E4806F046F9444803F0AF
:1050000099FD2B21564806F03FF9B069464908F052
:1050100079FB07F0CDFE009502460B463C4803F0B5
:10502000E3FD3946414806F02FF93946404806F07D
:105030002BF9374803F07EFD1F214A4806F024F97A
:10504000716D334803F0C6FD3946394806F01CF946
:105050002F4803F06FFD2021434806F015F9316D0C
:105060002B4803F0B7FD3946314806F00DF92848C2
:1050700003F060FD10213D4806F006F9B16E2448AA
:1050800003F0A8FD3946294806F0FEF839462848BD
:1050900006F0FAF81E4803F04DFD1321344806F0DF
:1050A000F3F8F16E1A4803F095FD0121314806F03E
:1050B000EBF839461E4806F0E7F8154803F03AFDCC
:1050C00010212D4806F0E0F8316F114803F082FD01
:1050D0003946164806F0D8F83946154806F0D4F88F
:1050E0000B4803F027FD1421244806F0CDF8716F1A
:1050F000074803F06FFD01211E4806F0C5F8394648
:105100000B4806F0C1F8024803F014FD162137E001
:10511000C887FF1F0C2E0100242E01003C2E010029
:10512000A4270100582E010000007A440028010045
:10513000383201007C2E0100A02E0100A8220100BF
:10514000C02E0100E42E0100082F0100282F0100CD
:10515000442F0100482F0100CDCCCC3D602D010033
:10516000642F0100902F0100B02F0100D42F010007
:10517000E82F0100FC2F0100003001001430010075
:10518000BB4806F081F8306ABA4908F0BBFA07F06C
:105190000FFE009502460B46B74803F025FD394641
:1051A000B64806F071F83946B54806F06DF8B248D1
:1051B00003F0C0FC2421B34806F066F8D6F8C0001E
:1051C000AC4908F09FFA07F0F3FD009502460B4644
:1051D000A94803F009FD3946A84806F055F83946B4
:1051E000A74806F051F8A44803F0A4FC2B21A648D8
:1051F00006F04AF8706B07F0DBFD00970B4602469D
:105200009D4803F0F1FC0121A04806F03DF8394625
:105210009B4806F039F8984803F08CFC964803F058
:1052200089FC03232360FEF71BBF23682868012B3A
:105230007EF4A6AEFFF70BBA05F0FCFF00287EF760
:10524000FDAF8D48924E03F009FE00EB8000430055
:1052500001226520F36522602860FFF7F8B905F0A8
:10526000E9FF00287EF7EAAF8348894E03F0F6FD98
:1052700000EB800043000122652033662260286035
:10528000FFF7E5B9824AD2F8B4300133062BC8BF24
:105290000023C2F8B4300123652023602860FFF7A3
:1052A000D6B905F0C7FF00287EF7C8AF7248784E20
:1052B00003F0D4FD65230122C6F8B80022602B60FC
:1052C0001846FFF7C4B905F0B5FF00287EF7B6AF62
:1052D00069486F4E03F0C2FD08F0C0F9654908F057
:1052E000C5FA65230122706122602B601846FFF722
:1052F000AEB905F09FFF00287EF7A0AF5E48644E70
:1053000003F0ACFD08F0AAF95A4908F0AFFA65239A
:105310000122F06122602B601846FFF798B95C4BC0
:1053200093F8C420002A00F07A83002283F8C42076
:10533000B1E705F07FFF00287EF780AF4E48544E5E
:1053400003F08CFD08F08AF96523012230632260A6
:105350002B601846FFF77BB94D4AD36F0133032BFF
:10536000C8BF0023D3670123632023602860FFF7B1
:105370006EB9484A1368B3FA83F35B0901216420CC
:10538000136021602860FFF762B9434AF2E7434A9D
:10539000434F1368002B0CBF012300234FF0010083
:1053A0001360206040F0EB83034664222A6064208F
:1053B000FEF761BD3B4ADDE7354ED6F8A430B3FABF
:1053C00083F35B0901226420C6F8A43022602860C0
:1053D000FFF73DB9012334482360FCF7F1F8334A65
:1053E00023681060E1E7324AC4E7324AC2E7324A32
:1053F000137801214B406420137021602860FFF76F
:1054000026B90123236005F015FF002800F314835B
:105410002A4B1A68042AC4BF02221A6064232B6034
:105420002368C4E71A4EB36FB3FA83F35B09012212
:105430006320B36722602860FFF709B90123236066
:1054400005F0F8FE00287EF71BAE0B48104E03F067
:1054500005FDA6F8BE00FEF713BE0D4BD3F8802065
:10546000012A0CBF02220122C3F880207BE700BF83
:105470002C30010000007A44C887FF1F002801007B
:1054800038320100443001006C300100A8220100D4
:105490004893FF1F9C94FF1F0C95FF1FF094FF1F64
:1054A0001893FF1F7092FF1F7C95FF1FC094FF1F72
:1054B000BC94FF1FF494FF1F9894FF1F6087FF1F89
:1054C0000123236005F0B6FE00287FF74CAFBA48F1
:1054D000BA4E03F0C3FCC6F8940044E701232360EE
:1054E00005F0A8FE00287FF73EAFB348B34E03F0A7
:1054F000B5FCC6F8B00036E70123236005F09AFE3C
:1055000000287EF7BDADAC48AC4E03F0A7FC08F018
:10551000A5F8C6F89000FEF7B3BDA84ED6F88430C3
:10552000B3FA83F35B0901226320C6F8843022605A
:105530002860FFF78CB805F07DFE00287FF775AE78
:105540009D489E4E03F08AFC01226223F066226091
:105550002B6053E405F06EFE00287FF766AE964898
:10556000964E03F07BFC08F079F8954908F07EF937
:1055700001226223B06122602B603FE405F05AFEF5
:1055800000287FF752AE8C488C4E03F067FC012256
:105590006223306522602B6030E405F04BFE00286A
:1055A0007FF743AE8448854E03F058FC08F056F868
:1055B00001226223B06222602B601FE405F03AFEF4
:1055C00000287FF732AE7C487C4E03F047FC08F0A1
:1055D00045F801226223F06222602B600EE405F0A0
:1055E00029FE00287FF721AE7348744E03F036FC85
:1055F00008F034F8724908F039F901226223B064E6
:1056000022602B60FFF7FABB05F014FE00287FF73D
:105610000CAE6948694E03F021FC08F01FF8684998
:1056200008F024F901226223F06422602B60FFF766
:10563000E5BB05F0FFFD00287FF7F7AD5E485F4E44
:1056400003F00CFC08F00AF85D4908F00FF901229C
:105650006223F06022602B60FFF7D0BB05F0EAFD0B
:1056600000287FF7E2AD5448544E03F0F7FB07F0F3
:10567000F5FF534908F0FAF80122622330612260F5
:105680002B60FFF7BBBB0022732322602B60FEF769
:105690007FBC4C4B4C48494E002202211A6005F059
:1056A000F3FD454803F046FA0B21484805F0ECFDB0
:1056B0000221454805F0E8FD3F4803F03BFA01228E
:1056C000622322602B60FFF799BBFCF7B5FD022136
:1056D0003D483A4E05F0D8FD374803F02BFA022139
:1056E000394805F0D1FD344803F024FA0221364848
:1056F00005F0CAFD304803F01DFA1721344805F0C3
:10570000C3FD2D4803F016FAD2E705F093FD0028FB
:105710007FF78BAD2848294E03F0A0FB01226223BE
:10572000306722602B60FFF769BB05F083FD00281E
:105730007FF77BAD2048214E03F090FB01226223CE
:10574000706722602B60FFF759BB05F073FD0028DE
:105750007FF76BAD1848194E03F080FB01226223DE
:10576000B06522602B60FFF749BB05F063FD0028A0
:105770007FF75BAD1048114E03F070FB00EB80002B
:10578000430001216222736621602A60FFF736BB65
:10579000D4220021094803F055FC28680D4AA0F1E5
:1057A000730001210023B0FA80F0400911602360EA
:1057B000FEF7ECBB04F0D0FEC887FF1F4893FF1F25
:1057C00000007A446C92FF1F383201002827010044
:1057D000102701004087FF1F0D219B4805F054FD55
:1057E0009A489B4D03F0A6F9D6F8B430002B12DD91
:1057F0001821984805F048FDD5F8B810934803F0F3
:10580000E9F90221944805F03FFD904803F092F930
:105810008E4803F08FF91B21904805F035FD96F86E
:10582000C430012B15BF122114218D488D4805F07D
:105830002BFD864803F07EF91F218B4805F024FDDF
:10584000306B07F0B5FA02250B46024600957F48FB
:1058500003F0CAF92946854805F016FD7B4803F098
:1058600069F91321824805F00FFD784803F062F9C9
:1058700006232360FEF7F4BB0D217E4805F004FDEE
:10588000AEE70C217C4805F0FFFCA9E70C217B4822
:1058900005F0FAFCA4E70421794805F0F5FC9FE740
:1058A0000D21784805F0F0FC9AE70B21764805F0C9
:1058B000EBFC95E72368002B08BF73280CBF012081
:1058C0000020FEF763BB23682868FEF7DCBB05F009
:1058D000B1FC00287EF722AC5C485D4E03F0BEFAB6
:1058E00007F0BCFE694907F00DFF612301227062D9
:1058F00022602B601846FEF7AABE05F09BFC00282C
:10590000E1DD5248524E03F0A9FA07F0A7FE6049C4
:1059100007F0F8FED6F8CC30726C96F84010009381
:1059200007460346C6F8C8705A48FEF719BB05F08B
:1059300081FC00286BDC464E96F84000D6F8C83053
:10594000726C032894BF01460021D6F8CC0088BFB2
:1059500086F8401000904F48FEF702BB05F06AFC45
:1059600000287EF7DBAB3948394E03F077FA07F0B1
:1059700075FE61230122B06322602B601846FEF79A
:1059800066BE05F057FC00287EF770AC2F48304EFD
:1059900003F064FA01226B23C6F8980022602B60A2
:1059A000FEF7EABD05F046FC00287EF75FAC27480D
:1059B000274E03F053FA384BC6F8A80002221A60AB
:1059C000FCF796FF01226B2322602B60FEF7D4BD0B
:1059D00005F030FC00287EF749AC1C481C4E03F053
:1059E0003DFA2D4BC6F8AC000322E8E705F022FC97
:1059F00000287EF73BAC1548154E03F02FFA012224
:105A00006B23C6F89C0022602B60FEF7B5BD0F48E3
:105A10000F4E03F023FAC0B286F840008EE7012251
:105A200083F8C42037E411211C4805F02DFC0748F9
:105A300003F080F8FEF7E4BE044803F00FFA184BB9
:105A400002461860E6E400BF14290100C887FF1F62
:105A50004893FF1F382901005429010058290100EB
:105A60007429010088290100A0290100C029010032
:105A7000A427010004290100F4280100E428010002
:105A800030290100D4280100242901006F12833A33
:105A900017B7D1387C95FF1FBC94FF1F90270100DA
:105AA0006087FF1F1C215D4805F0EEFBD5F89000D4
:105AB0005B4907F027FE07F07BF902270B460246F9
:105AC0000097584803F090F80521574805F0DCFB93
:105AD000544803F02FF8EB6F012B18D11D215348C8
