:1000000000800020BD01000051770000097700004A
:1000100009770000097700000977000009770000E0
:100020000977000009770000097700005177000088
:1000300051770000097700005D9000006191000099
:100040005177000051770000517700005177000090
:100050005177000051770000517700005177000080
:100060005177000051770000517700005177000070
:100070005177000051770000517700005177000060
:100080005177000051770000517700005177000050
:100090005177000051770000517700005177000040
:1000A0005177000051770000517700005177000030
:1000B00051770000256B0000316B0000356B0000AC
:1000C000416B0000456B0000496B00005177000058
:1000D0005177000051770000517700005177000000
:1000E00051770000517700005177000051770000F0
:1000F000517700002597000051770000C57D000072
:1001000051770000DD80000051770000517700003A
:1001100051770000517700005177000051770000BF
:1001200051770000517700005177000051770000AF
:10013000517700005177000051770000517700009F
:10014000517700005177000051770000517700008F
:10015000517700005177000051770000517700007F
:10016000517700002983000051770000517700008B
:10017000517700005177000051770000517700005F
:10018000517700005177000051770000517700004F
:10019000517700005177000051770000517700003F
:1001A000517700005177000051770000517700002F
:1001B000517700005177000051770000564B4CF208
:1001C000205210B51A804DF628121A8000BF00BFC9
:1001D00007F0C2FA514B4FF010621A60504A9A6011
:1001E000504ADA60504A136813F4807304D14F49BF
:1001F0000B604FF4A85313604D4B1A78110703D5C9
:100200001A7842F008021A704A4B4B492A221A7097
:100210004A4A4B4B8B4204D252F8040F43F8040B6A
:10022000F8E7484B484900228B4202D243F8042B9E
:10023000FAE74649464A002352F8230041F82300D2
:1002400001336F2BF8D1434B434A802103F8011B44
:100250009342FBD1414B3D4A1A60414B8A221A70AE
:10026000A3F5805324225A70A0221A709A7992071B
:10027000FCD59A79D406FCD43A4A937903F00C035E
:10028000082B384BF9D103221A7140225A719A79FE
:100290009006FCD5334A9179324B4906FBD5324A58
:1002A000324911600221516020221A709A7902F0BD
:1002B0000C020C2AFAD12E4B2E4A1A602E4B2F4AD2
:1002C0001A6000225A60072243F8042C2C4AC3F813
:1002D0000C2D62B607F0F6FC144B1B68DA0705D547
:1002E000284807F0D3FA284B284A1A60284B1B7875
:1002F0005B0609D5244C254B22689A4204D121483B
:1003000007F0C4FA002323600BF010FD07F02AFA6F
:1003100009F0C8F8FEE700BF0E2005403080044019
:10032000823F04000100002B10D0034014D0034092
:1003300002D0074000E007402092FF1F8417010011
:100340002087FF1F2092FF1FF4C2FF1F0082FF1FA4
:100350000000000000E400E05FE400E008ED00E0E1
:100360000050064000400640448004400000030165
:1003700004800440C010050014E000E0FF76010096
:1003800000002020637A375C1CE00340A5C3945A28
:1003900000F00740FFFFFFFFFFFFFFFFFFFFFFFF32
:1003A000FFFFFFFFFFFFFFFFFFFFFFFFFFFFFFFF5D
:1003B000FFFFFFFFFFFFFFFFFFFFFFFFFFFFFFFF4D
:1003C000FFFFFFFFFFFFFFFFFFFFFFFFFFFFFFFF3D
:1003D000FFFFFFFFFFFFFFFFFFFFFFFFFFFFFFFF2D
:1003E000FFFFFFFFFFFFFFFFFFFFFFFFFFFFFFFF1D
:1003F000FFFFFFFFFFFFFFFFFFFFFFFFFFFFFFFF0D
:10040000FFFFFFFFFFFFFFFFFFFFFFFFDEF9FFFF23
:1004100010B5054C237833B9044B13B10448AFF33E
:1004200000800123237010BD2092FF1F00000000F8
:1004300080170100084B10B51BB108490848AFF3FD
:1004400000800848036803B910BD074B002BFBD0A0
:10045000BDE81040184700BF000000002492FF1FB5
:10046000801701002092FF1F00000000F0B400F18F
:100470001C06104F00243146031F00F13C0243F8D4
:10048000044FB34241F8047F4FF0000542F8044F97
:10049000F5D1094A09490566002345668566C566A2
:1004A000C56702678267416780F8843080F89C30B6
:1004B000F0BC70470000A040000048430000C8C2E4
:1004C0002DE9F04190F89C4084B0202364008DF821
:1004D0000530E4B2042380468DF804408DF80630E0
:1004E0000327204607F096FD02210DF1050007F0D5
:1004F0009BFD8DF8044001F0AFFB30B3092140486B
:1005000008F046FC0023102221463E4808F042FE37
:1005100001213D4808F03CFC002310229DF8051005
:10052000384808F037FE0121374808F031FC002335
:1005300010229DF80610334808F02CFE01213248A5
:1005400008F026FC2F4808F015FE02208DF8044024
:1005500007F06AFB01F080FB00284CD102AE0024BA
:1005600007F078FD70B3072C1FD101E007F082FD82
:1005700007F070FD0028F9D101F06EFB10B12148A1
:1005800008F0F8FD9DF80B009DF80C109DF80D206B
:100590009DF80E30C8F88800C8F88C10C8F8902074
:1005A000C8F8943004B0BDE8F08107F063FD05465B
:1005B00006F8010B01F050FB70B9013407F04AFD59
:1005C0000028D0D1072CD3D001F046FB78B9013FE9
:1005D000D8D09DF8044084E7E9B2002310220948EE
:1005E00008F0D8FD0121084808F0D2FBE5E70548EE
:1005F00008F0C0FDEBE70721044808F0C9FBADE7B0
:10060000D8FE0000C087FF1FDC050100E4FE0000EB
:1006100090F88C00704700BF90F88800704700BFCA
:1006200090F89000704700BF90F89400704700BFAA
:10063000082994BF50F82100002070472DE9F041AF
:100640000B4E8046041F00F11C0754F8045F31462E
:1006500028460BF0E1FA30B1D8F8801028460BF0AC
:10066000F9FA00B12E46BC42EFD13046BDE8F08128
:10067000000020412DE9F041D0F880704FF00008D3
:10068000041F00F11C0654F8045F394628460BF09D
:10069000E1FA084948B128460BF0BEFA414620B1BC
:1006A00028460BF0D7FA00B1A846B442EBD1404639
:1006B000BDE8F081000070422DE9F047D0F880706D
:1006C00082464FF00009041F00F11C064FF000089D
:1006D00054F8045F394628460BF0BCFA0C4950B177
:1006E00028460BF099FA30B1484629460AF0EEFF49
:1006F00008F101088146B442EAD1CAF8A080404618
:100700000BF098F8014648460BF09CF9BDE8F087DD
:1007100000007042D0F8A000704700BF38B5846E6A
:10072000456E214628460BF077FA00B92C46204644
:1007300038BD00BFD0F898302DE9F041002B79D1B9
:10074000866E456E0446314628460AF0BFFFE76EC6
:10075000394680460AF0BAFF7E490BF073F94FF034
:100760007C5104460BF076FA002861D04FF07C51A2
:1007700028460BF06FFA4FF07C51002860D12846D4
:100780000BF04AFA38B14FF07C5130460BF062FA68
:10079000002840F0A7804FF07C5128460BF05AFA11
:1007A000002860D14FF07C5128460BF053FA002806
:1007B00040F0A1804FF07C5128460BF04BFA002806
:1007C0006CD14FF07C5128460BF026FA4FF07C514B
:1007D00010B330460BF03EFA38B14FF07C5138463A
:1007E0000BF01AFA002840F0B0804FF07C513046F0
:1007F0000BF012FA002861D04FF07C5138460BF014
:1008000029FA002840F0A38038464FF07C510BF0C5
:1008100003FA68B1504C10E028460BF0FDF90028AF
:10082000E3D128464FF07C510BF0F6F9002845D172
:10083000BDE8F08100EB8300046E2046BDE8F08146
:1008400030460BF007FA4FF07C5100283ED0384676
:100850000BF000FA0028F0D14FF07C5128460BF045
:10086000DBF9002859D14FF07C5130460BF0D4F918
:10087000002840D04FF07C5138460BF0EBF90028AF
:1008800041D14FF07C5130460BF0E4F968B14FF0A4
:100890007C5138460BF0C0F900284FD14FF07C5105
:1008A00030460BF0B9F900288BD04FF07C51384618
:1008B0000BF0B2F9002884D02C46BEE730464FF04A
:1008C0007C510BF0A9F90028B2D09DE728460BF027
:1008D000A3F90028C7D04FF07C5130460BF0BAF98D
:1008E0000028C0D04FF07C5138460BF0B3F90028F7
:1008F0003FF451AF18E04FF07C5130460BF0AAF9AD
:100900000028CBD0C3E7394628460AF0DFFE4FF077
:100910007C510AF0E3FF04468FE74FF07C513846E4
:100920000BF098F900289ED0394630460AF0CEFEEA
:100930004FF07C510AF0D2FF04467EE740464FF06C
:100940007C510AF0CBFF044677E7344675E73C4616
:1009500073E700BF000040400000A0C270B504462D
:10096000FFF7E8FE4FF07C510BF074F928B3666E88
:100970004FF07C5130460BF06DF9A56EF0B9E46E86
:100980004FF07C5128460BF065F958B129463046A6
:100990000BF060F930B1214628460BF03DF908B163
:1009A0002C4620E04FF07C5120460BF053F920B14B
:1009B000284621460BF04EF978B970BD30462946DD
:1009C0000BF02AF9E46E0028DAD0304621460BF00D
:1009D00023F90028D4D0344605E0304621460BF0F8
:1009E00039F90028E9D0204670BD00BF02292DE961
:1009F000F8438046154600F0A880032972D00129EB
:100A00003FD0866E476E04684046FFF7A7FFD8F8D0
:100A1000701005460BF000F908B1C8F8705039465F
:100A200030460BF017F9002854D13946D8F8740035
:100A30000BF0F2F810B13E46C8F8746008F12006D9
:100A4000C14608F14005002701E059F8044F30681D
:100A500021460BF0FFF80137214628B1D8F8800075
:100A60000BF0E4F800B13460214628680BF0D4F8AC
:100A7000043600B12C60082F05F10405E5D1BDE86E
:100A8000F883137AC0F8A430D37A907A03EB00206D
:100A90000AF0D0FE46490AF021FFC8F864006B7BDB
:100AA0000746287B03EB00200AF0C4FE40490AF009
:100AB00015FFC8F86800EB7B0646A87B03EB002017
:100AC0000AF0B8FE3A490AF009FFD8F80040C8F821
:100AD0006C0099E7D8F8741030460BF0BBF800288A
:100AE000AAD1ABE7537A107A03EB00200AF0A2FEFA
:100AF0002F490AF0F3FEC8F81000EB7AA87A03EB4E
:100B000000200AF097FE2A490AF0E8FEC8F814000F
:100B10006B7B287B03EB00200AF08CFE24490AF053
:100B2000DDFEC8F81800EB7BA87B03EB00200AF081
:100B300081FE1F490AF0D2FED8F86860C8F81C0090
:100B4000D8F86470D8F800405EE7537A107A03EB67
:100B500000200AF06FFE16490AF0C0FEC8F8000037
:100B6000EB7A0446A87A03EB00200AF063FE1049F2
:100B70000AF0B4FEC8F804006B7B287B03EB00206E
:100B80000AF058FE0A490AF0A9FEC8F80800EB7BF3
:100B9000A87B03EB00200AF04DFE05490AF09EFEFB
:100BA000D8F86860D8F86470C8F80C002CE700BF6B
:100BB0006F12833A2DE9F04F90F89C3091B00746C0
:100BC0005B008DF80830FFF77BFCD7F89000D7F872
:100BD0009440D7F88C30D7F8882097F89C108DE88F
:100BE0001100C94801F032F930223D2303268DF867
:100BF00009208DF80A300DF10A059DF8089049F09A
:100C00000108404607F006FA0DF10900022107F03D
:100C10000BFA8DF80880424602AB002050400824B1
:100C200010F0800F4FEA400018BF80F00700013C31
:100C3000C0B2F5D19D4202D013F8012FEEE707F0C4
:100C4000E9F901F009F8002840F07C8202208DF8D3
:100C5000089006F0E9FF00F0FFFF002840F0B8829E
:100C60000DF10C0AD146002407F0F4F9002843D016
:100C7000032C34D101E007F0FDF907F0EBF900286F
:100C8000F9D100F0E9FF10B1A04808F073FA312360
:100C900003268DF809308DF80A609DF8089049F018
:100CA0000108404607F0B6F90DF10900022107F0EE
:100CB000BBF98DF80880424602AB00205040082462
:100CC00010F0800F4FEA400018BF80F00700013C91
:100CD000C0B2F5D19D4228D013F8012FEEE707F0FE
:100CE000C9F909F8010B804600F0B6FF68B9013474
:100CF00007F0B0F90028BBD1032CBED000F0ACFF48
:100D000078B9013E7FF479AFC1E75FFA88F100233B
:100D100010227E4808F03EFA01217D4808F038F89C
:100D2000E5E77A4808F026FAEBE707F073F900F0F8
:100D300093FF002840F0C58102208DF8089006F04E
:100D400073FF00F089FF002840F03D820DF10C098F
:100D5000002407F07FF9002844D0032C35D101E0AE
:100D600007F088F907F076F90028F9D100F074FF50
:100D700010B1664808F0FEF9342201238DF80920ED
:100D80008DF80A3003269DF8089049F00108404686
:100D900007F040F90DF10900022107F045F98DF83F
:100DA0000880424602AB00205040082410F0800F1B
:100DB0004FEA400018BF80F00700013CC0B2F5D1F7
:100DC0009D4228D013F8012FEEE707F053F909F8F8
:100DD000010B804600F040FF68B9013407F03AF992
:100DE0000028BAD1032CBDD000F036FF78B9013EFF
:100DF0007FF453AFC0E75FFA88F100231022434825
:100E000008F0C8F90121424807F0C2FFE5E73F4872
:100E100008F0B0F9EBE707F0FDF800F01DFF00283F
:100E200040F00E8102208DF8089006F0FDFE00F0E3
:100E300013FF002840F0D6810DF10C09002407F0C3
:100E400009F9002800F08480032C72D101E007F03A
:100E500011F907F0FFF80028F9D100F0FDFE10B1FC
:100E60002A4808F087F9012212238DF809208DF80D
:100E70000A304FF003089DF80840204607F0CAF8F2
:100E800002210DF1090007F0CFF88DF8084000F0BD
:100E9000E3FE30B309211F4807F07AFF0023102238
:100EA00021461A4808F076F90121194807F070FF29
:100EB000002310229DF80910144808F06BF9012155
:100EC000134807F065FF002310229DF80A100F4811
:100ED00008F060F901210E4807F05AFF0B4808F0AE
:100EE00049F906208DF8084006F09EFE00F0B4FE99
:100EF000002840F0728103AD002607F0ABF800280F
:100F00003FD0162E2FD109E0ECFE0000C087FF1F56
:100F1000DC050100D8FE000007F0ACF807F09AF8F5
:100F20000028F9D100F098FE162600287DD1152062
:100F300035E007F09FF809F8010B804600F08CFEC1
:100F400000285BD1013407F085F800287FF47CAFDE
:100F5000032C3FF47EAF00F07FFE00286CD1013EF1
:100F60007FF411AF7FE707F085F805F8010B044621
:100F700000F072FE00284DD1013607F06BF8002812
:100F8000BFD1162ECAD000F067FE00284DD1B8F1AF
:100F900001087FF470AF701E002840F31E8200230A
:100FA00003AA1C4612F8011B08254C4014F0800FC0
:100FB0004FEA440418BF84F00704013DE4B2F5D1C0
:100FC00001338342EEDB9DF8218089484146224669
:100FD00000F03CFF162EC146A34602D1A04500F00A
:100FE000138197F89C108348CDF800B04B463246E9
:100FF00000F05AFF002011B0BDE8F08F5FFA88F1D1
:10100000002310227C4808F0C5F801217B4807F036
:10101000BFFE97E7E1B200231022774808F0BAF844
:101020000121764807F0B4FEA6E7734808F0A2F85D
:10103000162EACD11520B2E76F4808F09BF88EE76A
:1010400009216F4807F0A4FE2346102241466A4852
:1010500008F0A0F80121694807F09AFE2346102203
:101060009DF80910644808F095F80121634807F0DD
:101070008FFE102223469DF80A105F4808F08AF878
:1010800001215E4807F084FE21460DF10B0002AA03
:1010900012F8014B6140C9B2082311F0800F4FEAEA
:1010A000410118BF81F00701013BC9B2F5D190425F
:1010B000EED11022504808F06DF84F4808F05AF869
:1010C000B0E609214E4807F063FE23461022414650
:1010D000494808F05FF80121484807F059FE2346C7
:1010E00010229DF80910444808F054F801214348A3
:1010F00007F04EFE102223469DF80A103E4808F0E5
:1011000049F801213D4807F043FE21460DF10B004F
:1011100002AA12F8014B6140C9B2082311F0800FF6
:101120004FEA410118BF81F00701013BC9B2F5D177
:101130009042EED11022304808F02CF82E4808F0EA
:1011400019F8F9E509212E4807F022FE234610225E
:101150004146294808F01EF80121284807F018FEEA
:10116000234610229DF80910234808F013F80121A6
:10117000224807F00DFE102223469DF80A101E4853
:1011800008F008F801211D4807F002FE21460DF184
:101190000B0002AA12F8014B6140C9B2082311F0FA
:1011A000800F4FEA410118BF81F00701013BC9B22E
:1011B000F5D19042EED110220F4807F0EBFF0E4818
:1011C00007F0D8FF42E507210E4807F0E1FDBDE535
:1011D00007210C4807F0DCFD42E50721094807F02C
:1011E000D7FD88E60721074807F0D2FD24E600BFB7
:1011F00020FF00006CFF0000C087FF1FDC0501001E
:10120000D8FE0000E4FE00009DF80C3097F89C200A
:10121000B3EB420F7FF4EEAE9DF80D30012B7FF45F
:10122000E9AE9DF80E30122B7FF4E4AE9DF810303D
:101230009DF80F0003EB00200AF0FCFA6F490AF05A
:101240004DFBF96F386604460AF004FD00B1FC67F7
:10125000B96F20460AF0E0FC00B1BC67A7F10409B1
:1012600007F1200607F140054FF008089AF806300C
:101270009AF8050003EB00200AF0DCFA60490AF056
:101280002DFB49F8040F316804460AF0C5FC0AF149
:10129000020A30B1D7F8801020460AF0D1FC00B124
:1012A0003460296820460AF0D5FC043600B12C6071
:1012B000B8F1010805F10405D8D19DF81E309DF85C
:1012C0001D0003EB002002300AF0B4FA4D490AF089
:1012D000B9FB01464C480AF0B5FB4C490AF0F4F959
:1012E0004B490AF0FBFA054608F066FB044628461F
:1012F00008F062FB474908F0D1FB47490546204604
:101300000AF0ECFA45490AF0E1F945490446284655
:101310000AF0E4FA014620460AF0D8F901464FF0F7
:101320007E500AF08FFB3F490AF0CEF99DF81F204E
:101330009DF82030786603EB022009300AF07AFA33
:1013400039490AF07FFB01462F480AF07BFB2F4901
:101350000AF0BAF92E490AF0C1FA054608F02CFB4A
:101360000446284608F028FB2A4908F097FB2A493A
:10137000054620460AF0B2FA28490AF0A7F928499A
:10138000044628460AF0AAFA014620460AF09EF9C9
:1013900001464FF07E500AF055FB22490AF094F9BD
:1013A000B86604463846FFF7D9FA396F05460AF0A1
:1013B00033FC00B13D677D6E204629460AF04AFCA9
:1013C000A0B92946786F0AF027FC08B12C467C6743
:1013D000164800F03BFD01200DE69DF821901448D1
:1013E00049464246C34600F031FDFAE5796F204692
:1013F0000AF030FC0028EAD1EAE700BF1357053BAA
:101400002003C839001601470AD7E33FE17A644058
:1014100000007A4400004040A40D8F395A80473ABA
:1014200046A6DB3333938843002C014744FF00007A
:1014300020FF00002DE9F8430026D0F880800666E2
:101440008146044600F1200754F8045B41462846D3
:101450000AF000FC084950B128460AF0DDFB30B123
:10146000304629460AF032F90646C9F86000BC4207
:10147000EAD13046BDE8F8830000704202299ABFE5
:1014800000EB8100406E0020704700BF3E2998BFEE
:1014900080F89C10704700BF90F88400704700BF30
:1014A000C0F89810704700BF80F88410704700BFE4
:1014B00030B5C0F8801083B0084609F065FD074CD0
:1014C000022502460B460095204607F0ADFE204659
:1014D00003B0BDE8304007F04DBE00BFC087FF1F1E
:1014E00070B500F525550646383500F12004204634
:1014F000A834FEF7BBFFAC42F9D106F1C8050124C0
:1015000028460021FFF7D0FF214628460134FFF787
:10151000BDFF3F2C05F1A805F2D106F52653064A7A
:101520003261002405480649B06100227461F1610E
:1015300030461A7070BD00BF00007A440000484376
:101540000000C8C242F684132DE9F041002200F5E4
:10155000255600F526578046C2503836043700F12C
:10156000C80402E0A834B4420DD02046FFF794FF2F
:101570000028F7D020463D68FFF7CCF8A83428446F
:10158000B4423860F1D142F6841358F80300BDE844
:10159000F08100BFF8B50E46096801F47F650029A7
:1015A0000446A5F5C06511DB2D0901F00F07A8233E
:1015B00003FB0544203420460121FFF775FF324626
:1015C00039462046BDE8F840FFF710BA0A4801F056
:1015D0000F0707F0CFFD1221084807F0D9FB31684B
:1015E000054801F0004100230A2207F0D3FD02481C
:1015F0002D0907F0BFFDDAE7C087FF1FBCFF000021
:10160000704700BF704700BF2DE9F0430446002338
:1016100083B0064644F8C83B012504E001353F2D60
:1016200004F1A80469D02046FFF736FF0028F5D062
:101630004D4800F00BFC29464C4800F007FC2046C2
:10164000FFF7B8FA2046FFF7F5FE09F09DFC0246C9
:101650000B46474800F0FAFB2046FEF7EFFF8046B6
:101660002046FFF707F80746404609F08DFC804604
:101670003846894609F088FC42464B46CDE90001D0
:101680003C4800F0E3FB00212046FFF7F7FE012174
:1016900080462046FFF7F2FE0746404609F074FCFC
:1016A00080463846894609F06FFC42464B46CDE9F4
:1016B0000001314800F0CAFB2046FFF7BBFE01469F
:1016C00030680AF003F830602046FFF747F9B16947
:1016D0000AF0A2FA002831D12046FFF71FF8F1697D
:1016E0000AF0B8FA002899D02046FFF717F801351C
:1016F0003F2DF06104F1A80495D170680AF09AF8C2
:10170000014630680AF09EF97169306004460AF0BB
:10171000A1FA00B17461316920460AF07DFA00B186
:1017200034610B2006F04AFA06F52656337850B994
:101730007BB10123337003B0BDE8F0832046FFF78F
:101740000DF9B061C8E743B90023337003B0BDE8B9
:10175000F0830A4800F0A8FBEBE7094800F08EFB95
:1017600000233370F2E700BFB8010100D0FF000092
:101770000C000100200001004C0001006800010085
:10178000A000010070B5114B836000F52555064699
:10179000383500F1C80402E0A834AC4213D020462A
:1017A000FFF77AFE0028F7D02046FEF747FFB16822
:1017B0000AF032FA0028EFD02046FEF73FFFA834A7
:1017C000AC42B060EBD1B06870BD00BF0000A0407B
:1017D00070B5002300F525550646C360383500F185
:1017E000C80402E0A834AC4213D02046FFF754FEF0
:1017F0000028F7D02046FEF73DFFF1680AF02AFAEC
:101800000028EFD02046FEF735FFA834AC42F06048
:10181000EBD1F06870BD00BF006870474160704751
:10182000F8B50F46164600F1C804012504E001355D
:101830003F2D04F1A8041BD02046FFF72DFE002801
:10184000F5D029460B4807F0E5FC0A4807F092FC62
:10185000782007F021FB20463946FFF721FE0135AD
:1018600020463146FFF724FE3F2D04F1A804E3D1C2
:10187000F8BD00BFC087FF1F2DE9F84300F52555CF
:1018800042F67C132E4600278146C7504FF00008D1
:1018900038353C3600F1C80402E0A834AC4213D01D
:1018A0002046FFF7F9FD0028F7D033680133336095
:1018B0002046FEF73FFF0F490AF0CCF988B9A8345B
:1018C000AC4207F10107EBD142F67C1359F8030053
:1018D000C01B09F0AFFF014640460AF0B3F8BDE86F
:1018E000F8832046FEF726FF0146404609F0EEFE4B
:1018F0008046D2E700008CC2F8B500F525550746B2
:101900000026383500F1C80402E0A834AC420FD0FC
:101910002046FFF7C1FD0028F7D02046FEF7CCFE99
:101920000146304609F0D2FEA834AC420646EFD15B
:1019300042F67C13F85809F07DFF014630460AF064
:1019400081F8F8BD2DE9F04F06468DB07B4800F0D8
:1019500025FA7A4800F022FA784800F01FFA42F699
:101960007C133046F758FFF7EDFD0B90306809F017
:101970000BFB044630460D46FFF7BEFF0A90B068E9
:1019800009F002FB8246F0688B4609F0FDFA8046BA
:1019900030468946FFF770FF09F0F6FA0A9BCDE959
:1019A00008011846CDE904ABCDE9068909F0ECFA47
:1019B0000B9ACDE90201CDE900453946604800F0B7
:1019C000EDF95E4800F0EAF9C8364FF001094FF032
:1019D000000A07E009F10109B9F13F0F06F1A80675
:1019E00000F0A3803046FFF757FD0028F2D03046C4
:1019F000FEF70EFE3046FEF70FFE3046FEF710FEF5
:101A00003046FEF711FE08214E4807F0C1F949465D
:101A10004D4807F0FFFBB9F1090F40F3898002211F
:101A20004A4807F0B5F93046FFF704FD09F0ACFA73
:101A3000022402460B460094434807F0F5FB0121BF
:101A4000434807F0A5F9554600241FE00621414808
:101A500007F09EF929463C4807F0DCFB02213E488E
:101A600007F096F921463046FEF7E2FD09F08CFAC0
:101A7000009702460B46344807F0D6FB013401219B
:101A8000334807F085F9082C0BD04546092D4FF057
:101A9000020705F10108D9DC0121304807F078F987
:101AA000D4E7294807F066FB09212D4807F070F9B3
:101AB00000213046FFF7E2FC09F066FA0097024683
:101AC0000B46214807F0B0FB0A21264807F060F9D1
:101AD00001213046FFF7D2FC09F056FA0097024682
:101AE0000B46194807F0A0FB0A211F4807F050F9E0
:101AF00039463046FFF7C2FC09F046FA0097024625
:101B00000B46114807F090FB0121184807F040F9F7
:101B100009F101090C4807F02DFBB9F13F0F0AF15B
:101B2000080A06F1A8067FF45DAF0DB0BDE8F08F9E
:101B300001210A4807F02CF971E700BFB801010044
:101B400050030100D0030100C087FF1F7411010082
:101B5000DC030100E0030100CC050100DC0501000D
:101B6000E8030100F4030100000401000C0401007B
:101B70002DE9F04100F1C80582B0012704E00137EA
:101B80003F2F05F1A80559D02846FFF785FC00280E
:101B9000F5D039462B4807F03DFB01212A4807F0D4
:101BA000F7F800244FF0020821462846FEF740FDD2
:101BB00009F0EAF9CDF8008002460B46214807F00B
:101BC00033FB01340121204807F0E2F8082C4FF0E4
:101BD0000206E9D100212846FFF750FC09F0D4F9AC
:101BE000009602460B46174807F01EFB01211648D7
:101BF00007F0CEF801212846FFF740FC09F0C4F9B0
:101C0000009602460B460F4807F00EFB01210E48D6
:101C100007F0BEF831462846FFF730FC09F0B4F96A
:101C2000009602460B46074807F0FEFA01370548C2
:101C300007F0A0FA3F2F05F1A805A5D102B0BDE835
:101C4000F08100BFC087FF1F10040100014B187016
:101C5000704700BF2087FF1F024B1878B0FA80F052
:101C6000400970472087FF1F0278002A00F0858016
:101C700070B5034682B00D4621E058785C1C68B30D
:101C8000252831D0732833D064281DD069281BD073
:101C9000662851D0782839D0582833D0622842D0CD
:101CA00042283CD06C280FD063280DD074284FD028
:101CB000542857D007F0F0F86278631C72B1252AD7
:101CC000DBD018781C46F5E72B1D29682C481D46EB
:101CD00007F0A0FA6278631C002AF0D1284802B00D
:101CE000BDE8704007F046BA104607F0D5F8E3E7C4
:101CF0002E6830460AF004FE01463046043507F0EF
:101D000047F8D9E702211F4807F042F82E1D29683D
:101D10001B4800231022354607F03CFACCE702218D
:101D2000194807F035F82E1D2968154800230222AE
:101D3000354607F02FFABFE7073525F007050321E1
:101D4000D5E900230E480091083507F06DFAB3E796
:101D5000296801290EBF0D480D480121043507F0FF
:101D600017F8A9E72B68012B07BF042109480A4887
:101D70000521043507F00CF89EE7014807F0FAB991
:101D8000C087FF1F14040100180401001C04010097
:101D900020040100240401002C0401000FB400B54C
:101DA00083B004A951F8040B0191FFF75DFF03B064
:101DB0005DF804EB04B0704770B51B4B1B4C1B68FF
:101DC00082B00D460193019B23601946044600230F
:101DD000164617480A2207F0DDF90321154806F0D8
:101DE000D7FF032C07D8DFE804F01A1510020521ED
:101DF000114806F0CDFF0221104806F0C9FF314618
:101E00002846FFF731FF02B070BD07210C4806F0ED
:101E1000BFFFF0E704210B4806F0BAFFEBE705210E
:101E2000094806F0B5FFE6E7FCBFFF1F3C92FF1F25
:101E3000C087FF1F3404010050040100CC050100DD
:101E40004804010040040100380401000FB400B54B
:101E5000094B187883B020B103B05DF804EB04B0EF
:101E6000704705AB1A4604990193FFF7A5FF03B02D
:101E70005DF804EB04B070472087FF1F0FB4094BD7
:101E800000B51B78012B83B004D903B05DF804EBD7
:101E900004B0704705AB1A46049901930120FFF77F
:101EA0008BFFF2E72087FF1F0FB40B4B00B51B78A9
:101EB000032B83B004D903B05DF804EB04B0704782
:101EC00005AB1A46049901930320FFF775FF03B091
:101ED0005DF804EB04B070472087FF1FF8B5314868
:101EE000314C324F324EFFF759FF324B324A3349B1
:101EF00033485A60012510221A701D72314A324D42
:101F0000D9601C6131495861002431485F621E620A
:101F1000304F9A614FF07C562F4A9D62D9622F4D07
:101F20001C630E2140F61C4458630A209F635E64C4
:101F300041F204075A269A64DD640222284D19658D
:101F40009C6600216424D8664FF496701F675E6714
:101F5000DD61DD6383F8401099675866D8654FF4FA
:101F60007A7741F28830FF265A705A725A650525F1
:101F70009C65DA67C3F88010C3F89C103221C3F85F
:101F8000AC20C3F8B040C3F89870C3F8A460A3F8BD
:101F9000B650C3F89000A3F8B400C3F89410C3F887
:101FA000A010F8BD5804010000004040CDCCCC3D4D
:101FB000333373403093FF1F20A1070066668640CD
:101FC00033338340CDCC4C4000008242000020C11E
:101FD000000020420000A0409A9979400AD7233D92
:101FE000CDCC4C3EF0B54FF47A6085B005F01CFEC8
:101FF00000210E2005F0F0FD00210F2005F0ECFD82
:102000000021112005F0E8FD0021102005F0E4FD7D
:102010000021122005F0E0FD0021132005F0DCFD79
:1020200001210B2005F0D8FD01210C2005F0D4FD85
:102030000121142005F0D0FD0121152005F0CCFD73
:102040000121162005F0C8FD0121172005F0C4FD6F
:102050000121052005F0C0FD8E4C8F4D0121062089
:1020600005F0BAFD01210D2005F0B6FD208809F02C
:10207000DDFB0146162005F019FD208809F0D6FB8E
:102080000146172005F012FD208809F0CFFB01461C
:10209000052005F00BFD208809F0C8FB002401464F
:1020A000062005F003FD009423467C4A7C497D48C8
:1020B00004F0E0F9E6B2324677497A4804F088F94C
:1020C0002B79754977486FF30003013432462B7141
:1020D00004F074F9082CEDD10924E6B232466E49B9
:1020E000704804F075F92B796B496E4843F0010391
:1020F000013432462B7104F061F90D2CEDD16A4C9C
:102100004FF0FF322068102104F080FD20684FF06E
:10211000FF32102104F052FD20684FF0FF320221FF
:1021200004F060FD20684FF0FF32022104F064FDEE
:1021300000220E21206804F073FD0C215B4806F09C
:1021400027FE5B4807F016F814215A4806F020FED7
:10215000574807F00FF8564807F00CF81721564873
:1021600006F016FE524807F005F8544B1B789A0605
:1021700000F1BE80514B1B781B0700F1C5804F4B0F
:102180001B785F0700F1CC804C4B1B789E0700F159
:10219000D3804B4B1B781D0600F1DA80484B1B782F
:1021A0005C0600F1E180464B1B78980600F1E88060
:1021B000434B1B78590700F1EF80414B1B781A07FE
:1021C00000F1F6803E4B1B789B0700F1FD803848FC
:1021D00006F0D0FF72B63B4A4CF220534DF6281160
:1021E0002024138023461180013BFDD1364D374812
:1021F000374900234FF480562E8003800B8032F83D
:102200000E3C9BB243F0D30322F80E3C62B69D20F5
:1022100005F0B0FE21462F482F4D06F0B9FD2448A9
:1022200006F0A8FF05F1B8062F462C46601B05F006
:10223000D9F904F8010BB442F8D13B78102B01D046
:10224000FFF74CFE2548FFF7DDF90420FFF7FEFC01
:10225000234B224800221A60FFF7D2F901210D20FA
:1022600005F0A6FC796D1D48FFF7D8FA7A6C97F84F
:1022700040101A48FFF7D4FA1A4B1B491A68039208
:1022800003981B680293029A184B08601A6005B005
:10229000F0BD00BF2887FF1FF093FF1FF0BFFF1F97
:1022A00020A1070054BEFF1F8C94FF1F780401007B
:1022B000C087FF1F88040100A004010001F007404F
:1022C00000F007400E200540042005400620054090
:1022D00016200540A40501003093FF1FC094FF1F86
:1022E0005092FF1FFCBFFF1FB894FF1FF893FF1F02
:1022F0002121394806F04CFD384806F03BFF384BA9
:102300001B781B077FF53BAF0C21364806F040FDDC
:10231000324806F02FFF324B1B785F077FF534AF52
:102320000E21314806F034FD2C4806F023FF2C4BDB
:102330001B789E077FF52DAF17212C4806F028FD4E
:10234000264806F017FF2A4B1B781D067FF526AF9F
:102350000E21284806F01CFD204806F00BFF244BF8
:102360001B785C067FF51FAF1221234806F010FD95
:102370001A4806F0FFFE1E4B1B7898067FF518AF33
:1023800013211E4806F004FD144806F0F3FE184B16
:102390001B7859077FF511AF1C21194806F0F8FC8E
:1023A0000E4806F0E7FE124B1B781A077FF50AAFBE
:1023B0001921144806F0ECFC084806F0DBFE0C4B33
:1023C0001B789B077FF503AF18210F4806F0E0FC50
:1023D000024806F0CFFEFAE6B8040100C087FF1FEE
:1023E00001F00740DC040100EC040100FC040100E2
:1023F00000F0074014050100240501003805010024
:102400004C0501006C0501008805010070B5464CC3
:10241000464D4748E66800232B70FFF7D9F901467F
:10242000304609F0F9FB08B104232B704048FFF750
:10243000A9F9216909F0F0FB18B12B7843F01003DA
:102440002B703B48FFF718FAA16A09F003FC18B19A
:102450002B7843F040032B70002335486B70FFF757
:102460000BFAE16A314E09F0D7FB08B10123737012
:1024700000232F48EB70FFF7ABF905462C482B4E95
:10248000FFF780F90146284609F01EF9E16B09F0D3
:10249000E1FB08B10123F370264D254800232B7082
:1024A000FFF796F9616A0646E06809F00DF9014602
:1024B000304609F0CFFB08B104232B701C48FFF70E
:1024C00061F9616A0646206909F000F90146304663
:1024D00009F0A2FB18B12B7843F010032B701448BD
:1024E000FFF7CAF9A16B0646A06A09F0EDF80146AC
:1024F000304609F0AFFB18B12B7843F040032B7046
:1025000000230B486B70FFF7B7F9A16B0546E06A33
:10251000084C09F0DBF80146284609F07DFB08B1BC
:102520000123637070BD00BF3093FF1F2C93FF1F0A
:10253000C094FF1FEC93FF1F2DE9F0417C4C2368F2
:10254000012B82B031D0022B00F0A880032B00F0C9
:10255000C8803BBB774B784AD3F8A010D3F8A4309F
:1025600012685B1A632B0EDD744803FB02F380FBD9
:102570000302DB17C3EB62131944062002B0BDE867
:10258000F04105F095B96E4803FB022380FB03027E
:10259000DB17C3EB22121144062002B0BDE8F04164
:1025A00005F086B902B0BDE8F081664E33680A33A3
:1025B000B3F57A7F00F3B7801846336009F03AF933
:1025C000614909F08BF980465A4DD5F8A00009F011
:1025D00031F90746D5F8A40009F02CF9394609F07D
:1025E00073F8414609F07AF9584909F02BFA39464F
:1025F00009F06CF809F04EFB0146062005F058F989
:102600000221534806F0C4FB524806F0B3FD0621F0
:10261000514806F0BDFB306809F00CF94A4909F051
:102620005DF908F0B1FC022702460B4600974948C5
:1026300006F0FAFD0D21494806F0AAFBD5F8A000E6
:1026400009F0F8F88046306809F0F4F83E4909F0DE
:1026500045F90646D5F8A40009F0ECF8414609F022
:1026600033F80146304609F039F9384909F0EAF9FA
:10267000414609F02BF808F087FC00970B4602460C
:10268000344806F0D1FD3946314806F081FB314827
:1026900006F070FD2368022B7FF458AF294B254EBE
:1026A00000221A60D6F8A00009F0C4F80546D6F852
:1026B000A40009F0BFF8294609F006F8002109F046
:1026C0000DF9224909F0BEF9294608F0FFFF09F08B
:1026D000E1FA0146062005F0EBF82368032B7FF4AE
:1026E00038AF184B134E4FF47A721A60D6F8A00028
:1026F00009F0A0F80546D6F8A40009F09BF8294691
:1027000008F0E2FF114909F0E9F8104909F09AF9D7
:10271000294608F0DBFF09F0BDFA0146062005F066
:10272000C7F8236815E700234FF0000833604BE734
:102730006C94FF1F3093FF1F3887FF1F1F85EB51DD
:10274000CBF08D285492FF1FCDCCCC3D0000C84269
:1027500074110100C087FF1FC8050100D0050100EA
:1027600070B5A248A24C06F005FDA04806F002FD97
:102770009E4806F0FFFC0D219E4806F009FBD4F8A8
:102780009C30012B11D09C4C9848217800230A22C0
:1027900006F000FD2378052B67D8DFE813F0E90089
:1027A000EE00F300F800FD00E4000921934806F074
:1027B000EFFA9348FEF7E6FF216909F02DFA18B108
:1027C0000F21904806F0E4FA8D48FFF701F8E16820
:1027D00009F040FA18B10E218B4806F0D9FA884862
:1027E000FEF7F6FF05468648FEF7CCFF0146284671
:1027F00008F06AFFE16B09F02DFA18B11121834846
:1028000006F0C6FA7E48FFF737F8A16A09F022FA07
:1028100018B10C217E4806F0BBFA7948FFF72CF876
:10282000E16A09F0F9F918B10D217A4806F0B0FA19
:10283000794B73481B68012B00F0C280FEF7A2FFA2
:1028400021696B4D09F006FA78B16D48FEF7C0FFBB
:10285000E96809F0E1F940B1674B1B78052B00F0FE
:10286000C08008216D4806F093FA02216C4806F0FA
:102870008FFA122005F0A2F9012800F09C801120A7
:1028800005F09CF9012800F09180664B1B68012B34
:1028900000F087800221624806F07AFA624B5348C2
:1028A000196806F0B7FC514806F064FC04215F4843
:1028B00006F06EFA0B2005F081F9002301460A228A
:1028C0004A4806F067FC0C2005F078F90023014621
:1028D0000A22464806F05EFC142005F06FF900233A
:1028E00001460A22414806F055FC152005F066F91C
:1028F000002301460A223D4806F04CFC06214C48C4
:1029000006F046FA4B4B394819680222002306F0BC
:1029100041FC0421484806F03BFA112005F04EF92D
:10292000002301460A22314806F034FC102005F04D
:1029300045F9002301460A222C4806F02BFC122000
:1029400005F03CF9002301460A22284806F022FC43
:10295000132005F033F9002301460A222348BDE87D
:10296000704006F017BC0721344806F011FA7CE7E6
:102970000621334806F00CFA77E70721314806F0C4
:1029800007FA72E70721304806F002FA6DE70821DE
:102990002E4806F0FDF968E70B212D4806F0F8F9FE
:1029A00063E711212B4806F0F3F973E70A212A485F
:1029B00006F0EEF969E70E21284806F0E9F95EE72E
:1029C000FEF7E0FE216A09F045F900283FF449AF1F
:1029D0001621234806F0DCF90A21224806F0D8F92E
:1029E00043E70A211F4806F0D3F93EE7C087FF1FDF
:1029F0003093FF1FE00501007894FF1FF0050100F0
:102A0000C094FF1FFC0501000C0601001C0601001C
:102A100030060100400601006492FF1F74060100A9
:102A2000741101009494FF1F7094FF1FE8060100C9
:102A3000F0060100E893FF1FF8060100B006010050
:102A400080060100880601009C060100A406010022
:102A500090060100D4060100C8060100B806010076
:102A600050060100680601002DE9F04F934C944F89
:102A7000E36F012B8DB000F04981032B50D0914EB4
:102A8000914DA36F9148012B09BF2968296801F175
:102A90000041296004F098FC3368002B40F0CE80A0
:102AA0008A4804F067FCE36F3860012B064600F0AB
:102AB000D280874909F0CEF878B98649304609F0C6
:102AC000ABF850B9844A854B12680B920B9A1A6086
:102AD00000232B600DB0BDE8F08FDFF8FC817F4C48
:102AE000D8F800300A930A9823687D4FC01A08F07E
:102AF0009DFE314608F0F2FE7A4908F0A3FF7949BD
:102B000008F0A0FF396808F0E1FDD8F8003009931B
:102B1000099B2360002338602B600DB0BDE8F08F67
:102B2000DFF8C881704DD8F80000664E01230022FE
:102B30000E212B6004F074F82B68012B336800F031
:102B40000381002B40F0A6810021D8F80000DFF8B7
:102B5000B891664D04F0B6F833681FFA80FBC9F8E7
:102B600000B0002B40F07B810021D8F80000564DCA
:102B7000DFF878A104F02CF8B4F8863040F6E44190
:102B800001FB0BF1B1FBF0F0C01A00B208F052FEED
:102B900057498346D4F8880008F0A0FE01465846FD
:102BA00008F050FFD9F800302860632BDFF858B1E7
:102BB00000F3498100232B603368002B3FF461AFA1
:102BC00002214C4806F0E4F8D9F80020D8F80000BB
:102BD00040F6E443002103FB02F803F0F9FFB8FBE1
:102BE000F0F008F023FE8046B4F8860008F022FEDC
:102BF0000146404608F068FD08F0C6F94FF00208AB
:102C000002460B46CDF800803B4806F00DFB4146DE
:102C1000384806F0BDF8286808F0B6F9CDF800800D
:102C200002460B46344806F0FFFA4146334806F0A8
:102C3000AFF841462F4806F0ABF822E7234804F0EE
:102C400099FB08F0A1F9022602460B4600962A4895
:102C500006F0EAFA24E7244B1B68012B00F02681DA
:102C6000022B7FF435AF264908F0F4FF30B925492F
:102C7000304608F0D1FF002800F04781DFF8588087
:102C8000164CD8F80030079307982368144FC01AE1
:102C900008F0CCFD314608F021FE124908F0D2FEC2
:102CA000104908F0CFFE396808F010FDD8F8003060
:102CB0000693069B386023600AE700BF3093FF1F2E
:102CC0007092FF1FB494FF1F6092FF1F0893FF1FB5
:102CD0000000FA430000FAC3FCBFFF1F8894FF1FE7
:102CE0007492FF1F00007A446087FF1F8C94FF1FBF
:102CF00017B7D13874110100C087FF1F3C070100CE
:102D000000C82F4800A08CC62893FF1F3D68984933
:102D1000284608F081FF30B12846964908F09AFF0E
:102D200000287FF4FDAEDFF85882934DD8F80000FC
:102D3000924E022300220F212B6003F071FF2B68BB
:102D4000012B33687FF4FDAE002B40F000810021A1
:102D5000D8F80000DFF86C92894D03F0B3FF3368B8
:102D60001FFA80FBC9F800B0002B40F0D58000218D
:102D7000D8F80000834D03F02BFFB4F8843040F600
:102D8000E44A0AFB0BFBBBFBF0F0C01A00B208F0F0
:102D900051FD7D498346D4F88C0008F09FFD014623
:102DA000584608F04FFED9F8003028600021D8F8C6
:102DB00000000AFB03FA03F00BFFB4F88430BAFBFF
:102DC000F0F00FFA80FAC3EB0A03002BB4F8B62038
:102DD000B8BF5B429342BCBF00232B603368002B1B
:102DE0003FF44FAE0221694805F0D2FFD9F8002028
:102DF000D8F8000040F6E443002103FB02F803F09A
:102E0000E7FEB4F88410B8FBF0F000B2411A604855
:102E100006F000FA02215D4805F0BAFF286808F0C4
:102E2000B3F84FF0020802460B46CDF80080584830
:102E300006F0FAF90321574805F0AAFF4146534826
:102E400005F0A6FF1DE6DAF80000002103F0C0FE41
:102E5000DBF8003064389842FFF4ACAEACE60021F9
:102E6000286803F0B5FE40F6E44100230A2201FB86
:102E70000BF1B1FBF0F1464806F08CF90221434812
:102E800005F086FFB4F88610414806F0C3F9D9F87A
:102E900000B069E63E4806F06DF90C213E4805F0A9
:102EA00077FF0C213D4805F073FF4DE63C4908F0E3
:102EB000D1FE58B93B49304608F0AEFE30B93A4A27
:102EC0003A4B12680592059A1A6001E6DFF8D8803D
:102ED000364CD8F80030049304982368344FC01A55
:102EE00008F0A4FC314608F0F9FC324908F0AAFDCC
:102EF000304908F0A7FD396808F0E8FBD8F8003041
:102F00000393039B38602360E2E5274A274B12684E
:102F10000892089A1A60DBE50021286803F058FE41
:102F200040F6E44100230A2201FB0BF1B1FBF0F172
:102F3000174806F02FF901211F4805F029FFB4F8C2
:102F40008410134806F066F9D9F800B00FE710486E
:102F500006F010F9E36F012B4FF00B010CBF17487F
:102F6000174805F015FF0C210C4805F011FFEEE69F
:102F700000709446007094C66087FF1FB494FF1FD2
:102F80008C94FF1F6092FF1F17B7D1387411010096
:102F9000C087FF1F280701002C0701001807010048
:102FA0000000FA430000FAC3FCBFFF1F8894FF1F14
:102FB0007492FF1F00007A44DC0501000007010045
:102FC0000C0701002893FF1F2DE9F047B24D2B6835
:102FD00084B0002B7ED0B14CDFF8C882B04EE36FD6
:102FE000AE4D012B00F08F80D4F88030AB4F012B19
:102FF00000F0BC80D6F80090D7F858A07D6DA94F9E
:1030000005FB0AF54FF47A7000FB05F008F012FC9E
:10301000A5490546484608F061FC294608F012FD1E
:10302000A24908F05BFC08F035FE6328C8F80000F0
:103030004BDD28469C4908F005FD642330603B6069
:103040009B4B1B68002B3DD0E36F944D012B00F090
:10305000BB80032B00F00981022B00F00C810221C0
:10306000944805F095FE944B186807F08DFF0224F4
:1030700002460B460094914806F0D6F82146904847
:1030800005F086FE21468B4805F082FED8F8001038
:103090008A4806F0BFF806218A4805F079FE3068B4
:1030A000814908F01BFC07F06FFF009402460B46B5
:1030B000824806F0B9F80321834805F069FE7F488D
:1030C00006F058F804B0BDE8F0870028BCBF002324
:1030D0003B60B5E77D4E714C33680293029A42F231
:1030E00028339A4200F2BA8033680393039A42F27B
:1030F00010739A4274D8E36FDFF8A881684E674D69
:10310000012B7FF471AF7248FEF7F6FB7149D5F8D9
:103110006890EF6E08F0E2FB08F0E2FD2A6F6B6F3B
:10312000C9EB0202DB1B80B29A42C9EB000040F3FC
:10313000AD8003FB0000531C90FBF3F31F44A06D14
:10314000636DC8F8007000FB07F003FB00F000EBB4
:103150008000400008F06EFB5349504F08F072FCAD
:10316000D4F880303060012B7FF444AF5848FEF72C
:10317000C3FB5849D7F86890FD6E08F0AFFB08F024
:10318000AFFD3A6F7B6FD4F858A0C9EB02025B1B0E
:1031900080B29A42C9EB0000C6BF03FB00000132B7
:1031A000584390FBF2F02844656D00FB0AF005FBE4
:1031B00000F000EB8000400008F03CFB3A4908F0CA
:1031C00041FC814630601AE7434B1B68012B4FF0EE
:1031D0000A010CBF4148424805F0DAFDEB6F38E7C1
:1031E0003B48FEF789FB3B49A76EE66E08F076FB8D
:1031F00008F076FD226F636FD21B9B1B80B29A4250
:10320000A0EB07003CDD03FB0000531C90FBF3F335
:103210009819A26DDFF88C80636DC8F8000002FB7E
:1032200000F003FB00F000EB8000400008F002FB20
:103230001D491B4E08F006FC0123306002211D4889
:103240002B6005F0A5FD1D4805F094FF5921254888
:1032500005F09EFD194805F08DFFC0E61C48626C24
:1032600094F84010FEF7DCFA3EE710211E4805F006
:103270008FFDE36FF0E607211C4805F089FDEEE6BF
:1032800003FB00F393FBF2F39819C2E703FB00F38F
:1032900093FBF2F31F4452E75892FF1F3093FF1F36
:1032A0007492FF1F3887FF1FE4388E3E0000C8422B
:1032B0006C87FF1F741101007092FF1FC087FF1FF2
:1032C0003C070100D0070100D8070100FCBFFF1F29
:1032D000C094FF1F00007A446087FF1F9C07010015
:1032E000A807010040070100B4070100C80701005A
:1032F000F0B5112083B004F061FC012813D0002147
:103300000B2004F055FC00210C2004F051FC00219E
:10331000152004F04DFC1D491D4B012000220870B2
:103320001A6003B0F0BD01460446152004F040FCCD
:103330001849194A194B09680191D2F890001B6885
:103340000199134D034402268B422E6017D8D2F800
:10335000980008F06FFA124B196808F05DFC0746F8
:1033600068B921460B2004F023FC084A03233946A0
:103370000C2016702B6004F01BFC03B0F0BD012183
:103380000C2004F015FC03B0F0BD00BF7894FF1FC3
:10339000B094FF1FFCBFFF1F3093FF1FB894FF1FA7
:1033A0007092FF1FF0B5684E684D34682B689C42E0
:1033B00087B039D014F0010155D014F0020149D082
:1033C00014F004013DD0E3070ED52B68DF070BD4C2
:1033D0005F4F3A68002A00F082805E4B1B680193C1
:1033E000019B93426DD83468A0070DD52B689907CF
:1033F0000AD4594F3A68002A4CD0564B1B680393A5
:10340000039B934238D8346862070DD52B685B075D
:103410000BD4524F3A68002A7ED04E4B1B6805935E
:10342000059B934268D834680CB107B0F0BD2146C3
:10343000162004F03DFA2146172004F039FA07B0AF
:10344000F0BD052004F034FA2B68346803F0FB0368
:103450002B60B8E7172004F02BFA2B68346803F0D0
:10346000FD032B60ACE7162004F022FA2B683468C9
:1034700003F0FE032B60A0E7394B1720D3F894101C
:1034800004F016FA2B68346843F0020300222B6024
:103490003A60B9E7334805F06DFE0C21324805F07B
:1034A00077FC304805F066FEFF21172004F000FA93
:1034B000284B2E4A19680291029912680A443A6010
:1034C0009CE7274B1620D3F8941004F0F1F92B68F1
:1034D000346843F0010300222B603A6084E7FF2147
:1034E000162004F0E5F91B4B204A19680091009959
:1034F00012680A443A6071E7194B0520D3F894101A
:1035000004F0D6F92B68346843F0040300222B60E2
:103510003A60002C89D18AE7124805F02BFE0C2175
:10352000134805F035FC0F4805F024FEFF21052067
:1035300004F0BEF9074B0D4A19680491049912680A
:103540000A443A606AE700BFB094FF1FE893FF1F88
:103550006094FF1FFCBFFF1F6494FF1F6894FF1F50
:103560003093FF1FC087FF1FDC0701006887FF1F24
:10357000EC0701002DE9F8434B4DDFF8589128681E
:103580004A4E4B4F00220E2103F04AFB0123222119
:103590004848C9F8003005F0FBFB3368132B1EDCEC
:1035A00040F6E4480021286803F08CFB0021044623
:1035B000286803F00DFB3B88A4B2012108FB04F44A
:1035C000B4FBF0F43C481C443C8005F0E1FB642073
:1035D00004F02AFB33680133132B3360E2DD3B88B0
:1035E000364A3748A2FB03129B1A02EB5303C3F37C
:1035F0000F1319463B8005F00DFE1D213148324F57
:1036000005F0C6FB0221314805F0C2FB2C4805F04D
:10361000B1FD00231A460F212868336003F000FB38
:10362000022322212348C9F8003005F0B1FB33689A
:10363000132B1EDC40F6E4480021286803F042FB0F
:1036400000210446286803F0C3FA3B88A4B2012194
:1036500008FB04F4B4FBF0F417481C443C8005F06C
:1036600097FB642004F0E0FA33680133132B3360D6
:10367000E2DD3B88114A1248A2FB03129B1A02EBBF
:103680005303C3F30F1319463B8005F0C3FD1D21FF
:103690000F4805F07DFB02210C4805F079FB084836
:1036A000BDE8F84305F066BD8C94FF1F7494FF1FBE
:1036B0005087FF1FFC070100400801008761188642
:1036C000C087FF1F200801005287FF1F74110100EF
:1036D000440801006087FF1FF8B59C4C9C4F0826EA
:1036E00040F251332360386DE67108F0A3F8796930
:1036F000054608F0F3F8974908F0F0F808F0F0FAFA
:10370000954B964A1B681268A37281B241FA06FE75
:103710003341284642FA06F584F809E0E372227341
:1037200021726573B96908F0D9F88A4908F0D6F8AA
:1037300008F0D6FA83B243FA06F221468848A3730A
:10374000E27303F08FF8874B874A1B681288A272D6
:103750005FFA83FC40F255310CEB8C0E216043FA8A
:1037600006F103EB83034FEA4E0E3241002543F38B
:10377000D71361727A4884F808C0214684F80CE0B7
:10378000E2726373A573E573E67103F06BF840F2C0
:10379000563376482360E671FEF73EF8744908F028
:1037A0009DF808F09DFA20727048FEF735F87049D0
:1037B00008F094F808F094FA6E4A6D49C0F30723B4
:1037C0006372106808F03EF908F064FA40FA06F2F5
:1037D00003466648E272A372FEF74EF85D4908F0B0
:1037E0007DF808F07DFA20736048FEF745F85949E6
:1037F00008F074F808F074FA2146C0F3072358481B
:103800006373A573E57303F02DF8022004F00CFA3E
:10381000594B5348197893F801E0217240F25A321B
:10382000226021469A78DB7884F809E02573657375
:10383000A573E573A272E372E67103F013F84F4BC0
:1038400047481A785978227240F25E35DA78256056
:1038500061729D781979A572E2725D799A79217306
:10386000DB79A2732146E3736573E67102F0FAFF18
:10387000022004F0D9F9424B39481A78597822725B
:103880004FF45C75DA78256061729D781979A572BC
:10389000E2725D799A792173DB79E3732146E671EF
:1038A0006573A27302F0DEFF364B1B68012B00D05C
:1038B000F8BD2E48FDF766FFF96C07F007FF0546D7
:1038C0002A48FDF785FF0146284608F0A5F900289B
:1038D000EED040F2C3332548E6712360FDF752FF76
:1038E000BD6C294608F098F9D0B12749284607F061
:1038F000F5FF08F0F5F980B240FA06F36072237222
:103900000023012604250322A672E5722273637345
:10391000A373E3730D491248BDE8F84002F0A2BF5B
:103920001248FDF72FFF184907F0D8FF08F0D8F923
:10393000C0F307230D482372FDF724FF124907F057
:10394000CDFF08F0CDF96072DAE700BFA094FF1F49
:103950003093FF1F000020414892FF1F8494FF1FF7
:1039600054BEFF1F3887FF1F3C87FF1FC094FF1FF7
:103970000000C8427092FF1F2C93FF1F2C87FF1F6F
:103980005487FF1F9494FF1F00007A44F0B5984CB1
:10399000984D83B005F096F923682860042B00F059
:1039A000A482022B4BD0082B00F09280072B40F012
:1039B0004981332801F02E8300F3A680312801F0DD
:1039C0003C83322840F0A98005F0B8F9002840F384
:1039D00037818948894E05F061FD07F02BFF884942
:1039E00007F07CFF61230122F06322602B60184600
:1039F000A0F152031F2B01F2EB82DFE813F02A0A39
:103A0000E90AE90AE90AE90AE90AE90AE90AE90A1E
:103A1000E90AE90AE90AE90AE90AE90ABB09320CF2
:103A20003E0AEF086108E90AE90AE90A1908E90A01
:103A30002F0CE90AE90AE90AE90AE90A2C0AA0F1C5
:103A40003102422A69D8DFE812F0480454046204C3
:103A50006F048204910468006800680068006800D0
:103A60006800680068006800680068006800680016
:103A70006800680068006800680068006800680006
:103A800068006800680068006800680068006800F6
:103A900068006800680068006800680068006800E6
:103AA0006800680068006800680068006800350405
:103AB00068006800680068006800680068006800C6
:103AC00068006800680068006800640068003B04E3
:103AD000322800F01F8371281BD031281DD105F03A
:103AE0002DF9002840F3A4834348444E05F0D6FC4A
:103AF000C0B286F8400002288ABF0021014686F83D
:103B00004010726C3F4819E3342801F0718271282B
:103B100003D10023732023602860002B08BF732883
:103B20000CBF01200020002860D0334805F022FBA4
:103B30000421354805F02CF92F4805F01BFB102116
:103B4000324805F025F92C4805F014FB13213048C4
:103B500005F01EF92F4B2848196805F05BFB264835
:103B600005F008FB14212C4805F012F9224805F055
:103B700001FB1E21294805F00BF91F4805F0FAFA50
:103B80001521274805F004F91B4805F0F3FA1E211A
:103B9000244805F0FDF8184805F0ECFA20212248E9
:103BA00005F0F6F8144805F0E5FA19211F4805F06C
:103BB000EFF8114805F0DEFA12211D4805F0E8F88B
:103BC0000D4805F0D7FA0F211A4805F0E1F80A4828
:103BD00005F0D0FA0D21184805F0DAF8064805F08E
:103BE000C9FA164A002101231160236003B0F0BD19
:103BF000BC94FF1F6C92FF1FC087FF1F3093FF1FF5
:103C00006F12833AC094FF1FF00F0100F80F0100FC
:103C10000C1001002487FF1F201001003810010044
:103C2000581001007010010090100100B410010044
:103C3000D0100100E4100100F41001006C87FF1F98
:103C400023682868062B40F08D80A0F13102402ABD
:103C50003FF663AF01A151F822F000BF4B410000D5
:103C6000994100007541000003420000C34100007B
:103C7000DF4100001B3B00001B3B00001B3B000022
:103C80001B3B00001B3B00001B3B00001B3B0000DC
:103C90001B3B00001B3B00001B3B00001B3B0000CC
:103CA0001B3B00001B3B00001B3B00001B3B0000BC
:103CB0001B3B00001B3B00001B3B00001B3B0000AC
:103CC0001B3B00001B3B00001B3B00001B3B00009C
:103CD0001B3B00001B3B00001B3B00001B3B00008C
:103CE0001B3B00001B3B00001B3B00001B3B00007C
:103CF0001B3B00001B3B00001B3B00001B3B00006C
:103D00001B3B00001B3B00001B3B00001B3B00005B
:103D10001B3B00001B3B00001B3B00001B3B00004B
:103D20001B3B00001B3B00001B3B00001B3B00003B
:103D30001B3B00001B3B00001B3B00001B3B00002B
:103D40001B3B00001B3B00001B3B00001B3B00001B
:103D50001B3B00001B3B00001B3B0000133B000013
:103D600023682868052B15D1332801F0EB8140F337
:103D70004781352801F0D881C1F2C08171287FF4D4
:103D8000CCAED84A00237320136023602860C4E6B9
:103D900023682868032B40F0A480A0F13002422A57
:103DA0003FF6BBAE01A151F822F000BFB93E0000C2
:103DB00085480000AD480000F147000013480000AE
:103DC000354800005D480000D5480000F348000079
:103DD000174900001B3B00001B3B00001B3B000081
:103DE0001B3B00001B3B00001B3B00001B3B00007B
:103DF0001B3B00001B3B00001B3B00001B3B00006B
:103E00001B3B00001B3B00001B3B00001B3B00005A
:103E10001B3B00001B3B00001B3B00001B3B00004A
:103E20001B3B00001B3B00001B3B00001B3B00003A
:103E30001B3B00001B3B00001B3B00001B3B00002A
:103E40001B3B00001B3B00001B3B00001B3B00001A
:103E50001B3B00001B3B00001B3B00001B3B00000A
:103E60001B3B00001B3B00001B3B00001B3B0000FA
:103E70003F490000E1430000994900005D4900000E
:103E80007B490000B7490000BD4300001B3B000018
:103E90001B3B00001B3B00001B3B00001B3B0000CA
:103EA0001B3B00001B3B00001B3B00001B3B0000BA
:103EB000F7490000BB47000004F040FF002841F331
:103EC00090808948894E05F0E9FA012703460146AA
:103ED00062228748736527602A60FDF79FFC23688C
:103EE0002868012B7FF419AE82E5A0F13102402A47
:103EF0003FF613AE01A151F822F000BF5F4200006F
:103F0000B142000039420000774200007B420000CD
:103F100097420000A9420000AD4200001B3B000098
:103F20001B3B00001B3B00001B3B00001B3B000039
:103F30001B3B00001B3B00001B3B00001B3B000029
:103F40001B3B00001B3B00001B3B00001B3B000019
:103F50001B3B00001B3B00001B3B00001B3B000009
:103F60001B3B00001B3B00001B3B00001B3B0000F9
:103F70001B3B00001B3B00001B3B00001B3B0000E9
:103F80001B3B00001B3B00001B3B00001B3B0000D9
:103F90001B3B00001B3B00001B3B00001B3B0000C9
:103FA0001B3B00001B3B00001B3B00001B3B0000B9
:103FB0001B3B00001B3B00001B3B00001B3B0000A9
:103FC0001B3B00001B3B00001B3B00001B3B000099
:103FD0001B3B00001B3B00001B3B00001B3B000089
:103FE0001B3B00001B3B00001B3B00001B3B000079
:103FF0001B3B00001B3B00001B3B0000133B000071
:10400000312801F0308032287FF487AD04F096FE2D
:1040100000287FF7BDAE3448344E05F03FFA012248
:104020006B23C6F8980022602B602F4805F0A2F899
:104030002D4805F09FF82C4805F09CF82A4805F01B
:1040400099F8294805F096F821212A4804F0A0FEA5
:10405000254805F08FF81521274804F099FED6F879
:104060009010214805F0D6F80221244804F090FE73
:104070001D4805F07FF81E21214804F089FED6F87E
:104080009810194805F0C6F803211E4804F080FE78
:10409000154805F06FF81E211B4804F079FED6F88C
:1040A0009410114805F0B6F80F4805F063F81D218B
:1040B000164804F06DFED6F8A0100B4805F0AAF8DB
:1040C000094805F057F81E21114804F061FED6F8A2
:1040D000A410054805F09EF8034805F04BF80523A9
:1040E000236083E56C94FF1FC087FF1F3093FF1F81
:1040F000C094FF1FB00A0100D40A0100080A0100A1
:10410000EC0A0100280701000C0B01002C0B010038
:104110004C0B010004F012FE002840F385809A4801
:104120009A4E05F0BBF907F085FB994907F0D6FBDD
:1041300096F840100346024696487364FDF770FBFC
:10414000012369202360286052E404F0F7FD002871
:104150007FF706AE8C488D4E05F0A0F907F06AFB9C
:104160008D4907F06FFC65230122706122602B608E
:1041700018463DE404F0E2FD00287FF7F1AD8248E7
:10418000824E05F08BF900EB800043000122652090
:10419000F365226028602BE404F0D0FD00287FF74F
:1041A000DFAD7948794E05F079F907F043FB7A499C
:1041B00007F048FC65230122F06122602B6018465D
:1041C00016E4724AD2F8AC300133052BC8BF002385
:1041D000C2F8AC30652001232360286008E404F0B5
:1041E000ADFD00287FF7BCAD6748684E05F056F975
:1041F00065230122C6F8B00022602B601846FFF745
:10420000F7BB04F09BFD00287FF7AAAD5E485F4E28
:1042100005F044F900EB800043000122652033667D
:1042200022602860FFF7E4BB23682868FFF7BEBB65
:10423000564E96F840005EE4584A594F1368002BDA
:104240000CBF012300234FF001001360206040F0F9
:10425000B987034664222A606420FFF7A4BB514A51
:104260001368B3FA83F35B090121642013602160B2
:104270002860FFF7BDBB4C4AF2E7444ED6F89C30AD
:10428000B3FA83F35B0901226420C6F89C302260F4
:104290002860FFF7ADBB01233E482360FDF752F9CC
:1042A000424A23681060D5E7414AD9E7414AD7E737
:1042B000414AD5E7FFF75EF923682868FFF773BB2B
:1042C000324AD36F0133032BC8BF0023D3670123C6
:1042D000632023602860FFF78BBB2C4EB36FB3FACB
:1042E00083F35B0901226320B36722602860FFF734
:1042F0007FBB264ED6F88030B3FA83F35B090122E8
:104300006320C6F8803022602860FFF771BB01236C
:10431000236004F013FD0028D9DD1B481B4E05F077
:10432000BDF8C6F8A800D2E70123236004F006FD1B
:10433000002807DD1448154E05F0B0F807F07AFAAA
:10434000C6F88C00632028602368FFF72FBB012389
:10435000236004F0F3FC0028F4DD0B480B4E05F05D
:104360009DF807F067FAC6F88800EBE701232360A1
:1043700004F0E4FC0028E5DD0348044E05F08EF867
:10438000A6F8B600DEE700BFC087FF1F3093FF1F0F
:104390006F12833AC094FF1F00007A449C94FF1F61
:1043A000BC94FF1F5C94FF1F9094FF1F7094FF1F2D
:1043B0006C94FF1F6892FF1FB494FF1F04F0BEFCB3
:1043C00000280DDDC148C24E05F068F807F032FA4A
:1043D000C04907F037FB01226223306222602B6064
:1043E00004F0ACFC002840F3FC85B848B84E05F05A
:1043F00055F801226223B06622602B60B34804F0B6
:10440000B9FEB24804F0B6FEB04804F0B3FEAF48BF
:1044100004F0B0FEAD4804F0ADFE1521AE4804F046
:10442000B7FCAA4804F0A6FE1421AC4804F0B0FC86
:10443000A64804F09FFE1B21A94804F0A9FCA3484C
:1044400004F098FE1321A74804F0A2FC9F4804F052
:1044500091FE9E4804F08EFE9C4804F08BFE2021C5
:10446000A14804F095FCF0689A4907F037FA06F085
:104470008BFD002702460B460097944804F0D4FEBB
:1044800002219A4804F084FC0221994804F080FC3F
:104490008E4804F06FFE2121964804F079FC3069C3
:1044A0008C4907F01BFA06F06FFD009702460B4699
:1044B000864804F0B9FE02218C4804F069FC022110
:1044C0008B4804F065FC814804F054FE1F218A48A3
:1044D00004F05EFCB06A06F057FD022502460B466A
:1044E00000957A4804F0A0FE0121844804F050FCB5
:1044F00029467F4804F04CFC744804F03BFE202120
:104500007F4804F045FCF06A06F03EFD0095024647
:104510000B466E4804F088FE0121784804F038FC10
:104520002946734804F034FC684804F023FE232134
:10453000744804F02DFCB06C664907F0CFF906F022
:1045400023FD009702460B46604804F06DFE2946A5
:10455000664804F01DFC2946654804F019FC5B48D8
:1045600004F008FE1F21684804F012FCF06C594961
:1045700007F0B4F906F008FD009702460B465348D1
:1045800004F052FE2946594804F002FC29465848D6
:1045900004F0FEFB4D4804F0EDFD19215B4804F0EA
:1045A000F7FBB16D494804F035FE2946584804F040
:1045B000EFFB29464E4804F0EBFB444804F0DAFDDB
:1045C0001821544804F0E4FB706E07F033F95249A7
:1045D00007F084F906F0D8FC009502460B463B48EC
:1045E00004F022FE01214D4804F0D2FB2946404848
:1045F00004F0CEFB354804F0BDFD2B21484804F003
:10460000C7FBB069334907F069F906F0BDFC0097B4
:1046100002460B462D4804F007FE2946334804F0B5
:10462000B7FB2946324804F0B3FB284804F0A2FD4A
:104630001F213C4804F0ACFB716D244804F0EAFDF6
:1046400029462B4804F0A4FB204804F093FD2021C8
:10465000354804F09DFB316D1C4804F0DBFD294614
:10466000234804F095FB194804F084FD10212F48DD
:1046700004F08EFBB16E154804F0CCFD29461B48B2
:1046800004F086FB29461A4804F082FB0F4804F028
:1046900071FD1321264804F07BFBF16E0B4804F0FA
:1046A000B9FD0121234804F073FB2946104804F0AA
:1046B0006FFB064804F05EFD10211F4804F068FB04
:1046C000316F024804F0A6FD294637E0C087FF1F7E
:1046D0003093FF1F00007A44B80D0100D00D010097
:1046E000E80D0100E0080100040E0100DC080100F3
:1046F00074110100280E01004C0E01000C04010091
:104700006C0E0100900E0100B40E0100D40E0100E9
:10471000F00E0100F40E0100CDCCCC3D700D010077
:10472000100F01003C0F01005C0F0100800F010021
:10473000940F0100A80F0100AC0F0100B14804F074
:1047400027FB2946B04804F023FBB04804F012FDD3
:104750001421AF4804F01CFB716FAC4804F05AFD03
:104760000121AC4804F014FB2946A74804F010FBD3
:10477000A64804F0FFFC1621A74804F009FB306AA4
:10478000A64907F0ABF806F0FFFB00970B46024680
:104790009E4804F049FD29469A4804F0F9FA294652
:1047A000994804F0F5FA994804F0E4FC974804F0BD
:1047B000E1FC03232360FFF719BA994B9248994E05
:1047C000002202211A6004F0E3FA904804F0D2FCBF
:1047D0000B21954804F0DCFA02218B4804F0D8FA4A
:1047E0008A4804F0C7FC0122622322602B6005E6A0
:1047F00004F0A4FA002840F3F4838448894E04F0BE
:104800004DFE07F017F801226223B06222602B6090
:10481000F4E504F093FA002840F3E3837B48814EEB
:1048200004F03CFE07F006F801226223F0622260E9
:104830002B60E3E504F082FA002840F3D28373484A
:10484000784E04F02BFE06F0F5FF744907F0FAF8F5
:1048500001226223B06422602B60CFE504F06EFA7F
:10486000002840F3BE8369486E4E04F017FE06F040
:10487000E1FF6A4907F0E6F801226223F064226052
:104880002B60BBE504F05AFA002840F3AA835F4886
:10489000644E04F003FE06F0CDFF604907F0D2F845
:1048A00001226223F06022602B60A7E504F046FA43
:1048B000002840F3968355485A4E04F0EFFD06F069
:1048C000B9FF564907F0BEF8012262233061226029
:1048D0002B6093E504F032FA002840F382834B48C2
:1048E000504E04F0DBFD01226223B06522602B6094
:1048F00084E504F023FA002840F373834348494ECB
:1049000004F0CCFD00EB80004300012162227366BD
:1049100021602A6072E504F011FA002840F36183F7
:104920003A48404E04F0BAFD06F084FF3B4907F0D8
:1049300089F801226223B06122602B605EE504F0F9
:10494000FDF9002840F34D833048364E04F0A6FDB3
:1049500001226223306522602B604FE504F0EEF9FE
:10496000002840F33E8329482E4E04F097FD012293
:104970006223306722602B6040E504F0DFF90028F5
:1049800040F32F832148274E04F088FD0122622343
:10499000706722602B6031E504F0D0F9002840F305
:1049A00020831A481F4E04F079FD01226223F0662D
:1049B00022602B6022E5FDF791FA02211248194E80
:1049C00004F0E6F9114804F0D5FB02210E4804F08A
:1049D000DFF90E4804F0CEFB02210B4804F0D8F9B1
:1049E0000A4804F0C7FB1721104804F0D1F9074822
:1049F00004F0C0FBF0E60022732322602B60FFF777
:104A000094B800BFDC08010074110100C087FF1FCB
:104A1000C00F0100A80F0100D80F010000007A4468
:104A20005892FF1F3093FF1F880801007008010093
:104A3000AF48B04D04F09EFBAD4804F09BFBAC4882
:104A400004F098FBAA4804F095FBA94804F092FBF7
:104A50001521A94804F09CF9A54804F08BFB182106
:104A6000A64804F095F900230A2295F84010A048C2
:104A700004F090FB9E4804F07DFB2821A04804F040
:104A800087F9686C9F4906F029FF06F07DFA00253A
:104A90000B4602460095964804F0C6FB02219A4850
:104AA00004F076F9924804F065FB1321974804F06E
:104AB0006FF98F4804F05EFB08232360FFF796B878
:104AC0008B488C4E04F056FB894804F053FB884811
:104AD00004F050FB864804F04DFB854804F04AFB87
:104AE00011218B4804F054F9814804F043FB28213C
:104AF000884804F04DF97069824906F0EFFE06F02F
:104B000043FA002502460B460095794804F08CFBD9
:104B100002217D4804F03CF9754804F02BFB162176
:104B20007D4804F035F9F069764906F0D7FE06F0C5
:104B30002BFA00950B4602466D4804F075FB0221E6
:104B4000714804F025F96A4804F014FBD6F8AC303B
:104B5000AB4232DD1D21714804F01AF9F06D06F008
:104B600069FE6F4906F0BAFE06F00EFA022502460B
:104B70000B4600955E4804F057FB0121694804F09C
:104B800007F95B4804F0F6FA1F21674804F000F9C2
:104B9000306E06F04FFE624906F0A0FE06F0F4F912
:104BA000009502460B46524804F03EFB01215D4849
:104BB00004F0EEF84E4804F0DDFA11215B4804F0F1
:104BC000E7F8D6F8AC30052B00F2C381DFE813F02C
:104BD000F601FB01F101EC01E701BD01444804F0DD
:104BE000C9FA434804F0C6FA414804F0C3FA404801
:104BF00004F0C0FA3E4804F0BDFA13214C4804F01A
:104C0000C7F83B4804F0B6FA0D214A4804F0C0F852
:104C1000374804F0AFFA0F21474804F0B9F8474B82
:104C20003348196804F0F6FA314804F0A3FA132166
:104C3000434804F0ADF8434B2D48196804F0EAFAF4
:104C40002B4804F097FA12213F4804F0A1F83F4B9B
:104C50002748196804F0DEFA254804F08BFA112180
:104C60003B4804F095F83B4B2148196804F0D2FA10
:104C70001F4804F07FFA0E21374804F089F81D4BD5
:104C80001B48D3F89C1004F0C5FA194804F072FAD6
:104C90001921324804F07CF8314B1548196804F0AA
:104CA000B9FA134804F066FA11212E4804F070F89E
:104CB0002D4B0F48196804F0ADFA0D4804F05AFA6C
:104CC00010212A4804F064F8294B0948196804F0B7
:104CD000A1FA074804F04EFA13210C4804F058F8E2
:104CE000034804F047FA04232360FEF77FBF00BFA8
:104CF000C087FF1F3093FF1FB81001009408010008
:104D0000B008010000007A44DC080100E00801005E
:104D10005C100100F40801002009010038090100BD
:104D2000CDCCCC3D700D010058090100780901007F
:104D30006C0B0100800B0100900B01005C94FF1FC5
:104D4000A00B0100B494FF1FB40B01009C94FF1F43
:104D5000C80B01009094FF1FDC0B0100EC0B01005D
:104D60007094FF1F080C01006C94FF1F1C0C0100C5
:104D70006892FF1FC448C54D04F0FCF9C24804F016
:104D8000F9F9C14804F0F6F9BF4804F0F3F9BE4858
:104D900004F0F0F91F21BE4803F0FAFFBA4804F00E
:104DA000E9F91C21BB4803F0F3FF686ABA4906F031
:104DB00095FD06F0E9F8002602460B460096B2483B
:104DC00004F032FA0221B54803F0E2FFAE4804F0E5
:104DD000D1F92321B24803F0DBFFE86BAE4906F0BE
:104DE0007DFD06F0D1F8009602460B46A64804F079
:104DF0001BFA0221A94803F0CBFFA34804F0BAF93B
:104E00001921A84803F0C4FFA86B06F0BDF80226DC
:104E10000B46024600969C4804F006FA3146A2482A
:104E200003F0B6FF984804F0A5F919219F4803F054
:104E3000AFFFB5F8B410944804F0ECF903219C4896
:104E400003F0A6FF904804F095F907232360FEF7CE
:104E5000CDBE03F067FAB82200218C4802F0DCFBDB
:104E60002868944AA0F1730001210023B0FA80F071
:104E7000400911602360FEF756BE8348834E04F05C
:104E800079F9814804F076F97F4804F073F97E4897
:104E900004F070F97C4804F06DF91F21864803F096
:104EA00077FF794804F066F91E21844803F070FF0B
:104EB000754804F05FF91A21814803F069FFF36F28
:104EC000022B00F09D81032B00F09281012B00F05A
:104ED0009F8109217B4803F05BFF6B4804F04AF98E
:104EE00014217948694F03F053FFB16F664804F00D
:104EF00091F9654804F03EF91C21744803F048FF1D
:104F0000D6F88010604804F085F95F4804F032F963
:104F10001C216F4803F03CFFD6F8A8105A4804F053
:104F200079F9594804F026F9F56F25F00205012DAD
:104F300000F019811321674803F02AFF524804F05A
:104F400019F902232360FEF751BE0F21624803F0D6
:104F50001FFF4D484D4D04F00DF9D6F8AC30002B35
:104F60000FDD18215D4803F013FFD5F8B010464857
:104F700004F050F902215A4803F00AFF424804F0B5
:104F8000F9F8414804F0F6F81321524803F000FF05
:104F90003D4804F0EFF806232360FEF727BE0D21FD
:104FA000504803F0F5FED4E70D214F4803F0F0FE22
:104FB000CFE70C214D4803F0EBFECAE70D214C482A
:104FC00003F0E6FEC5E70C214A4803F0E1FEC0E726
:104FD0002368002B08BF73280CBF01200020FEF7B8
:104FE000A2BD23682868012B7EF497ADFEF700BDB3
:104FF00003F0A4FE00287EF723AE2348234E04F0DE
:105000004DFA61230122A6F8B40022602B601846F5
:10501000FEF7EEBC03F092FE00287EF711AE1A48B0
:105020001A4E04F03BFA06F005FC61230122B0633E
:1050300022602B601846FEF7DBBC03F07FFE0028E1
:105040007EF7FEAD1048114E04F028FA06F0F2FB90
:10505000294906F043FC61230122706222602B6023
:105060001846FEF7C5BC03F069FE00287EF790AE37
:105070000548064E04F012FA01226B23C6F8900090
:1050800022602B60FEF7D1BFC087FF1F3093FF1F48
:105090000C0A01002C0A010000007A44DC0801001F
:1050A0004C0A0100700A01008C0A0100900A0100FC
:1050B000AC0A01006C87FF1F300C0100500C01008E
:1050C000700C0100E80C0100F40C01000C0D010053
:1050D0002C0D0100E0080100DC090100EC090100D1
:1050E000080A0100CC090100BC090100AC0901005B
:1050F0008C0901009C0901006F12833A03F01EFE27
:1051000000287EF745AE5848584E04F0C7F9584B72
:10511000C6F8A00002221A60FDF70EFA01226B23E6
:1051200022602B60FEF781BF03F008FE00287EF7A7
:105130002FAE4D484D4E04F0B1F94D4BC6F8A400CA
:105140000322E8E703F0FAFD00287EF721AE464887
:10515000464E04F0A3F901226B23C6F894002260A6
:105160002B60FEF762BF1C21424803F011FED7F806
:105170008C00414906F0B2FB05F006FF009502469F
:105180000B46394804F050F805213C4803F000FE76
:10519000354803F0EFFFFD6F012D41D0032D7FF463
:1051A000C9AE1C21364803F0F3FDB6F8B6102E4800
:1051B00004F030F80321334803F0EAFD2A4803F0F5
:1051C000D9FFB7E6304B002631460B201E6002F0B7
:1051D000EFFC31460C2002F0EBFC3146142002F0CB
:1051E000E7FC3146152002F0E3FC3B68FFF732B8DC
:1051F0002021264803F0CCFD1B4803F0BBFF6FE6DF
:105200001721234803F0C4FD174803F0B3FF67E6F6
:105210001E21204803F0BCFD134803F0ABFF5FE6FE
:105220001D211D4803F0B4FDD7F88800124906F08F
:1052300055FB05F0A9FE00950B4602460A4803F00F
:10524000F3FF05210D4803F0A3FD074803F092FF8B
:10525000FB6F23F00203012BA3D06BE6034EFEF796
:10526000E4BE024EFFF7CAB8C087FF1F3093FF1F8E
:105270006C94FF1F4C0D0100CDCCCC3D6C0D01009A
:10528000940D0100B40D0100B094FF1FAC0C01009F
:10529000D00C01008C0C0100740D010038B5164CC7
:1052A000164A2368101D12F8011F904241EA032399
:1052B000F9D12360124C03F100432360114BDB6FE3
:1052C000022B11D0104B1B68012B00D038BD0F48AA
:1052D00003F050FF21680D4803F09CFF03210C48A8
:1052E000BDE8384003F054BD20680A4D06F0A2FA2C
:1052F0002860FDF7B9FBE5E74092FF1F7F92FF1F93
:105300008094FF1F3093FF1F5C94FF1FC087FF1F17
:10531000041101006092FF1F30B53F4C3F4883B03D
:10532000214601F097F9236840F2C232934258D0E7
:105330006FF4C0615A18B2F5FF7F4CD903F10043F6
:105340006FF4C0621344B3F5FF7F3FD9344B1B6841
:10535000012B01D003B030BD324B1B68012BF9D1BA
:10536000314B32481B6801930A220023019903F054
:1053700011FF2268284B002ADB7945DB2C492D4898
:1053800007F08AFA2B4807F0BBFA0146294803F0D8
:10539000FFFC2568204B15F0804526D1DB798BB1C9
:1053A000631925491A7A234807F076FA214807F04D
:1053B000A7FA01461F4803F0EBFC0135E379EDB293
:1053C000AB42EDD8194803F0D5FEC3E712491B489C
:1053D000FCF7E0F8BAE710491848FCF7DBF8236857
:1053E000ACE7FFF75BFF2368A2E7154D114C0FCD2B
:1053F0000FC495E8030044F8040B204620F8141964
:10540000152103F0C5FCDDE70E490A4822F0604291
:1054100007F042FAB6E700BF7892FF1F54BEFF1FA5
:105420006C87FF1F5C94FF1FFCBFFF1FC087FF1F1F
:10543000301101008892FF1F5C110100C094FF1F12
:1054400044110100081101002DE9F84F7E4B7F4CFB
:105450001B78052B08D07E48FCF70EFAE16A06F0AF
:10546000DBFB002800F081807A4E7B4D0023336007
:105470002B607A4B76481B68744F012B33D0FCF7B6
:10548000A7F9E1698046606906F01EF901464046C9
:1054900006F0E0FB00283AD16D48FCF799F9E16885
:1054A00006F0D8FB08B100232B606948674FFCF772
:1054B00069F9216906F0B0FB48B1002333602B681D
:1054C000654A002BBCBF00231360BDE8F88F60481D
:1054D000FCF758F9B96906F09FFB0028EDD1336855
:1054E000002BEADBEBE7FCF773F9E1698046206A01
:1054F00006F0EAF80146404606F0ACFB0028CBD0A7
:105500005348FCF765F9D7F82090834605E05048EA
:10551000FCF75EF9D7F814908346F969484606F01F
:10552000D3F88246F86D06F085F98046386E06F0AD
:1055300081F9414606F0C8F851460746584606F03C
:10554000C3F80146384606F0C9F9514607464846B1
:1055500006F0BAF80146384606F074FA414606F0FD
:10556000B5F806F097FB286096E73948FCF784F910
:10557000216B06F051FB20B3364E636E3448336026
:10558000FCF77AF98146E06DE76A334D06F052F98F
:1055900039468046484606F097F80146404606F0F0
:1055A0009DF939468046206B06F08EF8014640464C
:1055B00006F048FA002106F089F806F06BFB286037
:1055C00057E72348FCF758F9616B06F025FB30B12B
:1055D000204E214D626EE36D32602B6049E71C481E
:1055E000FCF74AF9A16A06F017FB00283FF43CAF2C
:1055F0001748184E184DFCF73FF98146606ED4F8F5
:10560000348006F017F941460746484606F05CF834
:1056100039468146002006F057F80146484606F014
:105620005DF941468146A06A06F04EF801464846BB
:1056300006F008FA394606F049F806F02BFBE36D50
:1056400030602B6015E700BF7894FF1F3093FF1F79
:10565000C094FF1F8494FF1F4892FF1F6492FF1F96
:1056600008B5274803F086FD0721264803F090FB84
:10567000112002F0A3FA0621F8B1234803F088FBB9
:10568000122002F09BFA062100B3204803F080FBB1
:10569000122002F093FA062108B31D4803F078FBAC
:1056A000132002F08BFA062110BB1A4803F070FB9E
:1056B0001348BDE8084003F05DBD174803F068FBE0
:1056C000122002F07BFA06210028DED1134803F0F5
:1056D0005FFB122002F072FA06210028DDD110488B
:1056E00003F056FB132002F069FA06210028DCD0F3
:1056F0000C4803F04DFB0248BDE8084003F03ABDFA
:10570000C087FF1F681101007011010080110100A6
:1057100090110100A8110100781101008811010009
:1057200098110100A011010010B5254C2368042B2D
:1057300027DC01210B2002F03BFA01210C2002F0B2
:1057400037FA0121142002F033FA0121152002F06A
:105750002FFAFF21162002F0ABF8FF21172002F0EC
:10576000A7F8FF21052002F0A3F8FF21062002F090
:105770009FF8236801330A2B2360C4BF00232360F2
:1057800010BD00210B2002F013FA00210C2002F0C2
:105790000FFA0021142002F00BFA0021152002F06C
:1057A00007FA0021162002F083F80021172002F0EA
:1057B0007FF80021052002F07BF80021D6E700BF2A
:1057C0009894FF1F2DE9F0418B4DD5F8AC30042B98
:1057D0003ED0032B6ED0012B00F09880022B01D01D
:1057E000BDE8F081854C8648237240F20E320123D9
:1057F00021462260E37101F035F8824B1B685B00A3
:10580000FF2BC8BFFF23042140224FF441702060CA
:10581000E17122726372286D06F00CF8696906F076
:105820005DF87949054606F015FA002800F0DA809F
:105830002946284605F04AFF06F052FA80B20312C4
:10584000E072A3726D496E48BDE8F04101F00AB8FC
:105850006A4C6E4AA379226043F001030822E27188
:10586000A371286D05F0E6FF696906F037F868490D
:1058700006F034F806F034FA624B664A1B68126888
:1058800093FBF2F380B200261A12071260722146CF
:105890005B48E372A272277226736673A673E6737F
:1058A00000F0E0FFA279D5F8AC3066F30002032BDC
:1058B000A27190D1514C286DA3720122E8230721D7
:1058C00040F2FF26227263722660E17105F0B2FF9A
:1058D000696906F003F84E4906F000F806F000FA90
:1058E000484B4C4A1B68126893FBF2F382B21E12BB
:1058F0001712214642486373E2722773A67300F0C1
:10590000B1FFD5F8AC30012B7FF468AF424B3B4C74
:105910001B682360072280231020E271237202F0AB
:105920004DF9002865D13D4B1B68DFF8D880394F11
:10593000286D324E03EB83035B001A12A37262726E
:10594000D8F800303A6893FBF2F31A126273A3732B
:1059500005F070FF696905F0C1FF314B196805F06A
:10596000B3FE2B4905F0BAFF06F0BAF980B2031274
:10597000314620732248E37200F074FF022002F0E7
:1059800053F9284B1B682360072280231020E27103
:10599000237202F013F950BB204B1B68286D03EBF8
:1059A00083035B001A12B372727205F043FF6969D8
:1059B00005F094FF164905F091FF06F091F982B2C7
:1059C00016123868D8F80030227393FBF0F30B49B5
:1059D0000B48A3731A12E672627300F043FFD5F806
:1059E000AC30FBE601229023A272E3722AE70E4B51
:1059F000D3E70D4B98E700BF3093FF1FA094FF1F24
:105A000054BEFF1F4892FF1F00004843F4E50618EC
:105A1000000020414C87FF1F6487FF1F4487FF1F42
:105A20005C87FF1F3487FF1F4887FF1F2DE9F04762
:105A30008EB001E0FFF770FCA44800F0D5FD00280F
:105A4000F8D103F07BF9002801DDFDF79FFFA04EA0
:105A5000A04D3368012B13D0FDF7A4FCD5F89C4072
:105A6000012C00F057819C4F3B78052B00F297806A
:105A7000DFE813F0BB0097000701DF00240183007B
:105A8000964C2368964A0793079B1168934F5B1ABD
:105A9000B3F5FA7F1FD823680C930C9B914A2368B7
:105AA0000B930B9B1068D5F8B0108A4C8B4D1B1ACA
:105AB0008B420DD92B680D93D4F89C300D99116051
:105AC000012B00F09381844B1B78032B00F08E8117
:105AD0000EB0BDE8F0873B680893089B82481360CE
