:1000000000800020BD0100008991000041910000A6
:100010004191000041910000419100004191000098
:100020004191000041910000419100008991000040
:1000300089910000419100009D870000A188000087
:100040008991000089910000899100008991000048
:100050008991000089910000899100008991000038
:100060008991000089910000899100008991000028
:100070008991000089910000899100008991000018
:100080008991000089910000899100008991000008
:1000900089910000899100008991000089910000F8
:1000A00089910000899100008991000089910000E8
:1000B00089910000097D0000157D0000197D000078
:1000C000257D0000297D00002D7D00008991000024
:1000D00089910000899100008991000089910000B8
:1000E00089910000899100008991000089910000A8
:1000F000899100001DB40000899100007D9E0000E0
:100100008991000095A1000089910000899100006B
:100110008991000089910000899100008991000077
:100120008991000089910000899100008991000067
:100130008991000089910000899100008991000057
:100140008991000089910000899100008991000047
:100150008991000089910000899100008991000037
:100160008991000025A40000899100008991000078
:100170008991000089910000899100008991000017
:100180008991000089910000899100008991000007
:1001900089910000899100008991000089910000F7
:1001A00089910000899100008991000089910000E7
:1001B000899100008991000089910000564B4CF212
:1001C000205210B51A804DF628121A8000BF00BFC9
:1001D00008F0DEFF514B4FF010621A60504A9A60EF
:1001E000504ADA60504A136813F4807304D14F49BF
:1001F0000B604FF4A85313604D4B1A78110703D5C9
:100200001A7842F008021A704A4B4B492A221A7097
:100210004A4A4B4B8B4204D252F8040F43F8040B6A
:10022000F8E7484B484900228B4202D243F8042B9E
:10023000FAE74649464A002352F8230041F82300D2
:1002400001336F2BF8D1434B434A802103F8011B44
:100250009342FBD1414B3D4A1A60414B8A221A70AE
:10026000A3F5805324225A70A0221A709A7992071B
:10027000FCD59A79D406FCD43A4A937903F00C035E
:10028000082B384BF9D103221A7140225A719A79FE
:100290009006FCD5334A9179324B4906FBD5324A58
:1002A000324911600221516020221A709A7902F0BD
:1002B0000C020C2AFAD12E4B2E4A1A602E4B2F4AD2
:1002C0001A6000225A60072243F8042C2C4AC3F813
:1002D0000C2D62B609F03CFA144B1B68DA0705D501
:1002E000284809F019F8284B284A1A60284B1B782F
:1002F0005B0609D5244C254B22689A4204D121483B
:1003000009F00AF8002323600DF088FB08F046FF8F
:1003100008F074FEFEE700BF0E2005403080044068
:10032000823F04000100002B10D0034014D0034092
:1003300002D0074000E007402892FF1F3438010038
:100340002087FF1F2892FF1FB8C7FF1F0082FF1FD3
:100350000000000000E400E05FE400E008ED00E0E1
:100360000050064000400640448004400000030165
:1003700004800440C010050014E000E0FF76010096
:1003800000002020C81EDC5D1CE00340A5C3945A79
:1003900000F00740FFFFFFFFFFFFFFFFFFFFFFFF32
:1003A000FFFFFFFFFFFFFFFFFFFFFFFFFFFFFFFF5D
:1003B000FFFFFFFFFFFFFFFFFFFFFFFFFFFFFFFF4D
:1003C000FFFFFFFFFFFFFFFFFFFFFFFFFFFFFFFF3D
:1003D000FFFFFFFFFFFFFFFFFFFFFFFFFFFFFFFF2D
:1003E000FFFFFFFFFFFFFFFFFFFFFFFFFFFFFFFF1D
:1003F000FFFFFFFFFFFFFFFFFFFFFFFFFFFFFFFF0D
:10040000FFFFFFFFFFFFFFFFFFFFFFFFDEF9FFFF23
:1004100010B5054C237833B9044B13B10448AFF33E
:1004200000800123237010BD2892FF1F00000000F0
:1004300030380100084B10B51BB108490848AFF32C
:1004400000800848036803B910BD074B002BFBD0A0
:10045000BDE81040184700BF000000002C92FF1FAD
:10046000303801002892FF1F00000000F0B400F1B6
:100470001C06134F00243146031F00F13C0243F8D1
:10048000044FB34241F8047F4FF0000542F8044F97
:10049000F5D100230B4A0C4C056647F230514566F6
:1004A0008566C566C56744670267826780F88430E1
:1004B00080F8853080F89C30A0F8AE10F0BC704712
:1004C0000000A040000048430000C8C22DE9F041F0
:1004D00090F89C4084B0202364008DF80530E4B28D
:1004E000042380468DF804408DF80630032720460B
:1004F00009F0ECFD02210DF1050009F0F1FD8DF888
:10050000044001F01BFD30B3092140480AF020FEF1
:100510000023102221463E4808F080FA01213D4880
:100520000AF016FE002310229DF80510384808F046
:1005300075FA012137480AF00BFE002310229DF8BE
:100540000610334808F06AFA012132480AF000FE2A
:100550002F4808F053FA02208DF8044009F0AAF859
:1005600001F0ECFC00284CD102AE002409F0CEFDD5
:1005700070B3072C1FD101E009F0D8FD09F0C6FDCA
:100580000028F9D101F0DAFC10B1214808F036FA60
:100590009DF80B009DF80C109DF80D209DF80E3075
:1005A000C8F88800C8F88C10C8F89020C8F89430B3
:1005B00004B0BDE8F08109F0B9FD054606F8010B6D
:1005C00001F0BCFC70B9013409F0A0FD0028D0D1C5
:1005D000072CD3D001F0B2FC78B9013FD8D09DF8F8
:1005E000044084E7E9B200231022094808F016FA13
:1005F000012108480AF0ACFDE5E7054808F0FEF9DE
:10060000EBE7072104480AF0A3FDADE7D81B010082
:10061000C887FF1F38230100E41B010090F88C00FD
:10062000704700BF90F88800704700BF90F89000B6
:10063000704700BF90F89400704700BF082994BF2E
:1006400050F82100002070472DE9F0410B4E804604
:10065000041F00F11C0754F8045F314628460DF0D2
:1006600053F930B1D8F8801028460DF06BF900B17D
:100670002E46BC42EFD13046BDE8F081000020415B
:100680002DE9F041D0F880704FF00008041F00F110
:100690001C0654F8045F394628460DF053F9084902
:1006A00048B128460DF030F9414620B128460DF0FA
:1006B00049F900B1A846B442EBD14046BDE8F0810B
:1006C000000070422DE9F047D0F8807082464FF06C
:1006D0000009041F00F11C064FF0000854F8045FE5
:1006E000394628460DF02EF90E4950B128460DF036
:1006F0000BF930B1484629460CF060FE08F10108BC
:100700008146B442EAD1B8F1000F01D0CAF8A08006
:1007100040460CF007FF014648460DF00BF8BDE8D7
:10072000F08700BF00007042D0F8A000704700BF03
:10073000D0F8983070B5054673B9866E446E314670
:1007400020460DF0E1F870B1ED6E204629460DF01F
:10075000DBF8D0B1204670BD012B0ED0022B19D092
:10076000032B15D070BDEC6E304621460DF0CCF851
:100770000028EFD03446204670BDC46EAD6E2046D2
:1007800029460DF0C1F80028E4D12C46204670BD62
:10079000446EF3E7446ED7E7D0F8983070B505465D
:1007A00073B9866E446E314620460DF0CBF870B1B9
:1007B000ED6E204629460DF0C5F8D0B1204670BD3B
:1007C000012B0ED0022B19D0032B15D070BDEC6E6F
:1007D000304621460DF0B6F80028EFD034462046CA
:1007E00070BDC46EAD6E204629460DF0ABF80028F2
:1007F000E4D12C46204670BD446EF3E7446ED7E743
:100800002DE9F04F022987B00746144600F02E81EB
:10081000032900F0C480012900F0838097F8AC30F0
:1008200001933846FFF784FF396F04460DF06CF8EA
:1008300000B13C673846FFF7AFFF796F04460DF013
:1008400081F800B17C6707F11C0BA7F1040A07F1DE
:100850003C095D46D0464E4658F8044F55F8040F03
:1008600021460DF06FF830B1D7F8801020460DF01A
:100870005FF800B12C6056F8041F20460DF062F8B6
:1008800000B13460A945E7D1019B002B7ED0A84C74
:10089000D7F8A82023680393039BB7F8AE109B1AE0
:1008A0008B420DD300224AF8042FD3454FF00003AA
:1008B000F9D13B667B66BB66FB6607B0BDE8F08F8F
:1008C00023680493049BC91A0A4441F287339A426D
:1008D000F3D8022197480AF03BFC974808F08EF8BD
:1008E000062196480AF034FC00230A2297F89C104F
:1008F000914808F093F8192191480AF029FC2368DF
:100900000593059AB7F8AE30D7F8A8108A489B1A15
:1009100019440A22002308F081F8874808F06EF88D
:10092000CBE7137A80F8A430D0F8B400D7F8B060E1
:100930000CF0F8FDE37A0546A07A03EB00200CF0FA
:10094000F1FD31460CF042FE29460CF037FD786689
:10095000637B207B03EB00200CF0E4FD31460CF0C0
:1009600035FE29460CF02AFDB866E37BA07B03EB3D
:1009700000200CF0D7FD31460CF028FE29460CF083
:100980001DFD97F8AC300193F8664AE7684B1B6889
:100990000293029BC7F8A83007B0BDE8F08F107A29
:1009A000537A03EB00200CF0BDFD66490CF00EFEFF
:1009B000D7F88050294606460CF0C4FF40B1624982
:1009C00030460CF0A1FF18B100233E6187F8AC302F
:1009D000E37AA07A03EB00200CF0A4FD59490CF057
:1009E000F5FD0646014628460CF08EFF40B15649FB
:1009F00030460CF089FF18B100237E6187F8AC30D7
:100A0000637B207B03EB00200CF08CFD4D490CF048
:100A1000DDFD0646014628460CF076FF40B14A4906
:100A200030460CF071FF18B10023BE6187F8AC307E
:100A3000E37BA07B03EB00200CF074FD41490CF03C
:100A4000C5FD0446014628460CF05EFF00283FF431
:100A5000E5AE3D4920460CF057FF00283FF4DEAEDE
:100A60000023FC6187F8AC300193DAE6107A537A00
:100A700003EB00200CF056FD32490CF0A7FDD7F82F
:100A80008050294606460CF05DFF00285ED1012308
:100A900087F8AC30E37AA07A03EB00200CF042FD3B
:100AA00028490CF093FD0646014628460CF02CFF21
:100AB00000285FD0244930460CF026FF002859D08A
:100AC00000237E6087F8AC30637B207B03EB002043
:100AD0000CF028FD1B490CF079FD0646014628461E
:100AE0000CF012FF002841D0174930460CF00CFFE3
:100AF00000283BD00023BE6087F8AC30E37BA07BAE
:100B000003EB00200CF00EFD0E490CF05FFD0446D7
:100B1000014628460CF0F8FE18B30B4920460CF0AD
:100B2000F3FEF0B10023FC6087F8AC30019378E667
:100B3000E0C4FF1FBC300100C887FF1FEC1B010091
:100B4000F41B01006F12833A000070420B493046DB
:100B50000CF0DAFE00289AD000233E6087F8AC3013
:100B600098E7012387F8AC3001935AE6012387F810
:100B7000AC30C3E7012387F8AC30A5E70000704232
:100B80002DE9F04F90F89C3091B007465B008DF84E
:100B90000830FFF79BFCD7F89000D7F89440D7F8BF
:100BA0008C30D7F8882097F89C108DE81100C94840
:100BB00001F0CAFA30223D2303268DF809208DF872
:100BC0000A300DF10A059DF8089049F001084046E9
:100BD00009F07CFA0DF10900022109F081FA8DF883
:100BE0000880424602AB00205040082410F0800FDD
:100BF0004FEA400018BF80F00700013CC0B2F5D1B9
:100C00009D4202D013F8012FEEE709F05FFA01F0E0
:100C100095F9002840F07C8202208DF8089008F0B9
:100C200049FD01F08BF9002840F0B8820DF10C0A63
:100C3000D146002409F06AFA002843D0032C34D1AD
:100C400001E009F073FA09F061FA0028F9D101F026
:100C500075F910B1A04807F0D1FE312303268DF8B5
:100C600009308DF80A609DF8089049F00108404667
:100C700009F02CFA0DF10900022109F031FA8DF882
:100C80000880424602AB00205040082410F0800F3C
:100C90004FEA400018BF80F00700013CC0B2F5D118
:100CA0009D4228D013F8012FEEE709F03FFA09F82A
:100CB000010B804601F042F968B9013409F026FAC7
:100CC0000028BBD1032CBED001F038F978B9013E21
:100CD0007FF479AFC1E75FFA88F1002310227E48E4
:100CE00007F09CFE01217D480AF032FAE5E77A48D8
:100CF00007F084FEEBE709F0E9F901F01FF900289D
:100D000040F0C58102208DF8089008F0D3FC01F076
:100D100015F9002840F03D820DF10C09002409F07E
:100D2000F5F9002844D0032C35D101E009F0FEF993
:100D300009F0ECF90028F9D101F000F910B166488A
:100D400007F05CFE342201238DF809208DF80A306B
:100D500003269DF8089049F00108404609F0B6F9CD
:100D60000DF10900022109F0BBF98DF80880424617
:100D700002AB00205040082410F0800F4FEA4000E2
:100D800018BF80F00700013CC0B2F5D19D4228D0C9
:100D900013F8012FEEE709F0C9F909F8010B8046B5
:100DA00001F0CCF868B9013409F0B0F90028BAD1E3
:100DB000032CBDD001F0C2F878B9013E7FF453AFE7
:100DC000C0E75FFA88F100231022434807F026FEAF
:100DD000012142480AF0BCF9E5E73F4807F00EFE62
:100DE000EBE709F073F901F0A9F8002840F00E8153
:100DF00002208DF8089008F05DFC01F09FF80028B3
:100E000040F0D6810DF10C09002409F07FF900288B
:100E100000F08480032C72D101E009F087F909F019
:100E200075F90028F9D101F089F810B12A4807F0C6
:100E3000E5FD012212238DF809208DF80A304FF0CC
:100E400003089DF80840204609F040F902210DF101
:100E5000090009F045F98DF8084001F06FF830B34A
:100E600009211F480AF074F90023102221461A486C
:100E700007F0D4FD012119480AF06AF90023102275
:100E80009DF80910144807F0C9FD012113480AF024
:100E90005FF9002310229DF80A100F4807F0BEFDED
:100EA00001210E480AF054F90B4807F0A7FD06206F
:100EB0008DF8084008F0FEFB01F040F8002840F0F3
:100EC000728103AD002609F021F900283FD0162ECB
:100ED0002FD109E0101C0100C887FF1F3823010033
:100EE000D81B010009F022F909F010F90028F9D106
:100EF00001F024F8162600287DD1152035E009F0F0
:100F000015F909F8010B804601F018F800285BD1AB
:100F1000013409F0FBF800287FF47CAF032C3FF488
:100F20007EAF01F00BF800286CD1013E7FF411AFC9
:100F30007FE709F0FBF805F8010B044600F0FEFF1F
:100F400000284DD1013609F0E1F80028BFD1162E56
:100F5000CAD000F0F3FF00284DD1B8F101087FF4AA
:100F600070AF701E002840F31982002303AA1C46AC
:100F700012F8011B08254C4014F0800F4FEA44047E
:100F800018BF84F00704013DE4B2F5D10133834278
:100F9000EEDB9DF8218089484146224601F0D4F8D5
:100FA000162EC146A34602D1A04500F0138197F842
:100FB0009C108348CDF800B04B46324601F0F2F861
:100FC000002011B0BDE8F08F5FFA88F100231022F5
:100FD0007C4807F023FD01217B480AF0B9F897E728
:100FE000E1B200231022774807F018FD012176486E
:100FF0000AF0AEF8A6E7734807F000FD162EACD154
:101000001520B2E76F4807F0F9FC8EE709216F4819
:101010000AF09EF82346102241466A4807F0FEFC7B
:10102000012169480AF094F8234610229DF809101E
:10103000644807F0F3FC012163480AF089F81022A4
:1010400023469DF80A105F4807F0E8FC01215E483E
:101050000AF07EF821460DF10B0002AA12F8014BAE
:101060006140C9B2082311F0800F4FEA410118BF57
:1010700081F00701013BC9B2F5D19042EED11022B7
:10108000504807F0CBFC4F4807F0B8FCB0E6092108
:101090004E480AF05DF8234610224146494807F0C1
:1010A000BDFC012148480AF053F8234610229DF860
:1010B0000910444807F0B2FC012143480AF048F8FF
:1010C000102223469DF80A103E4807F0A7FC012194
:1010D0003D480AF03DF821460DF10B0002AA12F836
:1010E000014B6140C9B2082311F0800F4FEA410162
:1010F00018BF81F00701013BC9B2F5D19042EED192
:101100001022304807F08AFC2E4807F077FCF9E5FA
:1011100009212E480AF01CF823461022414629488E
:1011200007F07CFC012128480AF012F8234610221F
:101130009DF80910234807F071FC012122480AF0AC
:1011400007F8102223469DF80A101E4807F066FC97
:1011500001211D4809F0FCFF21460DF10B0002AAF8
:1011600012F8014B6140C9B2082311F0800F4FEA19
:10117000410118BF81F00701013BC9B2F5D190428E
:10118000EED110220F4807F049FC0E4807F036FC5C
:1011900042E507210E4809F0DBFFBDE507210C48B9
:1011A00009F0D6FF42E50721094809F0D1FF88E69A
:1011B0000721074809F0CCFF24E600BF441C0100CA
:1011C000901C0100C887FF1F38230100D81B0100B5
:1011D000E41B01009DF80C3097F89C20B3EB420F04
:1011E0007FF4EEAE9DF80D30012B7FF4E9AE9DF853
:1011F0000E30122B7FF4E4AE9DF810309DF80F00F6
:1012000003EB00200CF08EF969490CF0DFF9F96F5F
:10121000386604460CF096FB00B1FC67B96F2046B7
:101220000CF072FB00B1BC67A7F1040907F12006BE
:1012300007F140054FF008089AF806309AF80500C3
:1012400003EB00200CF06EF95A490CF0BFF949F895
:10125000040F316804460CF057FB0AF1020A30B162
:10126000D7F8801020460CF063FB00B13460296889
:1012700020460CF067FB043600B12C60B8F1010881
:1012800005F10405D8D19DF81E309DF81D0003EB33
:10129000002002300CF046F947490CF04BFA0146A9
:1012A00046480CF047FA46490CF086F845490CF0E0
:1012B0008DF905460AF0F8F9044628460AF0F4F9D3
:1012C00041490AF063FA4149054620460CF07EF98F
:1012D0003F490CF073F83F49044628460CF076F974
:1012E000014620460CF06AF801464FF07E500CF0A3
:1012F00021FA39490CF060F89DF81F209DF8203044
:10130000786603EB022009300CF00CF933490CF03D
:1013100011FA014629480CF00DFA29490CF04CF855
:1013200028490CF053F905460AF0BEF90446284650
:101330000AF0BAF924490AF029FA24490546204658
:101340000CF044F922490CF039F8224904462846A9
:101350000CF03CF9014620460CF030F801464FF005
:101360007E500CF0E7F91C490CF026F8B8663846B8
:10137000FFF7DEF9396F04460CF0C6FA00B13C679E
:101380003846FFF709FA796F04460CF0DBFA00B132
:101390007C67134800F0D8FE012012E69DF82190EA
:1013A000104849464246C34600F0CEFEFFE500BF66
:1013B0001357053B2003C839001601470AD7E33FFE
:1013C000E17A644000007A4400004040A40D8F3967
:1013D0005A80473A46A6DB3333938843002C0147B3
:1013E000681C0100441C0100D0F8983010B5044678
:1013F00033B1012B0FD0022B1FD0032B14D010BD03
:10140000816E406E0BF0DAFFE16E0BF0D7FF0F49F3
:101410000CF090F910BDC16E806E0BF0CFFF4FF055
:101420007C510CF0D3F810BD816E406E0BF0C6FFFE
:101430004FF07C510CF0CAF810BDC16E406E0BF03D
:10144000BDFF4FF07C510CF0C1F810BD00004040D2
:101450002DE9F8430026D0F88080066681460446D0
:1014600000F1200754F8045B414628460CF06AFA64
:10147000084950B128460CF047FA30B130462946A9
:101480000BF09CFF0646C9F86000BC42EAD130462A
:10149000BDE8F8830000704202299ABF00EB81008A
:1014A000406E0020704700BF3E2998BF80F89C1016
:1014B000704700BF90F8A400704700BF90F8840008
:1014C000704700BF90F88500704700BFC0F89810C3
:1014D000704700BF80F88410704700BF80F8851007
:1014E000704700BF30B5C0F8801083B008460BF0DD
:1014F000C3FB074C022502460B460095204607F029
:10150000D7FA204603B0BDE8304007F077BA00BFF5
:10151000C887FF1FC0F8B010C0F8B420704700BFE4
:1015200070B500F535550646303500F128042046E3
:10153000B834FEF79BFFAC42F9D106F1E005012477
:1015400028460021FFF7C6FF214628460134FFF751
:10155000ABFF3F2C05F1B805F2D142F67C540025D3
:101560000548064A064B3555002130617161B2616C
:10157000F361304670BD00BF00007A44000048436C
:101580000000C8C270B500F53556303600F1E004F1
:10159000002507E0012520460021B834FFF79EFF13
:1015A000B4420AD02046FFF789FF0028F3D0204636
:1015B000FFF788FF0028EDD170BD284670BD00BF41
:1015C000F8B500F53657002300F535563B60303648
:1015D00000F1E00402E0B834B4420DD02046FFF739
:1015E0006DFF0028F7D020463D68FFF79DF8B8341E
:1015F0002844B4423860F1D13868F8BDF8B50E46D9
:10160000096801F47F6500290446A5F5C06515DB6E
:101610002D0901F00F07B82303FB054428342046A9
:101620000121FFF757FF20460121FFF757FF324600
:1016300039462046BDE8F840FFF7E2B80A4801F015
:101640000F0707F0DBF91221084809F081FD316826
:10165000054801F0004100230A2207F0DFF90248A3
:101660002D0907F0CBF9D6E7C887FF1FE01C010062
:101670002DE9F0430446002383B0064644F8E03BDE
:10168000012504E001353F2D04F1B80469D020465E
:10169000FFF714FF0028F5D0504800F055FD29460B
:1016A0004F4800F051FD2046FFF76AFA2046FFF749
:1016B000CFFE0BF0E1FA02460B464A4800F044FD2B
:1016C0002046FEF7C1FF80462046FEF7D9FF0746B9
:1016D00040460BF0D1FA8046384689460BF0CCFAEA
:1016E00042464B46CDE900013F4800F02DFD002168
:1016F0002046FFF7D1FE012180462046FFF7CCFEB1
:10170000074640460BF0B8FA8046384689460BF04B
:10171000B3FA42464B46CDE90001344800F014FDCF
:101720002046FFF795FE014630680BF047FE30601B
:101730002046FEF7FDFFB1690CF0E6F8002833D132
:101740002046FFF729F8F1690CF0FCF8002899D041
:101750002046FFF721F801353F2DF06104F1B80470
:1017600095D170680BF0DEFE014630680BF0E2FFA9
:101770007169306004460CF0E5F800B174613169BC
:1017800020460CF0C1F800B134610B2007F05CFF7B
:1017900042F67C53F35C60B99BB142F67C53012264
:1017A000F25403B0BDE8F0832046FEF7C1FFB061FC
:1017B000C6E753B942F67C530022F25403B0BDE8A9
:1017C000F0830B4800F0EEFCE7E70A4800F0D4FC99
:1017D00042F67C530022F254F0E700BFDC1E010009
:1017E000F41C0100301D0100441D0100701D0100AA
:1017F0008C1D0100C41D010070B5114B836000F504
:1018000035550646303500F1E00402E0B834AC420C
:1018100013D02046FFF752FE0028F7D02046FEF7EF
:1018200013FFB1680CF070F80028EFD02046FEF7E7
:101830000BFFB834AC42B060EBD1B06870BD00BFF4
:101840000000A04070B5002300F535550646C36082
:10185000303500F1E00402E0B834AC4213D0204649
:10186000FFF72CFE0028F7D02046FEF709FFF168AD
:101870000CF068F80028EFD02046FEF701FFB834DE
:10188000AC42F060EBD1F06870BD00BF00687047FB
:10189000416070472DE9F84342F6885642F68C5570
:1018A00042F6845E42F69054815140F80E20089E24
:1018B000435100F535550651894690461F4630354F
:1018C00000F1E00402E0B834AC4214D02046FFF747
:1018D000F5FD0028F7D020464946FFF7F7FD2046E2
:1018E0004146FFF7FFFD204632463946B834FFF740
:1018F00011FEAC42EAD1BDE8F88300BF2DE9F04308
:1019000042F6745300F535550027C7502E463A4A23
:101910003A4B426283B080464FF000090362303593
:10192000343600F1E00402E0B834A54213D020467A
:10193000FFF7C4FD0028F7D0336801333360204639
:10194000FFF752FD2E490BF0FDFF80BBB834A542D6
:1019500007F10107EBD142F6745358F80340E01B3E
:101960000BF0E0FD014648460BF0E4FE054642F66A
:10197000785058F800309C4215D042F6905642F606
:101980008C5342F6845242F6885158F8066058F853
:10199000033058F8022058F8011048F8004000962B
:1019A0004046FFF777FF284603B0BDE8F0832046A6
:1019B000FFF71AFD014648460BF000FD8146204620
:1019C000FEF7EAFED8F820100BF0BCFF70B92046F5
:1019D000FEF7AEFED8F824100BF096FF0028A3D037
:1019E0002046FEF7A5FEC8F824009DE72046FEF736
:1019F000D3FEC8F82000EAE700C0794400C079C4EB
:101A000000008CC2006A7047406A7047F8B500F564
:101A1000355507460026303500F1E00402E0B834C1
:101A2000AC420FD02046FFF749FD0028F7D02046F2
:101A3000FEF748FE014630460BF0C0FCB834AC421D
:101A40000646EFD142F67453F8580BF06BFD014691
:101A500030460BF06FFEF8BD2DE9F04F91B0064611
:101A600094480F91934600F017FB924800F014FB46
:101A7000904800F011FB42F67453304656F803804C
:101A8000FFF79EFD07463068D6F804900BF0F4F897
:101A900002460B463046CDE90C23FFF7B7FF8246DE
:101AA0003046B468F568FFF729FF0BF0E5F8CDE99B
:101AB0000A01214628460BF07FFC7F490BF086FD8A
:101AC0000BF0DAF8CDE9080128460BF0D5F8CDE99E
:101AD000060120460BF0D0F8CDE9040150460BF08A
:101AE000CBF8DDE90C23CDE90201CDE90023414625
:101AF0004B463A46714800F0CFFA6E4800F0CCFAF7
:101B00000023E03601270C9305E001373F2F06F153
:101B1000B80600F0BF803046FFF7D0FC0028F4D0B4
:101B20003046FEF77BFD3046FEF77CFD3046FEF783
:101B30007DFD3046FEF77EFD3046FFF7BBFC0821F9
:101B400082465F4809F004FB39465E4806F0A6FF6E
:101B5000092F40F3AA8002215B4809F0F9FA3046C8
:101B6000FFF776FC0BF088F89DF83C80CDF80080FC
:101B70000B460246534806F09BFF0121534809F0EB
:101B8000E7FA3B460C9C474600254FF00109984672
:101B90002EE006214E4809F0DBFA2146494806F0BE
:101BA0007DFF02214B4809F0D3FA29463046FEF763
:101BB00045FD0BF061F800970B460246414806F0E0
:101BC00077FF012141480C4409F0C2FA09FA05F3F4
:101BD000BBF1000F09D013EA0A0F4FF002013E4893
:101BE00004BF3E48022109F0B3FA0135082D06D0A2
:101BF000092CCEDC01213A4809F0AAFAC9E731489C
:101C000006F0FCFE0921374809F0A2FA002130460F
:101C1000FFF742FC0BF030F8022402460B4600941A
:101C2000284806F045FF0A212F4809F091FA0121C2
:101C30003046FFF731FC0BF01FF8009402460B46CC
:101C4000204806F035FF0A21284809F081FA21468C
:101C50003046FFF721FC0BF00FF80B460C9900946F
:101C60000246083117480C91474606F021FFBBF1A8
:101C7000000F12D00D211E4809F06AFA01372246E2
:101C8000514600230F4806F0C9FE3F2F06F1B80663
:101C90007FF441AF11B0BDE8F08F0121154809F084
:101CA00057FA084806F0AAFE2FE701210C4809F070
:101CB0004FFA50E7DC1E010000007A447420010056
:101CC00014210100C887FF1FBC3001002021010042
:101CD00024210100402301002C21010030210100BA
:101CE0003823010034210100402101004C21010072
:101CF00058210100682101002DE9F04F85B000F165
:101D0000E0058A4603929B462E464FF0010806E006
:101D100008F10108B8F13F0F06F1B8067BD0304654
:101D2000FFF7CCFB0028F3D000230A2251467D4860
:101D300006F074FE01217C4809F00AFA03980AF0C3
:101D40009BFF00230246009376480B4606F0B0FE48
:101D50000121754809F0FCF95946724806F09EFECB
:101D60000121714809F0F4F941466E4806F096FEEB
:101D700001216D4809F0ECF900244FF002092146D9
:101D80003046FEF75BFC0AF077FFCDF80090024684
:101D90000B46644806F08CFE01340121624809F0CC
:101DA000D7F9082C4FF00207E9D100213046FFF7A0
:101DB00073FB0AF061FF009702460B46594806F094
:101DC00077FE0121584809F0C3F901213046FFF799
:101DD00063FB0AF051FF009702460B46514806F09C
:101DE00067FE0121504809F0B3F939463046FFF744
:101DF00053FB0AF041FF009702460B46494806F0A4
:101E000057FE08F10108474806F0F8FDB8F13F0F0A
:101E100006F1B80683D101274FF0000904E001372D
:101E20003F2F05F1B80579D02846FFF747FB00287A
:101E3000F5D000230A2251463C4806F0EFFD01216F
:101E4000394807F017FF03980AF016FFCDF8009005
:101E500002460B46354806F02BFE0121324807F0BA
:101E600009FF5946314806F019FE01212E4807F0B6
:101E700001FF39462D4806F011FE01212A4807F0DE
:101E8000F9FE00244FF0020821462846FEF7D6FB53
:101E90000AF0F2FECDF8008002460B46234806F019
:101EA00007FE01340121204807F0E4FE082C4FF022
:101EB0000206E9D100212846FFF7EEFA0AF0DCFE1F
:101EC000009602460B46194806F0F2FD012116481D
:101ED00007F0D0FE01212846FFF7DEFA0AF0CCFE1B
:101EE000009602460B46114806F0E2FD01210E481D
:101EF00007F0C0FE31462846FFF7CEFA0AF0BCFED6
:101F0000009602460B46094806F0D2FD0137074805
:101F100006F074FD3F2F05F1B80585D105B0BDE889
:101F2000F08F00BFC887FF1F6C210100AC87FF1F27
:101F3000014B1870704700BF2087FF1F024B1878B5
:101F4000B0FA80F0400970472087FF1F0278002A0E
:101F500000F0908070B5034682B00D46252A2AD144
:101F600058785C1C08B325282FD0732831D06428FA
:101F700024D0692822D066284FD07A2859D07828D2
:101F800035D058282FD062283ED0422838D06C282F
:101F900014D0632812D0742857D054285FD009F089
:101FA0005BF96278631C002AD8D1344802B0BDE8DE
:101FB000704006F023BD18781C46F0E72B1D2968F9
:101FC0002E481D4606F06AFDEBE7104609F044F97D
:101FD000E7E72E6830460CF013FB01463046043527
:101FE00009F0B6F8DDE70221254809F0B1F82E1D09
:101FF0002968224800231022354606F00FFDD0E75D
:102000000221204809F0A4F82E1D29681B4800234E
:102010000222354606F002FDC3E7073525F0070525
:102020000321D5E9002315480091083506F040FD4D
:10203000B7E7073525F007050021D5E900230F484C
:102040000091083506F034FDABE7296801290EBF81
:102050000D480E480121043509F07AF8A1E72B68F4
:10206000012B07BF04210A480A480521043509F05D
:102070006FF896E7014806F0C1BC00BFC887FF1F94
:102080007021010074210100782101007C210100F0
:1020900080210100882101000FB400B583B004A99C
:1020A00051F8040B0191FFF751FF03B05DF804EB09
:1020B00004B0704770B51B4B1B4C1B6882B00D46BB
:1020C0000193019B236019460446002316461748D6
:1020D0000A2206F0A3FC0321154809F039F8032C65
:1020E00007D8DFE804F01A1510020521114809F09D
:1020F0002FF80221104809F02BF831462846FFF747
:1021000025FF02B070BD07210C4809F021F8F0E767
:1021100004210B4809F01CF8EBE70521094809F0F8
:1021200017F8E6E7E0C4FF1F4492FF1FC887FF1FB0
:1021300090210100AC21010040230100A4210100F5
:102140009C210100942101000FB400B5094B1878BF
:1021500083B020B103B05DF804EB04B0704705AB69
:102160001A4604990193FFF7A5FF03B05DF804EB4D
:1021700004B070472087FF1F0FB4094B00B51B78D0
:10218000012B83B004D903B05DF804EB04B07047B1
:1021900005AB1A46049901930120FFF78BFFF2E784
:1021A0002087FF1F0FB40B4B00B51B78032B83B0A8
:1021B00004D903B05DF804EB04B0704705AB1A46D0
:1021C000049901930320FFF775FF03B05DF804EB5A
:1021D00004B070472087FF1F0A4A0B49906D536D6A
:1021E00003FB00F34FF47A7000FB03F0642310B597
:1021F0000B600BF097F90549054C0BF09BFA20603A
:1022000010BD00BF4893FF1F3887FF1FE4388E3E84
:102210001493FF1F38B5044608460D460CF0F0F93C
:102220002368024629465B682046984705462046B3
:1022300006F0E4FB284438BD2DE9F0414448454F01
:10224000454D464E464CFFF727FF464B4649474A09
:102250005960DF6013210027454819701A6145490C
:10226000454A5D615E62454D9C614FF07C56444C31
:102270001F63444F9862D96243485A630C21434A12
:102280009D635E6440F61C450A269C641F6241F211
:1022900004043F4FD864196502200121C3F8C0200F
:1022A0009D6600226425DE661C674FF49676322414
:1022B000DF61DF635A27587058721972596583F8C5
:1022C00040209D655E66DE651C664FF47A785F6728
:1022D000DFF8C4C09A67D867C3F88010C3F88420B9
:1022E000C3F89C40C3F8A840DFF8B0E0C3F8A420CE
:1022F000C3F8B010C3F8B40044F62067C3F8B85070
:10230000FF2683F8C410052541F2883183F8D020D8
:10231000204CC3F8A08040F2D6626FF03300C3F8BF
:102320008CC0C3F890E0C3F89470C3F8AC60A3F815
:10233000BE50C3F8C840C3F8CC00C3F89810A3F847
:10234000BC10A3F88820A3F88A20BDE8F08100BF64
:10235000B42101006666864033338340CDCCCC3D4A
:10236000CDCC4C404893FF1F20A107000000404007
:1023700000008242000020C1000020420000A04076
:102380009A997940333373400AD7233D9A99993EFD
:10239000CDCC4C3E6C09793B0000114400F0C8459F
:1023A000F0B54FF47A6085B007F084F900210F2072
:1023B00007F058F900210E2007F054F900211120F0
:1023C00007F050F90021102007F04CF900211220ED
:1023D00007F048F90021132007F044F901210B20F0
:1023E00007F040F901210C2007F03CF901211420ED
:1023F00007F038F90121152007F034F901211620E2
:1024000007F030F90121172007F02CF901210520F0
:1024100007F028F9904C914D0121062007F022F990
:1024200001210D2007F01EF920880BF077F80146F6
:10243000162007F081F820880BF070F8014617206D
:1024400007F07AF820880BF069F80146052007F0BC
:1024500073F820880BF062F800240146062007F08C
:102460006BF8009423467E4A7E497F4805F0F4F8D5
:10247000E6B2324679497C4805F09CF82B797749D9
:1024800079486FF30003013432462B7105F088F868
:10249000082CEDD10924E6B232467049724805F0A5
:1024A00089F82B796D49704843F0010301343246B5
:1024B0002B7105F075F80D2CEDD16C4C4FF0FF32FF
:1024C0002068102105F094FC20684FF0FF321021A5
:1024D00005F066FC20684FF0FF32022105F074FC25
:1024E00020684FF0FF32022105F078FC00220F2116
:1024F000206805F087FC0C215D4808F029FE5D4846
:1025000006F07CFA14215C4808F022FE594806F0D7
:1025100075FA40F2836007F08BF9564806F06EFAC0
:102520001721564808F014FE524806F067FA544B3B
:102530001B789A0600F1C080514B1B781B0700F1F5
:10254000C7804F4B1B785F0700F1CE804C4B1B7848
:102550009E0700F1D5804B4B1B781D0600F1DC80F7
:10256000484B1B785C0600F1E380464B1B789806CD
:1025700000F1EA80434B1B78590700F1F180414B91
:102580001B781A0700F1F8803E4B1B789B0700F17F
:10259000FF80384806F032FA72B63B4A4CF22053BC
:1025A0004DF628112024138023461180013BFDD1D4
:1025B000364D3748374900234FF480562E8003802C
:1025C0000B8032F80E3C9BB243F0D30322F80E3C52
:1025D00062B69D2007F02AFD21462F482F4D08F0B6
:1025E000B7FD244806F00AFA05F1D4062F462C461A
:1025F000601B06F071FC04F8010BB442F8D13B7883
:10260000132B01D0FFF718FE0420FFF791FC244B99
:10261000244D002401210D201C6007F00FF8796D76
:102620002148FFF735F9D7F8CC00D7F8C8307A6CD5
:1026300097F8401000901C48FFF72CF91B4B1C49E1
:102640001A68039203981B680293029A194B2C7024
:1026500008601A6005B0F0BD2887FF1F8C94FF1F2B
:10266000B8C4FF1F20A107001CC3FF1FE094FF1F79
:10267000D4210100C887FF1FE4210100FC210100D3
:1026800001F0074000F007400E20054004200540FF
:102690000620054016200540002301004893FF1F37
:1026A0005C92FF1FCC94FF1F7C95FF1FE0C4FF1FAF
:1026B0001495FF1F9494FF1F2121394808F048FD0D
:1026C000384806F09BF9384B1B781B077FF539AF6C
:1026D0000C21364808F03CFD324806F08FF9324BA9
:1026E0001B785F077FF532AF0E21314808F030FDCF
:1026F0002C4806F083F92C4B1B789E077FF52BAFF7
:1027000017212C4808F024FD264806F077F92A4BBB
:102710001B781D067FF524AF0E21284808F018FD10
:10272000204806F06BF9244B1B785C067FF51DAF43
:102730001221234808F00CFD1A4806F05FF91E4BE1
:102740001B7898067FF516AF13211E4808F000FD90
:10275000144806F053F9184B1B7859077FF50FAF53
:102760001C21194808F0F4FC0E4806F047F9124BFA
:102770001B781A077FF508AF1921144808F0E8FC08
:10278000084806F03BF90C4B1B789B077FF501AF1F
:1027900018210F4808F0DCFC024806F02FF9F8E693
:1027A00014220100C887FF1F01F0074038220100F2
:1027B000482201005822010000F007407022010069
:1027C0008022010094220100A8220100C8220100F9
:1027D000E4220100F0B55A4C5A4D5B48E66883B0DC
:1027E00000232B70FFF72EF8014630460BF08CF8D3
:1027F00008B104232B705448FEF7FEFF21690BF04B
:1028000083F818B12B7843F010032B704E48FFF774
:10281000F9F8A16A0BF096F818B12B7843F0400351
:102820002B70002348486B70FFF7EEF8E16A444EC6
:102830000BF06AF800285BD100234348EB70FFF7E8
:1028400001F8054640483F4EFEF7D6FF01462846B0
:102850000AF0B2FDE16B0BF075F808B10123F370DB
:102860003A4D394800232B70FEF7ECFF616A0646AB
:10287000E0680AF0A1FD014630460BF063F808B1AC
:1028800004232B703048FEF7B7FF616A06462069C3
:102890000AF094FD014630460BF036F818B12B785B
:1028A00043F010032B702848FFF7ACF8A16B0646E5
:1028B000A06A0AF081FD014630460BF043F818B1DA
:1028C0002B7843F040032B7000231F486B70FFF7F9
:1028D0009BF8A16B0546E06A1C4C0AF06FFD0146AF
:1028E00028460BF011F808B10123637003B0F0BD66
:1028F000174806F083F80521164808F029FC12480D
:10290000FFF782F80AF0B8F9022702460B46009753
:102910000F4806F0CDF801210F4808F019FC0921F5
:102920000E4808F015FCF06A0AF0A6F90097024676
:102930000B46074806F0BCF8054806F05FF87BE751
:102940004893FF1F4493FF1F7C95FF1FD094FF1FE8
:10295000C887FF1F242301002C230100302301001E
:102960002DE9F0417C4C2368012B82B031D0022B41
:1029700000F0A880032B00F0C8803BBB774B784A5F
:10298000D3F8A810D3F8AC3012685B1A632B0EDDB5
:10299000744803FB02F380FB0302DB17C3EB6213F3
:1029A0001944062002B0BDE8F04106F0C7BC6E48ED
:1029B00003FB022380FB0302DB17C3EB221211444B
:1029C000062002B0BDE8F04106F0B8BC02B0BDE898
:1029D000F081664E33680A33B3F57A7F00F3B7802F
:1029E000184633600AF09EFD61490AF0EFFD80460B
:1029F0005A4DD5F8A8000AF095FD0746D5F8AC0069
:102A00000AF090FD39460AF0D7FC41460AF0DEFD97
:102A100058490AF08FFE39460AF0D0FC0AF0B2FF9E
:102A20000146062006F08AFC0221534808F090FB7C
:102A3000524805F0E3FF0621514808F089FB306851
:102A40000AF070FD4A490AF0C1FD0AF015F90227A3
:102A500002460B460097494806F02AF80D214948DE
:102A600008F076FBD5F8A8000AF05CFD80463068D7
:102A70000AF058FD3E490AF0A9FD0646D5F8AC001B
:102A80000AF050FD41460AF097FC014630460AF034
:102A90009DFD38490AF04EFE41460AF08FFC0AF0CF
:102AA000EBF800970B460246344806F001F8394629
:102AB000314808F04DFB314805F0A0FF2368022B98
:102AC0007FF458AF294B254E00221A60D6F8A80093
:102AD0000AF028FD0546D6F8AC000AF023FD294689
:102AE0000AF06AFC00210AF071FD22490AF022FE78
:102AF00029460AF063FC0AF045FF0146062006F06D
:102B00001DFC2368032B7FF438AF184B134E4FF492
:102B10007A721A60D6F8A8000AF004FD0546D6F8C5
:102B2000AC000AF0FFFC29460AF046FC11490AF005
:102B30004DFD10490AF0FEFD29460AF03FFC0AF05F
:102B400021FF0146062006F0F9FB236815E7002364
:102B50004FF0000833604BE7BC94FF1F4893FF1F02
:102B60003887FF1F1F85EB51CBF08D286092FF1F28
:102B7000CDCCCC3D0000C842BC300100C887FF1F4F
:102B80003C2301004423010070B5B548B54C05F065
:102B900035FFB34805F032FFB14805F02FFF0D2196
:102BA000B14808F0D5FAD4F8A430012B11D0AF4CBD
:102BB000AB48217800230A2205F030FF2378052B4B
:102BC00067D8DFE813F006010B01100115011A01A7
:102BD00001010921A64808F0BBFAA648FEF70CFE41
:102BE00021690AF091FE18B10F21A34808F0B0FA4C
:102BF000A048FEF727FEE1680AF0A4FE18B10E21F6
:102C00009E4808F0A5FA9B48FEF71CFE0546994829
:102C1000FEF7F2FD014628460AF0CEFBE16B0AF012
:102C200091FE18B11121964808F092FA9148FEF7EA
:102C3000E9FEA16A0AF086FE18B10C21914808F05D
:102C400087FA8C48FEF7E0FEE16A0AF05DFE18B1F3
:102C50000D218D4808F07CFA8C4B86481B68012BAF
:102C600000F0E880FEF7C8FD21697E4D0AF06AFE9B
:102C700078B18048FEF7E6FDE9680AF045FE40B10C
:102C80007A4B1B78052B00F0E6800821804808F07D
:102C90005FFA02217F4808F05BFA122006F0D4FCAC
:102CA000012800F0AF80112006F0CEFC012800F0D2
:102CB000B380794B1B68012B00F0B7800221754867
:102CC000764C08F045FA764B6548196805F0E6FE43
:102CD000634805F093FE0421724808F039FA0B208E
:102CE00006F0B2FC002301460A225D4805F096FE7C
:102CF0000C2006F0A9FC002301460A22584805F0E2
:102D00008DFE142006F0A0FC002301460A22544840
:102D100005F084FE152006F097FC0A2200230146E8
:102D20004F4805F07BFE06215F4808F011FA236842
:102D3000DD074FF001014CBF5C485D4808F008FA20
:102D4000236898074FF001014CBF5848584808F0D5
:102D5000FFF923685A074FF001014CBF534854480C
:102D600008F0F6F923681B074CBF50485048012172
:102D700008F0EEF904214F4808F0EAF9112006F0B6
:102D800063FC002301460A22354805F047FE102067
:102D900006F05AFC002301460A22314805F03EFEA7
:102DA000122006F051FC002301460A222C4805F0AF
:102DB00035FE132006F048FC002301460A2228486D
:102DC000BDE8704005F02ABE07213B4808F0C0F975
:102DD0005FE70621394808F0BBF95AE70721384870
:102DE00008F0B6F955E70721364808F0B1F950E781
:102DF0000821354808F0ACF94BE70B21334808F0BF
:102E0000A7F946E70E21324808F0A2F9112006F092
:102E10001BFC01287FF44DAF0A212E4808F098F9D9
:102E20001D4B1B68012B7FF449AF11212A4808F084
:102E30008FF943E7FEF7E0FC216A0AF083FD0028E2
:102E40003FF423AF1621254808F082F90A212448CF
:102E500008F07EF91DE70A21214808F079F918E702
:102E6000C887FF1F4893FF1F54230100CC94FF1F06
:102E7000642301007C95FF1F702301008023010063
:102E800090230100A4230100B4230100F492FF1F4A
:102E9000E8230100BC300100E894FF1F1C94FF1FD1
:102EA000C094FF1F5C240100642401006C24010015
:102EB000743201007024010024240100F423010075
:102EC000FC23010010240100182401000424010047
:102ED0002C2401003C24010048240100C4230100EB
:102EE000DC2301002DE9F04FA54CE36F012B8DB0E1
:102EF00000F06C81032BA34F5BD0A34EA34DA36FB7
:102F0000A348012B09BF2968296801F10041296004
:102F100005F06AFB3368002B40F0D9809C4805F02F
:102F200039FBE36F3860012B0646954A00F0E580D7
:102F300098490AF007FDB8B9974930460AF0E4FC11
:102F400090B9964A964B12680B920B9A1A60D4F875
:102F5000B0000AF0E7FA31460AF038FB0023386087
:102F60002B600DB0BDE8F08FDFF830A2DFF83082C3
:102F7000DAF800300A930A98D8F80030DFF8449263
:102F8000C01A0AF0CBFA31460AF020FB85490AF054
:102F9000D1FB84490AF0CEFBD9F800100AF00EFAF2
:102FA000DAF800300993099BC9F80000C8F800302E
:102FB000CDE7DFF8F8817C4DD8F80000724E012390
:102FC00000220F212B6004F01DFF2B68012B3368BA
:102FD00000F02281002B40F0C5810021D8F80000CC
:102FE000DFF8E491714D04F05FFF33681FFA80FB56
:102FF000C9F800B0002B40F09A810021D8F80000F9
:10300000624DDFF8A8A104F0D5FEB4F88A3040F68E
:10301000E44101FB0BF1B1FBF0F0C01A00B20AF081
:1030200081FA63498346D4F88C000AF0CFFA01464E
:1030300058460AF07FFBD9F800302860632BDFF890
:1030400088B100F3688100232B603368002B3FF4C4
:1030500056AF0221574808F07BF8D9F80020D8F87D
:10306000000040F6E443002103FB02F804F0A2FE56
:10307000B8FBF0F00AF052FA8046B4F88A000AF081
:1030800051FA014640460AF097F909F0F5FD4FF074
:10309000020802460B46CDF80080474805F008FDBF
:1030A0004146444808F054F8286809F0E5FDCDF899
:1030B000008002460B46404805F0FAFC41463F4876
:1030C00008F046F841463B4808F042F817E7304818
:1030D00005F060FA09F0D0FD022602460B46009684
:1030E000354805F0E5FC0321354808F031F8D4F8FF
:1030F0009410314805F0D2FC10E72B4B1B68012BD4
:1031000000F03C81022B7FF422AFD2F8948040463D
:103110000AF008FA014630460AF014FC50B9C8F12A
:1031200000000AF0FFF9014630460AF0EDFB0028E6
:1031300000F05981DFF864A0DFF86480DAF800302D
:1031400007930798D8F80030DFF87890C01A0AF093
:10315000E5F931460AF03AFA12490AF0EBFA114958
:103160000AF0E8FAD9F800100AF028F9DAF8003085
:103170000693069BC9F80000C8F80030E7E600BFD8
:103180004893FF1F0893FF1F0C95FF1F1C93FF1F01
:103190002093FF1F0000FA430000FAC3E0C4FF1FA2
:1031A000DC94FF1F00007A445487FF1FE094FF1F48
:1031B000ACC52737BC300100C887FF1FB42401000D
:1031C000B82401001493FF1F4093FF1F9F4FD4F8B2
:1031D00094603D6830460AF0A5F929460AF0B2FB32
:1031E00048B170420AF09EF9014628460AF0AAFB4F
:1031F00000287FF4DEAEDFF86082954DD8F800003D
:10320000944E022300220E212B6004F0FBFD2B685C
:10321000012B33687FF4DEAE002B40F006810021E5
:10322000D8F80000DFF870928B4D04F03DFE336853
:103230001FFA80FBC9F800B0002B40F0DB800021B2
:10324000D8F80000854D04F0B5FDB4F8883040F69C
:10325000E44A0AFB0BFBBBFBF0F0C01A00B20AF019
:1032600061F97F498346D4F890000AF0AFF901462E
:1032700058460AF05FFAD9F8003028600021D8F8E3
:1032800000000AFB03FA04F095FDB4F88830BAFB9D
:10329000F0F00FFA80FAC3EB0A03002BB4F8BE205B
:1032A000B8BF5B429342BCBF00232B603368002B46
:1032B0003FF425AE02216B4807F04AFFD9F8002001
:1032C000D8F8000040F6E443002103FB02F804F0C4
:1032D00071FDB4F88810B8FBF0F000B2411A6248F2
:1032E00005F0DCFB02215F4807F032FF286809F097
:1032F000C3FC4FF0020802460B46CDF800805A4846
:1033000005F0D6FB0321594807F022FF41465548F6
:1033100007F01EFFF3E5DAF80000002104F04AFD93
:10332000DBF8003064389842FFF48DAE8DE6002162
:10333000286804F03FFD40F6E44100230A2201FB27
:103340000BF1B1FBF0F1484805F068FB022145485C
:1033500007F0FEFEB4F88A10434805F09FFBD9F849
:1033600000B04AE6404805F049FB0C21404807F010
:10337000EFFE0C213F4807F0EBFE2EE63E490AF037
:10338000E1FA58B93D4930460AF0BEFA30B93C4A34
:103390003C4B12680592059A1A60D8E5DFF8E0A068
:1033A000DFF8E080DAF8003004930498D8F80030B1
:1033B000DFF8E890C01A0AF0B1F831460AF006F9D1
:1033C00031490AF0B7F930490AF0B4F9D9F80010D8
:1033D00009F0F4FFDAF800300393039BC9F800000A
:1033E000C8F80030B3E5264A264B12680892089ABE
:1033F0001A60ACE50021286804F0DCFC40F6E441EA
:1034000000230A2201FB0BF1B1FBF0F1164805F095
:1034100005FB01211D4807F09BFEB4F888101248F7
:1034200005F03CFBD9F800B009E70F4805F0E6FAD3
:10343000E36F012B4FF00B010CBF1548154807F047
:1034400087FE0C210B4807F083FEE8E60893FF1F78
:103450005487FF1F0C95FF1FE094FF1F1C93FF1F55
:10346000ACC52737BC300100C887FF1FA02401006E
:10347000A4240100902401000000FA430000FAC3D4
:10348000E0C4FF1FDC94FF1F00007A4438230100D2
:1034900078240100842401004093FF1F1493FF1F30
:1034A0002DE9F047A84D2B6884B043B9A74B1B68A2
:1034B0000393039A42F210739A4200F28A80A44C5A
:1034C000DFF89482E36FA34EA14D012B00F0C5807D
:1034D000D4F884309E4F012B00F0F180D6F8009094
:1034E000D7F858A07D6D9C4F05FB0AF54FF47A7014
:1034F00000FB05F00AF016F89849054648460AF020
:1035000065F829460AF016F995490AF05FF80AF0BD
:1035100039FA6328C8F800004ADD28468F490AF0C6
:1035200009F9642330603B608E4B1B68002B3CD054
:10353000E36F874D012B40D0032B00F0F380022B6B
:1035400000F0EB800221884807F002FE874B1868E4
:1035500009F092FB022402460B460094844805F0D1
:10356000A7FA2146834807F0F3FD21467E4807F07D
:10357000EFFDD8F800107E4805F090FA06217E484D
:1035800007F0E6FD306875490AF020F809F074FB91
:10359000009402460B46764805F08AFA03217748E4
:1035A00007F0D6FD724805F029FA04B0BDE8F087AF
:1035B0000028BCBF00233B60B6E7714B1B68012BA2
:1035C0004FF00A010CBF6F486F4807F0C1FDEB6F69
:1035D000B2E76E485E4CFEF719FA6D49A76EE66ECB
:1035E00009F0F4FF0AF0F4F9226F636FD21B9B1B02
:1035F00080B29A42A0EB070040F39A8003FB0000E0
:10360000531C90FBF3F39819A26DDFF84C81636DA6
:10361000C8F8000002FB00F003FB00F000EB8000A4
:10362000400009F07FFF4D494A4E0AF083F801231C
:10363000022130604C482B6007F08AFD4C48444D15
:1036400005F0DCF95921534807F082FD484805F0A0
:10365000D5F9E36F012B7FF43BAF4C48FEF7D6F969
:103660004B49D5F86890EF6E09F0B0FF0AF0B0F959
:103670002A6F6B6FC9EB0202DB1B80B29A42C9EB67
:1036800000005BDD03FB0000531C90FBF3F31F44C1
:10369000A06D636DC8F8007000FB07F003FB00F03D
:1036A00000EB8000400009F03DFF2C49284F0AF054
:1036B00041F8D4F884303060012B7FF40FAF3348E9
:1036C000FEF7A4F93249D7F86890FD6E09F07EFF45
:1036D0000AF07EF93A6F7B6FD4F858A0C9EB02026A
:1036E0005B1B80B29A42C9EB0000C6BF03FB00001F
:1036F0000132584390FBF2F02844656D00FB0AF05C
:1037000005FB00F000EB8000400009F00BFF1349BF
:103710000AF010F881463060E5E607211E4807F000
:1037200017FD0FE710211D4807F012FDE36F06E7B4
:1037300003FB00F393FBF2F3981965E703FB00F337
:1037400093FBF2F31F44A3E76C92FF1FE0C4FF1F3B
:103750004893FF1F1493FF1F3887FF1FE4388E3EE6
:103760000000C8424087FF1FBC3001000893FF1FC4
:10377000C887FF1FB42401004C2501005425010017
:103780005487FF1F18250100242501007C95FF1F89
:1037900000007A44BC2401004425010030250100CA
:1037A00030B5112083B005F04FFF012818D012204A
:1037B00005F04AFF012813D000210B2005F03EFF41
:1037C00000210C2005F03AFF0021152005F036FFFE
:1037D0002649274B0120002208701A6003B030BD33
:1037E0000121152005F02AFF224A234C234B1268A1
:1037F000D4F8981001921B68019A1D4D0B44934216
:103800004FF00201296005D901210C2005F016FFB7
:1038100003B030BDD4F8A00009F084FE184B19683D
:103820000AF072F80028EFD101210B2005F006FF05
:1038300094F8C43003242C6043B10C4B02221A705C
:1038400000210C2005F0FAFE03B030BD122005F077
:10385000FBFE012808BF054B4FF0110008BF1C708C
:1038600005F0F2FE0128EBD1E7E700BFCC94FF1F83
:103870000895FF1FE0C4FF1F4893FF1F1495FF1F0B
:103880000893FF1FF0B5684E684D34682B689C4262
:1038900087B039D014F0010155D014F0020149D09D
:1038A00014F004013DD0E3070ED52B68DF070BD4DD
:1038B0005F4F3A68002A00F082805E4B1B680193DC
:1038C000019B93426DD83468A0070DD52B689907EA
:1038D0000AD4594F3A68002A4CD0564B1B680393C0
:1038E000039B934238D8346862070DD52B685B0779
:1038F0000BD4524F3A68002A7ED04E4B1B6805937A
:10390000059B934268D834680CB107B0F0BD2146DE
:10391000162005F013FD2146172005F00FFD07B016
:10392000F0BD052005F00AFD2B68346803F0FB03A9
:103930002B60B8E7172005F001FD2B68346803F011
:10394000FD032B60ACE7162005F0F8FC2B6834680B
:1039500003F0FE032B60A0E7394B1720D3F89C102F
:1039600005F0ECFC2B68346843F0020300222B6066
:103970003A60B9E7334805F041F80C21324807F0C6
:10398000E7FB304805F03AF8FF21172005F0D6FC98
:10399000284B2E4A19680291029912680A443A602B
:1039A0009CE7274B1620D3F89C1005F0C7FC2B682A
:1039B000346843F0010300222B603A6084E7FF2162
:1039C000162005F0BBFC1B4B204A1968009100999A
:1039D00012680A443A6071E7194B0520D3F89C102D
:1039E00005F0ACFC2B68346843F0040300222B6024
:1039F0003A60002C89D18AE7124804F0FFFF0C21BD
:103A0000134807F0A5FB0F4804F0F8FFFF2105203D
:103A100005F094FC074B0D4A19680491049912684B
:103A20000A443A606AE700BF0895FF1F1C94FF1F15
:103A3000A094FF1FE0C4FF1FA494FF1FA894FF1FC2
:103A40004893FF1FC887FF1F582501006887FF1F85
:103A5000682501002DE9F047544EDFF87481DFF846
:103A600074913068524D00220F2104F0CBF90023ED
:103A7000012222214F48C8F80030C9F8002007F081
:103A800067FBD8F80030132B22DC40F6E447002116
:103A90003068B5F888A004F007FA002104463068C1
:103AA00004F088F9A4B2012107FB04F4B4FBF0F49C
:103AB00041485444A5F8884007F04AFB642005F0CB
:103AC000F9FDD8F800300133132BC8F80030DEDDE3
:103AD000B5F88830394A3A48A2FB03129B1A02EB28
:103AE0005303C3F30F131946A5F8883004F0D6FF2B
:103AF0001D21344807F02CFB0221334807F028FB36
:103B00002F4804F07BFF00231A460E213068C8F8C6
:103B1000003004F077F9022322212648C9F800304A
:103B200007F016FBD8F80030132B22DC40F6E447F0
:103B300000213068B5F88A9004F0B6F900210446F7
:103B4000306804F037F9A4B2012107FB04F4B4FB98
:103B5000F0F419484C44A5F88A4007F0F9FA6420BB
:103B600005F0A8FDD8F800300133132BC8F8003059
:103B7000DEDDB5F88A30114A1148A2FB03129B1A08
:103B800002EB5303C3F30F131946A5F88A3004F070
:103B900085FF1D210D4807F0DBFA02210A4807F0D6
:103BA000D7FA0748BDE8F04704F028BFE094FF1FAC
:103BB0004893FF1F78250100BC2501008761188606
:103BC000C887FF1F9C250100BC300100C0250100F3
:103BD000C494FF1F5487FF1FA64B2DE9F0411B68BB
:103BE000A54CA64D40F2513108222160E271286DAA
:103BF000002B40F0EE8009F095FC6969064609F05B
:103C0000E5FC9F499D4F09F0E1FC09F0E1FE80B21F
:103C1000031263729B4A9C4B12681B68A969A372CA
:103C200015121B12E372227320726573304609F07D
:103C3000CDFC9349904D09F0C9FC09F0C9FE83B24F
:103C40001A1229469148A373E27303F0FDFE904BCC
:103C5000904A1B681288A272DEB206EB86012672B9
:103C600003EB8306490046F3D71640F2553E121285
:103C70004FF000081B1221736673294608268348FB
:103C8000C4F800E0E2726372E67184F80E8084F892
:103C90000F8003F0D9FE40F256337F482360E6716F
:103CA000FDF7F4FD7D4909F091FC09F091FE2072C9
:103CB0007948FDF7EBFD794909F088FC09F088FEA9
:103CC000774A7649C0F307236372106809F032FD22
:103CD00009F058FE40FA06F203466F48E272A372FA
:103CE000FDF70CFE664909F071FC09F04BFE2073EC
:103CF0006948FDF703FE624909F068FC09F042FEDD
:103D0000294640F307236148637384F80E8084F8E2
:103D10000F8003F099FE022005F0CCFC614A624B53
:103D200010785178207290786172D2781978A072E8
:103D3000987893F801E0E2722173DA78A07340F288
:103D40005A332946514884F80DE0E2732360E67146
:103D500003F07AFE554B4D481A78597822726172F9
:103D60009A78D978A272E1721A79597993F806E0B3
:103D700022736173DA7984F80EE040F25E332946EB
:103D8000E2732360E67103F05FFE022005F092FC0F
:103D9000474B3E481A785978227261729A78D978DE
:103DA000A272E1721A79597993F806E0227361736D
:103DB000DA79E6714FF45C732946236084F80EE0EB
:103DC000E27303F041FE3B4B1B68012B06D0BDE8BC
:103DD000F08109F0A7FB296A064610E72E48FDF797
:103DE0000BFDF96C09F0EAFA80462B48FDF72AFD35
:103DF0000146404609F088FD0028E8D040F2C33370
:103E00002548EE712B60FDF7F7FCBE6C314609F0DA
:103E10007BFDC8B12849304609F0D8FB09F0D8FD30
:103E200080B2031268722B7200230126042503223C
:103E3000A672E57222736373A373E3730E4913488A
:103E4000BDE8F04103F000BE1348FDF7D5FC1A4968
:103E500009F0BCFB09F0BCFDC0F307230E482B7230
:103E6000FDF7CAFC144909F0B1FB09F0B1FD687215
:103E7000DAE700BFF492FF1FF894FF1F4893FF1F7B
:103E800000002041D894FF1F5092FF1F1CC3FF1F4A
:103E90003887FF1F3C87FF1F7C95FF1F0000C8422B
:103EA0000893FF1F4493FF1FD094FF1F2C87FF1F11
:103EB0005887FF1FE894FF1F00007A44F0B59A4C22
:103EC0009A4D83B007F0DEF823682860042B00F0D9
:103ED000AA82092B7BD0022B4CD1A0F13102422ABD
:103EE0007ED8DFE812F02A0836084408EF005108AF
:103EF000620871081B087D007D007D007D007D004B
:103F00007D007D007D007D007D007D007D007D00C9
:103F10007D007D007D007D007D007D007D007D00B9
:103F20007D007D007D007D007D007D007D007D00A9
:103F30007D007D007D007D007D007D007D007D0099
:103F40007D007D007D007D007D0043007D007D00C3
:103F50007D007D007D007D007D007D007D007D0079
:103F60007D007D007D0079007D000E08FFF772FD69
:103F700023682868082B40F0B680332801F0B2840B
:103F800000F3F282312801F08284322828D107F030
:103F9000B5F8002841F361846548664E04F0C2FE1E
:103FA00009F0C0FA644909F011FBD6F8CC20D6F824
:103FB000C83096F840100092074602465F48776482
:103FC000FDF768FC01236920236028606FE3322835
:103FD00000F06383712803D10023732023602860DD
:103FE000002B08BF73280CBF01200020002867D0D9
:103FF0004F4804F003FD0421514807F0A9F84C484C
:1040000004F0FCFC10214F4807F0A2F8484804F0E7
:10401000F5FC13214C4807F09BF84C4B44481968B9
:1040200004F03CFD424804F0E9FC1421484807F044
:104030008FF83F4804F0E2FC1E21464807F088F85C
:104040003B4804F0DBFC1521434807F081F8384871
:1040500004F0D4FC1E21414807F07AF8344804F0FB
:10406000CDFC20213E4807F073F8314804F0C6FC2F
:1040700019213C4807F06CF82D4804F0BFFC1221D0
:10408000394807F065F82A4804F0B8FC1921374888
:1040900007F05EF8264804F0B1FC0F21344807F021
:1040A00057F8234804F0AAFC0D21324807F050F8D5
:1040B0001F4804F0A3FC304A002101231160236053
:1040C00003B0F0BD0123236007F018F8002807DDD6
:1040D0001748184E04F026FE09F024FAC6F890009E
:1040E000632023682860072B4AD1332801F0E78337
:1040F00000F32682312801F0B48332287FF470AFB8
:1041000006F0FCFF002839DD09480A4E04F00AFEDB
:1041100009F008FA084909F059FA61230122F0630D
:1041200022602B601846C2E21893FF1F0493FF1F02
:10413000C887FF1F4893FF1F6F12833A7C95FF1FAC
:104140001C2F0100242F0100382F01002487FF1F9E
:104150004C2F0100642F0100842F01009C2F0100CF
:10416000BC2F0100E02F0100FC2F010010300100E6
:104170002C3001003C3001004087FF1F2368286875
:10418000062B40F08D80A0F13102402A3FF628AF87
:1041900001A151F822F000BF754D0000954E0000BE
:1041A000514D00009F4D0000C34D0000DF4D000049
:1041B000014E0000E13F0000E13F0000E13F000050
:1041C000E13F0000E13F0000E13F0000E13F00006F
:1041D000E13F0000E13F0000E13F0000E13F00005F
:1041E000E13F0000E13F0000E13F0000E13F00004F
:1041F000E13F0000E13F0000E13F0000E13F00003F
:10420000E13F0000E13F0000E13F0000E13F00002E
:10421000E13F0000E13F0000E13F0000E13F00001E
:10422000E13F0000E13F0000E13F0000E13F00000E
:10423000E13F0000E13F0000E13F0000E13F0000FE
:10424000E13F0000E13F0000E13F0000E13F0000EE
:10425000E13F0000E13F0000E13F0000E13F0000DE
:10426000E13F0000E13F0000E13F0000E13F0000CE
:10427000E13F0000E13F0000E13F0000E13F0000BE
:10428000E13F0000E13F0000E13F0000E13F0000AE
:10429000E13F0000E13F0000D93F000023682868AB
:1042A000052B15D1332801F0488340F3748135285C
:1042B00001F06A83C1F2528371287FF491AEC14A42
:1042C0000023732013602360286089E62368286830
:1042D000032B40F0A480A0F13002422A3FF680AECA
:1042E00001A151F822F000BFF54300001F56000065
:1042F000475600008B550000AD550000CF5500001B
:10430000F75500006F5600008D560000B1560000B2
:10431000E13F0000E13F0000E13F0000E13F00001D
:10432000E13F0000E13F0000E13F0000E13F00000D
:10433000E13F0000E13F0000E13F0000E13F0000FD
:10434000E13F0000E13F0000E13F0000E13F0000ED
:10435000E13F0000E13F0000E13F0000E13F0000DD
:10436000E13F0000E13F0000E13F0000E13F0000CD
:10437000E13F0000E13F0000E13F0000E13F0000BD
:10438000E13F0000E13F0000E13F0000E13F0000AD
:10439000E13F0000E13F0000E13F0000E13F00009D
:1043A000E13F0000E13F0000E13F0000D95600007E
:1043B00093500000F7540000F75600001557000016
:1043C00015550000495000006D500000E13F00000D
:1043D000E13F0000E13F0000E13F0000E13F00005D
:1043E000E13F0000E13F0000E13F0000EB5400002E
:1043F0006B55000006F082FE002841F327827248C8
:10440000724E04F08FFC0127034601466222704879
:10441000736527602A60FDF73BFA23682868012B43
:104420007FF4DEAD43E1A0F13002412A3FF6D8AD82
:1044300001A151F822F000BF07500000374F0000E3
:10444000C14E0000D94E0000FF4E00001B5000007E
:1044500037500000DD4F0000E14F0000E54F000045
:10446000E13F0000E13F0000E13F0000E13F0000CC
:10447000E13F0000E13F0000E13F0000E13F0000BC
:10448000E13F0000E13F0000E13F0000E13F0000AC
:10449000E13F0000E13F0000E13F0000E13F00009C
:1044A000E13F0000E13F0000E13F0000E13F00008C
:1044B000E13F0000E13F0000E13F0000E13F00007C
:1044C000E13F0000E13F0000E13F0000E13F00006C
:1044D000E13F0000E13F0000E13F0000E13F00005C
:1044E000E13F0000E13F0000E13F0000E13F00004C
:1044F000E13F0000E13F0000E13F0000E13F00003C
:10450000E13F0000E13F0000E13F0000E13F00002B
:10451000E13F0000E13F0000E13F0000E13F00001B
:10452000E13F0000E13F0000E13F0000E13F00000B
:10453000E13F0000E13F0000E13F0000D93F000003
:1045400034287FF447AD06F0D9FD00287FF716AE7A
:104550001D481E4E04F0E6FB61230122A6F8BC00B4
:1045600022602B601846A2E034287FF433AD06F0B9
:10457000C5FD002841F371811348144E04F0D2FBAD
:104580004742D6F8C830726C96F840101048009731
:10459000C6F8CC7014E5312801F0BE8132287FF4D2
:1045A0001FAD06F0ABFD00287FF790AE0648074E22
:1045B00004F0B8FB01226B23C6F8A00022602B6038
:1045C0000AE000BFBC94FF1FC887FF1F4893FF1F6E
:1045D0007C95FF1F06F056FD06F090FD0028F9D1EE
:1045E000A44804F00BFAA34804F008FAA14804F028
:1045F00005FAA04804F002FA9E4804F0FFF92121D0
:104600009D4806F0A5FD9B4804F0F8F915219B484C
:1046100006F09EFDD6F89810964804F03FFA022165
:10462000974806F095FD934804F0E8F91E21954857
:1046300006F08EFDD6F8A0108E4804F02FFA032164
:10464000914806F085FD8B4804F0D8F91E218F486B
:1046500006F07EFDD6F89C10864804F01FFA8548C7
:1046600004F0CCF91D218A4806F072FDD6F8A81096
:10467000804804F013FA7F4804F0C0F91E218548F1
:1046800006F066FDD6F8AC107A4804F007FA7948CF
:1046900004F0B4F90523236012E57F4E96F8D0307C
:1046A00001225340782086F8D03022602860A0F1A3
:1046B0005203262B01F2C180DFE813F04D08BF083A
:1046C000BF08BF08BF08BF08BF08BF08BF08BF08B2
:1046D000BF08BF08BF08BF08BF082900760ADB0271
:1046E00034027A01BF08BF08BF080E01BF08730A71
:1046F000BF08BF08BF08BF08BF083B08BF08BF0806
:10470000BF08BF08BF08BF089D0006F0BBFC06F04D
:10471000F5FC05460028F8D156485F4E04F06EF9C6
:10472000544804F06BF9534804F068F9514804F018
:1047300065F9504804F062F91F21584806F008FD59
:104740004C4804F05BF91C21554806F001FD706AE5
:10475000544908F03BFF08F08FFA009502460B46DB
:10476000444804F0A5F902214F4806F0F1FC414805
:1047700004F044F923214D4806F0EAFCF06B494966
:1047800008F024FF08F078FA009502460B463948F5
:1047900004F08EF90221444806F0DAFC354804F0B2
:1047A0002DF91921424806F0D3FCB06B08F064FAE9
:1047B00002250B46024600952E4804F079F9294659
:1047C0003C4806F0C5FC2B4804F018F919213A487A
:1047D00006F0BEFCB6F8BC10264804F05FF90321D1
:1047E000364806F0B5FC234804F008F90723236097
:1047F00066E406F047FC06F081FC0028F9D11D486C
:1048000004F0FCF81B4804F0F9F81A4804F0F6F834
:10481000184804F0F3F8174804F0F0F81521284878
:1048200006F096FC134804F0E9F8124804F0E6F8A4
:104830002C21244806F08CFC0E4804F0DFF81921E6
:10484000214806F085FC144B93F8D030002B41F042
:10485000B6800E211D4806F07BFC064804F0CEF819
:1048600013211B4806F074FC024804F0C7F8092322
:10487000236025E4C887FF1F14290100382901009F
:104880002428010050290100A02401007029010002
:1048900090290100B02901004893FF1F70280100F2
:1048A0009028010000007A44D0260100B0280100C1
:1048B000D4280100F0280100F4280100102901008B
:1048C00014300100042601003426010050260100A6
:1048D0007426010006F0D6FB06F010FC0546002801
:1048E000F8D17D487D4E04F089F87B4804F086F8C5
:1048F000794804F083F8784804F080F8764804F0AA
:104900007DF81521764806F023FC734804F076F80C
:104910001821744806F01CFC2B460A2296F8401019
:104920006D4804F07BF86C4804F068F828216E4864
:1049300006F00EFC706C6D4908F048FE08F09CF91A
:10494000009502460B46644804F0B2F8022168481C
:1049500006F0FEFB604804F051F81921654806F0A6
:10496000F7FBD6F8C80008F087F904250B46024685
:104970000095594804F09CF8574804F03FF8182176
:104980005D4806F0E5FBD6F8CC10534804F086F8F5
:10499000514804F033F81321584806F0D9FB4E482B
:1049A00004F02CF808232360FFF78ABB06F06AFBAB
:1049B00006F0A4FB05460028F8D14748474E04F00E
:1049C0001DF8454804F01AF8434804F017F8424827
:1049D00004F014F8404804F011F81121484806F09A
:1049E000B7FB3D4804F00AF82821464806F0B0FB22
:1049F00070693E4908F0EAFD08F03EF9009502466C
:104A00000B46354804F054F80221394806F0A0FB63
:104A1000314803F0F3FF16213B4806F099FBF0699B
:104A2000324908F0D3FD08F027F900950B460246FD
:104A3000294804F03DF802212D4806F089FB26485C
:104A400003F0DCFFD6F8B430002B32DD1D212F48F7
:104A500006F07EFBF06D08F065FD2D4908F0B6FD0F
:104A600008F00AF9022502460B4600951A4804F0A0
:104A70001FF80121274806F06BFB174803F0BEFF23
:104A80001F21254806F064FB306E08F04BFD2049DD
:104A900008F09CFD08F0F0F8009502460B460E4821
:104AA00004F006F801211B4806F052FB0A4803F007
:104AB000A5FF1121194806F04BFBD6F8B430062BA0
:104AC00000F26686DFE813F0AF06B406AA06A50674
:104AD000A0069B06600600BFC887FF1F4893FF1F04
:104AE000E42F010088260100A426010000007A447A
:104AF000D0260100D4260100F02601007426010012
:104B0000882F01000C2701003827010050270100E1
:104B1000CDCCCC3D102C0100702701009027010066
:104B200006F0B0FA06F0EAFA0028F9D1B94803F025
:104B300065FFB84803F062FFB64803F05FFFB54871
:104B400003F05CFFB34803F059FF1321B24806F0AD
:104B5000FFFAB04803F052FF0D21B04806F0F8FA12
:104B6000AC4803F04BFF0F21AD4806F0F1FAAD4B16
:104B7000A848196803F092FFA64803F03FFF1321ED
:104B8000A94806F0E5FAA94BA248196803F086FF88
:104B9000A04803F033FF1221A54806F0D9FAA54B2F
:104BA0009C48196803F07AFF9A4803F027FF112107
:104BB000A14806F0CDFAA14B9648196803F06EFFA4
:104BC000944803F01BFF0E219D4806F0C1FA9D4B4F
:104BD0009048D3F8A41003F061FF8E4803F00EFF55
:104BE0001921994806F0B4FA984B8A48196803F0DD
:104BF00055FF884803F002FF1121954806F0A8FAF6
:104C0000944B8448196803F049FF824803F0F6FE8C
:104C10001021914806F09CFA904B7E48196803F0E9
:104C20003DFF7C4803F0EAFE1C218D4806F090FA17
:104C30008C4B7848196803F031FF764803F0DEFEAC
:104C40001B21894806F084FA884B7248197803F0D2
:104C500025FF704803F0D2FE1321854806F078FA4C
:104C60006C4803F0CBFE04232360FFF729BA06F05B
:104C700009FA06F043FA0028F9D16648714E03F0AC
:104C8000BDFE644803F0BAFE624803F0B7FE614817
:104C900003F0B4FE5F4803F0B1FE1F21754806F033
:104CA00057FA5C4803F0AAFE1E21734806F050FA3A
:104CB000584803F0A3FE1A21704806F049FAF36F32
:104CC000022B00F04387032B00F03787012B00F005
:104CD000468709216A4806F03BFA4E4803F08EFEEB
:104CE00014216848574D06F033FAB16F494803F074
:104CF000D5FE484803F082FE1C21634806F028FADE
:104D0000D6F88410434803F0C9FE424803F076FE0B
:104D10001C215E4806F01CFAD6F8B0103D4803F09E
:104D2000BDFE3C4803F06AFEF36F23F00202012A45
:104D300000F08086022B00F01B8713214C4806F000
:104D400007FA344803F05AFE02232360FFF7B8B98C
:104D500006F0D4F900287FF7A1AA2E48394E03F0B7
:104D6000E1FF00EB8000430001226520F365226033
:104D700028609CE406F0C2F900287FF78FAA254836
:104D8000304E03F0CFFF08F0CDFB414908F0D2FCD4
:104D900065230122706122602B60184687E406F0CB
:104DA000ADF900287FF77AAA1A48264E03F0BAFF19
:104DB00000EB8000430001226520336622602860FA
:104DC00075E4204AD2F8B4300133062BC8BF002363
:104DD000C2F8B430012365202360286067E406F040
:104DE0008DF900287FF75AAA0A48164E03F09AFF59
:104DF00065230122C6F8B80022602B60184656E4ED
:104E0000104B93F8C420002A00F0D485002283F8C8
:104E1000C420DFE7C887FF1FD0290100E429010073
:104E2000F42901009C94FF1F042A01000C95FF1F28
:104E3000182A0100F094FF1F2C2A01007092FF1F16
:104E4000402A01004893FF1F502A0100C094FF1F11
:104E50006C2A0100BC94FF1F802A0100F494FF1FFC
:104E6000942A01006087FF1FB42A01009894FF1F55
:104E700074260100D02A0100F02A0100102B010045
:104E8000882B0100942B0100AC2B0100CC2B0100DE
:104E900000007A4406F032F900287FF7FFA9844821
:104EA000844E03F03FFF08F03DFB834908F042FCCD
:104EB00065230122F06122602B601846FFF7F7BBE3
:104EC0007E4A1368B3FA83F35B09012164201360FF
:104ED00021602860FFF7EBBB794A7A4F1368002BFB
:104EE0000CBF012300234FF001001360206040F04D
:104EF0000E86034664222A606420FEF7ECBF724AE5
:104F0000DFE76C4AD36F0133032BC8BF0023D3679D
:104F10000123632023602860FFF7C9BB01232360BE
:104F200006F0ECF80028F3DD6148624E03F0FAFE6B
:104F3000C6F89400ECE7654AC3E75E4EB36FB3FA78
:104F400083F35B0901226320B36722602860FFF7C7
:104F5000AEBB584ED6F88430B3FA83F35B09012216
:104F60006320C6F8843022602860FFF7A0BB0123CD
:104F7000236006F0C3F80028CADD4D484D4E03F00B
:104F8000D1FEC6F8B000C3E70123236006F0B6F8EF
:104F900000287FF7A5A84648464E03F0C3FE08F058
:104FA000C1FAC6F88C00FFF79BB80123236006F016
:104FB000A5F800287FF794A83D483E4E03F0B2FEC6
:104FC000A6F8BE00FFF78CB83A4BD3F88020012A30
:104FD0000CBF02220122C3F8802099E73C4A70E707
:104FE0003C4A6EE70123236006F088F8002800F3AE
:104FF000EF84394B1A68042AC4BF02221A60642362
:105000002B60236878E7354A137801214B406420F0
:10501000137021602860FFF74ABB264ED6F8A430F3
:10502000B3FA83F35B0901226420C6F8A43022603E
:105030002860FFF73CBB012329482360FCF7C0FA36
:10504000284A2368106055E706F058F800280DDD5F
:105050001748184E03F066FE08F064FA164908F087
:1050600069FB01226223306222602B6006F046F861
:1050700000280EDD0E480F4E03F054FE08F052FAE1
:105080000D4908F057FB01226223C6F8C0002260D8
:105090002B6006F033F8002840F3D8830448054E0F
:1050A00003F040FE01226223B06622602B601DE007
:1050B000C887FF1F4893FF1F00007A440C95FF1F0D
:1050C000F094FF1F1893FF1F7092FF1F9C94FF1F07
:1050D000BC94FF1FF494FF1F6087FF1F9894FF1F6D
:1050E0007C95FF1FC094FF1F05F0CCFF06F006F86B
:1050F00005460028F8D1C24803F080FCC04803F000
:105100007DFCBF4803F07AFCBD4803F077FCBC4847
:1051100003F074FC1521BB4806F01AF8B84803F0F8
:105120006DFC1421B84806F013F8B54803F066FC8E
:105130001B21B64806F00CF8B14803F05FFC1321C0
:10514000B34806F005F8AE4803F058FCAC4803F04D
:1051500055FCAB4803F052FC2021AE4805F0F8FFA7
:10516000F068AD4908F032FA07F086FD0095024676
:105170000B46A34803F09CFC0221A84805F0E8FF79
:105180000221A74805F0E4FF9D4803F037FC2121E8
:10519000A44805F0DDFF30699F4908F017FA07F0D1
:1051A0006BFD009502460B46954803F081FC0221F9
:1051B0009A4805F0CDFF0221994805F0C9FF9048B3
:1051C00003F01CFC1F21984805F0C2FFB06A07F0ED
:1051D00053FD022702460B460097894803F068FCFE
:1051E0000121924805F0B4FF39468D4805F0B0FF23
:1051F000834803F003FC20218D4805F0A9FFF06AE5
:1052000007F03AFD009702460B467D4803F050FC3C
:105210000121864805F09CFF3946814805F098FF3A
:10522000774803F0EBFB2321824805F091FFB06C37
:10523000794908F0CBF907F01FFD009502460B46AF
:105240006F4803F035FC3946744805F081FF394654
:10525000734805F07DFF6A4803F0D0FB1F217648B4
:1052600005F076FFF06C6C4908F0B0F907F004FD2A
:10527000009502460B46624803F01AFC394667481F
:1052800005F066FF3946664805F062FF5C4803F0AA
:10529000B5FB1921694805F05BFFB16D584803F073
:1052A000FDFB3946664805F053FF39465C4805F07A
:1052B0004FFF534803F0A2FB1821624805F048FF56
:1052C000706E08F02FF9604908F080F907F0D4FCFF
:1052D000009702460B464A4803F0EAFB01215B486F
:1052E00005F036FF39464E4805F032FF444803F0DA
:1052F00085FB2B21564805F02BFFB069464908F085
:1053000065F907F0B9FC009502460B463C4803F0EE
:10531000CFFB3946414805F01BFF3946404805F0B0
:1053200017FF374803F06AFB1F214A4805F010FFBA
:10533000716D334803F0B2FB3946394805F008FF78
:105340002F4803F05BFB2021434805F001FF316D3E
:105350002B4803F0A3FB3946314805F0F9FE2848F5
:1053600003F04CFB10213D4805F0F2FEB16E2448DD
:1053700003F094FB3946294805F0EAFE39462848EF
:1053800005F0E6FE1E4803F039FB1321344805F012
:10539000DFFEF16E1A4803F081FB0121314805F070
:1053A000D7FE39461E4805F0D3FE154803F026FB0C
:1053B00010212D4805F0CCFE316F114803F06EFB33
:1053C0003946164805F0C4FE3946154805F0C0FEBA
:1053D0000B4803F013FB1421244805F0B9FE716F4C
:1053E000074803F05BFB01211E4805F0B1FE39467A
:1053F0000B4805F0ADFE024803F000FB162137E034
:10540000C887FF1FBC2C0100D42C0100EC2C01002C
:1054100074260100082D010000007A44D026010006
:10542000BC3001002C2D0100502D0100682101002D
:10543000702D0100942D0100B82D0100D82D010020
:10544000F42D0100F82D0100CDCCCC3D102C010035
:10545000142E0100402E0100602E0100842E010058
:10546000982E0100AC2E0100B02E0100C42E0100C8
:10547000BA4805F06DFE306AB94908F0A7F807F0A0
:10548000FBFB009502460B46B64803F011FB39467C
:10549000B54805F05DFE3946B44805F059FEB148FF
:1054A00003F0ACFA2421B24805F052FED6F8C00051
:1054B000AB4908F08BF807F0DFFB00950B4602467E
:1054C000A84803F0F5FA3946A74805F041FE3946E9
:1054D000A64805F03DFEA34803F090FAA14803F06A
:1054E0008DFA03232360FEF7EBBD002273232260B5
:1054F0002B60FEF77DBD05F001FE002840F3A6817C
:1055000098489C4E03F00EFC01226223F066226054
:105510002B60EBE5FCF790FE02219448954E05F0D8
:1055200017FE904803F06AFA0221904805F010FE39
:105530008C4803F063FA02218C4805F009FE894883
:1055400003F05CFA17218C4805F002FE854803F051
:1055500055FA0221854805F0FBFD824803F04EFA1A
:105560000122622322602B60C0E5844B7F48814E7C
:10557000002202211A6005F0EBFD7A4803F03EFAA2
:105580000B217F4805F0E4FDE3E705F0B7FD0028B7
:1055900040F35C817348774E03F0C4FB07F0C2FF11
:1055A00001226223B06222602B609FE505F0A6FD18
:1055B000002840F34B816B486E4E03F0B3FB07F0BD
:1055C000B1FF01226223F06222602B608EE505F0BC
:1055D00095FD002840F33A816248664E03F0A2FB35
:1055E00007F0A0FF5E4908F0A5F801226223B0642D
:1055F00022602B607AE505F081FD002840F32681CA
:1056000058485C4E03F08EFB07F08CFF544908F0BD
:1056100091F801226223F06422602B6066E505F0B8
:105620006DFD002840F312814E48524E03F07AFB84
:1056300007F078FF4A4908F07DF801226223F06004
:1056400022602B6052E505F059FD002840F3FE80F2
:105650004448484E03F066FB07F064FF404908F0F9
:1056600069F801226223306122602B603EE505F07B
:1056700045FD002840F3EA803A483E4E03F052FBD5
:1056800001226223B06522602B602FE505F036FD14
:10569000002840F3DB803348364E03F043FB00EB39
:1056A0008000430001216222736621602A601DE5AB
:1056B00005F024FD002840F3C9802A482D4E03F050
:1056C00031FB07F02FFF264908F034F8012262234E
:1056D000B06122602B6009E505F010FD002840F361
:1056E000B5802048234E03F01DFB01226223306564
:1056F00022602B60FAE405F001FD002840F3A6804B
:1057000018481C4E03F00EFB012262233067226012
:105710002B60EBE405F0F2FC002840F39780114881
:10572000144E03F0FFFA01226223706722602B609F
:10573000DCE4D42200210F4803F0E8FB2868114A7A
:10574000A0F1730001210023B0FA80F0400911603C
:105750002360FEF74BBC04F063FE00BFDC2E0100AB
:1057600000007A44C887FF1FD0260100BC3001002A
:10577000F42E01004893FF1FE02501006C92FF1FEB
:10578000F82501004087FF1F0421954805F0E0FC43
:105790009448954D03F032F9D6F8B430002B12DD61
:1057A0001821924805F0D4FCD5F8B8108D4803F0C4
:1057B00075F902218E4805F0CBFC8A4803F01EF9EA
:1057C000884803F01BF91B218A4805F0C1FC96F8B4
:1057D000C430012B15BF122114218748874805F0DA
:1057E000B7FC804803F00AF91321854805F0B0FCA6
:1057F0007C4803F003F906232360FEF761BC0B210C
:10580000804805F0A5FCC3E70D217F4805F0A0FC0A
:10581000BEE70D217D4805F09BFCB9E70C217C48D3
:1058200005F096FCB4E70D217A4805F091FCAFE74E
:105830000C21794805F08CFCAAE72368002B08BFEF
:1058400073280CBF01200020FEF7D0BB2368286816
:10585000012B7EF4C5ABFEF72ABF23682868FEF74C
:1058600042BC05F04BFC00287EF788AC5D485E4EDC
:1058700003F058FA07F056FE684907F0A7FE6123C7
:105880000122706222602B601846FEF710BF05F0FF
:1058900035FC002800F38680534E96F84000D6F879
:1058A000C830726C032894BF01460021D6F8CC00A2
:1058B00088BF86F8401000905948FEF781BB05F07C
:1058C0001DFC00287EF75AAC4648474E03F02AFAE2
:1058D00007F028FE61230122B06322602B60184686
:1058E000FEF7E5BE05F00AFC0028B6DD3D483E4E59
:1058F00003F018FA07F016FE4A4907F067FED6F8DB
:10590000CC30726C96F84010009307460346C6F8F8
:10591000C8704348FEF754BB05F0F0FB00287EF743
:10592000D5AC3048304E03F0FDF901226B23C6F8A8
:10593000980022602B60FEF74FBE05F0DFFB0028C9
:105940007EF7C4AC2748284E03F0ECF901226B2304
:10595000C6F89C0022602B60FEF73EBE05F0CEFB31
:1059600000287EF7B3AC1F481F4E03F0DBF92E4B27
:10597000C6F8A80002221A60FCF7F2FF01226B238E
:1059800022602B60FEF728BE05F0B8FB00287EF7EA
:105990009DAC1448144E03F0C5F9234BC6F8AC0077
:1059A0000322E8E70F48104E03F0BCF9C0B286F8B6
:1059B000400074E7012283F8C420FFF70BBA1121DD
:1059C0001A4805F0C5FB074803F018F8FEF748BF72
:1059D000044803F0A7F9164B02461860FFF70BBB0B
:1059E00000280100C887FF1F4893FF1F08280100F7
:1059F000242801002828010044280100582801001B
:105A000074260100F4270100E4270100D4270100D7
:105A1000C4270100A4270100B42701006F12833AB4
:105A20007C95FF1F17B7D138BC94FF1F602601007B
:105A30006087FF1F1C215E4805F08AFBD5F89000A7
:105A40005C4907F0C3FD07F017F902270B46024631
:105A50000097594803F02CF80521584805F078FBC9
:105A6000554802F0CBFFEB6F012B18D11D21544894
:105A700005F06EFBD5F88C004E4907F0A7FD07F046
:105A8000FBF800970B4602464B4803F011F805213E
:105A90004A4805F05DFB484802F0B0FFEB6F23F089
:105AA0000202012A7FF446A91C214648464D05F012
:105AB0004FFBB6F8BE10404802F0F0FF0321434808
:105AC00005F046FB3C4802F099FFF36F012B7FF491
:105AD00031A91F213E4805F03BFBD5F8940007F0A3
