:1000000000800020BD0100003D950000F594000037
:10001000F5940000F5940000F5940000F5940000BC
:10002000F5940000F5940000F59400003D95000063
:100030003D950000F5940000D5B90000D9B9000045
:100040003D9500003D9500003D9500003D95000068
:100050003D9500003D9500003D9500003D95000058
:100060003D9500003D9500003D9500003D95000048
:100070003D9500003D9500003D9500003D95000038
:100080003D9500003D9500003D9500003D95000028
:100090003D9500003D9500003D9500003D95000018
:1000A0003D9500003D9500003D9500003D95000008
:1000B0003D950000B9880000C5880000C98800008F
:1000C000D5880000D9880000DD8800003D9500003B
:1000D0003D9500003D9500003D9500003D950000D8
:1000E0003D9500003D9500003D9500003D950000C8
:1000F0003D9500003D9500003D95000005A30000E2
:100100003D95000019AA00003D9500003D950000B6
:100110003D9500003D9500003D9500003D95000097
:100120003D9500003D9500003D9500003D95000087
:100130003D9500003D9500003D9500003D95000077
:100140003D9500003D9500003D9500003D95000067
:10015000A5BD0000B9BD0000CDBD0000E1BD00009F
:100160003D95000009AD00003D9500003D95000063
:100170003D9500003D9500003D9500003D95000037
:100180003D9500003D9500003D9500003D95000027
:100190003D9500003D9500003D9500003D95000017
:1001A0003D9500003D9500003D9500003D95000007
:1001B0003D9500003D9500003D950000564B4CF2EA
:1001C000205210B51A804DF628121A8000BF00BFC9
:1001D00009F0B8F9514B4FF010621A60504A9A601A
:1001E000504ADA60504A136813F4807304D14F49BF
:1001F0000B604FF4A85313604D4B1A78110703D5C9
:100200001A7842F008021A704A4B4B492A221A7097
:100210004A4A4B4B8B4204D252F8040F43F8040B6A
:10022000F8E7484B484900228B4202D243F8042B9E
:10023000FAE74649464A002352F8230041F82300D2
:1002400001336F2BF8D1434B434A802103F8011B44
:100250009342FBD1414B3D4A1A60414B8A221A70AE
:10026000A3F5805324225A70A0221A709A7992071B
:10027000FCD59A79D406FCD43A4A937903F00C035E
:10028000082B384BF9D103221A7140225A719A79FE
:100290009006FCD5334A9179324B4906FBD5324A58
:1002A000324911600221516020221A709A7902F0BD
:1002B0000C020C2AFAD12E4B2E4A1A602E4B2F4AD2
:1002C0001A6000225A60072243F8042C2C4AC3F813
:1002D0000C2D62B609F0EEFB144B1B68DA0705D54E
:1002E000284809F0C9F9284B284A1A60284B1B787E
:1002F0005B0609D5244C254B22689A4204D121483B
:1003000009F0BAF90023236009F022F90DF0EEFBA1
:100310000BF00CFFFEE700BF0E20054030800440CC
:10032000823F04000100002B10D0034014D0034092
:1003300002D0074000E007408892FF1F30370100DD
:100340002087FF1F8892FF1FD4C8FF1F0082FF1F56
:100350000000000000E400E05FE400E008ED00E0E1
:100360000050064000400640448004400000030165
:1003700004800440C010050014E000E0FF76010096
:1003800000002020C9773C621CE00340A5C3945ABA
:1003900000F00740FFFFFFFFFFFFFFFFFFFFFFFF32
:1003A000FFFFFFFFFFFFFFFFFFFFFFFFFFFFFFFF5D
:1003B000FFFFFFFFFFFFFFFFFFFFFFFFFFFFFFFF4D
:1003C000FFFFFFFFFFFFFFFFFFFFFFFFFFFFFFFF3D
:1003D000FFFFFFFFFFFFFFFFFFFFFFFFFFFFFFFF2D
:1003E000FFFFFFFFFFFFFFFFFFFFFFFFFFFFFFFF1D
:1003F000FFFFFFFFFFFFFFFFFFFFFFFFFFFFFFFF0D
:10040000FFFFFFFFFFFFFFFFFFFFFFFFDEF9FFFF23
:1004100010B5054C237833B9044B13B10448AFF33E
:1004200000800123237010BD8892FF1F0000000090
:100430002C370100084B10B51BB108490848AFF331
:1004400000800848036803B910BD074B002BFBD0A0
:10045000BDE81040184700BF000000008C92FF1F4D
:100460002C3701008892FF1F00000000F0B400F15B
:100470001C06154F00243146031F00F13C0243F8CF
:10048000044FB34241F8047F4FF0000542F8044F97
:10049000F5D100230D4A0E4E056647F230544FF059
:1004A000804145668566C566C5674667A0F8AE406B
:1004B0000267826780F8843080F8853080F89C304D
:1004C000C0F88010F0BC70470000A0400000484316
:1004D0000000C8C290F88C00704700BF90F88800F8
:1004E000704700BF90F89000704700BF90F89400EC
:1004F000704700BF082994BF50F8210000207047C2
:100500002DE9F0410B4E8046041F00F11C0754F802
:10051000045F314628460DF0E3F830B1D8F880107A
:1005200028460DF0FBF800B12E46BC42EFD1304614
:10053000BDE8F081000020412DE9F041D0F8807045
:100540004FF00008041F00F11C0654F8045F394600
:1005500028460DF0E3F8084948B128460DF0C0F8E8
:10056000414620B128460DF0D9F800B1A846B44262
:10057000EBD14046BDE8F081000070422DE9F04724
:10058000D0F8807082464FF00009041F00F11C066D
:100590004FF0000854F8045F394628460DF0BEF8C5
:1005A0000E4950B128460DF09BF830B14846294617
:1005B0000CF0F0FD08F101088146B442EAD1B8F12F
:1005C000000F01D0CAF8A08040460CF097FE01460B
:1005D00048460CF09BFFBDE8F08700BF000070426A
:1005E000D0F8A000704700BFD0F8983070B505462D
:1005F00073B9866E446E314620460DF071F8A0B195
:10060000ED6E204629460DF06BF800B3204670BD14
:10061000012B14D0022B1FD0032B1BD00C2B1DD071
:10062000172B1FD00D2B1BD070BDEC6E3046214612
:100630000DF056F80028E9D03446204670BDC46E4F
:10064000AD6E204629460DF04BF80028DED12C4631
:10065000204670BD446EF3E7446ED1E7C46ED5E723
:10066000846ED3E7446ED1E7D0F8983070B5054674
:1006700073B9866E446E314620460DF04FF8A0B136
:10068000ED6E204629460DF049F800B3204670BDB6
:10069000012B14D0022B1FD0032B1BD00C2B1DD0F1
:1006A000172B1FD00D2B1BD070BDEC6E3046214692
:1006B0000DF034F80028E9D03446204670BDC46EF1
:1006C000AD6E204629460DF029F80028DED12C46D3
:1006D000204670BD446EF3E7446ED1E7C46ED5E7A3
:1006E000846ED3E7446ED1E72DE9F04F022987B03D
:1006F0000746144600F02E81032900F0C48001292A
:1007000000F0838097F8AC3001933846FFF76CFF18
:10071000396F04460CF0E4FF00B13C673846FFF740
:10072000A3FF796F04460CF0F9FF00B17C6707F175
:100730001C0BA7F1040A07F13C095D46D0464E4662
:1007400058F8044F55F8040F21460CF0E7FF30B17C
:10075000D7F8801020460CF0D7FF00B12C6056F877
:10076000041F20460CF0DAFF00B13460A945E7D140
:10077000019B002B7ED0A84CD7F8A82023680393B8
:10078000039BB7F8AE109B1A8B420DD300224AF898
:10079000042FD3454FF00003F9D13B667B66BB665F
:1007A000FB6607B0BDE8F08F23680493049BC91A69
:1007B0000A4441F287339A42F3D8022197480AF05B
:1007C000E3FF97480BF016FB062196480AF0DCFF82
:1007D00000230A2297F89C1091480BF01FFB192167
:1007E00091480AF0D1FF23680593059AB7F8AE3017
:1007F000D7F8A8108A489B1A19440A2200230BF044
:100800000DFB87480BF0F6FACBE7137A80F8A4309B
:10081000D0F8B400D7F8B0600CF070FDE37A05466C
:10082000A07A03EB00200CF069FD31460CF0BAFD14
:1008300029460CF0AFFC7866637B207B03EB00203D
:100840000CF05CFD31460CF0ADFD29460CF0A2FC2D
:10085000B866E37BA07B03EB00200CF04FFD314634
:100860000CF0A0FD29460CF095FC97F8AC300193F4
:10087000F8664AE7684B1B680293029BC7F8A830EA
:1008800007B0BDE8F08F107A537A03EB00200CF02C
:1008900035FD66490CF086FDD7F88050294606469E
:1008A0000CF03CFF40B1624930460CF019FF18B122
:1008B00000233E6187F8AC30E37AA07A03EB002096
:1008C0000CF01CFD59490CF06DFD0646014628460A
:1008D0000CF006FF40B1564930460CF001FF18B14C
:1008E00000237E6187F8AC30637B207B03EB002024
:1008F0000CF004FD4D490CF055FD06460146284616
:100900000CF0EEFE40B14A4930460CF0E9FE18B159
:100910000023BE6187F8AC30E37BA07B03EB0020B3
:100920000CF0ECFC41490CF03DFD04460146284624
:100930000CF0D6FE00283FF4E5AE3D4920460CF011
:10094000CFFE00283FF4DEAE0023FC6187F8AC3018
:100950000193DAE6107A537A03EB00200CF0CEFC18
:1009600032490CF01FFDD7F88050294606460CF09E
:10097000D5FE00285ED1012387F8AC30E37AA07A57
:1009800003EB00200CF0BAFC28490CF00BFD0646E6
:10099000014628460CF0A4FE00285FD024493046CA
:1009A0000CF09EFE002859D000237E6087F8AC3002
:1009B000637B207B03EB00200CF0A0FC1B490CF0B8
:1009C000F1FC0646014628460CF08AFE002841D07C
:1009D000174930460CF084FE00283BD00023BE604F
:1009E00087F8AC30E37BA07B03EB00200CF086FCA7
:1009F0000E490CF0D7FC0446014628460CF070FE68
:100A000018B30B4920460CF06BFEF0B10023FC60DC
:100A100087F8AC30019378E65CC6FF1F102D01000B
:100A20002888FF1F90190100981901006F12833A5E
:100A3000000070420B4930460CF052FE00289AD05C
:100A400000233E6087F8AC3098E7012387F8AC308C
:100A500001935AE6012387F8AC30C3E7012387F8F6
:100A6000AC30A5E700007042D0F8983010B50446CD
:100A700063B1012B15D0022B1ED0032B25D00C2BDC
:100A80002CD0172B2CD00D2B14D010BD816E406EA6
:100A90000CF080FBE16E0CF07DFB12490CF036FD92
:100AA00010BDC16E806E0CF075FB4FF07C510CF0E8
:100AB00079FC10BD806E10BDC16E406E0CF06AFBFB
:100AC0004FF07C510CF06EFC10BD816E406E0CF04E
:100AD00061FB4FF07C510CF065FC10BDC06E10BD89
:100AE000406E10BD000040402DE9F8430026D0F8CC
:100AF000808006668146044600F1200754F8045BB6
:100B0000414628460CF00AFE084950B128460CF030
:100B1000E7FD30B1304629460CF03CFB0646C9F8EB
:100B20006000BC42EAD13046BDE8F8830000704264
:100B300002299ABF00EB8100406E0020704700BF81
:100B40003E2998BF80F89C10704700BF90F8A40021
:100B5000704700BF90F88400704700BF90F8850090
:100B6000704700BFC0F89810704700BF80F884102D
:100B7000704700BF80F88510704700BF30B5C0F8DF
:100B8000801083B008460BF063FF074C0225024635
:100B90000B46009520460BF08BF9204603B0BDE8CC
:100BA00030400BF027B900BF2888FF1FC0F8B010F5
:100BB000C0F8B420704700BFF8B500F536550646BA
:100BC000043500F13C042046B834FFF74FFCAC423A
:100BD000F9D106F1F405012428460021FFF7C6FFEC
:100BE000214628460134FFF7ABFF3F2C05F1B8053D
:100BF000F2D142F69051002242F6CC53725442F6A2
:100C0000F45742F61C6542F6C85442F6F05042F6DC
:100C10001861F2500023F251725133513350104C8D
:100C2000735006F537500F490F4F104D716206F59E
:100C300036520146F4620446B3627361F36137636E
:100C4000356224320C303431043442F8043FA2427D
:100C500040F8043F41F8043FF7D13046F8BD00BFEB
:100C60000000484300007A440000C8C26F12833A73
:100C700038B500F1F404012504E001353F2D04F1FD
:100C8000B80411D02046FFF765FF0028F5D02046B4
:100C90000021FFF76BFF294620460135FFF750FF83
:100CA0003F2D04F1B804EDD138BD00BF70B500F59B
:100CB0003656043600F1F404002507E001252046ED
:100CC0000021B834FFF756FFB4420AD02046FFF7A0
:100CD00041FF0028F3D02046FFF740FF0028EDD168
:100CE00070BD284670BD00BF2DE9F04142F6945317
:100CF00000F53656374600228046C2500436143777
:100D000000F1F40402E0B834B4420DD02046FFF7FD
:100D100021FF0028F7D020463D68FFF761FCB8347A
:100D20002844B4423860F1D142F6945358F8030095
:100D3000BDE8F081F8B50E46096801F47F65002929
:100D40000446A5F5C06515DB2D0901F00F07B82392
:100D500003FB05443C3420460121FFF707FF2046F2
:100D60000121FFF707FF324639462046BDE8F8402B
:100D7000FFF7BABC0A4801F00F070BF03BF812214D
:100D800008480AF001FD3168054801F000410023E0
:100D90000A220BF043F802482D090BF02BF8D6E796
:100DA0002888FF1FB41901002DE9F04100F1F40477
:100DB00000F53656DFF854800746254604362846A7
:100DC000FFF7C8FEB83508B1C7F81080B542F6D1B4
:100DD0002046FFF7BFFE38B9B834B44213D02046DE
:100DE000FFF7B8FE0028F7D02046FFF789FB3969E6
:100DF0000CF076FC0028EFD02046FFF781FBB834DA
:100E0000B4423861EBD17869BDE8F0810000A040C0
:100E10002DE9F04100F1F40400F5365607464FF095
:100E20000008254604362846FFF794FEB83508B179
:100E3000C7F81880B542F6D12046FFF78BFE38B9C7
:100E4000B834B44213D02046FFF784FE0028F7D010
:100E50002046FFF771FBB9690CF060FC0028EFD069
:100E60002046FFF769FBB834B442B861EBD1F869AA
:100E7000BDE8F0812DE9F047064682B0FFF794FF08
:100E80003046FFF7C5FFF569002128460CF01EFC2F
:100E900010BBD6F81880D6F81090746949462046E1
:100EA0000CF076F9002107460CF038FC002800F021
:100EB00031813846376A39460CF030FCE8B1494692
:100EC00020460CF02BFC002800F017812046394604
:100ED0000CF05EF9706112E07469002120460CF09C
:100EE000F5FBD6F81880002800F004813469C6F8B4
:100EF0001C8045467461A146D0E7C6F8149041466F
:100F000028460CF045F9002104460CF007FC0028A7
:100F100000F0FD80204639460CF000FC60B14046F0
:100F200029460CF0DDFB002800F0DE80394628461B
:100F30000CF02EF9F06101E0C6F81C80B4680021C5
:100F400020460CF0EBFB30B1784920460CF0C8FB92
:100F5000002840F0A4803446002344F8F43B0125E7
:100F600004E001353F2D04F1B80466D02046FFF7B8
:100F7000F1FD0028F5D06E4800F052FD29466D487D
:100F800000F04EFD2046FFF7AFFD0BF061FD02467D
:100F90000B46694800F044FD2046FFF7B1FA804651
:100FA0002046FFF7C9FA074640460BF051FD804640
:100FB000384689460BF04CFD42464B46CDE90001D0
:100FC0005E4800F02DFD00212046FFF7B1FD012114
:100FD00080462046FFF7ACFD074640460BF038FD43
:100FE0008046384689460BF033FD42464B46CDE9F4
:100FF0000001534800F014FD2046FFF775FD01463F
:1010000030680CF0C7F830602046FFF7EDFAF16A5F
:101010000CF066FB002834D12046FFF725FB316B2E
:101020000CF07CFB00289CD02046FFF71DFB01350F
:101030003F2D306304F1B80498D170680CF05EF96C
:10104000014630680CF062FAB16A306004460CF078
:1010500065FB00B1B462716A20460CF041FB00B13F
:1010600074620B2008F0A2FC42F69053F35C68B95E
:10107000002B48D042F690530122F25402B0BDE852
:10108000F0872046FFF7B0FAF062C5E7002B44D1A5
:1010900042F690530022F25402B0BDE8F08742F6C7
:1010A000CC5A42F6A85856F80A5042F6C85706EBF2
:1010B0008509F05959F808100CF06AF849F8084009
:1010C000014620460CF066F80135072DC8BF002305
:1010D000F0514FF07851D4BF46F80A5046F80A3024
:1010E0000CF060F9F06036E7294638460CF052F80B
:1010F000F06123E7D6F81090D0E6214638460CF090
:1011000049F87061FBE60F4800F0B8FCB2E704F163
:10111000004000E707F10040CCE60B4800F098FCE7
:1011200042F690530022F254B6E700BF000020417F
:1011300070200100C8190100041A0100181A0100EA
:10114000441A0100601A0100981A010000687047F3
:10115000416070472DE9F84342F69C5642F6A0558F
:1011600042F6985E42F6A454815140F80E20089E43
:10117000435100F536550651894690461F460435C1
:1011800000F1F40402E0B834AC4214D02046FFF77A
:10119000E1FC0028F7D020464946FFF7E3FC204653
:1011A0004146FFF7EBFC204632463946B834FFF79C
:1011B000FDFCAC42EAD1BDE8F88300BF2DE9F04365
:1011C00042F6885300F536550027C7502E463A4A56
:1011D0003A4B826383B080464FF000094363043585
:1011E000083600F1F40402E0B834A54213D02046DA
:1011F000FFF7B0FC0028F7D0336801333360204696
:10120000FFF732FC2E490CF089FA80BBB834A542B6
:1012100007F10107EBD142F6885358F80340E01B71
:101220000CF06CF8014648460CF070F9054642F6A1
:101230008C5058F800309C4215D042F6A45642F625
:10124000A05342F6985242F69C5158F8066058F85E
:10125000033058F8022058F8011048F80040009672
:101260004046FFF777FF284603B0BDE8F0832046ED
:10127000FFF7FAFB014648460BF08CFF81462046FB
:10128000FFF7F2F9D8F834100CF048FA70B920469C
:10129000FFF7AAF9D8F838100CF022FA0028A3D0EA
:1012A0002046FFF7A1F9C8F838009DE72046FFF770
:1012B000DBF9C8F83400EAE700C0794400C079C41B
:1012C00000008CC2406B704742F68853C05870478C
:1012D000806B704770B5002300F536550646836075
:1012E000043500F1F40402E0B834AC420FD02046DB
:1012F000FFF730FC0028F7D02046FFF73FF9014602
:10130000B0680BF047FFB834AC42B060EFD142F6A2
:101310008853F0580BF0F2FF0146B0680CF0F6F875
:10132000B060F06870BD00BF2DE9F04F95B0064683
:101330009A480F91934600F01BFB984800F018FB69
:10134000964800F015FB42F68853304656F8038065
:10135000FFF7CAFC07463068D6F804900BF078FB1C
:10136000CDE90C013046FFF7B5FF824670690BF0FE
:101370006FFB02460B46F069CDE912230BF068FBC8
:10138000CDE910013169B0690BF002FF84490CF01E
:1013900009F80BF05DFB044630460D46FFF70EFFE3
:1013A0000BF056FBDDE91223CDE90845CDE9042316
:1013B000DDE91034CDE90A015046CDE906340BF0E1
:1013C00047FBDDE90C34CDE902013A46CDE90034B2
:1013D00041464B46734800F0CBFA704800F0C8FA1B
:1013E0000023F43601270C9305E001373F2F06F167
:1013F000B80600F0C2803046FFF7ACFB0028F4D0FE
:101400003046FFF767F83046FFF768F83046FFF7D9
:1014100069F83046FFF76AF83046FFF797FB082176
:10142000824661480AF0B0F9394660480AF036FD54
:10143000092F40F3AD8002215D480AF0A5F930463E
:10144000FFF752FB0BF004FB9DF83C80CDF80080C9
:101450000B46024655480AF02BFD012155480AF07B
:1014600093F93B460C9C474600254FF001099846EE
:101470002EE0062150480AF087F921464B480AF031
:101480000DFD02214D480AF07FF929463046FFF74D
:1014900031F80BF0DDFA00970B46024643480AF09C
:1014A00007FD012143480C440AF06EF909FA05F3DF
:1014B000BBF1000F09D013EA0A0F4FF002014048B8
:1014C00004BF404802210AF05FF90135082D06D01B
:1014D000092CCEDC01213C480AF056F9C9E7334813
:1014E0000AF088FC092139480AF04EF900213046FB
:1014F000FFF71EFB0BF0ACFA022402460B460094E9
:101500002A480AF0D5FC0A2131480AF03DF90121A8
:101510003046FFF70DFB0BF09BFA009402460B469A
:1015200022480AF0C5FC0A212A480AF02DF9214672
:101530003046FFF7FDFA0BF08BFA0B460C9900943E
:101540000246083119480C9147460AF0B1FCBBF13C
:10155000000F15D00D2120480AF016F922465146F9
:10156000002312480AF05AFC013710480AF042FCE6
:101570003F2F06F1B8067FF43EAF15B0BDE8F08FFF
:10158000012116480AF000F908480AF033FC2CE75C
:1015900001210D480AF0F8F84DE700BF7020010066
:1015A00000007A44481D0100E81D01002888FF1F43
:1015B000102D0100F41D0100F81D0100B01E0100F6
:1015C000001E0100041E0100C01E0100081E0100D3
:1015D000141E0100201E01002C1E01003C1E0100F3
:1015E0002DE9F04F85B000F1F4058A4603929B4641
:1015F0002E464FF0010806E008F10108B8F13F0F50
:1016000006F1B8067BD03046FFF7A4FA0028F3D0E5
:1016100000230A2251467D480AF000FC01217C4843
:101620000AF0B2F803980BF013FA00230246009375
:1016300076480B460AF03CFC012175480AF0A4F8F4
:10164000594672480AF02AFC012171480AF09CF8B8
:1016500041466E480AF022FC01216D480AF094F8D8
:1016600000244FF0020921463046FEF743FF0BF0FD
:10167000EFF9CDF8009002460B4664480AF018FCDA
:101680000134012162480AF07FF8082C4FF002076C
:10169000E9D100213046FFF74BFA0BF0D9F900975A
:1016A00002460B4659480AF003FC012158480AF04B
:1016B0006BF801213046FFF73BFA0BF0C9F90097B0
:1016C00002460B4651480AF0F3FB012150480AF04C
:1016D0005BF839463046FFF72BFA0BF0B9F9009763
:1016E00002460B4649480AF0E3FB08F10108474867
:1016F0000AF080FBB8F13F0F06F1B80683D101274D
:101700004FF0000904E001373F2F05F1B80579D00B
:101710002846FFF71FFA0028F5D000230A22514679
:101720003C480AF07BFB0121394808F097FC0398FC
:101730000BF08EF9CDF8009002460B4635480AF0C2
:10174000B7FB0121324808F089FC594631480AF0BC
:10175000A5FB01212E4808F081FC39462D480AF0EE
:101760009DFB01212A4808F079FC00244FF0020873
:1017700021462846FEF7BEFE0BF06AF9CDF8008040
:1017800002460B4623480AF093FB0134012120480E
:1017900008F064FC082C4FF00206E9D1002128462D
:1017A000FFF7C6F90BF054F9009602460B461948AC
:1017B0000AF07EFB0121164808F050FC0121284662
:1017C000FFF7B6F90BF044F9009602460B461148B4
:1017D0000AF06EFB01210E4808F040FC3146284615
:1017E000FFF7A6F90BF034F9009602460B460948BC
:1017F0000AF05EFB013707480AF0FCFA3F2F05F1BB
:10180000B80585D105B0BDE8F08F00BF2888FF1F5F
:10181000401E0100EC87FF1F014B1870704700BF8E
:101820002487FF1F0278002A00F0908070B50346DD
:1018300082B00D46252A2AD158785C1C08B3252889
:101840002FD0732831D0642824D0692822D066286C
:101850004FD07A2859D0782835D058282FD06228F0
:101860003ED0422838D06C2814D0632812D0742877
:1018700057D054285FD00AF00BF86278631C002A16
:10188000D8D1344802B0BDE870400AF0B3BA187835
:101890001C46F0E72B1D29682E481D460AF0FEFA6B
:1018A000EBE7104609F0F4FFE7E72E6830460CF04E
:1018B00007FF01463046043509F066FFDDE70221E7
:1018C000254809F061FF2E1D2968224800231022B7
:1018D00035460AF0A3FAD0E70221204809F054FF68
:1018E0002E1D29681B480023022235460AF096FA6D
:1018F000C3E7073525F007050321D5E9002315487F
:10190000009108350AF0D4FAB7E7073525F0070546
:101910000021D5E900230F48009108350AF0C8FAE4
:10192000ABE7296801290EBF0D480E480121043597
:1019300009F02AFFA1E72B68012B07BF04210A4801
:101940000A480521043509F01FFF96E701480AF00F
:1019500051BA00BF2888FF1F441E0100481E010025
:101960004C1E0100501E0100541E01005C1E0100AF
:101970000FB400B583B004A951F8040B0191FFF72F
:1019800051FF03B05DF804EB04B0704770B51B4B1A
:101990001B4C1B6882B00D460193019B23601946C6
:1019A00004460023164617480A220AF037FA032194
:1019B000154809F0E9FE032C07D8DFE804F01A15F2
:1019C00010020521114809F0DFFE0221104809F03C
:1019D000DBFE31462846FFF725FF02B070BD072128
:1019E0000C4809F0D1FEF0E704210B4809F0CCFEC9
:1019F000EBE70521094809F0C7FEE6E75CC6FF1FD3
:101A0000A492FF1F2888FF1F641E0100801E010092
:101A1000B01E0100781E0100701E0100681E01004A
:101A20000FB400B5094B187883B020B103B05DF84E
:101A300004EB04B0704705AB1A4604990193FFF715
:101A4000A5FF03B05DF804EB04B070472487FF1FC7
:101A50000FB4094B00B51B78012B83B004D903B038
:101A60005DF804EB04B0704705AB1A460499019386
:101A70000120FFF78BFFF2E72487FF1F0FB40B4B0A
:101A800000B51B78032B83B004D903B05DF804EBD9
:101A900004B0704705AB1A46049901930320FFF781
:101AA00075FF03B05DF804EB04B070472487FF1F97
:101AB00010B504460AF054F9204610BD70B50B4E1F
:101AC0003368002B11DD0A490A4806F095FD60B124
:101AD000094C04F1900594E80F0004E90F0010345C
:101AE000AC42F8D13368013B336070BD60C4FF1F66
:101AF0004C93FF1FB4C4FF1F5C93FF1F0A4A0B499E
:101B0000D06D936D03FB00F34FF47A7000FB03F08C
:101B1000642310B50B600BF0F1FB0549054C0BF08D
:101B2000F5FC206010BD00BFF4C2FF1F3487FF1F0B
:101B3000E4388E3E58C4FF1F10B4019C521AA4EB27
:101B4000030412D0401A002C04FB00F002EBD27107
:101B500011DB00EB610101FB02F0002891FBF2F1C7
:101B60000B4414DB184610BC704704EBD47003EB35
:101B7000600010BC7047A0EB610000FB02F100297F
:101B800090FBF2F01844EEDB013010BC7047581E99
:101B900010BC704710B5074C20460AF02BF9064BD5
:101BA000204619680AF07AF903210448BDE810407C
:101BB00009F0EABD2888FF1FEC93FF1F881E010073
:101BC00070B5044608460D460CF07AFD23680246BF
:101BD000294620465B68BDE87040184738B5044682
:101BE00008460D460CF06CFD2368024629465B68EA
:101BF00020469847054620460AF0FCF8284438BDA0
:101C00002DE9F84349484A4E4A4F4B4CFFF7B0FE86
:101C10004A4B4B4A4B494C485A6013251D704B4D5B
:101C20004B4AD9601E6100214A4E5F615C624A4F97
:101C3000DD624FF07C540C2598619A624748484A0F
:101C400019635E634749484E9F639C6440F61C4796
:101C50000A245D65454DD8641A6502200122196287
:101C6000C3F8C060002164269F66DC664FF4967757
:101C70003224DD61DD631D6441F204055870587241
:101C80001A729A6583F84410DE65A3F86470A3F8AD
:101C90006070A3F862404FF05A091D674FF47A78DC
:101CA0009967D867C3F88020C3F88410C3F89C40B4
:101CB000C3F8A840DFF8BCC0C3F8A410C3F8B02034
:101CC000C3F8B400DFF8B0E0C3F8B86044F62067AA
:101CD00083F8C42083F8D010FF2641F2883183F8BE
:101CE000DC20A3F8DE20052540F2D662204CC3F8A4
:101CF00074906FF03300C3F8A080C3F88CC0C3F8B1
:101D000090E0C3F89470C3F8AC60A3F8BE50C3F879
:101D1000C840C3F8CC00C3F89810A3F8BC10A3F8CF
:101D20008820A3F88A20BDE8F88300BF8C1E01003C
:101D30000000404033338340CDCCCC3DF4C2FF1F84
:101D400020A1070066668640CDCC4C40000020C133
:101D500000008242000020420000A0409A99794091
:101D60000AD7233D333373409A99993ECDCC4C3EEC
:101D70006C09793B0000114400F0C84570B5424C35
:101D8000424D4348E66800232B70FFF741F80146B7
:101D900030460BF0A5FC08B104232B703C48FFF73C
:101DA00003F821690BF09CFC18B12B7843F0100369
:101DB0002B703748FFF786FAA16A0BF0AFFC18B119
:101DC0002B7843F040032B70002631486E70FFF7EC
:101DD0007FFA2F48EE70FFF71BF805462C482B4E74
:101DE000FEF7E2FF014628460BF0D2F9E16B0BF05B
:101DF00095FC08B10123F370264D254800232B7074
:101E0000FFF706F8616A0646E0680BF0C1F9014683
:101E100030460BF083FC08B104232B701C48FEF7FE
:101E2000C3FF616A064620690BF0B4F901463046EB
:101E30000BF056FC18B12B7843F010032B701448AC
:101E4000FFF740FAA16B0646A06A0BF0A1F9014624
:101E500030460BF063FC18B12B7843F040032B7035
:101E600000230B486B70FFF733FAA16B0546E06A5D
:101E7000084C0BF08FF9014628460BF031FC08B1F5
:101E80000123637070BD00BFF4C2FF1FC8C2FF1FF3
:101E90000094FF1F0C93FF1F2DE9F041844C236831
:101EA000012B82B027D0022B00F09E80032B00F084
:101EB000BE80EBB97F4B8048D3F8A820D3F8AC1094
:101EC0000368891A002903FB01F37C49C0F2D18021
:101ED000323381FB0301D817C0EB6111002B114491
:101EE000C0F2DC80062002B0BDE8F04107F0D8BBAC
:101EF00002B0BDE8F081724E33680A33B3F57A7FE1
:101F000000F3C780184633600BF0F8F96D490BF009
:101F100049FA8046674DD5F8A8000BF0EFF907465F
:101F2000D5F8AC000BF0EAF939460BF031F941462F
:101F30000BF038FA64490BF0E9FA39460BF02AF94C
:101F40000BF0F6FB0146062007F0AAFB02215F48D2
:101F500009F01AFC5E4809F04DFF06215D4809F0C2
:101F600013FC30680BF0CAF956490BF01BFA0AF063
:101F70006FFD022702460B460097554809F098FF6F
:101F80000D21554809F000FCD5F8A8000BF0B6F972
:101F9000804630680BF0B2F94A490BF003FA064666
:101FA000D5F8AC000BF0AAF941460BF0F1F8014668
:101FB00030460BF0F7F944490BF0A8FA41460BF014
:101FC000E9F80AF045FD00970B460246404809F043
:101FD0006FFF39463D4809F0D7FB3D4809F00AFF3D
:101FE0002368022B7FF462AF354B324E00221A6019
:101FF000D6F8A8000BF082F90546D6F8AC000BF035
:102000007DF929460BF0C4F800210BF0CBF92E49DD
:102010000BF07CFA29460BF0BDF80BF089FB01466A
:10202000062007F03DFB2368032B7FF442AF244BCF
:10203000204E4FF47A721A60D6F8A8000BF05EF9C1
:102040000546D6F8AC000BF059F929460BF0A0F87C
:102050001D490BF0A7F91C490BF058FA29460BF063
:1020600099F80BF065FB0146062007F019FB236881
:102070001FE7323B81FB0310D917C1EB6011002B26
:102080000A4412DB511C062002B0BDE8F04107F003
:1020900007BB00234FF0000833603BE701390620FF
:1020A00002B0BDE8F04107F0FBBA11461AE700BFE5
:1020B0003C93FF1FF4C2FF1F3487FF1F1F85EB51A6
:1020C000D4C3FF1FCDCCCC3D0000C842102D010071
:1020D0002888FF1FAC1E0100B41E010030B59448D3
:1020E000944C83B009F086FE914809F083FE904835
:1020F00009F080FE0D21904809F046FBD4F8A43089
:10210000012B00F03F818D4D8948297800230A2258
:1021100009F084FE2B78052B0BD8DFE813F0A20121
:10212000A701AC01B101B60106000721844809F0FE
:102130002BFB8448FEF738FE21690BF0D1FA00280A
:1021400040F08A817F48FEF763FEE1680BF0E6FA13
:10215000002840F07C817B48FEF75AFE054679480E
:10216000FEF722FE014628460BF012F8E16B0BF059
:10217000D5FA002840F066817248FFF7A3F8A16AFB
:102180000BF0CCFA002840F058816E48FFF7A0F819
:10219000E16A0BF0A5FA002840F04A8102216A4862
:1021A00009F0F2FA122007F001FC012800F09981F1
:1021B000112007F0FBFB012800F08581634B1B68B1
:1021C000012B00F0898102215F48614C09F0DCFAA3
:1021D000604B5748196809F061FE554809F00AFE3E
:1021E00004215D4809F0D0FA0B2007F0DFFB002343
:1021F00001460A224E4809F011FE0C2007F0D6FBDA
:10220000002301460A224A4809F008FE142007F07C
:10221000CDFB002301460A22454809F0FFFD1520A9
:1022200007F0C4FB0A2200230146414809F0F6FDED
:1022300006214A4809F0A8FA2368DD074FF001019A
:102240004CBF4748474809F09FFA236898074FF06A
:1022500001014CBF4248434809F096FA23685A07E7
:102260004FF001014CBF3E483E4809F08DFA23680B
:102270001B074CBF3A483B48012109F085FA04216D
:10228000394809F081FA112007F090FB002301463C
:102290000A22274809F0C2FD102007F087FB00231F
:1022A00001460A22224809F0B9FD122007F07EFB00
:1022B000002301460A221E4809F0B0FD132007F052
:1022C00075FB0A2200230146194809F0A7FD1821D1
:1022D000264809F059FA264BB3F900000BF00EF826
:1022E00024490BF05FF80AF0B3FB002402460B46CA
:1022F00000940F4809F0DCFD1D211F4809F044FA45
:102300001E4BB3F900000AF0F9FF1A490BF04AF826
:102310000AF09EFB009402460B46054809F0C8FDF2
:102320001748022103B0BDE8304009F02DBA00BFC4
:102330002888FF1FF4C2FF1FC41E010078C4FF1FBE
:10234000941F01000094FF1F102D010008C4FF1FFF
:1023500080C4FF1F1093FF1FCC1F0100D41F01007A
:10236000DC1F010018310100E01F0100E81F01001F
:102370003893FF1FCDCCCC3D042001007AC4FF1F51
:10238000242001000921644809F0FEF96348FEF7A2
:102390000BFD21690BF0A4F9002840F085805F480F
:1023A000FEF736FDE1680BF0B9F9002840F08680B1
:1023B0005A48FEF72DFD05465848FEF7F5FC014644
:1023C00028460AF0E5FEE16B0BF0A8F9002870D171
:1023D0005248FEF777FFA16A0BF0A0F900285ED102
:1023E0004E48FEF775FFE16A0BF07AF9002851D1EB
:1023F0004B4B4A481B68012B78D0FEF7D5FC21696E
:10240000484D0BF08BF900283FF4C8AE4348FEF767
:10241000FFFCE9680BF064F900283FF4BFAE424BC3
:102420001B78052B73D00821404809F0ADF9B5E6BB
:102430000D213F4809F0A8F9B0E60C213D4809F00C
:10244000A3F9A2E611213C4809F09EF994E60E2179
:102450003A4809F099F97EE60F21394809F094F9D4
:1024600070E60621374809F08FF962E60721364801
:1024700009F08AF95DE60721344809F085F958E644
:102480000821334809F080F953E60B21314809F05F
:102490007BF94EE60D21264809F076F9A8E70C21D4
:1024A000244809F071F99BE70F21254809F06CF9E0
:1024B00075E71121204809F067F989E70E211F48C7
:1024C00009F062F974E70A21234809F05DF9234B0A
:1024D0001B68012B7FF477AE1121214809F054F9D4
:1024E00071E60E211F4809F04FF961E6FEF75CFC2A
:1024F000216A0BF013F900283FF450AE16211A4858
:1025000009F042F90A21194809F03EF946E60A2184
:10251000164809F039F941E6D41E01000094FF1F66
:102520004893FF1FF4C2FF1F78C4FF1F581F01000C
:10253000241F0100141F0100001F0100F01E0100F4
:10254000E01E0100641F01006C1F0100801F0100DC
:10255000881F0100741F0100AC1F010008C4FF1F89
:10256000B81F01009C1F0100341F01004C1F010017
:102570002DE9F04F8D4CE66F012E8FB000F0C78132
:10258000032E00F04381DFF87C82894F894EA36FD0
:102590008948012B09BF3168316801F10041316080
:1025A00006F0EAFC3B68002B40F0E6808248DFF84A
:1025B000549206F0B7FC3B68C8F800000546002BB3
:1025C00040F0BC80E36F794A012B00F0CB807B495F
:1025D0007B4F28460BF0A2F8002841D03B68DFF87B
:1025E000F89109930998D9F80030DFF81CA2C01AB5
:1025F0000AF080FE29460AF0D5FE72490AF086FFED
:1026000070490AF083FFDAF800100AF0C3FD3B6856
:102610000893089BCAF80000C9F80030D4F8B0004D
:10262000694C0AF06BFE29460AF0BCFE00233360B9
:10263000C8F800000BF07CF80146644806F0E2FCA4
:102640000AF05CFE3B68624A0B9311680B9B2060AA
:102650005B1AB3F57A7F5A490ED80FB0BDE8F08FF8
:102660005C4928460BF03CF80028B7D13A685A4B31
:102670000A920A9A1A60D1E70B680C930C9B534894
:10268000136006F0EBFC2068544D0BF051F8014646
:10269000534806F0B7FC0AF031FE524A286013682E
:1026A00001333A2B00F3088213604F4B1B68002B59
:1026B000D3D04E4809F09EFB3B680D930A220023BD
:1026C0000D994A4809F0AAFB0121494809F05CF834
:1026D000D8F800000AF0BCF9022602460B46009624
:1026E000424809F0E5FB0121414809F04DF8206816
:1026F0000AF0AEF9009602460B463C4809F0D8FBBA
:1027000001213B4809F040F828680AF0A1F9009639
:1027100002460B46354809F0CBFB0121344809F04D
:1027200033F8344B18680AF093F9009602460B46CA
:102730002E4809F0BDFB0FB0BDE8F08F0AF088F914
:10274000022502460B460095284809F0B1FB0421FA
:10275000294809F019F8E36FD9F80050134A012B02
:102760007FF435AF254B1B68012B00F01982022B3B
:1027700000F06981124F51E70F4806F0D3FB0AF0D1
:1027800067F9022502460B460095184809F090FBB0
:1027900003211B4808F0F8FFD4F89410134809F0FF
:1027A0007DFB0321164808F0EFFFFFE6F4C2FF1F90
:1027B00030C4FF1F74C4FF1F10C4FF1F0000FA4382
:1027C0005CC6FF1F00007A4488C4FF1FE0C3FF1FE0
:1027D0001C93FF1F0000FAC3C4C2FF1F5CC4FF1F8D
:1027E00038C4FF1FDCC3FF1FFC93FF1F2888FF1F97
:1027F000C01E0100F0C2FF1F6C2001005887FF1FA0
:1028000068200100CCC2FF1F58C4FF1FB74DB84F4E
:102810002B68DFF81083D3F884000F2101233B607D
:1028200006F038FB3B68B34F012B3B6800F0968005
:10283000002B40F07D812B68DFF8EC92D3F8840008
:10284000436B19698EB2C9F8006006F0B1F8B4F8AC
:102850008A2040F6E44303FB06F1B1FBF0F0801A56
:1028600000B20AF04BFDA449A44E8246D4F88C0075
:102870000AF098FD014650460AF048FED9F80030AB
:102880003060632BDFF8A0A200F3238100233360C4
:102890003B68002B3FF47BAE0221994808F074FF9F
:1028A0002B68D9F80050D3F8840040F6E44303FBCA
:1028B00005F506F07DF8B5FBF0F00AF01BFD0546C6
:1028C000B4F88A000AF01AFD014628460AF060FCB6
:1028D0000AF0BEF8022502460B460095894809F029
:1028E000E7FA2946864808F04FFF30680AF0B0F84A
:1028F000009502460B46834809F0DAFA29468248D9
:1029000008F042FF29467E4808F03EFF3FE6DFF828
:102910001482D4F89470D8F8005038460AF0EEFCCF
:1029200029460AF0FBFE48B178420AF0E7FC01466E
:1029300028460AF0F3FE002840F064816B4D6C4F8E
:102940002A680223D2F884003B600E2106F0A2FA26
:102950003B68684F012B3B687FF46AAF002B40F067
:102960005B812B68DFF8C091D3F88400436B196951
:102970001FFA81FBC9F800B006F01AF8B4F88830E5
:102980005E4E40F6E44A0AFB0BFBBBFBF0F0C01ABC
:1029900000B20AF0B3FC58498346D4F890000AF01C
:1029A00001FD014658460AF0B1FD2A68D9F8003009
:1029B0003060D2F884000AFB03FA05F0F9FFB4F89E
:1029C0008830BAFBF0F00FFA80FAC3EB0A03002B51
:1029D000B4F8BE20B8BF5B429342BCBF0023336053
:1029E0003B68002B3FF4D3AD0221454808F0CCFEF4
:1029F0002B68D9F80050D3F8840040F6E44303FB79
:102A000005F505F0D5FFB4F88810B5FBF0F000B27D
:102A1000411A3C4809F042FA0221394808F0B4FE54
:102A200030680AF015F8022502460B460095354835
:102A300009F03EFA0321354808F0A6FE2946304841
:102A400008F0A2FEA3E5D2F8947038460AF056FCCE
:102A500029460AF045FE68B978420AF04FFC29463B
:102A60000AF05CFE30B92A4F2A4B3A680792079A5F
:102A70001A60D3E5264FDFF89C903B6806930698D2
:102A8000D9F80030DFF8A4A0C01A0AF033FC2946B8
:102A90000AF088FC20490AF039FD1F490AF036FD8A
:102AA000DAF800100AF076FB3B680593059BCAF83C
:102AB0000000C9F80030B1E5002313600AF038FEC9
:102AC00001461648164E06F09DFA0AF017FC3060D3
:102AD000EBE52B68D3F8840005F06AFFDAF80030E4
:102AE00064389842FFF4D2AED2E600BF94C4FF1F10
:102AF0005887FF1F30C4FF1FACC5273774C4FF1FA2
:102B0000102D01002888FF1F6420010050200100C3
:102B10005CC6FF1FC4C2FF1F00007A44D0C2FF1F63
:102B2000F0C2FF1FCCC2FF1FA4C4FF1F58C4FF1F69
:102B30005748DFF89491DFF87CA109F05BF90C218C
:102B4000544808F021FE0C21534808F01DFE2A6865
:102B50003B68D2F88400426B11698EB2C9F80060FC
:102B6000002B3FF472AE05F023FF40F6E441002352
:102B70000A2201FB06F1B1FBF0F1454809F04EF9DC
:102B80000221464808F000FEB4F88A10404809F0D7
:102B900085F9DAF80030D9F80060D3F8840054E6FB
:102BA0003F49404F28460AF0B9FD50B93E492846F2
:102BB0000AF096FD28B93A683C4B0492049A1A60D0
:102BC0002CE53B68DFF8E49003930398D9F80030D4
:102BD000DFF8F8A0C01A0AF08DFB29460AF0E2FBE4
:102BE00033490AF093FC32490AF090FCDAF80010FD
:102BF0000AF0D0FA3B680293029BCAF80000C9F8B9
:102C000000300BE52B4D2C4F2B683E60D3F8840031
:102C10000F2106F03FF905E61D48DFF8AC90254E80
:102C200009F0E8F8E36F012B4FF00B010CBF2348CC
:102C3000234808F0A9FD0C21174808F0A5FD2A68D3
:102C40003B68D2F88400426B11691FFA81FBC9F816
:102C500000B0002B3FF490AE05F0AAFE40F6E44130
:102C600000230A2201FB0BF1B1FBF0F1084809F047
:102C7000D5F80121134808F087FDB4F888100448FE
:102C800009F00CF93368D9F800B0D3F8840073E682
:102C90002888FF1F5420010040200100102D010052
:102CA0000000FA435CC6FF1F0000FAC3C4C2FF1F46
:102CB00000007A4494C4FF1F5887FF1F282001009A
:102CC00034200100C01E0100A4C4FF1F58C4FF1F10
:102CD0002DE9F047844D2B6884B043B9834B1B68C2
:102CE0000393039A41F288339A4200F2AD80804CFC
:102CF000804F814EDFF84882D4F884207C4B012A33
:102D000003D0DA6F002A40F08D807C48FEF7E2FAAB
:102D10007B49D4F86CA0D4F87090A56E0AF042FB01
:102D20000AF02CFD636F00934A465346294680B251
:102D3000FEF702FFE56DD4F858A005FB00F00AFB92
:102D400000F000EB800040000AF0D8FA6D490AF06C
:102D5000DDFB8146306005FB0AF54FF47A7000FB1D
:102D600005F00AF0CBFA6749DFF888A10546484626
:102D70000AF018FB29460AF0C9FB63490AF012FB66
:102D80000AF0D6FC6328386046DD28465D490AF023
:102D9000BDFB64233060CAF80030D8F80030002B47
:102DA00037D0E36F524D012B42D0032B00F08780C8
:102DB000022B7FD00221554808F0E6FC544B1868DE
:102DC00009F046FE022402460B460094514809F0E1
:102DD0006FF82146504808F0D7FC21464B4808F0D0
:102DE000D3FC39684B4809F059F806214B4808F0E4
:102DF000CBFC306843490AF0D5FA09F029FE00946B
:102E000002460B46434809F053F80321444808F0B2
:102E1000BBFC04B0BDE8F0870028BCBF0023CAF8A3
:102E20000030BAE7D6F80090DD6DD3F858A092E7ED
:102E30003C4B1B68012B4FF00A010CBF3A483B4842
:102E400008F0A2FCEB6FB0E72C48294C294FFEF7A5
:102E500041FA2B49D4F87080A66ED4F86C900AF031
:102E6000A1FA0AF08BFC636F0093314642464B4651
:102E700080B2FEF761FEE26DA36D386002FB00F0E8
:102E800003FB00F000EB800040000AF037FADFF8A7
:102E9000B0801C49184E0AF039FBD8F80030306079
:102EA00001222A608BB9D4F8A430012B04BF204A38
:102EB000137021E707211F4808F066FC7AE710210C
:102EC0001D4808F061FCE36F72E702210F4808F02B
:102ED0005BFC104808F08EFF5921184808F054FC9C
:102EE0000C4808F087FFDEE7F893FF1F5CC6FF1F62
:102EF000F4C2FF1F3487FF1F58C4FF1F0094FF1F39
:102F000000007A44E4388E3E0000C842102D0100D3
:102F1000CCC2FF1F2888FF1F64200100042101008C
:102F20000C2101005887FF1FD0200100DC20010088
:102F300078C4FF1FFC200100E8200100742001007C
:102F40002887FF1F30B5112083B006F02FFD012820
:102F500018D0122006F02AFD012813D000210B20E2
:102F600006F01EFD00210C2006F01AFD00211520A0
:102F700006F016FD2649274B0120002208701A6032
:102F800003B030BD0121152006F00AFD224A234C72
:102F9000234B1268D4F8981001921B68019A1D4DBA
:102FA0000B4493424FF00201296005D901210C2006
:102FB00006F0F6FC03B030BDD4F8A0000AF09EF98C
:102FC000184B19680AF08CFB0028EFD101210B2067
:102FD00006F0E6FC94F8C43003242C6043B10C4B9B
:102FE00002221A7000210C2006F0DAFC03B030BD7A
:102FF000122006F0DBFC012808BF054B4FF0110042
:1030000008BF1C7006F0D2FC0128EBD1E7E700BF37
:1030100078C4FF1FF493FF1F5CC6FF1FF4C2FF1F9D
:1030200034C2FF1FCCC2FF1FF0B5684E684D346834
:103030002B689C4287B039D014F0010155D014F0B0
:10304000020149D014F004013DD0E3070ED52B68EE
:10305000DF070BD45F4F3A68002A00F082805E4B96
:103060001B680193019B93426DD83468A0070DD56E
:103070002B6899070AD4594F3A68002A4CD0564B0E
:103080001B680393039B934238D8346862070DD5BD
:103090002B685B070BD4524F3A68002A7ED04E4B08
:1030A0001B680593059B934268D834680CB107B040
:1030B000F0BD2146162006F0F3FA2146172006F04F
:1030C000EFFA07B0F0BD052006F0EAFA2B68346885
:1030D00003F0FB032B60B8E7172006F0E1FA2B683A
:1030E000346803F0FD032B60ACE7162006F0D8FA35
:1030F0002B68346803F0FE032B60A0E7394B1720E0
:10310000D3F89C1006F0CCFA2B68346843F0020325
:1031100000222B603A60B9E7334808F06BFE0C21BF
:10312000324808F031FB304808F064FEFF211720D8
:1031300006F0B6FA284B2E4A1968029102991268D5
:103140000A443A609CE7274B1620D3F89C1006F0FF
:10315000A7FA2B68346843F0010300222B603A6021
:1031600084E7FF21162006F09BFA1B4B204A1968C2
:103170000091009912680A443A6071E7194B0520E2
:10318000D3F89C1006F08CFA2B68346843F00403E3
:1031900000222B603A60002C89D18AE7124808F09F
:1031A00029FE0C21134808F0EFFA0F4808F022FE20
:1031B000FF21052006F074FA074B0D4A19680491A7
:1031C000049912680A443A606AE700BFF493FF1F4B
:1031D00080C4FF1FD8C3FF1F5CC6FF1F00C4FF1FB2
:1031E00004C4FF1FF4C2FF1F2888FF1F1021010025
:1031F0004487FF1F202101002DE9F047534EDFF8DF
:1032000070813368DFF86C91D3F88400504D0F2142
:1032100005F040FE0023012222214E48C8F800306C
:10322000C9F8002008F0B0FAD8F80030132B20DCE1
:1032300040F6E4473368B5F888A0D3F88400436BC0
:103240001C6905F0B5FBA4B2012107FB04F4B4FB33
:10325000F0F441485444A5F8884008F095FA6420F9
:1032600006F0DAFBD8F800300133132BC8F8003031
:10327000E0DDB5F88830394A3948A2FB03129B1AC1
:1032800002EB5303C3F30F131946A5F8883008F077
:1032900005FE1D21334808F077FA0221324808F074
:1032A00073FA2F4808F0A6FD32680023D2F8840094
:1032B000C8F800300E2105F0EDFD0223222125483B
:1032C000C9F8003008F060FAD8F80030132B20DC81
:1032D00040F6E4473368B5F88A90D3F88400436B2E
:1032E0001C6905F065FBA4B2012107FB04F4B4FBE3
:1032F000F0F419484C44A5F88A4008F045FA6420D7
:1033000006F08AFBD8F800300133132BC8F80030E0
:10331000E0DDB5F88A30114A1148A2FB03129B1A6E
:1033200002EB5303C3F30F131946A5F88A3008F0D4
:10333000B5FD1D210D4808F027FA02210A4808F0C2
:1033400023FA0748BDE8F04708F054BD94C4FF1FB6
:10335000F4C2FF1F3021010074210100876118862B
:103360002888FF1F54210100102D01007821010041
:103370001893FF1F5887FF1FF8B5C14DD5F8B4301B
:10338000072B00F03F82BF4BBF4C1B68686D40F2BB
:10339000513108222160E271002B00F0198209F0FE
:1033A000ADFF296A064609F0FDFFB84909F0FAFFAA
:1033B0000AF0E4F980B203126372B54AB54BB2F970
:1033C0000020B3F900302072A37230461B1216128F
:1033D000E3722273A969667309F0E4FFAB49AA4E50
:1033E00009F0E0FF0AF0CAF983B21A123146AA487E
:1033F000A373E27305F000F940B9DFF8D4E2A74BFC
:10340000DEF800701B689F42C0F2E781A44BA54A1A
:103410001B6812889C4EA272DFB207EB87012772ED
:1034200003EB8307490047F3D7171B1212122173CE
:10343000677340F2553E6372082700239648E27294
:103440003146C4F800E0E771A373E37305F0D4F8E4
:1034500088B9DFF87CE2914BDEF800701B689F4270
:1034600009DA96E80F00904E06EB071686E80F0083
:103470000137CEF8007040F2563208238B482260A4
:10348000E371FDF763FE8A497F4E09F08BFF0AF076
:1034900075F920728548FDF759FE854909F082FFCC
:1034A0000AF06CF9834A8249C0F3072363721068FB
:1034B0000AF02CF80AF03CF9034602127B48A3728A
:1034C000E272FDF77BFE714909F06CFF0AF030F9FA
:1034D00020737648FDF772FE6C4909F063FF0AF02D
:1034E00027F9002340F3072231466B486273A37328
:1034F000E37305F081F888B9DFF8D4E1674BDEF8B3
:1035000000701B689F4209DA96E80F00664E06EBD2
:10351000071686E80F000137CEF80070664A674B41
:103520009078594E92F800E05778D178A0721A78C6
:10353000987884F808E0677293F801E0DF78E17228
:103540002273082340F25A32A0733146524884F85D
:103550000DE0E7732260E37105F04EF888B9DFF8FB
:1035600070E14E4BDEF800701B689F4209DA96E866
:103570000F004D4E06EB071686E80F000137CEF818
:1035800000704F4B404E1A7898785F78D978227245
:10359000A0721A79987993F805E06772E172DF7981
:1035A0002273082340F25E32A07331463A4884F811
:1035B0000DE0E7732260E37105F01EF888B9DFF8CB
:1035C00010E1364BDEF800701B689F4209DA96E87E
:1035D0000F00354E06EB071686E80F000137CEF8D0
:1035E0000070384B284E1A7898785F78D978227214
:1035F000A0721A79987993F805E06772E172DF7921
:10360000227308234FF45C72A0733146224884F879
:103610000DE0E7732260E37104F0EEFF88B9DFF894
:10362000B0E01E4BDEF800701B689F4209DA96E896
:103630000F001D4E06EB071686E80F000137CEF887
:103640000070214B1B68012B00F0DE8040F27332CA
:10365000082316482260E371FDF7A6FB1B490A4EBA
:1036600009F0A0FE0AF08AF820721048FDF79CFBD2
:10367000164909F097FE0AF081F8C0F3072329E004
:10368000F4C2FF1F4893FF1F2093FF1F000020413B
:103690007AC4FF1F3893FF1FB4C4FF1F5487FF1F56
:1036A0003487FF1F3A87FF1F4C93FF1F0094FF1FB3
:1036B0000000C842CCC2FF1FC8C2FF1F0C93FF1FEF
:1036C0006087FF1F3C87FF1F08C4FF1F00007A446C
:1036D00060C4FF1F7F486372FDF79AFB7E4909F0C3
:1036E00061FE0AF04BF8A0727A48FDF791FB7A4927
:1036F00009F058FE0AF042F8C0F307237548E37258
:10370000FDF7E6FD754909F045FD0AF037F820732D
:103710007048FDF7DDFD714909F03CFD0AF02EF817
:10372000C0F307236B486373FDF7CCFD6B4909F0C9
:1037300031FD0AF023F8A0736648FDF7C3FD674921
:1037400009F028FD0AF01AF83146C0F3072364484F
:10375000E37304F051FF88B9DFF894E1614BDEF8C0
:1037600000701B689F4209DA96E80F005E4E06EB78
:10377000071686E80F000137CEF80070AA6DEB6DD2
:1037800054485A4D12FB03F3C3F3072640F272313B
:10379000082223722160E2716672FDF795FD2072A6
:1037A0004C48FDF791FD0023021229464C486272F5
:1037B000A372E37223736373A373E37304F01CFFB8
:1037C000F8B94B4F474B3E681B689E4210DBF8BD73
:1037D00009F094FD69690646E5E596E80F00424E5A
:1037E00006EB07160137CEF8007086E80F000DE6ED
:1037F00095E80F003C4C04EB061484E80F000136FA
:103800003E60F8BD394C01E632483A4FFDF7CCFA3C
:10381000296D09F0BFFC06462E48FDF7F9FA01466E
:10382000304609F05DFF00283FF410AF40F2C3328C
:10383000082328482260E371FDF7B6FAFF6C2B4E8F
:10384000394609F04DFF78B32349384609F0AAFDFF
:1038500009F094FF80B2031270723372234E204835
:10386000012304270322A37231460023E772227347
:103870006373A373E37304F0BFFE00287FF4E6AE26
:10388000DFF86CE0174BDEF800701B689F42BFF654
:10389000DDAE96E80F00144E06EB07160137CEF8A2
:1038A000007086E80F00D1E60A48FDF77DFA0A4964
:1038B00009F078FD09F062FFC0F307230548337271
:1038C000FDF772FA044909F06DFD09F057FF7072B7
:1038D000C4E700BF0094FF1F00007A44339388437D
:1038E000B4C4FF1F5487FF1F4C93FF1F2093FF1F7B
:1038F00060C4FF1FF4C2FF1F2DE9F04F9D4C9E4D89
:1039000085B007F0DBFE26682860042E034600F031
:103910003983092E7ED0022E4DD1A3F13102422AE5
:1039200000F28180DFE812F0220730074007F20042
:103930004E075F071B062F067F007F007F007F007A
:103940007F007F007F007F007F007F007F007F007F
:103950007F007F007F007F007F007F007F007F006F
:103960007F007F007F007F007F007F007F007F005F
:103970007F007F007F007F007F007F007F007F004F
:103980007F007F007F007F007F007F0043007F007B
:103990007F007F007F007F007F007F007F007F002F
:1039A0007F007F007F007F007B007F002706FFF7FE
:1039B00023FC26682B68082E40F0B980332B01F0D9
:1039C0000B8400F38183312B01F0C183322B2AD188
:1039D00007F0B0FE002841F3B6836848684E08F04F
:1039E000A1FB09F08BFC674909F0DCFCD6F8CC2080
:1039F000D6F8C83096F84410009207460246B764DD
:103A00006148FDF7A7FB6922012613462A6026605C
:103A1000642A81E3312800F07183712B03D10026E1
:103A2000732326602B60732B08BF002E0CBF01236D
:103A30000023002B67D0514808F0DCF904215348DB
:103A400007F0A2FE4D4808F0D5F91021504807F0C4
:103A50009BFE4A4808F0CEF913214E4807F094FE29
:103A60004D4B4648196808F019FA444808F0C2F965
:103A700014214A4807F088FE404808F0BBF91E218F
:103A8000474807F081FE3D4808F0B4F91521454844
:103A900007F07AFE394808F0ADF91E21424807F0D8
:103AA00073FE364808F0A6F92021404807F06CFE66
:103AB000324808F09FF919213D4807F065FE2F486C
:103AC00008F098F912213B4807F05EFE2B4808F0F9
:103AD00091F91621384807F057FE284808F08AF96E
:103AE0000F21364807F050FE244808F083F90D21D5
:103AF000334807F049FE214808F07CF9314A00219B
:103B000001231160236005B0BDE8F08F012323601D
:103B100007F010FE002807DD1848194E08F002FBD8
:103B200009F0ECFBC6F89000632326682B60072E93
:103B30004CD1332B01F03B8300F3B082312B01F0E9
:103B40001E83322B7FF46FAF07F0F4FD00283BDDBE
:103B50000A480B4E08F0E6FA09F0D0FB094909F0D3
:103B600021FC61210122F0630B4629602260164688
:103B70006429D1E2A0C4FF1F20C2FF1F2888FF1FB5
:103B8000F4C2FF1F6F12833A0094FF1FD82B01006D
:103B9000E02B0100F42B01005087FF1F082C0100CF
:103BA000202C0100402C0100582C0100782C010031
:103BB0009C2C0100B82C0100CC2C0100E42C01004D
:103BC000F42C01002887FF1F26682B68062E40F082
:103BD0008F80A3F13002412A3FF625AF01A151F8B1
:103BE00022F000BFAB44000031450000D744000084
:103BF00005450000314400005D44000071440000B0
:103C000097440000273A000007440000273A0000CC
:103C1000273A0000273A0000273A0000273A000020
:103C2000273A0000273A0000273A0000273A000010
:103C3000273A0000273A0000273A0000273A000000
:103C4000273A0000273A0000273A0000273A0000F0
:103C5000273A0000273A0000273A0000273A0000E0
:103C6000273A0000273A0000273A0000273A0000D0
:103C7000273A0000273A0000273A0000273A0000C0
:103C8000273A0000273A0000273A0000273A0000B0
:103C9000273A0000273A0000273A0000273A0000A0
:103CA000273A0000273A0000273A0000273A000090
:103CB000273A0000273A0000273A0000273A000080
:103CC000273A0000273A0000273A0000273A000070
:103CD000273A0000273A0000273A0000273A000060
:103CE000273A0000273A00001F3A000026682B6898
:103CF000052E40F08D80A3F13102402A3FF693AEAD
:103D000001A151F822F000BF79430000994300005F
:103D1000B9430000194200005D430000D943000090
:103D2000F3430000273A0000273A0000273A00003A
:103D3000273A0000273A0000273A0000273A0000FF
:103D4000273A0000273A0000273A0000273A0000EF
:103D5000273A0000273A0000273A0000273A0000DF
:103D6000273A0000273A0000273A0000273A0000CF
:103D7000273A0000273A0000273A0000273A0000BF
:103D8000273A0000273A0000273A0000273A0000AF
:103D9000273A0000273A0000273A0000273A00009F
:103DA000273A0000273A0000273A0000273A00008F
:103DB000273A0000273A0000273A0000273A00007F
:103DC000273A0000273A0000273A0000273A00006F
:103DD000273A0000273A0000273A0000273A00005F
:103DE000273A0000273A0000273A0000273A00004F
:103DF000273A0000273A0000273A0000273A00003F
:103E0000273A0000273A00000B42000026682B6882
:103E1000032E40F0A480A3F13002422A3FF603AE05
:103E200001A151F822F000BF353F000051500000C1
:103E3000A1500000BD4F0000DF4F00000150000006
:103E400029500000BB4E0000D94E0000FF4E00007C
:103E5000273A0000273A0000273A0000273A0000DE
:103E6000273A0000273A0000273A0000273A0000CE
:103E7000273A0000273A0000273A0000273A0000BE
:103E8000273A0000273A0000273A0000273A0000AE
:103E9000273A0000273A0000273A0000273A00009E
:103EA000273A0000273A0000273A0000273A00008E
:103EB000273A0000273A0000273A0000273A00007E
:103EC000273A0000273A0000273A0000273A00006E
:103ED000273A0000273A0000273A0000273A00005E
:103EE000273A0000273A0000273A0000274F000039
:103EF000454F0000634F0000814F00009F4F0000BE
:103F000081490000694E0000914E0000273A0000F0
:103F100019510000C7500000273A0000273A00005E
:103F2000273A0000273A0000273A0000ED50000031
:103F3000F950000007F0FEFB002841F3FD80C14866
:103F4000C14E08F0EFF80127034601466222BF4840
:103F5000B36527602A60FDF7FBF826682B68012E01
:103F60007FF461AD642B40F0D780B94BDFF80CB320
:103F7000DFF80CA3DFF80C93B34EDFF8FC82B54FEB
:103F800003933DE3A0F13002412A3FF64CAD01A17D
:103F900051F822F005480000314800005548000063
:103FA00079480000994800005D490000BD480000C4
:103FB00039490000D145000047470000273A00007A
:103FC000273A0000273A0000273A0000273A00006D
:103FD000273A0000273A0000273A0000273A00005D
:103FE000273A0000273A0000273A0000273A00004D
:103FF000273A0000273A0000273A0000273A00003D
:10400000273A0000273A0000273A0000273A00002C
:10401000273A0000273A0000273A0000273A00001C
:10402000273A0000273A0000273A0000273A00000C
:10403000273A0000273A0000273A0000273A0000FC
:10404000273A0000273A0000273A0000273A0000EC
:10405000273A0000273A0000273A0000273A0000DC
:10406000273A0000273A0000273A0000273A0000CC
:10407000273A0000273A0000273A0000273A0000BC
:10408000273A0000273A0000273A0000273A0000AC
:10409000273A0000273A00001F3A0000342B7FF433
:1040A000BCAC07F047FB00287FF78EAD6548664E35
:1040B00008F038F861210122A6F8BC000B462960FF
:1040C00022601646642927E0342B7FF4A6AC07F063
:1040D00031FB002841F337805A485B4E08F022F844
:1040E0004742B26CD6F8C83096F84410574800974B
:1040F000C6F8CC70FDF72EF8692285E4524E96F88A
:10410000D0207820012182F0010286F8D0200346D9
:10411000286021600E46642841F3D3806B2B01F0A8
:104120009A8401F3FA83652B01F0D982692B03D0BD
:1041300001F071B907F0C2FA07F0FCFA0546002851
:10414000F8D14048404E07F055FE3E4807F052FE79
:104150003C4807F04FFE3B4807F04CFE394807F05B
:1041600049FE15213C4807F00FFB364807F042FE98
:1041700018213A4807F008FB2B460A2296F844100B
:10418000304807F04BFE2F4807F034FE2821344812
:1041900007F0FAFAB06C334909F004F908F058FC5A
:1041A000009502460B46274807F082FE02212E4862
:1041B00007F0EAFA234807F01DFE19212B4807F003
:1041C000E3FAD6F8C80008F043FC04250B46024683
:1041D00000951C4807F06CFE1A4807F00BFE1821EA
:1041E000234807F0D1FAD6F8CC10164807F056FE4F
:1041F000144807F0FFFD13211E4807F0C5FA1148C7
:1042000007F0F8FD082323607DE41B4A0026732392
:10421000166026602B6006E407F08CFA00287FF712
:10422000F5AD0848084E07F07DFF134BC6F8A8000F
:1042300002221A60FDF730FE01226B2322602B6000
:1042400024E000BF2888FF1FF4C2FF1F0094FF1F57
:104250008CC4FF1FA892FF1FA02C010004220100A4
:104260002022010000007A444C220100502201006B
:104270006C220100F02101003C93FF1F90C4FF1F3E
:1042800030C4FF1FE8C2FF1F07F018FA07F052FA08
:104290000028F9D1C248C34D07F0ACFDC04807F073
:1042A000A9FDBF4807F0A6FDBD4807F0A3FDBC4827
:1042B00007F0A0FD2121BC4807F066FAB84807F0D6
:1042C00099FD1521B94807F05FFAD6F89810B4485F
:1042D00007F0E4FD0221B64807F056FAB04807F0AF
:1042E00089FD1E21B34807F04FFAD6F8A010AC485C
:1042F00007F0D4FD0321B04807F046FAA84807F0BC
:1043000079FD1E21AD4807F03FFAD6F89C10A4486D
:1043100007F0C4FDA24807F06DFD1D21A84807F075
:1043200033FAD6F8A8109E4807F0B8FD9C4807F06D
:1043300061FD1E21A34807F027FAD6F8AC10984873
:1043400007F0ACFD964807F055FDD6F8A430012BD8
:1043500000F0958705232360FFF7D5BB07F0EAF946
:1043600000287FF753AD8E488E4E07F0DBFE964B4C
:10437000C6F8AC0003225CE707F0DCF900287FF701
:1043800045AD8748874E07F0CDFE01226B23C6F866
:10439000980022602B6079E707F0CCF900287FF7BE
:1043A00035AD7F487F4E07F0BDFE01226B23C6F876
:1043B000A00022602B6069E707F0BCF900287FF7B6
:1043C00025AD7748774E07F0ADFE01226B23C6F886
:1043D0009C0022602B6059E7724E96F8DC30B3FAED
:1043E00083F35B0901216B2286F8DC3021602A60AF
:1043F0004CE76C4E96F8C430002B00F01887002371
:1044000086F8C43018E707F095F900287FF76EACFE
:104410006348644E07F086FE08F070FFF76A306369
:10442000394609F05DF900B137636522FFF7ECBA50
:1044300007F080F900287FF759AC5948594E07F02A
:1044400071FE00EB8000652701214200A6F8622082
:104450003B462F6021600E46642F5DE6514AD2F83C
:10446000B4300133072BC8BF0023C2F8B430DCE7F7
:1044700007F060F900287FF739AC4948494E07F04A
:1044800051FE65210122C6F8B8000B462960226062
:104490001646642940E6434B93F8C420002A00F0F6
:1044A000CB86002283F8C420BFE707F043F9002839
:1044B0007FF71CAC3A4807F035FE3A4A00EB800023
:1044C0004300B2F960101BB28B42A2F8DE30ACDDC3
:1044D000A2F8DE10A9E707F02DF900287FF706AC57
:1044E0002F48304E07F01EFE08F008FF374909F04C
:1044F0000DF865210122F0610B4629602260164605
:10450000642909E607F016F900287FF7EFAB244885
:10451000244E07F007FE00EB8000652701214200D2
:10452000A6F860203B462F6021600E46642FF3E51D
:1045300007F000F900287FF7D9AB1948194E07F0AA
:10454000F1FD08F0DBFE214908F0E0FF65210122C2
:1045500070610B462960226016466429DCE5114A29
:10456000D2F880300133042BC8BF0123C2F8803059
:104570006322FFF749BA0B4AD36F0133032BC8BF3D
:104580000023D367F4E70123236007F0D3F8002862
:10459000EEDD0348034E07F0C5FDC6F89400E7E7DB
:1045A0002888FF1FF4C2FF1FDC2401000025010042
:1045B000B423010018250100502001003825010016
:1045C00058250100782501003C93FF1F00007A4424
:1045D000BF4FDFF854B33B68DFF850A3DFF85093C8
:1045E000BC4EDFF85083B3FA83F35B093B600123D1
:1045F000236064232B60B84B039301E007F05EF85F
:1046000007F098F80028F9D1B44807F0F3FBB34855
:1046100007F0F0FBB14807F0EDFBB04807F0EAFB0C
:10462000AE4807F0E7FB1321AD4807F0ADF8AB4803
:1046300007F0E0FB0D21AB4807F0A6F8A74807F00C
:10464000D9FB0F21A84807F09FF8DBF80010A3481A
:1046500007F024FCA14807F0CDFB1321A34807F085
:1046600093F8DAF800109D4807F018FC9B4807F013
:10467000C1FB12219E4807F087F89E4B97481968A6
:1046800007F00CFC954807F0B5FB11219A4807F09C
:104690007BF8D9F80010914807F000FC8F4807F02C
:1046A000A9FB0E21954807F06FF8D6F8A4108B48A7
:1046B00007F0F4FB894807F09DFB1921904807F0AB
:1046C00063F8904B8548196807F0E8FB834807F0CA
:1046D00091FB11218C4807F057F8D8F800107F485B
:1046E00007F0DCFB7D4807F085FB1021874807F0C9
:1046F0004BF83968794807F0D1FB784807F07AFB26
:104700001C21834807F040F8824B7448196807F071
:10471000C5FB724807F06EFB1B217F4807F034F899
:10472000039B6E48197807F0B9FB6C4807F062FBF1
:1047300013217A4807F028F8684807F05BFB042348
:104740002360FFF7E0B90123236006F0F3FF0028A0
:1047500000F377856F4B1A682668042AC4BF0222CB
:104760001A6064232B606423FFF7D5B8594EB26FEB
:10477000B2FA82F2632001215209B267034628602F
:1047800021600E466428C7E4524ED6F88420B2FA5F
:1047900082F2632001215209C6F884200346286072
:1047A00021600E466428B7E40123236006F0C2FFAF
:1047B00000287FF7DDAE4948464E07F0B3FCC6F847
:1047C000B000D5E60123236006F0B4FF00287FF790
:1047D000ABA942483F4E07F0A5FC08F08FFDC6F894
:1047E0008C00FFF7A1B90123236006F0A3FF002886
:1047F0007FF79AA93948374E07F094FCA6F8BE0017
:10480000FFF792B9344B039319461B78DFF818B1C0
:10481000DFF818A1DFF818912E4EDFF818812C4F21
:1048200083F001030B700123236064232B60E7E610
:10483000DFF8F4B0DFF8F4A0DBF80030DFF8F09038
:10484000244EDFF8F080224FB3FA83F35B09CBF8F4
:104850000030CCE6DFF8D4A0DFF8CCB0DAF80030D6
:10486000DFF8CC901B4EDFF8CC80194FB3FA83F3FE
:104870005B09CAF80030BAE61E4B294F1A68002AB5
:104880000CBF012200224FF001061A60266040F0A2
:10489000E08464232B6066E7DFF89490DFF888B04B
:1048A000D9F80030DFF884A00A4EDFF88880084F7E
:1048B000B3FA83F35B09C9F8003098E6012319487D
:1048C0002360FCF711FA0F4B26681860E1E700BF80
:1048D000A892FF1FF4C2FF1F8CC4FF1F2888FF1F70
:1048E0002026010034260100442601005426010040
:1048F000682601004CC4FF1F7C26010090260100A1
:10490000A02601001093FF1FBC260100D026010045
:10491000E42601004C87FF1F04270100F02101005D
:10492000A0C4FF1F0094FF1F90C4FF1F30C4FF1FCF
:10493000E8C2FF1F3C93FF1FDFF8B080DFF8B0B084
:10494000D8F80030DFF8ACA0DFF8AC90224E234F4F
:10495000B3FA83F35B09C8F8003048E61E4EDFF86F
:1049600090B0D6F8A430DFF88CA0DFF88C90DFF898
:104970007C801A4FB3FA83F35B09C6F8A43036E69D
:10498000FDF73EF902211648134E06F0FDFE1548CC
:1049900007F030FA0221124806F0F6FE114807F03F
:1049A00029FA02210E4806F0EFFE0E4807F022FA1F
:1049B00017210D4806F0E8FE0A4807F01BFA02210D
:1049C000074806F0E1FE074807F014FA01226223C7
:1049D00022602B6014E000BFF4C2FF1FA892FF1FEB
:1049E000102D01002888FF1F982101003C93FF1F14
:1049F00090C4FF1F30C4FF1FE8C2FF1F06F05EFE19
:104A000006F098FE07460028F8D1C34807F0F2F9EF
:104A1000C14807F0EFF9C04807F0ECF9BE4807F0CD
:104A2000E9F9BD4807F0E6F91521BC4806F0ACFEEF
:104A3000B94807F0DFF91421B94806F0A5FEB648D9
:104A400007F0D8F91B21B74806F09EFEB24807F0E0
:104A5000D1F91321B44806F097FEAF4807F0CAF920
:104A6000AD4807F0C7F9AC4807F0C4F92021AF48BA
:104A700006F08AFEF068AE4908F094FC07F0E8FF03
:104A8000009702460B46A44807F012FA0221A948F3
:104A900006F07AFE0221A84806F076FE9E4807F04E
:104AA000A9F92121A54806F06FFE3069A04908F058
:104AB00079FC07F0CDFF009702460B46964807F0B9
:104AC000F7F902219B4806F05FFE02219A4806F0A2
:104AD0005BFE914807F08EF91F21994806F054FEBD
:104AE000B06A07F0B5FF022502460B4600958A48DA
:104AF00007F0DEF90121934806F046FE29468E486C
:104B000006F042FE844807F075F920218E4806F031
:104B10003BFEF06A07F09CFF009502460B467E487C
:104B200007F0C6F90121874806F02EFE2946824883
:104B300006F02AFE784807F05DF92321834806F045
:104B400023FEF06C7A4908F02DFC07F081FF0097F6
:104B500002460B46704807F0ABF92946754806F047
:104B600013FE2946744806F00FFE6B4807F042F921
:104B70001F21774806F008FE306D6D4908F012FCE1
:104B800007F066FF009702460B46634807F090F96E
:104B90002946684806F0F8FD2946674806F0F4FD06
:104BA0005D4807F027F919216A4806F0EDFDF16D1F
:104BB000594807F073F92946674806F0E5FD29468C
:104BC0005D4806F0E1FD544807F014F918216348E8
:104BD00006F0DAFDB6F9640008F090FB604908F0D1
:104BE000E1FB07F035FF009502460B464A4807F007
:104BF0005FF901215B4806F0C7FD29464E4806F0E3
:104C0000C3FD454807F0F6F82B21574806F0BCFDD8
:104C1000B069474908F0C6FB07F01AFF0097024643
:104C20000B463D4807F044F92946424806F0ACFDE2
:104C30002946414806F0A8FD374807F0DBF81F2158
:104C40004A4806F0A1FDB16D334807F027F929461F
:104C5000394806F099FD304807F0CCF82021444847
:104C600006F092FD716D2C4807F018F9294632487C
:104C700006F08AFD284807F0BDF810213D4806F0EF
:104C800083FDB16E244807F009F92946294806F04A
:104C90007BFD2946284806F077FD1F4807F0AAF853
:104CA0001321354806F070FDF16E1B4807F0F6F849
:104CB0000121324806F068FD29461F4806F064FDD0
:104CC000154807F097F810212D4806F05DFD316F6B
:104CD000114807F0E3F82946164806F055FD294625
:104CE000154806F051FD0C4807F084F814212548BA
:104CF00006F04AFD716F084807F0D0F801211F48FF
:104D000006F042FD29460C4806F03EFD024807F039
:104D100071F8162138E000BF2888FF1F2429010000
:104D20003C29010054290100F021010070290100F3
:104D300000007A444C220100102D0100942901004A
:104D4000B82901003C1E0100D8290100FC290100FE
:104D5000202A0100402A01005C2A0100602A01008B
:104D6000CDCCCC3D602801007C2A0100A82A01009E
:104D7000C82A0100EC2A0100002B0100142B0100BD
:104D8000182B01002C2B0100BB4806F0FDFC306AFB
:104D9000BA4908F007FB07F05BFE009702460B4696
:104DA000B74807F085F82946B64806F0EDFC2946D5
:104DB000B54806F0E9FCB24807F01CF82421B348D6
:104DC00006F0E2FCD6F8C000AC4908F0EBFA07F0B8
:104DD0003FFE009702460B46A94807F069F82946AE
:104DE000A84806F0D1FC2946A74806F0CDFCA44807
:104DF00007F000F82B21A64806F0C6FC706B07F000
:104E000027FE009502460B469D4807F051F8012108
:104E1000A04806F0B9FC29469B4806F0B5FC984826
:104E200006F0E8FF27219C4806F0AEFC306C934961
:104E300008F0B8FA07F00CFE00970B4602469048BF
:104E400007F036F829468F4806F09EFC29468E4822
:104E500006F09AFC8A4806F0CDFF894806F0CAFFA2
:104E600003232360FEF74FBE06F064FC002840F3E6
:104E700063818348894E07F055F908F03FFA7F496E
:104E800008F044FB01226223306222602B60B7E508
:104E900006F050FC002840F34F8179487F4E07F020
:104EA00041F908F02BFA754908F030FB0122622322
:104EB000C6F8C00022602B60A2E506F03BFC00288B
:104EC00040F33A816E48754E07F02CF901226223B7
:104ED000F06522602B6093E506F02CFC002840F37F
:104EE0002B8167486D4E07F01DF900EB80004300F1
:104EF00001216222A6F8643021602A6080E506F074
:104F000019FC002840F318815D48644E07F00AF947
:104F100008F0F4F9594908F0F9FA01226223B06166
:104F200022602B606CE506F005FC002840F304814C
:104F300053485A4E07F0F6F801226223706522604A
:104F40002B605DE506F0F6FB002840F3F5804C4849
:104F5000524E07F0E7F801226223B06622602B6010
:104F60004EE506F0E7FB002840F3E68044484B4E50
:104F700007F0D8F801226223F06622602B603FE53B
:104F800006F0D8FB002840F3D7803D48434E07F099
:104F9000C9F801226223306722602B6030E506F0F9
:104FA000C9FB002840F3C88035483C4E07F0BAF8EA
:104FB00001226223706722602B6021E506F0BAFBB4
:104FC000002840F3B9802E48344E07F0ABF808F0C3
:104FD00095F901226223B06222602B6010E506F091
:104FE000A9FB002840F3A88025482C4E07F09AF82A
:104FF00008F084F901226223F06222602B60FFE452
:1050000006F098FB002840F397801D48234E07F0D8
:1050100089F808F073F9194908F078FA0122622337
:10502000F06422602B60EBE406F084FB002840F380
:1050300083801348194E07F075F808F05FF90F499F
:1050400008F064FA01226223306522602B60D7E405
:1050500006F070FB00286FDD0948104E07F062F87B
:1050600008F04CF9054908F051FA01226223F0607A
:1050700022602B60C4E400BF442B010000007A448E
:105080002888FF1F4C220100102D01005C2B01001D
:10509000842B01003C1E0100B02B0100F4C2FF1F55
:1050A00006F048FB002847DD8C488D4E07F03AF8A3
:1050B00008F024F98B4908F029FA012262233061B3
:1050C00022602B609CE406F035FB002834DD834829
:1050D000834E07F027F808F011F9824908F016FA14
:1050E00001226223306422602B6089E40022732352
:1050F00022602B60FEF79FBC7B4B7C48784E0022E1
:1051000002211A6006F040FB744806F073FE0B2182
:10511000774806F039FB52E406F00CFB00280BDD63
:105120006E486F4E06F0FEFF08F0E8F80122622399
:10513000706322602B6063E426682B68012E7EF486
:1051400072ACFEF70FBF26682B68FEF7F0BC06F0C6
:10515000F1FA002863DC624E96F84400172858D90B
:10516000002186F84410D6F8CC00B26CD6F8C830CE
:1051700000906048FBF7EEFF6922FEF745BC06F0A1
:10518000D9FA00287EF720AD5448554E06F0CAFFE4
:1051900008F0B4F8584908F005F96121012270625D
:1051A0000B462960226016466429FEF7B5BF06F05B
:1051B000C1FA00287EF708AD4848494E06F0B2FF14
:1051C00008F09CF861210122B0630B46296022603F
:1051D00016466429FEF7A0BF06F0ACFA0028B2DD3F
:1051E0003E483F4E06F09EFF08F088F8434908F01D
:1051F000D9F8D6F8CC30B26C96F844100093074634
:105200000346C6F8C8703B48FBF7A4FF6922FEF7C7
:10521000FBBB3B4BC340DB07A2D50146A3E72F48AE
:105220002F4E06F07FFFC0B286F8440096E70123B8
:1052300086F8C430FFF700B8012283F8C420FFF7D6
:10524000F4B8264806F06EFF2E4B02461860FFF7B2
:1052500083BA00262C4B31460B201E6004F0A0FBC5
:1052600031460C2004F09CFB3146142004F098FBDE
:105270003146152004F094FB3E68FFF70ABB20215D
:10528000224806F081FA95F8DC30ABB92049134882
:10529000FCF7A4FC1D211F4806F076FA96F8C430EE
:1052A0000E48012B14BF1C491C49FCF789FC0B4814
:1052B00006F0A0FDFFF74EB819490848FCF78EFC30
:1052C000E8E7612B34D000F3AF80522B40F0A3808D
:1052D000144B154A1A60FEF716BC00BF2888FF1F42
:1052E000F4C2FF1F00007A44F893FF1F102D010045
:1052F000B02101000094FF1F6F12833A17B7D13815
:105300000F3080004C87FF1FF493FF1F982501008A
:10531000BC250100E8250100082601001426010033
:10532000C82501000CED00E00400FA0506F0C6F9FE
:1053300006F000FA05460028F8D1C048C04E06F035
:1053400059FDBE4806F056FDBC4806F053FDBB486B
:1053500006F050FDB94806F04DFD1F21B94806F092
:1053600013FAB64806F046FD1C21B74806F00CFAC1
:10537000706AB64908F016F807F06AFB0095024615
:105380000B46AE4806F094FD0221B14806F0FCF948
:10539000AA4806F02FFD2321AE4806F0F5F9F06B80
:1053A000AA4907F0FFFF07F053FB009502460B46A2
:1053B000A24806F07DFD0221A54806F0E5F99F48C8
:1053C00006F018FD1921A44806F0DEF9B06B07F0CD
:1053D0003FFB02250B4602460095984806F068FD03
:1053E00029469E4806F0D0F9944806F003FD1021A6
:1053F0009B4806F0C9F9B6F8BC10904806F04EFD7F
:105400000321984806F0C0F98C4806F0F3FC072306
:105410002360FEF778BB2268002A08BF732B0CBFFD
:1054200001230023FEF705BB622B00F05381632BA1
:1054300002D0F0E706F042F906F07CF90028F9D135
:105440007E487F4E06F0D6FC7C4806F0D3FC7B48B5
:1054500006F0D0FC794806F0CDFC784806F0CAFC8E
:105460001F21814806F090F9744806F0C3FC1E2104
:105470007E4806F089F9714806F0BCFC1A217C4888
:1054800006F082F9F36F022B00F0BE80032B00F0D0
:10549000B380012B00F0A8800921764806F074F94A
:1054A000664806F0A7FC14217348654D06F06CF9B8
:1054B000B16F624806F0F2FC604806F09BFC1C21CC
:1054C0006E4806F061F9D6F884105C4806F0E6FCF8
:1054D0005A4806F08FFC1C21694806F055F9D6F8A9
:1054E000B010564806F0DAFC544806F083FCF36F1F
:1054F00023F00202012A0DD0022B00F08D8013212F
:10550000604806F041F94D4806F074FC0223236020
:10551000FEF7F9BA1C215C4806F036F9D5F8900080
:105520005A4907F03FFF07F093FA02270B4602465D
:105530000097424806F0BCFC0521554806F024F9C6
:105540003E4806F057FCEB6F012B18D11D21514846
:1055500006F01AF9D5F88C004C4907F023FF07F044
:1055600077FA00970B460246344806F0A1FC052165
:10557000474806F009F9314806F03CFCEB6F23F090
:105580000202012AB8D11C2143482D4D06F0FCF837
:10559000B6F8BE10294806F081FC03213F4806F00A
:1055A000F3F8264806F026FCF36F012BA4D11F2147
:1055B0003B4806F0E9F8D5F8940007F09FFE39491A
:1055C00007F0F0FE07F044FA02270B460246009768
:1055D0001A4806F06DFC3946334806F0D5F81748EE
:1055E00006F008FCEB6F87E71E21304806F0CCF888
:1055F000124806F0FFFB56E720212D4806F0C4F8BC
:105600000E4806F0F7FB4EE717212A4806F0BCF8D3
:105610000A4806F0EFFB46E71721274806F0B4F8E2
:10562000D6F88030012B4BD0022B4ED0032B7FF4C9
:1056300066AF22490148FCF7D1FA60E72888FF1FCE
:10564000F4C2FF1F442401006424010000007A44D6
:105650004C22010084240100A82401002024010020
:10566000C4240100D82401002027010040270100A4
:1056700060270100D8270100E4270100FC27010072
:105680001C280100F02101003C2801000AD7233C1E
:105690005C2801006428010084280100A42801007E
:1056A000A82801006F12833A242001007C27010002
:1056B0009C270100C0270100C82801001029010013
:1056C000B649B748FCF78AFA19E7B649B448FCF777
:1056D00085FA14E7B44EFFF793B905F0EFFF06F033
:1056E00029F805460028F8D1AD48AF4E06F082FBF8
:1056F000AB4806F07FFBAA4806F07CFBA84806F002
:1057000079FBA74806F076FB1121A84806F03CF883
:10571000A34806F06FFB2821A54806F035F870690C
:10572000A44907F03FFE07F093F9009502460B46A7
:105730009B4806F0BDFB02219F4806F025F89848DB
:1057400006F058FB16219D4806F01EF8F0699949AD
:1057500007F028FE07F07CF900950B4602469048BA
:1057600006F0A6FB0221944806F00EF88C4806F0DD
:1057700041FBD6F8B430002B34DD1D21904806F0F3
:1057800003F8B6F9600007F0B9FD8E4907F00AFE8C
:1057900007F05EF9022502460B460095804806F0A8
:1057A00087FB0121884805F0EFFF7D4806F022FBCA
:1057B0001F21864805F0E8FFB6F9620007F09EFD5C
:1057C000804907F0EFFD07F043F9009502460B46CC
:1057D000734806F06DFB01217B4805F0D5FF70484A
:1057E00006F008FB11217A4805F0CEFFD6F8B43058
:1057F000072B09D8DFE803F0878C827D78736E046D
:105800001021744805F0C0FF6548674D06F0F2FAB4
:10581000D6F8B430002B12DD18216F4805F0B4FF24
:10582000D5F8B8105E4806F039FB02216B4805F048
:10583000ABFF5B4806F0DEFA594806F0DBFA1B21A5
:10584000674805F0A1FF96F8C430012B15BF12215F
:1058500014216448644805F097FF514806F0CAFADD
:105860001F21624805F090FF306B07F0F1F8022528
:1058700002460B4600954A4806F01AFB29465C484A
:1058800005F082FF464806F0B5FA1E21594805F09A
:105890007BFFB6F9DE0007F031FD4A4907F082FDD3
:1058A00007F0D6F800950B4602463D4806F000FB8F
:1058B0000121454805F068FF394806F09BFA13219D
:1058C0004D4805F061FF364806F094FA0623236040
:1058D000FEF719B90421494805F056FF94E70B215A
:1058E000474805F051FF8FE70D21464805F04CFF72
:1058F0008AE70D21444805F047FF85E70C2143481E
:1059000005F042FF80E70D21414805F03DFF7BE7B0
:105910000C21404805F038FF76E7712B00F08280BB
:10592000782B02D077E505F0C9FE05F003FF0028CB
:10593000F9D11B4806F05EFA194806F05BFA1848E0
:1059400006F058FA164806F055FA154806F052FACD
:105950001221314805F018FF114806F04BFA1048A3
:1059600006F048FA16212D4805F00EFF0E4B93F86D
:10597000D030002B67D10421294805F005FF0848E5
:1059800006F038FA13211C4805F0FEFE044806F024
:1059900031FA09232360FEF7B6B800BFE028010002
:1059A0002888FF1FF8280100F4C2FF1F442C0100C3
:1059B0008822010000007A444C220100B422010038
:1059C000CC220100CDCCCC3D60280100EC220100AE
:1059D0000C2301008423010098230100B42301005B
:1059E000B8230100D4230100E823010000240100B2
:1059F0002024010024240100F02101007C23010067
:105A000070230100602301005023010040230100A6
:105A10002023010030230100D02C0100BC21010013
:105A2000D4210100E02200210C4803F0DFFC2B68A8
:105A30000B49A3F173030022B3FA83F35B090E60F1
:105A40002260FDF7F6BF1121064805F09DFE0648CD
:105A500006F0D0F996E7014EFEF718BCF4C2FF1F1E
:105A60002887FF1FDC2101002888FF1F10B5124C7A
:105A7000124A2368101D12F8011F904241EA0323C5
:105A8000F9D10F4A236003F1004313600D4BDB6F24
:105A9000022B08D00C4B1B68012B00D010BDBDE8B9
:105AA0001040FCF777B81068084C07F027FC20601E
:105AB000FCF75EFDEEE700BF7CC4FF1F2BC2FF1F9B
:105AC000EC93FF1FF4C2FF1F90C4FF1F74C4FF1F9D
:105AD00070B51D4A1D4C507A937A2168D27A1C4EBB
