:1000000000800020BD010000C19000007990000038
:1000100079900000799000007990000079900000BC
:10002000799000007990000079900000C190000064
:10003000C190000079900000D9860000DD870000A3
:10004000C1900000C1900000C1900000C19000006C
:10005000C1900000C1900000C1900000C19000005C
:10006000C1900000C1900000C1900000C19000004C
:10007000C1900000C1900000C1900000C19000003C
:10008000C1900000C1900000C1900000C19000002C
:10009000C1900000C1900000C1900000C19000001C
:1000A000C1900000C1900000C1900000C19000000C
:1000B000C1900000457C0000517C0000557C000090
:1000C000617C0000657C0000697C0000C19000003C
:1000D000C1900000C1900000C1900000C1900000DC
:1000E000C1900000C1900000C1900000C1900000CC
:1000F000C190000055B30000C1900000B59D000004
:10010000C1900000CDA00000C1900000C19000008F
:10011000C1900000C1900000C1900000C19000009B
:10012000C1900000C1900000C1900000C19000008B
:10013000C1900000C1900000C1900000C19000007B
:10014000C1900000C1900000C1900000C19000006B
:10015000C1900000C1900000C1900000C19000005B
:10016000C19000005DA30000C1900000C19000009C
:10017000C1900000C1900000C1900000C19000003B
:10018000C1900000C1900000C1900000C19000002B
:10019000C1900000C1900000C1900000C19000001B
:1001A000C1900000C1900000C1900000C19000000B
:1001B000C1900000C1900000C1900000564B4CF26D
:1001C000205210B51A804DF628121A8000BF00BFC9
:1001D00008F07AFF514B4FF010621A60504A9A6053
:1001E000504ADA60504A136813F4807304D14F49BF
:1001F0000B604FF4A85313604D4B1A78110703D5C9
:100200001A7842F008021A704A4B4B492A221A7097
:100210004A4A4B4B8B4204D252F8040F43F8040B6A
:10022000F8E7484B484900228B4202D243F8042B9E
:10023000FAE74649464A002352F8230041F82300D2
:1002400001336F2BF8D1434B434A802103F8011B44
:100250009342FBD1414B3D4A1A60414B8A221A70AE
:10026000A3F5805324225A70A0221A709A7992071B
:10027000FCD59A79D406FCD43A4A937903F00C035E
:10028000082B384BF9D103221A7140225A719A79FE
:100290009006FCD5334A9179324B4906FBD5324A58
:1002A000324911600221516020221A709A7902F0BD
:1002B0000C020C2AFAD12E4B2E4A1A602E4B2F4AD2
:1002C0001A6000225A60072243F8042C2C4AC3F813
:1002D0000C2D62B609F0D8F9144B1B68DA0705D566
:1002E000284808F0B5FF284B284A1A60284B1B788D
:1002F0005B0609D5244C254B22689A4204D121483B
:1003000008F0A6FF002323600DF024FB08F0E2FEB6
:1003100008F010FEFEE700BF0E20054030800440CC
:10032000823F04000100002B10D0034014D0034092
:1003300002D0074000E007402892FF1F4C37010021
:100340002087FF1F2892FF1FB4C7FF1F0082FF1FD7
:100350000000000000E400E05FE400E008ED00E0E1
:100360000050064000400640448004400000030165
:1003700004800440C010050014E000E0FF76010096
:10038000000020209655D85D1CE00340A5C3945A78
:1003900000F00740FFFFFFFFFFFFFFFFFFFFFFFF32
:1003A000FFFFFFFFFFFFFFFFFFFFFFFFFFFFFFFF5D
:1003B000FFFFFFFFFFFFFFFFFFFFFFFFFFFFFFFF4D
:1003C000FFFFFFFFFFFFFFFFFFFFFFFFFFFFFFFF3D
:1003D000FFFFFFFFFFFFFFFFFFFFFFFFFFFFFFFF2D
:1003E000FFFFFFFFFFFFFFFFFFFFFFFFFFFFFFFF1D
:1003F000FFFFFFFFFFFFFFFFFFFFFFFFFFFFFFFF0D
:10040000FFFFFFFFFFFFFFFFFFFFFFFFDEF9FFFF23
:1004100010B5054C237833B9044B13B10448AFF33E
:1004200000800123237010BD2892FF1F00000000F0
:1004300048370100084B10B51BB108490848AFF315
:1004400000800848036803B910BD074B002BFBD0A0
:10045000BDE81040184700BF000000002C92FF1FAD
:10046000483701002892FF1F00000000F0B400F19F
:100470001C06134F00243146031F00F13C0243F8D1
:10048000044FB34241F8047F4FF0000542F8044F97
:10049000F5D100230B4A0C4C056647F230514566F6
:1004A0008566C566C56744670267826780F88430E1
:1004B00080F8853080F89C30A0F8AE10F0BC704712
:1004C0000000A040000048430000C8C22DE9F041F0
:1004D00090F89C4084B0202364008DF80530E4B28D
:1004E000042380468DF804408DF80630032720460B
:1004F00009F088FD02210DF1050009F08DFD8DF850
:10050000044001F013FD30B3092140480AF0BCFD5E
:100510000023102221463E4808F01EFA01213D48E2
:100520000AF0B2FD002310229DF80510384808F0AB
:1005300013FA012137480AF0A7FD002310229DF885
:100540000610334808F008FA012132480AF09CFDF1
:100550002F4808F0F1F902208DF8044009F046F820
:1005600001F0E4FC00284CD102AE002409F06AFD41
:1005700070B3072C1FD101E009F074FD09F062FD92
:100580000028F9D101F0D2FC10B1214808F0D4F9CB
:100590009DF80B009DF80C109DF80D209DF80E3075
:1005A000C8F88800C8F88C10C8F89020C8F89430B3
:1005B00004B0BDE8F08109F055FD054606F8010BD1
:1005C00001F0B4FC70B9013409F03CFD0028D0D131
:1005D000072CD3D001F0AAFC78B9013FD8D09DF800
:1005E000044084E7E9B200231022094808F0B4F976
:1005F000012108480AF048FDE5E7054808F09CF9A4
:10060000EBE7072104480AF03FFDADE7181B0100A6
:10061000C887FF1F78220100241B010090F88C007E
:10062000704700BF90F88800704700BF90F89000B6
:10063000704700BF90F89400704700BF082994BF2E
:1006400050F82100002070472DE9F0410B4E804604
:10065000041F00F11C0754F8045F314628460DF0D2
:10066000EFF830B1D8F8801028460DF007F900B146
:100670002E46BC42EFD13046BDE8F081000020415B
:100680002DE9F041D0F880704FF00008041F00F110
:100690001C0654F8045F394628460DF0EFF8084967
:1006A00048B128460DF0CCF8414620B128460DF05F
:1006B000E5F800B1A846B442EBD14046BDE8F08170
:1006C000000070422DE9F047D0F8807082464FF06C
:1006D0000009041F00F11C064FF0000854F8045FE5
:1006E000394628460DF0CAF80E4950B128460DF09B
:1006F000A7F830B1484629460CF0FCFD08F1010886
:100700008146B442EAD1B8F1000F01D0CAF8A08006
:1007100040460CF0A3FE014648460CF0A7FFBDE89A
:10072000F08700BF00007042D0F8A000704700BF03
:10073000D0F8983070B5054673B9866E446E314670
:1007400020460DF07DF870B1ED6E204629460DF083
:1007500077F8D0B1204670BD012B0ED0022B19D0F6
:10076000032B15D070BDEC6E304621460DF068F8B5
:100770000028EFD03446204670BDC46EAD6E2046D2
:1007800029460DF05DF80028E4D12C46204670BDC6
:10079000446EF3E7446ED7E7D0F8983070B505465D
:1007A00073B9866E446E314620460DF067F870B11D
:1007B000ED6E204629460DF061F8D0B1204670BD9F
:1007C000012B0ED0022B19D0032B15D070BDEC6E6F
:1007D000304621460DF052F80028EFD0344620462E
:1007E00070BDC46EAD6E204629460DF047F8002856
:1007F000E4D12C46204670BD446EF3E7446ED7E743
:100800002DE9F04F022987B00746144600F02E81EB
:10081000032900F0C480012900F0838097F8AC30F0
:1008200001933846FFF784FF396F04460DF008F84E
:1008300000B13C673846FFF7AFFF796F04460DF013
:100840001DF800B17C6707F11C0BA7F1040A07F142
:100850003C095D46D0464E4658F8044F55F8040F03
:1008600021460DF00BF830B1D7F8801020460CF07F
:10087000FBFF00B12C6056F8041F20460CF0FEFF71
:1008800000B13460A945E7D1019B002B7ED0A84C74
:10089000D7F8A82023680393039BB7F8AE109B1AE0
:1008A0008B420DD300224AF8042FD3454FF00003AA
:1008B000F9D13B667B66BB66FB6607B0BDE8F08F8F
:1008C00023680493049BC91A0A4441F287339A426D
:1008D000F3D8022197480AF0D7FB974808F02CF884
:1008E000062196480AF0D0FB00230A2297F89C10B4
:1008F000914808F031F8192191480AF0C5FB2368A6
:100900000593059AB7F8AE30D7F8A8108A489B1A15
:1009100019440A22002308F01FF8874808F00CF851
:10092000CBE7137A80F8A430D0F8B400D7F8B060E1
:100930000CF094FDE37A0546A07A03EB00200CF05E
:100940008DFD31460CF0DEFD29460CF0D3FC7866B7
:10095000637B207B03EB00200CF080FD31460CF024
:10096000D1FD29460CF0C6FCB866E37BA07B03EB07
:1009700000200CF073FD31460CF0C4FD29460CF04C
:10098000B9FC97F8AC300193F8664AE7684B1B68EE
:100990000293029BC7F8A83007B0BDE8F08F107A29
:1009A000537A03EB00200CF059FD66490CF0AAFDC8
:1009B000D7F88050294606460CF060FF40B16249E6
:1009C00030460CF03DFF18B100233E6187F8AC3093
:1009D000E37AA07A03EB00200CF040FD59490CF0BB
:1009E00091FD0646014628460CF02AFF40B15649C3
:1009F00030460CF025FF18B100237E6187F8AC303B
:100A0000637B207B03EB00200CF028FD4D490CF0AC
:100A100079FD0646014628460CF012FF40B14A49CE
:100A200030460CF00DFF18B10023BE6187F8AC30E2
:100A3000E37BA07B03EB00200CF010FD41490CF0A0
:100A400061FD0446014628460CF0FAFE00283FF4FA
:100A5000E5AE3D4920460CF0F3FE00283FF4DEAE43
:100A60000023FC6187F8AC300193DAE6107A537A00
:100A700003EB00200CF0F2FC32490CF043FDD7F8F8
:100A80008050294606460CF0F9FE00285ED101236D
:100A900087F8AC30E37AA07A03EB00200CF0DEFCA0
:100AA00028490CF02FFD0646014628460CF0C8FEEA
:100AB00000285FD0244930460CF0C2FE002859D0EF
:100AC00000237E6087F8AC30637B207B03EB002043
:100AD0000CF0C4FC1B490CF015FD064601462846E7
:100AE0000CF0AEFE002841D0174930460CF0A8FEAD
:100AF00000283BD00023BE6087F8AC30E37BA07BAE
:100B000003EB00200CF0AAFC0E490CF0FBFC0446A1
:100B1000014628460CF094FE18B30B4920460CF011
:100B20008FFEF0B10023FC6087F8AC30019378E6CB
:100B3000DCC4FF1FD42F0100C887FF1F2C1B01003E
:100B4000341B01006F12833A000070420B4930469B
:100B50000CF076FE00289AD000233E6087F8AC3077
:100B600098E7012387F8AC3001935AE6012387F810
:100B7000AC30C3E7012387F8AC30A5E70000704232
:100B80002DE9F04F90F89C3091B007465B008DF84E
:100B90000830FFF79BFCD7F89000D7F89440D7F8BF
:100BA0008C30D7F8882097F89C108DE81100C94840
:100BB00001F0C2FA30223D2303268DF809208DF87A
:100BC0000A300DF10A059DF8089049F001084046E9
:100BD00009F018FA0DF10900022109F01DFA8DF84B
:100BE0000880424602AB00205040082410F0800FDD
:100BF0004FEA400018BF80F00700013CC0B2F5D1B9
:100C00009D4202D013F8012FEEE709F0FBF901F045
:100C10008DF9002840F07C8202208DF8089008F0C1
:100C2000E5FC01F083F9002840F0B8820DF10C0AD0
:100C3000D146002409F006FA002843D0032C34D111
:100C400001E009F00FFA09F0FDF90028F9D101F0EF
:100C50006DF910B1A04807F06FFE312303268DF81F
:100C600009308DF80A609DF8089049F00108404667
:100C700009F0C8F90DF10900022109F0CDF98DF84C
:100C80000880424602AB00205040082410F0800F3C
:100C90004FEA400018BF80F00700013CC0B2F5D118
:100CA0009D4228D013F8012FEEE709F0DBF909F88F
:100CB000010B804601F03AF968B9013409F0C2F934
:100CC0000028BBD1032CBED001F030F978B9013E29
:100CD0007FF479AFC1E75FFA88F1002310227E48E4
:100CE00007F03AFE01217D480AF0CEF9E5E77A489F
:100CF00007F022FEEBE709F085F901F017F900286B
:100D000040F0C58102208DF8089008F06FFC01F0DA
:100D10000DF9002840F03D820DF10C09002409F086
:100D200091F9002844D0032C35D101E009F09AF95B
:100D300009F088F90028F9D101F0F8F810B16648F7
:100D400007F0FAFD342201238DF809208DF80A30CE
:100D500003269DF8089049F00108404609F052F931
:100D60000DF10900022109F057F98DF8088042467B
:100D700002AB00205040082410F0800F4FEA4000E2
:100D800018BF80F00700013CC0B2F5D19D4228D0C9
:100D900013F8012FEEE709F065F909F8010B804619
:100DA00001F0C4F868B9013409F04CF90028BAD14F
:100DB000032CBDD001F0BAF878B9013E7FF453AFEF
:100DC000C0E75FFA88F100231022434807F0C4FD12
:100DD000012142480AF058F9E5E73F4807F0ACFD29
:100DE000EBE709F00FF901F0A1F8002840F00E81BF
:100DF00002208DF8089008F0F9FB01F097F8002820
:100E000040F0D6810DF10C09002409F01BF90028EF
:100E100000F08480032C72D101E009F023F909F07D
:100E200011F90028F9D101F081F810B12A4807F032
:100E300083FD012212238DF809208DF80A304FF02E
:100E400003089DF80840204609F0DCF802210DF166
:100E5000090009F0E1F88DF8084001F067F830B3B7
:100E600009211F480AF010F90023102221461A48D0
:100E700007F072FD012119480AF006F9002310223B
:100E80009DF80910144807F067FD012113480AF086
:100E9000FBF8002310229DF80A100F4807F05CFDB4
:100EA00001210E480AF0F0F80B4807F045FD062036
:100EB0008DF8084008F09AFB01F038F8002840F05F
:100EC000728103AD002609F0BDF800283FD0162E30
:100ED0002FD109E0501B0100C887FF1F78220100B5
:100EE000181B010009F0BEF809F0ACF80028F9D190
:100EF00001F01CF8162600287DD1152035E009F0F8
:100F0000B1F809F8010B804601F010F800285BD118
:100F1000013409F097F800287FF47CAF032C3FF4EC
:100F20007EAF01F003F800286CD1013E7FF411AFD1
:100F30007FE709F097F805F8010B044600F0F6FF8B
:100F400000284DD1013609F07DF80028BFD1162EBA
:100F5000CAD000F0EBFF00284DD1B8F101087FF4B2
:100F600070AF701E002840F31982002303AA1C46AC
:100F700012F8011B08254C4014F0800F4FEA44047E
:100F800018BF84F00704013DE4B2F5D10133834278
:100F9000EEDB9DF8218089484146224601F0CCF8DD
:100FA000162EC146A34602D1A04500F0138197F842
:100FB0009C108348CDF800B04B46324601F0EAF869
:100FC000002011B0BDE8F08F5FFA88F100231022F5
:100FD0007C4807F0C1FC01217B480AF055F897E7EF
:100FE000E1B200231022774807F0B6FC01217648D1
:100FF0000AF04AF8A6E7734807F09EFC162EACD11B
:101000001520B2E76F4807F097FC8EE709216F487B
:101010000AF03AF82346102241466A4807F09CFC41
:10102000012169480AF030F8234610229DF8091082
:10103000644807F091FC012163480AF025F810226A
:1010400023469DF80A105F4807F086FC01215E48A0
:101050000AF01AF821460DF10B0002AA12F8014B12
:101060006140C9B2082311F0800F4FEA410118BF57
:1010700081F00701013BC9B2F5D19042EED11022B7
:10108000504807F069FC4F4807F056FCB0E60921CC
:101090004E4809F0F9FF234610224146494807F01F
:1010A0005BFC0121484809F0EFFF234610229DF820
:1010B0000910444807F050FC0121434809F0E4FFBF
:1010C000102223469DF80A103E4807F045FC0121F6
:1010D0003D4809F0D9FF21460DF10B0002AA12F894
:1010E000014B6140C9B2082311F0800F4FEA410162
:1010F00018BF81F00701013BC9B2F5D19042EED192
:101100001022304807F028FC2E4807F015FCF9E5BE
:1011100009212E4809F0B8FF2346102241462948EC
:1011200007F01AFC0121284809F0AEFF23461022DF
:101130009DF80910234807F00FFC0121224809F00F
:10114000A3FF102223469DF80A101E4807F004FC56
:1011500001211D4809F098FF21460DF10B0002AA5C
:1011600012F8014B6140C9B2082311F0800F4FEA19
:10117000410118BF81F00701013BC9B2F5D190428E
:10118000EED110220F4807F0E7FB0E4807F0D4FB22
:1011900042E507210E4809F077FFBDE507210C481D
:1011A00009F072FF42E50721094809F06DFF88E662
:1011B0000721074809F068FF24E600BF841B0100EF
:1011C000D01B0100C887FF1F78220100181B0100F7
:1011D000241B01009DF80C3097F89C20B3EB420FC4
:1011E0007FF4EEAE9DF80D30012B7FF4E9AE9DF853
:1011F0000E30122B7FF4E4AE9DF810309DF80F00F6
:1012000003EB00200CF02AF969490CF07BF9F96F27
:10121000386604460CF032FB00B1FC67B96F20461B
:101220000CF00EFB00B1BC67A7F1040907F1200622
:1012300007F140054FF008089AF806309AF80500C3
:1012400003EB00200CF00AF95A490CF05BF949F85D
:10125000040F316804460CF0F3FA0AF1020A30B1C7
:10126000D7F8801020460CF0FFFA00B134602968EE
:1012700020460CF003FB043600B12C60B8F10108E5
:1012800005F10405D8D19DF81E309DF81D0003EB33
:10129000002002300CF0E2F847490CF0E7F9014673
:1012A00046480CF0E3F946490CF022F845490CF0A9
:1012B00029F905460AF094F9044628460AF090F9FF
:1012C00041490AF0FFF94149054620460CF01AF958
:1012D0003F490CF00FF83F49044628460CF012F93C
:1012E000014620460CF006F801464FF07E500CF007
:1012F000BDF939490BF0FCFF9DF81F209DF8203007
:10130000786603EB022009300CF0A8F833490CF0A2
:10131000ADF9014629480CF0A9F929490BF0E8FF7D
:1013200028490CF0EFF805460AF05AF90446284619
:101330000AF056F924490AF0C5F924490546204621
:101340000CF0E0F822490BF0D5FF2249044628466C
:101350000CF0D8F8014620460BF0CCFF01464FF0C8
:101360007E500CF083F91C490BF0C2FFB86638467A
:10137000FFF7DEF9396F04460CF062FA00B13C6702
:101380003846FFF709FA796F04460CF077FA00B196
:101390007C67134800F0D0FE012012E69DF82190F2
:1013A000104849464246C34600F0C6FEFFE500BF6E
:1013B0001357053B2003C839001601470AD7E33FFE
:1013C000E17A644000007A4400004040A40D8F3967
:1013D0005A80473A46A6DB3333938843002C0147B3
:1013E000A81B0100841B0100D0F8983010B50446FA
:1013F00033B1012B0FD0022B1FD0032B14D010BD03
:10140000816E406E0BF076FFE16E0BF073FF0F49BB
:101410000CF02CF910BDC16E806E0BF06BFF4FF01D
:101420007C510CF06FF810BD816E406E0BF062FFC6
:101430004FF07C510CF066F810BDC16E406E0BF0A1
:1014400059FF4FF07C510CF05DF810BD000040409A
:101450002DE9F8430026D0F88080066681460446D0
:1014600000F1200754F8045B414628460CF006FAC8
:10147000084950B128460CF0E3F930B1304629460E
:101480000BF038FF0646C9F86000BC42EAD130468E
:10149000BDE8F8830000704202299ABF00EB81008A
:1014A000406E0020704700BF3E2998BF80F89C1016
:1014B000704700BF90F8A400704700BF90F8840008
:1014C000704700BF90F88500704700BFC0F89810C3
:1014D000704700BF80F88410704700BF80F8851007
:1014E000704700BF30B5C0F8801083B008460BF0DD
:1014F0005FFB074C022502460B460095204607F08D
:1015000073FA204603B0BDE8304007F015BA00BFBB
:10151000C887FF1FC0F8B010C0F8B420704700BFE4
:1015200070B500F535550646303500F128042046E3
:10153000B834FEF79BFFAC42F9D106F1E005012477
:1015400028460021FFF7C6FF214628460134FFF751
:10155000ABFF3F2C05F1B805F2D142F67C540025D3
:101560000548064A064B3555002130617161B2616C
:10157000F361304670BD00BF00007A44000048436C
:101580000000C8C270B500F53556303600F1E004F1
:10159000002507E0012520460021B834FFF79EFF13
:1015A000B4420AD02046FFF789FF0028F3D0204636
:1015B000FFF788FF0028EDD170BD284670BD00BF41
:1015C000F8B500F53657002300F535563B60303648
:1015D00000F1E00402E0B834B4420DD02046FFF739
:1015E0006DFF0028F7D020463D68FFF79DF8B8341E
:1015F0002844B4423860F1D13868F8BDF8B50E46D9
:10160000096801F47F6500290446A5F5C06515DB6E
:101610002D0901F00F07B82303FB054428342046A9
:101620000121FFF757FF20460121FFF757FF324600
:1016300039462046BDE8F840FFF7E2B80A4801F015
:101640000F0707F079F91221084809F01DFD3168EC
:10165000054801F0004100230A2207F07DF9024805
:101660002D0907F069F9D6E7C887FF1F201C010084
:101670002DE9F0430446002383B0064644F8E03BDE
:10168000012504E001353F2D04F1B80469D020465E
:10169000FFF714FF0028F5D0504800F04DFD294613
:1016A0004F4800F049FD2046FFF76AFA2046FFF751
:1016B000CFFE0BF07DFA02460B464A4800F03CFD97
:1016C0002046FEF7C1FF80462046FEF7D9FF0746B9
:1016D00040460BF06DFA8046384689460BF068FAB2
:1016E00042464B46CDE900013F4800F025FD002170
:1016F0002046FFF7D1FE012180462046FFF7CCFEB1
:10170000074640460BF054FA8046384689460BF0AF
:101710004FFA42464B46CDE90001344800F00CFD3B
:101720002046FFF795FE014630680BF0E3FD306080
:101730002046FEF7FDFFB1690CF082F8002833D196
:101740002046FFF729F8F1690CF098F8002899D0A5
:101750002046FFF721F801353F2DF06104F1B80470
:1017600095D170680BF07AFE014630680BF07EFF71
:101770007169306004460CF081F800B17461316920
:1017800020460CF05DF800B134610B2007F0F8FE44
:1017900042F67C53F35C60B99BB142F67C53012264
:1017A000F25403B0BDE8F0832046FEF7C1FFB061FC
:1017B000C6E753B942F67C530022F25403B0BDE8A9
:1017C000F0830B4800F0E6FCE7E70A4800F0CCFCA9
:1017D00042F67C530022F254F0E700BF1C1E0100C9
:1017E000341C0100701C0100841C0100B01C0100AD
:1017F000CC1C0100041D010070B5114B836000F585
:1018000035550646303500F1E00402E0B834AC420C
:1018100013D02046FFF752FE0028F7D02046FEF7EF
:1018200013FFB1680CF00CF80028EFD02046FEF74B
:101830000BFFB834AC42B060EBD1B06870BD00BFF4
:101840000000A04070B5002300F535550646C36082
:10185000303500F1E00402E0B834AC4213D0204649
:10186000FFF72CFE0028F7D02046FEF709FFF168AD
:101870000CF004F80028EFD02046FEF701FFB83442
:10188000AC42F060EBD1F06870BD00BF00687047FB
:10189000416070472DE9F84342F6885642F68C5570
:1018A00042F6845E42F69054815140F80E20089E24
:1018B000435100F535550651894690461F4630354F
:1018C00000F1E00402E0B834AC4214D02046FFF747
:1018D000F5FD0028F7D020464946FFF7F7FD2046E2
:1018E0004146FFF7FFFD204632463946B834FFF740
:1018F00011FEAC42EAD1BDE8F88300BF2DE9F04308
:1019000042F6745300F535552E46002783B08046C5
:10191000C7504FF000093035343600F1E00402E0E2
:10192000B834A54213D02046FFF7C8FD0028F7D0F1
:101930003368013333602046FFF756FD2C490BF026
:101940009DFF80BBB834A54207F10107EBD142F6F9
:10195000745358F80340E01B0BF080FD01464846E5
:101960000BF084FE054642F6785058F800309C4251
:1019700015D042F6905642F68C5342F6845242F607
:10198000885158F8066058F8033058F8022058F883
:10199000011048F8004000964046FFF77BFF2846BC
:1019A00003B0BDE8F0832046FFF71EFD0146484620
:1019B0000BF0A0FC81462046FFF716FDD8F820105A
:1019C0000BF05CFF70B92046FFF70EFDD8F824102D
:1019D0000BF036FF0028A3D02046FFF705FDC8F81E
:1019E00024009DE72046FFF7FFFCC8F82000EAE747
:1019F00000008CC2006A7047406A7047F8B500F575
:101A0000355507460026303500F1E00402E0B834D1
:101A1000AC420FD02046FFF751FD0028F7D02046FA
:101A2000FEF750FE014630460BF064FCB834AC4281
:101A30000646EFD142F67453F8580BF00FFD0146FD
:101A400030460BF013FEF8BD2DE9F04F91B006467D
:101A500094480F91934600F017FB924800F014FB56
:101A6000904800F011FB42F67453304656F803805C
:101A7000FFF7A6FD07463068D6F804900BF098F8FB
:101A800002460B463046CDE90C23FFF7B7FF8246EE
:101A90003046B468F568FFF731FF0BF089F8CDE9FF
:101AA0000A01214628460BF023FC7F490BF02AFD52
:101AB0000BF07EF8CDE9080128460BF079F8CDE966
:101AC000060120460BF074F8CDE9040150460BF0F6
:101AD0006FF8DDE90C23CDE90201CDE90023414691
:101AE0004B463A46714800F0CFFA6E4800F0CCFA07
:101AF0000023E03601270C9305E001373F2F06F164
:101B0000B80600F0BF803046FFF7D8FC0028F4D0BC
:101B10003046FEF783FD3046FEF784FD3046FEF783
:101B200085FD3046FEF786FD3046FFF7C3FC0821F1
:101B300082465F4809F0A8FA39465E4806F04CFF35
:101B4000092F40F3AA8002215B4809F09DFA304634
:101B5000FFF77EFC0BF02CF89DF83C80CDF8008060
:101B60000B460246534806F03FFF0121534809F057
:101B70008BFA3B460C9C474600254FF001099846DE
:101B80002EE006214E4809F07FFA2146494806F02A
:101B900023FF02214B4809F077FA29463046FEF729
:101BA0004DFD0BF005F800970B460246414806F044
:101BB0001BFF012141480C4409F066FA09FA05F3BC
:101BC000BBF1000F09D013EA0A0F4FF002013E48A3
:101BD00004BF3E48022109F057FA0135082D06D00E
:101BE000092CCEDC01213A4809F04EFAC9E7314808
:101BF00006F0A2FE0921374809F046FA00213046D6
:101C0000FFF74AFC0AF0D4FF022402460B46009478
:101C1000284806F0E9FE0A212F4809F035FA01218B
:101C20003046FFF739FC0AF0C3FF009402460B462A
:101C3000204806F0D9FE0A21284809F025FA214655
:101C40003046FFF729FC0AF0B3FF0B460C990094CD
:101C50000246083117480C91474606F0C5FEBBF115
:101C6000000F12D00D211E4809F00EFA013722464E
:101C7000514600230F4806F06FFE3F2F06F1B806CD
:101C80007FF441AF11B0BDE8F08F0121154809F094
:101C9000FBF9084806F050FE2FE701210C4809F037
:101CA000F3F950E71C1E010000007A44B41F010044
:101CB00054200100C887FF1FD42F010060200100BD
:101CC00064200100802201006C20010070200100CE
:101CD0007822010074200100802001008C20010086
:101CE00098200100A82001002DE9F04F85B000F1F7
:101CF000E0058A4603929B462E464FF0010806E017
:101D000008F10108B8F13F0F06F1B8067BD0304664
:101D1000FFF7D4FB0028F3D000230A2251467D4868
:101D200006F01AFE01217C4809F0AEF903980AF08A
:101D30003FFF00230246009376480B4606F054FE10
:101D40000121754809F0A0F95946724806F044FE91
:101D50000121714809F098F941466E4806F03CFEB1
:101D600001216D4809F090F900244FF00209214645
:101D70003046FEF763FC0AF01BFFCDF800900246E8
:101D80000B46644806F030FE01340121624809F038
:101D90007BF9082C4FF00207E9D100213046FFF70C
:101DA0007BFB0AF005FF009702460B46594806F0F8
:101DB0001BFE0121584809F067F901213046FFF761
:101DC0006BFB0AF0F5FE009702460B46514806F001
:101DD0000BFE0121504809F057F939463046FFF70C
:101DE0005BFB0AF0E5FE009702460B46494806F009
:101DF000FBFD08F10108474806F09EFDB8F13F0FD2
:101E000006F1B80683D101274FF0000904E001373D
:101E10003F2F05F1B80579D02846FFF74FFB002882
:101E2000F5D000230A2251463C4806F095FD0121D9
:101E3000394807F0BBFE03980AF0BAFECDF80090CF
:101E400002460B46354806F0CFFD0121324807F027
:101E5000ADFE5946314806F0BFFD01212E4807F07E
:101E6000A5FE39462D4806F0B7FD01212A4807F0A6
:101E70009DFE00244FF0020821462846FEF7DEFBB7
:101E80000AF096FECDF8008002460B46234806F085
:101E9000ABFD01340121204807F088FE082C4FF0EB
:101EA0000206E9D100212846FFF7F6FA0AF080FE83
:101EB000009602460B46194806F096FD0121164889
:101EC00007F074FE01212846FFF7E6FA0AF070FEDB
:101ED000009602460B46114806F086FD01210E4889
:101EE00007F064FE31462846FFF7D6FA0AF060FE96
:101EF000009602460B46094806F076FD0137074872
:101F000006F01AFD3F2F05F1B80585D105B0BDE8F3
:101F1000F08F00BFC887FF1FAC200100AC87FF1FF8
:101F2000014B1870704700BF2087FF1F024B1878C5
:101F3000B0FA80F0400970472087FF1F0278002A1E
:101F400000F0908070B5034682B00D46252A2AD154
:101F500058785C1C08B325282FD0732831D064280A
:101F600024D0692822D066284FD07A2859D07828E2
:101F700035D058282FD062283ED0422838D06C283F
:101F800014D0632812D0742857D054285FD009F099
:101F9000FFF86278631C002AD8D1344802B0BDE84B
:101FA000704006F0C9BC18781C46F0E72B1D296864
:101FB0002E481D4606F010FDEBE7104609F0E8F844
:101FC000E7E72E6830460CF0BBFA01463046043590
:101FD00009F05AF8DDE70221254809F055F82E1DD1
:101FE0002968224800231022354606F0B5FCD0E7C8
:101FF0000221204809F048F82E1D29681B480023BB
:102000000222354606F0A8FCC3E7073525F0070590
:102010000321D5E9002315480091083506F0E4FCBA
:10202000B7E7073525F007050021D5E900230F485C
:102030000091083506F0D8FCABE7296801290EBFEE
:102040000D480E480121043509F01EF8A1E72B6860
:10205000012B07BF04210A480A480521043509F06D
:1020600013F896E7014806F067BC00BFC887FF1F5A
:10207000B0200100B4200100B8200100BC20010004
:10208000C0200100C82001000FB400B583B004A92E
:1020900051F8040B0191FFF751FF03B05DF804EB19
:1020A00004B0704770B51B4B1B4C1B6882B00D46CB
:1020B0000193019B236019460446002316461748E6
:1020C0000A2206F049FC0321154808F0DDFF032C25
:1020D00007D8DFE804F01A1510020521114808F0AE
:1020E000D3FF0221104808F0CFFF31462846FFF702
:1020F00025FF02B070BD07210C4808F0C5FFF0E7CE
:1021000004210B4808F0C0FFEBE70521094808F05F
:10211000BBFFE6E7DCC4FF1F4492FF1FC887FF1F19
:10212000D0200100EC20010080220100E420010009
:10213000DC200100D42001000FB400B5094B187851
:1021400083B020B103B05DF804EB04B0704705AB79
:102150001A4604990193FFF7A5FF03B05DF804EB5D
:1021600004B070472087FF1F0FB4094B00B51B78E0
:10217000012B83B004D903B05DF804EB04B07047C1
:1021800005AB1A46049901930120FFF78BFFF2E794
:102190002087FF1F0FB40B4B00B51B78032B83B0B8
:1021A00004D903B05DF804EB04B0704705AB1A46E0
:1021B000049901930320FFF775FF03B05DF804EB6A
:1021C00004B070472087FF1F38B5044608460D4607
:1021D0000CF0B6F92368024629465B68204698470A
:1021E0000546204606F0A8FB284438BDF8B541480E
:1021F000414F424D424E434CFFF746FF424B43494D
:10220000434A5960DF6013210027424819701A6160
:102210004149424A5D615E62414D9C614FF07C568E
:10222000404C1F63404F9862D96240485A630C216A
:102230003F4A9D635E6440F61C450A269C641F620B
:1022400041F204043B4FD864196502200121C3F810
:10225000BC209D6600226425DE661C674FF49676DE
:102260003224DF61DF635A2758705872197259653A
:1022700083F840209D655E66DE651C664FF47A7CBF
:102280005F67DFF8BCE09A67D867C3F88010C3F8CF
:102290008420C3F89840C3F8A440274FC3F8A02077
:1022A000C3F8AC10C3F8B000FF26C3F8B45083F8ED
:1022B000C010052541F28831204C83F8CC206FF006
:1022C000330040F2D662C3F89CC0C3F88CE0C3F878
:1022D0009070C3F8A860A3F8BA50C3F8C440C3F81C
:1022E000C800C3F89410A3F8B810A3F88820A3F886
:1022F0008A20F8BDF42001006666864033338340AF
:10230000CDCCCC3DCDCC4C404893FF1F20A1070045
:102310000000404000008242000020C10000204236
:102320000000A0409A997940333373400AD7233D87
:102330009A99993ECDCC4C3E00C020446C09793B23
:1023400000006842F0B54FF47A6085B007F04EF9AE
:1023500000210F2007F022F900210E2007F01EF9BE
:102360000021112007F01AF90021102007F016F9BA
:102370000021122007F012F90021132007F00EF9B6
:1023800001210B2007F00AF901210C2007F006F9C2
:102390000121142007F002F90121152007F0FEF8B1
:1023A0000121162007F0FAF80121172007F0F6F8AE
:1023B0000121052007F0F2F8904C914D01210620F3
:1023C00007F0ECF801210D2007F0E8F820880BF069
:1023D00041F80146162007F04BF820880BF03AF838
:1023E0000146172007F044F820880BF033F8014627
:1023F000052007F03DF820880BF02CF8002401465A
:10240000062007F035F8009423467E4A7E497F482F
:1024100005F0C0F8E6B2324679497C4805F068F824
:102420002B79774979486FF30003013432462B71D9
:1024300005F054F8082CEDD10924E6B23246704973
:10244000724805F055F82B796D49704843F0010347
:10245000013432462B7105F041F80D2CEDD16C4C56
:102460004FF0FF322068102105F060FC20684FF02B
:10247000FF32102105F032FC20684FF0FF320221BC
:1024800005F040FC20684FF0FF32022105F044FCCB
:1024900000220F21206805F053FC0C215D4808F054
:1024A000F3FD5D4806F048FA14215C4808F0ECFDA5
:1024B000594806F041FA40F2836007F055F9564852
:1024C00006F03AFA1721564808F0DEFD524806F0A9
:1024D00033FA544B1B789A0600F1C080514B1B789D
:1024E0001B0700F1C7804F4B1B785F0700F1CE80C0
:1024F0004C4B1B789E0700F1D5804B4B1B781D067B
:1025000000F1DC80484B1B785C0600F1E380464B11
:102510001B78980600F1EA80434B1B78590700F1BD
:10252000F180414B1B781A0700F1F8803E4B1B7875
:102530009B0700F1FF80384806F0FEF972B63B4A6F
:102540004CF220534DF6281120241380234611808D
:10255000013BFDD1364D3748374900234FF48056B3
:102560002E8003800B8032F80E3C9BB243F0D303E5
:1025700022F80E3C62B69D2007F0F4FC21462F485D
:102580002F4D08F081FD244806F0D6F905F1D0065C
:102590002F462C46601B06F03BFC04F8010BB442AE
:1025A000F8D13B78132B01D0FFF720FE0420FFF772
:1025B000B7FC244B244D002401210D201C6006F0A3
:1025C000D9FF796D2148FFF763F9D7F8C800D7F82C
:1025D000C4307A6C97F8401000901C48FFF75AF905
:1025E0001B4B1C491A68039203981B680293029ABA
:1025F000194B2C7008601A6005B0F0BD2887FF1FCA
:102600008894FF1FB4C4FF1F20A1070018C3FF1F39
:10261000DC94FF1F14210100C887FF1F2421010043
:102620003C21010001F0074000F007400E2005406A
:1026300004200540062005401620054040220100E8
:102640004893FF1F5C92FF1FC894FF1F7895FF1FE0
:10265000DCC4FF1F1095FF1F9094FF1F21213948F4
:1026600008F012FD384806F067F9384B1B781B0755
:102670007FF539AF0C21364808F006FD324806F0E8
:102680005BF9324B1B785F077FF532AF0E21314883
:1026900008F0FAFC2C4806F04FF92C4B1B789E07EB
:1026A0007FF52BAF17212C4808F0EEFC264806F0EA
:1026B00043F92A4B1B781D067FF524AF0E212848CD
:1026C00008F0E2FC204806F037F9244B1B785C0642
:1026D0007FF51DAF1221234808F0D6FC1A4806F0FA
:1026E0002BF91E4B1B7898067FF516AF13211E4859
:1026F00008F0CAFC144806F01FF9184B1B7859075C
:102700007FF50FAF1C21194808F0BEFC0E4806F0FB
:1027100013F9124B1B781A077FF508AF19211448DB
:1027200008F0B2FC084806F007F90C4B1B789B0731
:102730007FF501AF18210F4808F0A6FC024806F00B
:10274000FBF8F8E654210100C887FF1F01F007409D
:1027500078210100882101009821010000F0074044
:10276000B0210100C0210100D4210100E8210100B5
:102770000822010024220100F0B55A4C5A4D5B4852
:10278000E66883B000232B70FFF75CF80146304603
:102790000BF056F808B104232B705448FFF72CF8BF
:1027A00021690BF04DF818B12B7843F010032B7012
:1027B0004E48FFF71FF9A16A0BF060F818B12B78AB
:1027C00043F040032B70002348486B70FFF714F967
:1027D000E16A444E0BF034F800285BD100234348F3
:1027E000EB70FFF72FF8054640483F4EFFF704F81F
:1027F000014628460AF07CFDE16B0BF03FF808B17A
:102800000123F3703A4D394800232B70FFF71AF873
:10281000616A0646E0680AF06BFD014630460BF03F
:102820002DF808B104232B703048FEF7E5FF616AEC
:10283000064620690AF05EFD014630460BF000F8BE
:1028400018B12B7843F010032B702848FFF7D2F80B
:10285000A16B0646A06A0AF04BFD014630460BF01C
:102860000DF818B12B7843F040032B7000231F485C
:102870006B70FFF7C1F8A16B0546E06A1C4C0AF0CB
:1028800039FD014628460AF0DBFF08B101236370D9
:1028900003B0F0BD174806F04FF80521164808F0C0
:1028A000F3FB1248FFF7A8F80AF082F90227024664
:1028B0000B4600970F4806F097F801210F4808F0E3
:1028C000E3FB09210E4808F0DFFBF06A0AF070F91B
:1028D000009702460B46074806F086F8054806F0C2
:1028E0002BF87BE74893FF1F4493FF1F7895FF1F4A
:1028F000CC94FF1FC887FF1F642201006C220100D7
:10290000702201002DE9F0417C4C2368012B82B03C
:1029100031D0022B00F0A880032B00F0C8803BBB15
:10292000774B784AD3F8A410D3F8A83012685B1A12
:10293000632B0EDD744803FB02F380FB0302DB17FD
:10294000C3EB62131944062002B0BDE8F04106F063
:1029500091BC6E4803FB022380FB0302DB17C3EB31
:1029600022121144062002B0BDE8F04106F082BCFC
:1029700002B0BDE8F081664E33680A33B3F57A7F62
:1029800000F3B780184633600AF068FD61490AF029
:10299000B9FD80465A4DD5F8A4000AF05FFD074600
:1029A000D5F8A8000AF05AFD39460AF0A1FC4146C4
:1029B0000AF0A8FD58490AF059FE39460AF09AFC77
:1029C0000AF07CFF0146062006F054FC0221534821
:1029D00008F05AFB524805F0AFFF0621514808F0B5
:1029E00053FB30680AF03AFD4A490AF08BFD0AF0C1
:1029F000DFF8022702460B460097494805F0F4FF2E
:102A00000D21494808F040FBD5F8A4000AF026FD46
:102A1000804630680AF022FD3E490AF073FD064602
:102A2000D5F8A8000AF01AFD41460AF061FC0146FB
:102A300030460AF067FD38490AF018FE41460AF0B0
:102A400059FC0AF0B5F800970B460246344805F0E9
:102A5000CBFF3946314808F017FB314805F06CFFD1
:102A60002368022B7FF458AF294B254E00221A60B1
:102A7000D6F8A4000AF0F2FC0546D6F8A8000AF041
:102A8000EDFC29460AF034FC00210AF03BFD224906
:102A90000AF0ECFD29460AF02DFC0AF00FFF014672
:102AA000062006F0E7FB2368032B7FF438AF184BB2
:102AB000134E4FF47A721A60D6F8A4000AF0CEFCD6
:102AC0000546D6F8A8000AF0C9FC29460AF010FC11
:102AD00011490AF017FD10490AF0C8FD29460AF00D
:102AE00009FC0AF0EBFE0146062006F0C3FB236852
:102AF00015E700234FF0000833604BE7B894FF1F41
:102B00004893FF1F3887FF1F1F85EB51CBF08D289F
:102B10006092FF1FCDCCCC3D0000C842D42F0100F5
:102B2000C887FF1F7C2201008422010070B5B548D0
:102B3000B54C05F001FFB34805F0FEFEB14805F0C5
:102B4000FBFE0D21B14808F09FFAD4F8A030012B0C
:102B500011D0AF4CAB48217800230A2205F0FCFECF
:102B60002378052B67D8DFE813F006010B0110016D
:102B700015011A0101010921A64808F085FAA648A5
:102B8000FEF73AFE21690AF05BFE18B10F21A34857
:102B900008F07AFAA048FEF755FEE1680AF06EFEEA
:102BA00018B10E219E4808F06FFA9B48FEF74AFEC6
:102BB00005469948FEF720FE014628460AF098FB94
:102BC000E16B0AF05BFE18B11121964808F05CFA3F
:102BD0009148FEF70FFFA16A0AF050FE18B10C21D0
:102BE000914808F051FA8C48FEF706FFE16A0AF0B6
:102BF00027FE18B10D218D4808F046FA8C4B864807
:102C00001B68012B00F0E880FEF7F6FD21697E4D80
:102C10000AF034FE78B18048FEF714FEE9680AF045
:102C20000FFE40B17A4B1B78052B00F0E68008219F
:102C3000804808F029FA02217F4808F025FA12207E
:102C400006F09EFC012800F0AF80112006F098FCF1
:102C5000012800F0B380794B1B68012B00F0B7808E
:102C600002217548764C08F00FFA764B65481968D2
:102C700005F0B2FE634805F05FFE0421724808F0DB
:102C800003FA0B2006F07CFC002301460A225D4873
:102C900005F062FE0C2006F073FC002301460A22B8
:102CA000584805F059FE142006F06AFC002301463E
:102CB0000A22544805F050FE152006F061FC0A2255
:102CC000002301464F4805F047FE06215F4808F003
:102CD000DBF92368DD074FF001014CBF5C485D481C
:102CE00008F0D2F9236898074FF001014CBF58480B
:102CF000584808F0C9F923685A074FF001014CBF42
:102D00005348544808F0C0F923681B074CBF50488B
:102D10005048012108F0B8F904214F4808F0B4F9EF
:102D2000112006F02DFC002301460A22354805F04B
:102D300013FE102006F024FC002301460A2231482D
:102D400005F00AFE122006F01BFC002301460A22B1
:102D50002C4805F001FE132006F012FC002301466A
:102D60000A222848BDE8704005F0F6BD07213B481F
:102D700008F08AF95FE70621394808F085F95AE733
:102D80000721384808F080F955E70721364808F050
:102D90007BF950E70821354808F076F94BE70B211D
:102DA000334808F071F946E70E21324808F06CF913
:102DB000112006F0E5FB01287FF44DAF0A212E48D3
:102DC00008F062F91D4B1B68012B7FF449AF1121FC
:102DD0002A4808F059F943E7FEF70EFD216A0AF088
:102DE0004DFD00283FF423AF1621254808F04CF98B
:102DF0000A21244808F048F91DE70A21214808F073
:102E000043F918E7C887FF1F4893FF1F942201006A
:102E1000C894FF1FA42201007895FF1FB022010073
:102E2000C0220100D0220100E4220100F4220100AE
:102E30007492FF1F28230100D42F0100E494FF1F88
:102E40001894FF1FBC94FF1F9C230100A4230100C2
:102E5000AC2301008C310100B02301006423010088
:102E6000342301003C2301005023010058230100BA
:102E7000442301006C2301007C230100882301000E
:102E8000042301001C2301002DE9F04F9B4C9C4FB3
:102E9000E36F012B8DB000F05981032B5AD0994E6E
:102EA000994DA36F9948012B09BF2968296801F141
:102EB0000041296005F036FB3368002B40F0D880D4
:102EC000924805F005FBE36F3860012B064600F0E1
:102ED000DC808F490AF0D2FCB8B98E4930460AF03E
:102EE000AFFC90B98C4A8D4B12680B920B9A1A600A
:102EF000D4F8AC000AF0B2FA31460AF003FB002322
:102F000038602B600DB0BDE8F08FDFF80CA2DFF861
:102F10000C82DAF800300A930A98D8F80030DFF80B
:102F20002492C01A0AF096FA31460AF0EBFA7C496C
:102F30000AF09CFB7A490AF099FBD9F800100AF0D4
:102F4000D9F9DAF800300993099BC9F80000C8F8EC
:102F50000030CDE7DFF8D081724DD8F80000694E1F
:102F6000012300220F212B6004F0EAFE2B68012BC5
:102F7000336800F00981002B40F0AC810021D8F8C3
:102F80000000DFF8C491684D04F02CFF33681FFA8D
:102F900080FBC9F800B0002B40F081810021D8F8F7
:102FA0000000594DDFF880A104F0A2FEB4F88A3089
:102FB00040F6E44101FB0BF1B1FBF0F0C01A00B2A6
:102FC0000AF04CFA59498346D4F88C000AF09AFA70
:102FD000014658460AF04AFBD9F800302860632BB6
:102FE000DFF864B100F34F8100232B603368002BBE
:102FF0003FF457AF02214E4808F046F8D9F80020B8
:10300000D8F8000040F6E443002103FB02F804F086
:103010006FFEB8FBF0F00AF01DFA8046B4F88A00A3
:103020000AF01CFA014640460AF062F909F0C0FDB8
:103030004FF0020802460B46CDF800803D4805F0EF
:10304000D3FC41463A4808F01FF8286809F0B0FD63
:10305000CDF8008002460B46364805F0C5FC4146D7
:10306000354808F011F84146314808F00DF818E7E6
:10307000264805F02DFA09F09BFD022602460B4674
:1030800000962C4805F0B0FC1AE7264B1B68012B74
:1030900000F02C81022B7FF42BAF28490AF0EEFBC5
:1030A00030B9274930460AF0CBFB002800F05381A5
:1030B000DFF864A0DFF86480DAF80030079307983F
:1030C000D8F80030DFF87C90C01A0AF0C3F9314616
:1030D0000AF018FA12490AF0C9FA11490AF0C6FAB8
:1030E000D9F800100AF006F9DAF800300693069BCA
:1030F000C9F80000C8F80030FAE600BF4893FF1F87
:103100008C92FF1F0895FF1F7092FF1F2093FF1FD7
:103110000000FA430000FAC3DCC4FF1FD894FF1F6D
:1031200000007A445487FF1FDC94FF1F17B7D13883
:10313000D42F0100C887FF1FF423010000C82F48C7
:1031400000A08CC69892FF1F4093FF1F3D689B49CB
:1031500028460AF075FB30B1284699490AF08EFBE3
:1031600000287FF4F7AEDFF86482964DD8F80000AF
:10317000954E022300220E212B6004F0E1FD2B6806
:10318000012B33687FF4F7AE002B40F0068100215D
:10319000D8F80000DFF874928C4D04F023FE3368F9
:1031A0001FFA80FBC9F800B0002B40F0DB80002143
:1031B000D8F80000864D04F09BFDB4F8883040F646
:1031C000E44A0AFB0BFBBBFBF0F0C01A00B20AF0AA
:1031D00045F980498346D4F890000AF093F90146F6
:1031E00058460AF043FAD9F8003028600021D8F890
:1031F00000000AFB03FA04F07BFDB4F88830BAFB48
:10320000F0F00FFA80FAC3EB0A03002BB4F8BA20EF
:10321000B8BF5B429342BCBF00232B603368002BD6
:103220003FF43FAE02216C4807F02EFFD9F8002092
:10323000D8F8000040F6E443002103FB02F804F054
:1032400057FDB4F88810B8FBF0F000B2411A63489B
:1032500005F0C2FB0221604807F016FF286809F05C
:10326000A7FC4FF0020802460B46CDF800805B48F1
:1032700005F0BAFB03215A4807F006FF41465648BD
:1032800007F002FF0DE6DAF80000002104F030FD3F
:10329000DBF8003064389842FFF4A6AEA6E60021C1
:1032A000286804F025FD40F6E44100230A2201FBD2
:1032B0000BF1B1FBF0F1494805F04EFB0221464805
:1032C00007F0E2FEB4F88A10444805F085FBD9F80F
:1032D00000B063E6414805F02FFB0C21414807F0A0
:1032E000D3FE0C21404807F0CFFE47E63F490AF0E5
:1032F000C5FA58B93E4930460AF0A2FA30B93D4AFB
:103300003D4B12680592059A1A60F1E5DFF8E4A0DA
:10331000DFF8E480DAF8003004930498D8F800303D
:10332000DFF8EC90C01A0AF095F831460AF0EAF896
:1033300032490AF09BF931490AF098F9D9F800109E
:1033400009F0D8FFDAF800300393039BC9F80000B6
:10335000C8F80030CCE5274A274B12680892089A33
:103360001A60C5E50021286804F0C2FC40F6E4417B
:1033700000230A2201FB0BF1B1FBF0F1174805F025
:10338000EBFA01211E4807F07FFEB4F888101348BD
:1033900005F022FBD9F800B009E7104805F0CCFA97
:1033A000E36F012B4FF00B010CBF1648164807F0D6
:1033B0006BFE0C210C4807F067FEE8E600709446AF
:1033C000007094C65487FF1F0895FF1FDC94FF1FF1
:1033D0007092FF1F17B7D138D42F0100C887FF1F85
:1033E000E0230100E4230100D02301000000FA43A0
:1033F0000000FAC3DCC4FF1FD894FF1F00007A440A
:1034000078220100B8230100C42301004093FF1F6C
:103410009892FF1F2DE9F047A84D2B6884B043B95F
:10342000A74B1B680393039A42F210739A4200F26F
:103430008A80A44CDFF89482E36FA34EA14D012B48
:1034400000F0C580D4F884309E4F012B00F0F1804D
:10345000D6F80090D7F858A07D6D9C4F05FB0AF573
:103460004FF47A7000FB05F009F0F8FF9849054623
:1034700048460AF047F829460AF0F8F895490AF054
:1034800041F80AF01BFA6328C8F800004ADD284614
:103490008F490AF0EBF8642330603B608E4B1B6869
:1034A000002B3CD0E36F874D012B40D0032B00F065
:1034B000F380022B00F0EB800221884807F0E4FD46
:1034C000874B186809F074FB022402460B460094EF
:1034D000844805F089FA2146834807F0D5FD214646
:1034E0007E4807F0D1FDD8F800107E4805F074FA48
:1034F00006217E4807F0C8FD306875490AF002F8D9
:1035000009F056FB009402460B46764805F06CFA2B
:103510000321774807F0B8FD724805F00DFA04B0B2
:10352000BDE8F0870028BCBF00233B60B6E7714BC5
:103530001B68012B4FF00A010CBF6F486F4807F062
:10354000A3FDEB6FB2E76E485E4CFEF757FA6D498C
:10355000A76EE66E09F0D6FF0AF0D6F9226F636F08
:10356000D21B9B1B80B29A42A0EB070040F39A80CB
:1035700003FB0000531C90FBF3F39819A26DDFF8D6
:103580004C81636DC8F8000002FB00F003FB00F003
:1035900000EB8000400009F061FF4D494A4E0AF0FF
:1035A00065F80123022130604C482B6007F06CFD68
:1035B0004C48444D05F0C0F95921534807F064FDCB
:1035C000484805F0B9F9E36F012B7FF43BAF4C4855
:1035D000FEF714FA4B49D5F86890EF6E09F092FFA8
:1035E0000AF092F92A6F6B6FC9EB0202DB1B80B203
:1035F0009A42C9EB00005BDD03FB0000531C90FB0B
:10360000F3F31F44A06D636DC8F8007000FB07F072
:1036100003FB00F000EB8000400009F01FFF2C4985
:10362000284F0AF023F8D4F884303060012B7FF45F
:103630000FAF3348FEF7E2F93249D7F86890FD6ED4
:1036400009F060FF0AF060F93A6F7B6FD4F858A078
:10365000C9EB02025B1B80B29A42C9EB0000C6BFF5
:1036600003FB00000132584390FBF2F02844656DE3
:1036700000FB0AF005FB00F000EB8000400009F0C1
:10368000EDFE134909F0F2FF81463060E5E60721BF
:103690001E4807F0F9FC0FE710211D4807F0F4FC65
:1036A000E36F06E703FB00F393FBF2F3981965E77A
:1036B00003FB00F393FBF2F31F44A3E76C92FF1F9D
:1036C000DCC4FF1F4893FF1F9892FF1F3887FF1F1E
:1036D000E4388E3E0000C8424087FF1FD42F01000F
:1036E0008C92FF1FC887FF1FF4230100882401006C
:1036F000902401005487FF1F54240100602401001E
:103700007895FF1F00007A44F8230100802401000F
:103710006C24010030B5112083B005F031FF012881
:1037200018D0122005F02CFF012813D000210B2007
:1037300005F020FF00210C2005F01CFF00211520C2
:1037400005F018FF2649274B0120002208701A6057
:1037500003B030BD0121152005F00CFF224A234C97
:10376000234B1268D4F8941001921B68019A1D4DE6
:103770000B4493424FF00201296005D901210C202E
:1037800005F0F8FE03B030BDD4F89C0009F066FEE9
:10379000184B19680AF054F80028EFD101210B20CA
:1037A00005F0E8FE94F8C03003242C6043B10C4BC4
:1037B00002221A7000210C2005F0DCFE03B030BD9F
:1037C000122005F0DDFE012808BF054B4FF0110067
:1037D00008BF1C7005F0D4FE0128EBD1E7E700BF5D
:1037E000C894FF1F0495FF1FDCC4FF1F4893FF1FF1
:1037F0001095FF1F8C92FF1FF0B5684E684D34681E
:103800002B689C4287B039D014F0010155D014F0D8
:10381000020149D014F004013DD0E3070ED52B6816
:10382000DF070BD45F4F3A68002A00F082805E4BBE
:103830001B680193019B93426DD83468A0070DD596
:103840002B6899070AD4594F3A68002A4CD0564B36
:103850001B680393039B934238D8346862070DD5E5
:103860002B685B070BD4524F3A68002A7ED04E4B30
:103870001B680593059B934268D834680CB107B068
:10388000F0BD2146162005F0F5FC2146172005F075
:10389000F1FC07B0F0BD052005F0ECFC2B683468A6
:1038A00003F0FB032B60B8E7172005F0E3FC2B685F
:1038B000346803F0FD032B60ACE7162005F0DAFC5A
:1038C0002B68346803F0FE032B60A0E7394B172008
:1038D000D3F8981005F0CEFC2B68346843F002034F
:1038E00000222B603A60B9E7334805F025F80C2137
:1038F000324807F0C9FB304805F01EF8FF211720B9
:1039000005F0B8FC284B2E4A1968029102991268FA
:103910000A443A609CE7274B1620D3F8981005F02C
:10392000A9FC2B68346843F0010300222B603A6045
:1039300084E7FF21162005F09DFC1B4B204A1968E7
:103940000091009912680A443A6071E7194B05200A
:10395000D3F8981005F08EFC2B68346843F004030C
:1039600000222B603A60002C89D18AE7124804F0CB
:10397000E3FF0C21134807F087FB0F4804F0DCFF3E
:10398000FF21052005F076FC074B0D4A19680491CC
:10399000049912680A443A606AE700BF0495FF1F61
:1039A0001894FF1F9C94FF1FDCC4FF1FA094FF1FEF
:1039B000A494FF1F4893FF1FC887FF1F9424010092
:1039C0006887FF1FA42401002DE9F047544EDFF85B
:1039D0007481DFF874913068524D00220F2104F099
:1039E000AFF90023012222214F48C8F80030C9F85E
:1039F000002007F049FBD8F80030132B22DC40F6FA
:103A0000E44700213068B5F888A004F0EBF9002104
:103A10000446306804F06CF9A4B2012107FB04F4F9
:103A2000B4FBF0F441485444A5F8884007F02CFB5F
:103A3000642005F0DBFDD8F800300133132BC8F803
:103A40000030DEDDB5F88830394A3A48A2FB03126F
:103A50009B1A02EB5303C3F30F131946A5F88830E2
:103A600004F0BAFF1D21344807F00EFB0221334851
:103A700007F00AFB2F4804F05FFF00231A460E21CF
:103A80003068C8F8003004F05BF902232221264890
:103A9000C9F8003007F0F8FAD8F80030132B22DC10
:103AA00040F6E44700213068B5F88A9004F09AF9AE
:103AB00000210446306804F01BF9A4B2012107FB81
:103AC00004F4B4FBF0F419484C44A5F88A4007F01C
:103AD000DBFA642005F08AFDD8F800300133132B9F
:103AE000C8F80030DEDDB5F88A30114A1148A2FB73
:103AF00003129B1A02EB5303C3F30F131946A5F8E5
:103B00008A3004F069FF1D210D4807F0BDFA02213B
:103B10000A4807F0B9FA0748BDE8F04704F00CBFBF
:103B2000DC94FF1F4893FF1FB4240100F824010018
:103B300087611886C887FF1FD8240100D42F010091
:103B4000FC240100C094FF1F5487FF1FA64B2DE9E2
:103B5000F0411B68A54CA64D40F25131082221606E
:103B6000E271286D002B40F0EE8009F077FC696966
:103B7000064609F0C7FC9F499D4F09F0C3FC09F0B8
:103B8000C3FE80B2031263729B4A9C4B12681B688F
:103B9000A969A37215121B12E37222732072657356
:103BA000304609F0AFFC9349904D09F0ABFC09F0A9
:103BB000ABFE83B21A1229469148A373E27303F055
:103BC000E1FE904B904A1B681288A272DEB206EBAF
:103BD0008601267203EB8306490046F3D71640F2AE
:103BE000553E12124FF000081B12217366732946CE
:103BF00008268348C4F800E0E2726372E67184F834
:103C00000E8084F80F8003F0BDFE40F256337F48EB
:103C10002360E671FDF73AFE7D4909F073FC09F077
:103C200073FE20727948FDF731FE794909F06AFC8C
:103C300009F06AFE774A7649C0F307236372106879
:103C400009F014FD09F03AFE40FA06F203466F4807
:103C5000E272A372FDF752FE664909F053FC09F0C7
:103C60002DFE20736948FDF749FE624909F04AFCC0
:103C700009F024FE294640F307236148637384F862
:103C80000E8084F80F8003F07DFE022005F0AEFC6C
:103C9000614A624B10785178207290786172D278C4
:103CA0001978A072987893F801E0E2722173DA78BB
:103CB000A07340F25A332946514884F80DE0E2736C
:103CC0002360E67103F05EFE554B4D481A78597833
:103CD000227261729A78D978A272E1721A7959794E
:103CE00093F806E022736173DA7984F80EE040F20B
:103CF0005E332946E2732360E67103F043FE02203F
:103D000005F074FC474B3E481A785978227261726C
:103D10009A78D978A272E1721A79597993F806E003
:103D200022736173DA79E6714FF45C73294623607C
:103D300084F80EE0E27303F025FE3B4B1B68012B79
:103D400006D0BDE8F08109F089FB296A064610E734
:103D50002E48FDF751FDF96C09F0CCFA80462B484E
:103D6000FDF770FD0146404609F06AFD0028E8D0E5
:103D700040F2C3332548EE712B60FDF73DFDBE6C6C
:103D8000314609F05DFDC8B12849304609F0BAFB5B
:103D900009F0BAFD80B2031268722B72002301266B
:103DA00004250322A672E57222736373A373E3737F
:103DB0000E491348BDE8F04103F0E4BD1348FDF798
:103DC0001BFD1A4909F09EFB09F09EFDC0F3072375
:103DD0000E482B72FDF710FD144909F093FB09F012
:103DE00093FD6872DAE700BF7492FF1FF494FF1F1F
:103DF0004893FF1F00002041D494FF1F5092FF1FE3
:103E000018C3FF1F3887FF1F3C87FF1F7895FF1FD0
:103E10000000C8428C92FF1F4493FF1FCC94FF1FE9
:103E20002C87FF1F5887FF1FE494FF1F00007A4470
:103E30002DE9F041974C984D82B007F0BFF8236808
:103E40002860042B00F0A582092B75D0022B4CD1E1
:103E5000A0F13102422A78D8DFE812F015082108D3
:103E60002F083C08EA00EF07FE077700770077008D
:103E7000770077007700770077007700770077008A
:103E8000770077007700770077007700770077007A
:103E9000770077007700770077007700770077006A
:103EA000770077007700770077007700770077005A
:103EB000770077007700770077007700770077004A
:103EC000430077007700770077007700770077006E
:103ED000770077007700770077007700730077002E
:103EE0000D08FFF771FD23682868082B40F0B180AA
:103EF000332801F0948400F3ED82312801F06184CD
:103F0000322822D107F096F8002841F356846348FE
:103F1000634E04F0A3FE09F0A1FA624909F0F2FA37
:103F2000D6F8C820D6F8C43096F84010009207465C
:103F3000024677645C48E3E2322800F06A83712825
:103F400003D10023732023602860002B08BF73284F
:103F50000CBF01200020002867D0504804F0ECFC82
:103F60000421524807F090F84C4804F0E5FC102179
:103F70004F4807F089F8494804F0DEFC13214D480A
:103F800007F082F84C4B4548196804F025FD43487A
:103F900004F0D2FC1421494807F076F83F4804F0B9
:103FA000CBFC1E21464807F06FF83C4804F0C4FCE7
:103FB0001521444807F068F8384804F0BDFC1E217C
:103FC000414807F061F8354804F0B6FC20213F482D
:103FD00007F05AF8314804F0AFFC19213C4807F0CB
:103FE00053F82E4804F0A8FC12213A4807F04CF888
:103FF0002A4804F0A1FC1921374807F045F8274862
:1040000004F09AFC0F21354807F03EF8234804F0ED
:1040100093FC0D21324807F037F8204804F08CFC5F
:10402000304A002101231160236002B0BDE8F08115
:104030000123236006F0FEFF002807DD1748184E15
:1040400004F00CFE09F00AFAC6F88C00632023681D
:104050002860072B4AD1332801F0FB8300F3268226
:10406000312801F0C68332287FF46FAF06F0E2FFFB
:10407000002839DD09480A4E04F0F0FD09F0EEF998
:10408000084909F03FFA61230122F06322602B60A6
:104090001846C8E29C92FF1F8892FF1FC887FF1F27
:1040A0004893FF1F6F12833A7895FF1F342E01004B
:1040B0003C2E0100502E01002487FF1F642E0100BA
:1040C0007C2E01009C2E0100B42E0100D42E010094
:1040D000F82E0100142F0100282F0100442F0100A9
:1040E000542F01004087FF1F23682868062B40F0EB
:1040F0008D80A0F13102402A3FF627AF01A151F88F
:1041000022F000BF094D00006B4D0000474D00003C
:10411000154E0000CB4C0000E74C0000334D000072
:104120004B3F00004B3F00004B3F00004B3F000067
:104130004B3F00004B3F00004B3F00004B3F000057
:104140004B3F00004B3F00004B3F00004B3F000047
:104150004B3F00004B3F00004B3F00004B3F000037
:104160004B3F00004B3F00004B3F00004B3F000027
:104170004B3F00004B3F00004B3F00004B3F000017
:104180004B3F00004B3F00004B3F00004B3F000007
:104190004B3F00004B3F00004B3F00004B3F0000F7
:1041A0004B3F00004B3F00004B3F00004B3F0000E7
:1041B0004B3F00004B3F00004B3F00004B3F0000D7
:1041C0004B3F00004B3F00004B3F00004B3F0000C7
:1041D0004B3F00004B3F00004B3F00004B3F0000B7
:1041E0004B3F00004B3F00004B3F00004B3F0000A7
:1041F0004B3F00004B3F00004B3F00004B3F000097
:104200004B3F0000433F000023682868052B15D171
:10421000332801F0318340F37A81352801F053834C
:10422000C1F23B8371287FF490AEC44A002373200F
:1042300013602360286088E623682868032B40F019
:10424000A480A0F13002422A3FF67FAE01A151F8CE
:1042500022F000BF61430000575400007F5400006B
:10426000395500005B5500007D550000A555000044
:10427000ED5500000B5600002F5600004B3F00008C
:104280004B3F00004B3F00004B3F00004B3F000006
:104290004B3F00004B3F00004B3F00004B3F0000F6
:1042A0004B3F00004B3F00004B3F00004B3F0000E6
:1042B0004B3F00004B3F00004B3F00004B3F0000D6
:1042C0004B3F00004B3F00004B3F00004B3F0000C6
:1042D0004B3F00004B3F00004B3F00004B3F0000B6
:1042E0004B3F00004B3F00004B3F00004B3F0000A6
:1042F0004B3F00004B3F00004B3F00004B3F000096
:104300004B3F00004B3F00004B3F00004B3F000085
:104310004B3F00004B3F000057560000F34F00009A
:10432000C554000075560000A7540000E354000077
:10433000A94F0000CD4F00004B3F00004B3F000055
:104340004B3F00004B3F00004B3F00004B3F000045
:104350004B3F00004B3F00004B540000CD55000088
:1043600006F068FE002841F321827548754E04F07E
:1043700075FC012703460146622273487365276076
:104380002A60FDF785FA23682868012B7FF4DDADEC
:1043900049E1A0F13002412A3FF6D7AD01A151F821
:1043A00022F000BF1D4F0000314F0000494F0000B8
:1043B0004D4F00006F4F0000734F00008F4F000003
:1043C000A14F0000A54F0000F74E00004B3F00003A
:1043D0004B3F00004B3F00004B3F00004B3F0000B5
:1043E0004B3F00004B3F00004B3F00004B3F0000A5
:1043F0004B3F00004B3F00004B3F00004B3F000095
:104400004B3F00004B3F00004B3F00004B3F000084
:104410004B3F00004B3F00004B3F00004B3F000074
:104420004B3F00004B3F00004B3F00004B3F000064
:104430004B3F00004B3F00004B3F00004B3F000054
:104440004B3F00004B3F00004B3F00004B3F000044
:104450004B3F00004B3F00004B3F00004B3F000034
:104460004B3F00004B3F00004B3F00004B3F000024
:104470004B3F00004B3F00004B3F00004B3F000014
:104480004B3F00004B3F00004B3F00004B3F000004
:104490004B3F00004B3F00004B3F00004B3F0000F4
:1044A0004B3F00004B3F0000433F000034287FF4A7
:1044B00046AD06F0BFFD00287FF716AE2048214E1E
:1044C00004F0CCFB61230122A6F8B80022602B6027
:1044D0001846A8E034287FF432AD06F0ABFD002882
:1044E00041F36B811648174E04F0B8FB474216485B
:1044F000D6F8C430726C96F840100097C6F8C870B1
:10450000FDF7C8F901236920236028608BE031287A
:1045100001F0E78132287FF418AD06F08BFD00280A
:104520007FF78AAE0648074E04F098FB01226B2302
:10453000C6F89C0022602B600AE000BFB894FF1F01
:10454000C887FF1F4893FF1F7895FF1F06F036FDB1
:1045500006F070FD0028F9D1A44804F0EDF9A34855
:1045600004F0EAF9A14804F0E7F9A04804F0E4F9FE
:104570009E4804F0E1F921219D4806F085FD9B4805
:1045800004F0DAF915219B4806F07EFDD6F8941068
:10459000964804F021FA0221974806F075FD9348E9
:1045A00004F0CAF91E21954806F06EFDD6F89C105D
:1045B0008E4804F011FA0321914806F065FD8B48FE
:1045C00004F0BAF91E218F4806F05EFDD6F8981067
:1045D000864804F001FA854804F0AEF91D218A48A6
:1045E00006F052FDD6F8A410804804F0F5F97F4893
:1045F00004F0A2F91E21854806F046FDD6F8A81061
:104600007A4804F0E9F9794804F096F90523236023
:104610000BE57F4E96F8CC3001225340782086F887
:10462000CC3022602860A0F15203262B01F2B58025
:10463000DFE813F02F08B308B308B308B308B308D2
:10464000B308B308B308B308B308B308B308B30892
:10465000B3082900620ADB0234027A01B308B30806
:10466000B3080E01B3085F0AB308B308B308B30870
:10467000B3083108B308B308B308B308B308B308E4
:104680009D0006F09BFC06F0D5FC05460028F8D1FD
:1046900056485F4E04F050F9544804F04DF9534821
:1046A00004F04AF9514804F047F9504804F044F93D
:1046B0001F21584806F0E8FC4C4804F03DF91C2145
:1046C000554806F0E1FC706A544908F01BFF08F0F9
:1046D0006FFA009502460B46444804F085F9022122
:1046E0004F4806F0D1FC414804F026F923214D48FB
:1046F00006F0CAFCF06B494908F004FF08F058FACC
:10470000009502460B46394804F06EF902214448F0
:1047100006F0BAFC354804F00FF91921424806F0BA
:10472000B3FCB06B08F044FA02250B460246009534
:104730002E4804F059F929463C4806F0A5FC2B48C0
:1047400004F0FAF819213A4806F09EFCB6F8B810C1
:10475000264804F041F90321364806F095FC234829
:1047600004F0EAF8072323605FE406F027FC06F074
:1047700061FC0028F9D11D4804F0DEF81B4804F064
:10478000DBF81A4804F0D8F8184804F0D5F81748B0
:1047900004F0D2F81521284806F076FC134804F0FE
:1047A000CBF8124804F0C8F82C21244806F06CFC21
:1047B0000E4804F0C1F81921214806F065FC144B9D
:1047C00093F8CC30002B41F0AA800E211D4806F052
:1047D0005BFC064804F0B0F813211B4806F054FCBB
:1047E000024804F0A9F8092323601EE4C887FF1FCC
:1047F0005028010074280100602701008C28010066
:10480000E0230100AC280100CC280100EC280100C5
:104810004893FF1FAC270100CC27010000007A4419
:104820000C260100EC270100102801002C280100B3
:10483000302801004C2801002C2F010040250100E8
:10484000702501008C250100B025010006F0B6FBA3
:1048500006F0F0FB05460028F8D17D487D4E04F0B7
:104860006BF87B4804F068F8794804F065F87848FC
:1048700004F062F8764804F05FF81521764806F0F7
:1048800003FC734804F058F81821744806F0FCFB48
:104890002B460A2296F840106D4804F05DF86C48EB
:1048A00004F04AF828216E4806F0EEFB706C6D4962
:1048B00008F028FE08F07CF9009502460B46644893
:1048C00004F092F80221684806F0DEFB604804F02C
:1048D00033F81921654806F0D7FBD6F8C40008F074
:1048E00067F904250B4602460095594804F07CF808
:1048F000574804F021F818215D4806F0C5FBD6F8AA
:10490000C810534804F068F8514804F015F8132112
:10491000584806F0B9FB4E4804F00EF8082323600F
:10492000FFF783BB06F04AFB06F084FB0546002830
:10493000F8D14748474E03F0FFFF454803F0FCFF1E
:10494000434803F0F9FF424803F0F6FF404803F004
:10495000F3FF1121484806F097FB3D4803F0ECFFB8
:104960002821464806F090FB70693E4908F0CAFDD0
:1049700008F01EF9009502460B46354804F034F85D
:104980000221394806F080FB314803F0D5FF16219B
:104990003B4806F079FBF069324908F0B3FD08F0B6
:1049A00007F900950B460246294804F01DF802213C
:1049B0002D4806F069FB264803F0BEFFD6F8B0305C
:1049C000002B32DD1D212F4806F05EFBF06D08F054
:1049D00045FD2D4908F096FD08F0EAF8022502464B
:1049E0000B4600951A4803F0FFFF0121274806F007
:1049F0004BFB174803F0A0FF1F21254806F044FB9E
:104A0000306E08F02BFD204908F07CFD08F0D0F84E
:104A1000009502460B460E4803F0E6FF01211B48B5
:104A200006F032FB0A4803F087FF1121194806F00F
:104A30002BFBD6F8B030062B00F25A86DFE813F0D5
:104A4000A306A8069E06990694068F06540600BF84
:104A5000C887FF1F4893FF1FFC2E0100C4250100DB
:104A6000E025010000007A440C2601001026010018
:104A70002C260100B0250100A02E010048260100CF
:104A8000742601008C260100CDCCCC3D4C2B0100BE
:104A9000AC260100CC26010006F090FA06F0CAFA16
:104AA0000028F9D1BB4803F047FFBA4803F044FFA0
:104AB000B84803F041FFB74803F03EFFB54803F0A4
:104AC0003BFF1321B44806F0DFFAB24803F034FF8D
:104AD0000D21B24806F0D8FAAE4803F02DFF0F21A1
:104AE000AF4806F0D1FAAF4BAA48196803F074FF3B
:104AF000A84803F021FF1321AB4806F0C5FAAB4BE1
:104B0000A448196803F068FFA24803F015FF1221BA
:104B1000A74806F0B9FAA74B9E48196803F05CFF56
:104B20009C4803F009FF1121A34806F0ADFAA34BFE
:104B30009848196803F050FF964803F0FDFE0E21D7
:104B40009F4806F0A1FA9F4B9248D3F8A01003F0BB
:104B500043FF904803F0F0FE19219B4806F094FAB9
:104B60009A4B8C48196803F037FF8A4803F0E4FE3B
:104B70001121974806F088FA964B8648196803F089
:104B80002BFF844803F0D8FE1021934806F07CFAEE
:104B9000924B8048196803F01FFF7E4803F0CCFE5B
:104BA0001C218F4806F070FA8E4B7A48196803F082
:104BB00013FF784803F0C0FE1B218B4806F064FA0F
:104BC0008A4B7448197803F007FF724803F0B4FE6B
:104BD0001321874806F058FA6E4803F0ADFE04230F
:104BE0002360FFF722BA06F0E9F906F023FA00285D
:104BF000F9D16848734E03F09FFE664803F09CFEAF
:104C0000644803F099FE634803F096FE614803F0A0
:104C100093FE1F21774806F037FA5E4803F08CFEBA
:104C20001E21754806F030FA5A4803F085FE1A2115
:104C3000724806F029FAF36F022B00F01787032B56
:104C400000F0D086012B00F0C48609216C4806F0E4
:104C50001BFA504803F070FE14216A48DFF86481A3
:104C600006F012FAB16F4B4803F0B6FE494803F064
:104C700063FE1C21644806F007FAD6F88410454804
:104C800003F0AAFE434803F057FE1C215F4806F0DC
:104C9000FBF9D6F8AC103F4803F09EFE3D4803F008
:104CA0004BFEF56F25F00207012F00F04986022D1B
:104CB00000F0E58613214E4806F0E6F9354803F08A
:104CC0003BFE02232360FFF7B0B93E4AD2F8B03072
:104CD0000133062BC8BF0023C2F8B0300123652082
:104CE000236028609FE406F0A5F900287FF78CAACE
:104CF0002848344E03F0B2FF65230122C6F8B40001
:104D000022602B6018468EE406F094F900287FF7A5
:104D10007BAA20482B4E03F0A1FF08F09FFB3C49E3
:104D200008F0A4FC65230122706122602B60184604
:104D300079E4244B93F8C020002A00F0EB85002290
:104D400083F8C020CAE706F075F900287FF75CAA4F
:104D500010481C4E03F082FF00EB8000430001224C
:104D60006520F365226028605DE406F063F90028A1
:104D70007FF74AAA0748134E03F070FF08F06EFB56
:104D8000234908F073FC65230122F06122602B6047
:104D9000184648E4C887FF1F0C290100202901009C
:104DA000302901009894FF1F402901000895FF1F3A
:104DB00054290100EC94FF1F68290100F094FF1FA3
:104DC0007C2901004893FF1F8C290100BC94FF1F20
:104DD000A8290100B894FF1FBC2901007892FF1F89
:104DE000D02901006087FF1FF02901009494FF1F64
:104DF000B02501000C2A01002C2A01004C2A0100D8
:104E0000C42A0100D02A0100E82A0100082B010071
:104E100000007A4406F00EF900287FF7F5A97C48D7
:104E20007C4E03F01BFF00EB800043000122652055
:104E3000336622602860FFF7F6BB0123236006F08B
:104E4000F9F800287FF702A97148724E03F006FFB7
:104E5000A6F8BA00FFF7FAB86E4BD3F88020012A03
:104E60000CBF02220122C3F88020012363202360AB
:104E70002860FFF7D8BB674AD36F0133032BC8BF45
:104E80000023D367F1E7634EB36FB3FA83F35B0993
:104E900001226320B36722602860FFF7C4BB5D4E28
:104EA000D6F88430B3FA83F35B0901226320C6F895
:104EB000843022602860FFF7B6BB0123236006F030
:104EC000B9F80028D1DD5248524E03F0C7FEC6F8AB
:104ED000AC00CAE70123236006F0ACF800287FF796
:104EE000B5A84B484B4E03F0B9FE08F0B7FAC6F828
:104EF0009000FFF7ABB80123236006F09BF8002871
:104F000000F31685444B1A68042AC4BF02221A60B3
:104F100064232B6023686420FEF798BF3F4A137810
:104F200001214B406420137021602860FFF77BBB98
:104F30003B4A1368B3FA83F35B09012164201360D1
:104F400021602860FFF76FBB364AF2E7364A374FD9
:104F50001368002B0CBF012300234FF001001360E6
:104F6000206040F02085034664222A60D3E7304A5F
:104F7000DFE7284ED6F8A030B3FA83F35B090122AD
:104F80006420C6F8A03022602860FFF74CBB0123E4
:104F900028482360FCF714FB274A23681060E3E7E6
:104FA000264AC6E7264AC4E706F044F800280DDD85
:104FB0001748184E03F052FE08F050FA214908F045
:104FC00055FB01226223306222602B6006F032F82A
:104FD00000280EDD0E480F4E03F040FE08F03EFAAA
:104FE000184908F043FB01226223C6F8BC00226086
:104FF0002B6006F01FF8002840F3D8830448054EC4
:1050000003F02CFE01226223B06622602B601DE0BB
:10501000C887FF1F4893FF1F6087FF1F9494FF1FDF
:105020009894FF1F0895FF1FEC94FF1F9C92FF1F91
:10503000F094FF1F7895FF1FBC94FF1FB894FF1FCB
:105040007892FF1F00007A4405F0B8FF05F0F2FFE8
:1050500005460028F8D1C24803F06EFCC04803F0B2
:105060006BFCBF4803F068FCBD4803F065FCBC481E
:1050700003F062FC1521BB4806F006F8B84803F0BF
:105080005BFC1421B84805F0FFFFB54803F054FC61
:105090001B21B64805F0F8FFB14803F04DFC132181
:1050A000B34805F0F1FFAE4803F046FCAC4803F00E
:1050B00043FCAB4803F040FC2021AE4805F0E4FF80
:1050C000F068AD4908F01EFA07F072FD009502463F
:1050D0000B46A34803F088FC0221A84805F0D4FF42
:1050E0000221A74805F0D0FF9D4803F025FC2121AF
:1050F000A44805F0C9FF30699F4908F003FA07F09A
:1051000057FD009502460B46954803F06DFC0221C1
:105110009A4805F0B9FF0221994805F0B5FF90487B
:1051200003F00AFC1F21984805F0AEFFB06A07F0B3
:105130003FFD022702460B460097894803F054FCC6
:105140000121924805F0A0FF39468D4805F09CFFEB
:10515000834803F0F1FB20218D4805F095FFF06AAC
:1051600007F026FD009702460B467D4803F03CFC05
:105170000121864805F088FF3946814805F084FF03
:10518000774803F0D9FB2321824805F07DFFB06CFE
:10519000794908F0B7F907F00BFD009502460B4678
:1051A0006F4803F021FC3946744805F06DFF39461D
:1051B000734805F069FF6A4803F0BEFB1F2176487B
:1051C00005F062FFF06C6C4908F09CF907F0F0FC08
:1051D000009502460B46624803F006FC39466748D4
:1051E00005F052FF3946664805F04EFF5C4803F073
:1051F000A3FB1921694805F047FFB16D584803F03A
:10520000EBFB3946664805F03FFF39465C4805F040
:105210003BFF534803F090FB1821624805F034FF30
:10522000706E08F01BF9604908F06CF907F0C0FCDB
:10523000009702460B464A4803F0D6FB01215B4823
:1052400005F022FF39464E4805F01EFF444803F0A2
:1052500073FB2B21564805F017FFB069464908F04B
:1052600051F907F0A5FC009502460B463C4803F0B7
:10527000BBFB3946414805F007FF3946404805F079
:1052800003FF374803F058FB1F214A4805F0FCFE96
:10529000716D334803F0A0FB3946394805F0F4FE40
:1052A0002F4803F049FB2021434805F0EDFE316D06
:1052B0002B4803F091FB3946314805F0E5FE2848BC
:1052C00003F03AFB10213D4805F0DEFEB16E2448A4
:1052D00003F082FB3946294805F0D6FE39462848B6
:1052E00005F0D2FE1E4803F027FB1321344805F0D9
:1052F000CBFEF16E1A4803F06FFB0121314805F037
:10530000C3FE39461E4805F0BFFE154803F014FBE6
:1053100010212D4805F0B8FE316F114803F05CFBF9
:105320003946164805F0B0FE3946154805F0ACFE82
:105330000B4803F001FB1421244805F0A5FE716F12
:10534000074803F049FB01211E4805F09DFE394640
:105350000B4805F099FE024803F0EEFA162137E0FB
:10536000C887FF1FD42B0100EC2B0100042C010087
:10537000B0250100202C010000007A440C26010019
:10538000D42F0100442C0100682C0100A82001004A
:10539000882C0100AC2C0100D02C0100F02C010065
:1053A0000C2D0100102D0100CDCCCC3D4C2B01006B
:1053B0002C2D0100582D0100782D01009C2D01009D
:1053C000B02D0100C42D0100C82D0100DC2D01000D
:1053D000BA4805F059FE306AB94908F093F807F069
:1053E000E7FB009502460B46B64803F0FDFA394646
:1053F000B54805F049FE3946B44805F045FEB148C8
:1054000003F09AFA2421B24805F03EFED6F8BC001B
:10541000AB4908F077F807F0CBFB00950B46024646
:10542000A84803F0E1FA3946A74805F02DFE3946B1
:10543000A64805F029FEA34803F07EFAA14803F030
:105440007BFA03232360FEF7F0BD00227323226062
:105450002B60FEF782BD05F0EDFD002840F3A6812C
:1054600098489C4E03F0FAFB07F0F8FF944908F0C7
:10547000FDF801226223F06022602B60E6E505F072
:10548000D9FD002840F392818E48924E03F0E6FB4E
:1054900007F0E4FF8A4908F0E9F80122622330614D
:1054A00022602B60D2E505F0C5FD002840F37E8127
:1054B0008448884E03F0D2FB012262237067226089
:1054C0002B60C3E505F0B6FD002840F36F817D48F1
:1054D000804E03F0C3FB01226223F06622602B6042
:1054E000B4E5FCF783FE022178487A4E05F0CCFD46
:1054F000744803F021FA0221744805F0C5FD714893
:1055000003F01AFA0221714805F0BEFD6D4803F060
:1055100013FA1721704805F0B7FD6A4803F00CFA3A
:1055200002216A4805F0B0FD664803F005FA012241
:10553000622322602B6089E505F07CFD002840F3A2
:1055400035816048634E03F089FB07F087FF012235
:105550006223B06222602B6078E505F06BFD0028C5
:1055600040F3248157485B4E03F078FB07F076FF49
:1055700001226223F06222602B6067E505F05AFD8C
:10558000002840F313814F48524E03F067FB07F0A9
:1055900065FF4B4908F06AF801226223B06422607B
:1055A0002B6053E505F046FD002840F3FF80454899
:1055B000484E03F053FB07F051FF414908F056F8FD
:1055C00001226223F06422602B603FE5434B3F4899
:1055D000404E002202211A6005F056FD394803F0C2
:1055E000ABF90B213E4805F04FFD99E705F022FD90
:1055F000002840F3DB803348364E03F02FFB0122B6
:105600006223B06522602B6020E505F013FD0028C1
:1056100040F3CC802B482F4E03F020FB00EB8000A2
:10562000430001216222736621602A600EE505F0C5
:1056300001FD002840F3BA802248264E03F00EFBFD
:1056400007F00CFF1E4908F011F801226223B06137
:1056500022602B60FAE405F0EDFC002840F3A68000
:1056600018481C4E03F0FAFA0122622330652260CA
:105670002B60EBE405F0DEFC002840F39780114836
:10568000144E03F0EBFA01226223306722602B6094
:10569000DCE404F061FED02200210E4803F0D2FBCE
:1056A0002868104AA0F1730001210023B0FA80F0AD
:1056B000400911602360FEF74EBC00BFF42D0100CD
:1056C00000007A44C887FF1F0C260100D42F010078
:1056D0000C2E01004893FF1F1C2501006C92FF1F38
:1056E000342501004087FF1F0421C34805F0CCFC8E
:1056F000C248C34D03F020F9D6F8B030002B12DDBC
:105700001821C04805F0C0FCD5F8B410BB4803F020
:1057100063F90221BC4805F0B7FCB84803F00CF966
:10572000B64803F009F91B21B84805F0ADFC96F81E
:10573000C030012B15BF12211421B548B54805F022
:10574000A3FCAE4803F0F8F81321B34805F09CFC25
:10575000AA4803F0F1F806232360FEF766BC0B218C
:10576000AE4805F091FCC3E70D21AD4805F08CFC77
:10577000BEE70D21AB4805F087FCB9E70C21AA482C
:1057800005F082FCB4E70D21A84805F07DFCAFE7E9
:105790000C21A74805F078FCAAE72368002B08BF76
:1057A00073280CBF01200020FEF7D5BB23682868B2
:1057B000012B7EF4CAABFEF736BF23682868FEF7DC
:1057C00048BC05F037FC002800F39C808C4E96F80E
:1057D0004000D6F8C430726C032894BF0146002103
:1057E000D6F8C80088BF86F8401000909148FEF7B0
:1057F00087BE05F01FFC00287EF776AC7F48804E00
:1058000003F02CFA07F02AFE8B4907F07BFE612398
:105810000122706222602B601846FEF704BF05F07B
:1058200009FC0028C9DD7548754E03F017FA07F02A
:1058300015FE824907F066FED6F8C830726C96F8FD
:105840004010009307460346C6F8C4707948FEF737
:1058500057BE05F0EFFB00287EF746AC6748684E60
:1058600003F0FCF907F0FAFD61230122B063226026
:105870002B601846FEF7D7BE05F0DCFB00287EF74C
:10588000DBAC5E485E4E03F0E9F901226B23C6F8FB
:10589000980022602B60FEF75BBE05F0CBFB002872
:1058A0007EF7CAAC5548564E03F0D8F9644BC6F89B
:1058B000A40002221A60FDF725F801226B23226062
:1058C0002B60FEF745BE05F0B5FB00287EF7B4ACB3
:1058D0004A484B4E03F0C2F9594BC6F8A8000322C0
:1058E000E8E705F0A7FB00287EF7A6AC4348444E46
:1058F00003F0B4F901226B23C6F8940022602B60F8
:10590000FEF726BE3D483E4E03F0A8F9C0B286F829
:1059100040005EE7012283F8C020FFF7DFB91121C4
:10592000484805F0B1FB354803F006F8FEF754BFD0
:10593000324803F093F9444B02461860FFF7E4BA8B
:105940001C21424805F0A0FB4149D8F8900007F01F
:10595000D9FD07F02DF9009702460B46274803F0C2
:1059600043F805213B4805F08FFB244802F0E4FF93
:10597000D8F87C50012D00F09480032D7FF497A976
:105980001C21354805F080FBB6F8BA101B4803F01F
:1059900023F80321314805F077FB184802F0CCFFCB
:1059A000F56FFFF784B92E4B002631460B201E60A1
:1059B00003F0E0FD31460C2003F0DCFD31461420FD
:1059C00003F0D8FD3146152003F0D4FD3B68FFF706
:1059D000CBBA1E21234805F057FB084802F0ACFF64
:1059E000FFF73AB92021204805F04EFB034802F0AA
:1059F000A3FFFFF731B900BF3C270100C887FF1F95
:105A00004893FF1F4427010060270100642701001D
:105A10008027010094270100B025010030270100F4
:105A2000202701001027010000270100E0260100C7
:105A3000F02601007895FF1F6F12833A17B7D1380F
:105A4000B894FF1F9C2501006087FF1F282B0100D1
:105A5000CDCCCC3D482B0100702B0100902B0100D8
:105A60000495FF1F682A0100882A01001721244895
:105A700005F00AFB234802F05FFFFFF7EDB817219E
:105A80002148224D05F000FBD6F88030012B29D0AB
:105A9000022B7FF40FA91E491A48FCF795FBFFF76C
:105AA00009B91D211B4805F0EFFA1B49D8F88C00F5
:105AB00007F028FD07F07CF800950B4602461148D8
:105AC00002F092FF0521154805F0DEFA0D4802F0BC
:105AD00033FFD8F87C5025F00203012B3FF450AF80
