:1000000000800020BD010000E97C0000A17C000010
:10001000A17C0000A17C0000A17C0000A17C00006C
:10002000A17C0000A17C0000A17C0000E97C000014
:10003000E97C0000A17C00001D9C0000219D0000C7
:10004000E97C0000E97C0000E97C0000E97C00001C
:10005000E97C0000E97C0000E97C0000E97C00000C
:10006000E97C0000E97C0000E97C0000E97C0000FC
:10007000E97C0000E97C0000E97C0000E97C0000EC
:10008000E97C0000E97C0000E97C0000E97C0000DC
:10009000E97C0000E97C0000E97C0000E97C0000CC
:1000A000E97C0000E97C0000E97C0000E97C0000BC
:1000B000E97C0000BD700000C9700000CD70000038
:1000C000D9700000DD700000E1700000E97C0000E4
:1000D000E97C0000E97C0000E97C0000E97C00008C
:1000E000E97C0000E97C0000E97C0000E97C00007C
:1000F000E97C00002DA40000E97C00008589000057
:10010000E97C00009D8C0000E97C0000E97C000097
:10011000E97C0000E97C0000E97C0000E97C00004B
:10012000E97C0000E97C0000E97C0000E97C00003B
:10013000E97C0000E97C0000E97C0000E97C00002B
:10014000E97C0000E97C0000E97C0000E97C00001B
:10015000E97C0000E97C0000E97C0000E97C00000B
:10016000E97C0000E98E0000E97C0000E97C0000E9
:10017000E97C0000E97C0000E97C0000E97C0000EB
:10018000E97C0000E97C0000E97C0000E97C0000DB
:10019000E97C0000E97C0000E97C0000E97C0000CB
:1001A000E97C0000E97C0000E97C0000E97C0000BB
:1001B000E97C0000E97C0000E97C0000564B4CF231
:1001C000205210B51A804DF628121A8000BF00BFC9
:1001D00007F08EFD514B4FF010621A60504A9A6042
:1001E000504ADA60504A136813F4807304D14F49BF
:1001F0000B604FF4A85313604D4B1A78110703D5C9
:100200001A7842F008021A704A4B4B492A221A7097
:100210004A4A4B4B8B4204D252F8040F43F8040B6A
:10022000F8E7484B484900228B4202D243F8042B9E
:10023000FAE74649464A002352F8230041F82300D2
:1002400001336F2BF8D1434B434A802103F8011B44
:100250009342FBD1414B3D4A1A60414B8A221A70AE
:10026000A3F5805324225A70A0221A709A7992071B
:10027000FCD59A79D406FCD43A4A937903F00C035E
:10028000082B384BF9D103221A7140225A719A79FE
:100290009006FCD5334A9179324B4906FBD5324A58
:1002A000324911600221516020221A709A7902F0BD
:1002B0000C020C2AFAD12E4B2E4A1A602E4B2F4AD2
:1002C0001A6000225A60072243F8042C2C4AC3F813
:1002D0000C2D62B607F0C2FF144B1B68DA0705D578
:1002E000284807F09FFD284B284A1A60284B1B78A6
:1002F0005B0609D5244C254B22689A4204D121483B
:1003000007F090FD002323600CF094FB07F0F6FC4F
:1003100009F04CFFFEE700BF0E200540308004408E
:10032000823F04000100002B10D0034014D0034092
:1003300002D0074000E007402892FF1FE42501009B
:100340002087FF1F2892FF1F10C3FF1F0082FF1F7F
:100350000000000000E400E05FE400E008ED00E0E1
:100360000050064000400640448004400000030165
:1003700004800440C010050014E000E0FF76010096
:1003800000002020391C575C1CE00340A5C3945A90
:1003900000F00740FFFFFFFFFFFFFFFFFFFFFFFF32
:1003A000FFFFFFFFFFFFFFFFFFFFFFFFFFFFFFFF5D
:1003B000FFFFFFFFFFFFFFFFFFFFFFFFFFFFFFFF4D
:1003C000FFFFFFFFFFFFFFFFFFFFFFFFFFFFFFFF3D
:1003D000FFFFFFFFFFFFFFFFFFFFFFFFFFFFFFFF2D
:1003E000FFFFFFFFFFFFFFFFFFFFFFFFFFFFFFFF1D
:1003F000FFFFFFFFFFFFFFFFFFFFFFFFFFFFFFFF0D
:10040000FFFFFFFFFFFFFFFFFFFFFFFFDEF9FFFF23
:1004100010B5054C237833B9044B13B10448AFF33E
:1004200000800123237010BD2892FF1F00000000F0
:10043000E0250100084B10B51BB108490848AFF38F
:1004400000800848036803B910BD074B002BFBD0A0
:10045000BDE81040184700BF000000002C92FF1FAD
:10046000E02501002892FF1F00000000F0B400F119
:100470001C06104F00243146031F00F13C0243F8D4
:10048000044FB34241F8047F4FF0000542F8044F97
:10049000F5D1094A09490566002345668566C566A2
:1004A000C56702678267416780F8843080F89C30B6
:1004B000F0BC70470000A040000048430000C8C2E4
:1004C0002DE9F04190F89C4084B0202364008DF821
:1004D0000530E4B2042380468DF804408DF80630E0
:1004E0000327204608F076FB02210DF1050008F0F5
:1004F0007BFB8DF8044001F0DFFB30B3092140485D
:1005000009F026FA0023102221463E4809F0C6FCD5
:1005100001213D4809F01CFA002310229DF8051026
:10052000384809F0BBFC0121374809F011FA0023D3
:1005300010229DF80610334809F0B0FC0121324822
:1005400009F006FA2F4809F099FC02208DF80440C2
:1005500007F036FE01F0B0FB00284CD102AE0024BB
:1005600008F058FB70B3072C1FD101E008F062FBC4
:1005700008F050FB0028F9D101F09EFB10B1214892
:1005800009F07CFC9DF80B009DF80C109DF80D20E7
:100590009DF80E30C8F88800C8F88C10C8F8902074
:1005A000C8F8943004B0BDE8F08108F043FB05467C
:1005B00006F8010B01F080FB70B9013408F02AFB4A
:1005C0000028D0D1072CD3D001F076FB78B9013FB9
:1005D000D8D09DF8044084E7E9B2002310220948EE
:1005E00009F05CFC0121084809F0B2F9E5E705488B
:1005F00009F044FCEBE70721044809F0A9F9ADE74D
:10060000D80B0100CC87FF1FFC120100E40B010096
:1006100090F88C00704700BF90F88800704700BFCA
:1006200090F89000704700BF90F89400704700BFAA
:10063000082994BF50F82100002070472DE9F041AF
:100640000B4E8046041F00F11C0754F8045F31462E
:1006500028460CF065F930B1D8F8801028460CF027
:100660007DF900B12E46BC42EFD13046BDE8F081A5
:10067000000020412DE9F041D0F880704FF00008D3
:10068000041F00F11C0654F8045F394628460CF09C
:1006900065F9084948B128460CF042F9414620B1B5
:1006A00028460CF05BF900B1A846B442EBD14046B5
:1006B000BDE8F081000070422DE9F047D0F880706D
:1006C00082464FF00009041F00F11C064FF000089D
:1006D00054F8045F394628460CF040F90C4950B1F3
:1006E00028460CF01DF930B1484629460BF072FE41
:1006F00008F101088146B442EAD1CAF8A080404618
:100700000BF01CFF014648460CF020F8BDE8F087CE
:1007100000007042D0F8A000704700BF38B5846E6A
:10072000456E214628460CF0FBF800B92C462046C1
:1007300038BD00BFD0F898302DE9F041002B79D1B9
:10074000866E456E0446314628460BF043FEE76E42
:10075000394680460BF03EFE7E490BF0F7FF4FF026
:100760007C5104460CF0FAF8002861D04FF07C511F
:1007700028460CF0F3F84FF07C51002860D1284651
:100780000CF0CEF838B14FF07C5130460CF0E6F862
:10079000002840F0A7804FF07C5128460CF0DEF88E
:1007A000002860D14FF07C5128460CF0D7F8002883
:1007B00040F0A1804FF07C5128460CF0CFF8002883
:1007C0006CD14FF07C5128460CF0AAF84FF07C51C8
:1007D00010B330460CF0C2F838B14FF07C513846B7
:1007E0000CF09EF8002840F0B0804FF07C5130466D
:1007F0000CF096F8002861D04FF07C5138460CF090
:10080000ADF8002840F0A38038464FF07C510CF042
:1008100087F868B1504C10E028460CF081F80028A9
:10082000E3D128464FF07C510CF07AF8002845D1EE
:10083000BDE8F08100EB8300046E2046BDE8F08146
:1008400030460CF08BF84FF07C5100283ED03846F3
:100850000CF084F80028F0D14FF07C5128460CF0C1
:100860005FF8002859D14FF07C5130460CF058F811
:10087000002840D04FF07C5138460CF06FF800282B
:1008800041D14FF07C5130460CF068F868B14FF020
:100890007C5138460CF044F800284FD14FF07C5181
:1008A00030460CF03DF800288BD04FF07C51384694
:1008B0000CF036F8002884D02C46BEE730464FF0C6
:1008C0007C510CF02DF80028B2D09DE728460CF0A2
:1008D00027F80028C7D04FF07C5130460CF03EF886
:1008E0000028C0D04FF07C5138460CF037F8002873
:1008F0003FF451AF18E04FF07C5130460CF02EF829
:100900000028CBD0C3E7394628460BF063FD4FF0F3
:100910007C510BF067FE04468FE74FF07C51384660
:100920000CF01CF800289ED0394630460BF052FDE2
:100930004FF07C510BF056FE04467EE740464FF0E8
:100940007C510BF04FFE044677E7344675E73C4692
:1009500073E700BF000040400000A0C270B504462D
:10096000FFF7E8FE4FF07C510BF0F8FF28B3666EFE
:100970004FF07C5130460BF0F1FFA56EF0B9E46EFC
:100980004FF07C5128460BF0E9FF58B1294630461C
:100990000BF0E4FF30B1214628460BF0C1FF08B14F
:1009A0002C4620E04FF07C5120460BF0D7FF20B1C1
:1009B000284621460BF0D2FF78B970BD3046294653
:1009C0000BF0AEFFE46E0028DAD0304621460BF083
:1009D000A7FF0028D4D0344605E0304621460BF06E
:1009E000BDFF0028E9D0204670BD00BF02292DE9D7
:1009F000F8438046154600F0A880032972D00129EB
:100A00003FD0866E476E04684046FFF7A7FFD8F8D0
:100A1000701005460BF084FF08B1C8F870503946D5
:100A200030460BF09BFF002854D13946D8F87400AB
:100A30000BF076FF10B13E46C8F8746008F120064E
:100A4000C14608F14005002701E059F8044F30681D
:100A500021460BF083FF0137214628B1D8F88000EA
:100A60000BF068FF00B13460214628680BF058FF96
:100A7000043600B12C60082F05F10405E5D1BDE86E
:100A8000F883137AC0F8A430D37A907A03EB00206D
:100A90000BF054FD46490BF0A5FDC8F864006B7BD4
:100AA0000746287B03EB00200BF048FD40490BF084
:100AB00099FDC8F86800EB7B0646A87B03EB002095
:100AC0000BF03CFD3A490BF08DFDD8F80040C8F81A
:100AD0006C0099E7D8F8741030460BF03FFF0028FF
:100AE000AAD1ABE7537A107A03EB00200BF026FD76
:100AF0002F490BF077FDC8F81000EB7AA87A03EBCA
:100B000000200BF01BFD2A490BF06CFDC8F8140007
:100B10006B7B287B03EB00200BF010FD24490BF0CE
:100B200061FDC8F81800EB7BA87B03EB00200BF0FD
:100B300005FD1F490BF056FDD8F86860C8F81C0089
:100B4000D8F86470D8F800405EE7537A107A03EB67
:100B500000200BF0F3FC16490BF044FDC8F8000030
:100B6000EB7A0446A87A03EB00200BF0E7FC10496F
:100B70000BF038FDC8F804006B7B287B03EB0020EA
:100B80000BF0DCFC0A490BF02DFDC8F80800EB7BEC
:100B9000A87B03EB00200BF0D1FC05490BF022FDF4
:100BA000D8F86860D8F86470C8F80C002CE700BF6B
:100BB0006F12833A2DE9F04F90F89C3091B00746C0
:100BC0005B008DF80830FFF77BFCD7F89000D7F872
:100BD0009440D7F88C30D7F8882097F89C108DE88F
:100BE0001100C94801F06EF930223D2303268DF82B
:100BF00009208DF80A300DF10A059DF8089049F09A
:100C00000108404607F0E6FF0DF10900022107F058
:100C1000EBFF8DF80880424602AB002050400824CC
:100C200010F0800F4FEA400018BF80F00700013C31
:100C3000C0B2F5D19D4202D013F8012FEEE707F0C4
:100C4000C9FF01F039F8002840F07C8202208DF8BD
:100C5000089007F0B5FA01F02FF8002840F0B882AC
:100C60000DF10C0AD146002407F0D4FF002843D030
:100C7000032C34D101E007F0DDFF07F0CBFF0028A3
:100C8000F9D101F019F810B1A04809F0F7F83123B3
:100C900003268DF809308DF80A609DF8089049F018
:100CA0000108404607F096FF0DF10900022107F008
:100CB0009BFF8DF80880424602AB0020504008247C
:100CC00010F0800F4FEA400018BF80F00700013C91
:100CD000C0B2F5D19D4228D013F8012FEEE707F0FE
:100CE000A9FF09F8010B804600F0E6FF68B901345E
:100CF00007F090FF0028BBD1032CBED000F0DCFF32
:100D000078B9013E7FF479AFC1E75FFA88F100233B
:100D100010227E4809F0C2F801217D4808F018FE33
:100D2000E5E77A4809F0AAF8EBE707F053FF00F08F
:100D3000C3FF002840F0C58102208DF8089007F01D
:100D40003FFA00F0B9FF002840F03D820DF10C0998
:100D5000002407F05FFF002844D0032C35D101E0C8
:100D600007F068FF07F056FF0028F9D100F0A4FF54
:100D700010B1664809F082F8342201238DF8092069
:100D80008DF80A3003269DF8089049F00108404686
:100D900007F020FF0DF10900022107F025FF8DF873
:100DA0000880424602AB00205040082410F0800F1B
:100DB0004FEA400018BF80F00700013CC0B2F5D1F7
:100DC0009D4228D013F8012FEEE707F033FF09F812
:100DD000010B804600F070FF68B9013407F01AFF7C
:100DE0000028BAD1032CBDD000F066FF78B9013ECF
:100DF0007FF453AFC0E75FFA88F100231022434825
:100E000009F04CF80121424808F0A2FDE5E73F480F
:100E100009F034F8EBE707F0DDFE00F04DFF0028A5
:100E200040F00E8102208DF8089007F0C9F900F01B
:100E300043FF002840F0D6810DF10C09002407F093
:100E4000E9FE002800F08480032C72D101E007F055
:100E5000F1FE07F0DFFE0028F9D100F02DFF10B100
:100E60002A4809F00BF8012212238DF809208DF889
:100E70000A304FF003089DF80840204607F0AAFE0C
:100E800002210DF1090007F0AFFE8DF8084000F0D7
:100E900013FF30B309211F4808F05AFD0023102228
:100EA00021461A4808F0FAFF0121194808F050FDC0
:100EB000002310229DF80910144808F0EFFF0121CB
:100EC000134808F045FD002310229DF80A100F4832
:100ED00008F0E4FF01210E4808F03AFD0B4808F045
:100EE000CDFF06208DF8084007F06AF900F0E4FE17
:100EF000002840F0728103AD002607F08BFE002829
:100F00003FD0162E2FD109E0EC0B0100CC87FF1F3C
:100F1000FC120100D80B010007F08CFE07F07AFEEE
:100F20000028F9D100F0C8FE162600287DD1152032
:100F300035E007F07FFE09F8010B804600F0BCFEAB
:100F400000285BD1013407F065FE00287FF47CAFF8
:100F5000032C3FF47EAF00F0AFFE00286CD1013EC1
:100F60007FF411AF7FE707F065FE05F8010B04463B
:100F700000F0A2FE00284DD1013607F04BFE0028FC
:100F8000BFD1162ECAD000F097FE00284DD1B8F17F
:100F900001087FF470AF701E002840F31E8200230A
:100FA00003AA1C4612F8011B08254C4014F0800FC0
:100FB0004FEA440418BF84F00704013DE4B2F5D1C0
:100FC00001338342EEDB9DF8218089484146224669
:100FD00000F078FF162EC146A34602D1A04500F0CE
:100FE000138197F89C108348CDF800B04B463246E9
:100FF00000F096FF002011B0BDE8F08F5FFA88F195
:10100000002310227C4808F049FF01217B4808F0AA
:101010009FFC97E7E1B200231022774808F03EFFDB
:101020000121764808F094FCA6E7734808F026FFF3
:10103000162EACD11520B2E76F4808F01FFF8EE7DF
:1010400009216F4808F084FC2346102241466A4873
:1010500008F024FF0121694808F07AFC2346102299
:101060009DF80910644808F019FF0121634808F051
:101070006FFC102223469DF80A105F4808F00EFF0F
:1010800001215E4808F064FC21460DF10B0002AA24
:1010900012F8014B6140C9B2082311F0800F4FEAEA
:1010A000410118BF81F00701013BC9B2F5D190425F
:1010B000EED11022504808F0F1FE4F4808F0DEFE55
:1010C000B0E609214E4808F043FC23461022414671
:1010D000494808F0E3FE0121484808F039FC23465E
:1010E00010229DF80910444808F0D8FE0121434819
:1010F00008F02EFC102223469DF80A103E4808F006
:10110000CDFE01213D4808F023FC21460DF10B00E6
:1011100002AA12F8014B6140C9B2082311F0800FF6
:101120004FEA410118BF81F00701013BC9B2F5D177
:101130009042EED11022304808F0B0FE2E4808F060
:101140009DFEF9E509212E4808F002FC23461022F5
:101150004146294808F0A2FE0121284808F0F8FB82
:10116000234610229DF80910234808F097FE01211C
:10117000224808F0EDFB102223469DF80A101E4875
:1011800008F08CFE01211D4808F0E2FB21460DF11C
:101190000B0002AA12F8014B6140C9B2082311F0FA
:1011A000800F4FEA410118BF81F00701013BC9B22E
:1011B000F5D19042EED110220F4808F06FFE0E4894
:1011C00008F05CFE42E507210E4808F0C1FBBDE5D2
:1011D00007210C4808F0BCFB42E50721094808F04C
:1011E000B7FB88E60721074808F0B2FB24E600BFFA
:1011F000200C01006C0C0100CC87FF1FFC120100C9
:10120000D80B0100E40B01009DF80C3097F89C20EE
:10121000B3EB420F7FF4EEAE9DF80D30012B7FF45F
:10122000E9AE9DF80E30122B7FF4E4AE9DF810303D
:101230009DF80F0003EB00200BF080F96F490BF0D5
:10124000D1F9F96F386604460BF088FB00B1FC67F2
:10125000B96F20460BF064FB00B1BC67A7F104092D
:1012600007F1200607F140054FF008089AF806300C
:101270009AF8050003EB00200BF060F960490BF0D1
:10128000B1F949F8040F316804460BF049FB0AF143
:10129000020A30B1D7F8801020460BF055FB00B1A0
:1012A0003460296820460BF059FB043600B12C60ED
:1012B000B8F1010805F10405D8D19DF81E309DF85C
:1012C0001D0003EB002002300BF038F94D490BF004
:1012D0003DFA01464C480BF039FA4C490BF078F8CE
:1012E0004B490BF07FF9054609F0EAF90446284618
:1012F00009F0E6F9474909F055FA474905462046FD
:101300000BF070F945490BF065F84549044628464D
:101310000BF068F9014620460BF05CF801464FF0EF
:101320007E500BF013FA3F490BF052F89DF81F2046
:101330009DF82030786603EB022009300BF0FEF8B0
:1013400039490BF003FA01462F480BF0FFF92F49FA
:101350000BF03EF82E490BF045F9054609F0B0F9BF
:101360000446284609F0ACF92A4909F01BFA2A4933
:10137000054620460BF036F928490BF02BF8284992
:10138000044628460BF02EF9014620460BF022F8C1
:1013900001464FF07E500BF0D9F922490BF018F8B6
:1013A000B86604463846FFF7D9FA396F05460BF0A0
:1013B000B7FA00B13D677D6E204629460BF0CEFAA4
:1013C000A0B92946786F0BF0ABFA08B12C467C67C0
:1013D000164800F077FD01200DE69DF82190144895
:1013E00049464246C34600F06DFDFAE5796F204656
:1013F0000BF0B4FA0028EAD1EAE700BF1357053B27
:101400002003C839001601470AD7E33FE17A644058
:1014100000007A4400004040A40D8F395A80473ABA
:1014200046A6DB3333938843002C0147440C01006C
:10143000200C01002DE9F8430026D0F880800666D4
:101440008146044600F1200754F8045B41462846D3
:101450000BF084FA084950B128460BF061FA30B11C
:10146000304629460AF0B6FF0646C9F86000BC427D
:10147000EAD13046BDE8F8830000704202299ABFE5
:1014800000EB8100406E0020704700BF3E2998BFEE
:1014900080F89C10704700BF90F88400704700BF30
:1014A000C0F89810704700BF80F88410704700BFE4
:1014B00030B5C0F8801083B008460AF0E9FB074C4D
:1014C000022502460B460095204608F031FD2046D5
:1014D00003B0BDE8304008F0D1BC00BFCC87FF1F8F
:1014E00070B5064600F1280400F526552046A834BC
:1014F000FEF7BCFFAC42F9D106F1D0050124284625
:101500000021FFF7D1FF214628460134FFF7BEFF37
:101510003F2C05F1A805F2D142F6881400250548B4
:10152000054A064B3555002130617161B261F361A6
:10153000304670BD00007A44000048430000C8C235
:1015400042F68C132DE9F041002200F52657804623
:10155000C2500C3700F1D00400F5265602E0A83442
:10156000B4420DD02046FFF797FF0028F7D0204661
:101570003D68FFF7CFF8A8342844B4423860F1D171
:1015800042F68C1358F80300BDE8F081F8B50E461A
:10159000096801F47F6500290446A5F5C06511DBE3
:1015A0002D0901F00F07A82303FB0544283420462A
:1015B0000121FFF779FF324639462046BDE8F84061
:1015C000FFF714BA0A4801F00F0708F057FC122180
:1015D000084808F0BDF93168054801F000410023D2
:1015E0000A2208F05BFC02482D0908F047FCDAE704
:1015F000CC87FF1FBC0C0100704700BF704700BFC5
:101600002DE9F0430446002383B0064644F8D03B5E
:10161000012504E001353F2D04F1A80469D02046DE
:10162000FFF73AFF0028F5D0504800F04BFC294660
:101630004F4800F047FC2046FFF7BCFA2046FFF772
:10164000F9FE0AF025FB02460B464A4800F03AFC38
:101650002046FEF7F3FF80462046FFF70BF80746CB
:1016600040460AF015FB8046384689460AF010FBD2
:1016700042464B46CDE900013F4800F023FC0021E3
:101680002046FFF7FBFE012180462046FFF7F6FECD
:10169000074640460AF0FCFA8046384689460AF07A
:1016A000F7FA42464B46CDE90001344800F00AFC07
:1016B0002046FFF7BFFE014630680AF08BFE30601F
:1016C0002046FFF74BF9B1690BF02AF9002833D116
:1016D0002046FFF723F8F1690BF040F9002899D074
:1016E0002046FFF71BF801353F2DF06104F1A804F7
:1016F00095D170680AF022FF014630680BF026F899
:101700007169306004460BF029F900B174613169E8
:1017100020460BF005F900B134610B2006F01AFDEC
:1017200042F68813F35C60B99BB142F6881301223C
:10173000F25403B0BDE8F0832046FFF70FF9B06123
:10174000C6E753B942F688130022F25403B0BDE84D
:10175000F0830B4800F0E4FBE7E70A4800F0CAFB1F
:1017600042F688130022F254F0E700BFB80E0100E1
:10177000D00C01000C0D0100200D01004C0D0100EA
:10178000680D0100A00D0100104B70B50646836086
:1017900000F1D00400F5265502E0A834AC4213D085
:1017A0002046FFF779FE0028F7D02046FEF746FFD7
:1017B000B1680BF0B5F80028EFD02046FEF73EFFE9
:1017C000A834AC42B060EBD1B06870BD0000A0405E
:1017D000002370B50646C36000F1D00400F526551D
:1017E00002E0A834AC4213D02046FFF755FE002893
:1017F000F7D02046FEF73EFFF1680BF0AFF8002867
:10180000EFD02046FEF736FFA834AC42F060EBD1B3
:10181000F06870BD0068704741607047F8B50F46CA
:10182000164600F1D004012504E001353F2D04F1F6
:10183000A8041BD02046FFF72FFE0028F5D029462C
:101840000B4808F06BFB0A4808F018FB782008F0FA
:1018500003F920463946FFF723FE0135204631467D
:10186000FFF726FE3F2D04F1A804E3D1F8BD00BF29
:10187000CC87FF1F2DE9F84342F68413002700F5BB
:1018800026568046C7504FF00009043600F1D004B8
:1018900000F5265502E0A834A54213D02046FFF7F4
:1018A000FBFD0028F7D03368013333602046FEF794
:1018B00041FF1D490BF052F888B9A834A54207F141
:1018C0000107EBD142F6841358F80300C01B0AF05D
:1018D00035FE014648460AF039FFBDE8F883204648
:1018E000FEF728FF014648460AF074FD814620466F
:1018F000FEF720FFD8F820100BF030F870B9204622
:10190000FEF718FFD8F824100BF00AF80028C2D010
:101910002046FEF70FFFC8F82400BCE72046FEF77C
:1019200009FFC8F82000EAE700008CC2006A70478F
:10193000406A7047F8B50746002600F1D00400F56C
:10194000265502E0A834AC420FD02046FFF7A4FD94
:101950000028F7D02046FEF7AFFE014630460AF0D9
:1019600039FDA834AC420646EFD142F68413F8584C
:101970000AF0E4FD014630460AF0E8FEF8BD00BF7B
:101980002DE9F04F06468FB083488B4600F042FAAF
:10199000814800F03FFA804800F03CFA42F6841398
:1019A0003046F2580D92FFF7CBFD73680C93074653
:1019B00030680AF06DF9804630468946FFF7BAFF75
:1019C00082463046B468F568FFF754FF0AF060F9C4
:1019D000CDE90A01214628460AF0FAFC6F490AF0CF
:1019E00001FE0AF055F9CDE9080128460AF050F940
:1019F000CDE9060120460AF04BF9CDE90401504635
:101A00000AF046F90D9A0C9BCDE90201CDE9008957
:101A1000114663483A4600F0FDF95F4800F0FAF9D4
:101A2000D0364FF001084FF0000A07E008F1010836
:101A3000B8F13F0F06F1A80600F0A5803046FFF789
:101A40002BFD0028F2D03046FEF7E2FD3046FEF7CF
:101A5000E3FD3046FEF7E4FD3046FEF7E5FD0821E4
:101A6000504807F075FF41464F4808F057FAB8F163
:101A7000090F40F38B8002214C4807F069FF304684
:101A8000FFF7D8FC0AF004F95FFA8BF902460B461F
:101A9000CDF80090444808F04BFA0121444807F083
:101AA00057FF5546002420E00621424807F050FF2A
:101AB00029463D4808F032FA02213F4807F048FF26
:101AC00021463046FEF7B4FD0AF0E2F8CDF800906A
:101AD00002460B46344808F02BFA01340121344801
:101AE00007F036FF082C09D03D46092D05F1010706
:101AF000DADC0121314807F02BFFD5E72A4808F04E
:101B0000BDF909212E4807F023FF00213046FFF7D9
:101B1000B5FC0AF0BDF8022402460B4600942248A8
:101B200008F006FA0A21274807F012FF0121304683
:101B3000FFF7A4FC0AF0ACF8009402460B461A48E2
:101B400008F0F6F90A21204807F002FF2146304646
:101B5000FFF794FC0AF09CF8009402460B461248EA
:101B600008F0E6F90121194807F0F2FE08F1010832
:101B70000D4808F083F9B8F13F0F0AF1080A06F1A1
:101B8000A8067FF45BAF0FB0BDE8F08F01210B48D2
:101B900007F0DEFE6FE700BFB80E010000007A44D8
:101BA00050100100F0100100CC87FF1FDC1E010067
:101BB000FC10010000110100EC120100FC120100F8
:101BC0000811010014110100201101002C11010065
:101BD0002DE9F04100F1D00582B0012704E0013782
:101BE0003F2F05F1A80559D02846FFF755FC0028DE
:101BF000F5D039462B4808F091F901212A4807F021
:101C0000A7FE00244FF0020821462846FEF710FDEB
:101C10000AF03EF8CDF8008002460B46214808F055
:101C200087F901340121204807F092FE082C4FF07B
:101C30000206E9D100212846FFF720FC0AF028F827
:101C4000009602460B46174808F072F90121164823
:101C500007F07EFE01212846FFF710FC0AF018F875
:101C6000009602460B460F4808F062F901210E4823
:101C700007F06EFE31462846FFF700FC0AF008F830
:101C8000009602460B46074808F052F9013705480E
:101C900008F0F4F83F2F05F1A805A5D102B0BDE882
:101CA000F08100BFCC87FF1F30110100014B18707D
:101CB000704700BF2087FF1F024B1878B0FA80F0F2
:101CC000400970472087FF1F0278002A00F09080AB
:101CD00070B5034682B00D46252A2AD158785C1C7F
:101CE00008B325282FD0732831D0642824D0692840
:101CF00022D066284FD07A2859D0782835D0582855
:101D00002FD062283ED0422838D06C2814D06328C7
:101D100012D0742857D054285FD007F09DFE627807
:101D2000631C002AD8D1344802B0BDE8704008F0E6
:101D3000A5B818781C46F0E72B1D29682E481D46CB
:101D400008F0ECF8EBE7104607F086FEE7E72E68B0
:101D500030460BF055FC01463046043507F0F8FDDF
:101D6000DDE70221254807F0F3FD2E1D29682248F2
:101D700000231022354608F091F8D0E702212048D0
:101D800007F0E6FD2E1D29681B4800230222354678
:101D900008F084F8C3E7073525F007050321D5E9E6
:101DA000002315480091083508F0C2F8B7E7073559
:101DB00025F007050021D5E900230F4800910835DB
:101DC00008F0B6F8ABE7296801290EBF0D480E48A8
:101DD0000121043507F0BCFDA1E72B68012B07BFEB
:101DE00004210A480A480521043507F0B1FD96E7A9
:101DF000014808F043B800BFCC87FF1F3411010031
:101E0000381101003C110100401101004411010092
:101E10004C1101000FB400B583B004A951F8040BB4
:101E20000191FFF751FF03B05DF804EB04B0704778
:101E300070B51B4B1B4C1B6882B00D460193019B78
:101E40002360194604460023164617480A2208F064
:101E500025F80321154807F07BFD032C07D8DFE8A0
:101E600004F01A1510020521114807F071FD022136
:101E7000104807F06DFD31462846FFF725FF02B0F8
:101E800070BD07210C4807F063FDF0E704210B4803
:101E900007F05EFDEBE70521094807F059FDE6E78D
:101EA00018C0FF1F4492FF1FCC87FF1F5411010071
:101EB00070110100EC1201006811010060110100B5
:101EC000581101000FB400B5094B187883B020B148
:101ED00003B05DF804EB04B0704705AB1A460499F3
:101EE0000193FFF7A5FF03B05DF804EB04B0704762
:101EF0002087FF1F0FB4094B00B51B78012B83B05F
:101F000004D903B05DF804EB04B0704705AB1A4682
:101F1000049901930120FFF78BFFF2E72087FF1F51
:101F20000FB40B4B00B51B78032B83B004D903B05F
:101F30005DF804EB04B0704705AB1A4604990193B1
:101F40000320FFF775FF03B05DF804EB04B07047A2
:101F50002087FF1FF8B53948394F3A4D3A4E3B4C70
:101F6000FFF758FF3A4B3B4A3B483C495A60D86020
:101F70003B4A1F6100203B4F59615D623A499E61B7
:101F80004FF07C55394E9C62394CDA6218630C2252
:101F900038485F639963384F5D6440F61C410A25F9
:101FA0009E64DC6441F204065A241A651862022217
:101FB0000120C3F8B8709966304FDD6600216425B2
:101FC0001E675C674FF4967632245A705A72187204
:101FD0005865DF61DF6383F840105E66DE651C666E
:101FE0004FF47A7E9D65264F9967264EDA67C3F8CF
:101FF0008010C3F89440C3F8A040C3F89C10FF249D
:1020000041F28831C3F8A800C3F8AC20052040F2A3
:10201000D662C3F8B050C3F898E0C3F88870C3F82C
:102020008C60C3F8A440A3F8B600C3F89010A3F8DE
:10203000B410A3F88420A3F88620F8BD781101001D
:1020400000004040CDCCCC3DCDCC4C400000824285
:102050003093FF1F20A1070066668640333383401C
:10206000000020C1000020420000A0409A99794061
:102070000AD7233D333373409A99993ECDCC4C3ED9
:102080000000684200C02044F0B54FF47A6085B08B
:1020900006F096F800210F2006F06AF800210E20C5
:1020A00006F066F80021112006F062F800211020E9
:1020B00006F05EF80021122006F05AF800211320E5
:1020C00006F056F801210B2006F052F801210C20F1
:1020D00006F04EF80121142006F04AF801211520DF
:1020E00006F046F80121162006F042F801211720DB
:1020F00006F03EF80121052006F03AF88E4C8F4D8F
:102100000121062006F034F801210D2006F030F8F8
:1021100020880AF00FFA0146162005F093FF208868
:102120000AF008FA0146172005F08CFF20880AF013
:1021300001FA0146052005F085FF20880AF0FAF92A
:1021400000240146062005F07DFF009423467C4ACA
:102150007C497D4804F05AFCE6B2324677497A4819
:1021600004F002FC2B79754977486FF300030134C2
:1021700032462B7104F0EEFB082CEDD10924E6B2B7
:1021800032466E49704804F0EFFB2B796B496E487C
:1021900043F00103013432462B7104F0DBFB0D2CBC
:1021A000EDD16A4C4FF0FF322068102104F0FAFFA5
:1021B00020684FF0FF32102104F0CCFF20684FF070
:1021C000FF32022104F0DAFF20684FF0FF320221D3
:1021D00004F0DEFF00220F21206804F0EDFF0C2147
:1021E0005B4807F0B5FB5B4807F048FE14215A48EE
:1021F00007F0AEFB574807F041FE564807F03EFE99
:102200001721564807F0A4FB524807F037FE544BFD
:102210001B789A0600F1BE80514B1B781B0700F11A
:10222000C5804F4B1B785F0700F1CC804C4B1B786F
:102230009E0700F1D3804B4B1B781D0600F1DA801E
:10224000484B1B785C0600F1E180464B1B789806F2
:1022500000F1E880434B1B78590700F1EF80414BB8
:102260001B781A0700F1F6803E4B1B789B0700F1A4
:10227000FD80384807F002FE72B63B4A4CF220530C
:102280004DF628112024138023461180013BFDD1F7
:10229000364D3748374900234FF480562E8003804F
:1022A0000B8032F80E3C9BB243F0D30322F80E3C75
:1022B00062B69D2006F03EFC21462F482F4D07F0C8
:1022C00047FB244807F0DAFD05F1BC062F462C46F3
:1022D000601B05F053FC04F8010BB442F8D13B78C5
:1022E000102B01D0FFF736FE2548FFF787F90420B1
:1022F000FFF7DCFC234B224800221A60FFF77CF931
:1023000001210D2005F020FF796D1D48FFF784FAAB
:102310007A6C97F840101A48FFF780FA1A4B1B495D
:102320001A68039203981B680293029A184B08607C
:102330001A6005B0F0BD00BF2887FF1FF493FF1F90
:102340000CC0FF1F20A1070070BEFF1FA094FF1F3D
:1023500098110100CC87FF1FA8110100C0110100D6
:1023600001F0074000F007400E2005400420054022
:102370000620054016200540C41201003093FF1FBF
:10238000D494FF1F5892FF1F18C0FF1FD094FF1F47
:10239000FC93FF1F2121394807F0DAFA384807F08B
:1023A0006DFD384B1B781B077FF53BAF0C21364882
:1023B00007F0CEFA324807F061FD324B1B785F0719
:1023C0007FF534AF0E21314807F0C2FA2C4807F0F0
:1023D00055FD2C4B1B789E077FF52DAF17212C4800
:1023E00007F0B6FA264807F049FD2A4B1B781D0670
:1023F0007FF526AF0E21284807F0AAFA204807F0FB
:102400003DFD244B1B785C067FF51FAF122123484E
:1024100007F09EFA1A4807F031FD1E4B1B7898060C
:102420007FF518AF13211E4807F092FA144807F001
:1024300025FD184B1B7859077FF511AF1C21194852
:1024400007F086FA0E4807F019FD124B1B781A07A1
:102450007FF50AAF1921144807F07AFA084807F007
:102460000DFD0C4B1B789B077FF503AF18210F4820
:1024700007F06EFA024807F001FDFAE6D8110100F4
:10248000CC87FF1F01F00740FC1101000C12010076
:102490001C12010000F00740341201004412010038
:1024A000581201006C1201008C120100A8120100E8
:1024B00070B5464C464D4748E66800232B70FFF741
:1024C00087F9014630460AF02BFA08B104232B7035
:1024D0004048FFF759F921690AF022FA18B12B7820
:1024E00043F010032B703B48FFF7C4F9A16A0AF0D0
:1024F00035FA18B12B7843F040032B700023354890
:102500006B70FFF7B7F9E16A314E0AF009FA08B1CA
:102510000123737000232F48EB70FFF759F905462C
:102520002C482B4EFFF730F90146284609F050FFA2
:10253000E16B0AF013FA08B10123F370264D254828
:1025400000232B70FFF744F9616A0646E06809F042
:102550003FFF014630460AF001FA08B104232B7010
:102560001C48FFF711F9616A0646206909F032FF3D
:10257000014630460AF0D4F918B12B7843F0100325
:102580002B701448FFF776F9A16B0646A06A09F094
:102590001FFF014630460AF0E1F918B12B7843F0ED
:1025A00040032B7000230B486B70FFF763F9A16B9E
:1025B0000546E06A084C09F00DFF014628460AF07E
:1025C000AFF908B10123637070BD00BF3093FF1FE6
:1025D0002C93FF1FD494FF1F9094FF1F2DE9F0410F
:1025E0007C4C2368012B82B031D0022B00F0A880F4
:1025F000032B00F0C8803BBB774B784AD3F8A01080
:10260000D3F8A43012685B1A632B0EDD744803FB09
:1026100002F380FB0302DB17C3EB621319440620AD
:1026200002B0BDE8F04105F00FBC6E4803FB022389
:1026300080FB0302DB17C3EB22121144062002B019
:10264000BDE8F04105F000BC02B0BDE8F081664E87
:1026500033680A33B3F57A7F00F3B78018463360E6
:1026600009F06CFF614909F0BDFF80465A4DD5F86D
:10267000A00009F063FF0746D5F8A40009F05EFF4B
:10268000394609F0A5FE414609F0ACFF58490AF069
:102690005DF8394609F09EFE0AF080F901460620F1
:1026A00005F0D2FB0221534807F052F9524807F0D7
:1026B000E5FB0621514807F04BF9306809F03EFF71
:1026C0004A4909F08FFF09F0E3FA022702460B4658
:1026D0000097494807F02CFC0D21494807F038F9CC
:1026E000D5F8A00009F02AFF8046306809F026FFDF
:1026F0003E4909F077FF0646D5F8A40009F01EFF11
:10270000414609F065FE0146304609F06BFF384945
:102710000AF01CF8414609F05DFE09F0B9FA00978D
:102720000B460246344807F003FC3946314807F0AF
:102730000FF9314807F0A2FB2368022B7FF458AF52
:10274000294B254E00221A60D6F8A00009F0F6FEAB
:102750000546D6F8A40009F0F1FE294609F038FE36
:10276000002109F03FFF224909F0F0FF294609F056
:1027700031FE0AF013F90146062005F065FB2368D7
:10278000032B7FF438AF184B134E4FF47A721A6054
:10279000D6F8A00009F0D2FE0546D6F8A40009F04C
:1027A000CDFE294609F014FE114909F01BFF10491E
:1027B00009F0CCFF294609F00DFE0AF0EFF80146BA
:1027C000062005F041FB236815E700234FF00008C1
:1027D00033604BE78094FF1F3093FF1F3487FF1F48
:1027E0001F85EB51CBF08D285C92FF1FCDCCCC3DEB
:1027F0000000C842DC1E0100CC87FF1FE812010068
:10280000F012010070B5A248A24C07F037FBA048B7
:1028100007F034FB9E4807F031FB0D219E4807F07E
:1028200097F8D4F89C30012B11D09C4C9848217813
:1028300000230A2207F032FB2378052B67D8DFE854
:1028400013F0E900EE00F300F800FD00E4000921B8
:10285000934807F07DF89348FEF796FF21690AF048
:102860005FF818B10F21904807F072F88D48FEF715
:10287000AFFFE1680AF072F818B10E218B4807F03B
:1028800067F88848FEF7A4FF05468648FEF77CFFF8
:102890000146284609F09CFDE16B0AF05FF818B18B
:1028A0001121834807F054F87E48FEF7E3FFA16A40
:1028B0000AF054F818B10C217E4807F049F879481D
:1028C000FEF7D8FFE16A0AF02BF818B10D217A481B
:1028D00007F03EF8794B73481B68012B00F0C2806B
:1028E000FEF752FF21696B4D0AF038F878B16D4858
:1028F000FEF76EFFE9680AF013F840B1674B1B78EA
:10290000052B00F0C08008216D4807F021F8022156
:102910006C4807F01DF8122005F01CFC012800F09F
:102920009C80112005F016FC012800F09180664B78
:102930001B68012B00F087800221624807F008F82D
:10294000624B5348196807F0E9FA514807F096FAC4
:1029500004215F4806F0FCFF0B2005F0FBFB002381
:1029600001460A224A4807F099FA0C2005F0F2FBCA
:10297000002301460A22464807F090FA142005F089
:10298000E9FB002301460A22414807F087FA152097
:1029900005F0E0FB002301460A223D4807F07EFADD
:1029A00006214C4806F0D4FF4B4B394819680222E7
:1029B000002307F073FA0421484806F0C9FF1120EC
:1029C00005F0C8FB002301460A22314807F066FAE9
:1029D000102005F0BFFB002301460A222C4807F017
:1029E0005DFA122005F0B6FB002301460A222848B2
:1029F00007F054FA132005F0ADFB002301460A222C
:102A00002348BDE8704007F049BA0721344806F072
:102A10009FFF7CE70621334806F09AFF77E70721FE
:102A2000314806F095FF72E70721304806F090FF25
:102A30006DE708212E4806F08BFF68E70B212D4833
:102A400006F086FF63E711212B4806F081FF73E74C
:102A50000A212A4806F07CFF69E70E21284806F083
:102A600077FF5EE7FEF790FE216A09F077FF002806
:102A70003FF449AF1621234806F06AFF0A21224895
:102A800006F066FF43E70A211F4806F061FF3EE7B4
:102A9000CC87FF1F3093FF1F001301008C94FF1F92
:102AA00010130100D494FF1F1C1301002C1301000C
:102AB0003C13010050130100601301006892FF1FD6
:102AC00094130100DC1E0100A894FF1F8494FF1FD3
:102AD0000814010010140100EC93FF1F18140100EA
:102AE000D0130100A0130100A8130100BC130100C2
:102AF000C4130100B0130100F4130100E813010036
:102B0000D813010070130100881301002DE9F04F64
:102B1000934C944FE36F012B8DB000F04981032B50
:102B200050D0914E914DA36F9148012B09BF296858
:102B3000296801F10041296004F012FF3368002B7D
:102B400040F0CE808A4804F0E1FEE36F3860012B4C
:102B5000064600F0D280874909F000FF78B986491F
:102B6000304609F0DDFE50B9844A854B12680B925D
:102B70000B9A1A6000232B600DB0BDE8F08FDFF8D0
:102B8000FC817F4CD8F800300A930A9823687D4F67
:102B9000C01A09F0CFFC314609F024FD7A4909F04A
:102BA000D5FD794909F0D2FD396809F013FCD8F850
:102BB00000300993099B2360002338602B600DB01F
:102BC000BDE8F08FDFF8C881704DD8F80000664E80
:102BD000012300220F212B6004F0EEFA2B68012B59
:102BE000336800F00381002B40F0A6810021D8F863
:102BF0000000DFF8B891664D04F030FB33681FFA2F
:102C000080FBC9F800B0002B40F07B810021D8F890
:102C10000000564DDFF878A104F0A6FAB4F886302B
:102C200040F6E44101FB0BF1B1FBF0F0C01A00B239
:102C300009F084FC57498346D4F8880009F0D2FC97
:102C40000146584609F082FDD9F800302860632B10
:102C5000DFF858B100F3498100232B603368002B63
:102C60003FF461AF02214C4806F072FED9F8002013
:102C7000D8F8000040F6E443002103FB02F804F01A
:102C800073FAB8FBF0F009F055FC8046B4F8860002
:102C900009F054FC0146404609F09AFB08F0F8FFA1
:102CA0004FF0020802460B46CDF800803B4807F083
:102CB0003FF94146384806F04BFE286808F0E8FF27
:102CC000CDF8008002460B46344807F031F9414602
:102CD000334806F03DFE41462F4806F039FE22E714
:102CE000234804F013FE08F0D3FF022602460B46E9
:102CF00000962A4807F01CF924E7244B1B68012B97
:102D000000F02681022B7FF435AF264909F026FE1C
:102D100030B92549304609F003FE002800F047810C
:102D2000DFF85880164CD8F80030079307982368CE
:102D3000144FC01A09F0FEFB314609F053FC12494A
:102D400009F004FD104909F001FD396809F042FB62
:102D5000D8F800300693069B386023600AE700BF6E
:102D60003093FF1F7492FF1FCC94FF1F6492FF1FCC
:102D70000893FF1F0000FA430000FAC318C0FF1FAA
:102D80009C94FF1F8092FF1F00007A445087FF1F12
:102D9000A094FF1F17B7D138DC1E0100CC87FF1F9E
:102DA0005C14010000C82F4800A08CC62893FF1FA8
:102DB0003D689849284609F0B3FD30B12846964948
:102DC00009F0CCFD00287FF4FDAEDFF85882934D6A
:102DD000D8F80000924E022300220E212B6004F04E
:102DE000EBF92B68012B33687FF4FDAE002B40F02C
:102DF00000810021D8F80000DFF86C92894D04F0C2
:102E00002DFA33681FFA80FBC9F800B0002B40F0A0
:102E1000D5800021D8F80000834D04F0A5F9B4F85E
:102E2000843040F6E44A0AFB0BFBBBFBF0F0C01A0F
:102E300000B209F083FB7D498346D4F88C0009F089
:102E4000D1FB0146584609F081FCD9F800302860D2
:102E50000021D8F800000AFB03FA04F085F9B4F861
:102E60008430BAFBF0F00FFA80FAC3EB0A03002BB0
:102E7000B4F8B620B8BF5B429342BCBF00232B60BE
:102E80003368002B3FF44FAE0221694806F060FD25
:102E9000D9F80020D8F8000040F6E443002103FBF5
:102EA00002F804F061F9B4F88410B8FBF0F000B255
:102EB000411A604807F032F802215D4806F048FDEB
:102EC000286808F0E5FE4FF0020802460B46CDF8F0
:102ED0000080584807F02CF80321574806F038FDC9
:102EE0004146534806F034FD1DE6DAF800000021A3
:102EF00004F03AF9DBF8003064389842FFF4ACAEE5
:102F0000ACE60021286804F02FF940F6E4410023E4
:102F10000A2201FB0BF1B1FBF0F1464806F0BEFFBF
:102F20000221434806F014FDB4F88610414806F02B
:102F3000F5FFD9F800B069E63E4806F09FFF0C2186
:102F40003E4806F005FD0C213D4806F001FD4DE62A
:102F50003C4909F003FD58B93B49304609F0E0FC13
:102F600030B93A4A3A4B12680592059A1A6001E65E
:102F7000DFF8D880364CD8F80030049304982368E2
:102F8000344FC01A09F0D6FA314609F02BFB32490A
:102F900009F0DCFB304909F0D9FB396809F01AFA6D
:102FA000D8F800300393039B38602360E2E5274A9A
:102FB000274B12680892089A1A60DBE500212868FE
:102FC00004F0D2F840F6E44100230A2201FB0BF1A1
:102FD000B1FBF0F1174806F061FF01211F4806F030
:102FE000B7FCB4F88410134806F098FFD9F800B085
:102FF0000FE7104806F042FFE36F012B4FF00B0183
:103000000CBF1748174806F0A3FC0C210C4806F02B
:103010009FFCEEE600709446007094C65087FF1F38
:10302000CC94FF1FA094FF1F6492FF1F17B7D138E5
:10303000DC1E0100CC87FF1F481401004C14010066
:10304000381401000000FA430000FAC318C0FF1F43
:103050009C94FF1F8092FF1F00007A44FC12010025
:10306000201401002C1401002893FF1F2DE9F047C4
:10307000B24D2B6884B0002B7ED0B14CDFF8C882F3
:10308000B04EE36FAE4D012B00F08F80D4F880304E
:10309000AB4F012B00F0BC80D6F80090D7F858A0B9
:1030A0007D6DA94F05FB0AF54FF47A7000FB05F022
:1030B00009F044FAA5490546484609F093FA29461D
:1030C00009F044FBA24909F08DFA09F067FC632876
:1030D000C8F800004BDD28469C4909F037FB642303
:1030E00030603B609B4B1B68002B3DD0E36F944DE1
:1030F000012B00F0BB80032B00F00981022B00F0B4
:103100000C810221944806F023FC944B186808F0C7
:10311000BFFD022402460B460094914806F008FFCA
:103120002146904806F014FC21468B4806F010FC1E
:10313000D8F800108A4806F0F1FE06218A4806F009
:1031400007FC3068814909F04DFA08F0A1FD0094B0
:1031500002460B46824806F0EBFE0321834806F048
:10316000F7FB7F4806F08AFE04B0BDE8F087002830
:10317000BCBF00233B60B5E77D4E714C33680293C2
:10318000029A42F228339A4200F2BA8033680393DB
:10319000039A42F210739A4274D8E36FDFF8A88161
:1031A000684E674D012B7FF471AF7248FEF7C2FB8A
:1031B0007149D5F86890EF6E09F014FA09F014FC23
:1031C0002A6F6B6FC9EB0202DB1B80B29A42C9EB1C
:1031D000000040F3AD8003FB0000531C90FBF3F3B1
:1031E0001F44A06D636DC8F8007000FB07F003FB7F
:1031F00000F000EB8000400009F0A0F95349504F67
:1032000009F0A4FAD4F880303060012B7FF444AF89
:103210005848FEF78FFB5849D7F86890FD6E09F0C3
:10322000E1F909F0E1FB3A6F7B6FD4F858A0C9EBE4
:1032300002025B1B80B29A42C9EB0000C6BF03FBCF
:1032400000000132584390FBF2F02844656D00FB0A
:103250000AF005FB00F000EB8000400009F06EF979
:103260003A4909F073FA814630601AE7434B1B680C
:10327000012B4FF00A010CBF4148424806F068FBA1
:10328000EB6F38E73B48FEF755FB3B49A76EE66E10
:1032900009F0A8F909F0A8FB226F636FD21B9B1BF2
:1032A00080B29A42A0EB07003CDD03FB0000531CF8
:1032B00090FBF3F39819A26DDFF88C80636DC8F86A
:1032C000000002FB00F003FB00F000EB8000400078
:1032D00009F034F91D491B4E09F038FA012330601A
:1032E00002211D482B6006F033FB1D4806F0C6FD89
:1032F0005921254806F02CFB194806F0BFFDC0E611
:103300001C48626C94F84010FEF788FA3EE71021E2
:103310001E4806F01DFBE36FF0E607211C4806F08F
:1033200017FBEEE603FB00F393FBF2F39819C2E7F9
:1033300003FB00F393FBF2F31F4452E76092FF1F7D
:103340003093FF1F8092FF1F3487FF1FE4388E3EAB
:103350000000C8423C87FF1FDC1E01007492FF1F63
:10336000CC87FF1F5C140100F0140100F814010069
:1033700018C0FF1FD494FF1F00007A445087FF1F1E
:10338000BC140100C814010060140100D414010031
:10339000E8140100F0B5112083B004F0DBFE012831
:1033A00013D000210B2004F0CFFE00210C2004F0EC
:1033B000CBFE0021152004F0C7FE1D491D4B012046
:1033C000002208701A6003B0F0BD014604461520C3
:1033D00004F0BAFE1849194A194B09680191D2F84C
:1033E00090001B680199134D034402268B422E6006
:1033F00017D8D2F8980009F0A1F8124B196809F013
:103400008FFA074668B921460B2004F09DFE084A52
:10341000032339460C2016702B6004F095FE03B090
:10342000F0BD01210C2004F08FFE03B0F0BD00BF01
:103430008C94FF1FC894FF1F18C0FF1F3093FF1FFD
:10344000D094FF1F7492FF1FF0B5684E684D34682A
:103450002B689C4287B039D014F0010155D014F08C
:10346000020149D014F004013DD0E3070ED52B68CA
:10347000DF070BD45F4F3A68002A00F082805E4B72
:103480001B680193019B93426DD83468A0070DD54A
:103490002B6899070AD4594F3A68002A4CD0564BEA
:1034A0001B680393039B934238D8346862070DD599
:1034B0002B685B070BD4524F3A68002A7ED04E4BE4
:1034C0001B680593059B934268D834680CB107B01C
:1034D000F0BD2146162004F0B7FC2146172004F069
:1034E000B3FC07B0F0BD052004F0AEFC2B683468D7
:1034F00003F0FB032B60B8E7172004F0A5FC2B6852
:10350000346803F0FD032B60ACE7162004F09CFC4C
:103510002B68346803F0FE032B60A0E7394B1720BB
:10352000D3F8941004F090FC2B68346843F0020345
:1035300000222B603A60B9E7334806F09FFC0C216B
:10354000324806F005FA304806F098FCFF211720B3
:1035500004F07AFC284B2E4A1968029102991268ED
:103560000A443A609CE7274B1620D3F8941004F0E5
:103570006BFC2B68346843F0010300222B603A6037
:1035800084E7FF21162004F05FFC1B4B204A1968DA
:103590000091009912680A443A6071E7194B0520BE
:1035A000D3F8941004F050FC2B68346843F0040303
:1035B00000222B603A60002C89D18AE7124806F07D
:1035C0005DFC0C21134806F0C3F90F4806F056FCC9
:1035D000FF21052004F038FC074B0D4A19680491BF
:1035E000049912680A443A606AE700BFC894FF1F52
:1035F000EC93FF1F6494FF1F18C0FF1F6894FF1F08
:103600006C94FF1F3093FF1FCC87FF1FFC14010039
:103610006887FF1F0C1501002DE9F047544EDFF8B5
:103620007481DFF874913068524D00220F2103F04D
:10363000C3FD0023012222214F48C8F80030C9F8F9
:10364000002006F085F9D8F80030132B22DC40F674
:10365000E44700213068B5F884A003F0FFFD0021A5
:103660000446306803F080FDA4B2012107FB04F496
:10367000B4FBF0F441485444A5F8844006F068F9DE
:10368000642004F09DFDD8F800300133132BC8F8F6
:103690000030DEDDB5F88430394A3A48A2FB031227
:1036A0009B1A02EB5303C3F30F131946A5F884309A
:1036B00006F034FC1D21344806F04AF90221334853
:1036C00006F046F92F4806F0D9FB00231A460E21D2
:1036D0003068C8F8003003F06FFD0223222126482D
:1036E000C9F8003006F034F9D8F80030132B22DC8A
:1036F00040F6E44700213068B5F8869003F0AEFD4F
:1037000000210446306803F02FFDA4B2012107FB1D
:1037100004F4B4FBF0F419484C44A5F8864006F0D4
:1037200017F9642004F04CFDD8F800300133132B56
:10373000C8F80030DEDDB5F88630114A1148A2FB2A
:1037400003129B1A02EB5303C3F30F131946A5F898
:10375000863006F0E3FB1D210D4806F0F9F8022142
:103760000A4806F0F5F80748BDE8F04706F086BBC2
:10377000A094FF1F3093FF1F1C150100601501006E
:1037800087611886CC87FF1F40150100DC1E0100F1
:10379000641501008894FF1F5087FF1FA24B2DE97D
:1037A000F0411B68A14CA24D40F25131082221602A
:1037B000E271286D002B40F0E48008F0BFFE6969DB
:1037C000064608F00FFF9B49994F08F00BFF09F0E0
:1037D0000BF980B203126372974A984B12681B6808
:1037E000A969A37215121B12E3722273207265730A
:1037F000304608F0F7FE8F498C4E08F0F3FE09F0D2
:10380000F3F883B21A1231468D48A373E27303F0C2
:10381000F5FA8C4B8C4A1B681288A272DDB205EB5C
:103820008501257203EB8305490045F3D71540F266
:10383000553E12124FF008081B1221736573314672
:1038400000257F48C4F800E0E2726372A573E57357
:1038500084F8078003F0D2FA40F256337B482360A5
:1038600084F80780FDF7D6FF794908F0BBFE09F020
:10387000BBF820727548FDF7CDFF754908F0B2FE20
:1038800009F0B2F8734A7249C0F3072363721068F3
:1038900008F05CFF09F082F840FA08F203466B4832
:1038A000E272A372FDF7E6FF624908F09BFE09F0A1
:1038B0009BF820736548FDF7DDFF5E4908F092FE36
:1038C00009F092F83146C0F307235D486373A5738E
:1038D000E57303F093FA022004F072FC5E4B25734B
:1038E0001A7859786573A573E57322729D78DA7832
:1038F000617240F25A3331465148A572E272236038
:1039000084F8078003F07AFA544B4D481A785978B6
:10391000227261729A78D978A272E1721A79597911
:103920009D7922736173DA79E27340F25E33314636
:103930002360A57384F8078003F060FA022004F086
:103940003FFC474B3E481A785978227261729A7848
:10395000D978A272E1721A7959799D7922736173CB
:10396000DA7984F807804FF45C7331462360A573DD
:10397000E27303F043FA3B4B1B68012B06D0BDE812
:10398000F08108F0DBFD296A06461AE72F48FDF7AB
:10399000FBFEF96C08F01EFD05462C48FDF718FFEC
:1039A0000146284608F0BCFF0028E8D040F2C333A7
:1039B000264886F807803360FDF7E6FEBD6C294691
:1039C00008F0AEFFD0B12849284608F00BFE09F0F8
:1039D0000BF880B240FA08F37072337200230126AC
:1039E00004250322A672E57222736373A373E37343
:1039F0000E491348BDE8F04103F000BA1348FDF743
:103A0000C3FE194908F0EEFD08F0EEFFC0F30723EE
:103A10000E483372FDF7B8FE134908F0E3FD08F0D5
:103A2000E3FF7072DAE700BF6892FF1FB894FF1FD0
:103A30003093FF1F000020419894FF1F5092FF1FFA
:103A400070BEFF1F3487FF1F3887FF1FD494FF1FEE
:103A50000000C8427492FF1F2C93FF1F2C87FF1F8A
:103A60005487FF1FA894FF1F00007A44F0B59C4CB8
:103A70009C4D83B005F006FF23682860042B00F0FE
:103A8000AC82022B4BD0082B00F09280072B40F029
:103A90005181332801F0C58300F3AD80312801F056
:103AA000D383322840F0B08005F028FF002840F38F
:103AB0003F818D488D4E06F075FB08F03FFD8C4927
:103AC00008F090FD61230122F06322602B6018460C
:103AD000A0F152031F2B01F29483DFE813F0360BA1
:103AE000920B920B920B920B920B920B920B920BEE
:103AF000920B920B920B920B920B920BB203AB0CAC
:103B00003905A7057304920B920B920B2604920BB6
:103B1000AE0C920B920B920B920B920B240BA0F11A
:103B20003102422A70D8DFE812F022072E07E6069B
:103B3000F306060715076F006F006F006F006F0038
:103B40006F006F006F006F006F006F006F006F00FD
:103B50006F006F006F006F006F006F006F006F00ED
:103B60006F006F006F006F006F006F006F006F00DD
:103B70006F006F006F006F006F006F006F006F00CD
:103B80006F006F006F006F006F006F006F00D30653
:103B90006F006F006F006F006F006F006F006F00AD
:103BA0006F006F006F006F006F006B006F00D90631
:103BB000322800F02F83712822D0312824D105F03B
:103BC0009DFE002840F342864748484E06F0EAFA38
:103BD000C0B286F84000022894BF01460021726CF2
:103BE000444888BF86F84010FDF718FE012369207D
:103BF000236028606CE7342801F03C83712803D1EE
:103C00000023732023602860002B08BF73280CBF9B
:103C100001200020002860D0334806F02FF904214D
:103C2000354805F095FE304806F028F91021334854
:103C300005F08EFE2C4806F021F91321304805F0DE
:103C400087FE304B2848196806F068F9264806F0C8
:103C500015F914212C4805F07BFE234806F00EF9D7
:103C60001E212A4805F074FE1F4806F007F91521A9
:103C7000274805F06DFE1C4806F000F91E21254876
:103C800005F066FE184806F0F9F82021224805F0F4
:103C90005FFE154806F0F2F81921204805F058FE9D
:103CA000114806F0EBF812211D4805F051FE0E48B0
:103CB00006F0E4F80F211B4805F04AFE0A4806F01A
:103CC000DDF80D21184805F043FE074806F0D6F848
:103CD000164A002101231160236003B0F0BD00BF2C
:103CE0008492FF1F7092FF1FCC87FF1F3093FF1F2E
:103CF0006F12833AD494FF1F581D0100601D01000C
:103D0000741D01002487FF1F881D0100A01D0100F4
:103D1000C01D0100D81D0100F81D01001C1E01007E
:103D2000381E01004C1E01005C1E01003C87FF1F75
:103D300023682868062B40F08D80A0F13102402ACC
:103D40003FF662AF01A151F822F000BF83470000A7
:103D5000AF470000DB470000014800002748000093
:103D60005F470000093C0000093C0000093C0000DE
:103D7000093C0000093C0000093C0000093C00002F
:103D8000093C0000093C0000093C0000093C00001F
:103D9000093C0000093C0000093C0000093C00000F
:103DA000093C0000093C0000093C0000093C0000FF
:103DB000093C0000093C0000093C0000093C0000EF
:103DC000093C0000093C0000093C0000093C0000DF
:103DD000093C0000093C0000093C0000093C0000CF
:103DE000093C0000093C0000093C0000093C0000BF
:103DF000093C0000093C0000093C0000093C0000AF
:103E0000093C0000093C0000093C0000093C00009E
:103E1000093C0000093C0000093C0000093C00008E
:103E2000093C0000093C0000093C0000093C00007E
:103E3000093C0000093C0000093C0000093C00006E
:103E4000093C0000093C0000093C0000013C000066
:103E500023682868052B15D1332801F0528240F3DE
:103E60004781352801F03F82C1F2168271287FF424
:103E7000CBAEDC4A00237320136023602860C3E6C6
:103E800023682868032B40F0A480A0F13002422A66
:103E90003FF6BAAE01A151F822F000BFA93F0000E1
:103EA000D7500000FF500000BB4F0000DD4F000066
:103EB000FF4F0000275000004F5000006D500000E1
:103EC00091500000093C0000093C0000093C000042
:103ED000093C0000093C0000093C0000093C0000CE
:103EE000093C0000093C0000093C0000093C0000BE
:103EF000093C0000093C0000093C0000093C0000AE
:103F0000093C0000093C0000093C0000093C00009D
:103F1000093C0000093C0000093C0000093C00008D
:103F2000093C0000093C0000093C0000093C00007D
:103F3000093C0000093C0000093C0000093C00006D
:103F4000093C0000093C0000093C0000093C00005D
:103F5000093C0000093C0000093C0000093C00004D
:103F6000B95000008B4A0000DF4E0000094F0000EE
:103F7000274F00007B4F0000414A0000654A0000C7
:103F8000093C0000093C0000093C0000093C00001D
:103F9000093C0000093C0000093C0000093C00000D
:103FA000FD4E0000454F000005F0A8FC002841F33D
:103FB00031818D488D4E06F0F5F801270346014604
:103FC00062228B48736527602A60FDF725FC236811
:103FD0002868012B7FF418AE7AE5A0F13102402A5F
:103FE0003FF612AE01A151F822F000BFA349000034
:103FF000BB490000BF490000E5490000254A000018
:10400000E9490000FB490000FF490000034A0000A5
:10401000093C0000093C0000093C0000093C00008C
:10402000093C0000093C0000093C0000093C00007C
:10403000093C0000093C0000093C0000093C00006C
:10404000093C0000093C0000093C0000093C00005C
:10405000093C0000093C0000093C0000093C00004C
:10406000093C0000093C0000093C0000093C00003C
:10407000093C0000093C0000093C0000093C00002C
:10408000093C0000093C0000093C0000093C00001C
:10409000093C0000093C0000093C0000093C00000C
:1040A000093C0000093C0000093C0000093C0000FC
:1040B000093C0000093C0000093C0000093C0000EC
:1040C000093C0000093C0000093C0000093C0000DC
:1040D000093C0000093C0000093C0000093C0000CC
:1040E000093C0000093C0000093C0000013C0000C4
:1040F000312801F0E78032287FF486AD05F0FEFB21
:1041000000287FF7BDAE3848384E06F04BF8012244
:104110006B23C6F8980022602B6001E005F0B2FB2B
:1041200005F0ECFB0028F9D12F4805F0A7FE2E483A
:1041300005F0A4FE2C4805F0A1FE2B4805F09EFEDC
:10414000294805F09BFE21212A4805F001FC26485C
:1041500005F094FE1521284805F0FAFBD6F89010DA
:10416000214805F0DBFE0221244805F0F1FB1E4842
:1041700005F084FE1E21224805F0EAFBD6F89810CF
:10418000194805F0CBFE03211E4805F0E1FB164857
:1041900005F074FE1E211C4805F0DAFBD6F89410D9
:1041A000114805F0BBFE104805F068FE1D211748B8
:1041B00005F0CEFBD6F8A0100B4805F0AFFE0A487C
:1041C00005F05CFE1E21124805F0C2FBD6F8A410D3
:1041D000054805F0A3FE044805F050FE05232360C2
:1041E0007BE500BF8094FF1FCC87FF1F3093FF1F2C
:1041F000D494FF1FD0170100F41701002817010005
:104200000C180100481401002C1801004C18010082
:104210006C18010005F072FB002840F31383B248CC
:10422000B24E05F0BFFF08F089F9B14908F0DAF99C
:104230000346024696F84010AE487364D4E405F095
:1042400021FB05F05BFB05460028F8D1A648A74EE8
:1042500005F014FEA44805F011FEA34805F00EFE7B
:10426000A14805F00BFEA04805F008FE1F21A2485A
:1042700005F06EFB9C4805F001FE1C219F4805F0EF
:1042800067FB706A9E4908F0ADF907F001FD0095E3
:1042900002460B46944805F04BFE0221994805F072
:1042A00057FB914805F0EAFD2321974805F050FBA4
:1042B000F06B934908F096F907F0EAFC0095024686
:1042C0000B46894805F034FE02218E4805F040FB7C
:1042D000854805F0D3FD19218C4805F039FBB06BFA
:1042E00007F0D6FC02250B46024600957E4805F0F5
:1042F0001FFE2946864805F02BFB7B4805F0BEFDD6
:104300001921844805F024FBB6F8B410764805F06E
:1043100005FE0321804805F01BFB734805F0AEFD48
:1043200007232360D9E405F0ADFA05F0E7FA054666
:104330000028F8D16C486D4E05F0A0FD6A4805F0E4
:104340009DFD694805F09AFD674805F097FD6648B0
:1043500005F094FD1521714805F0FAFA624805F060
:104360008DFD18216E4805F0F3FA2B460A2296F8C7
:1043700040105D4805F092FD5B4805F07FFD282167
:10438000684805F0E5FA706C5D4908F02BF907F014
:104390007FFC00950B460246534805F0C9FD0221FB
:1043A000584805F0D5FA504805F068FD13215E48DD
:1043B00005F0CEFA4C4805F061FD082323608CE43B
:1043C00005F060FA05F09AFA05460028F8D146484B
:1043D000464E05F053FD444805F050FD424805F0B7
:1043E0004DFD414805F04AFD3F4805F047FD1121CC
:1043F0004E4805F0ADFA3C4805F040FD28214C48F8
:1044000005F0A6FA70693E4908F0ECF807F040FCA8
:10441000009502460B46344805F08AFD02213948D2
:1044200005F096FA304805F029FD1621414805F0BF
:104430008FFAF069324908F0D5F807F029FC0095A9
:104440000B460246284805F073FD02212D4805F071
:104450007FFA254805F012FDD6F8AC30002B32DD8E
:104460001D21354805F074FAF06D08F067F83349FE
:1044700008F0B8F807F00CFC022502460B46009540
:10448000194805F055FD01212D4805F061FA16483F
:1044900005F0F4FC1F212B4805F05AFA306E08F0A5
:1044A0004DF8264908F09EF807F0F2FB0095024609
:1044B0000B460D4805F03CFD0121214805F048FA66
:1044C000094805F0DBFC11211F4805F041FAD6F838
:1044D000AC30052B00F25686DFE813F07F067A0633
:1044E00050068E0689068406CC87FF1F3093FF1F77
:1044F0006F12833AD494FF1F2C1701004C17010050
:1045000000007A44FC1501006C17010090170100AF
:10451000AC170100B0170100CC170100201E0100EC
:10452000B4150100D015010000160100C41D0100E2
:10453000141601004016010058160100CDCCCC3DE8
:10454000B01A0100781601009816010005F09AF9DA
:1045500005F0D4F90028F9D1BF48C04E05F08EFC13
:10456000BD4805F08BFCBC4805F088FCBA4805F056
:1045700085FCB94805F082FC1F21B94805F0E8F92F
:10458000B54805F07BFC1E21B64805F0E1F9B248BC
:1045900005F074FC1A21B44805F0DAF9F36F022B28
:1045A00000F01787032B00F00B87012B00F01A8710
:1045B0000921AE4805F0CCF9A74805F05FFC1421AD
:1045C000AB48A64F05F0C4F9B16FA34805F0A6FCAF
:1045D000A14805F053FC1C21A64805F0B9F9D6F80E
:1045E00080109D4805F09AFC9B4805F047FC1C2173
:1045F000A14805F0ADF9D6F8A810974805F08EFC53
:10460000954805F03BFCF56F25F00205012D00F003
:1046100091861321994805F09BF98F4805F02EFCEF
:1046200002232360FFF759BB05F02CF905F066F96A
:104630000028F9D1884805F021FC874805F01EFCC8
:10464000854805F01BFC844805F018FC824805F0FD
:1046500015FC13218A4805F07BF97F4805F00EFC14
:104660000D21884805F074F97B4805F007FC0F21FF
:10467000854805F06DF9854B7748196805F04EFCC3
:10468000754805F0FBFB1321814805F061F9814B6A
:104690007148196805F042FC6F4805F0EFFB1221E4
:1046A0007D4805F055F97D4B6B48196805F036FCDF
:1046B000694805F0E3FB1121794805F049F9794B88
:1046C0006548196805F02AFC634805F0D7FB0E2100
:1046D000754805F03DF9614B5F48D3F89C1005F033
:1046E0001DFC5D4805F0CAFB1921704805F030F942
:1046F0006F4B5948196805F011FC574805F0BEFB8F
:1047000011216C4805F024F96B4B5348196805F0EA
:1047100005FC514805F0B2FB1021684805F018F976
:10472000674B4D48196805F0F9FB4B4805F0A6FBAF
:104730001C21644805F00CF9634B4748196805F0E3
:10474000EDFB454805F09AFB13214C4805F000F9B4
:10475000414805F093FB04232360FFF7BEBA05F040
:10476000CDF800287FF774AB3B483C4E05F01AFDAE
:1047700065230122C6F8B00022602B601846FFF7BF
:10478000A7B905F0BBF800287FF762AB3248334E7B
:1047900005F008FD07F0D2FE4C4907F0D7FF65236E
:1047A0000122706122602B601846FFF791B905F075
:1047B000A5F800287FF74CAB2748284E05F0F2FCFF
:1047C00007F0BCFE414907F0C1FF65230122F061FB
:1047D00022602B601846FFF77BB905F08FF80028A0
:1047E0007FF736AB1C481D4E05F0DCFC00EB80006B
:1047F000430001226520F36522602860FFF768B955
:1048000005F07CF800287FF723AB1348134E05F022
:10481000C9FC00EB80004300012265203366226062
:104820002860FFF755B90D4AD2F8AC300133052B9B
:10483000C8BF0023C2F8AC30652001232360286084
:10484000FFF746B923682868FFF720B9034E96F8AA
:104850004000FFF7C0B900BFCC87FF1F3093FF1F98
:104860007019010090190100B0190100281A010007
:10487000341A01004C1A01006C1A010000160100E4
:104880008C180100A0180100B01801006094FF1FEF
:10489000C0180100CC94FF1FD4180100B094FF1F72
:1048A000E8180100B494FF1FFC1801000C19010066
:1048B0008494FF1F281901008094FF1F3C190100F8
:1048C0006C92FF1F501901005C87FF1F00007A44A3
:1048D000FEF7A2FE23682868FFF7D5B8724AD36FA7
:1048E0000133032BC8BF0023D36701236320236058
:1048F0002860FFF7EDB80123236004F0FFFF0028D4
:10490000F3DD6A48684E05F04DFCC6F8A800ECE7F8
:104910000123236004F0F2FF002807DD6348624EA4
:1049200005F040FC07F00AFEC6F88C006320286002
:104930002368FFF7ABB80123236004F0DFFF0028F2
:10494000F4DD5A48584E05F02DFC07F0F7FDC6F887
:104950008800EBE70123236004F0D0FF0028E5DDA9
:104960005248514E05F01EFCA6F8B600DEE74E4E4A
:10497000B36FB3FA83F35B0901226320B36722604C
:104980002860FFF7A5B8484ED6F88030B3FA83F315
:104990005B0901226320C6F8803022602860FFF79F
:1049A00097B8434A1368B3FA83F35B090121642083
:1049B000136021602860FFF78BB83E4AF2E73E4A59
:1049C0003E4F1368002B0CBF012300234FF0010062
:1049D0001360206040F0DE84034664222A60642075
:1049E000FFF751B8364ADDE7012336482360FCF76C
:1049F000A7FD354A23681060EFE7344AD2E7344A0E
:104A0000D0E70123236004F079FF002800F38A84B3
:104A1000304B1A68042AC4BF02221A6064232B6038
:104A20002368DCE7204ED6F89C30B3FA83F35B09A9
:104A300001226420C6F89C3022602860FFF748B845
:104A400004F05CFF00280DDD1848174E05F0AAFBA6
:104A500007F074FD204907F079FE012262233062DD
:104A600022602B6004F04AFF00280EDD0F480E4E36
:104A700005F098FB07F062FD174907F067FE012279
:104A80006223C6F8B80022602B6004F037FF0028CC
:104A900040F3C0830548044E05F084FB01226223E5
:104AA000B06622602B601BE03093FF1FCC87FF1F96
:104AB0006094FF1FCC94FF1FB094FF1F8492FF1FD0
:104AC000B494FF1FD494FF1F8494FF1F8094FF1F92
:104AD0006C92FF1F5C87FF1F00007A4404F0D2FE37
:104AE00004F00CFF05460028F8D1C24805F0C6F9CD
:104AF000C04805F0C3F9BF4805F0C0F9BD4805F04E
:104B0000BDF9BC4805F0BAF91521BB4804F020FFF7
:104B1000B84805F0B3F91421B84804F019FFB548B6
:104B200005F0ACF91B21B64804F012FFB14805F0BE
:104B3000A5F91321B34804F00BFFAE4805F09EF928
:104B4000AC4805F09BF9AB4805F098F92021AE4838
:104B500004F0FEFEF068AD4907F044FD07F098F858
:104B6000009502460B46A34805F0E2F90221A84849
:104B700004F0EEFE0221A74804F0EAFE9D4805F08D
:104B80007DF92121A44804F0E3FE30699F4907F034
:104B900029FD07F07DF8009502460B46954805F083
:104BA000C7F902219A4804F0D3FE0221994804F083
:104BB000CFFE904805F062F91F21984804F0C8FE26
:104BC000B06A07F065F8022702460B46009789484D
:104BD00005F0AEF90121924804F0BAFE39468D483D
:104BE00004F0B6FE834805F049F920218D4804F011
:104BF000AFFEF06A07F04CF8009702460B467D487E
:104C000005F096F90121864804F0A2FE3946814854
:104C100004F09EFE774805F031F92321824804F024
:104C200097FEB06C794907F0DDFC07F031F800958C
:104C300002460B466F4805F07BF93946744804F08C
:104C400087FE3946734804F083FE6A4805F016F97A
:104C50001F21764804F07CFEF06C6C4907F0C2FC22
:104C600007F016F8009502460B46624805F060F919
:104C70003946674804F06CFE3946664804F068FE21
:104C80005C4805F0FBF81921694804F061FEB16D3C
:104C9000584805F043F93946664804F059FE39464C
:104CA0005C4804F055FE534805F0E8F818216248C6
:104CB00004F04EFE706E07F041FC604907F092FC74
:104CC00006F0E6FF009702460B464A4805F030F929
:104CD00001215B4804F03CFE39464E4804F038FEA2
:104CE000444805F0CBF82B21564804F031FEB0695A
:104CF000464907F077FC06F0CBFF009502460B46CD
:104D00003C4805F015F93946414804F021FE394682
:104D1000404804F01DFE374805F0B0F81F214A480E
:104D200004F016FE716D334805F0F8F8394639483D
:104D300004F00EFE2F4805F0A1F82021434804F0AE
:104D400007FE316D2B4805F0E9F83946314804F08B
:104D5000FFFD284805F092F810213D4804F0F8FDC9
:104D6000B16E244805F0DAF83946294804F0F0FD20
:104D70003946284804F0ECFD1E4805F07FF8132161
:104D8000344804F0E5FDF16E1A4805F0C7F801213A
:104D9000314804F0DDFD39461E4804F0D9FD1548C0
:104DA00005F06CF810212D4804F0D2FD316F114848
:104DB00005F0B4F83946164804F0CAFD39461548DE
:104DC00004F0C6FD0B4805F059F81421244804F0FE
:104DD000BFFD716F074805F0A1F801211E4804F0DE
:104DE000B7FD39460B4804F0B3FD024805F046F81C
:104DF000162137E0CC87FF1FF81A0100101B0100B5
:104E0000281B010000160100441B010000007A4429
:104E1000FC150100DC1E0100681B01008C1B010059
:104E20002C110100AC1B0100D01B0100F41B010080
:104E3000141C0100301C0100341C0100CDCCCC3D01
:104E4000B01A0100501C01007C1C01009C1C0100D8
:104E5000C01C0100D41C0100E81C0100EC1C010076
:104E6000001D0100BA4804F073FD306AB94907F02B
:104E7000B9FB06F00DFF009502460B46B64805F05B
:104E800057F83946B54804F063FD3946B44804F094
:104E90005FFDB14804F0F2FF2421B24804F058FD50
:104EA000D6F8B800AB4907F09DFB06F0F1FE00957F
:104EB0000B460246A84805F03BF83946A74804F0DF
:104EC00047FD3946A64804F043FDA34804F0D6FF49
:104ED000A14804F0D3FF03232360FEF7FEBE04F0D5
:104EE0000DFD002840F396819B489F4E05F05AF92E
:104EF00001226223F06622602B60F1E50022732319
:104F000022602B60FEF788BE04F0F8FC002840F316
:104F100081819148944E05F045F901226223306762
:104F200022602B60DCE504F0E9FC002840F372818C
:104F300089488D4E05F036F90122622370672260A0
:104F40002B60CDE5894B8648874E002202211A60EE
:104F500004F0FEFC804804F091FF0B21844804F02B
:104F6000F7FC02217E4804F0F3FC7B4804F086FF46
:104F70000122622322602B60B2E5FCF7EBFF0221E5
:104F80007748794E04F0E4FC734804F077FF02217F
:104F9000734804F0DDFC704804F070FF0221704893
:104FA00004F0D6FC6C4804F069FF1721714804F046
:104FB000CFFC694804F062FFD3E704F09FFC0028AF
:104FC00040F328816448684E05F0ECF807F0B6FA23
:104FD00001226223B06222602B6081E504F08EFC26
:104FE000002840F317815C485F4E05F0DBF807F0BE
:104FF000A5FA01226223F06222602B6070E504F0C2
:105000007DFC002840F306815348574E05F0CAF84E
:1050100007F094FA4F4907F099FB01226223B0642C
:1050200022602B605CE504F069FC002840F3F2800C
:1050300049484D4E05F0B6F807F080FA454907F0AB
:1050400085FB01226223F06422602B6048E504F0B6
:1050500055FC002840F3DE803F48434E05F0A2F89F
:1050600001226223B06522602B6039E504F046FC22
:10507000002840F3CF8038483B4E05F093F800EB12
:105080008000430001216222736621602A6027E5C7
:1050900004F034FC002840F3BD802F48324E05F068
:1050A00081F807F04BFA2B4907F050FB01226223ED
:1050B000B06122602B6013E504F020FC002840F36F
:1050C000A9802548284E05F06DF80122622330653D
:1050D00022602B6004E504F011FC002840F39A8064
:1050E0001D48214E05F05EF807F028FA194907F02F
:1050F0002DFB01226223F06022602B60F0E404F0BB
:10510000FDFB002840F386801348174E05F04AF84F
:1051100007F014FA0F4907F019FB012262233061EE
:1051200022602B60DCE4BC2200210F4802F040FD2D
:105130002868114AA0F1730001210023B0FA80F021
:10514000400911602360FEF765BD03F0CBFE00BF90
:10515000181D010000007A44CC87FF1FFC150100D8
:10516000DC1E0100301D01003093FF1F6092FF1F05
:10517000A8150100901501003C87FF1F0C21B048C5
:1051800004F0E6FBAF48B04D04F078FED6F8AC3042
:10519000002B0FDD1821AD4804F0DAFBD5F8B01074
:1051A000A84804F0BBFE0221A94804F0D1FBA548A1
:1051B00004F064FEA34804F061FE1321A54804F046
:1051C000C7FBA04804F05AFE06232360FEF785BD06
:1051D0000C21A14804F0BCFBD4E70D219F4804F04A
:1051E000B7FBCFE70F219E4804F0B2FBCAE70D21C1
:1051F0009C4804F0ADFBC5E70D219B4804F0A8FBDB
:10520000C0E72368002B08BF73280CBF01200020D3
:10521000FEF700BD23682868012B7EF4F5ACFEF78D
:1052200057BC04F06BFB00287EF782AD8548864EA4
:1052300004F0B8FF07F082F961230122B063226015
:105240002B601846FEF744BC04F058FB00287EF79C
:105250006FAD7C487C4E04F0A5FF07F06FF98349E1
:1052600007F0C0F961230122706222602B601846AA
:10527000FEF72EBC04F042FB00287EF759AD7148C2
:10528000714E04F08FFF61230122A6F8B400226062
:105290002B601846FEF71CBC04F030FB00287EF79C
:1052A000EFAD6848684E04F07DFF714BC6F8A00072
:1052B00002221A60FDF792F901226B2322602B6013
:1052C000FEF72EBF04F01AFB00287EF7D9AD5D482B
:1052D0005D4E04F067FF01226B23C6F89000226048
:1052E0002B60FEF71DBF04F009FB00287EF7C8AD58
:1052F0005448554E04F056FF5D4BC6F8A4000322F7
:10530000D7E704F0FBFA00287EF7BAAD4D484E4EC1
:1053100004F048FF01226B23C6F8940022602B6042
:10532000FEF7FEBE474804F03DFF524B02461860B0
:10533000FFF770BB1C21504804F00AFBD7F88C0023
:105340004E4907F04FF906F0A3FC009502460B46C4
:105350003C4804F0EDFD0521494804F0F9FA3948CC
:1053600004F08CFDFD6F012D45D0032D7FF451A974
:105370001C21444804F0ECFAB6F8B610314804F0A9
:10538000CDFD0321404804F0E3FA2E4804F076FDF9
:10539000FFF73FB93D4B002631460B201E6002F05F
:1053A000D3FE31460C2002F0CFFE3146142002F02D
:1053B000CBFE3146152002F0C7FE3B68FFF70DBB60
:1053C0002021334804F0C4FA1E4804F057FDFFF7CB
:1053D000F6B817212F4804F0BBFA1A4804F04EFD26
:1053E000FFF7EDB81E212C4804F0B2FA154804F07E
:1053F00045FDFFF7E4B81D21284804F0A9FAD7F8C5
:1054000088001E4907F0EEF806F042FC00950B46B6
:1054100002460C4804F08CFD0521194804F098FA66
:10542000084804F02BFDFB6F23F00203012B9FD0F3
:10543000FFF7EFB8044EFFF753BB034EFEF770BE05
:10544000CC160100CC87FF1F3093FF1F0C17010003
:105450002817010000160100BC160100AC1601005F
:10546000FC160100EC160100DC1601006F12833AF5
:105470008094FF1F5C87FF1F8C1A0100CDCCCC3DB0
:10548000AC1A0100D41A0100F41A0100C894FF1FDD
:10549000EC190100101A0100CC190100B41A010026
:1054A00038B5164C164A2368101D12F8011F904299
:1054B00041EA0323F9D12360124C03F10043236036
:1054C000114BDB6F022B11D0104B1B68012B00D04E
:1054D00038BD0F4804F0D2FC21680D4804F01EFDD1
:1054E00003210C48BDE8384004F032BA20680A4D68
:1054F00007F024F82860FDF709FBE5E74892FF1F55
:105500007794FF1F9494FF1F3093FF1F6094FF1F39
:10551000CC87FF1F6C1E01006492FF1F30B53F4C0B
:105520003F4883B0214601F061FB236840F2C2325C
:10553000934258D06FF4C0615A18B2F5FF7F4CD92E
:1055400003F100436FF4C0621344B3F5FF7F3FD90A
:10555000344B1B68012B01D003B030BD324B1B68AC
:10556000012BF9D1314B32481B6801930A220023E9
:10557000019904F093FC2268284B002ADB7945DB73
:105580002C492D4808F00CF82B4808F039F8014652
:10559000294804F0DDF92568204B15F0804526D117
:1055A000DB798BB1631925491A7A234807F0F8FF94
:1055B000214808F025F801461F4804F0C9F90135D3
:1055C000E379EDB2AB42EDD8194804F057FCC3E7DC
:1055D00012491B48FBF7DAFFBAE710491848FBF7F6
:1055E000D5FF2368ACE7FFF75BFF2368A2E7154D03
:1055F000114C0FCD0FC495E8030044F8040B20466E
:1056000020F81419152104F0A3F9DDE70E490A4822
:1056100022F0604207F0C4FFB6E700BF7094FF1F9E
:1056200070BEFF1F3C87FF1F6094FF1F18C0FF1F45
:10563000CC87FF1F981E01008892FF1FC41E010027
:10564000D494FF1FAC1E0100701E01002DE9F84F1D
:105650009A4B9B4C1B78052B08D09A48FCF70AF90B
:10566000E16A07F05DF9002800F09380964E974DAF
:10567000002333602B60964B92481B68904F012BA0
:1056800045D0FCF7A5F8E1698046606906F0A0FE08
:105690000146404607F062F900284CD18948FCF7E2
:1056A00097F8E16807F05AF908B100232B608548A4
:1056B000834FFCF769F8216907F032F958B10023EC
:1056C00033602B68814A002B01DBBDE8F88F002393
:1056D0001360BDE8F88F7B48FCF756F8B96907F00E
:1056E0001FF90028EBD17748FCF74EF8D7F8B8102F
:1056F0000446B86906F06EFE0146204607F02EF912
:10570000002873D0786E30600028D8DBD9E7FCF72A
:105710005FF8E1698046206A06F05AFE014640467D
:1057200007F01CF90028B9D06648FCF751F8D7F803
:105730002090834605E06348FCF74AF8D7F81490B8
:105740008346F969484606F043FE8246F86D06F046
:10575000F5FE8046386E06F0F1FE414606F038FE52
:1057600051460746584606F033FE0146384606F0D5
:1057700039FF51460746484606F02AFE014638469C
:1057800006F0E4FF414606F025FE07F007F9286021
:1057900084E74C48FCF76EF8216B07F0C1F800284D
:1057A00049D0494E636E47483360FCF763F8814641
:1057B000E06DE76A454D06F0C1FE39468046484631
:1057C00006F006FE0146404606F00CFF39468046CC
:1057D000206B06F0FDFD0146404606F0B7FF0021B4
:1057E00006F0F8FD07F0DAF8286044E73548FBF7E3
:1057F000CBFF8146F86DBC6906F0A0FE21468046CD
:10580000484606F0E5FD0146404606F0EBFED7F8B7
:10581000B8108046204606F0DDFD214606F0D8FD92
:105820000146404606F092FF002106F0D3FD07F046
:10583000B5F8306068E72348FCF71CF8616B07F0A7
:105840006FF830B1204E214D626EE36D32602B60F7
:1058500011E71C48FCF70EF8A16A07F061F8002870
:105860003FF404AF1748184E184DFCF703F8814673
:10587000606ED4F8348006F061FE41460746484623
:1058800006F0A6FD39468146002006F0A1FD01463E
:10589000484606F0A7FE41468146A06A06F098FDFC
:1058A0000146484606F052FF394606F093FD07F0E0
:1058B00075F8E36D30602B60DDE600BF8C94FF1F50
:1058C0003093FF1FD494FF1F9894FF1F5092FF1F27
:1058D0006892FF1F08B5274804F0D0FA0721264830
:1058E00004F036F8112002F035FC0621F8B1234807
:1058F00004F02EF8122002F02DFC062100B32048FF
:1059000004F026F8122002F025FC062108B31D48F9
:1059100004F01EF8132002F01DFC062110BB1A48EB
:1059200004F016F81348BDE8084004F0A7BA174879
:1059300004F00EF8122002F00DFC06210028DED142
:10594000134804F005F8122002F004FC0621002898
:10595000DDD1104803F0FCFF132002F0FBFB062111
:105960000028DCD00C4803F0F3FF0248BDE80840F3
:1059700004F084BACC87FF1FD01E0100D81E01009E
:10598000E81E0100F81E0100101F0100E01E0100CA
:10599000F01E0100001F0100081F010010B5254C7A
:1059A0002368042B27DC01210B2002F0CDFB012111
:1059B0000C2002F0C9FB0121142002F0C5FB0121DB
:1059C000152002F0C1FBFF21162002F03DFAFF2155
:1059D000172002F039FAFF21052002F035FAFF21E5
:1059E000062002F031FA236801330A2B2360C4BF7A
:1059F0000023236010BD00210B2002F0A5FB002135
:105A00000C2002F0A1FB0021142002F09DFB0021DC
:105A1000152002F099FB0021162002F015FA002152
:105A2000172002F011FA0021052002F00DFA0021E2
:105A3000D6E700BFAC94FF1F10B5092182B097488C
:105A400002F09CFE222002F041FE954B1B78052BB4
:105A50000BD8DFE813F00A010F01140119011E0130
:105A6000060007218F4802F089FE222002F02EFE58
:105A7000FF2002F02BFEFF2002F028FE8A4CFF20C0
:105A800002F024FE0821894802F078FE2168884847
:105A900004F044FAFF2002F019FEFF2002F016FE87
:105AA000FF2002F013FE0921824802F067FE216800
:105AB0007F4804F033FAFF2002F008FEFF2002F0D6
:105AC00005FEFF2002F002FE0C217B4802F056FE8C
:105AD0007A4B1C680021204606F040FF002800F0A9
