:1000000000800020BD010000E57900009D7900001E
:100010009D7900009D7900009D7900009D79000088
:100020009D7900009D7900009D790000E579000030
:10003000E57900009D790000F1920000F593000041
:10004000E5790000E5790000E5790000E579000038
:10005000E5790000E5790000E5790000E579000028
:10006000E5790000E5790000E5790000E579000018
:10007000E5790000E5790000E5790000E579000008
:10008000E5790000E5790000E5790000E5790000F8
:10009000E5790000E5790000E5790000E5790000E8
:1000A000E5790000E5790000E5790000E5790000D8
:1000B000E5790000B96D0000C56D0000C96D000054
:1000C000D56D0000D96D0000DD6D0000E579000000
:1000D000E5790000E5790000E5790000E5790000A8
:1000E000E5790000E5790000E5790000E579000098
:1000F000E5790000B5990000E5790000598000001D
:10010000E579000071830000E5790000E5790000E1
:10011000E5790000E5790000E5790000E579000067
:10012000E5790000E5790000E5790000E579000057
:10013000E5790000E5790000E5790000E579000047
:10014000E5790000E5790000E5790000E579000037
:10015000E5790000E5790000E5790000E579000027
:10016000E5790000BD850000E5790000E579000033
:10017000E5790000E5790000E5790000E579000007
:10018000E5790000E5790000E5790000E5790000F7
:10019000E5790000E5790000E5790000E5790000E7
:1001A000E5790000E5790000E5790000E5790000D7
:1001B000E5790000E5790000E5790000564B4CF246
:1001C000205210B51A804DF628121A8000BF00BFC9
:1001D00007F00CFC514B4FF010621A60504A9A60C5
:1001E000504ADA60504A136813F4807304D14F49BF
:1001F0000B604FF4A85313604D4B1A78110703D5C9
:100200001A7842F008021A704A4B4B492A221A7097
:100210004A4A4B4B8B4204D252F8040F43F8040B6A
:10022000F8E7484B484900228B4202D243F8042B9E
:10023000FAE74649464A002352F8230041F82300D2
:1002400001336F2BF8D1434B434A802103F8011B44
:100250009342FBD1414B3D4A1A60414B8A221A70AE
:10026000A3F5805324225A70A0221A709A7992071B
:10027000FCD59A79D406FCD43A4A937903F00C035E
:10028000082B384BF9D103221A7140225A719A79FE
:100290009006FCD5334A9179324B4906FBD5324A58
:1002A000324911600221516020221A709A7902F0BD
:1002B0000C020C2AFAD12E4B2E4A1A602E4B2F4AD2
:1002C0001A6000225A60072243F8042C2C4AC3F813
:1002D0000C2D62B607F040FE144B1B68DA0705D5FB
:1002E000284807F01DFC284B284A1A60284B1B7829
:1002F0005B0609D5244C254B22689A4204D121483B
:1003000007F00EFC002323600BF058FE07F074FB8F
:1003100009F010FAFEE700BF0E20054030800440CF
:10032000823F04000100002B10D0034014D0034092
:1003300002D0074000E007401892FF1F6C1A01002E
:100340002087FF1F1892FF1FF8C2FF1F0082FF1FA8
:100350000000000000E400E05FE400E008ED00E0E1
:100360000050064000400640448004400000030165
:1003700004800440C010050014E000E0FF76010096
:1003800000002020666C4F5C1CE00340A5C3945A1B
:1003900000F00740FFFFFFFFFFFFFFFFFFFFFFFF32
:1003A000FFFFFFFFFFFFFFFFFFFFFFFFFFFFFFFF5D
:1003B000FFFFFFFFFFFFFFFFFFFFFFFFFFFFFFFF4D
:1003C000FFFFFFFFFFFFFFFFFFFFFFFFFFFFFFFF3D
:1003D000FFFFFFFFFFFFFFFFFFFFFFFFFFFFFFFF2D
:1003E000FFFFFFFFFFFFFFFFFFFFFFFFFFFFFFFF1D
:1003F000FFFFFFFFFFFFFFFFFFFFFFFFFFFFFFFF0D
:10040000FFFFFFFFFFFFFFFFFFFFFFFFDEF9FFFF23
:1004100010B5054C237833B9044B13B10448AFF33E
:1004200000800123237010BD1892FF1F0000000000
:10043000681A0100084B10B51BB108490848AFF312
:1004400000800848036803B910BD074B002BFBD0A0
:10045000BDE81040184700BF000000001C92FF1FBD
:10046000681A01001892FF1F00000000F0B400F1AC
:100470001C06104F00243146031F00F13C0243F8D4
:10048000044FB34241F8047F4FF0000542F8044F97
:10049000F5D1094A09490566002345668566C566A2
:1004A000C56702678267416780F8843080F89C30B6
:1004B000F0BC70470000A040000048430000C8C2E4
:1004C0002DE9F04190F89C4084B0202364008DF821
:1004D0000530E4B2042380468DF804408DF80630E0
:1004E0000327204607F0E0FE02210DF1050007F08A
:1004F000E5FE8DF8044001F0C1FB30B3092140480E
:1005000008F090FD0023102221463E4808F08CFFA1
:1005100001213D4808F086FD002310229DF80510BA
:10052000384808F081FF0121374808F07BFD00239F
:1005300010229DF80610334808F076FF012132485A
:1005400008F070FD2F4808F05FFF02208DF804408E
:1005500007F0B4FC01F092FB00284CD102AE00245D
:1005600007F0C2FE70B3072C1FD101E007F0CCFEEC
:1005700007F0BAFE0028F9D101F080FB10B1214844
:1005800008F042FF9DF80B009DF80C109DF80D201F
:100590009DF80E30C8F88800C8F88C10C8F8902074
:1005A000C8F8943004B0BDE8F08107F0ADFE054610
:1005B00006F8010B01F062FB70B9013407F094FEFC
:1005C0000028D0D1072CD3D001F058FB78B9013FD7
:1005D000D8D09DF8044084E7E9B2002310220948EE
:1005E00008F022FF0121084808F01CFDE5E7054856
:1005F00008F00AFFEBE70721044808F013FDADE718
:1006000058010100BC87FF1F7C0801006401010044
:1006100090F88C00704700BF90F88800704700BFCA
:1006200090F89000704700BF90F89400704700BFAA
:10063000082994BF50F82100002070472DE9F041AF
:100640000B4E8046041F00F11C0754F8045F31462E
:1006500028460BF029FC30B1D8F8801028460BF062
:1006600041FC00B12E46BC42EFD13046BDE8F081DE
:10067000000020412DE9F041D0F880704FF00008D3
:10068000041F00F11C0654F8045F394628460BF09D
:1006900029FC084948B128460BF006FC414620B128
:1006A00028460BF01FFC00B1A846B442EBD14046EF
:1006B000BDE8F081000070422DE9F047D0F880706D
:1006C00082464FF00009041F00F11C064FF000089D
:1006D00054F8045F394628460BF004FC0C4950B12D
:1006E00028460BF0E1FB30B1484629460BF036F9BD
:1006F00008F101088146B442EAD1CAF8A080404618
:100700000BF0E0F9014648460BF0E4FABDE8F0874B
:1007100000007042D0F8A000704700BF38B5846E6A
:10072000456E214628460BF0BFFB00B92C462046FB
:1007300038BD00BFD0F898302DE9F041002B79D1B9
:10074000866E456E0446314628460BF007F9E76E83
:10075000394680460BF002F97E490BF0BBFA4FF0A8
:100760007C5104460BF0BEFB002861D04FF07C5159
:1007700028460BF0B7FB4FF07C51002860D128468B
:100780000BF092FB38B14FF07C5130460BF0AAFBD6
:10079000002840F0A7804FF07C5128460BF0A2FBC8
:1007A000002860D14FF07C5128460BF09BFB0028BD
:1007B00040F0A1804FF07C5128460BF093FB0028BD
:1007C0006CD14FF07C5128460BF06EFB4FF07C5102
:1007D00010B330460BF086FB38B14FF07C513846F1
:1007E0000BF062FB002840F0B0804FF07C513046A7
:1007F0000BF05AFB002861D04FF07C5138460BF0CB
:1008000071FB002840F0A38038464FF07C510BF07C
:100810004BFB68B1504C10E028460BF045FB00281C
:10082000E3D128464FF07C510BF03EFB002845D128
:10083000BDE8F08100EB8300046E2046BDE8F08146
:1008400030460BF04FFB4FF07C5100283ED038462D
:100850000BF048FB0028F0D14FF07C5128460BF0FC
:1008600023FB002859D14FF07C5130460BF01CFB84
:10087000002840D04FF07C5138460BF033FB002865
:1008800041D14FF07C5130460BF02CFB68B14FF05A
:100890007C5138460BF008FB00284FD14FF07C51BB
:1008A00030460BF001FB00288BD04FF07C513846CE
:1008B0000BF0FAFA002884D02C46BEE730464FF001
:1008C0007C510BF0F1FA0028B2D09DE728460BF0DE
:1008D000EBFA0028C7D04FF07C5130460BF002FBFA
:1008E0000028C0D04FF07C5138460BF0FBFA0028AE
:1008F0003FF451AF18E04FF07C5130460BF0F2FA64
:100900000028CBD0C3E7394628460BF027F84FF034
:100910007C510BF02BF904468FE74FF07C513846A1
:100920000BF0E0FA00289ED0394630460BF016F85E
:100930004FF07C510BF01AF904467EE740464FF029
:100940007C510BF013F9044677E7344675E73C46D3
:1009500073E700BF000040400000A0C270B504462D
:10096000FFF7E8FE4FF07C510BF0BCFA28B3666E3F
:100970004FF07C5130460BF0B5FAA56EF0B9E46E3D
:100980004FF07C5128460BF0ADFA58B1294630465D
:100990000BF0A8FA30B1214628460BF085FA08B1D1
:1009A0002C4620E04FF07C5120460BF09BFA20B102
:1009B000284621460BF096FA78B970BD3046294694
:1009C0000BF072FAE46E0028DAD0304621460BF0C4
:1009D0006BFA0028D4D0344605E0304621460BF0AF
:1009E00081FA0028E9D0204670BD00BF02292DE918
:1009F000F8438046154600F0A880032972D00129EB
:100A00003FD0866E476E04684046FFF7A7FFD8F8D0
:100A1000701005460BF048FA08B1C8F87050394616
:100A200030460BF05FFA002854D13946D8F87400EC
:100A30000BF03AFA10B13E46C8F8746008F120068F
:100A4000C14608F14005002701E059F8044F30681D
:100A500021460BF047FA0137214628B1D8F880002B
:100A60000BF02CFA00B13460214628680BF01CFA18
:100A7000043600B12C60082F05F10405E5D1BDE86E
:100A8000F883137AC0F8A430D37A907A03EB00206D
:100A90000BF018F846490BF069F8C8F864006B7B56
:100AA0000746287B03EB00200BF00CF840490BF0C5
:100AB0005DF8C8F86800EB7B0646A87B03EB0020D6
:100AC0000BF000F83A490BF051F8D8F80040C8F89C
:100AD0006C0099E7D8F8741030460BF003FA002840
:100AE000AAD1ABE7537A107A03EB00200AF0EAFFB1
:100AF0002F490BF03BF8C8F81000EB7AA87A03EB0B
:100B000000200AF0DFFF2A490BF030F8C8F8140083
:100B10006B7B287B03EB00200AF0D4FF24490BF009
:100B200025F8C8F81800EB7BA87B03EB00200AF03F
:100B3000C9FF1F490BF01AF8D8F86860C8F81C0004
:100B4000D8F86470D8F800405EE7537A107A03EB67
:100B500000200AF0B7FF16490BF008F8C8F80000AB
:100B6000EB7A0446A87A03EB00200AF0ABFF1049A9
:100B70000AF0FCFFC8F804006B7B287B03EB002025
:100B80000AF0A0FF0A490AF0F1FFC8F80800EB7B61
:100B9000A87B03EB00200AF095FF05490AF0E6FF69
:100BA000D8F86860D8F86470C8F80C002CE700BF6B
:100BB0006F12833A2DE9F04F90F89C3091B00746C0
:100BC0005B008DF80830FFF77BFCD7F89000D7F872
:100BD0009440D7F88C30D7F8882097F89C108DE88F
:100BE0001100C94801F050F930223D2303268DF849
:100BF00009208DF80A300DF10A059DF8089049F09A
:100C00000108404607F050FB0DF10900022107F0F2
:100C100055FB8DF80880424602AB00205040082466
:100C200010F0800F4FEA400018BF80F00700013C31
:100C3000C0B2F5D19D4202D013F8012FEEE707F0C4
:100C400033FB01F01BF8002840F07C8202208DF875
:100C5000089007F033F901F011F8002840F0B8824D
:100C60000DF10C0AD146002407F03EFB002843D0CA
:100C7000032C34D101E007F047FB07F035FB0028D7
:100C8000F9D100F0FBFF10B1A04808F0BDFB312303
:100C900003268DF809308DF80A609DF8089049F018
:100CA0000108404607F000FB0DF10900022107F0A2
:100CB00005FB8DF80880424602AB00205040082416
:100CC00010F0800F4FEA400018BF80F00700013C91
:100CD000C0B2F5D19D4228D013F8012FEEE707F0FE
:100CE00013FB09F8010B804600F0C8FF68B9013416
:100CF00007F0FAFA0028BBD1032CBED000F0BEFFEB
:100D000078B9013E7FF479AFC1E75FFA88F100233B
:100D100010227E4808F088FB01217D4808F082F906
:100D2000E5E77A4808F070FBEBE707F0BDFA00F062
:100D3000A5FF002840F0C58102208DF8089007F03B
:100D4000BDF800F09BFF002840F03D820DF10C093A
:100D5000002407F0C9FA002844D0032C35D101E063
:100D600007F0D2FA07F0C0FA0028F9D100F086FFA8
:100D700010B1664808F048FB342201238DF80920A1
:100D80008DF80A3003269DF8089049F00108404686
:100D900007F08AFA0DF10900022107F08FFA8DF8A9
:100DA0000880424602AB00205040082410F0800F1B
:100DB0004FEA400018BF80F00700013CC0B2F5D1F7
:100DC0009D4228D013F8012FEEE707F09DFA09F8AD
:100DD000010B804600F052FF68B9013407F084FA35
:100DE0000028BAD1032CBDD000F048FF78B9013EED
:100DF0007FF453AFC0E75FFA88F100231022434825
:100E000008F012FB0121424808F00CF9E5E73F48E1
:100E100008F0FAFAEBE707F047FA00F02FFF002896
:100E200040F00E8102208DF8089007F047F800F09E
:100E300025FF002840F0D6810DF10C09002407F0B1
:100E400053FA002800F08480032C72D101E007F0EF
:100E50005BFA07F049FA0028F9D100F00FFF10B152
:100E60002A4808F0D1FA012212238DF809208DF8C2
:100E70000A304FF003089DF80840204607F014FAA6
:100E800002210DF1090007F019FA8DF8084000F071
:100E9000F5FE30B309211F4808F0C4F800231022E2
:100EA00021461A4808F0C0FA0121194808F0BAF89A
:100EB000002310229DF80910144808F0B5FA01210A
:100EC000134808F0AFF8002310229DF80A100F48CD
:100ED00008F0AAFA01210E4808F0A4F80B4808F01F
:100EE00093FA06208DF8084006F0E8FF00F0C6FEF1
:100EF000002840F0728103AD002607F0F5F90028C4
:100F00003FD0162E2FD109E06C010100BC87FF1FD6
:100F10007C0801005801010007F0F6F907F0E4F938
:100F20000028F9D100F0AAFE162600287DD1152050
:100F300035E007F0E9F909F8010B804600F09EFE64
:100F400000285BD1013407F0CFF900287FF47CAF93
:100F5000032C3FF47EAF00F091FE00286CD1013EDF
:100F60007FF411AF7FE707F0CFF905F8010B0446D6
:100F700000F084FE00284DD1013607F0B5F90028B5
:100F8000BFD1162ECAD000F079FE00284DD1B8F19D
:100F900001087FF470AF701E002840F31E8200230A
:100FA00003AA1C4612F8011B08254C4014F0800FC0
:100FB0004FEA440418BF84F00704013DE4B2F5D1C0
:100FC00001338342EEDB9DF8218089484146224669
:100FD00000F05AFF162EC146A34602D1A04500F0EC
:100FE000138197F89C108348CDF800B04B463246E9
:100FF00000F078FF002011B0BDE8F08F5FFA88F1B3
:10100000002310227C4808F00FFA01217B4808F0E9
:1010100009F897E7E1B200231022774808F004FAB4
:101020000121764807F0FEFFA6E7734808F0ECF9C7
:10103000162EACD11520B2E76F4808F0E5F98EE71F
:1010400009216F4807F0EEFF2346102241466A4807
:1010500008F0EAF90121694807F0E4FF234610226D
:101060009DF80910644808F0DFF90121634807F092
:10107000D9FF102223469DF80A105F4808F0D4F9E2
:1010800001215E4807F0CEFF21460DF10B0002AAB8
:1010900012F8014B6140C9B2082311F0800F4FEAEA
:1010A000410118BF81F00701013BC9B2F5D190425F
:1010B000EED11022504808F0B7F94F4808F0A4F9D3
:1010C000B0E609214E4807F0ADFF23461022414605
:1010D000494808F0A9F90121484807F0A3FF234631
:1010E00010229DF80910444808F09EF90121434858
:1010F00007F098FF102223469DF80A103E4808F09A
:1011000093F901213D4807F08DFF21460DF10B00B9
:1011100002AA12F8014B6140C9B2082311F0800FF6
:101120004FEA410118BF81F00701013BC9B2F5D177
:101130009042EED11022304808F076F92E4808F09F
:1011400063F9F9E509212E4807F06CFF23461022C8
:101150004146294808F068F90121284807F062FF54
:10116000234610229DF80910234808F05DF901215B
:10117000224807F057FF102223469DF80A101E4808
:1011800008F052F901211D4807F04CFF21460DF1EE
:101190000B0002AA12F8014B6140C9B2082311F0FA
:1011A000800F4FEA410118BF81F00701013BC9B22E
:1011B000F5D19042EED110220F4808F035F90E48D3
:1011C00008F022F942E507210E4807F02BFFBDE5A4
:1011D00007210C4807F026FF42E50721094807F0E0
:1011E00021FF88E60721074807F01CFF24E600BF1F
:1011F000A0010100EC010100BC87FF1F7C08010079
:1012000058010100640101009DF80C3097F89C2002
:10121000B3EB420F7FF4EEAE9DF80D30012B7FF45F
:10122000E9AE9DF80E30122B7FF4E4AE9DF810303D
:101230009DF80F0003EB00200AF044FC6F490AF010
:1012400095FCF96F386604460AF04CFE00B1FC6765
:10125000B96F20460AF028FE00B1BC67A7F1040967
:1012600007F1200607F140054FF008089AF806300C
:101270009AF8050003EB00200AF024FC60490AF00C
:1012800075FC49F8040F316804460AF00DFE0AF1B6
:10129000020A30B1D7F8801020460AF019FE00B1DA
:1012A0003460296820460AF01DFE043600B12C6027
:1012B000B8F1010805F10405D8D19DF81E309DF85C
:1012C0001D0003EB002002300AF0FCFB4D490AF040
:1012D00001FD01464C480AF0FDFC4C490AF03CFB7C
:1012E0004B490AF043FC054608F0AEFC044628468C
:1012F00008F0AAFC474908F019FD47490546204671
:101300000AF034FC45490AF029FB454904462846C1
:101310000AF02CFC014620460AF020FB01464FF063
:101320007E500AF0D7FC3F490AF016FB9DF81F20BB
:101330009DF82030786603EB022009300AF0C2FBEA
:1013400039490AF0C7FC01462F480AF0C3FC2F496F
:101350000AF002FB2E490AF009FC054608F074FC6D
:101360000446284608F070FC2A4908F0DFFC2A49A8
:10137000054620460AF0FAFB28490AF0EFFA284908
:10138000044628460AF0F2FB014620460AF0E6FA37
:1013900001464FF07E500AF09DFC22490AF0DCFA2B
:1013A000B86604463846FFF7D9FA396F05460AF0A1
:1013B0007BFD00B13D677D6E204629460AF092FD17
:1013C000A0B92946786F0AF06FFD08B12C467C67FA
:1013D000164800F059FD01200DE69DF821901448B3
:1013E00049464246C34600F04FFDFAE5796F204674
:1013F0000AF078FD0028EAD1EAE700BF1357053B61
:101400002003C839001601470AD7E33FE17A644058
:1014100000007A4400004040A40D8F395A80473ABA
:1014200046A6DB3333938843002C0147C4010100F7
:10143000A00101002DE9F8430026D0F8808006665F
:101440008146044600F1200754F8045B41462846D3
:101450000AF048FD084950B128460AF025FD30B190
:10146000304629460AF07AFA0646C9F86000BC42BE
:10147000EAD13046BDE8F8830000704202299ABFE5
:1014800000EB8100406E0020704700BF3E2998BFEE
:1014900080F89C10704700BF90F88400704700BF30
:1014A000C0F89810704700BF80F88410704700BFE4
:1014B00030B5C0F8801083B0084609F0ADFE074C87
:1014C000022502460B460095204607F0F5FF204610
:1014D00003B0BDE8304007F097BF00BFBC87FF1FD7
:1014E00070B500F525550646383500F12004204634
:1014F000A834FEF7BBFFAC42F9D106F1C8050124C0
:1015000028460021FFF7D0FF214628460134FFF787
:10151000BDFF3F2C05F1A805F2D106F52653064A7A
:101520003261002405480649B06100227461F1610E
:1015300030461A7070BD00BF00007A440000484376
:101540000000C8C242F684132DE9F041002200F5E4
:10155000255600F526578046C2503836043700F12C
:10156000C80402E0A834B4420DD02046FFF794FF2F
:101570000028F7D020463D68FFF7CCF8A83428446F
:10158000B4423860F1D142F6841358F80300BDE844
:10159000F08100BFF8B50E46096801F47F650029A7
:1015A0000446A5F5C06511DB2D0901F00F07A8233E
:1015B00003FB0544203420460121FFF775FF324626
:1015C00039462046BDE8F840FFF710BA0A4801F056
:1015D0000F0707F019FF1221084807F023FD3168B3
:1015E000054801F0004100230A2207F01DFF0248D0
:1015F0002D0907F009FFDAE7BC87FF1F3C02010055
:10160000704700BF704700BF2DE9F0430446002338
:1016100083B0064644F8C83B012504E001353F2D60
:1016200004F1A80469D02046FFF736FF0028F5D062
:101630004D4800F029FC29464C4800F025FC204686
:10164000FFF7B8FA2046FFF7F5FE09F0E5FD024680
:101650000B46474800F018FC2046FEF7EFFF804697
:101660002046FFF707F80746404609F0D5FD8046BB
:101670003846894609F0D0FD42464B46CDE9000187
:101680003C4800F001FC00212046FFF7F7FE012155
:1016900080462046FFF7F2FE0746404609F0BCFDB3
:1016A00080463846894609F0B7FD42464B46CDE9AB
:1016B0000001314800F0E8FB2046FFF7BBFE014681
:1016C00030680AF04BF930602046FFF747F9B169FE
:1016D0000AF0EAFB002831D12046FFF71FF8F16934
:1016E0000AF000FC002899D02046FFF717F80135D2
:1016F0003F2DF06104F1A80495D170680AF0E2F979
:10170000014630680AF0E6FA7169306004460AF072
:10171000E9FB00B17461316920460AF0C5FB00B1F4
:1017200034610B2006F094FB06F52656337850B949
:101730007BB10123337003B0BDE8F0832046FFF78F
:101740000DF9B061C8E743B90023337003B0BDE8B9
:10175000F0830A4800F0C6FBEBE7094800F0ACFB59
:1017600000233370F2E700BF38040100500201008B
:101770008C020100A0020100CC020100E80201007D
:101780002003010070B5114B836000F52555064616
:10179000383500F1C80402E0A834AC4213D020462A
:1017A000FFF77AFE0028F7D02046FEF747FFB16822
:1017B0000AF07AFB0028EFD02046FEF73FFFA8345E
:1017C000AC42B060EBD1B06870BD00BF0000A0407B
:1017D00070B5002300F525550646C360383500F185
:1017E000C80402E0A834AC4213D02046FFF754FEF0
:1017F0000028F7D02046FEF73DFFF1680AF072FBA3
:101800000028EFD02046FEF735FFA834AC42F06048
:10181000EBD1F06870BD00BF006870474160704751
:10182000F8B50F46164600F1C804012504E001355D
:101830003F2D04F1A8041BD02046FFF72DFE002801
:10184000F5D029460B4807F02FFE0A4807F0DCFDCB
:10185000782007F06BFC20463946FFF721FE013562
:1018600020463146FFF724FE3F2D04F1A804E3D1C2
:10187000F8BD00BFBC87FF1F2DE9F84300F52555D3
:1018800042F67C132E4600278146C7504FF00008D1
:1018900038353C3600F1C80402E0A834AC4213D01D
:1018A0002046FFF7F9FD0028F7D033680133336095
:1018B0002046FEF73FFF0F490AF014FB88B9A83411
:1018C000AC4207F10107EBD142F67C1359F8030053
:1018D000C01B0AF0F7F8014640460AF0FBF9BDE8E4
:1018E000F8832046FEF726FF014640460AF036F808
:1018F0008046D2E700008CC2F8B500F525550746B2
:101900000026383500F1C80402E0A834AC420FD0FC
:101910002046FFF7C1FD0028F7D02046FEF7CCFE99
:10192000014630460AF01AF8A834AC420646EFD118
:1019300042F67C13F8580AF0C5F8014630460AF022
:10194000C9F9F8BD2DE9F04F06468FB083488B46A4
:1019500000F042FA814800F03FFA804800F03CFA7B
:1019600042F67C133046F2580D92FFF7EBFD736898
:101970000C930746306809F04FFC80463046894694
:10198000FFF7BAFF82463046B468F568FFF774FF88
:1019900009F042FCCDE90A012146284609F0DCFFA6
:1019A0006F490AF0E3F809F037FCCDE90801284651
:1019B00009F032FCCDE90601204609F02DFCCDE905
:1019C0000401504609F028FC0D9A0C9BCDE9020158
:1019D000CDE90089114663483A4600F0FDF95F48B9
:1019E00000F0FAF9C8364FF001084FF0000A07E09E
:1019F00008F10108B8F13F0F06F1A80600F0A58034
:101A00003046FFF749FD0028F2D03046FEF700FED1
:101A10003046FEF701FE3046FEF702FE3046FEF786
:101A200003FE0821504807F0FDFA41464F4807F0F1
:101A30003BFDB8F1090F40F38B8002214C4807F0C1
:101A4000F1FA3046FFF7F6FC09F0E6FB5FFA8BF996
:101A500002460B46CDF80090444807F02DFD0121C9
:101A6000444807F0DFFA5546002420E006214248AA
:101A700007F0D8FA29463D4807F016FD02213F48F5
:101A800007F0D0FA21463046FEF7D2FD09F0C4FB3C
:101A9000CDF8009002460B46344807F00DFD0134A6
:101AA0000121344807F0BEFA082C09D03D46092D23
:101AB00005F10107DADC0121314807F0B3FAD5E777
:101AC0002A4807F0A1FC09212E4807F0ABFA0021B3
:101AD0003046FFF7D3FC09F09FFB022402460B4679
:101AE0000094224807F0E8FC0A21274807F09AFAF8
:101AF00001213046FFF7C2FC09F08EFB009402463C
:101B00000B461A4807F0D8FC0A21204807F08AFA49
:101B100021463046FFF7B2FC09F07EFB00940246F6
:101B20000B46124807F0C8FC0121194807F07AFA61
:101B300008F101080D4807F067FCB8F13F0F0AF102
:101B4000080A06F1A8067FF45BAF0FB0BDE8F08F7E
:101B500001210B4807F066FA6FE700BF3804010067
:101B600000007A44D005010070060100BC87FF1F09
:101B70005C1401007C060100800601006C08010075
:101B80007C0801008806010094060100A0060100FF
:101B9000AC0601002DE9F04100F1C80582B0012733
:101BA00004E001373F2F05F1A80559D02846FFF77B
:101BB00073FC0028F5D039462B4807F075FC01214D
:101BC0002A4807F02FFA00244FF002082146284641
:101BD000FEF72EFD09F020FBCDF8008002460B46F3
:101BE000214807F069FC01340121204807F01AFA66
:101BF000082C4FF00206E9D100212846FFF73EFCF1
:101C000009F00AFB009602460B46174807F054FC01
:101C10000121164807F006FA01212846FFF72EFC9D
:101C200009F0FAFA009602460B460F4807F044FC0A
:101C300001210E4807F0F6F931462846FFF71EFC51
:101C400009F0EAFA009602460B46074807F034FC12
:101C50000137054807F0D8FB3F2F05F1A805A5D1AE
:101C600002B0BDE8F08100BFBC87FF1FB0060100D5
:101C7000014B1870704700BF2087FF1F024B187878
:101C8000B0FA80F0400970472087FF1F0278002AD1
:101C900000F0908070B5034682B00D46252A2AD107
:101CA00058785C1C08B325282FD0732831D06428BD
:101CB00024D0692822D066284FD07A2859D0782895
:101CC00035D058282FD062283ED0422838D06C28F2
:101CD00014D0632812D0742857D054285FD007F04E
:101CE00025FA6278631C002AD8D1344802B0BDE8D6
:101CF000704007F089BB18781C46F0E72B1D296857
:101D00002E481D4607F0D0FBEBE7104607F00EFA11
:101D1000E7E72E6830460AF033FF014630460435C7
:101D200007F080F9DDE70221254807F07BF92E1D39
:101D30002968224800231022354607F075FBD0E7BA
:101D40000221204807F06EF92E1D29681B48002348
:101D50000222354607F068FBC3E7073525F0070583
:101D60000321D5E9002315480091083507F0A4FBAD
:101D7000B7E7073525F007050021D5E900230F480F
:101D80000091083507F098FBABE7296801290EBFE1
:101D90000D480E480121043507F044F9A1E72B68EE
:101DA000012B07BF04210A480A480521043507F022
:101DB00039F996E7014807F027BB00BFBC87FF1F32
:101DC000B4060100B8060100BC060100C00601000F
:101DD000C4060100CC0601000FB400B583B004A90D
:101DE00051F8040B0191FFF751FF03B05DF804EBCC
:101DF00004B0704770B51B4B1B4C1B6882B00D467E
:101E00000193019B23601946044600231646174898
:101E10000A2207F009FB0321154807F003F9032CF8
:101E200007D8DFE804F01A1510020521114807F061
:101E3000F9F80221104807F0F5F831462846FFF777
:101E400025FF02B070BD07210C4807F0EBF8F0E762
:101E500004210B4807F0E6F8EBE70521094807F0F5
:101E6000E1F8E6E700C0FF1F3492FF1FBC87FF1FA9
:101E7000D4060100F00601006C080100E80601002C
:101E8000E0060100D80601000FB400B5094B187830
:101E900083B020B103B05DF804EB04B0704705AB2C
:101EA0001A4604990193FFF7A5FF03B05DF804EB10
:101EB00004B070472087FF1F0FB4094B00B51B7893
:101EC000012B83B004D903B05DF804EB04B0704774
:101ED00005AB1A46049901930120FFF78BFFF2E747
:101EE0002087FF1F0FB40B4B00B51B78032B83B06B
:101EF00004D903B05DF804EB04B0704705AB1A4693
:101F0000049901930320FFF775FF03B05DF804EB1C
:101F100004B070472087FF1FF8B53948394F3A4D54
:101F20003A4E3B4CFFF758FF3A4B3B4A3B483C4943
:101F30005A60D8603B4A1F6100203B4F59615D6287
:101F40003A499E614FF07C55394E9C62394CDA62B9
:101F500018630C2238485F639963384F5D6440F61C
:101F60001C410A259E64DC6441F204065A241A6569
:101F7000186202220120C3F8B8709966304FDD66FE
:101F8000002164251E675C674FF4967632245A70F0
:101F90005A7218725865DF61DF6383F840105E661D
:101FA000DE651C664FF47A7E9D65264F9967264E46
:101FB000DA67C3F88010C3F89440C3F8A040C3F8B0
:101FC0009C10FF2441F28831C3F8A800C3F8AC206C
:101FD000052040F2D662C3F8B050C3F898E0C3F8C9
:101FE0008870C3F88C60C3F8A440A3F8B600C3F8A7
:101FF0009010A3F8B410A3F88420A3F88620F8BDAD
:10200000F806010000004040CDCCCC3DCDCC4C408A
:10201000000082422093FF1F20A1070066668640D1
:1020200033338340000020C1000020420000A04064
:102030009A9979400AD7233D333373409A99993E50
:10204000CDCC4C3E0000684200C02044F0B54FF4B7
:102050007A6085B005F032FF00210F2005F006FF01
:1020600000210E2005F002FF0021112005F0FEFEE8
:102070000021102005F0FAFE0021122005F0F6FEE6
:102080000021132005F0F2FE01210B2005F0EEFEE9
:1020900001210C2005F0EAFE0121142005F0E6FEE6
:1020A0000121152005F0E2FE0121162005F0DEFEDB
:1020B0000121172005F0DAFE0121052005F0D6FEEA
:1020C0008E4C8F4D0121062005F0D0FE01210D2000
:1020D00005F0CCFE208809F0F1FC0146162005F041
:1020E0002FFE208809F0EAFC0146172005F028FEA3
:1020F000208809F0E3FC0146052005F021FE208838
:1021000009F0DCFC00240146062005F019FE0094CD
:1021100023467C4A7C497D4804F0F6FAE6B2324612
:1021200077497A4804F09EFA2B79754977486FF31E
:102130000003013432462B7104F08AFA082CEDD1E9
:102140000924E6B232466E49704804F08BFA2B79C6
:102150006B496E4843F00103013432462B7104F0A1
:1021600077FA0D2CEDD16A4C4FF0FF322068102128
:1021700004F096FE20684FF0FF32102104F068FE54
:1021800020684FF0FF32022104F076FE20684FF005
:10219000FF32022104F07AFE00220F21206804F0B1
:1021A00089FE0C215B4806F03DFF5B4807F02CF9E7
:1021B00014215A4806F036FF574807F025F95648CB
:1021C00007F022F91721564806F02CFF524807F075
:1021D0001BF9544B1B789A0600F1BE80514B1B78BB
:1021E0001B0700F1C5804F4B1B785F0700F1CC80C7
:1021F0004C4B1B789E0700F1D3804B4B1B781D0680
:1022000000F1DA80484B1B785C0600F1E180464B18
:102210001B78980600F1E880434B1B78590700F1C2
:10222000EF80414B1B781A0700F1F6803E4B1B787C
:102230009B0700F1FD80384807F0E6F872B63B4A8C
:102240004CF220534DF62811202413802346118090
:10225000013BFDD1364D3748374900234FF48056B6
:102260002E8003800B8032F80E3C9BB243F0D303E8
:1022700022F80E3C62B69D2005F0C6FF21462F488D
:102280002F4D06F0CFFE244807F0BEF805F1BC063E
:102290002F462C46601B05F0EFFA04F8010BB44200
:1022A000F8D13B78102B01D0FFF736FE2548FFF719
:1022B000A9F90420FFF7DCFC234B224800221A6016
:1022C000FFF79EF901210D2005F0BCFD796D1D4839
:1022D000FFF7A4FA7A6C97F840101A48FFF7A0FAB3
:1022E0001A4B1B491A68039203981B680293029ABF
:1022F000184B08601A6005B0F0BD00BF2887FF1FAB
:10230000E493FF1FF4BFFF1F20A1070058BEFF1F6B
:102310009094FF1F18070100BC87FF1F28070100CA
:102320004007010001F0074000F007400E20054083
:102330000420054006200540162005404408010001
:102340002093FF1FC494FF1F4892FF1F00C0FF1F70
:10235000C094FF1FEC93FF1F2121394806F062FE55
:10236000384807F051F8384B1B781B077FF53BAF17
:102370000C21364806F056FE324807F045F8324B3D
:102380001B785F077FF534AF0E21314806F04AFE17
:102390002C4807F039F82C4B1B789E077FF52DAFA2
:1023A00017212C4806F03EFE264807F02DF82A4B50
:1023B0001B781D067FF526AF0E21284806F032FE59
:1023C000204807F021F8244B1B785C067FF51FAFEF
:1023D0001221234806F026FE1A4807F015F81E4B76
:1023E0001B7898067FF518AF13211E4806F01AFED9
:1023F000144807F009F8184B1B7859077FF511AFFF
:102400001C21194806F00EFE0E4806F0FDFF124B87
:102410001B781A077FF50AAF1921144806F002FE4F
:10242000084806F0F1FF0C4B1B789B077FF503AFC4
:1024300018210F4806F0F6FD024806F0E5FFFAE61F
:1024400058070100BC87FF1F01F007407C0701000F
:102450008C0701009C07010000F00740B407010051
:10246000C4070100D8070100EC0701000C080100B7
:102470002808010070B5464C464D4748E6680023E1
:102480002B70FFF7A5F90146304609F00DFD08B1A4
:1024900004232B704048FFF775F9216909F004FD0A
:1024A00018B12B7843F010032B703B48FFF7E4F989
:1024B000A16A09F017FD18B12B7843F040032B7087
:1024C000002335486B70FFF7D7F9E16A314E09F008
:1024D000EBFC08B10123737000232F48EB70FFF76A
:1024E00077F905462C482B4EFFF74CF90146284654
:1024F00009F032FAE16B09F0F5FC08B10123F37041
:10250000264D254800232B70FFF762F9616A0646C5
:10251000E06809F021FA0146304609F0E3FC08B111
:1025200004232B701C48FFF72DF9616A06462069C9
:1025300009F014FA0146304609F0B6FC18B12B78C0
:1025400043F010032B701448FFF796F9A16B064671
:10255000A06A09F001FA0146304609F0C3FC18B13F
:102560002B7843F040032B7000230B486B70FFF770
:1025700083F9A16B0546E06A084C09F0EFF90146C2
:10258000284609F091FC08B10123637070BD00BFBB
:102590002093FF1F1C93FF1FC494FF1F8094FF1FF5
:1025A0002DE9F0417C4C2368012B82B031D0022B05
:1025B00000F0A880032B00F0C8803BBB774B784A23
:1025C000D3F8A010D3F8A43012685B1A632B0EDD89
:1025D000744803FB02F380FB0302DB17C3EB6213B7
:1025E0001944062002B0BDE8F04105F0ABBA6E48D0
:1025F00003FB022380FB0302DB17C3EB221211440F
:10260000062002B0BDE8F04105F09CBA02B0BDE87A
:10261000F081664E33680A33B3F57A7F00F3B780F2
:102620001846336009F04EFA614909F09FFA804676
:102630005A4DD5F8A00009F045FA0746D5F8A40090
:1026400009F040FA394609F087F9414609F08EFA57
:10265000584909F03FFB394609F080F909F062FC5E
:102660000146062005F06EFA0221534806F0DAFC16
:10267000524806F0C9FE0621514806F0D3FC3068E6
:1026800009F020FA4A4909F071FA08F0C5FD02275D
:1026900002460B460097494806F00EFF0D214948B7
:1026A00006F0C0FCD5F8A00009F00CFA80463068AE
:1026B00009F008FA3E4909F059FA0646D5F8A4008F
:1026C00009F000FA414609F047F90146304609F0A1
:1026D0004DFA384909F0FEFA414609F03FF908F091
:1026E0009BFD00970B460246344806F0E5FE39464E
:1026F000314806F097FC314806F086FE2368022B2D
:102700007FF458AF294B254E00221A60D6F8A0005E
:1027100009F0D8F90546D6F8A40009F0D3F92946FE
:1027200009F01AF9002109F021FA224909F0D2FA38
:10273000294609F013F909F0F5FB0146062005F0DA
:1027400001FA2368032B7FF438AF184B134E4FF474
:102750007A721A60D6F8A00009F0B4F90546D6F8E6
:10276000A40009F0AFF9294609F0F6F8114909F07B
:10277000FDF9104909F0AEFA294609F0EFF809F021
:10278000D1FB0146062005F0DDF9236815E700239B
:102790004FF0000833604BE77094FF1F2093FF1F3A
:1027A0003487FF1F1F85EB51CBF08D284C92FF1F04
:1027B000CDCCCC3D0000C8425C140100BC87FF1F9B
:1027C000680801007008010070B5A248A24C06F02C
:1027D0001BFEA04806F018FE9E4806F015FE0D21CF
:1027E0009E4806F01FFCD4F89C30012B11D09C4C65
:1027F0009848217800230A2206F016FE2378052B3C
:1028000067D8DFE813F0E900EE00F300F800FD0000
:10281000E4000921934806F005FC9348FEF7B2FF57
:10282000216909F041FB18B10F21904806F0FAFB2D
:102830008D48FEF7CDFFE16809F054FB18B10E2179
:102840008B4806F0EFFB8848FEF7C2FF0546864836
:10285000FEF798FF0146284609F07EF8E16B09F083
:1028600041FB18B11121834806F0DCFB7E48FFF7DD
:1028700003F8A16A09F036FB18B10C217E4806F076
:10288000D1FB7948FEF7F8FFE16A09F00DFB18B1BA
:102890000D217A4806F0C6FB794B73481B68012B63
:1028A00000F0C280FEF76EFF21696B4D09F01AFB44
:1028B00078B16D48FEF78CFFE96809F0F5FA40B190
:1028C000674B1B78052B00F0C08008216D4806F08F
:1028D000A9FB02216C4806F0A5FB122005F0B8FA0E
:1028E000012800F09C80112005F0B2FA012800F0C8
:1028F0009180664B1B68012B00F0878002216248A3
:1029000006F090FB624B5348196806F0CDFD514824
:1029100006F07AFD04215F4806F084FB0B2005F0E9
:1029200097FA002301460A224A4806F07DFD0C2052
:1029300005F08EFA002301460A22464806F074FD8F
:10294000142005F085FA002301460A22414806F0CA
:102950006BFD152005F07CFA002301460A223D4854
:1029600006F062FD06214C4806F05CFB4B4B3948F3
:1029700019680222002306F057FD0421484806F09A
:1029800051FB112005F064FA002301460A22314868
:1029900006F04AFD102005F05BFA002301460A22EA
:1029A0002C4806F041FD122005F052FA00230146A2
:1029B0000A22284806F038FD132005F049FA0023C2
:1029C00001460A222348BDE8704006F02DBD0721CC
:1029D000344806F027FB7CE70621334806F022FB4B
:1029E00077E70721314806F01DFB72E707213048E1
:1029F00006F018FB6DE708212E4806F013FB68E788
:102A00000B212D4806F00EFB63E711212B4806F041
:102A100009FB73E70A212A4806F004FB69E70E2147
:102A2000284806F0FFFA5EE7FEF7ACFE216A09F0DF
:102A300059FA00283FF449AF1621234806F0F2FA6C
:102A40000A21224806F0EEFA43E70A211F4806F061
:102A5000E9FA3EE7BC87FF1F2093FF1F80080100B3
:102A60007C94FF1F90080100C494FF1F9C08010084
:102A7000AC080100BC080100D0080100E00801001A
:102A80005892FF1F140901005C1401009894FF1F65
:102A90007494FF1F8809010090090100DC93FF1F57
:102AA00098090100500901002009010028090100CE
:102AB0003C090100440901003009010074090100CA
:102AC0006809010058090100F00801000809010027
:102AD0002DE9F04F934C944FE36F012B8DB000F034
:102AE0004981032B50D0914E914DA36F9148012BFA
:102AF00009BF2968296801F10041296004F0AEFD91
:102B00003368002B40F0CE808A4804F07DFDE36FEF
:102B10003860012B064600F0D280874909F0E2F9BF
:102B200078B98649304609F0BFF950B9844A854BD7
:102B300012680B920B9A1A6000232B600DB0BDE84F
:102B4000F08FDFF8FC817F4CD8F800300A930A98A8
:102B500023687D4FC01A08F0B1FF314609F006F82E
:102B60007A4909F0B7F8794909F0B4F8396808F0FA
:102B7000F5FED8F800300993099B236000233860E4
:102B80002B600DB0BDE8F08FDFF8C881704DD8F82C
:102B90000000664E012300220F212B6004F08AF909
:102BA0002B68012B336800F00381002B40F0A681D5
:102BB0000021D8F80000DFF8B891664D04F0CCF998
:102BC00033681FFA80FBC9F800B0002B40F07B810E
:102BD0000021D8F80000564DDFF878A104F042F942
:102BE000B4F8863040F6E44101FB0BF1B1FBF0F0A4
:102BF000C01A00B208F066FF57498346D4F888002F
:102C000008F0B4FF0146584609F064F8D9F80030DE
:102C10002860632BDFF858B100F3498100232B6053
:102C20003368002B3FF461AF02214C4806F0FAF9FB
:102C3000D9F80020D8F8000040F6E443002103FB57
:102C400002F804F00FF9B8FBF0F008F037FF804607
:102C5000B4F8860008F036FF0146404608F07CFED6
:102C600008F0DAFA4FF0020802460B46CDF8008071
:102C70003B4806F021FC4146384806F0D3F9286865
:102C800008F0CAFACDF8008002460B46344806F038
:102C900013FC4146334806F0C5F941462F4806F07B
:102CA000C1F922E7234804F0AFFC08F0B5FA022688
:102CB00002460B4600962A4806F0FEFB24E7244B0A
:102CC0001B68012B00F02681022B7FF435AF2649CB
:102CD00009F008F930B92549304609F0E5F800282F
:102CE00000F04781DFF85880164CD8F80030079381
:102CF00007982368144FC01A08F0E0FE314608F028
:102D000035FF124908F0E6FF104908F0E3FF396883
:102D100008F024FED8F800300693069B3860236044
:102D20000AE700BF2093FF1F6492FF1FBC94FF1FA0
:102D30005492FF1FF892FF1F0000FA430000FAC3ED
:102D400000C0FF1F8C94FF1F7092FF1F00007A4489
:102D50005087FF1F9094FF1F17B7D1385C140100F4
:102D6000BC87FF1FDC09010000C82F4800A08CC6EB
:102D70001893FF1F3D689849284609F095F830B12F
:102D80002846964909F0AEF800287FF4FDAEDFF83A
:102D90005882934DD8F80000924E022300220E2153
:102DA0002B6004F087F82B68012B33687FF4FDAEAD
:102DB000002B40F000810021D8F80000DFF86C9271
:102DC000894D04F0C9F833681FFA80FBC9F800B0D8
:102DD000002B40F0D5800021D8F80000834D04F08E
:102DE00041F8B4F8843040F6E44A0AFB0BFBBBFB25
:102DF000F0F0C01A00B208F065FE7D498346D4F8B1
:102E00008C0008F0B3FE0146584608F063FFD9F87D
:102E1000003028600021D8F800000AFB03FA04F013
:102E200021F8B4F88430BAFBF0F00FFA80FAC3EB63
:102E30000A03002BB4F8B620B8BF5B429342BCBF74
:102E400000232B603368002B3FF44FAE022169480A
:102E500006F0E8F8D9F80020D8F8000040F6E4437E
:102E6000002103FB02F803F0FDFFB4F88410B8FB67
:102E7000F0F000B2411A604806F016FB02215D48EE
:102E800006F0D0F8286808F0C7F94FF002080246AB
:102E90000B46CDF80080584806F00EFB032157483A
:102EA00006F0C0F84146534806F0BCF81DE6DAF8D3
:102EB0000000002103F0D6FFDBF8003064389842B0
:102EC000FFF4ACAEACE60021286803F0CBFF40F67F
:102ED000E44100230A2201FB0BF1B1FBF0F146486B
:102EE00006F0A2FA0221434806F09CF8B4F88610D6
:102EF000414806F0D9FAD9F800B069E63E4806F034
:102F000083FA0C213E4806F08DF80C213D4806F06E
:102F100089F84DE63C4908F0E5FF58B93B49304691
:102F200008F0C2FF30B93A4A3A4B12680592059A46
:102F30001A6001E6DFF8D880364CD8F800300493E8
:102F400004982368344FC01A08F0B8FD314608F0E1
:102F50000DFE324908F0BEFE304908F0BBFE39686C
:102F600008F0FCFCD8F800300393039B3860236022
:102F7000E2E5274A274B12680892089A1A60DBE5B7
:102F80000021286803F06EFF40F6E44100230A2286
:102F900001FB0BF1B1FBF0F1174806F045FA0121F6
:102FA0001F4806F03FF8B4F88410134806F07CFA86
:102FB000D9F800B00FE7104806F026FAE36F012BAE
:102FC0004FF00B010CBF1748174806F02BF80C21E7
:102FD0000C4806F027F8EEE600709446007094C6A0
:102FE0005087FF1FBC94FF1F9094FF1F5492FF1F38
:102FF00017B7D1385C140100BC87FF1FC809010056
:10300000CC090100B80901000000FA430000FAC32E
:1030100000C0FF1F8C94FF1F7092FF1F00007A44B6
:103020007C080100A0090100AC0901001893FF1FF2
:103030002DE9F047B24D2B6884B0002B7ED0B14C07
:10304000DFF8C882B04EE36FAE4D012B00F08F80E9
:10305000D4F88030AB4F012B00F0BC80D6F8009044
:10306000D7F858A07D6DA94F05FB0AF54FF47A708B
:1030700000FB05F008F026FDA5490546484608F086
:1030800075FD294608F026FEA24908F06FFD08F0FC
:1030900049FF6328C8F800004BDD28469C4908F02A
:1030A00019FE642330603B609B4B1B68002B3DD0B6
:1030B000E36F944D012B00F0BB80032B00F00981DE
:1030C000022B00F00C810221944805F0ABFF944BD9
:1030D000186808F0A1F8022402460B4600949148B3
:1030E00006F0EAF92146904805F09CFF21468B48FE
:1030F00005F098FFD8F800108A4806F0D5F90621A7
:103100008A4805F08FFF3068814908F02FFD08F0EC
:1031100083F8009402460B46824806F0CDF903215D
:10312000834805F07FFF7F4806F06EF904B0BDE8E4
:10313000F0870028BCBF00233B60B5E77D4E714C93
:1031400033680293029A42F228339A4200F2BA801C
:1031500033680393039A42F210739A4274D8E36F70
:10316000DFF8A881684E674D012B7FF471AF72487C
:10317000FEF7C2FB7149D5F86890EF6E08F0F6FCD7
:1031800008F0F6FE2A6F6B6FC9EB0202DB1B80B200
:103190009A42C9EB000040F3AD8003FB0000531CD2
:1031A00090FBF3F31F44A06D636DC8F8007000FB43
:1031B00007F003FB00F000EB8000400008F082FC09
:1031C0005349504F08F086FDD4F880303060012B11
:1031D0007FF444AF5848FEF78FFB5849D7F8689002
:1031E000FD6E08F0C3FC08F0C3FE3A6F7B6FD4F8A5
:1031F00058A0C9EB02025B1B80B29A42C9EB0000E7
:10320000C6BF03FB00000132584390FBF2F0284494
:10321000656D00FB0AF005FB00F000EB800040004C
:1032200008F050FC3A4908F055FD814630601AE735
:10323000434B1B68012B4FF00A010CBF4148424829
:1032400005F0F0FEEB6F38E73B48FEF755FB3B49D6
:10325000A76EE66E08F08AFC08F08AFE226F636FA4
:10326000D21B9B1B80B29A42A0EB07003CDD03FB04
:103270000000531C90FBF3F39819A26DDFF88C80CB
:10328000636DC8F8000002FB00F003FB00F000EBE8
:103290008000400008F016FC1D491B4E08F01AFD86
:1032A0000123306002211D482B6005F0BBFE1D4844
:1032B00006F0AAF85921254805F0B4FE194806F091
:1032C000A3F8C0E61C48626C94F84010FEF7A8FA18
:1032D0003EE710211E4805F0A5FEE36FF0E607214A
:1032E0001C4805F09FFEEEE603FB00F393FBF2F3B0
:1032F0009819C2E703FB00F393FBF2F31F4452E774
:103300005092FF1F2093FF1F7092FF1F3487FF1FF3
:10331000E4388E3E0000C8423C87FF1F5C14010069
:103320006492FF1FBC87FF1FDC090100700A0100C7
:10333000780A010000C0FF1FC494FF1F00007A44F8
:103340005087FF1F3C0A0100480A0100E009010004
:10335000540A0100680A0100F0B5112083B004F09E
:1033600077FD012813D000210B2004F06BFD002114
:103370000C2004F067FD0021152004F063FD1D49B9
:103380001D4B0120002208701A6003B0F0BD0146F9
:103390000446152004F056FD1849194A194B0968CE
:1033A0000191D2F890001B680199134D0344022645
:1033B0008B422E6017D8D2F8980008F083FB124B8E
:1033C000196808F071FD074668B921460B2004F022
:1033D00039FD084A032339460C2016702B6004F08F
:1033E00031FD03B0F0BD01210C2004F02BFD03B032
:1033F000F0BD00BF7C94FF1FB894FF1F00C0FF1FEB
:103400002093FF1FC094FF1F6492FF1FF0B5684E0A
:10341000684D34682B689C4287B039D014F00101A4
:1034200055D014F0020149D014F004013DD0E30757
:103430000ED52B68DF070BD45F4F3A68002A00F0E7
:1034400082805E4B1B680193019B93426DD8346868
:10345000A0070DD52B6899070AD4594F3A68002A5E
:103460004CD0564B1B680393039B934238D8346867
:1034700062070DD52B685B070BD4524F3A68002AC0
:103480007ED04E4B1B680593059B934268D83468E9
:103490000CB107B0F0BD2146162004F053FB2146C5
:1034A000172004F04FFB07B0F0BD052004F04AFBE5
:1034B0002B68346803F0FB032B60B8E7172004F097
:1034C00041FB2B68346803F0FD032B60ACE716204A
:1034D00004F038FB2B68346803F0FE032B60A0E790
:1034E000394B1720D3F8941004F02CFB2B68346868
:1034F00043F0020300222B603A60B9E7334805F03D
:1035000083FF0C21324805F08DFD304805F07CFF2B
:10351000FF21172004F016FB284B2E4A1968029150
:10352000029912680A443A609CE7274B1620D3F8A8
:10353000941004F007FB2B68346843F00103002269
:103540002B603A6084E7FF21162004F0FBFA1B4B46
:10355000204A19680091009912680A443A6071E79C
:10356000194B0520D3F8941004F0ECFA2B6834685A
:1035700043F0040300222B603A60002C89D18AE7D3
:10358000124805F041FF0C21134805F04BFD0F4890
:1035900005F03AFFFF21052004F0D4FA074B0D4A4D
:1035A00019680491049912680A443A606AE700BFF6
:1035B000B894FF1FDC93FF1F5494FF1F00C0FF1F30
:1035C0005894FF1F5C94FF1F2093FF1FBC87FF1FB1
:1035D0007C0A01006887FF1F8C0A01002DE9F04773
:1035E000544EDFF87481DFF874913068524D002238
:1035F0000F2103F05FFC0023012222214F48C8F86D
:103600000030C9F8002005F00DFDD8F80030132B6C
:1036100022DC40F6E44700213068B5F884A003F0CE
:103620009BFC00210446306803F01CFCA4B201217D
:1036300007FB04F4B4FBF0F441485444A5F884407B
:1036400005F0F0FC642004F039FCD8F800300133B8
:10365000132BC8F80030DEDDB5F88430394A3A481B
:10366000A2FB03129B1A02EB5303C3F30F13194679
:10367000A5F8843005F018FF1D21344805F0D2FC70
:103680000221334805F0CEFC2F4805F0BDFE002393
:103690001A460E213068C8F8003003F00BFC0223F4
:1036A00022212648C9F8003005F0BCFCD8F80030CB
:1036B000132B22DC40F6E44700213068B5F88690F1
:1036C00003F04AFC00210446306803F0CBFBA4B2AF
:1036D000012107FB04F4B4FBF0F419484C44A5F8AD
:1036E000864005F09FFC642004F0E8FBD8F8003029
:1036F0000133132BC8F80030DEDDB5F88630114AEF
:103700001148A2FB03129B1A02EB5303C3F30F13DE
:103710001946A5F8863005F0C7FE1D210D4805F0B5
:1037200081FC02210A4805F07DFC0748BDE8F0470E
:1037300005F06ABE9094FF1F2093FF1F9C0A0100B2
:10374000E00A010087611886BC87FF1FC00A0100DC
:103750005C140100E40A01007894FF1F5087FF1FEA
:10376000A24B2DE9F0411B68A14CA24D40F2513112
:1037700008222160E271286D002B40F0E48008F0FF
:10378000A1F96969064608F0F1F99B49994F08F0DB
:10379000EDF908F0EDFB80B203126372974A984B83
:1037A00012681B68A969A37215121B12E3722273B7
:1037B00020726573304608F0D9F98F498C4E08F0B5
:1037C000D5F908F0D5FB83B21A1231468D48A373A0
:1037D000E27303F091F98C4B8C4A1B681288A27239
:1037E000DDB205EB8501257203EB8305490045F346
:1037F000D71540F2553E12124FF008081B122173E4
:103800006573314600257F48C4F800E0E2726372B8
:10381000A573E57384F8078003F06EF940F2563320
:103820007B48236084F80780FDF7F6FF794908F0AC
:103830009DF908F09DFB20727548FDF7EDFF754975
:1038400008F094F908F094FB734A7249C0F3072317
:103850006372106808F03EFA08F064FB40FA08F260
:1038600003466B48E272A372FEF706F8624908F05D
:103870007DF908F07DFB20736548FDF7FDFF5E498B
:1038800008F074F908F074FB3146C0F307235D4873
:103890006373A573E57303F02FF9022004F00EFBA8
:1038A0005E4B25731A7859786573A573E573227298
:1038B0009D78DA78617240F25A3331465148A572E8
:1038C000E272236084F8078003F016F9544B4D48E8
:1038D0001A785978227261729A78D978A272E17254
:1038E0001A7959799D7922736173DA79E27340F21A
:1038F0005E3331462360A57384F8078003F0FCF83B
:10390000022004F0DBFA474B3E481A7859782272BD
:1039100061729A78D978A272E1721A7959799D798F
:1039200022736173DA7984F807804FF45C7331464F
:103930002360A573E27303F0DFF83B4B1B68012B98
:1039400006D0BDE8F08108F0BDF8296A06461AE7FE
:103950002F48FDF717FFF96C08F000F805462C48D2
:10396000FDF736FF0146284608F09EFA0028E8D009
:1039700040F2C333264886F807803360FDF702FF24
:10398000BD6C294608F090FAD0B12849284608F0C5
:10399000EDF808F0EDFA80B240FA08F37072337275
:1039A0000023012604250322A672E57222736373A5
:1039B000A373E3730E491348BDE8F04103F09CB8CC
:1039C0001348FDF7DFFE194908F0D0F808F0D0FAE7
:1039D000C0F307230E483372FDF7D4FE134908F0F5
:1039E000C5F808F0C5FA7072DAE700BF5892FF1FF9
:1039F000A894FF1F2093FF1F000020418894FF1F01
:103A00004092FF1F58BEFF1F3487FF1F3887FF1FDC
:103A1000C494FF1F0000C8426492FF1F1C93FF1F45
:103A20002C87FF1F5487FF1F9894FF1F00007A44C4
:103A3000F0B59C4C9C4D83B005F08EFA236828604D
:103A4000042B00F0AC82022B4BD0082B00F09280AC
:103A5000072B40F05181332801F0C58300F3AD807E
:103A6000312801F0D383322840F0B08005F0B0FA5D
:103A7000002840F33F818D488D4E05F057FE08F039
:103A800021F88C4908F072F861230122F06322606A
:103A90002B601846A0F152031F2B01F29483DFE83C
:103AA00013F0360B920B920B920B920B920B920B24
:103AB000920B920B920B920B920B920B920B920B1E
:103AC000B203AB0C3905A7057304920B920B920B52
:103AD0002604920BAE0C920B920B920B920B920B54
:103AE000240BA0F13102422A70D8DFE812F022073D
:103AF0002E07E606F306060715076F006F006F0036
:103B00006F006F006F006F006F006F006F006F003D
:103B10006F006F006F006F006F006F006F006F002D
:103B20006F006F006F006F006F006F006F006F001D
:103B30006F006F006F006F006F006F006F006F000D
:103B40006F006F006F006F006F006F006F006F00FD
:103B50006F00D3066F006F006F006F006F006F0083
:103B60006F006F006F006F006F006F006F006B00E1
:103B70006F00D906322800F02F83712822D0312817
:103B800024D105F025FA002840F342864748484EE4
:103B900005F0CCFDC0B286F84000022894BF014673
:103BA0000021726C444888BF86F84010FDF738FE4B
:103BB00001236920236028606CE7342801F03C83EE
:103BC000712803D10023732023602860002B08BFD5
:103BD00073280CBF01200020002860D0334805F076
:103BE00013FC0421354805F01DFA304805F00CFCA3
:103BF0001021334805F016FA2C4805F005FC132176
:103C0000304805F00FFA304B2848196805F04CFC95
:103C1000264805F0F9FB14212C4805F003FA234847
:103C200005F0F2FB1E212A4805F0FCF91F4805F0BB
:103C3000EBFB1521274805F0F5F91C4805F0E4FBDE
:103C40001E21254805F0EEF9184805F0DDFB20217E
:103C5000224805F0E7F9154805F0D6FB1921204860
:103C600005F0E0F9114805F0CFFB12211D4805F0E1
:103C7000D9F90E4805F0C8FB0F211B4805F0D2F911
:103C80000A4805F0C1FB0D21184805F0CBF907489B
:103C900005F0BAFB164A002101231160236003B02E
:103CA000F0BD00BF7492FF1F6092FF1FBC87FF1F13
:103CB0002093FF1F6F12833AC494FF1FD812010094
:103CC000E0120100F41201002487FF1F0813010015
:103CD0002013010040130100581301007813010064
:103CE0009C130100B8130100CC130100DC13010088
:103CF0003C87FF1F23682868062B40F08D80A0F1C9
:103D00003102402A3FF662AF01A151F822F000BF14
:103D100047470000734700009F470000C547000069
:103D2000EB47000023470000CD3B0000CD3B0000E7
:103D3000CD3B0000CD3B0000CD3B0000CD3B000063
:103D4000CD3B0000CD3B0000CD3B0000CD3B000053
:103D5000CD3B0000CD3B0000CD3B0000CD3B000043
:103D6000CD3B0000CD3B0000CD3B0000CD3B000033
:103D7000CD3B0000CD3B0000CD3B0000CD3B000023
:103D8000CD3B0000CD3B0000CD3B0000CD3B000013
:103D9000CD3B0000CD3B0000CD3B0000CD3B000003
:103DA000CD3B0000CD3B0000CD3B0000CD3B0000F3
:103DB000CD3B0000CD3B0000CD3B0000CD3B0000E3
:103DC000CD3B0000CD3B0000CD3B0000CD3B0000D3
:103DD000CD3B0000CD3B0000CD3B0000CD3B0000C3
:103DE000CD3B0000CD3B0000CD3B0000CD3B0000B3
:103DF000CD3B0000CD3B0000CD3B0000CD3B0000A3
:103E0000CD3B0000CD3B0000CD3B0000CD3B000092
:103E1000C53B000023682868052B15D1332801F025
:103E2000528240F34781352801F03F82C1F2168269
:103E300071287FF4CBAEDC4A00237320136023602B
:103E40002860C3E623682868032B40F0A480A0F113
:103E50003002422A3FF6BAAE01A151F822F000BF6B
:103E60006D3F00009B500000C35000007F4F0000DA
:103E7000A14F0000C34F0000EB4F000013500000A3
:103E80003150000055500000CD3B0000CD3B0000FC
:103E9000CD3B0000CD3B0000CD3B0000CD3B000002
:103EA000CD3B0000CD3B0000CD3B0000CD3B0000F2
:103EB000CD3B0000CD3B0000CD3B0000CD3B0000E2
:103EC000CD3B0000CD3B0000CD3B0000CD3B0000D2
:103ED000CD3B0000CD3B0000CD3B0000CD3B0000C2
:103EE000CD3B0000CD3B0000CD3B0000CD3B0000B2
:103EF000CD3B0000CD3B0000CD3B0000CD3B0000A2
:103F0000CD3B0000CD3B0000CD3B0000CD3B000091
:103F1000CD3B0000CD3B0000CD3B0000CD3B000081
:103F2000CD3B00007D5000004F4A0000A34E000032
:103F3000CD4E0000EB4E00003F4F0000054A000050
:103F4000294A0000CD3B0000CD3B0000CD3B0000E6
:103F5000CD3B0000CD3B0000CD3B0000CD3B000041
:103F6000CD3B0000C14E0000094F000005F030F8C5
:103F7000002841F331818D488D4E05F0D7FB012794
:103F80000346014662228B48736527602A60FDF76D
:103F900045FC23682868012B7FF418AE7AE5A0F170
:103FA0003102402A3FF612AE01A151F822F000BFC3
:103FB000674900007F49000083490000A9490000CB
:103FC000E9490000AD490000BF490000C3490000B5
:103FD000C7490000CD3B0000CD3B0000CD3B0000B9
:103FE000CD3B0000CD3B0000CD3B0000CD3B0000B1
:103FF000CD3B0000CD3B0000CD3B0000CD3B0000A1
:10400000CD3B0000CD3B0000CD3B0000CD3B000090
:10401000CD3B0000CD3B0000CD3B0000CD3B000080
:10402000CD3B0000CD3B0000CD3B0000CD3B000070
:10403000CD3B0000CD3B0000CD3B0000CD3B000060
:10404000CD3B0000CD3B0000CD3B0000CD3B000050
:10405000CD3B0000CD3B0000CD3B0000CD3B000040
:10406000CD3B0000CD3B0000CD3B0000CD3B000030
:10407000CD3B0000CD3B0000CD3B0000CD3B000020
:10408000CD3B0000CD3B0000CD3B0000CD3B000010
:10409000CD3B0000CD3B0000CD3B0000CD3B000000
:1040A000CD3B0000CD3B0000CD3B0000CD3B0000F0
:1040B000C53B0000312801F0E78032287FF486AD4F
:1040C00004F086FF00287FF7BDAE3848384E05F073
:1040D0002DFB01226B23C6F8980022602B6001E0C3
:1040E00004F03AFF04F074FF0028F9D12F4805F0DE
:1040F0008BF92E4805F088F92C4805F085F92B48F6
:1041000005F082F9294805F07FF921212A4804F0B9
:1041100089FF264805F078F91521284804F082FF28
:10412000D6F89010214805F0BFF90221244804F088
:1041300079FF1E4805F068F91E21224804F072FF3D
:10414000D6F89810194805F0AFF903211E4804F07D
:1041500069FF164805F058F91E211C4804F062FF5B
:10416000D6F89410114805F09FF9104805F04CF965
:104170001D21174804F056FFD6F8A0100B4805F093
:1041800093F90A4805F040F91E21124804F04AFF4D
:10419000D6F8A410054805F087F9044805F034F96D
:1041A000052323607BE500BF7094FF1FBC87FF1FC2
:1041B0002093FF1FC494FF1F500D0100740D0100D8
:1041C000A80C01008C0D0100C8090100AC0D010014
:1041D000CC0D0100EC0D010004F0FAFE002840F3C4
:1041E0001383B248B24E05F0A1FA07F06BFCB14957
:1041F00007F0BCFC0346024696F84010AE487364D4
:10420000D4E404F0A9FE04F0E3FE05460028F8D14A
:10421000A648A74E05F0F8F8A44805F0F5F8A3481D
:1042200005F0F2F8A14805F0EFF8A04805F0ECF829
:104230001F21A24804F0F6FE9C4805F0E5F81C2179
:104240009F4804F0EFFE706A9E4907F08FFC06F06D
:10425000E3FF009502460B46944805F02DF9022134
:10426000994804F0DFFE914805F0CEF823219748E5
:1042700004F0D8FEF06B934907F078FC06F0CCFF11
:10428000009502460B46894805F016F902218E4832
:1042900004F0C8FE854805F0B7F819218C4804F0F1
:1042A000C1FEB06B06F0B8FF02250B460246009532
:1042B0007E4805F001F92946864804F0B3FE7B48A4
:1042C00005F0A2F81921844804F0ACFEB6F8B41049
:1042D000764805F0E9F80321804804F0A3FE73480E
:1042E00005F092F807232360D9E404F035FE04F0CA
:1042F0006FFE05460028F8D16C486D4E05F084F835
:104300006A4805F081F8694805F07EF8674805F0CD
:104310007BF8664805F078F81521714804F082FEB4
:10432000624805F071F818216E4804F07BFE2B46B8
:104330000A2296F840105D4805F076F85B4805F0D3
:1043400063F82821684804F06DFE706C5D4907F041
:104350000DFC06F061FF00950B460246534805F040
:10436000ABF80221584804F05DFE504805F04CF8C7
:1043700013215E4804F056FE4C4805F045F808232A
:1043800023608CE404F0E8FD04F022FE05460028DA
:10439000F8D14648464E05F037F8444805F034F861
:1043A000424805F031F8414805F02EF83F4805F045
:1043B0002BF811214E4804F035FE3C4805F024F856
:1043C00028214C4804F02EFE70693E4907F0CEFBD0
:1043D00006F022FF009502460B46344805F06CF8C3
:1043E0000221394804F01EFE304805F00DF8162170
:1043F000414804F017FEF069324907F0B7FB06F0B8
:104400000BFF00950B460246284805F055F802219F
:104410002D4804F007FE254804F0F6FFD6F8AC302E
:10442000002B32DD1D21354804F0FCFDF06D07F056
:1044300049FB334907F09AFB06F0EEFE02250246DF
:104440000B460095194805F037F801212D4804F076
:10445000E9FD164804F0D8FF1F212B4804F0E2FDC7
:10446000306E07F02FFB264907F080FB06F0D4FEE4
:10447000009502460B460D4805F01EF80121214823
:1044800004F0D0FD094804F0BFFF11211F4804F0DB
:10449000C9FDD6F8AC30052B00F25686DFE813F0E4
:1044A0007F067A0650068E0689068406BC87FF1FA3
:1044B0002093FF1F6F12833AC494FF1FAC0C0100BE
:1044C000CC0C010000007A447C0B0100EC0C0100D4
:1044D000100D01002C0D0100300D01004C0D0100EC
:1044E000A0130100340B0100500B0100800B0100F0
:1044F00044130100940B0100C00B0100D80B010014
:10450000CDCCCC3D30100100F80B0100180C01009F
:1045100004F022FD04F05CFD0028F9D1BF48C04E34
:1045200004F072FFBD4804F06FFFBC4804F06CFF5C
:10453000BA4804F069FFB94804F066FF1F21B94882
:1045400004F070FDB54804F05FFF1E21B64804F08A
:1045500069FDB24804F058FF1A21B44804F062FD26
:10456000F36F022B00F01787032B00F00B87012B52
:1045700000F01A870921AE4804F054FDA74804F062
:1045800043FF1421AB48A64F04F04CFDB16FA34884
:1045900004F08AFFA14804F037FF1C21A64804F06C
:1045A00041FDD6F880109D4804F07EFF9B4804F042
:1045B0002BFF1C21A14804F035FDD6F8A810974820
:1045C00004F072FF954804F01FFFF56F25F0020517
:1045D000012D00F091861321994804F023FD8F48A6
:1045E00004F012FF02232360FFF759BB04F0B4FC70
:1045F00004F0EEFC0028F9D1884804F005FF874854
:1046000004F002FF854804F0FFFE844804F0FCFE3D
:10461000824804F0F9FE13218A4804F003FD7F4824
:1046200004F0F2FE0D21884804F0FCFC7B4804F005
:10463000EBFE0F21854804F0F5FC854B774819689F
:1046400004F032FF754804F0DFFE1321814804F0C6
:10465000E9FC814B7148196804F026FF6F4804F0AB
:10466000D3FE12217D4804F0DDFC7D4B6B481968B8
:1046700004F01AFF694804F0C7FE1121794804F0DC
:10468000D1FC794B6548196804F00EFF634804F0CB
:10469000BBFE0E21754804F0C5FC614B5F48D3F8A2
:1046A0009C1004F001FF5D4804F0AEFE1921704833
:1046B00004F0B8FC6F4B5948196804F0F5FE5748F0
:1046C00004F0A2FE11216C4804F0ACFC6B4B534883
:1046D000196804F0E9FE514804F096FE102168487C
:1046E00004F0A0FC674B4D48196804F0DDFE4B4810
:1046F00004F08AFE1C21644804F094FC634B474894
:10470000196804F0D1FE454804F07EFE13214C48A0
:1047100004F088FC414804F077FE04232360FFF78F
:10472000BEBA04F055FC00287FF774AB3B483C4E02
:1047300004F0FCFF65230122C6F8B00022602B6064
:104740001846FFF7A7B904F043FC00287FF762ABD7
:104750003248334E04F0EAFF07F0B4F94C4907F051
:10476000B9FA65230122706122602B601846FFF7B9
:1047700091B904F02DFC00287FF74CAB2748284E58
:1047800004F0D4FF07F09EF9414907F0A3FA65232E
:104790000122F06122602B601846FFF77BB904F01C
:1047A00017FC00287FF736AB1C481D4E04F0BEFFF7
:1047B00000EB8000430001226520F3652260286041
:1047C000FFF768B904F004FC00287FF723AB134817
:1047D000134E04F0ABFF00EB800043000122652084
:1047E000336622602860FFF755B90D4AD2F8AC3025
:1047F0000133052BC8BF0023C2F8AC30652001236C
:1048000023602860FFF746B923682868FFF720B9BE
:10481000034E96F84000FFF7C0B900BFBC87FF1FEA
:104820002093FF1FF00E0100100F0100300F010058
:10483000A80F0100B40F0100CC0F0100EC0F010024
:10484000800B01000C0E0100200E0100300E010053
:104850005094FF1F400E0100BC94FF1F540E010036
:10486000A094FF1F680E0100A494FF1F7C0E01009E
:104870008C0E01007494FF1FA80E01007094FF1F9E
:10488000BC0E01005C92FF1FD00E01005C87FF1F71
:1048900000007A44FEF7A2FE23682868FFF7D5B827
:1048A000724AD36F0133032BC8BF0023D3670123A0
:1048B000632023602860FFF7EDB80123236004F034
:1048C00087FB0028F3DD6A48684E04F02FFFC6F826
:1048D000A800ECE70123236004F07AFB002807DD41
:1048E0006348624E04F022FF07F0ECF8C6F88C0033
:1048F000632028602368FFF7ABB80123236004F02E
:1049000067FB0028F4DD5A48584E04F00FFF07F00B
:10491000D9F8C6F88800EBE70123236004F058FBC0
:104920000028E5DD5248514E04F000FFA6F8B6001D
:10493000DEE74E4EB36FB3FA83F35B0901226320C7
:10494000B36722602860FFF7A5B8484ED6F88030DC
:10495000B3FA83F35B0901226320C6F8803022603A
:104960002860FFF797B8434A1368B3FA83F35B09EB
:1049700001216420136021602860FFF78BB83E4A54
:10498000F2E73E4A3E4F1368002B0CBF0123002381
:104990004FF001001360206040F0DE840346642283
:1049A0002A606420FFF751B8364ADDE70123364814
:1049B0002360FCF7C7FD354A23681060EFE7344AEF
:1049C000D2E7344AD0E70123236004F001FB00283A
:1049D00000F38A84304B1A68042AC4BF02221A608A
:1049E00064232B602368DCE7204ED6F89C30B3FAB2
:1049F00083F35B0901226420C6F89C3022602860A2
:104A0000FFF748B804F0E4FA00280DDD1848174E07
:104A100004F08CFE07F056F8204907F05BF90122FC
:104A20006223306222602B6004F0D2FA00280EDD8F
:104A30000F480E4E04F07AFE07F044F8174907F0CD
:104A400049F901226223C6F8B80022602B6004F005
:104A5000BFFA002840F3C0830548044E04F066FE08
:104A600001226223B06622602B601BE02093FF1FAF
:104A7000BC87FF1F5094FF1FBC94FF1FA094FF1F13
:104A80007492FF1FA494FF1FC494FF1F7494FF1F10
:104A90007094FF1F5C92FF1F5C87FF1F00007A4429
:104AA00004F05AFA04F094FA05460028F8D1C248F6
:104AB00004F0AAFCC04804F0A7FCBF4804F0A4FC22
:104AC000BD4804F0A1FCBC4804F09EFC1521BB4885
:104AD00004F0A8FAB84804F097FC1421B84804F090
:104AE000A1FAB54804F090FC1B21B64804F09AFAEC
:104AF000B14804F089FC1321B34804F093FAAE489E
:104B000004F082FCAC4804F07FFCAB4804F07CFC71
:104B10002021AE4804F086FAF068AD4907F026F887
:104B200006F07AFB009502460B46A34804F0C4FC4D
:104B30000221A84804F076FA0221A74804F072FA8C
:104B40009D4804F061FC2121A44804F06BFA30690F
:104B50009F4907F00BF806F05FFB009502460B46F5
:104B6000954804F0A9FC02219A4804F05BFA02215E
:104B7000994804F057FA904804F046FC1F219848E1
:104B800004F050FAB06A06F047FB022702460B46D3
:104B90000097894804F090FC0121924804F042FA01
:104BA00039468D4804F03EFA834804F02DFC20215C
:104BB0008D4804F037FAF06A06F02EFB00970246A3
:104BC0000B467D4804F078FC0121864804F02AFA5F
:104BD0003946814804F026FA774804F015FC232171
:104BE000824804F01FFAB06C794906F0BFFF06F066
:104BF00013FB009502460B466F4804F05DFC3946F6
:104C0000744804F00FFA3946734804F00BFA6A4806
:104C100004F0FAFB1F21764804F004FAF06C6C49AA
:104C200006F0A4FF06F0F8FA009502460B4662482B
:104C300004F042FC3946674804F0F4F93946664806
:104C400004F0F0F95C4804F0DFFB1921694804F036
:104C5000E9F9B16D584804F027FC3946664804F07C
:104C6000E1F939465C4804F0DDF9534804F0CCFB27
:104C70001821624804F0D6F9706E06F023FF6049EF
:104C800006F074FF06F0C8FA009702460B464A4841
:104C900004F012FC01215B4804F0C4F939464E4887
:104CA00004F0C0F9444804F0AFFB2B21564804F04F
:104CB000B9F9B069464906F059FF06F0ADFA00951A
:104CC00002460B463C4804F0F7FB3946414804F0E5
:104CD000A9F93946404804F0A5F9374804F094FB97
:104CE0001F214A4804F09EF9716D334804F0DCFB43
:104CF0003946394804F096F92F4804F085FB202105
:104D0000434804F08FF9316D2B4804F0CDFB394650
:104D1000314804F087F9284804F076FB10213D481B
:104D200004F080F9B16E244804F0BEFB39462948EE
:104D300004F078F93946284804F074F91E4804F064
:104D400063FB1321344804F06DF9F16E1A4804F046
:104D5000ABFB0121314804F065F939461E4804F0E7
:104D600061F9154804F050FB10212D4804F05AF960
:104D7000316F114804F098FB3946164804F052F997
:104D80003946154804F04EF90B4804F03DFB142158
:104D9000244804F047F9716F074804F085FB0121AE
:104DA0001E4804F03FF939460B4804F03BF902482D
:104DB00004F02AFB162137E0BC87FF1F78100100A2
:104DC00090100100A8100100800B0100C410010028
:104DD00000007A447C0B01005C140100E810010023
:104DE0000C110100AC0601002C1101005011010052
:104DF0007411010094110100B0110100B4110100FF
:104E0000CDCCCC3D30100100D0110100FC110100CF
:104E10001C1201004012010054120100681201002E
:104E20006C12010080120100BA4804F0FBF8306AED
:104E3000B94906F09BFE06F0EFF9009502460B46D5
:104E4000B64804F039FB3946B54804F0EBF839466A
:104E5000B44804F0E7F8B14804F0D6FA2421B24887
:104E600004F0E0F8D6F8B800AB4906F07FFE06F093
:104E7000D3F900950B460246A84804F01DFB3946BD
:104E8000A74804F0CFF83946A64804F0CBF8A34869
:104E900004F0BAFAA14804F0B7FA03232360FEF73E
:104EA000FEBE04F095F8002840F396819B489F4E83
:104EB00004F03CFC01226223F06622602B60F1E5E5
:104EC0000022732322602B60FEF788BE04F080F876
:104ED000002840F381819148944E04F027FC012280
:104EE0006223306722602B60DCE504F071F8002853
:104EF00040F3728189488D4E04F018FC0122622330
:104F0000706722602B60CDE5894B8648874E002272
:104F100002211A6004F086F8804804F075FA0B212B
:104F2000844804F07FF802217E4804F07BF87B4837
:104F300004F06AFA0122622322602B60B2E5FCF7DA
:104F4000EBFF02217748794E04F06CF8734804F0C7
:104F50005BFA0221734804F065F8704804F054FAD3
:104F60000221704804F05EF86C4804F04DFA1721F5
:104F7000714804F057F8694804F046FAD3E704F0A2
:104F800027F8002840F328816448684E04F0CEFBDF
:104F900006F098FD01226223B06222602B6081E559
:104FA00004F016F8002840F317815C485F4E04F0C7
:104FB000BDFB06F087FD01226223F06222602B60B8
:104FC00070E504F005F8002840F306815348574E79
:104FD00004F0ACFB06F076FD4F4906F07BFE0122A3
:104FE0006223B06422602B605CE503F0F1FF0028CF
:104FF00040F3F28049484D4E04F098FB06F062FD04
:10500000454906F067FE01226223F06422602B60AE
:1050100048E503F0DDFF002840F3DE803F48434EC3
:1050200004F084FB01226223B06522602B6039E525
:1050300003F0CEFF002840F3CF8038483B4E04F009
:1050400075FB00EB80004300012162227366216042
:105050002A6027E503F0BCFF002840F3BD802F48FD
:10506000324E04F063FB06F02DFD2B4906F032FEB4
:1050700001226223B06122602B6013E503F0A8FFD8
:10508000002840F3A9802548284E04F04FFB012258
:105090006223306522602B6004E503F099FF00284D
:1050A00040F39A801D48214E04F040FB06F00AFDB3
:1050B000194906F00FFE01226223F06022602B6086
:1050C000F0E403F085FF002840F386801348174E74
:1050D00004F02CFB06F0F6FC0F4906F0FBFD012264
:1050E0006223306122602B60DCE4BC2200210F4887
:1050F00002F0DCFB2868114AA0F1730001210023B3
:10510000B0FA80F0400911602360FEF765BD03F03E
:1051100053FA00BF9812010000007A44BC87FF1FB9
:105120007C0B01005C140100B01201002093FF1FF2
:105130005092FF1F280B0100100B01003C87FF1F3E
:105140000C21B04803F06EFFAF48B04D04F05CF99D
:10515000D6F8AC30002B0FDD1821AD4803F062FF0C
:10516000D5F8B010A84804F09FF90221A94803F02F
:1051700059FFA54804F048F9A34804F045F9132164
:10518000A54803F04FFFA04804F03EF90623236032
:10519000FEF785BD0C21A14803F044FFD4E70D21A3
:1051A0009F4803F03FFFCFE70F219E4803F03AFFEF
:1051B000CAE70D219C4803F035FFC5E70D219B4848
:1051C00003F030FFC0E72368002B08BF73280CBF33
:1051D00001200020FEF700BD23682868012B7EF423
:1051E000F5ACFEF757BC03F0F3FE00287EF782AD66
:1051F0008548864E04F09AFA06F064FC6123012289
:10520000B06322602B601846FEF744BC03F0E0FE5A
:1052100000287EF76FAD7C487C4E04F087FA06F0DC
:1052200051FC834906F0A2FC6123012270622260D6
:105230002B601846FEF72EBC03F0CAFE00287EF74E
:1052400059AD7148714E04F071FA61230122A6F83C
:10525000B40022602B601846FEF71CBC03F0B8FEB9
:1052600000287EF7EFAD6848684E04F05FFA714B96
:10527000C6F8A00002221A60FDF792F901226B2302
:1052800022602B60FEF72EBF03F0A2FE00287EF7FF
:10529000D9AD5D485D4E04F049FA01226B23C6F892
:1052A000900022602B60FEF71DBF03F091FE0028E6
:1052B0007EF7C8AD5448554E04F038FA5D4BC6F839
:1052C000A4000322D7E703F083FE00287EF7BAADDF
:1052D0004D484E4E04F02AFA01226B23C6F8940082
:1052E00022602B60FEF7FEBE474804F01FFA524BC7
:1052F00002461860FFF770BB1C21504803F092FE75
:10530000D7F88C004E4906F031FC05F085FF00957A
:1053100002460B463C4804F0CFF80521494803F00B
:1053200081FE394804F070F8FD6F012D45D0032D42
:105330007FF451A91C21444803F074FEB6F8B6105E
:10534000314804F0B1F80321404803F06BFE2E48C9
:1053500004F05AF8FFF73FB93D4B002631460B20C9
:105360001E6002F06FFD31460C2002F06BFD3146ED
:10537000142002F067FD3146152002F063FD3B6802
:10538000FFF70DBB2021334803F04CFE1E4804F00C
:105390003BF8FFF7F6B817212F4803F043FE1A48F1
:1053A00004F032F8FFF7EDB81E212C4803F03AFE66
:1053B000154804F029F8FFF7E4B81D21284803F048
:1053C00031FED7F888001E4906F0D0FB05F024FF17
:1053D00000950B4602460C4804F06EF8052119486A
:1053E00003F020FE084804F00FF8FB6F23F00203DF
:1053F000012B9FD0FFF7EFB8044EFFF753BB034ECE
:10540000FEF770BE4C0C0100BC87FF1F2093FF1FEE
:105410008C0C0100A80C0100800B01003C0C010069
:105420002C0C01007C0C01006C0C01005C0C0100D8
:105430006F12833A7094FF1F5C87FF1F0C100100EE
:10544000CDCCCC3D2C100100541001007410010093
:10545000B894FF1F6C0F0100900F01004C0F01006A
:105460003410010038B5164C164A2368101D12F886
:10547000011F904241EA0323F9D12360124C03F14A
:1054800000432360114BDB6F022B11D0104B1B68C4
:10549000012B00D038BD0F4803F0B6FF21680D483E
:1054A00004F002F803210C48BDE8384003F0BABD0F
:1054B00020680A4D06F006FB2860FDF709FBE5E7CA
:1054C0003892FF1F6794FF1F8494FF1F2093FF1FD4
:1054D0005094FF1FBC87FF1FEC1301005492FF1F65
:1054E00030B53F4C3F4883B0214601F0FDF92368B9
:1054F00040F2C232934258D06FF4C0615A18B2F5EC
:10550000FF7F4CD903F100436FF4C0621344B3F53D
:10551000FF7F3FD9344B1B68012B01D003B030BD56
:10552000324B1B68012BF9D1314B32481B68019378
:105530000A220023019903F077FF2268284B002AF2
:10554000DB7945DB2C492D4807F0EEFA2B4807F0B4
:1055500017FB0146294803F065FD2568204B15F02F
:10556000804526D1DB798BB1631925491A7A234806
:1055700007F0DAFA214807F003FB01461F4803F061
:1055800051FD0135E379EDB2AB42EDD8194803F096
:105590003BFFC3E712491B48FBF7FCFFBAE7104982
:1055A0001848FBF7F7FF2368ACE7FFF75BFF2368BA
:1055B000A2E7154D114C0FCD0FC495E8030044F838
:1055C000040B204620F81419152103F02BFDDDE70C
:1055D0000E490A4822F0604207F0A6FAB6E700BF7B
:1055E0006094FF1F58BEFF1F3C87FF1F5094FF1F92
:1055F00000C0FF1FBC87FF1F181401007892FF1F17
:1056000044140100C494FF1F2C140100F013010086
:105610002DE9F84F9A4B9B4C1B78052B08D09A48E4
:10562000FCF72AF9E16A06F03FFC002800F09380BD
:10563000964E974D002333602B60964B92481B6823
:10564000904F012B45D0FCF7C3F8E16980466069B3
:1056500006F082F90146404606F044FC00284CD191
:105660008948FCF7B5F8E16806F03CFC08B1002376
:105670002B608548834FFCF785F8216906F014FC00
:1056800058B1002333602B68814A002B01DBBDE851
:10569000F88F00231360BDE8F88F7B48FCF772F8A1
:1056A000B96906F001FC0028EBD17748FCF76AF8ED
:1056B000D7F8B8100446B86906F050F901462046FC
:1056C00006F010FC002873D0786E30600028D8DB1C
:1056D000D9E7FCF77DF8E1698046206A06F03CF9DD
:1056E0000146404606F0FEFB0028B9D06648FCF7AC
:1056F0006FF8D7F82090834605E06348FCF768F818
:10570000D7F814908346F969484606F025F9824691
:10571000F86D06F0D7F98046386E06F0D3F94146A9
:1057200006F01AF951460746584606F015F90146A3
:10573000384606F01BFA51460746484606F00CF973
:105740000146384606F0C6FA414606F007F906F06B
:10575000E9FB286084E74C48FCF78EF8216B06F0E3
:10576000A3FB002849D0494E636E47483360FCF7DD
:1057700083F88146E06DE76A454D06F0A3F93946A6
:105780008046484606F0E8F80146404606F0EEF945
:1057900039468046206B06F0DFF80146404606F0A9
:1057A00099FA002106F0DAF806F0BCFB286044E71D
:1057B0003548FBF7E7FF8146F86DBC6906F082F9D2
:1057C00021468046484606F0C7F80146404606F0A6
:1057D000CDF9D7F8B8108046204606F0BFF821462C
:1057E00006F0BAF80146404606F074FA002106F0C9
:1057F000B5F806F097FB306068E72348FCF73CF803
:10580000616B06F051FB30B1204E214D626EE36DAD
:1058100032602B6011E71C48FCF72EF8A16A06F0F5
:1058200043FB00283FF404AF1748184E184DFCF70F
:1058300023F88146606ED4F8348006F043F941467F
:105840000746484606F088F839468146002006F0AB
:1058500083F80146484606F089F941468146A06A28
:1058600006F07AF80146484606F034FA394606F062
:1058700075F806F057FBE36D30602B60DDE600BF86
:105880007C94FF1F2093FF1FC494FF1F8894FF1F69
:105890004092FF1F5892FF1F08B5274803F0B4FD40
:1058A0000721264803F0BEFB112002F0D1FA0621A1
:1058B000F8B1234803F0B6FB122002F0C9FA062122
:1058C00000B3204803F0AEFB122002F0C1FA06211B
:1058D00008B31D4803F0A6FB132002F0B9FA062115
:1058E00010BB1A4803F09EFB1348BDE8084003F0C4
:1058F0008BBD174803F096FB122002F0A9FA06218F
:105900000028DED1134803F08DFB122002F0A0FA2C
:1059100006210028DDD1104803F084FB132002F09B
:1059200097FA06210028DCD00C4803F07BFB0248E4
:10593000BDE8084003F068BDBC87FF1F501401009C
:10594000581401006814010078140100901401003B
:10595000601401007014010080140100881401001B
:1059600010B5254C2368042B27DC01210B2002F005
:1059700069FA01210C2002F065FA0121142002F0DD
:1059800061FA0121152002F05DFAFF21162002F0D4
:10599000D9F8FF21172002F0D5F8FF21052002F0E9
:1059A000D1F8FF21062002F0CDF8236801330A2B3D
:1059B0002360C4BF0023236010BD00210B2002F030
:1059C00041FA00210C2002F03DFA0021142002F0DF
:1059D00039FA0021152002F035FA0021162002F0D4
:1059E000B1F80021172002F0ADF80021052002F0E7
:1059F000A9F80021D6E700BF9C94FF1F2DE9F041D4
:105A00008D4DD5F8AC30042B3ED0032B6ED0012B3E
:105A100000F09880022B01D0BDE8F081874C8848C7
:105A2000237240F20E32012321462260E37101F01D
:105A300063F8844B1B685B00FF2BC8BFFF23042166
:105A400040224FF441702060E17122726372286D30
:105A500006F038F8696906F089F87B49054606F0D2
:105A600041FA002800F0DE802946284605F076FF3E
:105A700006F07EFA80B20312E072A3726F4970489A
:105A8000BDE8F04101F038B86C4C704AA37922604F
:105A900043F001030822E271A371286D06F012F8A9
:105AA000696906F063F86A4906F060F806F060FA82
:105AB000644B684A1B68126893FBF2F380B20026BD
:105AC0001A120712607221465D48E372A2722772B1
:105AD00026736673A673E67301F00EF8A279D5F803
