:1000000000800020BD010000498200000182000044
:1000100001820000018200000182000001820000D4
:10002000018200000182000001820000498200007C
:1000300049820000018200007DA1000081A2000031
:100040004982000049820000498200004982000084
:100050004982000049820000498200004982000074
:100060004982000049820000498200004982000064
:100070004982000049820000498200004982000054
:100080004982000049820000498200004982000044
:100090004982000049820000498200004982000034
:1000A0004982000049820000498200004982000024
:1000B000498200001D760000297600002D760000A0
:1000C000397600003D76000041760000498200004C
:1000D00049820000498200004982000049820000F4
:1000E00049820000498200004982000049820000E4
:1000F000498200008DA9000049820000E58E0000C1
:1001000049820000FD910000498200004982000000
:1001100049820000498200004982000049820000B3
:1001200049820000498200004982000049820000A3
:100130004982000049820000498200004982000093
:100140004982000049820000498200004982000083
:100150004982000049820000498200004982000073
:100160004982000049940000498200004982000051
:100170004982000049820000498200004982000053
:100180004982000049820000498200004982000043
:100190004982000049820000498200004982000033
:1001A0004982000049820000498200004982000023
:1001B000498200004982000049820000564B4CF2FF
:1001C000205210B51A804DF628121A8000BF00BFC9
:1001D00008F03EF8514B4FF010621A60504A9A6096
:1001E000504ADA60504A136813F4807304D14F49BF
:1001F0000B604FF4A85313604D4B1A78110703D5C9
:100200001A7842F008021A704A4B4B492A221A7097
:100210004A4A4B4B8B4204D252F8040F43F8040B6A
:10022000F8E7484B484900228B4202D243F8042B9E
:10023000FAE74649464A002352F8230041F82300D2
:1002400001336F2BF8D1434B434A802103F8011B44
:100250009342FBD1414B3D4A1A60414B8A221A70AE
:10026000A3F5805324225A70A0221A709A7992071B
:10027000FCD59A79D406FCD43A4A937903F00C035E
:10028000082B384BF9D103221A7140225A719A79FE
:100290009006FCD5334A9179324B4906FBD5324A58
:1002A000324911600221516020221A709A7902F0BD
:1002B0000C020C2AFAD12E4B2E4A1A602E4B2F4AD2
:1002C0001A6000225A60072243F8042C2C4AC3F813
:1002D0000C2D62B608F072FA144B1B68DA0705D5CC
:1002E000284808F04FF8284B284A1A60284B1B78FA
:1002F0005B0609D5244C254B22689A4204D121483B
:1003000008F040F8002323600CF044FE07F0A6FF3D
:100310000AF0FCF9FEE700BF0E20054030800440E3
:10032000823F04000100002B10D0034014D0034092
:1003300002D0074000E007402892FF1F042C010074
:100340002087FF1F2892FF1F20C5FF1F0082FF1F6D
:100350000000000000E400E05FE400E008ED00E0E1
:100360000050064000400640448004400000030165
:1003700004800440C010050014E000E0FF76010096
:1003800000002020B8E37A5C1CE00340A5C3945A27
:1003900000F00740FFFFFFFFFFFFFFFFFFFFFFFF32
:1003A000FFFFFFFFFFFFFFFFFFFFFFFFFFFFFFFF5D
:1003B000FFFFFFFFFFFFFFFFFFFFFFFFFFFFFFFF4D
:1003C000FFFFFFFFFFFFFFFFFFFFFFFFFFFFFFFF3D
:1003D000FFFFFFFFFFFFFFFFFFFFFFFFFFFFFFFF2D
:1003E000FFFFFFFFFFFFFFFFFFFFFFFFFFFFFFFF1D
:1003F000FFFFFFFFFFFFFFFFFFFFFFFFFFFFFFFF0D
:10040000FFFFFFFFFFFFFFFFFFFFFFFFDEF9FFFF23
:1004100010B5054C237833B9044B13B10448AFF33E
:1004200000800123237010BD2892FF1F00000000F0
:10043000002C0100084B10B51BB108490848AFF368
:1004400000800848036803B910BD074B002BFBD0A0
:10045000BDE81040184700BF000000002C92FF1FAD
:10046000002C01002892FF1F00000000F0B400F1F2
:100470001C06134F00243146031F00F13C0243F8D1
:10048000044FB34241F8047F4FF0000542F8044F97
:10049000F5D100230B4A0C4C056647F230514566F6
:1004A0008566C566C56744670267826780F88430E1
:1004B00080F8853080F89C30A0F8AE10F0BC704712
:1004C0000000A040000048430000C8C22DE9F041F0
:1004D00090F89C4084B0202364008DF80530E4B28D
:1004E000042380468DF804408DF80630032720460B
:1004F00008F020FE02210DF1050008F025FE8DF820
:10050000044001F063FD30B30921404809F0D0FCFC
:100510000023102221463E4809F070FF01213D488A
:1005200009F0C6FC002310229DF80510384809F098
:1005300065FF0121374809F0BBFC002310229DF81C
:100540000610334809F05AFF0121324809F0B0FC87
:100550002F4809F043FF02208DF8044008F0E0F82E
:1005600001F034FD00284CD102AE002408F002FE58
:1005700070B3072C1FD101E008F00CFE08F0FAFD63
:100580000028F9D101F022FD10B1214809F026FF21
:100590009DF80B009DF80C109DF80D209DF80E3075
:1005A000C8F88800C8F88C10C8F89020C8F89430B3
:1005B00004B0BDE8F08108F0EDFD054606F8010B3A
:1005C00001F004FD70B9013408F0D4FD0028D0D149
:1005D000072CD3D001F0FAFC78B9013FD8D09DF8B0
:1005E000044084E7E9B200231022094809F006FF1D
:1005F0000121084809F05CFCE5E7054809F0EEFE3A
:10060000EBE70721044809F053FCADE7581101005E
:10061000CC87FF1F7C1801006411010090F88C004A
:10062000704700BF90F88800704700BF90F89000B6
:10063000704700BF90F89400704700BF082994BF2E
:1006400050F82100002070472DE9F0410B4E804604
:10065000041F00F11C0754F8045F314628460CF0D3
:100660000FFC30B1D8F8801028460CF027FC00B100
:100670002E46BC42EFD13046BDE8F081000020415B
:100680002DE9F041D0F880704FF00008041F00F110
:100690001C0654F8045F394628460CF00FFC084944
:1006A00048B128460CF0ECFB414620B128460CF03E
:1006B00005FC00B1A846B442EBD14046BDE8F0814C
:1006C000000070422DE9F047D0F8807082464FF06C
:1006D0000009041F00F11C064FF0000854F8045FE5
:1006E000394628460CF0EAFB0C4950B128460CF07C
:1006F000C7FB30B1484629460CF01CF908F1010847
:100700008146B442EAD1CAF8A08040460CF0C6F94E
:10071000014648460CF0CAFABDE8F0870000704276
:10072000D0F8A000704700BF38B5846E456E2146F2
:1007300028460CF0A5FB00B92C46204638BD00BF6A
:10074000D0F898302DE9F041002B79D1866E456EB6
:100750000446314628460CF0EDF8E76E39468046EF
:100760000CF0E8F87E490CF0A1FA4FF07C510446F9
:100770000CF0A4FB002861D04FF07C5128460CF00F
:100780009DFB4FF07C51002860D128460CF078FB8F
:1007900038B14FF07C5130460CF090FB002840F00F
:1007A000A7804FF07C5128460CF088FB002860D1D0
:1007B0004FF07C5128460CF081FB002840F0A180CE
:1007C0004FF07C5128460CF079FB00286CD14FF09B
:1007D0007C5128460CF054FB4FF07C5110B330464E
:1007E0000CF06CFB38B14FF07C5138460CF048FBF4
:1007F000002840F0B0804FF07C5130460CF040FBB8
:10080000002861D04FF07C5138460CF057FB00288F
:1008100040F0A38038464FF07C510CF031FB68B1BA
:10082000504C10E028460CF02BFB0028E3D1284662
:100830004FF07C510CF024FB002845D1BDE8F0813D
:1008400000EB8300046E2046BDE8F08130460CF0DA
:1008500035FB4FF07C5100283ED038460CF02EFB83
:100860000028F0D14FF07C5128460CF009FB0028FD
:1008700059D14FF07C5130460CF002FB002840D09B
:100880004FF07C5138460CF019FB002841D14FF055
:100890007C5130460CF012FB68B14FF07C51384669
:1008A0000CF0EEFA00284FD14FF07C5130460CF09E
:1008B000E7FA00288BD04FF07C5138460CF0E0FA74
:1008C000002884D02C46BEE730464FF07C510CF017
:1008D000D7FA0028B2D09DE728460CF0D1FA0028BC
:1008E000C7D04FF07C5130460CF0E8FA0028C0D059
:1008F0004FF07C5138460CF0E1FA00283FF451AF3C
:1009000018E04FF07C5130460CF0D8FA0028CBD0DC
:10091000C3E7394628460CF00DF84FF07C510CF037
:1009200011F904468FE74FF07C5138460CF0C6FAB7
:1009300000289ED0394630460BF0FCFF4FF07C512A
:100940000CF000F904467EE740464FF07C510CF075
:10095000F9F8044677E7344675E73C4673E700BF8D
:10096000000040400000A0C270B50446FFF7E8FE5A
:100970004FF07C510CF0A2FA28B3666E4FF07C5118
:1009800030460CF09BFAA56EF0B9E46E4FF07C5146
:1009900028460CF093FA58B1294630460CF08EFAEE
:1009A00030B1214628460CF06BFA08B12C4620E005
:1009B0004FF07C5120460CF081FA20B128462146A8
:1009C0000CF07CFA78B970BD304629460CF058FA24
:1009D000E46E0028DAD0304621460CF051FA0028A7
:1009E000D4D0344605E0304621460CF067FA0028A2
:1009F000E9D0204670BD00BF2DE9F04F02294FF02D
:100A0000000885B00746144680F8AC8000F0EC8002
:100A1000032900F08F80012956D0856E466ECDF8EF
:100A200004803846FFF7A0FF396F04460CF028FA1F
:100A300000B13C67314628460CF040FA002869D1E5
:100A40003146786F0CF01CFA08B135467D6707F126
:100A50001C0BA7F1040907F13C0A5D46C84656463F
:100A600058F8044F55F8040F21460CF027FA30B11E
:100A7000D7F8801020460CF017FA00B12C6056F819
:100A8000041F20460CF01AFA00B13460AA45E7D1E1
:100A9000019B002B45D08E4AD7F8A83012680392EC
:100AA0000399B7F8AE205B1A93420AD9002249F89D
:100AB000042FCB454FF00003F9D13B667B66BB6644
:100AC000FB6605B0BDE8F08F137AC0F8A430D37A86
:100AD000907A03EB00200BF0E1FF7E490CF032F836
:100AE0007866637B0646207B03EB00200BF0D6FF85
:100AF00078490CF027F8B866E37B0546A07B03EB4A
:100B000000200BF0CBFF73490CF01CF8CDF80480EB
:100B1000F86686E72946786F0CF0B2F9002895D17F
:100B200095E76B4B1B680293029BC7F8A83005B092
:100B3000BDE8F08F107A537A03EB00200BF0AEFF84
:100B400064490BF0FFFFD7F88050294606460CF0A9
:100B5000B5F928B1604930460CF092F900B13E6118
:100B6000E37AA07A03EB00200BF098FF59490BF0D1
:100B7000E9FF0646014628460CF082F928B156499D
:100B800030460CF07DF900B17E61637B207B03EB86
:100B900000200BF083FF4F490BF0D4FF06460146BF
:100BA00028460CF06DF928B14B4930460CF068F935
:100BB00000B1BE61E37BA07B03EB00200BF06EFF76
:100BC00044490BF0BFFF0446014628460CF058F993
:100BD00028B1414920460CF053F900B1FC610023D3
:100BE000BD6E7E6E01931CE7107A537A03EB0020F2
:100BF0000BF054FF37490BF0A5FFD7F8805029467A
:100C000006460CF05BF900284AD1012387F8AC3086
:100C1000E37AA07A03EB00200BF040FF2D490BF0A4
:100C200091FF0646014628460CF02AF900284AD0D2
:100C3000294930460CF024F9002844D07E60637BBB
:100C4000207B03EB00200BF029FF22490BF07AFFF9
:100C50000646014628460CF013F900282FD01E49FD
:100C600030460CF00DF950B3BE60E37BA07B03EB84
:100C700000200BF013FF17490BF064FF04460146F8
:100C800028460CF0FDF898B1134920460CF0F8F80E
:100C900070B197F8AC30FC60BD6E01937E6EC0E61B
:100CA0000D4930460CF0ECF80028AED03E60AFE7BE
:100CB0000123BD6E7E6E87F8AC300193B1E601234F
:100CC00087F8AC30D1E7012387F8AC30B7E700BF35
:100CD00028C2FF1F6F12833A000070422DE9F04FC7
:100CE00090F89C3091B007465B008DF80830FFF714
:100CF000EDFBD7F89000D7F89440D7F88C30D7F8B0
:100D0000882097F89C108DE81100C94801F064FA1A
:100D100030223D2303268DF809208DF80A300DF18D
:100D20000A059DF8089049F00108404608F002FACB
:100D30000DF10900022108F007FA8DF808804246FB
:100D400002AB00205040082410F0800F4FEA400012
:100D500018BF80F00700013CC0B2F5D19D4202D01F
:100D600013F8012FEEE708F0E5F901F02FF900285C
:100D700040F07C8202208DF8089007F0D1FC01F051
:100D800025F9002840F0B8820DF10C0AD146002464
:100D900008F0F0F9002843D0032C34D101E008F02A
:100DA000F9F908F0E7F90028F9D101F00FF910B1CD
:100DB000A04809F013FB312303268DF809308DF884
:100DC0000A609DF8089049F00108404608F0B2F921
:100DD0000DF10900022108F0B7F98DF808804246AC
:100DE00002AB00205040082410F0800F4FEA400072
:100DF00018BF80F00700013CC0B2F5D19D4228D059
:100E000013F8012FEEE708F0C5F909F8010B804649
:100E100001F0DCF868B9013408F0ACF90028BBD166
:100E2000032CBED001F0D2F878B9013E7FF479AF3F
:100E3000C1E75FFA88F1002310227E4809F0DEFA4C
:100E400001217D4809F034F8E5E77A4809F0C6FA4F
:100E5000EBE708F06FF901F0B9F8002840F0C58120
:100E600002208DF8089007F05BFC01F0AFF8002835
:100E700040F03D820DF10C09002408F07BF90028B8
:100E800044D0032C35D101E008F084F908F072F960
:100E90000028F9D101F09AF810B1664809F09EFADD
:100EA000342201238DF809208DF80A3003269DF89D
:100EB000089049F00108404608F03CF90DF109009E
:100EC000022108F041F98DF80880424602AB00206B
:100ED0005040082410F0800F4FEA400018BF80F007
:100EE0000700013CC0B2F5D19D4228D013F8012F74
:100EF000EEE708F04FF909F8010B804601F066F8BB
:100F000068B9013408F036F90028BAD1032CBDD0F5
:100F100001F05CF878B9013E7FF453AFC0E75FFAA7
:100F200088F100231022434809F068FA0121424861
:100F300008F0BEFFE5E73F4809F050FAEBE708F09C
:100F4000F9F801F043F8002840F00E8102208DF8F6
:100F5000089007F0E5FB01F039F8002840F0D68151
:100F60000DF10C09002408F005F9002800F0848038
:100F7000032C72D101E008F00DF908F0FBF800280D
:100F8000F9D101F023F810B12A4809F027FA01221B
:100F900012238DF809208DF80A304FF003089DF8D0
:100FA0000840204608F0C6F802210DF1090008F0BB
:100FB000CBF88DF8084001F009F830B309211F483B
:100FC00008F076FF0023102221461A4809F016FA8D
:100FD0000121194808F06CFF002310229DF8091028
:100FE000144809F00BFA0121134808F061FF0023AF
:100FF00010229DF80A100F4809F000FA01210E484E
:1010000008F056FF0B4809F0E9F906208DF8084072
:1010100007F086FB00F0DAFF002840F0728103AD94
:10102000002608F0A7F800283FD0162E2FD109E09F
:101030006C110100CC87FF1F7C18010058110100C2
:1010400008F0A8F808F096F80028F9D100F0BEFFE3
:10105000162600287DD1152035E008F09BF809F808
:10106000010B804600F0B2FF00285BD1013408F08C
:1010700081F800287FF47CAF032C3FF47EAF00F0B2
:10108000A5FF00286CD1013E7FF411AF7FE708F087
:1010900081F805F8010B044600F098FF00284DD1B7
:1010A000013608F067F80028BFD1162ECAD000F02C
:1010B0008DFF00284DD1B8F101087FF470AF701E8C
:1010C000002840F31E82002303AA1C4612F8011BCD
:1010D00008254C4014F0800F4FEA440418BF84F0F8
:1010E0000704013DE4B2F5D101338342EEDB9DF804
:1010F000218089484146224601F06EF8162EC146ED
:10110000A34602D1A04500F0138197F89C108348B4
:10111000CDF800B04B46324601F08CF8002011B0FB
:10112000BDE8F08F5FFA88F1002310227C4809F0B7
:1011300065F901217B4808F0BBFE97E7E1B2002387
:101140001022774809F05AF90121764808F0B0FEDC
:10115000A6E7734809F042F9162EACD11520B2E784
:101160006F4809F03BF98EE709216F4808F0A0FEAF
:101170002346102241466A4809F040F90121694896
:1011800008F096FE234610229DF80910644809F0E5
:1011900035F90121634808F08BFE102223469DF8A3
:1011A0000A105F4809F02AF901215E4808F080FE24
:1011B00021460DF10B0002AA12F8014B6140C9B2A1
:1011C000082311F0800F4FEA410118BF81F0070199
:1011D000013BC9B2F5D19042EED11022504809F03E
:1011E0000DF94F4809F0FAF8B0E609214E4808F029
:1011F0005FFE234610224146494809F0FFF80121CD
:10120000484808F055FE234610229DF8091044482E
:1012100009F0F4F80121434808F04AFE1022234661
:101220009DF80A103E4809F0E9F801213D4808F010
:101230003FFE21460DF10B0002AA12F8014B61405E
:10124000C9B2082311F0800F4FEA410118BF81F0A5
:101250000701013BC9B2F5D19042EED110223048CE
:1012600009F0CCF82E4809F0B9F8F9E509212E4823
:1012700008F01EFE234610224146294809F0BEF818
:101280000121284808F014FE234610229DF8091079
:10129000234809F0B3F80121224808F009FE102282
:1012A00023469DF80A101E4809F0A8F801211D48A0
:1012B00008F0FEFD21460DF10B0002AA12F8014BC9
:1012C0006140C9B2082311F0800F4FEA410118BFF5
:1012D00081F00701013BC9B2F5D19042EED1102255
:1012E0000F4809F08BF80E4809F078F842E507211D
:1012F0000E4808F0DDFDBDE507210C4808F0D8FDDB
:1013000042E50721094808F0D3FD88E60721074890
:1013100008F0CEFD24E600BFA0110100EC11010091
:10132000CC87FF1F7C1801005811010064110100D7
:101330009DF80C3097F89C20B3EB420F7FF4EEAE93
:101340009DF80D30012B7FF4E9AE9DF80E30122B85
:101350007FF4E4AE9DF810309DF80F0003EB002001
:101360000BF09CFB6F490BF0EDFBF96F3866044600
:101370000BF0A4FD00B1FC67B96F20460BF080FDB7
:1013800000B1BC67A7F1040907F1200607F1400589
:101390004FF008089AF806309AF8050003EB002091
:1013A0000BF07CFB60490BF0CDFB49F8040F316872
:1013B00004460BF065FD0AF1020A30B1D7F880103F
:1013C00020460BF071FD00B13460296820460BF017
:1013D00075FD043600B12C60B8F1010805F1040573
:1013E000D8D19DF81E309DF81D0003EB002002307F
:1013F0000BF054FB4D490BF059FC01464C480BF0E7
:1014000055FC4C490BF094FA4B490BF09BFB0546FD
:1014100009F006FC0446284609F002FC474909F099
:1014200071FC4749054620460BF08CFB45490BF003
:1014300081FA4549044628460BF084FB01462046C4
:101440000BF078FA01464FF07E500BF02FFC3F492D
:101450000BF06EFA9DF81F209DF82030786603EBA4
:10146000022009300BF01AFB39490BF01FFC014632
:101470002F480BF01BFC2F490BF05AFA2E490BF0AA
:1014800061FB054609F0CCFB0446284609F0C8FB81
:101490002A4909F037FC2A49054620460BF052FB41
:1014A00028490BF047FA2849044628460BF04AFB26
:1014B000014620460BF03EFA01464FF07E500BF0FD
:1014C000F5FB22490BF034FAB86604463846FFF7BC
:1014D0004BFA396F05460BF0D3FC00B13D677D6ECA
:1014E000204629460BF0EAFCA0B92946786F0BF09C
:1014F000C7FC08B12C467C67164800F06DFE012041
:101500000DE69DF82190144849464246C34600F036
:1015100063FEFAE5796F20460BF0D0FC0028EAD193
:10152000EAE700BF1357053B2003C83900160147FF
:101530000AD7E33FE17A644000007A44000040406B
:10154000A40D8F395A80473A46A6DB33339388433C
:10155000002C0147C4110100A01101002DE9F8433E
:101560000026D0F8808006668146044600F12007F8
:1015700054F8045B414628460BF0A0FC084950B1E2
:1015800028460BF07DFC30B1304629460BF0D2F9ED
:101590000646C9F86000BC42EAD13046BDE8F8838F
:1015A0000000704202299ABF00EB8100406E0020CB
:1015B000704700BF3E2998BF80F89C10704700BF5D
:1015C00090F88400704700BF90F88500704700BF16
:1015D000C0F89810704700BF80F88410704700BFB3
:1015E00080F88510704700BF30B5C0F8801083B018
:1015F00008460AF0FDFD074C022502460B46009501
:10160000204608F045FF204603B0BDE8304008F012
:10161000E5BE00BFCC87FF1F70B500F52D5506460F
:10162000383500F128042046B034FEF71FFFAC42E5
:10163000F9D106F1D805012428460021FFF7CCFF97
:10164000214628460134FFF7B5FF3F2C05F1B005D0
:10165000F2D142F6843400250548064A064B35553A
:10166000002130617161B261F361304670BD00BF2D
:1016700000007A44000048430000C8C270B500F57D
:101680002D56383600F1D804002507E00125204604
:101690000021B034FFF7A4FFB4420AD02046FFF780
:1016A0008FFF0028F3D02046FFF78EFF0028EDD1F2
:1016B00070BD284670BD00BF42F688332DE9F04169
:1016C000002200F52D5600F52E578046C2503836C0
:1016D000083700F1D80402E0B034B4420DD02046FF
:1016E000FFF76EFF0028F7D020463D68FFF718F897
:1016F000B0342844B4423860F1D142F6883358F807
:101700000300BDE8F08100BFF8B50E46096801F49A
:101710007F6500290446A5F5C06515DB2D0901F09C
:101720000F07B02303FB0544283420460121FFF7AF
:1017300053FF20460121FFF753FF3246394620462A
:10174000BDE8F840FFF758B90A4801F00F0708F064
:1017500045FE1221084808F0ABFB3168054801F04E
:10176000004100230A2208F049FE02482D0908F032
:1017700035FED6E7CC87FF1F3C1201002DE9F04370
:101780000446002383B0064644F8D83B012504E014
:1017900001353F2D04F1B00469D02046FFF710FF5A
:1017A0000028F5D0504800F017FD29464F4800F0BA
:1017B00013FD2046FFF792FA2046FFF7CFFE0AF00E
:1017C00017FD02460B464A4800F006FD2046FEF78C
:1017D0003BFF80462046FEF753FF074640460AF08F
:1017E00007FD8046384689460AF002FD42464B46D0
:1017F000CDE900013F4800F0EFFC00212046FFF753
:10180000D1FE012180462046FFF7CCFE0746404628
:101810000AF0EEFC8046384689460AF0E9FC42466A
:101820004B46CDE90001344800F0D6FC2046FFF7D6
:1018300095FE014630680BF07DF830602046FFF7DA
:1018400093F8B1690BF01CFB002833D12046FEF75A
:101850006BFFF1690BF032FB002899D02046FEF7B0
:1018600063FF01353F2DF06104F1B00495D170683C
:101870000BF014F9014630680BF018FA716930600A
:1018800004460BF01BFB00B17461316920460BF07C
:10189000F7FA00B134610B2006F00CFF42F68433F6
:1018A000F35C60B99BB142F684330122F25403B079
:1018B000BDE8F0832046FFF757F8B061C6E753B99B
:1018C00042F684330022F25403B0BDE8F0830B48A3
:1018D00000F0B0FCE7E70A4800F096FC42F68433DB
:1018E0000022F254F0E700BF38140100501201004A
:1018F0008C120100A0120100CC120100E8120100BC
:101900002013010070B5114B836000F52D5506467C
:10191000383500F1D80402E0B034AC4213D0204690
:10192000FFF74EFE0028F7D02046FEF78DFEB16887
:101930000BF0A6FA0028EFD02046FEF785FEB03463
:10194000AC42B060EBD1B06870BD00BF0000A040F9
:1019500070B5002300F52D550646C360383500F1FB
:10196000D80402E0B034AC4213D02046FFF728FE82
:101970000028F7D02046FEF783FEF1680BF09EFAB0
:101980000028EFD02046FEF77BFEB034AC42F0607A
:10199000EBD1F06870BD00BF0068704741607047D0
:1019A000F8B542F6903442F68C3301510F46164694
:1019B000C25000F1D804012504E001353F2D04F1A7
:1019C000B0041BD02046FFF7FBFD0028F5D02946C8
:1019D0000B4808F053FD0A4808F000FD782008F095
:1019E000EBFA20463946FFF7F3FD01352046314634
:1019F000FFF7FAFD3F2D04F1B004E3D1F8BD00BFBD
:101A0000CC87FF1F2DE9F84300F52D5542F67C33B6
:101A10002E4600278046C7504FF0000938353C3627
:101A200000F1D80402E0B034A54213D02046FFF7FD
:101A3000C7FD0028F7D03368013333602046FEF736
:101A40007FFE27490BF03AFA20BBB034A54207F1DC
:101A50000107EBD142F67C3358F80340E01B0BF052
:101A60001DF8014648460BF021F908F52E530546AE
:101A70001A6894420BD042F68C3242F690311C60C8
:101A800058F8022058F801104046FFF789FF284611
:101A9000BDE8F8832046FEF753FE014648460AF0AB
:101AA00049FF81462046FEF74BFED8F820100BF088
:101AB00005FA70B92046FEF743FED8F824100BF063
:101AC000DFF90028AFD02046FEF73AFEC8F8240020
:101AD000A9E72046FEF734FEC8F82000EAE700BF79
:101AE00000008CC2006A7047406A7047F8B500F584
:101AF0002D5507460026383500F1D80402E0B034F1
:101B0000AC420FD02046FFF75BFD0028F7D02046FF
:101B1000FEF7D8FD014630460AF00CFFB034AC4267
:101B20000646EFD142F67C33F8580AF0B7FF01467B
:101B300030460BF0BBF8F8BD2DE9F04F06468FB0EC
:101B400083488B4600F0F0FA814800F0EDFA8048B7
:101B500000F0EAFA42F67C333046F2580D92FFF775
:101B6000ABFD73680C93074630680AF041FB804672
:101B700030468946FFF7BAFF82463046B468F568BA
:101B8000FFF740FF0AF034FBCDE90A012146284661
:101B90000AF0CEFE6F490AF0D5FF0AF029FBCDE925
:101BA000080128460AF024FBCDE9060120460AF088
:101BB0001FFBCDE9040150460AF01AFB0D9A0C9B5D
:101BC000CDE90201CDE90089114663483A4600F0AB
:101BD000ABFA5F4800F0A8FAD8364FF001084FF092
:101BE000000A07E008F10108B8F13F0F06F1B0065E
:101BF00000F0A5803046FFF7E3FC0028F2D0304625
:101C0000FEF70CFD3046FEF70DFD3046FEF70EFDEB
:101C10003046FEF70FFD0821504808F049F94146CB
:101C20004F4808F02BFCB8F1090F40F38B800221DC
:101C30004C4808F03DF93046FFF790FC0AF0D8FA1E
:101C40005FFA8BF902460B46CDF80090444808F045
:101C50001FFC0121444808F02BF95546002420E0E0
:101C60000621424808F024F929463D4808F006FCC0
:101C700002213F4808F01CF921463046FEF7DEFC01
:101C80000AF0B6FACDF8009002460B46344808F048
:101C9000FFFB01340121344808F00AF9082C09D06F
:101CA0003D46092D05F10107DADC0121314808F034
:101CB000FFF8D5E72A4808F091FB09212E4808F0E3
:101CC000F7F800213046FFF76DFC0AF091FA022484
:101CD00002460B460094224808F0DAFB0A21274806
:101CE00008F0E6F801213046FFF75CFC0AF080FAC4
:101CF000009402460B461A4808F0CAFB0A21204805
:101D000008F0D6F821463046FFF74CFC0AF070FA8E
:101D1000009402460B46124808F0BAFB012119480C
:101D200008F0C6F808F101080D4808F057FBB8F1B3
:101D30003F0F0AF1080A06F1B0067FF45BAF0FB05F
:101D4000BDE8F08F01210B4808F0B2F86FE700BF43
:101D50003814010000007A44D0150100701601000B
:101D6000CC87FF1FA02401007C1601008016010013
:101D70006C1801007C1801008816010094160100FF
:101D8000A0160100AC1601002DE9F04F85B000F15E
:101D9000D8058A4603929B462E464FF0010806E07E
:101DA00008F10108B8F13F0F06F1B0067BD03046CC
:101DB000FFF706FC0028F3D000230A2251467D4895
:101DC00008F01CFB01217C4808F072F803980AF027
:101DD0000FFA00230246009376480B4608F058FBA2
:101DE0000121754808F064F85946724808F046FB2E
:101DF0000121714808F05CF841466E4808F03EFB4E
:101E000001216D4808F054F800244FF002092146E2
:101E10003046FEF713FC0AF0EBF9CDF800900246CD
:101E20000B46644808F034FB01340121624808F095
:101E30003FF8082C4FF00207E9D100213046FFF7A8
:101E4000B1FB0AF0D5F9009702460B46594808F055
:101E50001FFB0121584808F02BF801213046FFF7FD
:101E6000A1FB0AF0C5F9009702460B46514808F05D
:101E70000FFB0121504808F01BF839463046FFF7A8
:101E800091FB0AF0B5F9009702460B46494808F065
:101E9000FFFA08F10108474808F0A0FAB8F13F0F2F
:101EA00006F1B00683D101274FF0000904E00137A5
:101EB0003F2F05F1B00579D02846FFF781FB0028B8
:101EC000F5D000230A2251463C4808F097FA012138
:101ED000394806F003FF03980AF08AF9CDF800901C
:101EE00002460B46354808F0D3FA0121324806F085
:101EF000F5FE5946314808F0C1FA01212E4806F096
:101F0000EDFE39462D4808F0B9FA01212A4806F0BD
:101F1000E5FE00244FF0020821462846FEF78EFB1E
:101F20000AF066F9CDF8008002460B46234808F017
:101F3000AFFA01340121204806F0D0FE082C4FF002
:101F40000206E9D100212846FFF72CFB0AF050F9E0
:101F5000009602460B46194808F09AFA01211648E5
:101F600006F0BCFE01212846FFF71CFB0AF040F9F1
:101F7000009602460B46114808F08AFA01210E48E5
:101F800006F0ACFE31462846FFF70CFB0AF030F9AC
:101F9000009602460B46094808F07AFA01370748CE
:101FA00008F01CFA3F2F05F1B00585D105B0BDE85A
:101FB000F08F00BFCC87FF1FB0160100BC87FF1F4A
:101FC000014B1870704700BF2087FF1F024B187825
:101FD000B0FA80F0400970472087FF1F0278002A7E
:101FE00000F0908070B5034682B00D46252A2AD1B4
:101FF00058785C1C08B325282FD0732831D064286A
:1020000024D0692822D066284FD07A2859D0782841
:1020100035D058282FD062283ED0422838D06C289E
:1020200014D0632812D0742857D054285FD007F0FA
:10203000C3FF6278631C002AD8D1344802B0BDE8DF
:10204000704008F0CBB918781C46F0E72B1D2968C2
:102050002E481D4608F012FAEBE7104607F0ACFFD9
:10206000E7E72E6830460BF08BFD0146304604351D
:1020700007F01EFFDDE70221254807F019FF2E1D9E
:102080002968224800231022354608F0B7F9D0E726
:102090000221204807F00CFF2E1D29681B48002351
:1020A0000222354608F0AAF9C3E7073525F00705EF
:1020B0000321D5E9002315480091083508F0E8F917
:1020C000B7E7073525F007050021D5E900230F48BC
:1020D0000091083508F0DCF9ABE7296801290EBF4B
:1020E0000D480E480121043507F0E2FEA1E72B68F8
:1020F000012B07BF04210A480A480521043507F0CF
:10210000D7FE96E7014808F069B900BFCC87FF1FEA
:10211000B4160100B8160100BC160100C01601007B
:10212000C4160100CC1601000FB400B583B004A999
:1021300051F8040B0191FFF751FF03B05DF804EB78
:1021400004B0704770B51B4B1B4C1B6882B00D462A
:102150000193019B23601946044600231646174845
:102160000A2208F04BF90321154807F0A1FE032CC1
:1021700007D8DFE804F01A1510020521114807F00E
:1021800097FE0221104807F093FE31462846FFF7DC
:1021900025FF02B070BD07210C4807F089FEF0E76B
:1021A00004210B4807F084FEEBE70521094807F0FE
:1021B0007FFEE6E728C2FF1F4492FF1FCC87FF1F68
:1021C000D4160100F01601006C180100E816010099
:1021D000E0160100D81601000FB400B5094B1878BD
:1021E00083B020B103B05DF804EB04B0704705ABD9
:1021F0001A4604990193FFF7A5FF03B05DF804EBBD
:1022000004B070472087FF1F0FB4094B00B51B783F
:10221000012B83B004D903B05DF804EB04B0704720
:1022200005AB1A46049901930120FFF78BFFF2E7F3
:102230002087FF1F0FB40B4B00B51B78032B83B017
:1022400004D903B05DF804EB04B0704705AB1A463F
:10225000049901930320FFF775FF03B05DF804EBC9
:1022600004B070472087FF1F2DE9F84F994C9A481A
:10227000FFF7C8FBE16A0AF003FE002851D0974E31
:10228000974D002333602B60964B93481B68914F0A
:10229000012B5ED0FFF75CFBE169804660690AF0C4
:1022A00047FB014640460AF009FE002865D18A48EE
:1022B000FFF74EFBE1680AF001FE08B100232B6036
:1022C0008548844FFFF71EFB21690AF0D9FD58B1FC
:1022D000002333602B68824A002B01DBBDE8F88FB6
:1022E00000231360BDE8F88F7B48FFF70BFBB9694B
:1022F0000AF0C6FD0028EBD17748FFF703FBD7F8BB
:10230000B8100446B8690AF015FB014620460AF0E9
:10231000D5FD002800F08480786E30600028D7DB7F
:10232000D8E76D48FFF76EFB216B0AF0A9FD002886
:1023300051D16948FFF766FB616B0AF0A1FD0028E7
:1023400000F09380654E664D626EE36D32602B60E7
:102350009AE7FFF7FDFAE1698046206A0AF0E8FA99
:10236000014640460AF0AAFD0028A0D05A48FFF7CF
:10237000EFFAD7F82090834605E05748FFF7E8FAD0
:10238000D7F814908346F96948460AF0D1FA824694
:10239000F86D0AF083FB8046386E0AF07FFB4146F9
:1023A0000AF0C6FA5146074658460AF0C1FA0146F5
:1023B00038460AF0C7FB5146074648460AF0B8FAC5
:1023C000014638460AF072FC41460AF0B3FA0AF0B8
:1023D00095FD28606BE7414E636E3F483360FFF721
:1023E00011FB8146E06DE76A3D4D0AF057FB394627
:1023F000804648460AF09CFA014640460AF0A2FB95
:1024000039468046206B0AF093FA014640460AF0AE
:102410004DFC00210AF08EFA0AF070FD286033E7C7
:102420002D48FFF76FFA8146F86DBC690AF036FB5C
:102430002146804648460AF07BFA014640460AF0AB
:1024400081FBD7F8B810804620460AF073FA21467F
:102450000AF06EFA014640460AF028FC00210AF014
:1024600069FA0AF04BFD306058E71B48FFF7CAFADB
:10247000A16A0AF005FD00283FF401AF1648174E87
:10248000174DFFF7BFFA8146606ED4F834800AF02A
:1024900005FB4146074648460AF04AFA3946814656
:1024A00000200AF045FA014648460AF04BFB414637
:1024B0008146A06A0AF03CFA014648460AF0F6FB5B
:1024C00039460AF037FA0AF019FDE36D30602B60E7
:1024D000DAE600BF3493FF1FE094FF1FA494FF1FB0
:1024E0005092FF1F6C92FF1FF8B53A483A4F3B4D90
:1024F0003B4E3C4CFFF718FE3B4B3C493C4A3D48A9
:102500005960DA603C491F6100223C4F58615D62AE
:102510003B489E614FF07C553A4E9C623A4CD962E2
:102520001A630C21394A5F639863394F5D6440F642
:102530001C400A259E64DC6441F204065A24196595
:102540001A6202210122C3F8B8709866314FDD6625
:10255000002064251E675C674FF49676322459701C
:1025600059721A725A65DF61DF6383F840005E6654
:10257000DE651C664FF47A7E9D65274F9867274E6F
:10258000D967C3F88000C3F89440C3F8A040C3F8EB
:102590009C00FF24C3F8A820C3F8AC10052041F22A
:1025A000883183F8BC2040F2D662C3F8B050C3F83B
:1025B00098E0C3F88870C3F88C60C3F8A440A3F80F
:1025C000B600C3F89010A3F8B410A3F88420A3F8C1
:1025D0008620F8BDF816010000004040CDCCCC3D6F
:1025E000CDCC4C40000082423493FF1F20A1070055
:1025F0006666864033338340000020C100002042DD
:102600000000A0409A9979400AD7233D33337340A4
:102610009A99993ECDCC4C3E0000684200C02044BF
:10262000F0B54FF47A6085B006F07AF800210F20FB
:1026300006F04EF800210E2006F04AF80021112085
:1026400006F046F80021102006F042F80021122082
:1026500006F03EF80021132006F03AF801210B2085
:1026600006F036F801210C2006F032F80121142082
:1026700006F02EF80121152006F02AF80121162077
:1026800006F026F80121172006F022F80121052086
:1026900006F01EF88B4C8C4D0121062006F018F830
:1026A00001210D2006F014F820880AF0F3F9014604
:1026B000162005F077FF20880AF0ECF90146172074
:1026C00005F070FF20880AF0E5F90146052005F0C5
:1026D00069FF20880AF0DEF900240146062005F093
:1026E00061FF00942346794A79497A4804F03EFC18
:1026F000E6B232467449774804F0E6FB2B7972491A
:1027000074486FF30003013432462B7104F0D2FB9E
:10271000082CEDD10924E6B232466B496D4804F02D
:10272000D3FB2B7968496B4843F0010301343246EF
:102730002B7104F0BFFB0D2CEDD1674C4FF0FF3235
:102740002068102104F0DEFF20684FF0FF321021D6
:1027500004F0B0FF20684FF0FF32022104F0BEFF0A
:1027600020684FF0FF32022104F0C2FF00220F2147
:10277000206804F0D1FF0C21584807F099FB584815
:1027800007F02CFE1421574807F092FB544807F03D
:1027900025FE534807F022FE1721534807F088FB17
:1027A0004F4807F01BFE514B1B789A0600F1B8808A
:1027B0004E4B1B781B0700F1BF804C4B1B785F070B
:1027C00000F1C680494B1B789E0700F1CD80484B35
:1027D0001B781D0600F1D480454B1B785C0600F188
:1027E000DB80434B1B78980600F1E280404B1B785E
:1027F000590700F1E9803E4B1B781A0700F1F08081
:102800003B4B1B789B0700F1F780354807F0E6FD4E
:1028100072B6384A4CF220534DF62811202413800A
:1028200023461180013BFDD1334D34483449002308
:102830004FF480562E8003800B8032F80E3C9BB202
:1028400043F0D30322F80E3C62B69D2006F022FC32
:1028500021462C482C4D07F02BFB214807F0BEFDEC
:1028600005F1C0062F462C46601B05F037FC04F826
:10287000010BB442F8D13B78102B01D0FFF734FEA6
:102880000420FFF79DFB214B002201210D201A603F
:1028900005F00AFF796D1E48FFF780F87A6C97F80B
:1028A00040101B48FFF77CF81A4B1B491A6803922B
:1028B00003981B680293029A184B08601A6005B0CF
:1028C000F0BD00BF2887FF1FFC93FF1F1CC2FF1F26
:1028D00020A1070080C0FF1FAC94FF1F1817010044
:1028E000CC87FF1F281701004017010001F00740A7
:1028F00000F007400E20054004200540062005405A
:1029000016200540441801003493FF1F5C92FF1FFE
:10291000E094FF1F28C2FF1FDC94FF1F0494FF1FD9
:102920002121394807F0C4FA384807F057FD384BE1
:102930001B781B077FF541AF0C21364807F0B8FA2A
:10294000324807F04BFD324B1B785F077FF53AAFFB
:102950000E21314807F0ACFA2C4807F03FFD2C4B14
:102960001B789E077FF533AF17212C4807F0A0FA9C
:10297000264807F033FD2A4B1B781D067FF52CAF48
:102980000E21284807F094FA204807F027FD244B31
:102990001B785C067FF525AF1221234807F088FAE3
:1029A0001A4807F01BFD1E4B1B7898067FF51EAFDB
:1029B00013211E4807F07CFA144807F00FFD184B4E
:1029C0001B7859077FF517AF1C21194807F070FADB
:1029D0000E4807F003FD124B1B781A077FF510AF66
:1029E0001921144807F064FA084807F0F7FC0C4B6B
:1029F0001B789B077FF509AF18210F4807F058FA9D
:102A0000024807F0EBFC00E758170100CC87FF1FD6
:102A100001F007407C1701008C1701009C17010092
:102A200000F00740B4170100C4170100D8170100D7
:102A3000EC1701000C1801002818010070B5464C75
:102A4000464D4748E66800232B70FEF781FF01469C
:102A500030460AF015FA08B104232B704048FEF7FF
:102A600051FF21690AF00CFA18B12B7843F01003DA
:102A70002B703B48FEF7C6FFA16A0AF01FFA18B197
:102A80002B7843F040032B70002335486B70FEF722
:102A9000B9FFE16A314E0AF0F3F908B1012373700E
:102AA00000232F48EB70FEF753FF05462C482B4EB2
:102AB000FEF728FF0146284609F03AFFE16B0AF0CD
:102AC000FDF908B10123F370264D254800232B7032
:102AD000FEF73EFF616A0646E06809F029FF0146FD
:102AE00030460AF0EBF908B104232B701C48FEF7BE
:102AF00009FF616A0646206909F01CFF014630465D
:102B00000AF0BEF918B12B7843F010032B7014486B
:102B1000FEF778FFA16B0646A06A09F009FF01469F
:102B200030460AF0CBF918B12B7843F040032B70F4
:102B300000230B486B70FEF765FFA16B0546E06A4A
:102B4000084C09F0F7FE014628460AF099F908B149
:102B50000123637070BD00BF3493FF1F3093FF1FCC
:102B6000E094FF1F9C94FF1F2DE9F0417C4C2368EB
:102B7000012B82B031D0022B00F0A880032B00F093
:102B8000C8803BBB774B784AD3F8A010D3F8A43069
:102B900012685B1A632B0EDD744803FB02F380FBA3
:102BA0000302DB17C3EB62131944062002B0BDE831
:102BB000F04105F0F9BB6E4803FB022380FB0302E2
:102BC000DB17C3EB22121144062002B0BDE8F0412E
:102BD00005F0EABB02B0BDE8F081664E33680A3307
:102BE000B3F57A7F00F3B7801846336009F056FFDB
:102BF000614909F0A7FF80465A4DD5F8A00009F0B9
:102C00004DFF0746D5F8A40009F048FF394609F002
:102C10008FFE414609F096FF58490AF047F83946B9
:102C200009F088FE0AF06AF90146062005F0BCFBAF
:102C30000221534807F03CF9524807F0CFFB062128
:102C4000514807F035F9306809F028FF4A4909F082
:102C500079FF09F0CDFA022702460B460097494852
:102C600007F016FC0D21494807F022F9D5F8A0001D
:102C700009F014FF8046306809F010FF3E4909F062
:102C800061FF0646D5F8A40009F008FF414609F0A7
:102C90004FFE0146304609F055FF38490AF006F864
:102CA000414609F047FE09F0A3FA00970B46024699
:102CB000344807F0EDFB3946314807F0F9F8314860
:102CC00007F08CFB2368022B7FF458AF294B254E6D
:102CD00000221A60D6F8A00009F0E0FE0546D6F8FA
:102CE000A40009F0DBFE294609F022FE002109F0CC
:102CF00029FF224909F0DAFF294609F01BFE0AF0F4
:102D0000FDF80146062005F04FFB2368032B7FF4F6
:102D100038AF184B134E4FF47A721A60D6F8A000F1
:102D200009F0BCFE0546D6F8A40009F0B7FE294616
:102D300009F0FEFD114909F005FF104909F0B6FF41
:102D4000294609F0F7FD0AF0D9F80146062005F0FA
:102D50002BFB236815E700234FF0000833604BE797
:102D60008894FF1F3493FF1F3487FF1F1F85EB518B
:102D7000CBF08D286092FF1FCDCCCC3D0000C84227
:102D8000A0240100CC87FF1F681801007018010003
:102D900070B5A248A24C07F021FBA04807F01EFB2B
:102DA0009E4807F01BFB0D219E4807F081F8D4F8E0
:102DB0009C30012B11D09C4C9848217800230A228A
:102DC00007F01CFB2378052B67D8DFE813F0E90038
:102DD000EE00F300F800FD00E4000921934807F03D
:102DE00067F89348FEF78EFD21690AF049F818B19B
:102DF0000F21904807F05CF88D48FEF7A9FDE168C7
:102E00000AF05CF818B10E218B4807F051F8884899
:102E1000FEF79EFD05468648FEF774FD01462846EE
:102E200009F086FDE16B0AF049F818B111218348D9
:102E300007F03EF87E48FEF7E5FDA16A0AF03EF88D
:102E400018B10C217E4807F033F87948FEF7DAFD17
:102E5000E16A0AF015F818B10D217A4807F028F850
:102E6000794B73481B68012B00F0C280FEF74AFDC6
:102E700021696B4D0AF022F878B16D48FEF768FDC4
:102E8000E96809F0FDFF40B1674B1B78052B00F0A6
:102E9000C08008216D4807F00BF802216C4807F04C
:102EA00007F8122005F006FC012800F09C80112094
:102EB00005F000FC012800F09180664B1B68012B97
:102EC00000F087800221624806F0F2FF624B53480F
:102ED000196807F0D3FA514807F080FA04215F48D7
:102EE00006F0E6FF0B2005F0E5FB002301460A2271
:102EF0004A4807F083FA0C2005F0DCFB002301466A
:102F00000A22464807F07AFA142005F0D3FB002382
:102F100001460A22414807F071FA152005F0CAFB64
:102F2000002301460A223D4807F068FA06214C4872
:102F300006F0BEFF4B4B394819680222002307F008
:102F40005DFA0421484806F0B3FF112005F0B2FBFA
:102F5000002301460A22314807F050FA102005F0FC
:102F6000A9FB002301460A222C4807F047FA122049
:102F700005F0A0FB002301460A22284807F03EFA8C
:102F8000132005F097FB002301460A222348BDE8E1
:102F9000704007F033BA0721344806F089FF7CE718
:102FA0000621334806F084FF77E70721314806F011
:102FB0007FFF72E70721304806F07AFF6DE70821AE
:102FC0002E4806F075FF68E70B212D4806F070FFCC
:102FD00063E711212B4806F06BFF73E70A212A48AB
:102FE00006F066FF69E70E21284806F061FF5EE7FC
:102FF000FEF788FC216A09F061FF00283FF449AF21
:103000001621234806F054FF0A21224806F050FFFB
:1030100043E70A211F4806F04BFF3EE7CC87FF1F1E
:103020003493FF1F801801009894FF1F901801002F
:10303000E094FF1F9C180100AC180100BC180100AF
:10304000D0180100E01801006C92FF1F1419010054
:10305000A0240100B494FF1F8C94FF1F8819010065
:1030600090190100F493FF1F9819010050190100F5
:1030700020190100281901003C1901004419010020
:103080003019010074190100681901005819010074
:10309000F0180100081901002DE9F04F934C944FEE
:1030A000E36F012B8DB000F04981032B50D0914E7E
:1030B000914DA36F9148012B09BF2968296801F13F
:1030C0000041296004F0FCFE3368002B40F0CE8004
:1030D0008A4804F0CBFEE36F3860012B064600F00F
:1030E000D280874909F0EAFE78B98649304609F06E
:1030F000C7FE50B9844A854B12680B920B9A1A602E
:1031000000232B600DB0BDE8F08FDFF8FC817F4C11
:10311000D8F800300A930A9823687D4FC01A09F046
:10312000B9FC314609F00EFD7A4909F0BFFD794935
:1031300009F0BCFD396809F0FDFBD8F800300993AF
:10314000099B2360002338602B600DB0BDE8F08F31
:10315000DFF8C881704DD8F80000664E01230022C8
:103160000F212B6004F0D8FA2B68012B336800F094
:103170000381002B40F0A6810021D8F80000DFF881
:10318000B891664D04F01AFB33681FFA80FBC9F84A
:1031900000B0002B40F07B810021D8F80000564D94
:1031A000DFF878A104F090FAB4F8863040F6E441F4
:1031B00001FB0BF1B1FBF0F0C01A00B209F06EFC9C
:1031C00057498346D4F8880009F0BCFC01465846AC
:1031D00009F06CFDD9F800302860632BDFF858B196
:1031E00000F3498100232B603368002B3FF461AF6B
:1031F00002214C4806F05CFED9F80020D8F8000007
:1032000040F6E443002103FB02F804F05DFAB8FB4A
:10321000F0F009F03FFC8046B4F8860009F03EFC6F
:103220000146404609F084FB08F0E2FF4FF0020837
:1032300002460B46CDF800803B4807F029F941468D
:10324000384806F035FE286808F0D2FFCDF8008037
:1032500002460B46344807F01BF94146334806F056
:1032600027FE41462F4806F023FE22E7234804F0BC
:10327000FDFD08F0BDFF022602460B4600962A48D7
:1032800007F006F924E7244B1B68012B00F0268188
:10329000022B7FF435AF264909F010FE30B92549DD
:1032A000304609F0EDFD002800F04781DFF8588036
:1032B000164CD8F80030079307982368144FC01AAB
:1032C00009F0E8FB314609F03DFC124909F0EEFC3B
:1032D000104909F0EBFC396809F02CFBD8F80030F4
:1032E0000693069B386023600AE700BF3493FF1FF4
:1032F0007892FF1FD894FF1F6892FF1F0C93FF1F47
:103300000000FA430000FAC328C2FF1FA894FF1F61
:103310008492FF1F00007A445087FF1FAC94FF1F68
:1033200017B7D138A0240100CC87FF1FDC1901009A
:1033300000C82F4800A08CC62C93FF1F3D689849F9
:10334000284609F09DFD30B12846964909F0B6FDA2
:1033500000287FF4FDAEDFF85882934DD8F80000C6
:10336000924E022300220E212B6004F0D5F92B6827
:10337000012B33687FF4FDAE002B40F0008100216B
:10338000D8F80000DFF86C92894D04F017FA336822
:103390001FFA80FBC9F800B0002B40F0D580002157
:1033A000D8F80000834D04F08FF9B4F8843040F66B
:1033B000E44A0AFB0BFBBBFBF0F0C01A00B209F0B9
:1033C0006DFB7D498346D4F88C0009F0BBFB0146B8
:1033D000584609F06BFCD9F8003028600021D8F875
:1033E00000000AFB03FA04F06FF9B4F88430BAFB6A
:1033F000F0F00FFA80FAC3EB0A03002BB4F8B62002
:10340000B8BF5B429342BCBF00232B603368002BE4
:103410003FF44FAE0221694806F04AFDD9F800207A
:10342000D8F8000040F6E443002103FB02F804F062
:103430004BF9B4F88410B8FBF0F000B2411A6048C0
:1034400007F01CF802215D4806F032FD286808F0FC
:10345000CFFE4FF0020802460B46CDF800805848D8
:1034600007F016F80321574806F022FD414653485D
:1034700006F01EFD1DE6DAF80000002104F024F934
:10348000DBF8003064389842FFF4ACAEACE60021C3
:10349000286804F019F940F6E44100230A2201FBF0
:1034A0000BF1B1FBF0F1464806F0A8FF02214348BA
:1034B00006F0FEFCB4F88610414806F0DFFFD9F8AC
:1034C00000B069E63E4806F089FF0C213E4806F050
:1034D000EFFC0C213D4806F0EBFC4DE63C4909F0C1
:1034E000EDFC58B93B49304609F0CAFC30B93A4ABC
:1034F0003A4B12680592059A1A6001E6DFF8D88007
:10350000364CD8F80030049304982368344FC01A1E
:1035100009F0C0FA314609F015FB324909F0C6FB43
:10352000304909F0C3FB396809F004FAD8F80030D3
:103530000393039B38602360E2E5274A274B126818
:103540000892089A1A60DBE50021286804F0BCF8AC
:1035500040F6E44100230A2201FB0BF1B1FBF0F13C
:10356000174806F04BFF01211F4806F0A1FCB4F8F4
:103570008410134806F082FFD9F800B00FE7104816
:1035800006F02CFFE36F012B4FF00B010CBF174827
:10359000174806F08DFC0C210C4806F089FCEEE67D
:1035A00000709446007094C65087FF1FD894FF1F88
:1035B000AC94FF1F6892FF1F17B7D138A0240100F9
:1035C000CC87FF1FC8190100CC190100B8190100F0
:1035D0000000FA430000FAC328C2FF1FA894FF1F8F
:1035E0008492FF1F00007A447C180100A01901009A
:1035F000AC1901002C93FF1F2DE9F047B24D2B6849
:1036000084B0002B7ED0B14CDFF8C882B04EE36F9F
:10361000AE4D012B00F08F80D4F88030AB4F012BE2
:1036200000F0BC80D6F80090D7F858A07D6DA94F67
:1036300005FB0AF54FF47A7000FB05F009F02EFA4D
:10364000A5490546484609F07DFA294609F02EFBB2
:10365000A24909F077FA09F051FC6328C8F8000084
:103660004BDD28469C4909F021FB642330603B6018
:103670009B4B1B68002B3DD0E36F944D012B00F05A
:10368000BB80032B00F00981022B00F00C8102218A
:10369000944806F00DFC944B186808F0A9FD02242C
:1036A00002460B460094914806F0F2FE21469048EF
:1036B00006F0FEFB21468B4806F0FAFBD8F8001016
:1036C0008A4806F0DBFE06218A4806F0F1FB3068E6
:1036D000814909F037FA08F08BFD009402460B4649
:1036E000824806F0D5FE0321834806F0E1FB7F48BF
:1036F00006F074FE04B0BDE8F0870028BCBF0023CC
:103700003B60B5E77D4E714C33680293029A42F2FA
:1037100028339A4200F2BA8033680393039A42F244
:1037200010739A4274D8E36FDFF8A881684E674D32
:10373000012B7FF471AF7248FEF7D8F97149D5F8C3
:103740006890EF6E09F0FEF909F0FEFB2A6F6B6FCF
:10375000C9EB0202DB1B80B29A42C9EB000040F3C6
:10376000AD8003FB0000531C90FBF3F31F44A06DDE
:10377000636DC8F8007000FB07F003FB00F000EB7E
:103780008000400009F08AF95349504F09F08EFA41
:10379000D4F880303060012B7FF444AF5848FEF7F6
:1037A000A5F95849D7F86890FD6E09F0CBF909F0F2
:1037B000CBFB3A6F7B6FD4F858A0C9EB02025B1BBE
:1037C00080B29A42C9EB0000C6BF03FB0000013281
:1037D000584390FBF2F02844656D00FB0AF005FBAE
:1037E00000F000EB8000400009F058F93A4909F078
:1037F0005DFA814630601AE7434B1B68012B4FF09E
:103800000A010CBF4148424806F052FBEB6F38E713
:103810003B48FEF76BF93B49A76EE66E09F092F95B
:1038200009F092FB226F636FD21B9B1B80B29A42FE
:10383000A0EB07003CDD03FB0000531C90FBF3F3FF
:103840009819A26DDFF88C80636DC8F8000002FB48
:1038500000F003FB00F000EB8000400009F01EF9CF
:103860001D491B4E09F022FA0123306002211D4838
:103870002B6006F01DFB1D4806F0B0FD59212548C0
:1038800006F016FB194806F0A9FDC0E61C48626C5C
:1038900094F84010FEF784F83EE710211E4806F029
:1038A00007FBE36FF0E607211C4806F001FBEEE69C
:1038B00003FB00F393FBF2F39819C2E703FB00F359
:1038C00093FBF2F31F4452E76492FF1F3493FF1FF0
:1038D0008492FF1F3487FF1FE4388E3E0000C842E9
:1038E0003C87FF1FA02401007892FF1FCC87FF1F99
:1038F000DC190100701A0100781A010028C2FF1FAC
:10390000E094FF1F00007A445087FF1F3C1A01001B
:10391000481A0100E0190100541A0100681A010058
:1039200030B5112083B004F0C5FE012818D0122054
:1039300004F0C0FE012813D000210B2004F0B4FED7
:1039400000210C2004F0B0FE0021152004F0ACFE94
:103950002649274B0120002208701A6003B030BDB1
:103960000121152004F0A0FE224A234C234B1268AB
:10397000D4F8901001921B68019A1D4D0B4493429C
:103980004FF00201296005D901210C2004F08CFEC2
:1039900003B030BDD4F8980009F080F8184B1968CE
:1039A00009F06EFA0028EFD101210B2004F07CFE13
:1039B00094F8BC3003242C6043B10C4B02221A70E3
:1039C00000210C2004F070FE03B030BD122004F082
:1039D00071FE012808BF054B4FF0110008BF1C7095
:1039E00004F068FE0128EBD1E7E700BF9894FF1FC1
:1039F000D494FF1F28C2FF1F3493FF1FDC94FF1FC6
:103A00007892FF1FF0B5684E684D34682B689C4271
:103A100087B039D014F0010155D014F0020149D01B
:103A200014F004013DD0E3070ED52B68DF070BD45B
:103A30005F4F3A68002A00F082805E4B1B6801935A
:103A4000019B93426DD83468A0070DD52B68990768
:103A50000AD4594F3A68002A4CD0564B1B6803933E
:103A6000039B934238D8346862070DD52B685B07F7
:103A70000BD4524F3A68002A7ED04E4B1B680593F8
:103A8000059B934268D834680CB107B0F0BD21465D
:103A9000162004F089FC2146172004F085FC07B0AD
:103AA000F0BD052004F080FC2B68346803F0FB03B4
:103AB0002B60B8E7172004F077FC2B68346803F01C
:103AC000FD032B60ACE7162004F06EFC2B68346815
:103AD00003F0FE032B60A0E7394B1720D3F89410B6
:103AE00004F062FC2B68346843F0020300222B6070
:103AF0003A60B9E7334806F071FC0C21324806F011
:103B0000D7F9304806F06AFCFF21172004F04CFC7E
:103B1000284B2E4A19680291029912680A443A60A9
:103B20009CE7274B1620D3F8941004F03DFC2B683B
:103B3000346843F0010300222B603A6084E7FF21E0
:103B4000162004F031FC1B4B204A196800910099A3
:103B500012680A443A6071E7194B0520D3F89410B3
:103B600004F022FC2B68346843F0040300222B602D
:103B70003A60002C89D18AE7124806F02FFC0C210C
:103B8000134806F095F90F4806F028FCFF210520A0
:103B900004F00AFC074B0D4A196804910499126855
:103BA0000A443A606AE700BFD494FF1FF493FF1FF2
:103BB0006C94FF1F28C2FF1F7094FF1F7494FF1F97
:103BC0003493FF1FCC87FF1F7C1A01006887FF1FFB
:103BD0008C1A01002DE9F047544EDFF87481DFF8AC
:103BE00074913068524D00220F2103F095FD00239F
:103BF000012222214F48C8F80030C9F8002006F001
:103C000057F9D8F80030132B22DC40F6E4470021A6
:103C10003068B5F884A003F0D1FD00210446306877
:103C200003F052FDA4B2012107FB04F4B4FBF0F44D
:103C300041485444A5F8844006F03AF9642004F061
:103C40006FFDD8F800300133132BC8F80030DEDDEB
:103C5000B5F88430394A3A48A2FB03129B1A02EBAA
:103C60005303C3F30F131946A5F8843006F006FC7E
:103C70001D21344806F01CF90221334806F018F9DA
:103C80002F4806F0ABFB00231A460E213068C8F817
:103C9000003003F041FD022322212648C9F80030FC
:103CA00006F006F9D8F80030132B22DC40F6E44782
:103CB00000213068B5F8869003F080FD00210446AD
:103CC000306803F001FDA4B2012107FB04F4B4FB4A
:103CD000F0F419484C44A5F8864006F0E9F8642051
:103CE00004F01EFDD8F800300133132BC8F8003063
:103CF000DEDDB5F88630114A1148A2FB03129B1A8B
:103D000002EB5303C3F30F131946A5F8863006F0F0
:103D1000B5FB1D210D4806F0CBF802210A4806F03C
:103D2000C7F80748BDE8F04706F058BBAC94FF1F42
:103D30003493FF1F9C1A0100E01A01008761188666
:103D4000CC87FF1FC01A0100A0240100E41A010063
:103D50009094FF1F5087FF1FA24B2DE9F0411B6875
:103D6000A14CA24D40F2513108222160E271286D30
:103D7000002B40F0E48008F091FE6969064608F0E7
:103D8000E1FE9B49994F08F0DDFE09F0DDF880B2B5
:103D900003126372974A984B12681B68A969A37251
:103DA00015121B12E372227320726573304608F0FD
:103DB000C9FE8F498C4E08F0C5FE09F0C5F883B2E4
:103DC0001A1231468D48A373E27303F0C7FA8C4B85
:103DD0008C4A1B681288A272DDB205EB8501257240
:103DE00003EB8305490045F3D71540F2553E121207
:103DF0004FF008081B1221736573314600257F4878
:103E0000C4F800E0E2726372A573E57384F807807A
:103E100003F0A4FA40F256337B48236084F807800D
:103E2000FDF7BAFD794908F08DFE09F08DF8207292
:103E30007548FDF7B1FD754908F084FE09F084F876
:103E4000734A7249C0F307236372106808F02EFFAB
:103E500009F054F840FA08F203466B48E272A37284
:103E6000FDF7D0FD624908F06DFE09F06DF8207392
:103E70006548FDF7C7FD5E4908F064FE09F064F887
:103E80003146C0F307235D486373A573E57303F000
:103E900065FA022004F044FC5E4B25731A785978C9
:103EA0006573A573E57322729D78DA78617240F2CA
:103EB0005A3331465148A572E272236084F8078074
:103EC00003F04CFA544B4D481A78597822726172BB
:103ED0009A78D978A272E1721A7959799D79227308
:103EE0006173DA79E27340F25E3331462360A57381
:103EF00084F8078003F032FA022004F011FC474BEB
:103F00003E481A785978227261729A78D978A272EA
:103F1000E1721A7959799D7922736173DA7984F89B
:103F200007804FF45C7331462360A573E27303F09E
:103F300015FA3B4B1B68012B06D0BDE8F08108F059
:103F4000ADFD296A06461AE72F48FDF7DBFCF96C40
:103F500008F0F0FC05462C48FDF7FAFC014628461F
:103F600008F08EFF0028E8D040F2C333264886F8D8
:103F700007803360FDF7C6FCBD6C294608F080FF62
:103F8000D0B12849284608F0DDFD08F0DDFF80B2F9
:103F900040FA08F3707233720023012604250322CD
:103FA000A672E57222736373A373E3730E49134819
:103FB000BDE8F04103F0D2B91348FDF7A3FC19495D
:103FC00008F0C0FD08F0C0FFC0F307230E483372AD
:103FD000FDF798FC134908F0B5FD08F0B5FF7072C5
:103FE000DAE700BF6C92FF1FC494FF1F3493FF1FDA
:103FF00000002041A494FF1F5092FF1F80C0FF1FAC
:104000003487FF1F3887FF1FE094FF1F0000C8425E
:104010007892FF1F3093FF1F2C87FF1F5487FF1FCD
:10402000B494FF1F00007A44F0B59C4C9C4D83B0C3
:1040300005F0D8FE23682860042B00F0AC82022B28
:104040004BD0082B00F09280072B40F05181332891
:1040500001F0F28300F3AD80312801F000843228B2
:1040600040F0B08005F0FAFE002840F33F818D4813
:104070008D4E06F047FB08F011FD8C4908F062FDFB
:1040800061230122F06322602B601846A0F15203E5
:104090001F2B01F2AF83DFE813F02E0BAD0BAD0B3E
:1040A000AD0BAD0BAD0BAD0BAD0BAD0BAD0BAD0B50
:1040B000AD0BAD0BAD0BAD0BB203CB0C3905A705AA
:1040C0007304AD0BAD0BAD0B2604AD0BCE0CAD0BDD
:1040D000AD0BAD0BAD0BAD0B300BA0F13102422A95
:1040E00070D8DFE812F0F006FC060A0717072A0767
:1040F00039076F006F006F006F006F006F006F0077
:104100006F006F006F006F006F006F006F006F0037
:104110006F006F006F006F006F006F006F006F0027
:104120006F006F006F006F006F006F006F006F0017
:104130006F006F006F006F006F006F006F006F0007
:104140006F006F006F006F006F00DD066F006F0083
:104150006F006F006F006F006F006F006F006F00E7
:104160006F006F006F006B006F00E306322800F0F5
:104170002F83712822D0312824D105F06FFE00282A
:1041800040F3CF854748484E06F0BCFAC0B286F8E7
:104190004000022894BF01460021726C444888BF49
:1041A00086F84010FDF7FCFB01236920236028609E
:1041B0006CE7342801F02E83712803D1002373208B
:1041C00023602860002B08BF73280CBF012000204B
:1041D000002860D0334806F001F90421354805F085
:1041E00067FE304806F0FAF81021334805F060FE0B
:1041F0002C4806F0F3F81321304805F059FE304BF7
:104200002848196806F03AF9264806F0E7F814211C
:104210002C4805F04DFE234806F0E0F81E212A4800
:1042200005F046FE1F4806F0D9F81521274805F08D
:104230003FFE1C4806F0D2F81E21254805F038FE46
:10424000184806F0CBF82021224805F031FE154829
:1042500006F0C4F81921204805F02AFE114806F09E
:10426000BDF812211D4805F023FE0E4806F0B6F8F1
:104270000F211B4805F01CFE0A4806F0AFF80D217F
:10428000184805F015FE074806F0A8F8164A002160
:1042900001231160236003B0F0BD00BF8892FF1FAF
:1042A0007492FF1FCC87FF1F3493FF1F6F12833A56
:1042B000E094FF1F1C230100242301003823010088
:1042C0002487FF1F4C230100642301008423010085
:1042D0009C230100BC230100E0230100FC2301001A
:1042E00010240100202401003C87FF1F2368286858
:1042F000062B40F08D80A0F13102402A3FF662AFDC
:1043000001A151F822F000BF2D4D0000594D0000D1
:10431000854D0000AB4D0000D14D0000EF4D000079
:104320008D4E0000C5410000C5410000C5410000A0
:10433000C5410000C5410000C5410000C541000065
:10434000C5410000C5410000C5410000C541000055
:10435000C5410000C5410000C5410000C541000045
:10436000C5410000C5410000C5410000C541000035
:10437000C5410000C5410000C5410000C541000025
:10438000C5410000C5410000C5410000C541000015
:10439000C5410000C5410000C5410000C541000005
:1043A000C5410000C5410000C5410000C5410000F5
:1043B000C5410000C5410000C5410000C5410000E5
:1043C000C5410000C5410000C5410000C5410000D5
:1043D000C5410000C5410000C5410000C5410000C5
:1043E000C5410000C5410000C5410000C5410000B5
:1043F000C5410000C5410000C5410000C5410000A5
:10440000C5410000C5410000BD4100002368286887
:10441000052B15D1332801F0498240F34781352817
:1044200001F06B82C1F2538271287FF4CBAEDC4A7B
:1044300000237320136023602860C3E62368286884
:10444000032B40F0A480A0F13002422A3FF6BAAE1E
:1044500001A151F822F000BF65450000015600009F
:10446000AF540000D7540000F95400001B55000061
:1044700029560000515600006F5600009356000068
:10448000C5410000C5410000C5410000C541000014
:10449000C5410000C5410000C5410000C541000004
:1044A000C5410000C5410000C5410000C5410000F4
:1044B000C5410000C5410000C5410000C5410000E4
:1044C000C5410000C5410000C5410000C5410000D4
:1044D000C5410000C5410000C5410000C5410000C4
:1044E000C5410000C5410000C5410000C5410000B4
:1044F000C5410000C5410000C5410000C5410000A4
:10450000C5410000C5410000C5410000C541000093
:10451000C5410000C5410000C541000043550000F1
:104520005B500000BB560000D9560000A3550000A8
:10453000C15500001150000035500000C541000079
:10454000C5410000C5410000C5410000C541000053
:10455000C5410000C5410000C54100006155000093
:104560006D55000005F07AFC002841F34C818D4820
:104570008D4E06F0C7F801270346014662228B489C
:10458000736527602A60FDF709FA23682868012B04
:104590007FF418AE7AE5A0F13102402A3FF612AE60
:1045A00001A151F822F000BF734F00008B4F0000B3
:1045B0008F4F0000B54F0000F54F0000B94F0000CD
:1045C000CB4F0000CF4F0000D34F0000C54100008B
:1045D000C5410000C5410000C5410000C5410000C3
:1045E000C5410000C5410000C5410000C5410000B3
:1045F000C5410000C5410000C5410000C5410000A3
:10460000C5410000C5410000C5410000C541000092
:10461000C5410000C5410000C5410000C541000082
:10462000C5410000C5410000C5410000C541000072
:10463000C5410000C5410000C5410000C541000062
:10464000C5410000C5410000C5410000C541000052
:10465000C5410000C5410000C5410000C541000042
:10466000C5410000C5410000C5410000C541000032
:10467000C5410000C5410000C5410000C541000022
:10468000C5410000C5410000C5410000C541000012
:10469000C5410000C5410000C5410000C541000002
:1046A000C5410000C5410000BD410000312801F0B6
:1046B000EC8032287FF486AD05F0D0FB00287FF730
:1046C000BDAE3848384E06F01DF801226B23C6F8FF
:1046D000980022602B6001E005F084FB05F0BEFB32
:1046E0000028F9D12F4805F079FE2E4805F076FE16
:1046F0002C4805F073FE2B4805F070FE294805F0A4
:104700006DFE21212A4805F0D3FB264805F066FE00
:104710001521284805F0CCFBD6F89010214805F06B
:10472000ADFE0221244805F0C3FB1E4805F056FEED
:104730001E21224805F0BCFBD6F89810194805F058
:104740009DFE03211E4805F0B3FB164805F046FE0A
:104750001E211C4805F0ACFBD6F89410114805F05A
:104760008DFE104805F03AFE1D21174805F0A0FB0C
:10477000D6F8A0100B4805F081FE0A4805F02EFE81
:104780001E21124805F094FBD6F8A410054805F048
:1047900075FE044805F022FE052323607BE500BF7B
:1047A0008894FF1FCC87FF1F3493FF1FE094FF1FE7
:1047B000941D0100B81D0100A41C0100D01D0100C2
:1047C000C8190100F01D0100101E0100301E01007B
:1047D00005F044FB002840F3A082B248B24E05F039
:1047E00091FF08F05BF9B14908F0ACF903460246C5
:1047F00096F84010AE487364D4E405F0F3FA05F07F
:104800002DFB05460028F8D1A648A74E05F0E6FD89
:10481000A44805F0E3FDA34805F0E0FDA14805F03C
:10482000DDFDA04805F0DAFD1F21A24805F040FBA0
:104830009C4805F0D3FD1C219F4805F039FB706AA8
:104840009E4908F07FF907F0D3FC009502460B461D
:10485000944805F01DFE0221994805F029FB914876
:1048600005F0BCFD2321974805F022FBF06B93492E
:1048700008F068F907F0BCFC009502460B46894831
:1048800005F006FE02218E4805F012FB854805F072
:10489000A5FD19218C4805F00BFBB06B07F0A8FCB7
:1048A00002250B46024600957E4805F0F1FD29469B
:1048B000864805F0FDFA7B4805F090FD19218448F3
:1048C00005F0F6FAB6F8B410764805F0D7FD0321E6
:1048D000804805F0EDFA734805F080FD072323605A
:1048E000D9E405F07FFA05F0B9FA05460028F8D1B9
:1048F0006C486D4E05F072FD6A4805F06FFD694821
:1049000005F06CFD674805F069FD664805F066FD39
:104910001521714805F0CCFA624805F05FFD1821B9
:104920006E4805F0C5FA2B460A2296F840105D48FD
:1049300005F064FD5B4805F051FD2821684805F04D
:10494000B7FA706C5D4908F0FDF807F051FC00956E
:104950000B460246534805F09BFD0221584805F0DE
:10496000A7FA504805F03AFD13215E4805F0A0FA79
:104970004C4805F033FD082323608CE405F032FA3F
:1049800005F06CFA05460028F8D14648464E05F079
:1049900025FD444805F022FD424805F01FFD414831
:1049A00005F01CFD3F4805F019FD11214E4805F0AA
:1049B0007FFA3C4805F012FD28214C4805F078FAB2
:1049C00070693E4908F0BEF807F012FC00950246F7
:1049D0000B46344805F05CFD0221394805F068FAC1
:1049E000304805F0FBFC1621414805F061FAF069FA
:1049F000324908F0A7F807F0FBFB00950B4602468A
:104A0000284805F045FD02212D4805F051FA2548BA
:104A100005F0E4FCD6F8AC30002B32DD1D21354822
:104A200005F046FAF06D08F039F8334908F08AF8D5
:104A300007F0DEFB022502460B460095194805F0FB
:104A400027FD01212D4805F033FA164805F0C6FC74
:104A50001F212B4805F02CFA306E08F01FF826496C
:104A600008F070F807F0C4FB009502460B460D48AD
:104A700005F00EFD0121214805F01AFA094805F05C
:104A8000ADFC11211F4805F013FAD6F8AC30052B08
:104A900000F26086DFE813F095069A065A06A9062A
:104AA000A4069F06CC87FF1F3493FF1F6F12833A23
:104AB000E094FF1FF01C0100101D010000007A446B
:104AC0007C1B0100301D0100541D0100701D010000
:104AD000741D0100901D0100E4230100341B01003E
:104AE000501B0100801B010088230100941B010062
:104AF000C01B0100D81B0100CDCCCC3D74200100AF
:104B0000F81B0100181C010005F06CF905F0A6F96E
:104B10000028F9D1BF48C04E05F060FCBD4805F043
:104B20005DFCBC4805F05AFCBA4805F057FCB94892
:104B300005F054FC1F21B94805F0BAF9B54805F055
:104B40004DFC1E21B64805F0B3F9B24805F046FC0D
:104B50001A21B44805F0ACF9F36F022B00F0378747
:104B6000032B00F02B87012B00F03A870921AE4878
:104B700005F09EF9A74805F031FC1421AB48A64F7B
:104B800005F096F9B16FA34805F078FCA14805F04F
:104B900025FC1C21A64805F08BF9D6F880109D480D
:104BA00005F06CFC9B4805F019FC1C21A14805F0A0
:104BB0007FF9D6F8A810974805F060FC954805F0F5
:104BC0000DFCF56F25F00205012D00F0B1861321D3
:104BD000994805F06DF98F4805F000FC0223236029
:104BE000FFF759BB05F0FEF805F038F90028F9D1B8
:104BF000884805F0F3FB874805F0F0FB854805F091
:104C0000EDFB844805F0EAFB824805F0E7FB132141
:104C10008A4805F04DF97F4805F0E0FB0D218848F2
:104C200005F046F97B4805F0D9FB0F21854805F0D2
:104C30003FF9854B7748196805F020FC754805F069
:104C4000CDFB1321814805F033F9814B7148196878
:104C500005F014FC6F4805F0C1FB12217D4805F0FA
:104C600027F97D4B6B48196805F008FC694805F089
:104C7000B5FB1121794805F01BF9794B6548196896
:104C800005F0FCFB634805F0A9FB0E21754805F013
:104C90000FF9614B5F48D3F89C1005F0EFFB5D48BE
:104CA00005F09CFB1921704805F002F96F4B59483B
:104CB000196805F0E3FB574805F090FB11216C489B
:104CC00005F0F6F86B4B5348196805F0D7FB5148CF
:104CD00005F084FB1021684805F0EAF8674B4D4861
:104CE000196805F0CBFB4B4805F078FB1C216448A4
:104CF00005F0DEF8634B4748196805F0BFFB4548EF
:104D000005F06CFB13214C4805F0D2F8414805F042
:104D100065FB04232360FFF7BEBA23682868FFF70A
:104D200093B93D4E96F84000FFF733BA05F096F878
:104D300000287FF76BAB3748374E05F0E3FC07F0F0
:104D4000ADFE514907F0B2FF652301227061226078
:104D50002B601846FFF79AB905F080F800287FF716
:104D600055AB2C482C4E05F0CDFC07F097FE46497C
:104D700007F09CFF65230122F06122602B6018463A
:104D8000FFF784B905F06AF800287FF73FAB2148A8
:104D9000214E05F0B7FC00EB8000430001226520A6
:104DA000F36522602860FFF771B905F057F8002815
:104DB0007FF72CAB1748184E05F0A4FC00EB8000E1
:104DC000430001226520336622602860FFF75EB948
:104DD000114AD2F8AC300133052BC8BF0023C2F80A
:104DE000AC300123652023602860FFF74FB905F040
:104DF00035F800287FF70AAB0648074E05F082FC1D
:104E000065230122C6F8B00022602B601846FFF728
:104E10003DB900BFCC87FF1F3493FF1F341F010033
:104E2000541F0100741F0100EC1F0100F81F010056
:104E30001020010030200100801B0100501E0100E5
:104E4000641E0100741E01006894FF1F841E01008F
:104E5000D894FF1F981E0100BC94FF1FAC1E0100D8
:104E6000C094FF1FC01E0100D01E01008C94FF1FC4
:104E7000EC1E01008894FF1F001F01007092FF1FAD
:104E8000141F01005C87FF1F00007A447A4B93F8DF
:104E9000BC20002A00F03F85002283F8BC20A0E758
:104EA000FEF798FE23682868FFF7CBB8724AD36FE5
:104EB0000133032BC8BF0023D36701236320236082
:104EC0002860FFF7E3B86C4EB36FB3FA83F35B0966
:104ED00001226320B36722602860FFF7D7B8664ECF
:104EE000D6F88030B3FA83F35B0901226320C6F859
:104EF000803022602860FFF7C9B80123236004F0E6
:104F0000ADFF0028D9DD5D485B4E05F0FBFBC6F820
:104F1000A800D2E70123236004F0A0FF002807DDEA
:104F20005648554E05F0EEFB07F0B8FDC6F88C006C
:104F3000632028602368FFF787B80123236004F00B
:104F40008DFF0028F4DD4D484B4E05F0DBFB07F0EC
:104F5000A5FDC6F88800EBE70123236004F07EFF7F
:104F60000028E5DD4548444E05F0CCFBA6F8B60028
:104F7000DEE7434A1368B3FA83F35B090121642037
:104F8000136021602860FFF781B83E4AF2E73E4A8D
:104F90003E4F1368002B0CBF012300234FF001008C
:104FA0001360206040F0F484034664222A60642089
:104FB000FFF747B8364ADDE7012336482360FCF7A0
:104FC0007BFB354A23681060EFE7344AD2E7344A66
:104FD000D0E70123236004F041FF002800F3A08400
:104FE000304B1A68042AC4BF02221A6064232B6063
:104FF0002368DCE7204ED6F89C30B3FA83F35B09D4
:1050000001226420C6F89C3022602860FFF73EB879
:1050100004F024FF00280DDD1848174E05F072FB40
:1050200007F03CFD204907F041FE01226223306277
:1050300022602B6004F012FF00280EDD0F480E4E98
:1050400005F060FB07F02AFD174907F02FFE01224B
:105050006223C6F8B80022602B6004F0FFFE00282F
:1050600040F3D1830548044E05F04CFB0122622336
:10507000B06622602B601BE03493FF1FCC87FF1FBC
:105080006894FF1FD894FF1FBC94FF1F8892FF1FD6
:10509000C094FF1FE094FF1F8C94FF1F8894FF1F94
:1050A0007092FF1F5C87FF1F00007A4404F09AFE95
:1050B00004F0D4FE05460028F8D1C24805F08EF968
:1050C000C04805F08BF9BF4805F088F9BD4805F0E8
:1050D00085F9BC4805F082F91521BB4804F0E8FECB
:1050E000B84805F07BF91421B84804F0E1FEB54852
:1050F00005F074F91B21B64804F0DAFEB14805F05A
:105100006DF91321B34804F0D3FEAE4805F066F9FB
:10511000AC4805F063F9AB4805F060F92021AE48D2
:1051200004F0C6FEF068AD4907F00CFD07F060F82A
:10513000009502460B46A34805F0AAF90221A848AB
:1051400004F0B6FE0221A74804F0B2FE9D4805F027
:1051500045F92121A44804F0ABFE30699F4907F0CE
:10516000F1FC07F045F8009502460B46954805F01E
:105170008FF902219A4804F09BFE0221994804F01D
:1051800097FE904805F02AF91F21984804F090FEF8
:10519000B06A07F02DF8022702460B4600978948AF
:1051A00005F076F90121924804F082FE39468D48D7
:1051B00004F07EFE834805F011F920218D4804F0AB
:1051C00077FEF06A07F014F8009702460B467D4818
:1051D00005F05EF90121864804F06AFE39468148EF
:1051E00004F066FE774805F0F9F82321824804F0C0
:1051F0005FFEB06C794907F0A5FC06F0F9FF009559
:1052000002460B466F4805F043F93946744804F0EE
:105210004FFE3946734804F04BFE6A4805F0DEF84D
:105220001F21764804F044FEF06C6C4907F08AFCBC
:1052300006F0DEFF009502460B46624805F028F9AD
:105240003946674804F034FE3946664804F030FEBB
:105250005C4805F0C3F81921694804F029FEB16DD6
:10526000584805F00BF93946664804F021FE3946E6
:105270005C4804F01DFE534805F0B0F81821624860
:1052800004F016FE706E07F009FC604907F05AFC46
:1052900006F0AEFF009702460B464A4805F0F8F8C4
:1052A00001215B4804F004FE39464E4804F000FE3C
:1052B000444805F093F82B21564804F0F9FDB069F5
:1052C000464907F03FFC06F093FF009502460B4667
:1052D0003C4805F0DDF83946414804F0E9FD39461F
:1052E000404804F0E5FD374805F078F81F214A48AA
:1052F00004F0DEFD716D334805F0C0F839463948D9
:1053000004F0D6FD2F4805F069F82021434804F049
:10531000CFFD316D2B4805F0B1F83946314804F026
:10532000C7FD284805F05AF810213D4804F0C0FD9B
:10533000B16E244805F0A2F83946294804F0B8FDBA
:105340003946284804F0B4FD1E4805F047F81321FB
:10535000344804F0ADFDF16E1A4805F08FF80121D4
:10536000314804F0A5FD39461E4804F0A1FD15485A
:1053700005F034F810212D4804F09AFD316F1148E2
:1053800005F07CF83946164804F092FD3946154878
:1053900004F08EFD0B4805F021F81421244804F098
:1053A00087FD716F074805F069F801211E4804F078
:1053B0007FFD39460B4804F07BFD024805F00EF8EE
:1053C000162137E0CC87FF1FBC200100D42001004C
:1053D000EC200100801B01000821010000007A443C
:1053E0007C1B0100A02401002C21010050210100A0
:1053F000AC1601007021010094210100B8210100C8
:10540000D8210100F4210100F8210100CDCCCC3DD0
:1054100074200100142201004022010060220100DA
:105420008422010098220100AC220100B022010078
:10543000C4220100BA4804F03BFD306AB94907F0C4
:1054400081FB06F0D5FE009502460B46B64805F0F6
:105450001FF83946B54804F02BFD3946B44804F02E
:1054600027FDB14804F0BAFF2421B24804F020FD22
:10547000D6F8B800AB4907F065FB06F0B9FE009519
:105480000B460246A84805F003F83946A74804F041
:105490000FFD3946A64804F00BFDA34804F09EFF1B
:1054A000A14804F09BFF03232360FEF7F4BE04F041
:1054B000D5FC002840F3A7819B489F4E05F022F9B8
:1054C00007F0ECFA974907F0F1FB01226223306103
:1054D00022602B60ECE504F0C1FC002840F39381CE
:1054E0009148954E05F00EF907F0D8FA0122622393
:1054F000B06222602B60DBE504F0B0FC002840F3D2
:10550000828189488C4E05F0FDF807F0C7FA012228
:105510006223F06222602B60CAE504F09FFC002841
:1055200040F371818048844E05F0ECF807F0B6FA3C
:105530007C4907F0BBFB01226223B06422602B6030
:10554000B6E504F08BFC002840F35D8176487A4E86
:1055500005F0D8F801226223306522602B60A7E5B0
:105560000022732322602B60FEF734BE734B704819
:10557000714E002202211A6004F09AFC6A4804F07D
:105580002DFF0B216E4804F093FC0221684804F0C3
:105590008FFC654804F022FF0122622322602B6009
:1055A00086E504F05BFC002840F32D815E48624EE6
:1055B00005F0A8F801226223706722602B6077E56E
:1055C000FCF792FF02215A485B4E04F071FC5648EA
:1055D00004F004FF0221564804F06AFC524804F02B
:1055E000FDFE0221524804F063FC4F4804F0F6FE31
:1055F0001721544804F05CFC4B4804F0EFFEC4E76C
:1056000004F02CFC002840F3FE8047484A4E05F089
:1056100079F807F043FA434907F048FB0122622377
:10562000F06022602B6043E504F018FC002840F392
:10563000EA803D48404E05F065F807F02FFA3949F9
:1056400007F034FB01226223F06422602B602FE517
:1056500004F004FC002840F3D6803348364E05F0B1
:1056600051F801226223B06522602B6020E504F02E
:10567000F5FB002840F3C7802B482F4E05F042F879
:1056800000EB8000430001216222736621602A60E2
:105690000EE504F0E3FB002840F3B5802248264ED7
:1056A00005F030F807F0FAF91E4907F0FFFA012279
:1056B0006223B06122602B60FAE404F0CFFB002883
:1056C00040F3A18018481C4E05F01CF8012262230B
:1056D000F06622602B60EBE404F0C0FB002840F38E
:1056E00092801148144E05F00DF8012262233067B4
:1056F00022602B60DCE403F0A5FEC02200210E48EE
:1057000002F006FD2868104AA0F173000121002371
:10571000B0FA80F0400911602360FEF759BD00BF68
:10572000DC22010000007A44CC87FF1F7C1B0100B3
:10573000A0240100F42201003493FF1F6492FF1F94
:10574000281B0100101B01003C87FF1F0C21BB48D8
:1057500004F0AEFBBA48BB4D04F040FED6F8AC30C6
:10576000002B12DD1821B84804F0A2FBD5F8B010C8
:10577000B34804F083FE0221B44804F099FBB0481A
:1057800004F02CFEAE4804F029FE1B21B04804F0C2
:105790008FFB96F8BC30012B15BF12211421AD48A8
:1057A000AD4804F085FBA64804F018FE1321AB4871
:1057B00004F07EFBA24804F011FE06232360FEF7EE
:1057C0006ABD0D21A64804F073FBC3E70C21A54870
:1057D00004F06EFBBEE70B21A34804F069FBB9E7B8
:1057E0000D21A24804F064FBB4E70D21A04804F0A9
:1057F0005FFBAFE72368002B08BF73280CBF0120B5
:105800000020FEF7E5BC23682868012B7EF4DAACA3
:10581000FEF73CBC04F022FB00287EF767AD884809
:10582000884E04F06FFF61230122A6F8B4002260C5
:105830002B601846FEF72ABC04F010FB00287EF708
:1058400055AD7F487F4E04F05DFF07F027F96123D7
:105850000122B06322602B601846FEF717BC04F0EB
:10586000FDFA00287EF742AD7548764E04F04AFFF7
:1058700007F014F97F4907F065F96123012270628E
:1058800022602B601846FEF701BC04F0E7FA0028FE
:105890007EF7D4AD6A486B4E04F034FF01226B23CF
:1058A000C6F8900022602B60FEF718BF04F0D6FA0D
:1058B00000287EF7C3AD6248624E04F023FF012248
:1058C0006B23C6F8940022602B60FEF707BF04F03C
:1058D000C5FA00287EF7B2AD59485A4E04F012FFBF
:1058E000654BC6F8A00002221A60FDF73DF90122BF
:1058F0006B2322602B60FEF7F1BE04F0AFFA0028A4
:105900007EF79CAD4E484F4E04F0FCFE5A4BC6F855
:10591000A4000322E8E7012283F8BC20FFF761BA64
:10592000474804F0EFFE554B02461860FFF75ABB9C
:105930001C21534804F0BCFAD7F88C00514907F0F9
:1059400001F906F055FC009502460B463C4804F070
:105950009FFD05214C4804F0ABFA394804F03EFDA8
:10596000FD6F012D45D0032D7FF431A91C2147483F
:1059700004F09EFAB6F8B610314804F07FFD03211A
:10598000434804F095FA2E4804F028FDFFF71FB9AC
:10599000404B002631460B201E6002F085FE31464A
:1059A0000C2002F081FE3146142002F07DFE3146CB
:1059B000152002F079FE3B68FFF7F7BA2021364840
:1059C00004F076FA1E4804F009FDFFF7D6B8172157
:1059D000324804F06DFA1A4804F000FDFFF7CDB824
:1059E0001E212F4804F064FA154804F0F7FCFFF775
:1059F000C4B81D212B4804F05BFAD7F88800214970
:105A000007F0A0F806F0F4FB00950B4602460C48A0
:105A100004F03EFD05211C4804F04AFA084804F051
:105A2000DDFCFB6F23F00203012B9FD0FFF7CFB803
:105A3000044EFFF73DBB034EFEF750BE4C1C010069
:105A4000CC87FF1F3493FF1F881C0100A41C01009A
:105A5000A81C0100C41C0100D81C0100801B01000F
:105A60002C1C01003C1C01007C1C01006C1C010072
:105A70005C1C01006F12833A8894FF1F5C87FF1F34
:105A800050200100CDCCCC3D7020010098200100B9
:105A9000B8200100D494FF1FB01F0100D41F0100E3
:105AA000901F01007820010038B5164C164A236873
:105AB000101D12F8011F904241EA0323F9D123601F
:105AC000124C03F100432360114BDB6F022B11D00A
:105AD000104B1B68012B00D038BD0F4804F07EFC32
