:1000000000800020BD0100008189000039890000C6
:1000100039890000398900003989000039890000D8
:100020003989000039890000398900008189000080
:10003000818900003989000045AA000049AB000011
:100040008189000081890000818900008189000088
:100050008189000081890000818900008189000078
:100060008189000081890000818900008189000068
:100070008189000081890000818900008189000058
:100080008189000081890000818900008189000048
:100090008189000081890000818900008189000038
:1000A0008189000081890000818900008189000028
:1000B00081890000A57E0000B17E0000B57E0000B1
:1000C000C17E0000C57E0000C97E0000818900005D
:1000D00081890000818900008189000081890000F8
:1000E00081890000818900008189000081890000E8
:1000F0008189000055B2000081890000219600002E
:1001000081890000ED97000081890000818900004D
:1001100081890000818900008189000081890000B7
:1001200081890000818900008189000081890000A7
:100130008189000081890000818900008189000097
:100140008189000081890000818900008189000087
:100150008189000081890000818900008189000077
:1001600081890000799A000081890000818900005E
:100170008189000081890000818900008189000057
:100180008189000081890000818900008189000047
:100190008189000081890000818900008189000037
:1001A0008189000081890000818900008189000027
:1001B000818900008189000081890000564B4CF242
:1001C000205210B51A804DF628121A8000BF00BFC9
:1001D00008F0DAFB514B4FF010621A60504A9A60F7
:1001E000504ADA60504A136813F4807304D14F49BF
:1001F0000B604FF4A85313604D4B1A78110703D5C9
:100200001A7842F008021A704A4B4B492A221A7097
:100210004A4A4B4B8B4204D252F8040F43F8040B6A
:10022000F8E7484B484900228B4202D243F8042B9E
:10023000FAE74649464A002352F8230041F82300D2
:1002400001336F2BF8D1434B434A802103F8011B44
:100250009342FBD1414B3D4A1A60414B8A221A70AE
:10026000A3F5805324225A70A0221A709A7992071B
:10027000FCD59A79D406FCD43A4A937903F00C035E
:10028000082B384BF9D103221A7140225A719A79FE
:100290009006FCD5334A9179324B4906FBD5324A58
:1002A000324911600221516020221A709A7902F0BD
:1002B0000C020C2AFAD12E4B2E4A1A602E4B2F4AD2
:1002C0001A6000225A60072243F8042C2C4AC3F813
:1002D0000C2D62B608F00EFE144B1B68DA0705D52C
:1002E000284808F0EBFB284B284A1A60284B1B785B
:1002F0005B0609D5244C254B22689A4204D121483B
:1003000008F0DCFB002323600CF088FA08F042FBC5
:100310000AF060FEFEE700BF0E200540308004407A
:10032000823F04000100002B10D0034014D0034092
:1003300002D0074000E007402892FF1FA4260100DA
:100340002087FF1F2892FF1FC0C7FF1F0082FF1FCB
:100350000000000000E400E05FE400E008ED00E0E1
:100360000050064000400640448004400000030165
:1003700004800440C010050014E000E0FF76010096
:10038000000020201954945F1CE00340A5C3945A38
:1003900000F00740FFFFFFFFFFFFFFFFFFFFFFFF32
:1003A000FFFFFFFFFFFFFFFFFFFFFFFFFFFFFFFF5D
:1003B000FFFFFFFFFFFFFFFFFFFFFFFFFFFFFFFF4D
:1003C000FFFFFFFFFFFFFFFFFFFFFFFFFFFFFFFF3D
:1003D000FFFFFFFFFFFFFFFFFFFFFFFFFFFFFFFF2D
:1003E000FFFFFFFFFFFFFFFFFFFFFFFFFFFFFFFF1D
:1003F000FFFFFFFFFFFFFFFFFFFFFFFFFFFFFFFF0D
:10040000FFFFFFFFFFFFFFFFFFFFFFFFDEF9FFFF23
:1004100010B5054C237833B9044B13B10448AFF33E
:1004200000800123237010BD2892FF1F00000000F0
:10043000A0260100084B10B51BB108490848AFF3CE
:1004400000800848036803B910BD074B002BFBD0A0
:10045000BDE81040184700BF000000002C92FF1FAD
:10046000A02601002892FF1F00000000F0B400F158
:100470001C06134F00243146031F00F13C0243F8D1
:10048000044FB34241F8047F4FF0000542F8044F97
:10049000F5D100230B4A0C4C056647F230514566F6
:1004A0008566C566C56744670267826780F88430E1
:1004B00080F8853080F89C30A0F8AE10F0BC704712
:1004C0000000A040000048430000C8C290F88C0023
:1004D000704700BF90F88800704700BF90F8900008
:1004E000704700BF90F89400704700BF082994BF80
:1004F00050F82100002070472DE9F0410B4E804656
:10050000041F00F11C0754F8045F314628460CF024
:1005100011F930B1D8F8801028460CF029F900B153
:100520002E46BC42EFD13046BDE8F08100002041AC
:100530002DE9F041D0F880704FF00008041F00F161
:100540001C0654F8045F394628460CF011F9084996
:1005500048B128460CF0EEF8414620B128460CF090
:1005600007F900B1A846B442EBD14046BDE8F0819E
:10057000000070422DE9F047D0F8807082464FF0BD
:100580000009041F00F11C064FF0000854F8045F36
:10059000394628460CF0ECF80E4950B128460CF0CC
:1005A000C9F830B1484629460BF01EFE08F1010893
:1005B0008146B442EAD1B8F1000F01D0CAF8A08058
:1005C00040460BF0C5FE014648460BF0C9FFBDE8AA
:1005D000F08700BF00007042D0F8A000704700BF55
:1005E000D0F8983070B5054673B9866E446E3146C2
:1005F00020460CF09FF8A0B1ED6E204629460CF085
:1006000099F800B3204670BD012B14D0022B1FD0E7
:10061000032B1BD00C2B1DD0172B1FD00D2B1BD049
:1006200070BDEC6E304621460CF084F80028E9D00D
:100630003446204670BDC46EAD6E204629460CF08F
:1006400079F80028DED12C46204670BD446EF3E7D1
:10065000446ED1E7C46ED5E7846ED3E7446ED1E72C
:10066000D0F8983070B5054673B9866E446E314641
:1006700020460CF07DF8A0B1ED6E204629460CF026
:1006800077F800B3204670BD012B14D0022B1FD089
:10069000032B1BD00C2B1DD0172B1FD00D2B1BD0C9
:1006A00070BDEC6E304621460CF062F80028E9D0AF
:1006B0003446204670BDC46EAD6E204629460CF00F
:1006C00057F80028DED12C46204670BD446EF3E773
:1006D000446ED1E7C46ED5E7846ED3E7446ED1E7AC
:1006E0002DE9F04F022987B00746144600F02E810D
:1006F000032900F0C480012900F0838097F8AC3012
:1007000001933846FFF76CFF396F04460CF012F87E
:1007100000B13C673846FFF7A3FF796F04460CF041
:1007200027F800B17C6707F11C0BA7F1040A07F159
:100730003C095D46D0464E4658F8044F55F8040F24
:1007400021460CF015F830B1D7F8801020460CF097
:1007500005F800B12C6056F8041F20460CF008F88C
:1007600000B13460A945E7D1019B002B7ED0A84C95
:10077000D7F8A82023680393039BB7F8AE109B1A01
:100780008B420DD300224AF8042FD3454FF00003CB
:10079000F9D13B667B66BB66FB6607B0BDE8F08FB0
:1007A00023680493049BC91A0A4441F287339A428E
:1007B000F3D80221974809F0DFFF97480AF074FA4E
:1007C0000621964809F0D8FF00230A2297F89C10CA
:1007D00091480AF079FA1921914809F0CDFF236870
:1007E0000593059AB7F8AE30D7F8A8108A489B1A37
:1007F00019440A2200230AF067FA87480AF054FADB
:10080000CBE7137A80F8A430D0F8B400D7F8B06002
:100810000BF09EFDE37A0546A07A03EB00200BF077
:1008200097FD31460BF0E8FD29460BF0DDFC7866BC
:10083000637B207B03EB00200BF08AFD31460BF03D
:10084000DBFD29460BF0D0FCB866E37BA07B03EB15
:1008500000200BF07DFD31460BF0CEFD29460BF05C
:10086000C3FC97F8AC300193F8664AE7684B1B6805
:100870000293029BC7F8A83007B0BDE8F08F107A4A
:10088000537A03EB00200BF063FD66490BF0B4FDD7
:10089000D7F88050294606460BF06AFF40B16249FE
:1008A00030460BF047FF18B100233E6187F8AC30AB
:1008B000E37AA07A03EB00200BF04AFD59490BF0D4
:1008C0009BFD0646014628460BF034FF40B15649D1
:1008D00030460BF02FFF18B100237E6187F8AC3053
:1008E000637B207B03EB00200BF032FD4D490BF0C6
:1008F00083FD0646014628460BF01CFF40B14A49DD
:1009000030460BF017FF18B10023BE6187F8AC30FA
:10091000E37BA07B03EB00200BF01AFD41490BF0B9
:100920006BFD0446014628460BF004FF00283FF407
:10093000E5AE3D4920460BF0FDFE00283FF4DEAE5B
:100940000023FC6187F8AC300193DAE6107A537A21
:1009500003EB00200BF0FCFC32490BF04DFDD7F807
:100960008050294606460BF003FF00285ED1012384
:1009700087F8AC30E37AA07A03EB00200BF0E8FCB8
:1009800028490BF039FD0646014628460BF0D2FEF9
:1009900000285FD0244930460BF0CCFE002859D007
:1009A00000237E6087F8AC30637B207B03EB002064
:1009B0000BF0CEFC1B490BF01FFD064601462846F6
:1009C0000BF0B8FE002841D0174930460BF0B2FEBC
:1009D00000283BD00023BE6087F8AC30E37BA07BCF
:1009E00003EB00200BF0B4FC0E490BF005FD0446B0
:1009F000014628460BF09EFE18B30B4920460BF02B
:100A000099FEF0B10023FC6087F8AC30019378E6E2
:100A1000C8C4FF1FA81E0100C887FF1FEC09010002
:100A2000F40901006F12833A000070420B4930460E
:100A30000BF080FE00289AD000233E6087F8AC308F
:100A400098E7012387F8AC3001935AE6012387F831
:100A5000AC30C3E7012387F8AC30A5E70000704253
:100A6000D0F8983010B5044663B1012B15D0022B95
:100A70001ED0032B25D00C2B2CD0172B2CD00D2BBC
:100A800014D010BD816E406E0BF0AEFBE16E0BF02A
:100A9000ABFB12490BF064FD10BDC16E806E0BF014
:100AA000A3FB4FF07C510BF0A7FC10BD806E10BD76
:100AB000C16E406E0BF098FB4FF07C510BF09CFC2C
:100AC00010BD816E406E0BF08FFB4FF07C510BF030
:100AD00093FC10BDC06E10BD406E10BD00004040C4
:100AE0002DE9F8430026D0F880800666814604464A
:100AF00000F1200754F8045B414628460BF038FE0D
:100B0000084950B128460BF015FE30B13046294651
:100B10000BF06AFB0646C9F86000BC42EAD13046D9
:100B2000BDE8F8830000704202299ABF00EB810003
:100B3000406E0020704700BF3E2998BF80F89C108F
:100B4000704700BF90F8A400704700BF90F8840081
:100B5000704700BF90F88500704700BFC0F898103C
:100B6000704700BF80F88410704700BF80F8851080
:100B7000704700BF30B5C0F8801083B008460AF057
:100B800091FF074C022502460B46009520460AF0CD
:100B9000E3F8204603B0BDE830400AF085B800BF56
:100BA000C887FF1FC0F8B010C0F8B420704700BF5E
:100BB00070B500F535550646303500F1280420465D
:100BC000B834FFF753FCAC42F9D106F1E00501243B
:100BD00028460021FFF7C6FF214628460134FFF7CB
:100BE000ABFF3F2C05F1B805F2D142F67C5400254D
:100BF0000548064A064B3555002130617161B261E6
:100C0000F361304670BD00BF00007A4400004843E5
:100C10000000C8C238B500F1E004012504E0013548
:100C20003F2D04F1B80411D02046FFF78FFF0028B4
:100C3000F5D020460021FFF795FF294620460135D3
:100C4000FFF77AFF3F2D04F1B804EDD138BD00BFA6
:100C500070B500F53556303600F1E004002507E0A8
:100C6000012520460021B834FFF780FFB4420AD0A6
:100C70002046FFF76BFF0028F3D02046FFF76AFFFE
:100C80000028EDD170BD284670BD00BFF8B500F555
:100C90003657002300F535563B60303600F1E0044E
:100CA00002E0B834B4420DD02046FFF74FFF0028D1
:100CB000F7D020463D68FFF78FFCB8342844B44293
:100CC0003860F1D13868F8BDF8B50E46096801F40E
:100CD0007F6500290446A5F5C06515DB2D0901F0E7
:100CE0000F07B82303FB0544283420460121FFF7F2
:100CF00039FF20460121FFF739FF324639462046A9
:100D0000BDE8F840FFF7ECBC0A4801F00F0709F016
:100D1000CBFF1221084809F02FFD3168054801F08A
:100D2000004100230A2209F0CFFF02482D0909F0F3
:100D3000BBFFD6E7C887FF1F100A01002DE9F0436B
:100D40000446002383B0064644F8E03B012504E056
:100D500001353F2D04F1B80466D02046FFF7F6FEBA
:100D60000028F5D04E4800F06DFD29464D4800F0B2
:100D700069FD2046FFF7B4FE0AF094FE02460B46DA
:100D8000494800F05FFD2046FFF7B6FB804620464D
:100D9000FFF7CEFB074640460AF084FE8046384601
:100DA00089460AF07FFE42464B46CDE900013F48A6
:100DB00000F048FD00212046FFF7B6FE01218046E5
:100DC0002046FFF7B1FE074640460AF06BFE80461C
:100DD000384689460AF066FE42464B46CDE9000198
:100DE000334800F02FFD2046FFF77AFE01463068B9
:100DF0000BF0FAF930602046FFF7F2FBB1690BF017
:100E000099FC002833D12046FFF72AFCF1690BF04A
:100E1000AFFC00289CD02046FFF722FC01353F2D77
:100E2000F06104F1B80498D170680BF091FA0146B2
:100E300030680BF095FB7169306004460BF098FC4C
:100E400000B17461316920460BF074FC00B134616B
:100E50000B2007F0CBFF42F67C53F35C60B99BB1EB
:100E600042F67C530122F25403B0BDE8F0832046E1
:100E7000FFF7B6FBB061C6E753B942F67C530022D8
:100E8000F25403B0BDE8F0830A4800F009FDE7E73B
:100E9000094800F0EFFC42F67C530022F254F0E7E0
:100EA00018120100240A0100600A0100740A0100FE
:100EB000A00A0100BC0A0100F40A01002DE9F0417A
:100EC00000F1E00400F53556DFF85480074625466A
:100ED00030362846FFF73AFEB83508B1C7F8088023
:100EE000B542F6D12046FFF731FE38B9B834B442E6
:100EF00013D02046FFF72AFE0028F7D02046FFF740
:100F0000FBFAB9680BF016FC0028EFD02046FFF77B
:100F1000F3FAB834B442B860EBD1B868BDE8F081F8
:100F20000000A0402DE9F04100F1E00400F5355645
:100F300007464FF00008254630362846FFF706FEE4
:100F4000B83508B1C7F80C80B542F6D12046FFF796
:100F5000FDFD38B9B834B44213D02046FFF7F6FD92
:100F60000028F7D02046FFF7E3FAF9680BF000FC01
:100F70000028EFD02046FFF7DBFAB834B442F8601F
:100F8000EBD1F868BDE8F0810068704741607047B8
:100F90002DE9F84342F6885642F68C5542F6845EB7
:100FA00042F69054815140F80E20089E435100F5BE
:100FB00035550651894690461F46303500F1E0040C
:100FC00002E0B834AC4214D02046FFF7BFFD002841
:100FD000F7D020464946FFF7C1FD20464146FFF7BE
:100FE000C9FD204632463946B834FFF7DBFDAC4236
:100FF000EAD1BDE8F88300BF2DE9F04342F674530F
:1010000000F535550027C7502E463A4A3A4B426202
:1010100083B080464FF0000903623035343600F16A
:10102000E00402E0B834A54213D02046FFF78EFD5D
:101030000028F7D03368013333602046FFF710FDF6
:101040002E490BF095FB80BBB834A54207F1010790
:10105000EBD142F6745358F80340E01B0BF078F9DB
:10106000014648460BF07CFA054642F6785058F89F
:1010700000309C4215D042F6905642F68C5342F610
:10108000845242F6885158F8066058F8033058F8F0
:10109000022058F8011048F8004000964046FFF73B
:1010A00077FF284603B0BDE8F0832046FFF7D8FC61
:1010B000014648460BF098F881462046FFF7D0FAE3
:1010C000D8F820100BF054FB70B92046FFF788FACF
:1010D000D8F824100BF02EFB0028A3D02046FFF7F1
:1010E0007FFAC8F824009DE72046FFF7B9FAC8F850
:1010F0002000EAE700C0794400C079C400008CC237
:10110000006A704742F67453C0587047406A70478F
:10111000F8B500F5355507460026303500F1E004F6
:1011200002E0B834AC420FD02046FFF70FFD002894
:10113000F7D02046FFF71EFA014630460BF054F870
:10114000B834AC420646EFD142F67453F8580BF06F
:10115000FFF8014630460BF003FAF8BD2DE9F04FD9
:1011600091B0064696480F91934600F013FB9448C1
:1011700000F010FB924800F00DFB42F6745330462D
:1011800056F80380FFF782FD07463068D6F80490D2
:101190000AF088FC02460B463046CDE90C23FFF7E7
:1011A000B7FF82463046B468F568FFF725FF0AF0BE
:1011B00079FCCDE90A01214628460BF013F8814954
:1011C0000BF01AF90AF06EFCCDE9080128460AF086
:1011D00069FCCDE9060120460AF064FCCDE9040172
:1011E00050460AF05FFCDDE90C23CDE90201CDE9B0
:1011F000002341464B463A46734800F0CBFA70480C
:1012000000F0C8FA0023E03601270C9305E001370F
:101210003F2F06F1B80600F0C2803046FFF796FC7B
:101220000028F4D03046FFF751F93046FFF752F965
:101230003046FFF753F93046FFF754F93046FFF7D1
:1012400081FC08218246614809F096FA39466048D7
:1012500009F07AFD092F40F3AD8002215D4809F0C5
:101260008BFA3046FFF73CFC0AF01CFC9DF83C80F2
:10127000CDF800800B460246554809F06DFD01216E
:10128000554809F079FA3B460C9C474600254FF03B
:10129000010998462EE00621504809F06DFA2146D2
:1012A0004B4809F051FD02214D4809F065FA2946E5
:1012B0003046FFF71BF90AF0F5FB00970B46024694
:1012C000434809F049FD012143480C4409F054FA10
:1012D00009FA05F3BBF1000F09D013EA0A0F4FF02A
:1012E0000201404804BF4048022109F045FA013597
:1012F000082D06D0092CCEDC01213C4809F03CFA2F
:10130000C9E7334809F0D0FC0921394809F034FA1B
:1013100000213046FFF708FC0AF0C4FB0224024615
:101320000B4600942A4809F017FD0A21314809F0BC
:1013300023FA01213046FFF7F7FB0AF0B3FB0094D4
:1013400002460B46224809F007FD0A212A4809F007
:1013500013FA21463046FFF7E7FB0AF0A3FB0B46E2
:101360000C9900940246083119480C91474609F03F
:10137000F3FCBBF1000F15D00D21204809F0FCF95A
:10138000224651460023124809F09EFC01371048BE
:1013900009F08AFC3F2F06F1B8067FF43EAF11B08A
:1013A000BDE8F08F0121164809F0E6F9084809F078
:1013B0007BFC2CE701210D4809F0DEF94DE700BF69
:1013C0001812010000007A44A40D0100440E01002F
:1013D000C887FF1FA81E0100500E0100540E010017
:1013E000581001005C0E0100600E01006810010041
:1013F000640E0100700E01007C0E0100880E0100D9
:10140000980E01002DE9F04F85B000F1E0058A4605
:1014100003929B462E464FF0010806E008F10108B2
:10142000B8F13F0F06F1B8067BD03046FFF78EFBD0
:101430000028F3D000230A2251467D4809F044FCDD
:1014400001217C4809F098F903980AF02BFB00234E
:101450000246009376480B4609F07EFC0121754850
:1014600009F08AF95946724809F06EFC0121714869
:1014700009F082F941466E4809F066FC01216D4889
:1014800009F07AF900244FF0020921463046FFF7AF
:101490002DF80AF007FBCDF8009002460B46644891
:1014A00009F05AFC01340121624809F065F9082C61
:1014B0004FF00207E9D100213046FFF735FB0AF073
:1014C000F1FA009702460B46594809F045FC012104
:1014D000584809F051F901213046FFF725FB0AF081
:1014E000E1FA009702460B46514809F035FC01210C
:1014F000504809F041F939463046FFF715FB0AF02C
:10150000D1FA009702460B46494809F025FC08F13C
:101510000108474809F0C8FBB8F13F0F06F1B806CB
:1015200083D101274FF0000904E001373F2F05F177
:10153000B80579D02846FFF709FB0028F5D000232D
:101540000A2251463C4809F0BFFB0121394807F007
:1015500063FF03980AF0A6FACDF8009002460B4606
:10156000354809F0F9FB0121324807F055FF59468B
:10157000314809F0E9FB01212E4807F04DFF3946BB
:101580002D4809F0E1FB01212A4807F045FF00241E
:101590004FF0020821462846FEF7A8FF0AF082FA1B
:1015A000CDF8008002460B46234809F0D5FB0134F4
:1015B0000121204807F030FF082C4FF00206E9D146
:1015C00000212846FFF7B0FA0AF06CFA00960246AE
:1015D0000B46194809F0C0FB0121164807F01CFF13
:1015E00001212846FFF7A0FA0AF05CFA00960246AD
:1015F0000B46114809F0B0FB01210E4807F00CFF23
:1016000031462846FFF790FA0AF04CFA0096024657
:101610000B46094809F0A0FB0137074809F044FBD5
:101620003F2F05F1B80585D105B0BDE8F08F00BFAB
:10163000C887FF1F9C0E0100B887FF1F014B187061
:10164000704700BF2087FF1F0278002A00F09080BB
:1016500070B5034682B00D46252A2AD158785C1C05
:1016600008B325282FD0732831D0642824D06928C6
:1016700022D066284FD07A2859D0782835D05828DB
:101680002FD062283ED0422838D06C2814D063284E
:1016900012D0742857D054285FD009F0F1F862783E
:1016A000631C002AD8D1344802B0BDE8704009F06C
:1016B000FBBA18781C46F0E72B1D29682E481D46FA
:1016C00009F042FBEBE7104609F0DAF8E7E72E688D
:1016D00030460BF095FE01463046043509F04CF8D3
:1016E000DDE70221254809F047F82E1D2968224828
:1016F00000231022354609F0E7FAD0E702212048FE
:1017000009F03AF82E1D29681B48002302223546AD
:1017100009F0DAFAC3E7073525F007050321D5E913
:10172000002315480091083509F016FBB7E7073587
:1017300025F007050021D5E900230F480091083561
:1017400009F00AFBABE7296801290EBF0D480E48D6
:101750000121043509F010F8A1E72B68012B07BF20
:1017600004210A480A480521043509F005F896E7DE
:10177000014809F099BA00BFC887FF1FA00E0100F9
:10178000A40E0100A80E0100AC0E0100B00E010075
:10179000B80E01000FB400B583B004A951F8040BD2
:1017A0000191FFF751FF03B05DF804EB04B07047FF
:1017B00070B51B4B1B4C1B6882B00D460193019BFF
:1017C0002360194604460023164617480A2209F0EA
:1017D0007BFA0321154808F0CFFF032C07D8DFE878
:1017E00004F01A1510020521114808F0C5FF022166
:1017F000104808F0C1FF31462846FFF725FF02B028
:1018000070BD07210C4808F0B7FFF0E704210B4832
:1018100008F0B2FFEBE70521094808F0ADFFE6E765
:10182000C8C4FF1F4492FF1FC887FF1FC00E0100DE
:10183000DC0E010058100100D40E0100CC0E010096
:10184000C40E01000FB400B5094B187883B020B165
:1018500003B05DF804EB04B0704705AB1A46049979
:101860000193FFF7A5FF03B05DF804EB04B07047E8
:101870002087FF1F0FB4094B00B51B78012B83B0E5
:1018800004D903B05DF804EB04B0704705AB1A4609
:10189000049901930120FFF78BFFF2E72087FF1FD8
:1018A0000FB40B4B00B51B78032B83B004D903B0E6
:1018B0005DF804EB04B0704705AB1A460499019338
:1018C0000320FFF775FF03B05DF804EB04B0704729
:1018D0002087FF1F0A4A0B49D06D936D03FB00F36D
:1018E0004FF47A7000FB03F0642310B50B600AF02C
:1018F0002FFD0549054C0AF033FE206010BD00BFE6
:101900005CC1FF1F3087FF1FE4388E3EC4C2FF1F3B
:1019100038B5044608460D460BF072FD23680246B2
:1019200029465B68204698470546204609F0BCF9E1
:10193000284438BD2DE9F8434848494E494F4A4CA0
:10194000FFF728FF494B4A4A4A494B485A6013253A
:101950001D704A4D4A4AD9601E610021494E5F619F
:101960005C62494FDD624FF07C540C2598619A62AD
:101970004648474A19635E634649474E9F639C64E5
:1019800040F61C470A245D65444DD8641A65022060
:1019900001221962C3F8C060002164269F66DC66DC
:1019A0004FF496773224DD61DD631D6441F2040556
:1019B000587058721A729A6583F84410DE65A3F85D
:1019C0006470A3F86070A3F862404FF05A091D6775
:1019D0004FF47A789967D867C3F88020C3F88410E9
:1019E000C3F89C40C3F8A840DFF8B8C0C3F8A410FF
:1019F000C3F8B020C3F8B400DFF8ACE0C3F8B860B7
:101A000044F6206783F8C42083F8D010FF2641F203
:101A1000883183F8DC20052540F2D662204CC3F8DB
:101A200074906FF03300C3F8A080C3F88CC0C3F883
:101A300090E0C3F89470C3F8AC60A3F8BE50C3F84C
:101A4000C840C3F8CC00C3F89810A3F8BC10A3F8A2
:101A50008820A3F88A20BDE8F88300BFE40E0100C7
:101A60000000404033338340CDCCCC3D5CC1FF1FF0
:101A700020A1070066668640CDCC4C40000020C106
:101A800000008242000020420000A0409A99794064
:101A90000AD7233D333373409A99993ECDCC4C3EBF
:101AA0006C09793B0000114400F0C845F0B50021F5
:101AB00085B0112007F0A8F90021102007F0A4F943
:101AC0000021122007F0A0F90021132007F09CF953
:101AD00001210B2007F098F901210C2007F094F95F
:101AE0000121142007F090F90121152007F08CF94D
:101AF0000121162007F088F90121172007F084F949
:101B00000121052007F080F9954C964D0121062012
:101B100007F07AF901210D2007F076F920880AF004
:101B200013FC0146162007F0D9F820880AF00CFCB7
:101B30000146172007F0D2F820880AF005FC01467C
:101B4000052007F0CBF820880AF0FEFB00240146B0
:101B5000062007F0C3F800942346834A834984484B
:101B600005F048FEE6B232467E49814805F0F0FDB8
:101B70002B797C497E486FF30003013432462B7188
:101B800005F0DCFD082CEDD10924E6B2324675499A
:101B9000774805F0DDFD2B797249754843F0010364
:101BA000013432462B7105F0C9FD0D2CEDD1714C7D
:101BB00023681021D3F8840006F09CFA23681021D2
:101BC000D3F8840006F02AFB23680221D3F88400AE
:101BD00006F0E6F923680221D3F8840006F06EFBD4
:101BE00023680F21D3F8840006F04AFC0C216248D8
:101BF00008F0C2FD614809F057F81421604808F068
:101C0000BBFD5E4809F050F840F2836007F0E2F94E
:101C10005A4809F049F817215A4808F0ADFD5748CD
:101C200009F042F8584B1B789A0600F1CF80564BCA
:101C30001B781B0700F1D680534B1B785F0700F120
:101C4000DD80514B1B789E0700F1E4804F4B1B78E1
:101C50001D0600F1EB804D4B1B785C0600F1F28015
:101C60004A4B1B78980600F1F980484B1B785907BE
:101C700000F10081454B1B781A0700F10781434BA7
:101C80001B789B0700F10E813C4809F00DF872B6F5
:101C90003F4A4CF220534DF628112024138023464E
:101CA0001180013BFDD13B4D3B483C4900234FF4A3
:101CB00080562E8003800B8032F80E3C9BB243F09E
:101CC000D30322F80E3C62B69D2007F02FFD21467B
:101CD0003348344D08F050FD284808F0E5FF05F181
:101CE000E0062F462C46601B06F094FD04F8010B1D
:101CF000B442F8D13B78132B01D0FFF71BFE042030
:101D0000FFF79CFC284B294E002401210D201C606C
:101D100007F066F8B96D2648FFF738F9D7F8CC0018
:101D2000D7F8C830BA6C97F8441000902048FFF7F5
:101D30002FF9204B20491A680392039D1B680293D8
:101D40001E4B029A1E480D601A60347006F04CFC5F
:101D50001C4806F049FC1C4806F046FC05B0F0BDE6
:101D60003487FF1F5CC2FF1FBCC4FF1F20A10700F8
:101D700020C3FF1F00C3FF1F040F0100C887FF1F00
:101D8000140F01002C0F010001F0074000F0074084
:101D90000E20054004200540062005401620054081
:101DA000301001005CC1FF1F94C0FF1F4CC1FF1F1A
:101DB0000093FF1FC8C4FF1F98C0FF1FA0C0FF1FD4
:101DC00048C2FF1FA4C2FF1F38C1FF1F212139488D
:101DD00008F0D2FC384808F067FF384B1B781B0727
:101DE0007FF52AAF0C21364808F0C6FC324808F0CF
:101DF0005BFF324B1B785F077FF523AF0E21314825
:101E000008F0BAFC2C4808F04FFF2C4B1B789E07BB
:101E10007FF51CAF17212C4808F0AEFC264808F0CF
:101E200043FF2A4B1B781D067FF515AF0E2128486E
:101E300008F0A2FC204808F037FF244B1B785C0612
:101E40007FF50EAF1221234808F096FC1A4808F0DF
:101E50002BFF1E4B1B7898067FF507AF13211E48FA
:101E600008F08AFC144808F01FFF184B1B7859072C
:101E70007FF500AF1C21194808F07EFC0E4808F0E1
:101E800013FF124B1B781A077FF5F9AE192114487E
:101E900008F072FC084808F007FF0C4B1B789B0702
:101EA0007FF5F2AE18210F4808F066FC024808F0F2
:101EB000FBFEE9E6440F0100C887FF1F01F0074061
:101EC000680F0100780F0100880F010000F0074043
:101ED000A00F0100B00F0100C40F0100D80F0100D6
:101EE000F80F01001410010070B5424C424D4348F8
:101EF000E66800232B70FFF715F8014630460AF01C
:101F000019FC08B104232B703C48FEF7D7FF216968
:101F10000AF010FC18B12B7843F010032B703748EF
:101F2000FFF7EEF8A16A0AF023FC18B12B7843F012
:101F300040032B70002631486E70FFF7E7F82F48FA
:101F4000EE70FEF7EFFF05462C482B4EFEF7B6FF6E
:101F5000014628460AF046F9E16B0AF009FC08B18F
:101F60000123F370264D254800232B70FEF7DAFF7E
:101F7000616A0646E0680AF035F9014630460AF023
:101F8000F7FB08B104232B701C48FEF797FF616A2A
:101F9000064620690AF028F9014630460AF0CAFBD5
:101FA00018B12B7843F010032B701448FFF7A8F8F2
:101FB000A16B0646A06A0AF015F9014630460AF000
:101FC000D7FB18B12B7843F040032B7000230B484C
:101FD0006B70FFF79BF8A16B0546E06A084C0AF0AE
:101FE00003F9014628460AF0A5FB08B101236370F6
:101FF00070BD00BF5CC1FF1F30C1FF1F0093FF1FFA
:102000004C92FF1F2DE9F0417C4C2368012B82B0DC
:1020100031D0022B00F0A880032B00F0C8803BBB1E
:10202000774B784AD3F8A810D3F8AC3012685B1A13
:10203000632B0EDD744803FB02F380FB0302DB1706
:10204000C3EB62131944062002B0BDE8F04106F06C
:1020500047BD6E4803FB022380FB0302DB17C3EB83
:1020600022121144062002B0BDE8F04106F038BD4E
:1020700002B0BDE8F081664E33680A33B3F57A7F6B
:1020800000F3B780184633600AF062F961490AF03C
:10209000B3F980465A4DD5F8A8000AF059F9074619
:1020A000D5F8AC000AF054F939460AF09BF84146DD
:1020B0000AF0A2F958490AF053FA39460AF094F89E
:1020C0000AF060FB0146062006F00AFD0221534893
:1020D00008F052FB524808F0E7FD0621514808F08D
:1020E0004BFB30680AF034F94A490AF085F909F0E7
:1020F000D9FC022702460B460097494808F02CFEFF
:102100000D21494808F038FBD5F8A8000AF020F95D
:10211000804630680AF01CF93E490AF06DF906461F
:10212000D5F8AC000AF014F941460AF05BF8014614
:1021300030460AF061F938490AF012FA41460AF0CD
:1021400053F809F0AFFC00970B460246344808F0FC
:1021500003FE3946314808F00FFB314808F0A4FD72
:102160002368022B7FF458AF294B254E00221A60BA
:10217000D6F8A8000AF0ECF80546D6F8AC000AF04C
:10218000E7F829460AF02EF800210AF035F922492D
:102190000AF0E6F929460AF027F80AF0F3FA0146B0
:1021A000062006F09DFC2368032B7FF438AF184B04
:1021B000134E4FF47A721A60D6F8A8000AF0C8F8E5
:1021C0000546D6F8AC000AF0C3F829460AF00AF82A
:1021D00011490AF011F910490AF0C2F929460AF02A
:1021E00003F80AF0CFFA0146062006F079FC2368CE
:1021F00015E700234FF0000833604BE78092FF1F84
:102200005CC1FF1F3087FF1F1F85EB51CBF08D286E
:102210003CC2FF1FCDCCCC3D0000C842A81E01002F
:10222000C887FF1F541001005C10010030B59448AE
:10223000944C83B008F038FD914808F035FD904883
:1022400008F032FD0D21904808F096FAD4F8A43039
:10225000012B00F03F818D4D8948297800230A2207
:1022600008F032FD2B78052B0BD8DFE813F0A20124
:10227000A701AC01B101B60106000721844808F0AE
:102280007BFA8448FEF71AFE21690AF053FA002807
:1022900040F08A817F48FEF745FEE1680AF068FA5F
:1022A000002840F07C817B48FEF73CFE05467948DB
:1022B000FEF704FE0146284609F094FFE16B0AF0A0
:1022C00057FA002840F066817248FEF719FFA16AAC
:1022D0000AF04EFA002840F058816E48FEF716FFCB
:1022E000E16A0AF027FA002840F04A8102216A4890
:1022F00008F042FA122006F079FD012800F09981D9
:10230000112006F073FD012800F08581634B1B68E6
:10231000012B00F0898102215F48614C08F02CFA02
:10232000604B5748196808F00FFD554808F0BCFC91
:1023300004215D4808F020FA0B2006F057FD002329
:1023400001460A224E4808F0BFFC0C2006F04EFD64
:10235000002301460A224A4808F0B6FC142006F081
:1023600045FD002301460A22454808F0ADFC152032
:1023700006F03CFD0A2200230146414808F0A4FC77
:1023800006214A4808F0F8F92368DD074FF00101FB
:102390004CBF4748474808F0EFF9236898074FF0CB
:1023A00001014CBF4248434808F0E6F923685A0748
:1023B0004FF001014CBF3E483E4808F0DDF923686C
:1023C0001B074CBF3A483B48012108F0D5F90421CE
:1023D000394808F0D1F9112006F008FD0023014624
:1023E0000A22274808F070FC102006F0FFFC0023AA
:1023F00001460A22224808F067FC122006F0F6FC8B
:10240000002301460A221E4808F05EFC132006F055
:10241000EDFC0A2200230146194808F055FC18215A
:10242000264808F0A9F9264BB3F9000009F090FFFF
:10243000244909F0E1FF09F035FB002402460B4670
:1024400000940F4808F088FC1D211F4808F094F9FB
:102450001E4BB3F9000009F07BFF1A4909F0CCFFCD
:1024600009F020FB009402460B46054808F074FC76
:102470001748022103B0BDE8304008F07DB900BF25
:10248000C887FF1F5CC1FF1F6C1001004CC1FF1FFC
:102490003C1101000093FF1FA81E01006CC2FF1F2A
:1024A000F0C2FF1F5892FF1F741101007C11010040
:1024B0008411010000210100881101009011010028
:1024C0007C92FF1FCDCCCC3DAC110100E8C2FF1FB8
:1024D000CC1101000921644808F04EF96348FEF769
:1024E000EDFC21690AF026F9002840F085805F485C
:1024F000FEF718FDE1680AF03BF9002840F08680FD
:102500005A48FEF70FFD05465848FEF7D7FC01462E
:10251000284609F067FEE16B0AF02AF9002870D11D
:102520005248FEF7EDFDA16A0AF022F900285ED1BB
:102530004E48FEF7EBFDE16A0AF0FCF8002851D1A5
:102540004B4B4A481B68012B78D0FEF7B7FC21693A
:10255000484D0AF00DF900283FF4C8AE4348FEF795
:10256000E1FCE9680AF0E6F800283FF4BFAE424B10
:102570001B78052B72D00821404808F0FDF8B5E61D
:102580000D213F4808F0F8F8B0E60C213D4808F06E
:10259000F3F8A2E611213C4808F0EEF894E60E218B
:1025A0003A4808F0E9F87EE60F21394808F0E4F8E7
:1025B00070E60621374808F0DFF862E60721364862
:1025C00008F0DAF85DE60721344808F0D5F858E657
:1025D0000821334808F0D0F853E60B21314808F0C1
:1025E000CBF84EE60D21264808F0C6F8A8E70C21E6
:1025F000244808F0C1F89BE70F21254808F0BCF8F3
:1026000075E71121204808F0B7F889E70E211F4827
:1026100008F0B2F874E70A21234808F0ADF8234B1C
:102620001B68012B7FF477AE1121214808F0A4F834
:1026300071E60E211F4808F09FF861E6FEF73EFCA8
:10264000216A0AF095F8002895D016211A4808F05A
:1026500093F80A21194808F08FF847E60A2117482D
:1026600008F08AF842E600BF7C1001000093FF1FCB
:102670008892FF1F5CC1FF1F4CC1FF1F00110100AA
:10268000CC100100BC100100A8100100981001003E
:10269000881001000C110100141101002811010023
:1026A000301101001C110100541101006CC2FF1F08
:1026B0006011010044110100DC100100F410010060
:1026C0002DE9F04F8D4CE66F012E8FB000F0C781E1
:1026D000032E00F04381DFF87C82894F894EA36F7F
:1026E0008948012B09BF3168316801F1004131602F
:1026F00005F042FF3B68002B40F0E6808248DFF89F
:10270000549205F00FFF3B68C8F800000546002B07
:1027100040F0BC80E36F794A012B00F0CB807B490D
:102720007B4F28460AF024F8002841D03B68DFF8A8
:10273000F89109930998D9F80030DFF81CA2C01A63
:1027400009F002FE294609F057FE724909F008FF18
:10275000704909F005FFDAF8001009F045FD3B6803
:102760000893089BCAF80000C9F80030D4F8B000FC
:10277000694C09F0EDFD294609F03EFE0023336067
:10278000C8F8000009F0FEFF0146644805F03AFF72
:1027900009F0DEFD3B68624A0B9311680B9B2060D9
:1027A0005B1AB3F57A7F5A490ED80FB0BDE8F08FA7
:1027B0005C49284609F0BEFF0028B7D13A685A4B59
:1027C0000A920A9A1A60D1E70B680C930C9B534843
:1027D000136005F043FF2068544D09F0D3FF014614
:1027E000534805F00FFF09F0B3FD524A2860136803
:1027F00001333A2B00F3088213604F4B1B68002B08
:10280000D3D04E4808F050FA3B680D930A220023BB
:102810000D994A4808F058FA0121494807F0ACFFE1
:10282000D8F8000009F03EF9022602460B46009651
:10283000424808F091FA0121414807F09DFF2068C5
:1028400009F030F9009602460B463C4808F084FA3D
:1028500001213B4807F090FF286809F023F9009612
:1028600002460B46354808F077FA0121344807F054
:1028700083FF344B186809F015F9009602460B46A1
:102880002E4808F069FA0FB0BDE8F08F09F00AF998
:10289000022502460B460095284808F05DFA0421FF
:1028A000294807F069FFE36FD9F80050134A012B5C
:1028B0007FF435AF254B1B68012B00F01982022BEA
:1028C00000F06981124F51E70F4805F02BFE09F027
:1028D000E9F8022502460B460095184808F03CFA34
:1028E00003211B4807F048FFD4F89410134808F060
:1028F0002BFA0321164807F03FFFFFE65CC1FF1FDC
:102900009CC2FF1FE4C2FF1F78C2FF1F0000FA43F2
:10291000C8C4FF1F00007A4498C2FF1F48C2FF1FAF
:102920006492FF1F0000FAC32CC1FF1FD8C2FF1F13
:10293000A4C2FF1F44C2FF1FFC92FF1FC887FF1FD6
:102940006810010058C1FF1F141201005487FF1FB7
:102950001012010034C1FF1FC4C2FF1FB74DB84F92
:102960002B68DFF81083D3F884000F2101233B602C
:1029700005F086FD3B68B34F012B3B6800F0968065
:10298000002B40F07D812B68DFF8EC92D3F88400B7
:10299000436B19698EB2C9F8006005F0FFFAB4F80C
:1029A0008A2040F6E44303FB06F1B1FBF0F0801A05
:1029B00000B209F0CDFCA449A44E8246D4F88C00A4
:1029C00009F01AFD0146504609F0CAFDD9F8003059
:1029D0003060632BDFF8A0A200F323810023336073
:1029E0003B68002B3FF47BAE0221994807F0C4FE00
:1029F0002B68D9F80050D3F8840040F6E44303FB79
:102A000005F505F0CBFAB5FBF0F009F09DFC0546A5
:102A1000B4F88A0009F09CFC0146284609F0E2FB64
:102A200009F040F8022502460B460095894808F057
:102A300093F92946864807F09FFE306809F032F87E
:102A4000009502460B46834808F086F929468248DD
:102A500007F092FE29467E4807F08EFE3FE6DFF83B
:102A60001482D4F89470D8F80050384609F070FCFD
:102A7000294609F07DFE48B1784209F069FC01461B
:102A8000284609F075FE002840F064816B4D6C4FBC
:102A90002A680223D2F884003B600E2105F0F0FC86
:102AA0003B68684F012B3B687FF46AAF002B40F016
:102AB0005B812B68DFF8C091D3F88400436B196900
:102AC0001FFA81FBC9F800B005F068FAB4F8883045
:102AD0005E4E40F6E44A0AFB0BFBBBFBF0F0C01A6B
:102AE00000B209F035FC58498346D4F8900009F04B
:102AF00083FC0146584609F033FD2A68D9F80030B6
:102B00003060D2F884000AFB03FA05F047FAB4F803
:102B10008830BAFBF0F00FFA80FAC3EB0A03002BFF
:102B2000B4F8BE20B8BF5B429342BCBF0023336001
:102B30003B68002B3FF4D3AD0221454807F01CFE53
:102B40002B68D9F80050D3F8840040F6E44303FB27
:102B500005F505F023FAB4F88810B5FBF0F000B2E3
:102B6000411A3C4808F0F0F80221394807F004FE09
:102B7000306808F097FF022502460B46009535485D
:102B800008F0EAF80321354807F0F6FD29463048F9
:102B900007F0F2FDA3E5D2F89470384609F0D8FBAF
:102BA000294609F0C7FD68B9784209F0D1FB2946EA
:102BB00009F0DEFD30B92A4F2A4B3A680792079A8E
:102BC0001A60D3E5264FDFF89C903B680693069881
:102BD000D9F80030DFF8A4A0C01A09F0B5FB2946E7
:102BE00009F00AFC204909F0BBFC1F4909F0B8FCB8
:102BF000DAF8001009F0F8FA3B680593059BCAF86B
:102C00000000C9F80030B1E50023136009F0BAFDF7
:102C100001461648164E05F0F5FC09F099FB3060A8
:102C2000EBE52B68D3F8840005F0B8F9DAF800304A
:102C300064389842FFF4D2AED2E600BF00C3FF1F53
:102C40005487FF1F9CC2FF1FACC52737E4C2FF1F7C
:102C5000A81E0100C887FF1F0C120100F811010017
:102C6000C8C4FF1F2CC1FF1F00007A4438C1FF1FDA
:102C700058C1FF1F34C1FF1F10C3FF1FC4C2FF1F75
:102C80005748DFF89491DFF87CA108F00DF80C218B
:102C9000544807F071FD0C21534807F06DFD2A6878
:102CA0003B68D2F88400426B11698EB2C9F80060AB
:102CB000002B3FF472AE05F071F940F6E4410023B9
:102CC0000A2201FB06F1B1FBF0F1454807F0FCFFD9
:102CD0000221464807F050FDB4F88A10404808F039
:102CE00033F8DAF80030D9F80060D3F8840054E6FD
:102CF0003F49404F284609F03BFD50B93E49284620
:102D000009F018FD28B93A683C4B0492049A1A60FD
:102D10002CE53B68DFF8E49003930398D9F8003082
:102D2000DFF8F8A0C01A09F00FFB294609F064FB90
:102D3000334909F015FC324909F012FCDAF80010A9
:102D400009F052FA3B680293029BCAF80000C9F8E6
:102D500000300BE52B4D2C4F2B683E60D3F88400E0
:102D60000F2105F08DFB05E61D48DFF8AC90254EE0
:102D700007F09AFFE36F012B4FF00B010CBF2348C4
:102D8000234807F0F9FC0C21174807F0F5FC2A68E6
:102D90003B68D2F88400426B11691FFA81FBC9F8C5
:102DA00000B0002B3FF490AE05F0F8F840F6E44197
:102DB00000230A2201FB0BF1B1FBF0F1084807F0F8
:102DC00083FF0121134807F0D7FCB4F888100448AA
:102DD00007F0BAFF3368D9F800B0D3F8840073E67F
:102DE000C887FF1FFC110100E8110100A81E0100A7
:102DF0000000FA43C8C4FF1F0000FAC32CC1FF1F24
:102E000000007A4400C3FF1F5487FF1FD011010048
:102E1000DC1101006810010010C3FF1FC4C2FF1FB6
:102E20002DE9F0478B4D2B6884B043B98A4B1B6862
:102E30000393039A42F210739A4200F2B580874CD2
:102E4000874F884EDFF86082D4F88420834B012AB4
:102E500003D0DA6F002A40F095808348FEF758F9D6
:102E60008249D4F86890E56E09F0C6FA09F0B0FC22
:102E7000226F636FC9EB02025B1B80B29A42C9EBFF
:102E80000000D4F85C90C6BF03FB00000132584339
:102E900090FBF2F02844A56D00FB09F005FB00F063
:102EA00000EB8000400009F053FA714909F058FB2B
:102EB0008246306005FB09F54FF47A7000FB05F09F
:102EC00009F046FA6A49DFF898910546504609F03C
:102ED00093FA294609F044FB664909F08DFA09F096
:102EE00051FC6328386047DD2846614909F038FB0A
:102EF00064233060C9F80030D8F80030002B38D097
:102F0000E36F564D012B43D0032B00F09680022B2C
:102F100000F08E800221584807F02EFC574B1868AD
:102F200008F0C0FD022402460B460094544807F006
:102F300013FF2146534807F01FFC21464E4807F077
:102F40001BFC39684E4807F0FFFE06214E4807F08B
:102F500013FC3068464909F04FFA08F0A3FD0094CD
:102F600002460B46464807F0F7FE0321474807F0A4
:102F700003FC04B0BDE8F0870028BCBF0023C9F8FB
:102F80000030B9E7D6F800A0D3F85C909D6D91E7CA
:102F90003F4B1B68012B4FF00A010CBF3D483E48D8
:102FA00007F0EAFBEB6FAFE72F482C4CFEF7B0F8C9
:102FB0002E49A76EE66E09F01FFA09F009FC226F90
:102FC000636FD21B9B1B80B29A42A0EB07003ADDD5
:102FD00003FB0000531C90FBF3F31E44E06DA36D54
:102FE0001F4FDFF8C4803E6000FB06F003FB00F0DB
:102FF00000EB8000400009F0ABF91D49194E09F0C3
:10300000AFFAD8F80030306001222A60002B3FF47C
:103010001BAF0221184807F0AFFB194807F044FE28
:1030200059211E4807F0A8FB154807F03DFE0BE7A5
:1030300007211B4807F0A0FB6CE71021194807F097
:103040009BFBE36F63E703FB00F393FBF2F31E4488
:10305000C4E700BFF892FF1FC8C4FF1F5CC1FF1F79
:103060003087FF1FC4C2FF1F0093FF1F00007A4478
:10307000E4388E3E0000C842A81E010034C1FF1F84
:10308000C887FF1F0C120100AC120100B41201002E
:103090005487FF1F78120100841201001C120100E6
:1030A000A4120100901201002487FF1F30B51120E7
:1030B00083B005F09BFE012818D0122005F096FE83
:1030C000012813D000210B2005F08AFE00210C20DE
:1030D00005F086FE0021152005F082FE2649274BCB
:1030E0000120002208701A6003B030BD01211520B4
:1030F00005F076FE224A234C234B1268D4F8981030
:1031000001921B68019A1D4D0B4493424FF002013E
:10311000296005D901210C2005F062FE03B030BD05
:10312000D4F8A00009F014F9184B196809F002FB53
:103130000028EFD101210B2005F052FE94F8C43095
:1031400003242C6043B10C4B02221A7000210C2086
:1031500005F046FE03B030BD122005F047FE012801
:1031600008BF054B4FF0110008BF1C7005F03EFE74
:103170000128EBD1E7E700BF4CC1FF1FF492FF1F0E
:10318000C8C4FF1F5CC1FF1F98C0FF1F34C1FF1FD1
:10319000F0B5684E684D34682B689C4287B039D0D2
:1031A00014F0010155D014F0020149D014F00401CB
:1031B0003DD0E3070ED52B68DF070BD45F4F3A688D
:1031C000002A00F082805E4B1B680193019B9342B2
:1031D0006DD83468A0070DD52B6899070AD4594FCC
:1031E0003A68002A4CD0564B1B680393039B9342CA
:1031F00038D8346862070DD52B685B070BD4524F63
:103200003A68002A7ED04E4B1B680593059B93427B
:1032100068D834680CB107B0F0BD2146162005F01F
:103220005FFC2146172005F05BFC07B0F0BD0520D0
:1032300005F056FC2B68346803F0FB032B60B8E7FD
:10324000172005F04DFC2B68346803F0FD032B605C
:10325000ACE7162005F044FC2B68346803F0FE034D
:103260002B60A0E7394B1720D3F89C1005F038FCF1
:103270002B68346843F0020300222B603A60B9E700
:10328000334807F011FD0C21324807F075FA304839
:1032900007F00AFDFF21172005F022FC284B2E4ADB
:1032A00019680291029912680A443A609CE7274B18
:1032B0001620D3F89C1005F013FC2B68346843F0FB
:1032C000010300222B603A6084E7FF21162005F0FD
:1032D00007FC1B4B204A19680091009912680A44A8
:1032E0003A6071E7194B0520D3F89C1005F0F8FB04
:1032F0002B68346843F0040300222B603A60002CF2
:1033000089D18AE7124807F0CFFC0C21134807F057
:1033100033FA0F4807F0C8FCFF21052005F0E0FB59
:10332000074B0D4A19680491049912680A443A60DF
:103330006AE700BFF492FF1FF0C2FF1F40C2FF1FE9
:10334000C8C4FF1F64C2FF1F68C2FF1F5CC1FF1F0C
:10335000C887FF1FB81201004087FF1FC812010075
:103360002DE9F047534EDFF870813368DFF86C9138
:10337000D3F88400504D0F2105F082F8002301227C
:1033800022214E48C8F80030C9F8002007F0F4F9AF
:10339000D8F80030132B20DC40F6E4473368B5F84A
:1033A00088A0D3F88400436B1C6904F0F7FDA4B235
:1033B000012107FB04F4B4FBF0F441485444A5F8A0
:1033C000884007F0D9F9642005F046FDD8F80030B0
:1033D0000133132BC8F80030E0DDB5F88830394AE6
:1033E0003948A2FB03129B1A02EB5303C3F30F13DA
:1033F0001946A5F8883007F0A7FC1D21334807F0CF
:10340000BBF90221324807F0B7F92F4807F04CFC0E
:1034100032680023D2F88400C8F800300E2105F08D
:103420002FF8022322212548C9F8003007F0A4F91B
:10343000D8F80030132B20DC40F6E4473368B5F8A9
:103440008A90D3F88400436B1C6904F0A7FDA4B2F2
:10345000012107FB04F4B4FBF0F419484C44A5F82F
:103460008A4007F089F9642005F0F6FCD8F80030AE
:103470000133132BC8F80030E0DDB5F88A30114A6B
:103480001148A2FB03129B1A02EB5303C3F30F1361
:103490001946A5F88A3007F057FC1D210D4807F0A2
:1034A0006BF902210A4807F067F90748BDE8F047C1
:1034B00007F0FABB00C3FF1F5CC1FF1FD812010059
:1034C0001C13010087611886C887FF1FFC120100CA
:1034D000A81E0100201301006092FF1F5487FF1FE8
:1034E0002DE9F843C84DD5F8B430072B00F0898199
:1034F000C64BC74C1B68686D40F2513108222160F1
:10350000E271002B00F0788108F022FF296A06465C
:1035100008F072FFBF4908F06FFF09F059F980B257
:1035200003126372BC4ABD4BB2F90020B3F90030FC
:103530002072A969A37230461B121612E37222731D
:10354000667308F059FFB34908F056FF09F040F9D7
:1035500083B21A12AE49B248A373E27304F042FB7D
:10356000B04BB14A1B68AA4E1288A272DFB207EBB9
:103570008701277203EB8307490047F3D71740F20F
:10358000553E12124FF000081B122173677331462B
:103590000827A348C4F800E0E2726372E77184F878
:1035A0000E8084F80F8004F01DFB40F256339F48D4
:1035B0002360E771FDF7E8FC9D4908F01DFF09F065
:1035C00007F920729948FDF7DFFC994908F014FFCC
:1035D00009F0FEF8974A9649C0F307231068637212
:1035E00008F0BEFF09F0CEF840FA07F203468F4814
:1035F000E272A372FDF700FD864908F0FDFE09F0B6
:10360000C1F820738948FDF7F7FC824908F0F4FE01
:1036100009F0B8F8314640F307238148637384F812
:103620000E8084F80F8004F0DDFA022005F014FC0F
:10363000814A824B10785178207290786172D278EA
:103640001978A072987893F801E0E2722173DA7821
:10365000A07340F25A333146714884F80DE0E273AA
:103660002360E77104F0BEFA754B6D481A785978FB
:10367000227261729A78D978A272E1721A795979B4
:1036800093F806E022736173DA7984F80EE040F271
:103690005E333146E2732360E77104F0A3FA02203F
:1036A00005F0DAFB674B5E481A785978227261722E
:1036B0009A78D978A272E1721A79597993F806E06A
:1036C00022736173DA79E7714FF45C7331462360DA
:1036D00084F80EE0E27304F085FA5B4B1B68012B63
:1036E00000F0B880022005F0B7FB082640F27333E3
:1036F0004E482360E671FDF7E1FB544908F07CFE7B
:1037000009F066F820724948FDF7D8FB4F4908F0E8
:1037100073FE09F05DF8C0F3072344486372FDF7B8
:1037200001FC4A4908F068FE09F052F8A0723F48CF
:10373000FDF7F8FB454908F05FFE09F049F8C0F3D2
:1037400007233A48E372FDF7E1FC414908F04CFDDC
:1037500009F03EF820733548FDF7D8FC3C4908F0E5
:1037600043FD09F035F8C0F3072330486373FDF7D4
:10377000C7FC374908F038FD09F02AF8A0732B4838
:10378000FDF7BEFC324908F02FFD09F021F8204971
:10379000C0F307232248E37304F024FA022005F063
:1037A0005BFBA96DEB6D022211FB03F3104640F2A7
:1037B0007931C3F30725E27121602372657205F048
:1037C0004BFB40F2723319482360E671FDF79AFC17
:1037D00020721648FDF796FC002340FA06F262724A
:1037E000A372E37223736373A373E37308490C48F2
:1037F000BDE8F84304F0F6B908F0AAFD6969064689
:1038000086E6034CACE600BF5CC1FF1F8892FF1F39
:103810006892FF1F00002041E8C2FF1F7C92FF1F3B
:1038200020C3FF1F3087FF1F3687FF1F0093FF1F36
:103830000000C84234C1FF1F30C1FF1F4C92FF1F60
:103840005C87FF1F3887FF1F6CC2FF1F00007A4490
:10385000339388432648DFF8A890FDF72FFB296DA6
:1038600008F0C2FC80462248FDF75CFB014640465A
:1038700008F060FF00283FF435AF40F2C3331C4826
:10388000F7713360FDF71AFBD9F84C70394608F030
:1038900051FFC0B11749384608F0AEFD08F098FF57
:1038A00080B20312707233720023012704260322B0
:1038B00011491248A772E67222736373A373E3730C
:1038C00004F090F90EE70A48FDF7F8FA094908F004
:1038D00093FD08F07DFFC0F3072305483372FDF721
:1038E000EDFA044908F088FD08F072FF7072DBE71A
:1038F0000093FF1F00007A446892FF1F20C3FF1F40
:103900005CC1FF1FF0B59A4C9A4D83B006F0CEFE15
:1039100023682860042B00F02283092B7BD0022B24
:103920004CD1A0F13102422A7ED8DFE812F03F09E3
:103930004B095909EF0067097809870991097D004A
:103940007D007D007D007D007D007D007D007D008F
:103950007D007D007D007D007D007D007D007D007F
:103960007D007D007D007D007D007D007D007D006F
:103970007D007D007D007D007D007D007D007D005F
:103980007D007D007D007D007D007D007D007D004F
:103990007D0043007D007D007D007D007D007D0079
:1039A0007D007D007D007D007D007D007D00790033
:1039B0007D00B808FFF7D4FC23682868082B40F086
:1039C000B680332801F0168600F36A83312801F0AF
:1039D000CD85322828D106F0A5FE002841F3C28506
:1039E0006548664E07F0F2FA08F0B2FC644908F048
:1039F00003FDD6F8CC20D6F8C83096F844100092D3
:103A0000074602465F48B764FDF7C2FA0123692002
:103A10002360286065E3312800F05983712803D1C1
:103A20000023732023602860732808BF002B0CBF7D
:103A300001200020002867D04F4807F035F9042105
:103A4000514806F099FE4C4807F02EF910214F48D6
:103A500006F092FE484807F027F913214C4806F07B
:103A60008BFE4C4B4448196807F06EF9424807F04A
:103A70001BF91421484806F07FFE3F4807F014F96F
:103A80001E21464806F078FE3B4807F00DF9152147
:103A9000434806F071FE384807F006F91E214148F8
:103AA00006F06AFE344807F0FFF820213E4806F091
:103AB00063FE314807F0F8F819213C4806F05CFE37
:103AC0002D4807F0F1F81221394806F055FE2A4832
:103AD00007F0EAF81621374806F04EFE264807F0B0
:103AE000E3F80F21344806F047FE234807F0DCF8DE
:103AF0000D21324806F040FE1F4807F0D5F8304A45
:103B0000002101231160236003B0F0BD0123236075
:103B100006F008FE002807DD1748184E07F056FA91
:103B200008F016FCC6F89000632023682860072B75
:103B30004AD1332801F0458500F39E82312801F0F7
:103B40002A8532287FF470AF06F0ECFD002839DDBD
:103B500009480A4E07F03AFA08F0FAFB084908F05B
:103B60004BFC61230122F06322602B601846B8E20F
:103B70000CC3FF1F5492FF1FC887FF1F5CC1FF1FAC
:103B80006F12833A0093FF1F0C1D0100141D0100EA
:103B9000281D01005087FF1F3C1D0100541D01001E
:103BA000741D01008C1D0100AC1D0100D01D010021
:103BB000EC1D0100001E0100181E0100281E01005E
:103BC0002487FF1F23682868062B40F08D80A0F112
:103BD0003102402A3FF628AF01A151F822F000BF80
:103BE0001F4A00004B4A0000774A0000A14900002C
:103BF0000B4A0000C9490000ED490000293A0000C5
:103C00007B490000293A0000293A0000293A0000C7
:103C1000293A0000293A0000293A0000293A000018
:103C2000293A0000293A0000293A0000293A000008
:103C3000293A0000293A0000293A0000293A0000F8
:103C4000293A0000293A0000293A0000293A0000E8
:103C5000293A0000293A0000293A0000293A0000D8
:103C6000293A0000293A0000293A0000293A0000C8
:103C7000293A0000293A0000293A0000293A0000B8
:103C8000293A0000293A0000293A0000293A0000A8
:103C9000293A0000293A0000293A0000293A000098
:103CA000293A0000293A0000293A0000293A000088
:103CB000293A0000293A0000293A0000293A000078
:103CC000293A0000293A0000293A0000293A000068
:103CD000293A0000293A0000293A0000293A000058
:103CE000213A000023682868052B40F08D80A0F160
:103CF0003102402A3FF698AE01A151F822F000BFF0
:103D00001B4900003B4900005B4900005947000087
:103D1000D5480000F1480000293A0000293A000087
:103D2000293A0000293A0000293A0000293A000007
:103D3000293A0000293A0000293A0000293A0000F7
:103D4000293A0000293A0000293A0000293A0000E7
:103D5000293A0000293A0000293A0000293A0000D7
:103D6000293A0000293A0000293A0000293A0000C7
:103D7000293A0000293A0000293A0000293A0000B7
:103D8000293A0000293A0000293A0000293A0000A7
:103D9000293A0000293A0000293A0000293A000097
:103DA000293A0000293A0000293A0000293A000087
:103DB000293A0000293A0000293A0000293A000077
:103DC000293A0000293A0000293A0000293A000067
:103DD000293A0000293A0000293A0000293A000057
:103DE000293A0000293A0000293A0000293A000047
:103DF000293A0000293A0000293A0000293A000037
:103E00000B49000023682868032B40F0A480A0F130
:103E10003002422A3FF608AE01A151F822F000BF5D
:103E20002D3F00003F53000067530000C5530000C2
:103E3000E753000009540000575200007F52000071
:103E40009D52000017530000293A0000293A000053
:103E5000293A0000293A0000293A0000293A0000D6
:103E6000293A0000293A0000293A0000293A0000C6
:103E7000293A0000293A0000293A0000293A0000B6
:103E8000293A0000293A0000293A0000293A0000A6
:103E9000293A0000293A0000293A0000293A000096
:103EA000293A0000293A0000293A0000293A000086
:103EB000293A0000293A0000293A0000293A000076
:103EC000293A0000293A0000293A0000293A000066
:103ED000293A0000293A0000293A0000293A000056
:103EE000293A0000A7510000D54C0000895100007C
:103EF000C5510000E3510000015200006D4C00006C
:103F0000914C0000293A0000B74C0000E352000039
:103F1000293A0000293A0000293A0000293A000015
:103F2000293A00000B530000C352000006F0FAFBD0
:103F3000002841F31083BC48BC4E07F047F8012726
:103F4000034601466222BA48B36527602A60FDF73E
:103F50001DF823682868012B7FF466ADC1E0A0F14D
:103F60003002412A3FF660AD01A151F822F000BFB6
:103F7000594B00006D4B0000B94A0000D14A0000C7
:103F8000F74A0000FB4A0000714B0000834B000021
:103F9000874B00008B4B0000293A0000293A0000B3
:103FA000293A0000293A0000293A0000293A000085
:103FB000293A0000293A0000293A0000293A000075
:103FC000293A0000293A0000293A0000293A000065
:103FD000293A0000293A0000293A0000293A000055
:103FE000293A0000293A0000293A0000293A000045
:103FF000293A0000293A0000293A0000293A000035
:10400000293A0000293A0000293A0000293A000024
:10401000293A0000293A0000293A0000293A000014
:10402000293A0000293A0000293A0000293A000004
:10403000293A0000293A0000293A0000293A0000F4
:10404000293A0000293A0000293A0000293A0000E4
:10405000293A0000293A0000293A0000293A0000D4
:10406000293A0000293A0000293A0000293A0000C4
:10407000293A0000213A000034287FF4CFAC06F042
:1040800051FB00287FF79EAD6748684E06F09EFF03
:1040900061230122A6F8BC0022602B60184620E0B4
:1040A00034287FF4BBAC06F03DFB002841F35A8274
:1040B0005D485E4E06F08AFF4742D6F8C830B26CC3
:1040C00096F844105A480097C6F8CC709CE4574EB6
:1040D00096F8D03001225340782086F8D030226004
:1040E0002860A0F15203262B01F22C82DFE813F0A6
:1040F000250A2A0A2A0A2A0A2A0A2A0A2A0A2A0A25
:104100002A0A2A0A2A0A2A0A2A0A2A0A2A0A29001A
:10411000BF0BC5021E025C012A0A2A0A2A0AF00005
:104120002A0ABC0B2A0A2A0A2A0A2A0A2A0A130A73
:104130002A0A2A0A2A0A2A0A2A0A2A0AB60006F09B
:10414000B5FA06F0EFFA05460028F8D13648374EA2
:1041500006F0AAFD344806F0A7FD334806F0A4FD9A
:10416000314806F0A1FD304806F09EFD1F21314880
:1041700006F002FB2C4806F097FD1C212E4806F0A5
:10418000FBFA706A2D4908F037F907F08BFC0095AF
:1041900002460B46244806F0DFFD0221284806F0BF
:1041A000EBFA214806F080FD2321264806F0E4FAC8
:1041B000F06B224908F020F907F074FC00950246E4
:1041C0000B46194806F0C8FD02211D4806F0D4FA36
:1041D000154806F069FD19211B4806F0CDFAB06BB1
:1041E00007F060FC02250B46024600950E4806F0DB
:1041F000B3FD2946154806F0BFFA0B4806F054FDFA
:104200001021134806F0B8FAB6F8BC10064806F0BC
:104210009BFD03210F4806F0AFFA034806F044FD6A
:104220000723236070E400BFC887FF1F5CC1FF1F26
:104230000093FF1FCC150100EC15010000007A442B
:10424000F41301000C16010030160100C81501001E
:104250004C1601006016010006F028FA06F062FA1A
:104260000028F9D19B4806F01FFD9A4806F01CFD76
:10427000984806F019FD974806F016FD954806F097
:1042800013FD1221944806F077FA924806F00CFDCF
:10429000904806F009FD1621904806F06DFA904B03
:1042A00093F8D030002B41F0CC8104218D4806F0EA
:1042B00063FA884806F0F8FC13218B4806F05CFA94
:1042C000844806F0F1FC092323601DE406F0EEF9B2
:1042D00006F028FA05460028F8D17E48804E06F000
:1042E000E3FC7C4806F0E0FC7A4806F0DDFC794807
:1042F00006F0DAFC774806F0D7FC15217B4806F07B
:104300003BFA744806F0D0FC1821794806F034FADC
:104310002B460A2296F844106E4806F0D5FC6D48EC
:1043200006F0C2FC2821734806F026FAB06C7249E8
:1043300008F062F807F0B6FB009502460B466548A8
:1043400006F00AFD02216D4806F016FA614806F0F3
:10435000ABFC19216A4806F00FFAD6F8C80007F03E
:10436000A1FB04250B46024600955A4806F0F4FCD2
:10437000584806F099FC1821624806F0FDF9D6F875
:10438000CC10544806F0E0FC524806F08DFC132196
:10439000554806F0F1F94F4806F086FC08232360E3
:1043A000FFF7B2BB06F082F906F0BCF9054600281B
:1043B000F8D148484A4E06F077FC464806F074FCAF
:1043C000444806F071FC434806F06EFC414806F094
:1043D0006BFC11214C4806F0CFF93E4806F064FC16
:1043E00028214A4806F0C8F97069434908F004F8E2
:1043F00007F058FB009502460B46364806F0ACFC29
:1044000002213E4806F0B8F9324806F04DFC16216C
:104410003F4806F0B1F9F069374907F0EDFF07F0C2
:1044200041FB00950B4602462A4806F095FC022106
:10443000324806F0A1F9274806F036FCD6F8B43029
:10444000002B34DD1D21334806F096F9B6F96000E3
:1044500007F07EFF304907F0CFFF07F023FB02256E
:1044600002460B4600951B4806F076FC01212B48BE
:1044700006F082F9174806F017FC1F21284806F0BD
:104480007BF9B6F9620007F063FF234907F0B4FF38
:1044900007F008FB009502460B460E4806F05CFC50
:1044A00001211E4806F068F90A4806F0FDFB1121BB
:1044B0001C4806F061F9D6F8B430072B00F2BC872F
:1044C000DFE813F01F0824081A08150810080B0865
:1044D0000608B607C887FF1F041E01006413010009
:1044E0005CC1FF1F7C13010098130100D41D010063
:1044F000AC130100C813010000007A44F41301005A
:10450000F813010014140100781D0100301401009B
:104510005C14010074140100CDCCCC3DB019010035
:1045200094140100B414010006F0C0F806F0FAF883
:104530000028F9D1934806F0B7FB924806F0B4FB87
:10454000904806F0B1FB8F4806F0AEFB8D4806F0B0
:10455000ABFB13218C4806F00FF98A4806F0A4FB48
:104560000D218A4806F008F9864806F09DFB0F21C8
:10457000874806F001F9874B8248196806F0E4FB8A
:10458000804806F091FB1321834806F0F5F8834B31
:104590007C48196806F0D8FB7A4806F085FB1221A2
:1045A0007F4806F0E9F87F4B7648196806F0CCFBA7
:1045B000744806F079FB11217B4806F0DDF87B4B4F
:1045C0007048196806F0C0FB6E4806F06DFB0E21BE
:1045D000774806F0D1F8774B6A48D3F8A41006F074
:1045E000B3FB684806F060FB1921734806F0C4F875
:1045F000724B6448196806F0A7FB624806F054FB4A
:1046000011216F4806F0B8F86E4B5E48196806F045
:104610009BFB5C4806F048FB10216B4806F0ACF8A9
:104620006A4B5848196806F08FFB564806F03CFB69
:104630001C21674806F0A0F8664B5248196806F03E
:1046400083FB504806F030FB1B21634806F094F8CA
:10465000624B4C48197806F077FB4A4806F024FB79
:1046600013215F4806F088F8464806F01DFB042336
:104670002360FFF749BA06F019F806F053F800284E
:10468000F9D140484B4E06F00FFB3E4806F00CFBBC
:104690003C4806F009FB3B4806F006FB394806F0AB
:1046A00003FB1F214F4806F067F8364806F0FCFA76
:1046B0001E214D4806F060F8324806F0F5FA1A213E
:1046C0004A4806F059F8F36F022B01F09880032B4B
:1046D00001F08C80012B01F080800921444806F014
:1046E0004BF8284806F0E0FA14214248314D06F014
:1046F00043F8B16F234806F027FB224806F0D4FAAE
:104700001C213D4806F038F8D6F884101D4806F004
:104710001BFB1C4806F0C8FA1C21384806F02CF890
:10472000D6F8B010174806F00FFB164806F0BCFA92
:10473000F36F23F00202012A00F0CC87022B01F074
:1047400067801321264806F017F80E4806F0ACFAE9
:1047500002232360FFF7D8B905F0E4FF00287FF7B4
:1047600051AB0848134E06F031FC164BC6F8A800B2
:1047700002221A60FDF746FC01226B2322602B60A7
:1047800040E000BFC887FF1F7017010084170100B9
:1047900094170100FCC2FF1FA41701009CC2FF1F59
:1047A000B8170100B8C2FF1FCC17010050C1FF1F8E
:1047B000E01701005CC1FF1FF01701005892FF1FB6
:1047C0000C1801008092FF1F201801004892FF1F63
:1047D000341801004C87FF1F54180100F8C2FF1F56
:1047E000981301007018010090180100B018010022
:1047F00028190100341901004C1901006C1901003D
:1048000005F054FF05F08EFF0028F9D1C248C34DD2
:1048100006F04AFAC04806F047FABF4806F044FAE4
:10482000BD4806F041FABC4806F03EFA2121BC48DA
:1048300005F0A2FFB84806F037FA1521B94805F08F
:104840009BFFD6F89810B44806F07EFA0221B648CD
:1048500005F092FFB04806F027FA1E21B34805F094
:104860008BFFD6F8A010AC4806F06EFA0321B048D2
:1048700005F082FFA84806F017FA1E21AD4805F0A2
:104880007BFFD6F89C10A44806F05EFAA24806F01A
:104890000BFA1D21A84805F06FFFD6F8A8109E4816
:1048A00006F052FA9C4806F0FFF91E21A34805F0D5
:1048B00063FFD6F8AC10984806F046FA964806F022
:1048C000F3F9D6F8A430012B00F0B4870523236058
:1048D000FFF71AB905F026FF00287FF793AA8E4844
:1048E0008E4E06F073FB964BC6F8AC00032240E7F1
:1048F0008A4E96F8DC30B3FA83F35B0901216B2210
:1049000086F8DC3021602A607CE78D4A0023732022
:10491000136023602860FFF787B805F003FF0028C5
:104920007FF770AA7C487D4E06F050FB01226B2376
:10493000C6F8980022602B6064E705F0F3FE0028BB
:104940007FF760AA7448754E06F040FB01226B2386
:10495000C6F8A00022602B6054E705F0E3FE0028B3
:104960007FF750AA6C486D4E06F030FB01226B2396
:10497000C6F89C0022602B6044E705F0D3FE0028B7
:104980007FF7B0A96448654E06F020FB07F0E0FC15
:1049900065230122306322602B601846FFF7A1BB1C
:1049A00005F0C0FE00287FF79DA95B485B4E06F02E
:1049B0000DFB00EB8000430001226520A6F8623069
:1049C00022602860FFF78DBB05F0ACFE00287FF762
:1049D00089A95148514E06F0F9FA65230122C6F81B
:1049E000B80022602B601846FFF77BBB4B4B93F857
:1049F000C420002A00F02086002283F8C42001236E
:104A0000652023602860FFF76CBB444AD2F8B430BD
:104A10000133072BC8BF0023C2F8B430EFE705F01D
:104A200081FE00287FF75EA93B483C4E06F0CEFA97
:104A300007F08EFC434907F093FD65230122706166
:104A400022602B601846FFF74CBB05F06BFE002878
:104A50007FF748A93048314E06F0B8FA07F078FCE5
:104A6000384907F07DFD65230122F06122602B604B
:104A70001846FFF736BB05F055FE00287FF732A930
:104A80002548264E06F0A2FA00EB800043000122E2
:104A90006520A6F8603022602860FFF722BB1F4A1D
:104AA000D36F0133032BC8BF0023D36701236320D7
:104AB00023602860FFF715BB234A1368B3FA83F31A
:104AC0005B0901216420136021602860FFF709BBA6
:104AD0001E4A1F4F1368002B0CBF012300234FF009
:104AE00001001360206040F06286034664222A6061
:104AF0006420FEF714BF174ADFE7084ED6F8A4304B
:104B0000B3FA83F35B0901226420C6F8A430226063
:104B10002860FFF7E6BA00BFC887FF1F5CC1FF1F10
:104B200064160100881601005C150100A016010042
:104B3000F8110100C0160100E01601000017010085
:104B40008092FF1F00007A449CC2FF1FB8C2FF1F63
:104B50000CC3FF1F50C1FF1F664A137801214B4051
:104B60006420137021602860FFF7BBBA624AA4E793
:104B7000012362482360FCF789F8614A23681060CA
:104B8000B4E7604A99E7604A97E70123236005F09C
:104B9000C9FD002800F35E855C4B1A68042AC4BF77
:104BA00002221A6064232B602368A1E7584EB36F7A
:104BB000B3FA83F35B0901226320B36722602860A4
:104BC000FFF78FBA524ED6F88430B3FA83F35B09FD
:104BD00001226320C6F8843022602860FFF781BA82
:104BE0000123236005F09EFD00287FF75FAF494851
:104BF000474E06F0EBF9C6F8B00057E701232360F3
:104C000005F090FD00287EF78FAF4248404E06F039
:104C1000DDF907F09DFBC6F88C00FEF785BF012388
:104C2000236005F07FFD00287EF77EAF3948384EBF
:104C300006F0CCF9A6F8BE00FEF776BF344BD3F8E9
:104C40008020012A0CBF02220122C3F880202DE718
:104C50000123236005F066FD00287FF727AF2D486C
:104C60002B4E06F0B3F9C6F894001FE705F05AFD85
:104C700000280DDD2748264E06F0A8F907F068FB4E
:104C8000254907F06DFC01226223306222602B600F
:104C900005F048FD00280EDD1E481D4E06F096F971
:104CA00007F056FB1C4907F05BFC01226223C6F8A3
:104CB000C00022602B6005F035FD00280ADD154894
:104CC000134E06F083F907F043FB01226223706361
:104CD00022602B6005F026FD002840F33C840D483F
:104CE0000B4E06F073F901226223B06622602B603E
:104CF00016E000BFF8C2FF1FFCC2FF1F0093FF1F9A
:104D00005892FF1F8092FF1F4892FF1F4C87FF1F82
:104D10005CC1FF1FC887FF1F00007A4405F0C6FC76
:104D200005F000FD07460028F8D1C34805F0BCFF98
:104D3000C14805F0B9FFC04805F0B6FFBE4805F010
:104D4000B3FFBD4805F0B0FF1521BC4805F014FDC8
:104D5000B94805F0A9FF1421B94805F00DFDB64882
:104D600005F0A2FF1B21B74805F006FDB24805F08B
:104D70009BFF1321B44805F0FFFCAF4805F094FFFA
:104D8000AD4805F091FFAC4805F08EFF2021AF48FB
:104D900005F0F2FCF068AE4907F02EFB06F082FE4B
:104DA000009702460B46A44805F0D6FF0221A94809
:104DB00005F0E2FC0221A84805F0DEFC9E4805F063
:104DC00073FF2121A54805F0D7FC3069A04907F001
:104DD00013FB06F067FE009702460B46964805F067
:104DE000BBFF02219B4805F0C7FC02219A4805F051
:104DF000C3FC914805F058FF1F21994805F0BCFC01
:104E0000B06A06F04FFE022502460B4600958A481E
:104E100005F0A2FF0121934805F0AEFC29468E481B
:104E200005F0AAFC844805F03FFF20218E4805F0DC
:104E3000A3FCF06A06F036FE009502460B467E485B
:104E400005F08AFF0121874805F096FC2946824833
:104E500005F092FC784805F027FF2321834805F0F0
:104E60008BFCF06C7A4907F0C7FA06F01BFE00973E
:104E700002460B46704805F06FFF2946754805F05D
:104E80007BFC2946744805F077FC6B4805F00CFF65
:104E90001F21774805F070FC306D6D4907F0ACFAC2
:104EA00006F000FE009702460B46634805F054FFEB
:104EB0002946684805F060FC2946674805F05CFC17
:104EC0005D4805F0F1FE19216A4805F055FCF16DC9
:104ED000594805F039FF2946674805F04DFC294639
:104EE0005D4805F049FC544805F0DEFE1821634892
:104EF00005F042FCB6F9640007F02AFA604907F0B1
:104F00007BFA06F0CFFD009502460B464A4805F0B5
:104F100023FF01215B4805F02FFC29464E4805F090
:104F20002BFC454805F0C0FE2B21574805F024FC1A
:104F3000B069474907F060FA06F0B4FD00970246F1
:104F40000B463D4805F008FF2946424805F014FC91
:104F50002946414805F010FC374805F0A5FE1F2101
:104F60004A4805F009FCB16D334805F0EDFE2946CD
:104F7000394805F001FC304805F096FE20214448F0
:104F800005F0FAFB716D2C4805F0DEFE294632482B
:104F900005F0F2FB284805F087FE10213D4805F09A
:104FA000EBFBB16E244805F0CFFE2946294805F0F9
:104FB000E3FB2946284805F0DFFB1F4805F074FE97
:104FC0001321354805F0D8FBF16E1B4805F0BCFEF7
:104FD0000121324805F0D0FB29461F4805F0CCFBE3
:104FE000154805F061FE10212D4805F0C5FB316F15
:104FF000114805F0A9FE2946164805F0BDFB2946D3
:10500000154805F0B9FB0C4805F04EFE1421254863
:1050100005F0B2FB716F084805F096FE01211F48AC
:1050200005F0AAFB29460C4805F0A6FB024805F04E
:105030003BFE162138E000BFC887FF1F581A010049
:10504000701A0100881A010098130100A41A0100C7
:1050500000007A44F4130100A81E0100C81A0100E0
:10506000EC1A0100980E01000C1B0100301B01001E
:10507000541B0100741B0100901B0100941B0100D4
:10508000CDCCCC3DB0190100B01B0100DC1B0100F0
:10509000FC1B0100201C0100341C0100481C010005
:1050A0004C1C0100601C0100B94805F065FB306A2A
:1050B000B84907F0A1F906F0F5FC009702460B4647
:1050C000B54805F049FE2946B44805F055FB294688
:1050D000B34805F051FBB04805F0E6FD2421B14886
:1050E00005F04AFBD6F8C000AA4907F085F906F09A
:1050F000D9FC009702460B46A74805F02DFE29462D
:10510000A64805F039FB2946A54805F035FBA2481D
:1051100005F0CAFD2B21A44805F02EFB706B06F0AC
:10512000C1FC009502460B469B4805F015FE012187
:105130009E4805F021FB2946994805F01DFB96483D
:1051400005F0B2FD27219A4805F016FB306C914915
:1051500007F052F906F0A6FC00970B4602468E486F
:1051600005F0FAFD29468D4805F006FB29468C48D6
:1051700005F002FB884805F097FD874805F094FD8F
:1051800003232360FEF7C0BC05F0CCFA002840F3EF
:10519000E2818148874E05F019FF01226223F06603
:1051A00022602B60BCE505F0BDFA002840F3D381F6
:1051B0007948804E05F00AFF012262237065226063
:1051C0002B60ADE505F0AEFA002840F3C4817248CB
:1051D000784E05F0FBFE01226223306722602B60CF
:1051E0009EE505F09FFA002840F3B5816A48714EAC
:1051F00005F0ECFE01226223706722602B608FE5D0
:10520000FCF798FB022166486A4E05F0B5FA624841
:1052100005F04AFD0221624805F0AEFA5E4805F04D
:1052200043FD02215E4805F0A7FA5B4805F03CFD0E
:105230001721614805F0A0FA574805F035FD022115
:10524000574805F099FA544805F02EFD01226223D3
:1052500022602B6064E505F065FA002840F37B814D
:105260004D48544E05F0B2FE07F072F8494907F078
:1052700077F901226223306522602B6050E505F04A
:1052800051FA002840F3678143484A4E05F09EFEDC
:1052900001226223F06522602B6041E505F042FAAD
:1052A000002840F358813C48424E05F08FFE00EB49
:1052B0008000430001216222A6F8643021602A6048
:1052C0002EE53E4B36483B4E002202211A6005F087
:1052D00053FA314805F0E8FC0B21394805F04CFA47
:1052E000ADE705F01FFA002840F335812A48314E1A
:1052F00005F06CFE07F02CF8264907F031F9012281
:105300006223306422602B600AE50022732322604E
:105310002B60FEF791BB05F005FA002840F31B81D6
:105320001D48244E05F052FE07F012F8194907F007
:1053300017F901226223B06122602B60F0E405F0CE
:10534000F1F9002840F3078113481A4E05F03EFE9C
:1053500006F0FEFF0F4907F003F901226223F06017
:1053600022602B60DCE405F0DDF9002840F3F380D7
:105370000948104E05F02AFE06F0EAFF054907F03D
:10538000EFF801226223306122602B60C8E400BF85
:10539000781C010000007A44C887FF1FF413010045
:1053A000A81E0100901C0100B81C0100980E01000D
:1053B000E41C01005CC1FF1F40130100F892FF1FB5
:1053C0005813010005F0AEF9002840F3C480A54849
:1053D000A54E05F0FBFD06F0BBFF01226223B06283
:1053E00022602B609CE405F09DF9002840F3B38017
:1053F0009C489D4E05F0EAFD06F0AAFF01226223BB
:10540000F06222602B608BE405F08CF9002840F3F9
:10541000A2809448944E05F0D9FD06F099FF934977
:1054200007F09EF801226223F06422602B6077E48B
:1054300010218F4805F0A0F98A488B4D05F034FC07
:10544000D6F8B430002B12DD18218A4805F094F903
:10545000D5F8B810834805F077FC0221864805F09E
:105460008BF9804805F020FC7E4805F01DFC1B21CF
:10547000824805F081F996F8C430012B15BF12213E
:1054800014217F487F4805F077F9764805F00CFC39
:105490001F217D4805F070F9306B06F003FB0225F3
:1054A0000B46024600956F4805F056FC29467748A2
:1054B00005F062F96B4805F0F7FB1321744805F01D
:1054C0005BF9684805F0F0FB06232360FEF71CBB80
:1054D0000421704805F050F9AEE70B216E4805F045
:1054E0004BF9A9E70D216D4805F046F9A4E70D2118
:1054F0006B4805F041F99FE70C216A4805F03CF93B
:105500009AE70D21684805F037F995E70C216748BF
:1055100005F032F990E7E0220021534803F094F9B6
:105520002868634AA0F1730001210023B0FA80F0DB
:10553000400911602360FEF77DBA5E4B5E4A1A6037
:10554000FEF7E2BA2368002B08BF73280CBF0120C6
:105550000020FEF76FBA23682868012B7EF464AA46
:10556000FEF7BFBD23682868FEF7E1BA05F0DAF858
:10557000002859DC3C4E96F84400172834D9002105
:1055800086F84410D6F8CC00D6F8C830B26C00903B
:105590004A48FEF739BA05F0C5F800287EF712AB85
:1055A0003048314E05F012FD06F0D2FE444906F0B7
:1055B00023FF61230122706222602B601846FEF7F0
:1055C00090BD05F0AFF800287EF7FCAA2548264ECE
:1055D00005F0FCFC06F0BCFE61230122B0632260F2
:1055E0002B601846FEF77DBD364BC340DB07C6D5A2
:1055F0000146C7E705F096F80028B3DD19481A4EB2
:1056000005F0E4FC06F0A4FE2F4906F0F5FED6F8FE
:10561000CC30B26C96F84410009307460346C6F8A7
:10562000C8702648FEF7F0B90E480F4E05F0CEFCC4
:10563000C0B286F84400A0E7012283F8C420FFF737
:10564000DEB91121214805F097F8064805F02CFB3A
:10565000FEF732BE034805F0B9FC1D4B0246186048
:10566000FFF79CBAC887FF1F5CC1FF1F00007A4488
:105670002C150100401501005C15010060150100AA
:105680007C15010090150100A8150100C815010046
:1056900098130100241501001815010008150100D8
:1056A000F8140100E8140100C8140100D814010026
:1056B0002487FF1F0CED00E00400FA050093FF1F94
:1056C0006F12833A0F30800017B7D138841301006E
:1056D0004C87FF1F1C21674805F04EF8D5F8900055
:1056E000654906F089FE06F0DDF902270B46024601
:1056F0000097624805F030FB0521614805F03CF851
:105700005E4805F0D1FAEB6F012B18D11D215D48E1
:1057100005F032F8D5F88C00574906F06DFE06F01A
:10572000C1F900970B460246544805F015FB0521C8
:10573000534805F021F8514805F0B6FAEB6F23F015
:105740000202012A7EF4FAAF1C214F484F4D05F0AA
:1057500013F8B6F8BE10494805F0F6FA03214C4894
:1057600005F00AF8454805F09FFAF36F012B7EF427
:10577000E5AF1F21474804F0FFFFD5F8940006F07D
:10578000E7FD454906F038FE06F08CF902270B4686
:1057900002460097394805F0DFFA39463F4804F0E1
:1057A000EBFF364805F080FAEB6FFEF7C7BF3C4BC6
:1057B000002631460B201E6003F012FB31460C2000
:1057C00003F00EFB3146142003F00AFB314615208E
:1057D00003F006FB3B68FFF789B91E21314804F04E
:1057E000CBFF264805F060FAFEF77EBF20212E4849
:1057F00004F0C2FF214805F057FAFEF775BF1721E4
:105800002A4804F0B9FF1D4805F04EFAFEF76CBFB8
:10581000172127481D4D04F0AFFFD6F88030012B2B
:105820001BD0022B7EF48DAF22491448FCF770F890
:10583000FEF787BF2021204804F09EFF95F8DC305A
:105840002BB91E490D48FCF763F8FFF73FB81C4918
:105850000A48FCF75DF8FFF739B81A490748FCF722
:1058600057F8D5F88030DCE7084EFEF7CBBF074E7F
:10587000FFF756BA8C1901000AD7233CC887FF1FCF
:10588000AC190100B4190100D41901005CC1FF1F5B
:10589000F4190100F81901006F12833ACC110100CC
:1058A000F492FF1FCC180100EC1801001019010040
:1058B000181A0100441A01002017010044170100C2
:1058C00050170100301A010038B5164C164A2368EB
:1058D000101D12F8011F904241EA0323F9D1236001
:1058E000124C03F100432360114BDB6F022B11D0EC
:1058F000104B1B68012B00D038BD0F4805F0D4F9C0
:1059000021680D4805F020FA03210C48BDE8384015
:1059100004F032BF20680A4D06F01AFD2860FCF73B
:10592000CFFEE5E7ECC2FF1FCFC2FF1FEC92FF1FC7
:105930005CC1FF1FFCC2FF1FC887FF1F381E01008C
:10594000E4C2FF1F30B5604C604D614883B0214612
:1059500002F040F8D5F880202368012A74D0022A8A
:1059600063D06FF4C0615A18B2F5FF7F4FD903F1CD
:1059700000436FF4C0621344B3F5FF7F05D9554B64
:105980001B68012B09D003B030BD4F495248FBF7CB
:105990009BF9504B1B68012BF5D1504B1B68012B19
:1059A000F1D14F4B4F481B6801930A220023019904
:1059B00005F08AF92268444B002ADB797CDB4A49EE
:1059C0004A4807F0E1FC494807F01AFD01464748FC
:1059D00004F0D2FE25683C4B15F080455DD1DB79A3
:1059E0008BB1631942491A7A404807F0CDFC3F4811
:1059F00007F006FD01463D4804F0BEFE0135E3799F
:105A0000EDB2AB42EDD8374805F04EF9BBE72E4971
:105A10003148FBF759F923686FF4C06203F1004382
:105A20001344B3F5FF7FAAD8AFE740F22252934266
:105A300030D040F2235293421ED040F22152934282
:105A40008FD12C492C4819E0B3F5547F09D040F28E
:105A5000C232934285D1FFF737FFD5F88020236803
:105A60007DE7264AE31D04F10D0013F8011F02F83B
:105A7000011B8342F9D182E71E4921480D794A79F9
:105A8000CB78897802EB052202EB034303EB016339
:105A9000036074E717491B48F0E71B4D134C0FCD0B
:105AA0000FC495E8030044F8040B204620F81419AD
:105AB000152104F061FEA6E714490C4822F060426B
:105AC00007F062FC7FE700BFC8C2FF1F5CC1FF1F79
:105AD00020C3FF1F2487FF1F0093FF1FFCC2FF1F6F
