:1000000000800020BD01000041750000F97400006F
:10001000F9740000F9740000F9740000F97400002C
:10002000F9740000F9740000F974000041750000D3
:1000300041750000F97400004D8E0000518F0000E2
:1000400041750000417500004175000041750000D8
:1000500041750000417500004175000041750000C8
:1000600041750000417500004175000041750000B8
:1000700041750000417500004175000041750000A8
:100080004175000041750000417500004175000098
:100090004175000041750000417500004175000088
:1000A0004175000041750000417500004175000078
:1000B00041750000156900002169000025690000F4
:1000C00031690000356900003969000041750000A0
:1000D0004175000041750000417500004175000048
:1000E0004175000041750000417500004175000038
:1000F000417500001595000041750000B57B0000BA
:1001000041750000CD7E0000417500004175000082
:100110004175000041750000417500004175000007
:1001200041750000417500004175000041750000F7
:1001300041750000417500004175000041750000E7
:1001400041750000417500004175000041750000D7
:1001500041750000417500004175000041750000C7
:1001600041750000198100004175000041750000D3
:1001700041750000417500004175000041750000A7
:100180004175000041750000417500004175000097
:100190004175000041750000417500004175000087
:1001A0004175000041750000417500004175000077
:1001B000417500004175000041750000564B4CF23E
:1001C000205210B51A804DF628121A8000BF00BFC9
:1001D00007F0BAF9514B4FF010621A60504A9A601A
:1001E000504ADA60504A136813F4807304D14F49BF
:1001F0000B604FF4A85313604D4B1A78110703D5C9
:100200001A7842F008021A704A4B4B492A221A7097
:100210004A4A4B4B8B4204D252F8040F43F8040B6A
:10022000F8E7484B484900228B4202D243F8042B9E
:10023000FAE74649464A002352F8230041F82300D2
:1002400001336F2BF8D1434B434A802103F8011B44
:100250009342FBD1414B3D4A1A60414B8A221A70AE
:10026000A3F5805324225A70A0221A709A7992071B
:10027000FCD59A79D406FCD43A4A937903F00C035E
:10028000082B384BF9D103221A7140225A719A79FE
:100290009006FCD5334A9179324B4906FBD5324A58
:1002A000324911600221516020221A709A7902F0BD
:1002B0000C020C2AFAD12E4B2E4A1A602E4B2F4AD2
:1002C0001A6000225A60072243F8042C2C4AC3F813
:1002D0000C2D62B607F0EEFB144B1B68DA0705D550
:1002E000284807F0CBF9284B284A1A60284B1B787E
:1002F0005B0609D5244C254B22689A4204D121483B
:1003000007F0BCF9002323600BF008FC07F022F98A
:1003100008F0C0FFFEE700BF0E200540308004401B
:10032000823F04000100002B10D0034014D0034092
:1003300002D0074000E007402092FF1F4415010053
:100340002087FF1F2092FF1FECC2FF1F0082FF1FAC
:100350000000000000E400E05FE400E008ED00E0E1
:100360000050064000400640448004400000030165
:1003700004800440C010050014E000E0FF76010096
:10038000000020208F581A5C1CE00340A5C3945A3B
:1003900000F00740FFFFFFFFFFFFFFFFFFFFFFFF32
:1003A000FFFFFFFFFFFFFFFFFFFFFFFFFFFFFFFF5D
:1003B000FFFFFFFFFFFFFFFFFFFFFFFFFFFFFFFF4D
:1003C000FFFFFFFFFFFFFFFFFFFFFFFFFFFFFFFF3D
:1003D000FFFFFFFFFFFFFFFFFFFFFFFFFFFFFFFF2D
:1003E000FFFFFFFFFFFFFFFFFFFFFFFFFFFFFFFF1D
:1003F000FFFFFFFFFFFFFFFFFFFFFFFFFFFFFFFF0D
:10040000FFFFFFFFFFFFFFFFFFFFFFFFDEF9FFFF23
:1004100010B5054C237833B9044B13B10448AFF33E
:1004200000800123237010BD2092FF1F00000000F8
:1004300040150100084B10B51BB108490848AFF33F
:1004400000800848036803B910BD074B002BFBD0A0
:10045000BDE81040184700BF000000002492FF1FB5
:10046000401501002092FF1F00000000F0B400F1D1
:100470001C06104F00243146031F00F13C0243F8D4
:10048000044FB34241F8047F4FF0000542F8044F97
:10049000F5D1094A09490566002345668566C566A2
:1004A000C56702678267416780F8843080F89C30B6
:1004B000F0BC70470000A040000048430000C8C2E4
:1004C0002DE9F04190F89C4084B0202364008DF821
:1004D0000530E4B2042380468DF804408DF80630E0
:1004E0000327204607F08EFC02210DF1050007F0DE
:1004F00093FC8DF8044001F0B1FB30B30921404872
:1005000008F03EFB0023102221463E4808F03AFD49
:1005100001213D4808F034FB002310229DF805100E
:10052000384808F02FFD0121374808F029FB002347
:1005300010229DF80610334808F024FD01213248AE
:1005400008F01EFB2F4808F00DFD02208DF8044036
:1005500007F062FA01F082FB00284CD102AE0024C1
:1005600007F070FC70B3072C1FD101E007F07AFC94
:1005700007F068FC0028F9D101F070FB10B12148A8
:1005800008F0F0FC9DF80B009DF80C109DF80D2074
:100590009DF80E30C8F88800C8F88C10C8F8902074
:1005A000C8F8943004B0BDE8F08107F05BFC054664
:1005B00006F8010B01F052FB70B9013407F042FC60
:1005C0000028D0D1072CD3D001F048FB78B9013FE7
:1005D000D8D09DF8044084E7E9B2002310220948EE
:1005E00008F0D0FC0121084808F0CAFAE5E7054800
:1005F00008F0B8FCEBE70721044808F0C1FAADE7C2
:10060000D8FC0000C087FF1FDC030100E4FC0000F1
:1006100090F88C00704700BF90F88800704700BFCA
:1006200090F89000704700BF90F89400704700BFAA
:10063000082994BF50F82100002070472DE9F041AF
:100640000B4E8046041F00F11C0754F8045F31462E
:1006500028460BF0D9F930B1D8F8801028460BF0B5
:10066000F1F900B12E46BC42EFD13046BDE8F08131
:10067000000020412DE9F041D0F880704FF00008D3
:10068000041F00F11C0654F8045F394628460BF09D
:10069000D9F9084948B128460BF0B6F9414620B1CE
:1006A00028460BF0CFF900B1A846B442EBD1404642
:1006B000BDE8F081000070422DE9F047D0F880706D
:1006C00082464FF00009041F00F11C064FF000089D
:1006D00054F8045F394628460BF0B4F90C4950B180
:1006E00028460BF091F930B1484629460AF0E6FE5B
:1006F00008F101088146B442EAD1CAF8A080404618
:100700000AF090FF014648460BF094F8BDE8F087E8
:1007100000007042D0F8A000704700BF38B5846E6A
:10072000456E214628460BF06FF900B92C4620464D
:1007300038BD00BFD0F898302DE9F041002B79D1B9
:10074000866E456E0446314628460AF0B7FEE76ECF
:10075000394680460AF0B2FE7E490BF06BF84FF046
:100760007C5104460BF06EF9002861D04FF07C51AB
:1007700028460BF067F94FF07C51002860D12846DD
:100780000BF042F938B14FF07C5130460BF05AF97A
:10079000002840F0A7804FF07C5128460BF052F91A
:1007A000002860D14FF07C5128460BF04BF900280F
:1007B00040F0A1804FF07C5128460BF043F900280F
:1007C0006CD14FF07C5128460BF01EF94FF07C5154
:1007D00010B330460BF036F938B14FF07C51384643
:1007E0000BF012F9002840F0B0804FF07C513046F9
:1007F0000BF00AF9002861D04FF07C5138460BF01D
:1008000021F9002840F0A38038464FF07C510BF0CE
:10081000FBF868B1504C10E028460BF0F5F80028C2
:10082000E3D128464FF07C510BF0EEF8002845D17B
:10083000BDE8F08100EB8300046E2046BDE8F08146
:1008400030460BF0FFF84FF07C5100283ED0384680
:100850000BF0F8F80028F0D14FF07C5128460BF04F
:10086000D3F8002859D14FF07C5130460BF0CCF82A
:10087000002840D04FF07C5138460BF0E3F80028B8
:1008800041D14FF07C5130460BF0DCF868B14FF0AD
:100890007C5138460BF0B8F800284FD14FF07C510E
:1008A00030460BF0B1F800288BD04FF07C51384621
:1008B0000BF0AAF8002884D02C46BEE730464FF053
:1008C0007C510BF0A1F80028B2D09DE728460BF030
:1008D0009BF80028C7D04FF07C5130460BF0B2F89F
:1008E0000028C0D04FF07C5138460BF0ABF8002800
:1008F0003FF451AF18E04FF07C5130460BF0A2F8B6
:100900000028CBD0C3E7394628460AF0D7FD4FF080
:100910007C510AF0DBFE04468FE74FF07C513846ED
:100920000BF090F800289ED0394630460AF0C6FDFC
:100930004FF07C510AF0CAFE04467EE740464FF075
:100940007C510AF0C3FE044677E7344675E73C461F
:1009500073E700BF000040400000A0C270B504462D
:10096000FFF7E8FE4FF07C510BF06CF828B3666E91
:100970004FF07C5130460BF065F8A56EF0B9E46E8F
:100980004FF07C5128460BF05DF858B129463046AF
:100990000BF058F830B1214628460BF035F808B175
:1009A0002C4620E04FF07C5120460BF04BF820B154
:1009B000284621460BF046F878B970BD30462946E6
:1009C0000BF022F8E46E0028DAD0304621460BF016
:1009D0001BF80028D4D0344605E0304621460BF001
:1009E00031F80028E9D0204670BD00BF02292DE96A
:1009F000F8438046154600F0A880032972D00129EB
:100A00003FD0866E476E04684046FFF7A7FFD8F8D0
:100A1000701005460AF0F8FF08B1C8F87050394662
:100A200030460BF00FF8002854D13946D8F874003E
:100A30000AF0EAFF10B13E46C8F8746008F12006DB
:100A4000C14608F14005002701E059F8044F30681D
:100A500021460AF0F7FF0137214628B1D8F8800077
:100A60000AF0DCFF00B13460214628680AF0CCFFB0
:100A7000043600B12C60082F05F10405E5D1BDE86E
:100A8000F883137AC0F8A430D37A907A03EB00206D
:100A90000AF0C8FD46490AF019FEC8F864006B7BED
:100AA0000746287B03EB00200AF0BCFD40490AF012
:100AB0000DFEC8F86800EB7B0646A87B03EB002020
:100AC0000AF0B0FD3A490AF001FED8F80040C8F833
:100AD0006C0099E7D8F8741030460AF0B3FF00288C
:100AE000AAD1ABE7537A107A03EB00200AF09AFD03
:100AF0002F490AF0EBFDC8F81000EB7AA87A03EB57
:100B000000200AF08FFD2A490AF0E0FDC8F8140021
:100B10006B7B287B03EB00200AF084FD24490AF05C
:100B2000D5FDC8F81800EB7BA87B03EB00200AF08A
:100B300079FD1F490AF0CAFDD8F86860C8F81C00A2
:100B4000D8F86470D8F800405EE7537A107A03EB67
:100B500000200AF067FD16490AF0B8FDC8F8000049
:100B6000EB7A0446A87A03EB00200AF05BFD1049FB
:100B70000AF0ACFDC8F804006B7B287B03EB002077
:100B80000AF050FD0A490AF0A1FDC8F80800EB7B05
:100B9000A87B03EB00200AF045FD05490AF096FD0D
:100BA000D8F86860D8F86470C8F80C002CE700BF6B
:100BB0006F12833A2DE9F04F90F89C3091B00746C0
:100BC0005B008DF80830FFF77BFCD7F89000D7F872
:100BD0009440D7F88C30D7F8882097F89C108DE88F
:100BE0001100C94801F034F930223D2303268DF865
:100BF00009208DF80A300DF10A059DF8089049F09A
:100C00000108404607F0FEF80DF10900022107F047
:100C100003F98DF80880424602AB002050400824BA
:100C200010F0800F4FEA400018BF80F00700013C31
:100C3000C0B2F5D19D4202D013F8012FEEE707F0C4
:100C4000E1F801F00BF8002840F07C8202208DF8DA
:100C5000089006F0E1FE01F001F8002840F0B882AB
:100C60000DF10C0AD146002407F0ECF8002843D01F
:100C7000032C34D101E007F0F5F807F0E3F8002881
:100C8000F9D100F0EBFF10B1A04808F06BF9312367
:100C900003268DF809308DF80A609DF8089049F018
:100CA0000108404607F0AEF80DF10900022107F0F7
:100CB000B3F88DF80880424602AB0020504008246B
:100CC00010F0800F4FEA400018BF80F00700013C91
:100CD000C0B2F5D19D4228D013F8012FEEE707F0FE
:100CE000C1F809F8010B804600F0B8FF68B901347B
:100CF00007F0A8F80028BBD1032CBED000F0AEFF4F
:100D000078B9013E7FF479AFC1E75FFA88F100233B
:100D100010227E4808F036F901217D4807F030FFA7
:100D2000E5E77A4808F01EF9EBE707F06BF800F00A
:100D300095FF002840F0C58102208DF8089006F04C
:100D40006BFE00F08BFF002840F03D820DF10C0996
:100D5000002407F077F8002844D0032C35D101E0B7
:100D600007F080F807F06EF80028F9D100F076FF60
:100D700010B1664808F0F6F8342201238DF80920F6
:100D80008DF80A3003269DF8089049F00108404686
:100D900007F038F80DF10900022107F03DF88DF851
:100DA0000880424602AB00205040082410F0800F1B
:100DB0004FEA400018BF80F00700013CC0B2F5D1F7
:100DC0009D4228D013F8012FEEE707F04BF809F801
:100DD000010B804600F042FF68B9013407F032F899
:100DE0000028BAD1032CBDD000F038FF78B9013EFD
:100DF0007FF453AFC0E75FFA88F100231022434825
:100E000008F0C0F80121424807F0BAFEE5E73F4884
:100E100008F0A8F8EBE706F0F5FF00F01FFF002848
:100E200040F00E8102208DF8089006F0F5FD00F0EC
:100E300015FF002840F0D6810DF10C09002407F0C1
:100E400001F8002800F08480032C72D101E007F043
:100E500009F806F0F7FF0028F9D100F0FFFE10B105
:100E60002A4808F07FF8012212238DF809208DF816
:100E70000A304FF003089DF80840204606F0C2FFF4
:100E800002210DF1090006F0C7FF8DF8084000F0BF
:100E9000E5FE30B309211F4807F072FE002310223F
:100EA00021461A4808F06EF80121194807F068FE3B
:100EB000002310229DF80910144808F063F801215E
:100EC000134807F05DFE002310229DF80A100F481A
:100ED00008F058F801210E4807F052FE0B4808F0C0
:100EE00041F806208DF8084006F096FD00F0B6FEA9
:100EF000002840F0728103AD002606F0A3FF002811
:100F00003FD0162E2FD109E0ECFC0000C087FF1F58
:100F1000DC030100D8FC000006F0A4FF06F092FFFD
:100F20000028F9D100F09AFE162600287DD1152060
:100F300035E006F097FF09F8010B804600F08EFEC1
:100F400000285BD1013406F07DFF00287FF47CAFE0
:100F5000032C3FF47EAF00F081FE00286CD1013EEF
:100F60007FF411AF7FE706F07DFF05F8010B044623
:100F700000F074FE00284DD1013606F063FF002812
:100F8000BFD1162ECAD000F069FE00284DD1B8F1AD
:100F900001087FF470AF701E002840F31E8200230A
:100FA00003AA1C4612F8011B08254C4014F0800FC0
:100FB0004FEA440418BF84F00704013DE4B2F5D1C0
:100FC00001338342EEDB9DF8218089484146224669
:100FD00000F03EFF162EC146A34602D1A04500F008
:100FE000138197F89C108348CDF800B04B463246E9
:100FF00000F05CFF002011B0BDE8F08F5FFA88F1CF
:10100000002310227C4807F0BDFF01217B4807F038
:10101000B7FD97E7E1B200231022774807F0B2FF4F
:101020000121764807F0ACFDA6E7734807F09AFF68
:10103000162EACD11520B2E76F4807F093FF8EE76C
:1010400009216F4807F09CFD2346102241466A485B
:1010500007F098FF0121694807F092FD234610220E
:101060009DF80910644807F08DFF0121634807F0DF
:1010700087FD102223469DF80A105F4807F082FF83
:1010800001215E4807F07CFD21460DF10B0002AA0C
:1010900012F8014B6140C9B2082311F0800F4FEAEA
:1010A000410118BF81F00701013BC9B2F5D190425F
:1010B000EED11022504807F065FF4F4807F052FF6D
:1010C000B0E609214E4807F05BFD23461022414659
:1010D000494807F057FF0121484807F051FD2346D2
:1010E00010229DF80910444807F04CFF01214348A5
:1010F00007F046FD102223469DF80A103E4807F0EF
:1011000041FF01213D4807F03BFD21460DF10B0059
:1011100002AA12F8014B6140C9B2082311F0800FF6
:101120004FEA410118BF81F00701013BC9B2F5D177
:101130009042EED11022304807F024FF2E4807F0ED
:1011400011FFF9E509212E4807F01AFD2346102268
:101150004146294807F016FF0121284807F010FDF5
:10116000234610229DF80910234807F00BFF0121A8
:10117000224807F005FD102223469DF80A101E485C
:1011800007F000FF01211D4807F0FAFC21460DF190
:101190000B0002AA12F8014B6140C9B2082311F0FA
:1011A000800F4FEA410118BF81F00701013BC9B22E
:1011B000F5D19042EED110220F4807F0E3FE0E4821
:1011C00007F0D0FE42E507210E4807F0D9FCBDE547
:1011D00007210C4807F0D4FC42E50721094807F035
:1011E000CFFC88E60721074807F0CAFC24E600BFC9
:1011F00020FD00006CFD0000C087FF1FDC03010024
:10120000D8FC0000E4FC00009DF80C3097F89C200E
:10121000B3EB420F7FF4EEAE9DF80D30012B7FF45F
:10122000E9AE9DF80E30122B7FF4E4AE9DF810303D
:101230009DF80F0003EB00200AF0F4F96F490AF063
:1012400045FAF96F386604460AF0FCFB00B1FC670A
:10125000B96F20460AF0D8FB00B1BC67A7F10409BA
:1012600007F1200607F140054FF008089AF806300C
:101270009AF8050003EB00200AF0D4F960490AF05F
:1012800025FA49F8040F316804460AF0BDFB0AF15B
:10129000020A30B1D7F8801020460AF0C9FB00B12D
:1012A0003460296820460AF0CDFB043600B12C607A
:1012B000B8F1010805F10405D8D19DF81E309DF85C
:1012C0001D0003EB002002300AF0ACF94D490AF092
:1012D000B1FA01464C480AF0ADFA4C490AF0ECF874
:1012E0004B490AF0F3F9054608F05EFA0446284631
:1012F00008F05AFA474908F0C9FA47490546204616
:101300000AF0E4F945490AF0D9F845490446284667
:101310000AF0DCF9014620460AF0D0F801464FF009
:101320007E500AF087FA3F490AF0C6F89DF81F2060
:101330009DF82030786603EB022009300AF072F93C
:1013400039490AF077FA01462F480AF073FA2F4913
:101350000AF0B2F82E490AF0B9F9054608F024FA65
:101360000446284608F020FA2A4908F08FFA2A494C
:10137000054620460AF0AAF928490AF09FF82849AC
:10138000044628460AF0A2F9014620460AF096F8DB
:1013900001464FF07E500AF04DFA22490AF08CF8CF
:1013A000B86604463846FFF7D9FA396F05460AF0A1
:1013B0002BFB00B13D677D6E204629460AF042FBBB
:1013C000A0B92946786F0AF01FFB08B12C467C674C
:1013D000164800F03DFD01200DE69DF821901448CF
:1013E00049464246C34600F033FDFAE5796F204690
:1013F0000AF028FB0028EAD1EAE700BF1357053BB3
:101400002003C839001601470AD7E33FE17A644058
:1014100000007A4400004040A40D8F395A80473ABA
:1014200046A6DB3333938843002C014744FD00007C
:1014300020FD00002DE9F8430026D0F880800666E4
:101440008146044600F1200754F8045B41462846D3
:101450000AF0F8FA084950B128460AF0D5FA30B136
:10146000304629460AF02AF80646C9F86000BC4210
:10147000EAD13046BDE8F8830000704202299ABFE5
:1014800000EB8100406E0020704700BF3E2998BFEE
:1014900080F89C10704700BF90F88400704700BF30
:1014A000C0F89810704700BF80F88410704700BFE4
:1014B00030B5C0F8801083B0084609F05DFC074CD9
:1014C000022502460B460095204607F0A5FD204662
:1014D00003B0BDE8304007F045BD00BFC087FF1F27
:1014E00070B500F525550646383500F12004204634
:1014F000A834FEF7BBFFAC42F9D106F1C8050124C0
:1015000028460021FFF7D0FF214628460134FFF787
:10151000BDFF3F2C05F1A805F2D106F52653064A7A
:101520003261002405480649B06100227461F1610E
:1015300030461A7070BD00BF00007A440000484376
:101540000000C8C242F684132DE9F041002200F5E4
:10155000255600F526578046C2503836043700F12C
:10156000C80402E0A834B4420DD02046FFF794FF2F
:101570000028F7D020463D68FFF7CCF8A83428446F
:10158000B4423860F1D142F6841358F80300BDE844
:10159000F08100BFF8B50E46096801F47F650029A7
:1015A0000446A5F5C06511DB2D0901F00F07A8233E
:1015B00003FB0544203420460121FFF775FF324626
:1015C00039462046BDE8F840FFF710BA0A4801F056
:1015D0000F0707F0C7FC1221084807F0D1FA31685D
:1015E000054801F0004100230A2207F0CBFC024825
:1015F0002D0907F0B7FCDAE7C087FF1FBCFD00002C
:10160000704700BF704700BF704700BF2DE9F0432F
:101610000446002383B0064644F8C83B012504E095
:1016200001353F2D04F1A80469D02046FFF734FFAF
:101630000028F5D04D4800F00BFC29464C4800F03E
:1016400007FC2046FFF7B6FA2046FFF7F3FE09F045
:1016500093FB02460B46474800F0FAFB2046FEF794
:10166000EDFF80462046FFF705F80746404609F0A3
:1016700083FB80463846894609F07EFB42464B464E
:10168000CDE900013C4800F0E3FB00212046FFF7D4
:10169000F5FE012180462046FFF7F0FE0746404652
:1016A00009F06AFB80463846894609F065FB4246E8
:1016B0004B46CDE90001314800F0CAFB2046FFF758
:1016C000B9FE0146306809F0F9FE30602046FFF7A8
:1016D00045F9B1690AF098F9002831D12046FFF7A1
:1016E0001DF8F1690AF0AEF9002899D02046FFF7FD
:1016F00015F801353F2DF06104F1A80495D170680B
:1017000009F090FF014630680AF094F87169306082
:1017100004460AF097F900B17461316920460AF075
:1017200073F900B134610B2006F040F906F5265636
:10173000337850B97BB10123337003B0BDE8F08337
:101740002046FFF70BF9B061C8E743B900233370B7
:1017500003B0BDE8F0830A4800F0A8FBEBE70948B6
:1017600000F08EFB00233370F2E700BFB8FF0000EB
:10177000D0FD00000CFE000020FE00004CFE00002A
:1017800068FE0000A0FE000070B5114B836000F5FC
:1017900025550646383500F1C80402E0A834AC42AD
:1017A00013D02046FFF778FE0028F7D02046FEF73A
:1017B00045FFB1680AF028F90028EFD02046FEF76F
:1017C0003DFFA834AC42B060EBD1B06870BD00BF43
:1017D0000000A04070B5002300F525550646C36003
:1017E000383500F1C80402E0A834AC4213D02046DA
:1017F000FFF752FE0028F7D02046FEF73BFFF168C6
:101800000AF020F90028EFD02046FEF733FFA83475
:10181000AC42F060EBD1F06870BD00BF006870476B
:1018200041607047F8B50F46164600F1C80401251F
:1018300004E001353F2D04F1A8041BD02046FFF73A
:101840002BFE0028F5D029460B4807F0DBFB0A48A1
:1018500007F088FB782007F017FA20463946FFF793
:101860001FFE013520463146FFF722FE3F2D04F1D1
:10187000A804E3D1F8BD00BFC087FF1F2DE9F843DE
:1018800000F5255542F67C132E4600278146C750A9
:101890004FF0000838353C3600F1C80402E0A834A7
:1018A000AC4213D02046FFF7F7FD0028F7D033688D
:1018B000013333602046FEF73DFF0F490AF0C2F8BE
:1018C00088B9A834AC4207F10107EBD142F67C138A
:1018D00059F80300C01B09F0A5FE0146404609F077
:1018E000A9FFBDE8F8832046FEF724FF01464046E5
:1018F00009F0E4FD8046D2E700008CC2F8B500F59F
:10190000255507460026383500F1C80402E0A83402
:10191000AC420FD02046FFF7BFFD0028F7D020468D
:10192000FEF7CAFE0146304609F0C8FDA834AC42B5
:101930000646EFD142F67C13F85809F073FE0146D3
:10194000304609F077FFF8BD2DE9F04F06468DB01F
:101950007B4800F025FA7A4800F022FA784800F037
:101960001FFA42F67C133046F758FFF7EBFD0B9059
:10197000306809F001FA044630460D46FFF7BEFF15
:101980000A90B06809F0F8F98246F0688B4609F0D1
:10199000F3F9804630468946FFF770FF09F0ECF90D
:1019A0000A9BCDE908011846CDE904ABCDE90689CB
:1019B00009F0E2F90B9ACDE90201CDE9004539467B
:1019C000604800F0EDF95E4800F0EAF9C8364FF0E3
:1019D00001094FF0000A07E009F10109B9F13F0FD1
:1019E00006F1A80600F0A3803046FFF755FD002859
:1019F000F2D03046FEF70CFE3046FEF70DFE3046C4
:101A0000FEF70EFE3046FEF70FFE08214E4807F0A7
:101A1000B7F849464D4807F0F5FAB9F1090F40F318
:101A2000898002214A4807F0ABF83046FFF702FDF3
:101A300009F0A2F9022402460B460094434807F03D
:101A4000EBFA0121434807F09BF8554600241FE0BC
:101A50000621414807F094F829463C4807F0D2FA9D
:101A600002213E4807F08CF821463046FEF7E0FDA3
:101A700009F082F9009702460B46344807F0CCFA89
:101A800001340121334807F07BF8082C0BD0454680
:101A9000092D4FF0020705F10108D9DC012130487A
:101AA00007F06EF8D4E7294807F05CFA09212D48C1
:101AB00007F066F800213046FFF7E0FC09F05CF91A
:101AC000009702460B46214807F0A6FA0A2126484D
:101AD00007F056F801213046FFF7D0FC09F04CF929
:101AE000009702460B46194807F096FA0A211F484C
:101AF00007F046F839463046FFF7C0FC09F03CF9DC
:101B0000009702460B46114807F086FA0121184853
:101B100007F036F809F101090C4807F023FAB9F18A
:101B20003F0F0AF1080A06F1A8067FF45DAF0DB079
:101B3000BDE8F08F01210A4807F022F871E700BFE5
:101B4000B8FF000050010100D0010100C087FF1F55
:101B5000300F0100DC010100E0010100CC030100B5
:101B6000DC030100E8010100F401010000020100B2
:101B70000C0201002DE9F04100F1C80582B00127F7
:101B800004E001373F2F05F1A80559D02846FFF79B
:101B900083FC0028F5D039462B4807F033FA0121A1
:101BA0002A4806F0EDFF00244FF00208214628469F
:101BB000FEF73EFD09F0E0F8CDF8008002460B4646
:101BC000214807F029FA01340121204806F0D8FF06
:101BD000082C4FF00206E9D100212846FFF74EFC01
:101BE00009F0CAF8009602460B46174807F014FAA7
:101BF0000121164806F0C4FF01212846FFF73EFCEC
:101C000009F0BAF8009602460B460F4807F004FAAE
:101C100001210E4806F0B4FF31462846FFF72EFC9E
:101C200009F0AAF8009602460B46074807F0F4F9B7
:101C30000137054807F096F93F2F05F1A805A5D112
:101C400002B0BDE8F08100BFC087FF1F1002010095
:101C5000014B1870704700BF2087FF1F024B187898
:101C6000B0FA80F0400970472087FF1F0278002AF1
:101C700000F0858070B5034682B00D4621E05878AB
:101C80005C1C68B3252831D0732833D064281DD05C
:101C900069281BD0662851D0782839D0582833D0ED
:101CA000622842D042283CD06C280FD063280DD047
:101CB00074284FD0542857D006F0E6FF6278631C92
:101CC00072B1252ADBD018781C46F5E72B1D296850
:101CD0002C481D4607F096F96278631C002AF0D163
:101CE000284802B0BDE8704007F03CB9104606F045
:101CF000CBFFE3E72E6830460AF002FD014630468E
:101D0000043506F03DFFD9E702211F4806F038FFF1
:101D10002E1D29681B4800231022354607F032F992
:101D2000CCE70221194806F02BFF2E1D2968154823
:101D300000230222354607F025F9BFE7073525F0D5
:101D400007050321D5E900230E480091083507F067
:101D500063F9B3E7296801290EBF0D480D48012139
:101D6000043506F00DFFA9E72B68012B07BF0421FE
:101D700009480A480521043506F002FF9EE701489C
:101D800007F0F0B8C087FF1F14020100180201001D
:101D90001C02010020020100240201002C020100AB
:101DA0000FB400B583B004A951F8040B0191FFF7FB
:101DB0005DFF03B05DF804EB04B0704770B51B4BDA
:101DC0001B4C1B6882B00D460193019B2360194692
:101DD00004460023164617480A2207F0D3F80321C9
:101DE000154806F0CDFE032C07D8DFE804F01A15DD
:101DF00010020521114806F0C3FE0221104806F02A
:101E0000BFFE31462846FFF731FF02B070BD072103
:101E10000C4806F0B5FEF0E704210B4806F0B0FED2
:101E2000EBE70521094806F0ABFEE6E7F4BFFF1F2C
:101E30003C92FF1FC087FF1F3402010050020100C7
:101E4000CC030100480201004002010038020100F9
:101E50000FB400B5094B187883B020B103B05DF81A
:101E600004EB04B0704705AB1A4604990193FFF7E1
:101E7000A5FF03B05DF804EB04B070472087FF1F97
:101E80000FB4094B00B51B78012B83B004D903B004
:101E90005DF804EB04B0704705AB1A460499019352
:101EA0000120FFF78BFFF2E72087FF1F0FB40B4BDA
:101EB00000B51B78032B83B004D903B05DF804EBA5
:101EC00004B0704705AB1A46049901930320FFF74D
:101ED00075FF03B05DF804EB04B070472087FF1F67
:101EE000F8B52F482F4C304F304EFFF759FF304B8D
:101EF000304A314831495A60012510221D7258611B
:101F00002F4D30481A70D9602F4A30491C615F62EA
:101F100000242F4F1E629D624FF07C562D4D58635A
:101F20000A209A61D9622C4A1C630E2140F61C4497
:101F30009F635E6441F204075A26DD64D866274D2C
:101F40009A644FF49670022219659C6600216424FD
:101F50001F675E67DD61DD635866D86541F28837CB
:101F600032204FF47A76FF255A705A725A6583F8F8
:101F7000401099679C65DA67C3F88010C3F89C101D
:101F8000C3F8AC20C3F8B040C3F89070C3F89860B1
:101F9000C3F8A450C3F89400C3F8A000F8BD00BF74
:101FA0005802010000004040CDCCCC3D333373409B
:101FB0003093FF1F20A107003333834066668640BD
:101FC0000000824200002042CDCC4C40000020C1E5
:101FD0000000A0400AD7233D9A997940CDCC4C3ED1
:101FE000F0B54FF47A6083B005F016FD00210E20A5
:101FF00005F0EAFC00210F2005F0E6FC002111208D
:1020000005F0E2FC0021102005F0DEFC002112208A
:1020100005F0DAFC0021132005F0D6FC01210B208D
:1020200005F0D2FC01210C2005F0CEFC012114208A
:1020300005F0CAFC0121152005F0C6FC012116207F
:1020400005F0C2FC0121172005F0BEFC012105208E
:1020500005F0BAFC894C8A4D0121062005F0B4FC3C
:1020600001210D2005F0B0FC208809F0D7FA0146C7
:10207000162005F013FC208809F0D0FA014617203D
:1020800005F00CFC208809F0C9FA0146052005F08E
:1020900005FC208809F0C2FA00240146062005F05C
:1020A000FDFB00942346774A7749784804F0DAF834
:1020B000E6B232467249754804F082F82B797049CD
:1020C00072486FF30003013432462B7104F06EF84E
:1020D000082CEDD10924E6B2324669496B4804F078
:1020E0006FF82B796649694843F0010301343246A1
:1020F0002B7104F05BF80D2CEDD1654C4FF0FF32E5
:102100002068102104F07AFC20684FF0FF32102183
:1021100004F04CFC20684FF0FF32022104F05AFC1E
:1021200020684FF0FF32022104F05EFC00220E21F5
:10213000206804F06DFC0C21564806F021FD56483D
:1021400006F010FF1421554806F01AFD524806F01B
:1021500009FF514806F006FF1721514806F010FD0F
:102160004D4806F0FFFE4F4B1B789A0600F1AE80FB
:102170004C4B1B781B0700F1B5804A4B1B785F075F
:1021800000F1BC80474B1B789E0700F1C380464B93
:102190001B781D0600F1CA80434B1B785C0600F1DA
:1021A000D180414B1B78980600F1D8803E4B1B78BC
:1021B000590700F1DF803C4B1B781A0700F1E680DD
:1021C000394B1B789B0700F1ED80334806F0CAFEBF
:1021D00072B6364A4CF220534DF628112024138053
:1021E00023461180013BFDD1314D32483249002355
:1021F0004FF480562E8003800B8032F80E3C9BB249
:1022000043F0D30322F80E3C62B69D2005F0AAFDF0
:1022100021462A482A4D06F0B3FC1F4806F0A2FECC
:1022200005F1B4062F462C46601B05F0D3F804F8E0
:10223000010BB442F8D13B78102B01D0FFF750FED0
:102240002048FFF7E1F90420FFF702FD1E4B1D486F
:1022500000221A60FFF7D6F901210D2005F0A0FB3E
:10226000796D1848FFF7DCFA7A6C97F8401015483A
:1022700003B0BDE8F040FFF7D5BA00BF2887FF1FC5
:10228000E893FF1FE8BFFF1F20A107004CBEFF1F00
:102290008494FF1F78020100C087FF1F880201009D
:1022A000A002010001F0074000F007400E200540A9
:1022B000042005400620054016200540A403010027
:1022C0003093FF1FB894FF1F5092FF1F2121394800
:1022D00006F056FC384806F045FE384B1B781B07C5
:1022E0007FF54BAF0C21364806F04AFC324806F029
:1022F00039FE324B1B785F077FF544AF0E21314822
:1023000006F03EFC2C4806F02DFE2C4B1B789E0759
:102310007FF53DAF17212C4806F032FC264806F029
:1023200021FE2A4B1B781D067FF536AF0E2128486B
:1023300006F026FC204806F015FE244B1B785C06B0
:102340007FF52FAF1221234806F01AFC1A4806F039
:1023500009FE1E4B1B7898067FF528AF13211E48F7
:1023600006F00EFC144806F0FDFD184B1B785907CB
:102370007FF521AF1C21194806F002FC0E4806F03B
:10238000F1FD124B1B781A077FF51AAF192114487B
:1023900006F0F6FB084806F0E5FD0C4B1B789B07A2
:1023A0007FF513AF18210F4806F0EAFB024806F04C
:1023B000D9FD0AE7B8020100C087FF1F01F00740FE
:1023C000DC020100EC020100FC02010000F0074009
:1023D0001403010024030100380301004C03010031
:1023E0006C0301008803010070B5464C464D474818
:1023F000E66800232B70FFF7EDF90146304609F03F
:1024000003FB08B104232B704048FFF7BDF9216995
:1024100009F0FAFA18B12B7843F010032B703B48FF
:10242000FFF72CFAA16A09F00DFB18B12B7843F0E5
:1024300040032B70002335486B70FFF71FFAE16AE9
:10244000314E09F0E1FA08B10123737000232F48DF
:10245000EB70FFF7BFF905462C482B4EFFF794F9B8
:102460000146284609F028F8E16B09F0EBFA08B1BB
:102470000123F370264D254800232B70FFF7AAF99E
:10248000616A0646E06809F017F80146304609F02F
:10249000D9FA08B104232B701C48FFF775F9616A5B
:1024A0000646206909F00AF80146304609F0ACFA00
:1024B00018B12B7843F010032B701448FFF7DEF9A6
:1024C000A16B0646A06A08F0F7FF0146304609F006
:1024D000B9FA18B12B7843F040032B7000230B4856
:1024E0006B70FFF7CBF9A16B0546E06A084C08F06A
:1024F000E5FF0146284609F087FA08B10123637019
:1025000070BD00BF3093FF1F2C93FF1FB894FF1FB7
:102510007094FF1F514B1B68002B74D0F0B5504DC9
:102520002B680533B3F57A7F83B040F38E800023A8
:1025300000272B604B4CD4F8A00009F073F8064636
:10254000D4F8A40009F06EF8314608F0B5FF39461A
:1025500009F0BCF8444909F06DF9314608F0AEFFC6
:1025600009F090FA0146062005F09AF802213F484A
:1025700006F006FB3E4806F0F5FC06213D4806F055
:10258000FFFA286809F04EF83B4909F09FF808F077
:10259000F3FB022602460B460096354806F03CFD4A
:1025A0000D21364806F0ECFAD4F8A00009F03AF80C
:1025B0000746286809F036F82F4909F087F80546DC
:1025C000D4F8A40009F02EF8394608F075FF01464A
:1025D000284609F07BF8244909F02CF9394608F01F
:1025E0006DFF08F0C9FB009602460B46204806F036
:1025F00013FD31461D4806F0C3FA1D4803B0BDE87F
:10260000F04006F0AFBC174B1D4AD3F8A010D3F82A
:10261000A43012685B1A632B0BDD1A4803FB02F32C
:1026200080FB0302DB17C3EB62131944062005F09D
:1026300037B8154803FB022380FB0302DB17C3EB0B
:1026400022121144062005F02BB818462B6008F022
:10265000E9FF094909F03AF807466BE76494FF1F60
:102660005492FF1F3093FF1F0000C842300F01003B
:10267000C087FF1FC8030100CDCCCC3DD0030100B3
:102680003887FF1F1F85EB51CBF08D2870B5A2480E
:10269000A24C06F067FCA04806F064FC9E4806F0D9
:1026A00061FC0D219E4806F06BFAD4F89C30012B9A
:1026B00011D09C4C9848217800230A2206F062FC35
:1026C0002378052B67D8DFE813F0E900EE00F3006C
:1026D000F800FD00E4000921934806F051FA934800
:1026E000FFF752F8216909F08FF918B10F219048CE
:1026F00006F046FA8D48FFF76DF8E16809F0A2F997
:1027000018B10E218B4806F03BFA8848FFF762F8B3
:1027100005468648FFF738F80146284608F0CCFE03
:10272000E16B09F08FF918B11121834806F028FAFE
:102730007E48FFF7A3F8A16A09F084F918B10C21CB
:102740007E4806F01DFA7948FFF798F8E16A09F02B
:102750005BF918B10D217A4806F012FA794B7348EB
:102760001B68012B00F0C280FFF70EF821696B4D4A
:1027700009F068F978B16D48FFF72CF8E96809F0BD
:1027800043F940B1674B1B78052B00F0C08008214E
:102790006D4806F0F5F902216C4806F0F1F91220B7
:1027A00005F004F9012800F09C80112005F0FEF8E6
:1027B000012800F09180664B1B68012B00F0878098
:1027C0000221624806F0DCF9624B5348196806F0B2
:1027D00019FC514806F0C6FB04215F4806F0D0F909
:1027E0000B2005F0E3F8002301460A224A4806F0D0
:1027F000C9FB0C2005F0DAF8002301460A224648FE
:1028000006F0C0FB142005F0D1F8002301460A228F
:10281000414806F0B7FB152005F0C8F80023014633
:102820000A223D4806F0AEFB06214C4806F0A8F906
:102830004B4B394819680222002306F0A3FB042100
:10284000484806F09DF9112005F0B0F80023014634
:102850000A22314806F096FB102005F0A7F8002365
:1028600001460A222C4806F08DFB122005F09EF846
:10287000002301460A22284806F084FB132005F0B5
:1028800095F8002301460A222348BDE8704006F06F
:1028900079BB0721344806F073F97CE706213348F9
:1028A00006F06EF977E70721314806F069F972E71B
:1028B0000721304806F064F96DE708212E4806F03C
:1028C0005FF968E70B212D4806F05AF963E71121FB
:1028D0002B4806F055F973E70A212A4806F050F90B
:1028E00069E70E21284806F04BF95EE7FEF74CFF3A
:1028F000216A09F0A7F800283FF449AF16212348C0
:1029000006F03EF90A21224806F03AF943E70A2187
:102910001F4806F035F93EE7C087FF1F3093FF1FC1
:10292000E00301006C94FF1FF0030100B894FF1F47
:10293000FC0301000C0401001C0401003004010030
:10294000400401006092FF1F74040100300F010079
:102950008C94FF1F6894FF1FE8040100F00401003D
:10296000E493FF1FF8040100B0040100800401009B
:10297000880401009C040100A404010090040100EB
:10298000D4040100C8040100B8040100500401008F
:10299000680401002DE9F04F934C944FE36F012B35
:1029A0008DB000F04981032B50D0914E914DA36F13
:1029B0009148012B09BF2968296801F1004129606C
:1029C00004F0FAFB3368002B40F0CE808A4804F014
:1029D000C9FBE36F3860012B064600F0D2808749BF
:1029E00009F030F878B98649304609F00DF850B949
:1029F000844A854B12680B920B9A1A6000232B6055
:102A00000DB0BDE8F08FDFF8FC817F4CD8F80030C6
:102A10000A930A9823687D4FC01A08F0FFFD3146DB
:102A200008F054FE7A4908F005FF794908F002FFE2
:102A3000396808F043FDD8F800300993099B2360FA
:102A4000002338602B600DB0BDE8F08FDFF8C8813F
:102A5000704DD8F80000664E012300220E212B6035
:102A600003F0D6FF2B68012B336800F00381002BA5
:102A700040F097810021D8F80000DFF8B891664D4A
:102A800004F018F833681FFA80FBC9F800B0002B77
:102A900040F06C810021D8F80000564DDFF878A195
:102AA00003F08EFFB4F8863040F6E44101FB0BF1F1
:102AB000B1FBF0F0C01A00B208F0B4FD57498346EC
:102AC000D4F8880008F002FE0146584608F0B2FE2D
:102AD000D9F800302860632BDFF858B100F33A8151
:102AE00000232B603368002B3FF461AF02214C4878
:102AF00006F046F8D9F80020D8F8000040F6E44384
:102B0000002103FB02F803F05BFFB8FBF0F008F0D4
:102B100085FD8046B4F8860008F084FD01464046F5
:102B200008F0CAFC08F028F94FF0020802460B46EC
:102B3000CDF800803B4806F06FFA4146384806F071
:102B40001FF8286808F018F9CDF8008002460B46F7
:102B5000344806F061FA4146334806F011F8414620
:102B60002F4806F00DF822E7234804F0FBFA08F09E
:102B700003F9022602460B4600962A4806F04CFA54
:102B800024E7244B1B68012B00F01781022B7FF4F4
:102B900035AF264908F056FF30B92549304608F0D0
:102BA00033FF002800F03881DFF85880164CD8F841
:102BB0000030079307982368144FC01A08F02EFDC1
:102BC000314608F083FD124908F034FE104908F040
:102BD00031FE396808F072FCD8F800300693069B85
:102BE000386023600AE700BF3093FF1F6C92FF1F1D
:102BF000AC94FF1F5C92FF1F0893FF1F0000FA4375
:102C00000000FAC3F4BFFF1F8094FF1F7492FF1FE0
:102C100000007A446487FF1F8494FF1F17B7D138E0
:102C2000300F0100C087FF1F3C05010000C82F487E
:102C300000A08CC62893FF1F3D689749284608F0DE
:102C4000E3FE30B12846954908F0FCFE00287FF4E9
:102C5000FDAEDFF85482924DD8F80000914E022369
:102C600000220F212B6003F0D3FE2B68012B336869
:102C70007FF4FDAE002B40F0D6800021D8F8000094
:102C8000DFF86892884D03F015FF33681FFA80FB68
:102C9000C9F800B0002B40F0E3800021D8F8000014
:102CA000824DDFF804A203F08BFEB4F8843040F6C6
:102CB000E44101FB0BF1B1FBF0F0C01A00B208F0E7
:102CC000B1FC7B498346D4F88C0008F0FFFC014638
:102CD000584608F0AFFDD9F800302860632BDFF8C4
:102CE0000CB200F3B18000232B603368002B3FF45B
:102CF0005EAE02216F4805F043FFD9F80020D8F8F6
:102D0000000040F6E443002103FB02F803F058FE04
:102D1000B4F88410B8FBF0F000B2411A664806F02F
:102D200071F90221634805F02BFF286808F024F8A8
:102D30004FF0020802460B46CDF800805E4806F0D0
:102D40006BF903215D4805F01BFF4146594805F02A
:102D500017FF2CE6DAF80000002103F031FEDBF863
:102D6000003064389842FFF4BBAEBBE6002128680F
:102D700003F026FE40F6E44100230A2201FB0BF19A
:102D8000B1FBF0F14C4806F0FDF80221494805F08E
:102D9000F7FEB4F88610484806F034F9D9F800B0C8
:102DA00078E6454806F0DEF80C21454805F0E8FED7
:102DB0000C21444805F0E4FE5CE6434908F042FE7D
:102DC00058B94249304608F01FFE30B9404A414BDD
:102DD00012680592059A1A6010E6DFF8F4803D4CFF
:102DE000D8F800300493049823683B4FC01A08F0C9
:102DF00015FC314608F06AFC384908F01BFD3749DC
:102E000008F018FD396808F059FBD8F80030039332
:102E1000039B38602360F1E52D4A2E4B126808921F
:102E2000089A1A60EAE5244806F09CF8E36F012B43
:102E30004FF00B010CBF2A482A4805F0A1FE0C21D7
:102E4000204805F09DFE18E7DAF80000002103F0A5
:102E5000B7FDDBF8003064389842FFF444AF44E734
:102E60000021286803F0ACFD40F6E44100230A226B
:102E700001FB0BF1B1FBF0F10F4806F083F80121E3
:102E8000194805F07DFEB4F884100B4806F0BAF836
:102E9000D9F800B001E700BF00709446007094C6F6
:102EA0006487FF1FAC94FF1F8494FF1F5C92FF1F79
:102EB00017B7D138300F0100C087FF1F2805010068
:102EC0002C050100180501000000FA430000FAC3B8
:102ED000F4BFFF1F8094FF1F7492FF1F00007A440D
:102EE000000501000C050100DC0301002893FF1F11
:102EF0002DE9F047B24D2B6884B0002B7ED0B14C49
:102F0000DFF8C882B04EE36FAE4D012B00F08F802A
:102F1000D4F88030AB4F012B00F0BC80D6F8009085
:102F2000D7F858A07D6DA94F05FB0AF54FF47A70CC
:102F300000FB05F008F076FBA5490546484608F079
:102F4000C5FB294608F076FCA24908F0BFFB08F053
:102F500099FD6328C8F800004BDD28469C4908F01D
:102F600069FC642330603B609B4B1B68002B3DD0A9
:102F7000E36F944D012B00F0BB80032B00F009811F
:102F8000022B00F00C810221944805F0F9FD944BCE
:102F9000186807F0F1FE022402460B46009491489F
:102FA00006F03AF82146904805F0EAFD21468B48A4
:102FB00005F0E6FDD8F800108A4806F023F806214F
:102FC0008A4805F0DDFD3068814908F07FFB07F095
:102FD000D3FE009402460B46824806F01DF80321FA
:102FE000834805F0CDFD7F4805F0BCFF04B0BDE887
:102FF000F0870028BCBF00233B60B5E77D4E714CD5
:1030000033680293029A42F228339A4200F2BA805D
:1030100033680393039A42F210739A4274D8E36FB1
:10302000DFF8A881684E674D012B7FF471AF7248BD
:10303000FEF764FC7149D5F86890EF6E08F046FB26
:1030400008F046FD2A6F6B6FC9EB0202DB1B80B2F2
:103050009A42C9EB000040F3AD8003FB0000531C13
:1030600090FBF3F31F44A06D636DC8F8007000FB84
:1030700007F003FB00F000EB8000400008F0D2FAFC
:103080005349504F08F0D6FBD4F880303060012B04
:103090007FF444AF5848FEF731FC5849D7F86890A0
:1030A000FD6E08F013FB08F013FD3A6F7B6FD4F848
:1030B00058A0C9EB02025B1B80B29A42C9EB000028
:1030C000C6BF03FB00000132584390FBF2F02844D6
:1030D000656D00FB0AF005FB00F000EB800040008E
:1030E00008F0A0FA3A4908F0A5FB814630601AE7DB
:1030F000434B1B68012B4FF00A010CBF414842486B
:1031000005F03EFDEB6F38E73B48FEF7F7FB3B4928
:10311000A76EE66E08F0DAFA08F0DAFC226F636F49
:10312000D21B9B1B80B29A42A0EB07003CDD03FB45
:103130000000531C90FBF3F39819A26DDFF88C800C
:10314000636DC8F8000002FB00F003FB00F000EB29
:103150008000400008F066FA1D491B4E08F06AFB2B
:103160000123306002211D482B6005F009FD1D4838
:1031700005F0F8FE5921254805F002FD194805F033
:10318000F1FEC0E61C48626C94F84010FEF74AFB62
:103190003EE710211E4805F0F3FCE36FF0E607213F
:1031A0001C4805F0EDFCEEE603FB00F393FBF2F3A5
:1031B0009819C2E703FB00F393FBF2F31F4452E7B5
:1031C0005892FF1F3093FF1F7492FF1F3887FF1F15
:1031D000E4388E3E0000C8424087FF1F300F0100D8
:1031E0006C92FF1FC087FF1F3C050100D005010046
:1031F000D8050100F4BFFF1FB894FF1F00007A44F8
:103200006487FF1F9C050100A8050100400501001F
:10321000B4050100C8050100F0B5112083B004F029
:10322000C5FB012813D000210B2004F0B9FB0021BD
:103230000C2004F0B5FB0021152004F0B1FB1D4962
:103240001D4B0120002208701A6003B0F0BD01463A
:103250000446152004F0A4FB1849194A194B0968C3
:103260000191D2F890001B680199134D0344022686
:103270008B422E6017D8D2F8980008F0D3F9124B81
:10328000196808F0C1FB074668B921460B2004F015
:1032900087FB084A032339460C2016702B6004F084
:1032A0007FFB03B0F0BD01210C2004F079FB03B0DB
:1032B000F0BD00BF6C94FF1FA894FF1FF4BFFF1F59
:1032C0003093FF1FB094FF1F6C92FF1FF0B5684E44
:1032D000684D34682B689C4287B039D014F00101E6
:1032E00055D014F0020149D014F004013DD0E30799
:1032F0000ED52B68DF070BD45F4F3A68002A00F029
:1033000082805E4B1B680193019B93426DD83468A9
:10331000A0070DD52B6899070AD4594F3A68002A9F
:103320004CD0564B1B680393039B934238D83468A8
:1033300062070DD52B685B070BD4524F3A68002A01
:103340007ED04E4B1B680593059B934268D834682A
:103350000CB107B0F0BD2146162004F0A1F92146BA
:10336000172004F09DF907B0F0BD052004F098F98E
:103370002B68346803F0FB032B60B8E7172004F0D8
:103380008FF92B68346803F0FD032B60ACE716203F
:1033900004F086F92B68346803F0FE032B60A0E785
:1033A000394B1720D3F8941004F07AF92B6834685D
:1033B00043F0020300222B603A60B9E7334805F07E
:1033C000D1FD0C21324805F0DBFB304805F0CAFD89
:1033D000FF21172004F064F9284B2E4A1968029146
:1033E000029912680A443A609CE7274B1620D3F8EA
:1033F000941004F055F92B68346843F0010300225F
:103400002B603A6084E7FF21162004F049F91B4B3A
:10341000204A19680091009912680A443A6071E7DD
:10342000194B0520D3F8941004F03AF92B6834684E
:1034300043F0040300222B603A60002C89D18AE714
:10344000124805F08FFD0C21134805F099FB0F4839
:1034500005F088FDFF21052004F022F9074B0D4AF5
:1034600019680491049912680A443A606AE700BF37
:10347000A894FF1FE493FF1F5894FF1FF4BFFF1F82
:103480005C94FF1F6094FF1F3093FF1FC087FF1FD6
:10349000DC0501006C87FF1FEC0501002DE9F843F6
:1034A0004B4DDFF8589128684A4E4B4F00220E21B1
:1034B00003F0AEFA012322214848C9F8003005F094
:1034C0005FFB3368132B1EDC40F6E44800212868BC
:1034D00003F0F0FA00210446286803F071FA3B88F3
:1034E000A4B2012108FB04F4B4FBF0F43C481C44F2
:1034F0003C8005F045FB642004F08EFA336801330C
:10350000132B3360E2DD3B88364A3748A2FB0312B7
:103510009B1A02EB5303C3F30F1319463B8005F0CC
:1035200071FD1D213148324F05F02AFB022131483F
:1035300005F026FB2C4805F015FD00231A460F2147
:103540002868336003F064FA022322212348C9F873
:10355000003005F015FB3368132B1EDC40F6E44801
:103560000021286803F0A6FA00210446286803F029
:1035700027FA3B88A4B2012108FB04F4B4FBF0F461
:1035800017481C443C8005F0FBFA642004F044FA20
:1035900033680133132B3360E2DD3B88114A124854
:1035A000A2FB03129B1A02EB5303C3F30F1319463A
:1035B0003B8005F027FD1D210F4805F0E1FA0221AF
:1035C0000C4805F0DDFA0848BDE8F84305F0CABC30
:1035D0008494FF1F6892FF1F5487FF1FFC050100A2
:1035E0004006010087611886C087FF1F2006010082
:1035F0005687FF1F300F0100440601006487FF1F3C
:10360000F8B59C4C9C4F082640F251332360386D2E
:10361000E67108F007F87969054608F057F8974908
:1036200008F054F808F054FA954B964A1B68126853
:10363000A37281B241FA06FE3341284642FA06F5EA
:1036400084F809E0E372227321726573B96908F0A6
:103650003DF88A4908F03AF808F03AFA83B243FA9A
:1036600006F221468848A373E27302F0F3FF874B0A
:10367000874A1B681288A2725FFA83FC40F25531B8
:103680000CEB8C0E216043FA06F103EB83034FEA47
:103690004E0E3241002543F3D71361727A4884F805
:1036A00008C0214684F80CE0E2726373A573E573E9
:1036B000E67102F0CFFF40F2563376482360E671A0
:1036C000FEF7ACF8744908F001F808F001FA20722E
:1036D0007048FEF7A3F8704907F0F8FF08F0F8F912
:1036E0006E4A6D49C0F307236372106808F0A2F8B0
:1036F00008F0C8F940FA06F203466648E272A3727F
:10370000FEF7BCF85D4907F0E1FF08F0E1F920732E
:103710006048FEF7B3F8594907F0D8FF08F0D8F928
:103720002146C0F3072358486373A573E57302F07D
:1037300091FF022004F070F9594B5348197893F81F
:1037400001E0217240F25A32226021469A78DB78F9
:1037500084F809E025736573A573E573A272E372BB
:10376000E67102F077FF4F4B47481A78597822727A
:1037700040F25E35DA78256061729D781979A5721C
:10378000E2725D799A792173DB79A2732146E37342
:103790006573E67102F05EFF022004F03DF9424BD2
:1037A00039481A78597822724FF45C75DA782560B6
:1037B00061729D781979A572E2725D799A792173A7
:1037C000DB79E3732146E6716573A27302F042FF71
:1037D000364B1B68012B00D0F8BD2E48FDF7D4FFF7
:1037E000F96C07F06BFE05462A48FDF7F3FF01462A
:1037F000284608F009F90028EED040F2C3332548E6
:10380000E6712360FDF7C0FFBD6C294608F0FCF8A7
:10381000D0B12749284607F059FF08F059F980B27E
:1038200040FA06F360722372002301260425032266
:10383000A672E57222736373A373E3730D49124892
:10384000BDE8F84002F006BF1248FDF79DFF184999
:1038500007F03CFF08F03CF9C0F307230D48237242
:10386000FDF792FF124907F031FF08F031F960725D
:10387000DAE700BF9894FF1F3093FF1F000020413C
:103880004892FF1F7C94FF1F4CBEFF1F3887FF1F0D
:103890003C87FF1FB894FF1F0000C8426C92FF1FB7
:1038A0002C93FF1F2C87FF1F5C87FF1F8C94FF1F2B
:1038B00000007A44F0B5B24CB24D83B005F0FAF88E
:1038C00023682860042B00F0E282022B7ED0082BB4
:1038D00000F00A81072B40F08381322800F0FF833B
:1038E00040F37481332800F00F84712803D1002342
:1038F000732023602860002B08BF73280CBF0120B1
:103900000020002860D0A04805F02CFB04219F482F
:1039100005F036F99C4805F025FB10219C4805F080
:103920002FF9994805F01EFB13219A4805F028F954
:10393000994B9548196805F065FB934805F012FB13
:103940001421964805F01CF98F4805F00BFB1E2149
:10395000934805F015F98C4805F004FB15219148B2
:1039600005F00EF9884805F0FDFA1E218E4805F095
:1039700007F9854805F0F6FA20218C4805F000F992
:10398000814805F0EFFA1921894805F0F9F87E48D9
:1039900005F0E8FA1221874805F0F2F87A4805F0B8
:1039A000E1FA0F21844805F0EBF8774805F0DAFAE0
:1039B0000D21824805F0E4F8734805F0D3FA804AF7
:1039C000002101231160236003B0F0BDA0F131029A
:1039D000422A90D801A151F822F000BF17420000FE
:1039E0002D42000047420000694200009F42000053
:1039F000F7380000F7380000F7380000F73800000B
:103A0000F7380000F7380000F7380000F7380000FA
:103A1000F7380000F7380000F7380000F7380000EA
:103A2000F7380000F7380000F7380000F7380000DA
:103A3000F7380000F7380000F7380000F7380000CA
:103A4000F7380000F7380000F7380000F7380000BA
:103A5000F7380000F7380000F7380000F7380000AA
:103A6000F7380000F7380000F7380000F73800009A
:103A7000F7380000F7380000F7380000F73800008A
:103A8000F7380000F7380000F7380000F73800007A
:103A9000F7380000F7380000F7380000F73800006A
:103AA000F7380000BD420000F7380000F73800008A
:103AB000F7380000F7380000F7380000F73800004A
:103AC000F7380000F7380000F7380000F73800003A
:103AD000F7380000F7380000F7380000EF38000032
:103AE000F73800008F420000322800F0E38271288E
:103AF0003FF4FDAE31287FF4FEAE05F017F8002844
:103B000040F3858320482F4E05F0C0FBC0B286F8F5
:103B10004000022894BF01460021726C2A4888BFE9
:103B200086F84010FDF77EFE01236920236028609F
:103B3000A0F152031F2B01F21B82DFE813F06C0986
:103B4000190A190A190A190A190A190A190A190A5D
:103B5000190A190A190A190A190A190A0D09E60A8D
:103B60006E094108B307190A190A190A6B07190ADD
:103B7000E30A190A190A190A190A190A400700BFA3
:103B8000B494FF1F4492FF1FC087FF1FAC0D0100BC
:103B9000B40D0100C80D01002487FF1FDC0D0100DA
:103BA000F40D0100140E01002C0E01004C0E01005A
:103BB000700E01008C0E0100A00E0100B00E01007D
:103BC0004087FF1F3093FF1FB894FF1F31287FF4F9
:103BD00092AE04F0ABFF002800F3A48323682868AA
:103BE000062B40F08D80A0F13102402A3FF683AED3
:103BF00001A151F822F000BFB3410000DD410000F7
:103C00002D4100005141000075410000914100002C
:103C1000F7380000F7380000F7380000F7380000E8
:103C2000F7380000F7380000F7380000F7380000D8
:103C3000F7380000F7380000F7380000F7380000C8
:103C4000F7380000F7380000F7380000F7380000B8
:103C5000F7380000F7380000F7380000F7380000A8
:103C6000F7380000F7380000F7380000F738000098
:103C7000F7380000F7380000F7380000F738000088
:103C8000F7380000F7380000F7380000F738000078
:103C9000F7380000F7380000F7380000F738000068
:103CA000F7380000F7380000F7380000F738000058
:103CB000F7380000F7380000F7380000F738000048
:103CC000F7380000F7380000F7380000F738000038
:103CD000F7380000F7380000F7380000F738000028
:103CE000F7380000F7380000F7380000F738000018
:103CF000F7380000F7380000EF3800002368286824
:103D0000052B1AD1332801F0658140F34B8135280A
:103D100001F04F81BFF6E9AD04F008FF00280ADD8D
:103D2000D948DA4E05F0B2FA01226B23C6F8A0009A
:103D300022602B604BE123682868032B40F0A380AE
:103D4000A0F13002422A3FF6D6AD01A151F822F08F
:103D50005D3E0000494800007148000077470000C0
:103D60009D490000F94700002148000099480000E3
:103D7000B7480000DB480000F7380000F7380000C3
:103D8000F7380000F7380000F7380000F738000077
:103D9000F7380000F7380000F7380000F738000067
:103DA000F7380000F7380000F7380000F738000057
:103DB000F7380000F7380000F7380000F738000047
:103DC000F7380000F7380000F7380000F738000037
:103DD000F7380000F7380000F7380000F738000027
:103DE000F7380000F7380000F7380000F738000017
:103DF000F7380000F7380000F7380000F738000007
:103E0000F7380000F7380000F7380000F7380000F6
:103E1000F7380000034900009D430000DB47000025
:103E2000214900003F4900005D490000794300003E
:103E3000F7380000F7380000F7380000F7380000C6
:103E4000F7380000F7380000F7380000F7380000B6
:103E5000F738000099470000A547000004F066FE0F
:103E6000002841F38E808848884E05F00FFA01271C
:103E70000346014662228648736527602A60FDF783
:103E8000CFFC23682868012B7FF435AD50E6A0F104
:103E90003102402A3FF62FAD01A151F822F000BFB8
:103EA00021430000194300001D430000DF420000D1
:103EB000E3420000FD42000015430000C94200003B
:103EC000F7380000F7380000F7380000F738000036
:103ED000F7380000F7380000F7380000F738000026
:103EE000F7380000F7380000F7380000F738000016
:103EF000F7380000F7380000F7380000F738000006
:103F0000F7380000F7380000F7380000F7380000F5
:103F1000F7380000F7380000F7380000F7380000E5
:103F2000F7380000F7380000F7380000F7380000D5
:103F3000F7380000F7380000F7380000F7380000C5
:103F4000F7380000F7380000F7380000F7380000B5
:103F5000F7380000F7380000F7380000F7380000A5
:103F6000F7380000F7380000F7380000F738000095
:103F7000F7380000F7380000F7380000F738000085
:103F8000F7380000F7380000F7380000F738000075
:103F9000F7380000F7380000F7380000F738000065
:103FA000EF380000312800F0F38732287FF4A3AC0B
:103FB00004F0BCFD00287FF7BEAE3348334E05F059
:103FC00065F901226B23C6F8980022602B602E4809
:103FD00004F0C8FF2C4804F0C5FF2B4804F0C2FFD2
:103FE000294804F0BFFF284804F0BCFF21212948DC
:103FF00004F0C6FD244804F0B5FF1521264804F05E
:10400000BFFDD6F89010204804F0FCFF02212348A1
:1040100004F0B6FD1C4804F0A5FF1E21204804F062
:10402000AFFDD6F89810184804F0ECFF03211D48A6
:1040300004F0A6FD144804F095FF1E211A4804F070
:104040009FFDD6F89410104804F0DCFF0E4804F0F1
:1040500089FF1D21154804F093FDD6F8A0100A48E9
:1040600004F0D0FF084804F07DFF1E21104804F042
:1040700087FDD6F8A410044804F0C4FF024804F0F9
:1040800071FF052323609FE4C087FF1F3093FF1F4C
:10409000B894FF1F90080100B4080100080801004F
:1040A000CC08010028050100EC0801000C09010002
:1040B0002C09010004F03AFD002840F3A480A24836
:1040C000A24E05F0E3F807F0ADFAA14907F0FEFAB9
:1040D0000346024696F840109E48736422E504F0B9
:1040E00025FD00287FF77AAD9748984E05F0CEF869
:1040F00007F098FA964907F0E9FA61230122F06384
:1041000022602B60184613E504F010FD00287FF7AD
:1041100065AD8D488D4E05F0B9F807F083FA61233F
:104120000122B06322602B60184601E504F0FEFC1A
:1041300000287FF7E3AD8448844E05F0A7F800EB34
:104140008000430001226520F36522602860EFE4CF
:1041500004F0ECFC00287FF7D1AD7B487B4E05F0E6
:1041600095F800EB80004300012265203366226051
:104170002860DDE4754AD2F8AC300133052BC8BFA6
:104180000023C2F8AC306520012323602860CFE40F
:1041900004F0CCFC00287FF7B1AD6B486B4E05F006
:1041A00075F865230122C6F8B00022602B6018461E
:1041B000BEE404F0BBFC00287FF7A0AD6248634E6C
:1041C00005F064F807F02EFA634907F033FB652326
:1041D0000122706122602B601846A9E404F0A6FC5D
:1041E00000287FF78BAD5848584E05F04FF807F080
:1041F00019FA594907F01EFB65230122F06122607C
:104200002B60184694E423682868FFF763BB4F4E81
:1042100096F840007DE44D4EB36FB3FA83F35B092B
:1042200001226320B3672260286081E4474ED6F8FC
:104230008030B3FA83F35B0901226320C6F8803033
:104240002260286074E40123236004F06FFC0028DE
:1042500005DD3D483D4E05F019F8C6F8A8000123DC
:1042600063202360286063E40123236004F05EFC84
:10427000002807DD3448354E05F008F807F0D2F97C
:10428000C6F88C00632028602368FFF723BB2F4A01
:10429000D36F0133032BC8BF0023D367DFE70123AC
:1042A000236004F043FC0028ECDD2748274E04F08F
:1042B000EDFF07F0B7F9C6F88800E3E7FFF7EEF87F
:1042C00023682868FFF703BB244A1368B3FA83F313
:1042D0005B090121642013602160286028E4204AE2
:1042E000F3E71A4ED6F89C30B3FA83F35B09012248
:1042F0006420C6F89C302260286019E40123154828
:104300002360FDF71FF9174A2368106064202860B6
:10431000FFF7DDBA144AD8E7144AD6E7144AD4E7BF
:10432000144AD2E70848094E04F0B0FF07F07AF9C2
:10433000074907F0CBF961230122706222602B60EC
:104340001846FFF7F5BB00BFC087FF1F3093FF1F64
:104350006F12833AB894FF1F00007A446492FF1FE3
:104360008894FF1F6894FF1F6494FF1FAC94FF1F85
:104370009494FF1F5494FF1F04F0D8FB00280DDD18
:10438000C148C24E04F082FF07F04CF9C04907F063
:1043900051FA01226223306222602B6004F0C6FBD6
:1043A000002840F3EE85B848B84E04F06FFF0122B4
:1043B0006223B06622602B60B34804F0D3FDB2489C
:1043C00004F0D0FDB04804F0CDFDAF4804F0CAFDC4
:1043D000AD4804F0C7FD1521AE4804F0D1FBAA4852
:1043E00004F0C0FD1421AC4804F0CAFBA64804F058
:1043F000B9FD1B21A94804F0C3FBA34804F0B2FD9A
:104400001321A74804F0BCFB9F4804F0ABFD9E4875
:1044100004F0A8FD9C4804F0A5FD2021A14804F06B
:10442000AFFBF0689A4907F051F906F0A5FC0027A8
:1044300002460B460097944804F0EEFD02219A488C
:1044400004F09EFB0221994804F09AFB8E4804F088
:1044500089FD2121964804F093FB30698C4907F0CF
:1044600035F906F089FC009702460B46864804F0B1
:10447000D3FD02218C4804F083FB02218B4804F019
:104480007FFB814804F06EFD1F218A4804F078FB11
:10449000B06A06F071FC022502460B4600957A4888
:1044A00004F0BAFD0121844804F06AFB29467F48E4
:1044B00004F066FB744804F055FD20217F4804F0A9
:1044C0005FFBF06A06F058FC009502460B466E480A
:1044D00004F0A2FD0121784804F052FB29467348FC
:1044E00004F04EFB684804F03DFD2321744804F0BD
:1044F00047FBB06C664907F0E9F806F03DFC009711
:1045000002460B46604804F087FD2946664804F0E1
:1045100037FB2946654804F033FB5B4804F022FD75
:104520001F21684804F02CFBF06C594907F0CEF8C5
:1045300006F022FC009702460B46534804F06CFD3F
:104540002946594804F01CFB2946584804F018FB3A
:104550004D4804F007FD19215B4804F011FBB16DD3
:10456000494804F04FFD2946584804F009FB294604
:104570004E4804F005FB444804F0F4FC182154486C
:1045800004F0FEFA706E07F04DF8524907F09EF8FD
:1045900006F0F2FB009502460B463B4804F03CFD5A
:1045A00001214D4804F0ECFA2946404804F0E8FAAD
:1045B000354804F0D7FC2B21484804F0E1FAB069F3
:1045C000334907F083F806F0D7FB009702460B4605
:1045D0002D4804F021FD2946334804F0D1FA29463C
:1045E000324804F0CDFA284804F0BCFC1F213C48B6
:1045F00004F0C6FA716D244804F004FD29462B48E6
:1046000004F0BEFA204804F0ADFC2021354804F047
:10461000B7FA316D1C4804F0F5FC2946234804F034
:10462000AFFA194804F09EFC10212F4804F0A8FAB4
:10463000B16E154804F0E6FC29461B4804F0A0FAC8
:1046400029461A4804F09CFA0F4804F08BFC132109
:10465000264804F095FAF16E0B4804F0D3FC0121D2
:10466000234804F08DFA2946104804F089FA0648D8
:1046700004F078FC10211F4804F082FA316F0248E0
:1046800004F0C0FC294637E0C087FF1F3093FF1FAE
:1046900000007A44740B01008C0B0100A40B010094
:1046A000E0060100C00B0100DC060100300F010034
:1046B000E40B0100080C01000C020100280C0100B1
:1046C0004C0C0100700C0100900C0100AC0C0100BE
:1046D000B00C0100CDCCCC3D500B0100CC0C010046
:1046E000F80C0100180D01003C0D0100500D0100F7
:1046F000640D0100680D0100BA4804F041FA294632
:10470000B94804F03DFAB94804F02CFC1421B8482B
:1047100004F036FA716FB54804F074FC0121B54815
:1047200004F02EFA2946B04804F02AFAAF4804F003
:1047300019FC1621B04804F023FA306AAF4906F09C
:10474000C5FF06F019FB00970B460246A74804F088
:1047500063FC2946A34804F013FA2946A24804F052
:104760000FFAA24804F0FEFBA04804F0FBFB032371
:104770002360FFF729B904F0D9F9002840F3018438
:104780009A489F4E04F082FD06F04CFF01226223FE
:10479000B06222602B600FE60022732322602B6040
:1047A000FFF7B1B8974B9048954E002202211A604E
:1047B00004F0E6F98D4804F0D5FB0B21924804F093
:1047C000DFF90221884804F0DBF9884804F0CAFBCD
:1047D0000122622322602B60EEE504F0A7F9002895
:1047E00040F3CF838148864E04F050FD01226223BE
:1047F000F06622602B60DFE504F098F9002840F3B2
:10480000C0837A487E4E04F041FD06F00BFF7B49E1
:1048100007F010F801226223B06422602B60CBE520
:1048200004F084F9002840F3AC837048744E04F01F
:104830002DFD06F0F7FE714906F0FCFF0122622310
:10484000F06422602B60B7E504F070F9002840F3B3
:10485000988366486A4E04F019FD06F0E3FE674946
:1048600006F0E8FF01226223F06022602B60A3E5DE
:1048700004F05CF9002840F384835C48604E04F047
:1048800005FD06F0CFFE5D4906F0D4FF012262234C
:10489000306122602B608FE504F048F9002840F376
:1048A00070835248564E04F0F1FC01226223B06539
:1048B00022602B6080E504F039F9002840F3618321
:1048C0004A484F4E04F0E2FC00EB80004300012117
:1048D0006222736621602A606EE504F027F90028E1
:1048E00040F34F834148464E04F0D0FC06F09AFE58
:1048F000424906F09FFF01226223B06122602B60D3
:104900005AE504F013F9002840F33B8337483C4E46
:1049100004F0BCFC01226223306522602B604BE571
:1049200004F004F9002840F32C833048344E04F09E
:10493000ADFC01226223306722602B603CE504F06D
:10494000F5F8002840F31D8328482D4E04F09EFC06
:1049500001226223706722602B602DE5FDF7C0FA0B
:1049600002212148264E04F00BF9204804F0FAFAFF
:1049700002211D4804F004F91C4804F0F3FA022156
:10498000194804F0FDF8194804F0ECFA17211F4803
:1049900004F0F6F8154804F0E5FA12E704F0C6F85A
:1049A000002840F3EE821148154E04F06FFC06F02B
:1049B00039FE01226223F06222602B60FCE4B42203
:1049C00000210F4802F020FD2868114AA0F1730071
:1049D00001210023B0FA80F0400911602360FEF746
:1049E00090BF00BFDC060100300F0100C087FF1F31
:1049F0007C0D0100640D0100940D010000007A445B
:104A00003093FF1F5892FF1F8806010070060100B7
:104A10004087FF1FAF48B04D04F0A4FAAD4804F042
:104A2000A1FAAC4804F09EFAAA4804F09BFAA948FF
:104A300004F098FA1521A94804F0A2F8A54804F05A
:104A400091FA1821A64804F09BF800230A2295F851
:104A50004010A04804F096FA9E4804F083FA2821FA
:104A6000A04804F08DF8686C9F4906F02FFE06F010
:104A700083F900250B4602460095964804F0CCFACF
:104A800002219A4804F07CF8924804F06BFA132152
:104A9000974804F075F88F4804F064FA08232360FF
:104AA000FEF792BF8B488C4E04F05CFA894804F004
:104AB00059FA884804F056FA864804F053FA8548B3
:104AC00004F050FA11218B4804F05AF8814804F0A0
:104AD00049FA2821884804F053F87069824906F0A1
:104AE000F5FD06F049F9002502460B460095794888
:104AF00004F092FA02217D4804F042F8754804F06F
:104B000031FA16217D4804F03BF8F069764906F049
:104B1000DDFD06F031F900950B4602466D4804F0C4
:104B20007BFA0221714804F02BF86A4804F01AFA63
:104B3000D6F8AC30AB4232DD1D21714804F020F8CC
:104B4000F06D06F06FFD6F4906F0C0FD06F014F938
:104B5000022502460B4600955E4804F05DFA0121ED
:104B6000694804F00DF85B4804F0FCF91F21674820
:104B700004F006F8306E06F055FD624906F0A6FD19
:104B800006F0FAF8009502460B46524804F044FA43
:104B900001215D4803F0F4FF4E4804F0E3F91121D0
:104BA0005B4803F0EDFFD6F8AC30052B00F2A18195
:104BB000DFE813F0D401D901CF01CA01C5019B017F
:104BC000444804F0CFF9434804F0CCF9414804F0DC
:104BD000C9F9404804F0C6F93E4804F0C3F913216E
:104BE0004C4803F0CDFF3B4804F0BCF90D214A4886
:104BF00003F0C6FF374804F0B5F90F21474803F02A
:104C0000BFFF474B3348196804F0FCF9314804F002
:104C1000A9F91321434803F0B3FF434B2D4819680A
:104C200004F0F0F92B4804F09DF912213F4803F0FD
:104C3000A7FF3F4B2748196804F0E4F9254804F022
:104C400091F911213B4803F09BFF3B4B2148196828
:104C500004F0D8F91F4804F085F90E21374803F015
:104C60008FFF1D4B1B48D3F89C1004F0CBF919485B
:104C700004F078F91921324803F082FF314B1548CE
:104C8000196804F0BFF9134804F06CF911212E489B
:104C900003F076FF2D4B0F48196804F0B3F90D4867
:104CA00004F060F910212A4803F06AFF294B0948F3
:104CB000196804F0A7F9074804F054F913210C48C7
:104CC00003F05EFF034804F04DF904232360FEF770
:104CD0007BBE00BFC087FF1F3093FF1F740E010013
:104CE00094060100B006010000007A44DC060100D1
:104CF000E0060100180E0100F40601002007010083
:104D000038070100CDCCCC3D500B01005807010005
:104D1000780701004C0901006009010070090100D9
:104D20005494FF1F80090100AC94FF1F94090100F7
:104D30009494FF1FA80901008894FF1FBC0901007B
:104D4000CC0901006894FF1FE80901006494FF1F6B
:104D5000FC0901006492FF1FC148C24D04F002F932
:104D6000BF4804F0FFF8BE4804F0FCF8BC4804F06B
:104D7000F9F8BB4804F0F6F81F21BB4803F000FF28
:104D8000B74804F0EFF81C21B84803F0F9FE686A50
:104D9000B74906F09BFC05F0EFFF002602460B46E4
:104DA0000096AF4804F038F90221B24803F0E8FE5B
:104DB000AB4804F0D7F82321AF4803F0E1FEE86BDD
:104DC000AB4906F083FC05F0D7FF009602460B4680
:104DD000A34804F021F90221A64803F0D1FEA0481F
:104DE00004F0C0F81921A54803F0CAFEA86B05F02D
:104DF000C3FF02250B4602460095994804F00CF9C2
:104E000029469F4803F0BCFE954804F0ABF8072301
:104E10002360FEF7D9BD03F07DF99148914E04F06F
:104E2000A1F88F4804F09EF88D4804F09BF88C4858
:104E300004F098F88A4804F095F81F21914803F08F
:104E40009FFE874804F08EF81E218F4803F098FEDD
:104E5000834804F087F81A218C4803F091FEF36F21
:104E6000022B00F04781032B00F03C81012B00F066
:104E700031810921864803F083FE794804F072F8F5
:104E800014218448774F03F07BFEB16F744804F01F
:104E9000B9F8734804F066F81C217F4803F070FEEF
:104EA000D6F880106E4804F0ADF86D4804F05AF85A
:104EB0001C217A4803F064FED6F8A810684804F074
:104EC000A1F8674804F04EF8F56F25F00205012DB2
:104ED00000F091801321724803F052FE604804F004
:104EE00041F802232360FEF76FBD0F216D4803F0E8
:104EF00047FE5B485B4D04F035F8D6F8AC30002B2C
:104F00000FDD1821684803F03BFED5F8B010544877
:104F100004F078F80221654803F032FE504804F0AE
:104F200021F84F4804F01EF813215D4803F028FED5
:104F30004B4804F017F806232360FEF745BD0D210A
:104F40005B4803F01DFED4E70D215A4803F018FE1C
:104F5000CFE70C21584803F013FECAE70D2157484C
:104F600003F00EFEC5E70C21554803F009FEC0E72B
:104F70002368002B08BF73280CBF01200020FEF718
:104F8000C0BC23682868012B7EF4B5ACFEF7D0BD09
:104F900003F0CCFD00287EF7CEAE3148314E04F050
:104FA00075F901226B23C6F8900022602B60FFF791
:104FB0000EB803F0BBFD00287EF7BDAE2848294E91
:104FC00004F064F901226B23C6F8A40022602B6070
:104FD000FEF7FDBF03F0AAFD00287EF7ACAE204827
:104FE000204E04F053F901226B23C6F8940022608E
:104FF0002B60FEF7ECBF1C21324803F0C1FDD7F84F
:105000008C00314906F062FB05F0B6FE00950246C1
:105010000B46134804F000F805212C4803F0B0FDBE
:105020000F4803F09FFFFD6F012D7FF453AF1D214B
:10503000274803F0A5FDD7F88800234906F046FB72
:1050400005F09AFE009502460B46054803F0E4FF82
:1050500005211E4803F094FD014803F083FF39E762
:10506000C087FF1F3093FF1F0C0801002C080100B0
:1050700000007A44DC0601004C08010070080100C1
:105080008C080100100A0100300A0100500A0100DA
:10509000C80A0100D40A0100EC0A01000C0B01004F
:1050A000E0060100DC070100EC0701000808010030
:1050B000CC070100BC070100AC0701008C07010010
:1050C0009C0701002C0B0100CDCCCC3D4C0B01000A
:1050D000540B01001E210E4803F052FD0D4803F051
:1050E00041FFCDE620210C4803F04AFD094803F0BA
:1050F00039FFC5E61721094803F042FD054803F0D2
:1051000031FFBDE6064EFEF762BF054EFFF754B90C
:105110006C0A0100C087FF1F8C0A0100B00A010061
:105120003093FF1F38B5164C164A2368101D12F82D
:10513000011F904241EA0323F9D12360124C03F18D
:1051400000432360114BDB6F022B11D0104B1B6807
:10515000012B00D038BD0F4803F004FF21680D4833
:1051600003F050FF03210C48BDE8384003F008BDB0
:1051700020680A4D06F056FA2860FDF70BFCE5E7BB
:105180004092FF1F7F92FF1F7894FF1F3093FF1FF5
:105190005494FF1FC087FF1FC00E01005C92FF1FC9
:1051A00030B53F4C3F4883B0214601F04BF92368AE
:1051B00040F2C232934258D06FF4C0615A18B2F52F
:1051C000FF7F4CD903F100436FF4C0621344B3F581
:1051D000FF7F3FD9344B1B68012B01D003B030BD9A
:1051E000324B1B68012BF9D1314B32481B680193BC
:1051F0000A220023019903F0C5FE2268284B002AE9
:10520000DB7945DB2C492D4807F03EFA2B4807F0A7
:1052100077FA0146294803F0B3FC2568204B15F0C6
:10522000804526D1DB798BB1631925491A7A234849
:1052300007F02AFA214807F063FA01461F4803F0F5
:105240009FFC0135E379EDB2AB42EDD8194803F08C
:1052500089FEC3E712491B48FCF79CF9BAE71049DD
:105260001848FCF797F92368ACE7FFF75BFF236862
:10527000A2E7154D114C0FCD0FC495E8030044F87B
:10528000040B204620F81419152103F079FCDDE702
:105290000E490A4822F0604207F0F6F9B6E700BF6F
:1052A0007892FF1F4CBEFF1F4087FF1F5494FF1FC3
:1052B000F4BFFF1FC087FF1FEC0E01008892FF1F85
:1052C000180F0100B894FF1F000F0100C40E010069
:1052D0002DE9F84F7E4B7F4C1B78052B08D07E487C
:1052E000FCF7CCFAE16A06F08FFB002800F0818021
:1052F0007A4E7B4D002333602B607A4B76481B68D7
:10530000744F012B33D0FCF765FAE1698046606980
:1053100006F0D2F80146404606F094FB00283AD148
:105320006D48FCF757FAE16806F08CFB08B10023E2
:105330002B606948674FFCF727FA216906F064FB88
:1053400048B1002333602B68654A002BBCBF0023A3
:105350001360BDE8F88F6048FCF716FAB96906F0EB
:1053600053FB0028EDD13368002BEADBEBE7FCF7B9
:1053700031FAE1698046206A06F09EF8014640460F
:1053800006F060FB0028CBD05348FCF723FAD7F88F
:105390002090834605E05048FCF71CFAD7F814909B
:1053A0008346F969484606F087F88246F86D06F0AC
:1053B00039F98046386E06F035F9414606F07CF83A
:1053C00051460746584606F077F80146384606F03B
:1053D0007DF951460746484606F06EF801463846C4
:1053E00006F028FA414606F069F806F04BFB286003
:1053F00096E73948FCF742FA216B06F005FB20B32B
:10540000364E636E34483360FCF738FA8146E06DFF
:10541000E76A334D06F006F939468046484606F0FD
:105420004BF80146404606F051F939468046206B5C
:1054300006F042F80146404606F0FCF9002106F06D
:105440003DF806F01FFB286057E72348FCF716FAE3
:10545000616B06F0D9FA30B1204E214D626EE36DDA
:1054600032602B6049E71C48FCF708FAA16A06F095
:10547000CBFA00283FF43CAF1748184E184DFCF704
:10548000FDF98146606ED4F8348006F0CBF84146D1
:105490000746484606F010F839468146002006F0D7
:1054A0000BF80146484606F011F941468146A06ACC
:1054B00006F002F80146484606F0BCF9394605F008
:1054C000FDFF06F0DFFAE36D30602B6015E700BFEB
:1054D0006C94FF1F3093FF1FB894FF1F7C94FF1F35
:1054E0004892FF1F6092FF1F08B5274803F03AFD5E
:1054F0000721264803F044FB112002F057FA062149
:10550000F8B1234803F03CFB122002F04FFA0621C9
:1055100000B3204803F034FB122002F047FA0621C2
:1055200008B31D4803F02CFB132002F03FFA0621BC
:1055300010BB1A4803F024FB1348BDE8084003F0F1
:1055400011BD174803F01CFB122002F02FFA0621B0
:105550000028DED1134803F013FB122002F026FAD4
:1055600006210028DDD1104803F00AFB132002F0C9
:105570001DFA06210028DCD00C4803F001FB02488C
:10558000BDE8084003F0EEBCC087FF1F240F0100F8
:105590002C0F01003C0F01004C0F0100640F0100B3
:1055A000340F0100440F0100540F01005C0F010093
:1055B00010B5254C2368042B27DC01210B2002F0B9
:1055C000EFF901210C2002F0EBF90121142002F087
:1055D000E7F90121152002F0E3F90121162002F07C
:1055E000DFF90121172002F0DBF90121052002F08B
:1055F000D7F90121062002F0D3F9236801330A2BE1
:105600002360C4BF0023236010BD00210B2002F0E3
:10561000C7F900210C2002F0C3F90021142002F088
:10562000BFF90021152002F0BBF90021162002F07D
:10563000B7F90021172002F0B3F90021052002F08C
:10564000AFF90021D6E700BF9094FF1F2DE9F0418C
:105650008C4DD5F8AC30042B3ED0032B71D0012BF0
:1056600000F09B80022B01D0BDE8F081864C87487A
:10567000237240F20E32012321462260E37100F0D2
:10568000E9FF834B1B685B00FF2BC8BFFF2304218E
:1056900040224FF441702060E17122726372286DE4
:1056A00005F0C0FF696906F011F87A49054606F071
:1056B000C9F9002800F0DD802946284605F0FEFEE5
:1056C00006F006FA80B20312E072A3726E496F48C8
:1056D000BDE8F04100F0BEBF6B4C6F4AA379226079
:1056E00043F001030822E271A371286D05F09AFFCF
:1056F000696905F0EBFF694905F0E8FF06F0E8F994
:10570000634B674A1B68126893FBF2F380B2002672
:105710004FEA202E1F120122607221465B48E3727D
:10572000227384F808E0A7726673A673E67300F02C
:1057300091FFA279D5F8AC3066F30002032BA27179
:105740008DD1514C286DA3720122E823072140F22C
:10575000FF26227263722660E17105F063FF6969BA
:1057600005F0B4FF4D4905F0B1FF06F0B1F9484B23
:105770004B4A1B68126893FBF2F382B21E12171297
:10578000214642486373E2722773A67300F062FFFA
:10579000D5F8AC30012B7FF465AF424B3A4C1B6817
:1057A0002360072280231020E271237202F0FEF8AA
:1057B000002865D13C4B1B68DFF8D480384F286D3A
:1057C000314E03EB83035B001A12A3726272D8F8A6
:1057D00000303A6893FBF2F31A126273A37305F078
:1057E00021FF696905F072FF304B196805F064FE0E
:1057F0002A4905F06BFF06F06BF980B203123146BF
:1058000020732248E37200F025FF022002F004F921
:10581000274B1B682360072280231020E27123722C
:1058200002F0C4F850BB204B1B68286D03EB8303C8
:105830005B001A12B372727205F0F4FE696905F02A
:1058400045FF164905F042FF06F042F982B21612F2
:105850003868D8F80030227393FBF0F30A490B48FC
:10586000A3731A12E672627300F0F4FED5F8AC303E
:10587000F8E601229023A272E37227E70D4BD3E7EB
:105880000C4B98E73093FF1F9894FF1F4CBEFF1FEF
:105890004892FF1F00004843F4E50618000020412D
:1058A0005087FF1F6887FF1F4887FF1F5887FF1F0C
:1058B0003487FF1F4C87FF1F2DE9F04F8DB001E0AB
:1058C000FFF76EFCA04800F087FD0028F8D103F038
:1058D0002DF9002801DDFDF7EDFF9C4F3B68012B02
:1058E00001D0FDF7F3FC9A4CD4F89C50012D00F048
:1058F0004D81984E3378052B2CD8DFE813F0A500A6
:10590000B900DE000600F800FF00934B00220121E1
:1059100014201A6002F044F89048FBF75BFFA16C7A
:1059200006F090F8002840F00F828D4B18608B48ED
:10593000FBF750FF616906F085F8002840F0FD8113
:10594000122002F033F828B90146142002F028F89A
:1059500001233370834DE36F23F00203012B28D022
:105960002B68814A0793079B11687E485B1AB3F541
:10597000FA7F21D82B680A930A9B7C4A2B680993EB
:10598000099B1068D4F8B010764D714C1B1A8B42ED
:105990000CD92B680B93D4F89C300B991160012B18
:1059A00000F0CC803378032B00F0C8800DB0BDE848
:1059B000F08FFCF7EFFFD3E703680893089B674875
:1059C0001360FBF723FE6548FBF7DEFE216906F056
:1059D0001BF8002835D1664B1B68002B40F03C813A
:1059E000644B1B68002B40F03381634B1B68002B1A
:1059F00040F02B813B68002B40F024815F4FFDF786
:105A000077FAFFF765FCFDF7FBFDFCF783FD3B68CC
:105A1000524893B1FBF796FD3B6898421CBF0523A3
:105A20003370FCF7E1FC72B6554B4AF202614BF25F
:105A3000804219801A8062B69CE7FBF783FD3860CC
:105A4000EFE705233370C6E7434B464D4FF00008A0
:105A500041461420C3F8008001F0A2FF41460B200C
:105A600001F09EFF474A0123C2F80080337072E7BD
:105A7000394B3A48364D00221A60FBF7ABFEA16C59
:105A800005F0E0FF002840F04081354B00221A600D
:105A9000122001F08BFF012800F0A581112001F0F8
:105AA00085FF01282F4D7FF456AF2A68364B0692AA
:105AB000069A1A60042333704DE7274B4FF0010814
:105AC0001120C3F8008001F071FF054600287FF423
:105AD00041AF0146152001F063FF29460B2001F07C
