:1000000000800020BD010000D19300008993000012
:100010008993000089930000899300008993000070
:10002000899300008993000089930000D193000018
:10003000D193000089930000E5890000E98A00005F
:10004000D1930000D1930000D1930000D193000020
:10005000D1930000D1930000D1930000D193000010
:10006000D1930000D1930000D1930000D193000000
:10007000D1930000D1930000D1930000D1930000F0
:10008000D1930000D1930000D1930000D1930000E0
:10009000D1930000D1930000D1930000D1930000D0
:1000A000D1930000D1930000D1930000D1930000C0
:1000B000D1930000517F00005D7F0000617F000050
:1000C0006D7F0000717F0000757F0000D1930000FC
:1000D000D1930000D1930000D1930000D193000090
:1000E000D1930000D1930000D1930000D193000080
:1000F000D193000065B60000D1930000C5A00000B8
:10010000D1930000DDA30000D1930000D193000043
:10011000D1930000D1930000D1930000D19300004F
:10012000D1930000D1930000D1930000D19300003F
:10013000D1930000D1930000D1930000D19300002F
:10014000D1930000D1930000D1930000D19300001F
:10015000D1930000D1930000D1930000D19300000F
:10016000D19300006DA60000D1930000D193000050
:10017000D1930000D1930000D1930000D1930000EF
:10018000D1930000D1930000D1930000D1930000DF
:10019000D1930000D1930000D1930000D1930000CF
:1001A000D1930000D1930000D1930000D1930000BF
:1001B000D1930000D1930000D1930000564B4CF234
:1001C000205210B51A804DF628121A8000BF00BFC9
:1001D00009F002F9514B4FF010621A60504A9A60D0
:1001E000504ADA60504A136813F4807304D14F49BF
:1001F0000B604FF4A85313604D4B1A78110703D5C9
:100200001A7842F008021A704A4B4B492A221A7097
:100210004A4A4B4B8B4204D252F8040F43F8040B6A
:10022000F8E7484B484900228B4202D243F8042B9E
:10023000FAE74649464A002352F8230041F82300D2
:1002400001336F2BF8D1434B434A802103F8011B44
:100250009342FBD1414B3D4A1A60414B8A221A70AE
:10026000A3F5805324225A70A0221A709A7992071B
:10027000FCD59A79D406FCD43A4A937903F00C035E
:10028000082B384BF9D103221A7140225A719A79FE
:100290009006FCD5334A9179324B4906FBD5324A58
:1002A000324911600221516020221A709A7902F0BD
:1002B0000C020C2AFAD12E4B2E4A1A602E4B2F4AD2
:1002C0001A6000225A60072243F8042C2C4AC3F813
:1002D0000C2D62B609F060FB144B1B68DA0705D5DC
:1002E000284809F03DF9284B284A1A60284B1B780A
:1002F0005B0609D5244C254B22689A4204D121483B
:1003000009F02EF9002323600DF0ACFC09F06AF827
:1003100008F098FFFEE700BF0E2005403080044043
:10032000823F04000100002B10D0034014D0034092
:1003300002D0074000E007402892FF1FB43A0100B6
:100340002087FF1F2892FF1F54C9FF1F0082FF1F35
:100350000000000000E400E05FE400E008ED00E0E1
:100360000050064000400640448004400000030165
:1003700004800440C010050014E000E0FF76010096
:1003800000002020DB47DC5D1CE00340A5C3945A3D
:1003900000F00740FFFFFFFFFFFFFFFFFFFFFFFF32
:1003A000FFFFFFFFFFFFFFFFFFFFFFFFFFFFFFFF5D
:1003B000FFFFFFFFFFFFFFFFFFFFFFFFFFFFFFFF4D
:1003C000FFFFFFFFFFFFFFFFFFFFFFFFFFFFFFFF3D
:1003D000FFFFFFFFFFFFFFFFFFFFFFFFFFFFFFFF2D
:1003E000FFFFFFFFFFFFFFFFFFFFFFFFFFFFFFFF1D
:1003F000FFFFFFFFFFFFFFFFFFFFFFFFFFFFFFFF0D
:10040000FFFFFFFFFFFFFFFFFFFFFFFFDEF9FFFF23
:1004100010B5054C237833B9044B13B10448AFF33E
:1004200000800123237010BD2892FF1F00000000F0
:10043000B03A0100084B10B51BB108490848AFF3AA
:1004400000800848036803B910BD074B002BFBD0A0
:10045000BDE81040184700BF000000002C92FF1FAD
:10046000B03A01002892FF1F00000000F0B400F134
:100470001C06134F00243146031F00F13C0243F8D1
:10048000044FB34241F8047F4FF0000542F8044F97
:10049000F5D100230B4A0C4C056647F230514566F6
:1004A0008566C566C56744670267826780F88430E1
:1004B00080F8853080F89C30A0F8AE10F0BC704712
:1004C0000000A040000048430000C8C22DE9F041F0
:1004D00090F89C4084B0202364008DF80530E4B28D
:1004E000042380468DF804408DF80630032720460B
:1004F00009F010FF02210DF1050009F015FF8DF83C
:10050000044001F01BFD30B3092140480AF044FFCC
:100510000023102221463E4808F0A4FB01213D485B
:100520000AF03AFF002310229DF80510384808F021
:1005300099FB012137480AF02FFF002310229DF874
:100540000610334808F08EFB012132480AF024FFE0
:100550002F4808F077FB02208DF8044009F0CEF90F
:1005600001F0ECFC00284CD102AE002409F0F2FEB0
:1005700070B3072C1FD101E009F0FCFE09F0EAFE80
:100580000028F9D101F0DAFC10B1214808F05AFB3B
:100590009DF80B009DF80C109DF80D209DF80E3075
:1005A000C8F88800C8F88C10C8F89020C8F89430B3
:1005B00004B0BDE8F08109F0DDFE054606F8010B48
:1005C00001F0BCFC70B9013409F0C4FE0028D0D1A0
:1005D000072CD3D001F0B2FC78B9013FD8D09DF8F8
:1005E000044084E7E9B200231022094808F03AFBEE
:1005F000012108480AF0D0FEE5E7054808F022FB93
:10060000EBE7072104480AF0C7FEADE7181E01001A
:10061000C887FF1F78250100241E010090F88C0078
:10062000704700BF90F88800704700BF90F89000B6
:10063000704700BF90F89400704700BF082994BF2E
:1006400050F82100002070472DE9F0410B4E804604
:10065000041F00F11C0754F8045F314628460DF0D2
:1006600077FA30B1D8F8801028460DF08FFA00B133
:100670002E46BC42EFD13046BDE8F081000020415B
:100680002DE9F041D0F880704FF00008041F00F110
:100690001C0654F8045F394628460DF077FA0849DD
:1006A00048B128460DF054FA414620B128460DF0D5
:1006B0006DFA00B1A846B442EBD14046BDE8F081E6
:1006C000000070422DE9F047D0F8807082464FF06C
:1006D0000009041F00F11C064FF0000854F8045FE5
:1006E000394628460DF052FA0E4950B128460DF011
:1006F0002FFA30B1484629460CF084FF08F1010872
:100700008146B442EAD1B8F1000F01D0CAF8A08006
:1007100040460DF02BF8014648460DF02FF9BDE894
:10072000F08700BF00007042D0F8A000704700BF03
:10073000D0F8983070B5054673B9866E446E314670
:1007400020460DF005FA70B1ED6E204629460DF0F9
:10075000FFF9D0B1204670BD012B0ED0022B19D06D
:10076000032B15D070BDEC6E304621460DF0F0F92C
:100770000028EFD03446204670BDC46EAD6E2046D2
:1007800029460DF0E5F90028E4D12C46204670BD3D
:10079000446EF3E7446ED7E7D0F8983070B505465D
:1007A00073B9866E446E314620460DF0EFF970B194
:1007B000ED6E204629460DF0E9F9D0B1204670BD16
:1007C000012B0ED0022B19D0032B15D070BDEC6E6F
:1007D000304621460DF0DAF90028EFD034462046A5
:1007E00070BDC46EAD6E204629460DF0CFF90028CD
:1007F000E4D12C46204670BD446EF3E7446ED7E743
:100800002DE9F04F022987B00746144600F02E81EB
:10081000032900F0C480012900F0838097F8AC30F0
:1008200001933846FFF784FF396F04460DF090F9C5
:1008300000B13C673846FFF7AFFF796F04460DF013
:10084000A5F900B17C6707F11C0BA7F1040A07F1B9
:100850003C095D46D0464E4658F8044F55F8040F03
:1008600021460DF093F930B1D7F8801020460DF0F5
:1008700083F900B12C6056F8041F20460DF086F96C
:1008800000B13460A945E7D1019B002B7ED0A84C74
:10089000D7F8A82023680393039BB7F8AE109B1AE0
:1008A0008B420DD300224AF8042FD3454FF00003AA
:1008B000F9D13B667B66BB66FB6607B0BDE8F08F8F
:1008C00023680493049BC91A0A4441F287339A426D
:1008D000F3D8022197480AF05FFD974808F0B2F973
:1008E000062196480AF058FD00230A2297F89C102A
:1008F000914808F0B7F9192191480AF04DFD236895
:100900000593059AB7F8AE30D7F8A8108A489B1A15
:1009100019440A22002308F0A5F9874808F092F943
:10092000CBE7137A80F8A430D0F8B400D7F8B060E1
:100930000CF01CFFE37A0546A07A03EB00200CF0D4
:1009400015FF31460CF066FF29460CF05BFE786619
:10095000637B207B03EB00200CF008FF31460CF09A
:1009600059FF29460CF04EFEB866E37BA07B03EBF3
:1009700000200CF0FBFE31460CF04CFF29460CF039
:1009800041FE97F8AC300193F8664AE7684B1B6864
:100990000293029BC7F8A83007B0BDE8F08F107A29
:1009A000537A03EB00200CF0E1FE66490CF032FFB5
:1009B000D7F88050294606460DF0E8F840B1624964
:1009C00030460DF0C5F818B100233E6187F8AC3011
:1009D000E37AA07A03EB00200CF0C8FE59490CF032
:1009E00019FF0646014628460DF0B2F840B15649B7
:1009F00030460DF0ADF818B100237E6187F8AC30B9
:100A0000637B207B03EB00200CF0B0FE4D490CF023
:100A100001FF0646014628460DF09AF840B14A49C2
:100A200030460DF095F818B10023BE6187F8AC3060
:100A3000E37BA07B03EB00200CF098FE41490CF017
:100A4000E9FE0446014628460DF082F800283FF4EE
:100A5000E5AE3D4920460DF07BF800283FF4DEAEC0
:100A60000023FC6187F8AC300193DAE6107A537A00
:100A700003EB00200CF07AFE32490CF0CBFED7F8E5
:100A80008050294606460DF081F800285ED10123EA
:100A900087F8AC30E37AA07A03EB00200CF066FE16
:100AA00028490CF0B7FE0646014628460DF050F8DE
:100AB00000285FD0244930460DF04AF8002859D06C
:100AC00000237E6087F8AC30637B207B03EB002043
:100AD0000CF04CFE1B490CF09DFE064601462846D4
:100AE0000DF036F8002841D0174930460DF030F8A7
:100AF00000283BD00023BE6087F8AC30E37BA07BAE
:100B000003EB00200CF032FE0E490CF083FE04468D
:100B1000014628460DF01CF818B30B4920460DF08D
:100B200017F8F0B10023FC6087F8AC30019378E649
:100B30007CC6FF1F38330100C887FF1F2C1E010031
:100B4000341E01006F12833A000070420B49304698
:100B50000CF0FEFF00289AD000233E6087F8AC30EE
:100B600098E7012387F8AC3001935AE6012387F810
:100B7000AC30C3E7012387F8AC30A5E70000704232
:100B80002DE9F04F90F89C3091B007465B008DF84E
:100B90000830FFF79BFCD7F89000D7F89440D7F8BF
:100BA0008C30D7F8882097F89C108DE81100C94840
:100BB00001F0CAFA30223D2303268DF809208DF872
:100BC0000A300DF10A059DF8089049F001084046E9
:100BD00009F0A0FB0DF10900022109F0A5FB8DF839
:100BE0000880424602AB00205040082410F0800FDD
:100BF0004FEA400018BF80F00700013CC0B2F5D1B9
:100C00009D4202D013F8012FEEE709F083FB01F0BB
:100C100095F9002840F07C8202208DF8089008F0B9
:100C20006DFE01F08BF9002840F0B8820DF10C0A3E
:100C3000D146002409F08EFB002843D0032C34D188
:100C400001E009F097FB09F085FB0028F9D101F0DC
:100C500075F910B1A04807F0F5FF312303268DF890
:100C600009308DF80A609DF8089049F00108404667
:100C700009F050FB0DF10900022109F055FB8DF838
:100C80000880424602AB00205040082410F0800F3C
:100C90004FEA400018BF80F00700013CC0B2F5D118
:100CA0009D4228D013F8012FEEE709F063FB09F805
:100CB000010B804601F042F968B9013409F04AFBA2
:100CC0000028BBD1032CBED001F038F978B9013E21
:100CD0007FF479AFC1E75FFA88F1002310227E48E4
:100CE00007F0C0FF01217D480AF056FBE5E77A488E
:100CF00007F0A8FFEBE709F00DFB01F01FF9002852
:100D000040F0C58102208DF8089008F0F7FD01F051
:100D100015F9002840F03D820DF10C09002409F07E
:100D200019FB002844D0032C35D101E009F022FB47
:100D300009F010FB0028F9D101F000F910B1664864
:100D400007F080FF342201238DF809208DF80A3046
:100D500003269DF8089049F00108404609F0DAFAA8
:100D60000DF10900022109F0DFFA8DF808804246F2
:100D700002AB00205040082410F0800F4FEA4000E2
:100D800018BF80F00700013CC0B2F5D19D4228D0C9
:100D900013F8012FEEE709F0EDFA09F8010B804690
:100DA00001F0CCF868B9013409F0D4FA0028BAD1BE
:100DB000032CBDD001F0C2F878B9013E7FF453AFE7
:100DC000C0E75FFA88F100231022434807F04AFF8A
:100DD000012142480AF0E0FAE5E73F4807F032FF18
:100DE000EBE709F097FA01F0A9F8002840F00E812E
:100DF00002208DF8089008F081FD01F09FF800288E
:100E000040F0D6810DF10C09002409F0A3FA002866
:100E100000F08480032C72D101E009F0ABFA09F0F4
:100E200099FA0028F9D101F089F810B12A4807F0A1
:100E300009FF012212238DF809208DF80A304FF0A6
:100E400003089DF80840204609F064FA02210DF1DC
:100E5000090009F069FA8DF8084001F06FF830B325
:100E600009211F480AF098FA0023102221461A4847
:100E700007F0F8FE012119480AF08EFA002310222B
:100E80009DF80910144807F0EDFE012113480AF0FF
:100E900083FA002310229DF80A100F4807F0E2FEA3
:100EA00001210E480AF078FA0B4807F0CBFE062025
:100EB0008DF8084008F022FD01F040F8002840F0CD
:100EC000728103AD002609F045FA00283FD0162EA6
:100ED0002FD109E0501E0100C887FF1F78250100AF
:100EE000181E010009F046FA09F034FA0028F9D179
:100EF00001F024F8162600287DD1152035E009F0F0
:100F000039FA09F8010B804601F018F800285BD186
:100F1000013409F01FFA00287FF47CAF032C3FF462
:100F20007EAF01F00BF800286CD1013E7FF411AFC9
:100F30007FE709F01FFA05F8010B044600F0FEFFF9
:100F400000284DD1013609F005FA0028BFD1162E30
:100F5000CAD000F0F3FF00284DD1B8F101087FF4AA
:100F600070AF701E002840F31982002303AA1C46AC
:100F700012F8011B08254C4014F0800F4FEA44047E
:100F800018BF84F00704013DE4B2F5D10133834278
:100F9000EEDB9DF8218089484146224601F0D4F8D5
:100FA000162EC146A34602D1A04500F0138197F842
:100FB0009C108348CDF800B04B46324601F0F2F861
:100FC000002011B0BDE8F08F5FFA88F100231022F5
:100FD0007C4807F047FE01217B480AF0DDF997E7DE
:100FE000E1B200231022774807F03CFE0121764849
:100FF0000AF0D2F9A6E7734807F024FE162EACD10A
:101000001520B2E76F4807F01DFE8EE709216F48F3
:101010000AF0C2F92346102241466A4807F022FE30
:10102000012169480AF0B8F9234610229DF80910F9
:10103000644807F017FE012163480AF0ADF9102259
:1010400023469DF80A105F4807F00CFE01215E4818
:101050000AF0A2F921460DF10B0002AA12F8014B89
:101060006140C9B2082311F0800F4FEA410118BF57
:1010700081F00701013BC9B2F5D19042EED11022B7
:10108000504807F0EFFD4F4807F0DCFDB0E60921BE
:101090004E480AF081F9234610224146494807F09C
:1010A000E1FD012148480AF077F9234610229DF816
:1010B0000910444807F0D6FD012143480AF06CF9B5
:1010C000102223469DF80A103E4807F0CBFD01216F
:1010D0003D480AF061F921460DF10B0002AA12F811
:1010E000014B6140C9B2082311F0800F4FEA410162
:1010F00018BF81F00701013BC9B2F5D19042EED192
:101100001022304807F0AEFD2E4807F09BFDF9E5B0
:1011100009212E480AF040F9234610224146294869
:1011200007F0A0FD012128480AF036F923461022D5
:101130009DF80910234807F095FD012122480AF087
:101140002BF9102223469DF80A101E4807F08AFD4D
:1011500001211D480AF020F921460DF10B0002AAD9
:1011600012F8014B6140C9B2082311F0800F4FEA19
:10117000410118BF81F00701013BC9B2F5D190428E
:10118000EED110220F4807F06DFD0E4807F05AFD12
:1011900042E507210E480AF0FFF8BDE507210C489B
:1011A0000AF0FAF842E5072109480AF0F5F888E65E
:1011B000072107480AF0F0F824E600BF841E01006A
:1011C000D01E0100C887FF1F78250100181E0100EE
:1011D000241E01009DF80C3097F89C20B3EB420FC1
:1011E0007FF4EEAE9DF80D30012B7FF4E9AE9DF853
:1011F0000E30122B7FF4E4AE9DF810309DF80F00F6
:1012000003EB00200CF0B2FA69490CF003FBF96F14
:10121000386604460CF0BAFC00B1FC67B96F204692
:101220000CF096FC00B1BC67A7F1040907F1200699
:1012300007F140054FF008089AF806309AF80500C3
:1012400003EB00200CF092FA5A490CF0E3FA49F84B
:10125000040F316804460CF07BFC0AF1020A30B13D
:10126000D7F8801020460CF087FC00B13460296864
:1012700020460CF08BFC043600B12C60B8F101085C
:1012800005F10405D8D19DF81E309DF81D0003EB33
:10129000002002300CF06AFA47490CF06FFB01465F
:1012A00046480CF06BFB46490CF0AAF945490CF096
:1012B000B1FA05460AF01CFB044628460AF018FB62
:1012C00041490AF087FB4149054620460CF0A2FA45
:1012D0003F490CF097F93F49044628460CF09AFA2A
:1012E000014620460CF08EF901464FF07E500CF07E
:1012F00045FB39490CF084F99DF81F209DF82030FA
:10130000786603EB022009300CF030FA33490CF018
:1013100035FB014629480CF031FB29490CF070F9E6
:1013200028490CF077FA05460AF0E2FA0446284606
:101330000AF0DEFA24490AF04DFB2449054620460E
:101340000CF068FA22490CF05DF92249044628465F
:101350000CF060FA014620460CF054F901464FF0BB
:101360007E500CF00BFB1C490CF04AF9B86638466D
:10137000FFF7DEF9396F04460CF0EAFB00B13C6779
:101380003846FFF709FA796F04460CF0FFFB00B10D
:101390007C67134800F0D8FE012012E69DF82190EA
:1013A000104849464246C34600F0CEFEFFE500BF66
:1013B0001357053B2003C839001601470AD7E33FFE
:1013C000E17A644000007A4400004040A40D8F3967
:1013D0005A80473A46A6DB3333938843002C0147B3
:1013E000A81E0100841E0100D0F8983010B50446F4
:1013F00033B1012B0FD0022B1FD0032B14D010BD03
:10140000816E406E0CF0FEF8E16E0CF0FBF80F49B7
:101410000CF0B4FA10BDC16E806E0CF0F3F84FF012
:101420007C510CF0F7F910BD816E406E0CF0EAF8BB
:101430004FF07C510CF0EEF910BDC16E406E0CF017
:10144000E1F84FF07C510CF0E5F910BD0000404090
:101450002DE9F8430026D0F88080066681460446D0
:1014600000F1200754F8045B414628460CF08EFB3F
:10147000084950B128460CF06BFB30B13046294684
:101480000CF0C0F80646C9F86000BC42EAD130460C
:10149000BDE8F8830000704202299ABF00EB81008A
:1014A000406E0020704700BF3E2998BF80F89C1016
:1014B000704700BF90F8A400704700BF90F8840008
:1014C000704700BF90F88500704700BFC0F89810C3
:1014D000704700BF80F88410704700BF80F8851007
:1014E000704700BF30B5C0F8801083B008460BF0DD
:1014F000E7FC074C022502460B460095204607F004
:10150000FBFB204603B0BDE8304007F09BBB00BFAB
:10151000C887FF1FC0F8B010C0F8B420704700BFE4
:1015200070B500F535550646303500F128042046E3
:10153000B834FEF79BFFAC42F9D106F1E005012477
:1015400028460021FFF7C6FF214628460134FFF751
:10155000ABFF3F2C05F1B805F2D142F67C540025D3
:101560000548064A064B3555002130617161B2616C
:10157000F361304670BD00BF00007A44000048436C
:101580000000C8C270B500F53556303600F1E004F1
:10159000002507E0012520460021B834FFF79EFF13
:1015A000B4420AD02046FFF789FF0028F3D0204636
:1015B000FFF788FF0028EDD170BD284670BD00BF41
:1015C000F8B500F53657002300F535563B60303648
:1015D00000F1E00402E0B834B4420DD02046FFF739
:1015E0006DFF0028F7D020463D68FFF79DF8B8341E
:1015F0002844B4423860F1D13868F8BDF8B50E46D9
:10160000096801F47F6500290446A5F5C06515DB6E
:101610002D0901F00F07B82303FB054428342046A9
:101620000121FFF757FF20460121FFF757FF324600
:1016300039462046BDE8F840FFF7E2B80A4801F015
:101640000F0707F0FFFA1221084809F0A5FE3168DC
:10165000054801F0004100230A2207F003FB02487D
:101660002D0907F0EFFAD6E7C887FF1F201F0100FA
:101670002DE9F0430446002383B0064644F8E03BDE
:10168000012504E001353F2D04F1B80469D020465E
:10169000FFF714FF0028F5D0504800F055FD29460B
:1016A0004F4800F051FD2046FFF76AFA2046FFF749
:1016B000CFFE0BF005FC02460B464A4800F044FD05
:1016C0002046FEF7C1FF80462046FEF7D9FF0746B9
:1016D00040460BF0F5FB8046384689460BF0F0FBA0
:1016E00042464B46CDE900013F4800F02DFD002168
:1016F0002046FFF7D1FE012180462046FFF7CCFEB1
:10170000074640460BF0DCFB8046384689460BF026
:10171000D7FB42464B46CDE90001344800F014FDAA
:101720002046FFF795FE014630680BF06BFF3060F6
:101730002046FEF7FDFFB1690CF00AFA002833D10C
:101740002046FFF729F8F1690CF020FA002899D01B
:101750002046FFF721F801353F2DF06104F1B80470
:1017600095D170680CF002F8014630680CF006F96B
:101770007169306004460CF009FA00B17461316996
:1017800020460CF0E5F900B134610B2008F080F838
:1017900042F67C53F35C60B99BB142F67C53012264
:1017A000F25403B0BDE8F0832046FEF7C1FFB061FC
:1017B000C6E753B942F67C530022F25403B0BDE8A9
:1017C000F0830B4800F0EEFCE7E70A4800F0D4FC99
:1017D00042F67C530022F254F0E700BFE8260100F5
:1017E000341F0100701F0100841F0100B01F0100A1
:1017F000CC1F01000420010070B5114B836000F57F
:1018000035550646303500F1E00402E0B834AC420C
:1018100013D02046FFF752FE0028F7D02046FEF7EF
:1018200013FFB1680CF094F90028EFD02046FEF7C2
:101830000BFFB834AC42B060EBD1B06870BD00BFF4
:101840000000A04070B5002300F535550646C36082
:10185000303500F1E00402E0B834AC4213D0204649
:10186000FFF72CFE0028F7D02046FEF709FFF168AD
:101870000CF08CF90028EFD02046FEF701FFB834B9
:10188000AC42F060EBD1F06870BD00BF00687047FB
:10189000416070472DE9F84342F6885642F68C5570
:1018A00042F6845E42F69054815140F80E20089E24
:1018B000435100F535550651894690461F4630354F
:1018C00000F1E00402E0B834AC4214D02046FFF747
:1018D000F5FD0028F7D020464946FFF7F7FD2046E2
:1018E0004146FFF7FFFD204632463946B834FFF740
:1018F00011FEAC42EAD1BDE8F88300BF2DE9F04308
:1019000042F6745300F535550027C7502E463A4A23
:101910003A4B426283B080464FF000090362303593
:10192000343600F1E00402E0B834A54213D020467A
:10193000FFF7C4FD0028F7D0336801333360204639
:10194000FFF752FD2E490CF021F980BBB834A542B7
:1019500007F10107EBD142F6745358F80340E01B3E
:101960000BF004FF014648460CF008F8054642F625
:10197000785058F800309C4215D042F6905642F606
:101980008C5342F6845242F6885158F8066058F853
:10199000033058F8022058F8011048F8004000962B
:1019A0004046FFF777FF284603B0BDE8F0832046A6
:1019B000FFF71AFD014648460BF024FE81462046FB
:1019C000FEF7EAFED8F820100CF0E0F870B92046D7
:1019D000FEF7AEFED8F824100CF0BAF80028A3D019
:1019E0002046FEF7A5FEC8F824009DE72046FEF736
:1019F000D3FEC8F82000EAE700C0794400C079C4EB
:101A000000008CC2006A7047406A7047F8B500F564
:101A1000355507460026303500F1E00402E0B834C1
:101A2000AC420FD02046FFF749FD0028F7D02046F2
:101A3000FEF748FE014630460BF0E4FDB834AC42F8
:101A40000646EFD142F67453F8580BF08FFE01466C
:101A500030460BF093FFF8BD2DE9F04F91B00646EC
:101A600094480F91934600F017FB924800F014FB46
:101A7000904800F011FB42F67453304656F803804C
:101A8000FFF79EFD07463068D6F804900BF018FA71
:101A900002460B463046CDE90C23FFF7B7FF8246DE
:101AA0003046B468F568FFF729FF0BF009FACDE975
:101AB0000A01214628460BF0A3FD7F490BF0AAFE40
:101AC0000BF0FEF9CDE9080128460BF0F9F9CDE954
:101AD000060120460BF0F4F9CDE9040150460BF065
:101AE000EFF9DDE90C23CDE90201CDE90023414600
:101AF0004B463A46714800F0CFFA6E4800F0CCFAF7
:101B00000023E03601270C9305E001373F2F06F153
:101B1000B80600F0BF803046FFF7D0FC0028F4D0B4
:101B20003046FEF77BFD3046FEF77CFD3046FEF783
:101B30007DFD3046FEF77EFD3046FFF7BBFC0821F9
:101B400082465F4809F028FC39465E4807F0CAF82B
:101B5000092F40F3AA8002215B4809F01DFC3046A2
:101B6000FFF776FC0BF0ACF99DF83C80CDF80080D7
:101B70000B460246534807F0BFF80121534809F0CD
:101B80000BFC3B460C9C474600254FF0010998464C
:101B90002EE006214E4809F0FFFB2146494807F098
:101BA000A1F802214B4809F0F7FB29463046FEF721
:101BB00045FD0BF085F900970B460246414807F0BA
:101BC0009BF8012141480C4409F0E6FB09FA05F3B2
:101BD000BBF1000F09D013EA0A0F4FF002013E4893
:101BE00004BF3E48022109F0D7FB0135082D06D07D
:101BF000092CCEDC01213A4809F0CEFBC9E7314877
:101C000007F020F80921374809F0C6FB00213046CB
:101C1000FFF742FC0BF054F9022402460B460094F5
:101C2000284807F069F80A212F4809F0B5FB01217F
:101C30003046FFF731FC0BF043F9009402460B46A7
:101C4000204807F059F80A21284809F0A5FB214649
:101C50003046FFF721FC0BF033F90B460C9900944A
:101C60000246083117480C91474607F045F8BBF18A
:101C7000000F12D00D211E4809F08EFB01372246BD
:101C8000514600230F4806F0EDFF3F2F06F1B8063E
:101C90007FF441AF11B0BDE8F08F0121154809F084
:101CA0007BFB084806F0CEFF2FE701210C4809F026
:101CB00073FB50E7E826010000007A44B4220100DB
:101CC00054230100C887FF1F38330100602301003F
:101CD00064230100682501006C23010070230100CA
:101CE0007825010074230100802301008C2301006A
:101CF00098230100A82301002DE9F04F85B000F1E1
:101D0000E0058A4603929B462E464FF0010806E006
:101D100008F10108B8F13F0F06F1B8067BD0304654
:101D2000FFF7CCFB0028F3D000230A2251467D4860
:101D300006F098FF01217C4809F02EFB03980BF078
:101D4000BFF800230246009376480B4606F0D4FF06
:101D50000121754809F020FB5946724806F0C2FF80
:101D60000121714809F018FB41466E4806F0BAFFA0
:101D700001216D4809F010FB00244FF002092146B3
:101D80003046FEF75BFC0BF09BF8CDF80090024666
:101D90000B46644806F0B0FF01340121624809F0A7
:101DA000FBFA082C4FF00207E9D100213046FFF77B
:101DB00073FB0BF085F8009702460B46594806F076
:101DC0009BFF0121584809F0E7FA01213046FFF74F
:101DD00063FB0BF075F8009702460B46514806F07E
:101DE0008BFF0121504809F0D7FA39463046FFF7FA
:101DF00053FB0BF065F8009702460B46494806F086
:101E00007BFF08F10108474806F01CFFB8F13F0FBF
:101E100006F1B80683D101274FF0000904E001372D
:101E20003F2F05F1B80579D02846FFF747FB00287A
:101E3000F5D000230A2251463C4806F013FF012149
:101E4000394808F03BF803980BF03AF8CDF80090C9
:101E500002460B46354806F04FFF0121324808F094
:101E60002DF85946314806F03DFF01212E4808F073
:101E700025F839462D4806F035FF01212A4808F09B
:101E80001DF800244FF0020821462846FEF7D6FB35
:101E90000BF016F8CDF8008002460B46234806F0FA
:101EA0002BFF01340121204808F008F8082C4FF0DE
:101EB0000206E9D100212846FFF7EEFA0BF000F800
:101EC000009602460B46194806F016FF01211648F7
:101ED00007F0F4FF01212846FFF7DEFA0AF0F0FFD1
:101EE000009602460B46114806F006FF01210E48F7
:101EF00007F0E4FF31462846FFF7CEFA0AF0E0FF8C
:101F0000009602460B46094806F0F6FE01370748E0
:101F100006F098FE3F2F05F1B80585D105B0BDE864
:101F2000F08F00BFC887FF1FAC230100AC87FF1FE5
:101F3000014B1870704700BF2087FF1F024B1878B5
:101F4000B0FA80F0400970472087FF1F0278002A0E
:101F500000F0908070B5034682B00D46252A2AD144
:101F600058785C1C08B325282FD0732831D06428FA
:101F700024D0692822D066284FD07A2859D07828D2
:101F800035D058282FD062283ED0422838D06C282F
:101F900014D0632812D0742857D054285FD009F089
:101FA0007FFA6278631C002AD8D1344802B0BDE8B9
:101FB000704006F047BE18781C46F0E72B1D2968D4
:101FC0002E481D4606F08EFEEBE7104609F068FA33
:101FD000E7E72E6830460CF033FC01463046043506
:101FE00009F0DAF9DDE70221254809F0D5F92E1DBF
:101FF0002968224800231022354606F033FED0E738
:102000000221204809F0C8F92E1D29681B48002329
:102010000222354606F026FEC3E7073525F0070500
:102020000321D5E9002315480091083506F064FE28
:10203000B7E7073525F007050021D5E900230F484C
:102040000091083506F058FEABE7296801290EBF5C
:102050000D480E480121043509F09EF9A1E72B68CF
:10206000012B07BF04210A480A480521043509F05D
:1020700093F996E7014806F0E5BD00BFC887FF1F4A
:10208000B0230100B4230100B8230100BC230100E8
:10209000C0230100C82301000FB400B583B004A918
:1020A00051F8040B0191FFF751FF03B05DF804EB09
:1020B00004B0704770B51B4B1B4C1B6882B00D46BB
:1020C0000193019B236019460446002316461748D6
:1020D0000A2206F0C7FD0321154809F05DF9032C1B
:1020E00007D8DFE804F01A1510020521114809F09D
:1020F00053F90221104809F04FF931462846FFF7FD
:1021000025FF02B070BD07210C4809F045F9F0E742
:1021100004210B4809F040F9EBE70521094809F0D3
:102120003BF9E6E77CC6FF1F4492FF1FC887FF1FED
:10213000D0230100EC23010068250100E423010005
:10214000DC230100D42301000FB400B5094B18783B
:1021500083B020B103B05DF804EB04B0704705AB69
:102160001A4604990193FFF7A5FF03B05DF804EB4D
:1021700004B070472087FF1F0FB4094B00B51B78D0
:10218000012B83B004D903B05DF804EB04B07047B1
:1021900005AB1A46049901930120FFF78BFFF2E784
:1021A0002087FF1F0FB40B4B00B51B78032B83B0A8
:1021B00004D903B05DF804EB04B0704705AB1A46D0
:1021C000049901930320FFF775FF03B05DF804EB5A
:1021D00004B070472087FF1F0A4A0B49906D536D6A
:1021E00003FB00F34FF47A7000FB03F0642310B597
:1021F0000B600BF0BBFA0549054C0BF0BFFB2060F0
:1022000010BD00BF4C93FF1F3887FF1FE4388E3E80
:102210009C92FF1F38B5044608460D460CF010FB93
:102220002368024629465B682046984705462046B3
:1022300006F008FD284438BD2DE9F0414448454FDB
:10224000454D464E464CFFF727FF464B4649474A09
:102250005960DF6013210027454819701A6145490C
:10226000454A5D615E62454D9C614FF07C56444C31
:102270001F63444F9862D96243485A630C21434A12
:102280009D635E6440F61C450A269C641F6241F211
:1022900004043F4FD864196502200121C3F8C0200F
:1022A0009D6600226425DE661C674FF49676322414
:1022B000DF61DF635A27587058721972596583F8C5
:1022C00040209D655E66DE651C664FF47A785F6728
:1022D000DFF8C4C09A67D867C3F88010C3F88420B9
:1022E000C3F89C40C3F8A840DFF8B0E0C3F8A420CE
:1022F000C3F8B010C3F8B40044F62067C3F8B85070
:10230000FF2683F8C410052541F2883183F8D020D8
:10231000204CC3F8A08040F2D6626FF03300C3F8BF
:102320008CC0C3F890E0C3F89470C3F8AC60A3F815
:10233000BE50C3F8C840C3F8CC00C3F89810A3F847
:10234000BC10A3F88820A3F88A20BDE8F08100BF64
:10235000F42301006666864033338340CDCCCC3D08
:10236000CDCC4C404C93FF1F20A107000000404003
:1023700000008242000020C1000020420000A04076
:102380009A997940333373400AD7233D9A99993EFD
:10239000CDCC4C3E6C09793B0000114400F0C8459F
:1023A000F0B54FF47A6085B007F0A8FA00210F204D
:1023B00007F07CFA00210E2007F078FA00211120A6
:1023C00007F074FA0021102007F070FA00211220A3
:1023D00007F06CFA0021132007F068FA01210B20A6
:1023E00007F064FA01210C2007F060FA01211420A3
:1023F00007F05CFA0121152007F058FA0121162098
:1024000007F054FA0121172007F050FA01210520A6
:1024100007F04CFA904C914D0121062007F046FA46
:1024200001210D2007F042FA20880BF09BF90146AC
:10243000162007F0A5F920880BF094F90146172023
:1024400007F09EF920880BF08DF90146052007F072
:1024500097F920880BF086F900240146062007F042
:102460008FF9009423467E4A7E497F4805F018FA8A
:10247000E6B2324679497C4805F0C0F92B797749B4
:1024800079486FF30003013432462B7105F0ACF943
:10249000082CEDD10924E6B232467049724805F0A5
:1024A000ADF92B796D49704843F001030134324690
:1024B0002B7105F099F90D2CEDD16C4C4FF0FF32DA
:1024C0002068102105F0B8FD20684FF0FF32102180
:1024D00005F08AFD20684FF0FF32022105F098FDDB
:1024E00020684FF0FF32022105F09CFD00220F21F1
:1024F000206805F0ABFD0C215D4808F04DFF5D48FC
:1025000006F0A0FB14215C4808F046FF594806F08D
:1025100099FB40F2836007F0AFFA564806F092FB51
:102520001721564808F038FF524806F08BFB544BF1
:102530001B789A0600F1C080514B1B781B0700F1F5
:10254000C7804F4B1B785F0700F1CE804C4B1B7848
:102550009E0700F1D5804B4B1B781D0600F1DC80F7
:10256000484B1B785C0600F1E380464B1B789806CD
:1025700000F1EA80434B1B78590700F1F180414B91
:102580001B781A0700F1F8803E4B1B789B0700F17F
:10259000FF80384806F056FB72B63B4A4CF2205397
:1025A0004DF628112024138023461180013BFDD1D4
:1025B000364D3748374900234FF480562E8003802C
:1025C0000B8032F80E3C9BB243F0D30322F80E3C52
:1025D00062B69D2007F04EFE21462F482F4D08F091
:1025E000DBFE244806F02EFB05F1D4062F462C46D0
:1025F000601B06F095FD04F8010BB442F8D13B785E
:10260000132B01D0FFF718FE0420FFF791FC244B99
:10261000244D002401210D201C6007F033F9796D51
:102620002148FFF735F9D7F8CC00D7F8C8307A6CD5
:1026300097F8401000901C48FFF72CF91B4B1C49E1
:102640001A68039203981B680293029A194B2C7024
:1026500008601A6005B0F0BD2887FF1F9494FF1F23
:1026600054C6FF1F20A10700B8C4FF1FEC94FF1F32
:1026700014240100C887FF1F242401003C2401000A
:1026800001F0074000F007400E20054004200540FF
:102690000620054016200540402501004C93FF1FF1
:1026A0005C92FF1FD894FF1F1897FF1F7CC6FF1F67
:1026B0002095FF1F9C94FF1F2121394808F06CFED4
:1026C000384806F0BFFA384B1B781B077FF539AF47
:1026D0000C21364808F060FE324806F0B3FA324B5F
:1026E0001B785F077FF532AF0E21314808F054FEAA
:1026F0002C4806F0A7FA2C4B1B789E077FF52BAFD2
:1027000017212C4808F048FE264806F09BFA2A4B71
:102710001B781D067FF524AF0E21284808F03CFEEB
:10272000204806F08FFA244B1B785C067FF51DAF1E
:102730001221234808F030FE1A4806F083FA1E4B97
:102740001B7898067FF516AF13211E4808F024FE6B
:10275000144806F077FA184B1B7859077FF50FAF2E
:102760001C21194808F018FE0E4806F06BFA124BAF
:102770001B781A077FF508AF1921144808F00CFEE2
:10278000084806F05FFA0C4B1B789B077FF501AFFA
:1027900018210F4808F000FE024806F053FAF8E648
:1027A00054240100C887FF1F01F00740782401006E
:1027B000882401009824010000F00740B0240100A3
:1027C000C0240100D4240100E824010008250100F0
:1027D0002425010070B5424C424D4348E668002371
:1027E0002B70FFF72FF8014630460BF0B1F908B116
:1027F00004232B703C48FEF7FFFF21690BF0A8F97A
:1028000018B12B7843F010032B703748FFF7FAF814
:10281000A16A0BF0BBF918B12B7843F040032B7081
:10282000002631486E70FFF7EFF82F48EE70FFF783
:1028300009F805462C482B4EFEF7DEFF01462846D8
:102840000AF0DEFEE16B0BF0A1F908B10123F37091
:10285000264D254800232B70FEF7F4FF616A0646DB
:10286000E0680AF0CDFE014630460BF08FF908B162
:1028700004232B701C48FEF7BFFF616A06462069DF
:102880000AF0C0FE014630460BF062F918B12B7811
:1028900043F010032B701448FFF7B4F8A16B064601
:1028A000A06A0AF0ADFE014630460BF06FF918B190
:1028B0002B7843F040032B7000230B486B70FFF71D
:1028C000A3F8A16B0546E06A084C0AF09BFE01469E
:1028D00028460BF03DF908B10123637070BD00BFBD
:1028E0004C93FF1F4893FF1F1897FF1FDC94FF1F97
:1028F0002DE9F0417C4C2368012B82B031D0022BB2
:1029000000F0A880032B00F0C8803BBB774B784ACF
:10291000D3F8A810D3F8AC3012685B1A632B0EDD25
:10292000744803FB02F380FB0302DB17C3EB621363
:102930001944062002B0BDE8F04106F023BE6E48FF
:1029400003FB022380FB0302DB17C3EB22121144BB
:10295000062002B0BDE8F04106F014BE02B0BDE8AA
:10296000F081664E33680A33B3F57A7F00F3B7809F
:10297000184633600AF0FAFE61490AF04BFF8046C0
:102980005A4DD5F8A8000AF0F1FE0746D5F8AC007C
:102990000AF0ECFE39460AF033FE41460AF03AFFEF
:1029A00058490AF0EBFF39460AF02CFE0BF00EF9FD
:1029B0000146062006F0E6FD0221534808F0ECFC33
:1029C000524806F03FF90621514808F0E5FC30680E
:1029D0000AF0CCFE4A490AF01DFF0AF071FA0227FC
:1029E00002460B460097494806F086F90D214948F2
:1029F00008F0D2FCD5F8A8000AF0B8FE804630688E
:102A00000AF0B4FE3E490AF005FF0646D5F8AC00D0
:102A10000AF0ACFE41460AF0F3FD014630460AF0EA
:102A2000F9FE38490AF0AAFF41460AF0EBFD0AF028
:102A300047FA00970B460246344806F05DF93946DE
:102A4000314808F0A9FC314806F0FCF82368022B55
:102A50007FF458AF294B254E00221A60D6F8A80003
:102A60000AF084FE0546D6F8AC000AF07FFE29463F
:102A70000AF0C6FD00210AF0CDFE22490AF07EFFD1
:102A800029460AF0BFFD0BF0A1F80146062006F02A
:102A900079FD2368032B7FF438AF184B134E4FF4A6
:102AA0007A721A60D6F8A8000AF060FE0546D6F8D9
:102AB000AC000AF05BFE29460AF0A2FD11490AF0BB
:102AC000A9FE10490AF05AFF29460AF09BFD0BF0B7
:102AD0007DF80146062006F055FD236815E7002322
:102AE0004FF0000833604BE7C894FF1F4C93FF1F63
:102AF0003887FF1F1F85EB51CBF08D286092FF1F99
:102B0000CDCCCC3D0000C84238330100C887FF1F40
:102B1000642501006C25010070B5B548B54C06F080
:102B200091F8B34806F08EF8B14806F08BF80D2105
:102B3000B14808F031FCD4F8A430012B11D0AF4CCF
:102B4000AB48217800230A2206F08CF82378052B65
:102B500067D8DFE813F006010B01100115011A0117
:102B600001010921A64808F017FCA648FEF744FE1B
:102B700021690AF0EDFF18B10F21A34808F00CFC01
:102B8000A048FEF75FFEE1680BF000F818B10E21D7
:102B90009E4808F001FC9B48FEF754FE0546994804
:102BA000FEF72AFE014628460AF02AFDE16B0AF0EC
:102BB000EDFF18B11121964808F0EEFB9148FEF7A1
:102BC00021FFA16A0AF0E2FF18B10C21914808F038
:102BD000E3FB8C48FEF718FFE16A0AF0B9FF18B171
:102BE0000D218D4808F0D8FB8C4B86481B68012BC3
:102BF00000F0E880FEF700FE21697E4D0AF0C6FF76
:102C000078B18048FEF71EFEE9680AF0A1FF40B1E6
:102C10007A4B1B78052B00F0E6800821804808F0ED
:102C2000BBFB02217F4808F0B7FB122006F030FE04
:102C3000012800F0AF80112006F02AFE012800F0E4
:102C4000B380794B1B68012B00F0B78002217548D7
:102C5000764C08F0A1FB764B6548196806F042F8FF
:102C6000634805F0EFFF0421724808F095FB0B2044
:102C700006F00EFE002301460A225D4805F0F2FF31
:102C80000C2006F005FE002301460A22584805F0F4
:102C9000E9FF142006F0FCFD002301460A225448F7
:102CA00005F0E0FF152006F0F3FD0A22002301469F
:102CB0004F4805F0D7FF06215F4808F06DFB2368F9
:102CC000DD074FF001014CBF5C485D4808F064FB34
:102CD000236898074FF001014CBF5848584808F046
:102CE0005BFB23685A074FF001014CBF534854481F
:102CF00008F052FB23681B074CBF50485048012185
:102D000008F04AFB04214F4808F046FB112006F06A
:102D1000BFFD002301460A22354805F0A3FF10201D
:102D200006F0B6FD002301460A22314805F09AFF5D
:102D3000122006F0ADFD002301460A222C4805F0C2
:102D400091FF132006F0A4FD002301460A22284823
:102D5000BDE8704005F086BF07213B4808F01CFB2A
:102D60005FE70621394808F017FB5AE70721384882
:102D700008F012FB55E70721364808F00DFB50E735
:102D80000821354808F008FB4BE70B21334808F0D1
:102D900003FB46E70E21324808F0FEFA112006F048
:102DA00077FD01287FF44DAF0A212E4808F0F4FA90
:102DB0001D4B1B68012B7FF449AF11212A4808F0F5
:102DC000EBFA43E7FEF718FD216A0AF0DFFE002860
:102DD0003FF423AF1621254808F0DEFA0A212448E3
:102DE00008F0DAFA1DE70A21214808F0D5FA18E7B9
:102DF000C887FF1F4C93FF1F7C250100D894FF1F3D
:102E00008C2501001897FF1F98250100A8250100B7
:102E1000B8250100CC250100DC2501007892FF1FB8
:102E20001026010038330100F494FF1F2094FF1F87
:102E3000CC94FF1F842601008C26010094260100FB
:102E4000F0340100982601004C2601001C260100E8
:102E50002426010038260100402601002C2601000E
:102E6000542601006426010070260100EC250100B3
:102E7000042601002DE9F04F9E4DEB6F012B8DB024
:102E800000F00082032BDFF8B8A200F0AD809A4E6C
:102E90009A4FAB6F9A48012B09BF3968396801F125
:102EA0000041396005F0C4FC3368002B40F0D0814C
:102EB0009348DFF88C8205F091FC3368CAF8000073
:102EC0000446002B40F08C81EB6F8A4A012B00F006
:102ED0009B818C4920460AF059FE002877D0DFF804
:102EE00044B2DFF84482DBF800300A930A98D8F83D
:102EF0000030DFF85092C01A0AF034FC21460AF084
:102F000089FC81490AF03AFD7F490AF037FDD9F87A
:102F100000100AF077FBDBF800300993099BC9F831
:102F20000000C8F80030D5F8B000DFF81C82DFF8E8
:102F30001C92764D0AF01AFC21460AF06BFCD8F878
:102F400000400022834659F8241028683A60CAF8E5
:102F500000B00AF055FB366849F824B02860002E0E
:102F600040F0F880014658460AF04CFB28600134D6
:102F7000642CC6BF0023C8F80030C8F8004064497C
:102F80000AF0FCFC634B1860F6B109F099FF0224CB
:102F900002460B460094604805F0AEFE03215F48F0
:102FA00008F0FAF9286809F08BFF009402460B46F6
:102FB000594805F0A1FE0321584808F0EDF9D8F86A
:102FC0000010554805F08EFE0DB0BDE8F08F544955
:102FD00020460AF0BDFD002881D1524A524B1268AA
:102FE0000B920B9A1A609EE7504C514E20680123B9
:102FF00000220F21336005F029F833683E4E012B83
:10300000336800F06581002B40F0008200212068C9
:10301000DFF83C81454F05F06BF833681FFA80FB01
:10302000C8F800B0002B40F0098200212068334F1F
:10303000DFF8F89004F0E2FFB5F88A3040F6E4419A
:1030400001FB0BF1B1FBF0F0C01A00B20AF08EFBED
:1030500038498346D5F88C000AF0DCFB0146584617
:103060000AF08CFCD8F800303860632BDFF8E0B051
:1030700000F3D88100233B603368002B3FF409AF95
:1030800002212D4808F088F9D8F80020206840F681
:10309000E443002103FB02F404F0B0FFB4FBF0F0C2
:1030A0000AF060FB0446B5F88A000AF05FFB0146AF
:1030B00020460AF0A5FA09F003FF022402460B4657
:1030C0000094154805F018FE21461B4808F064F9E5
:1030D000386809F0F5FE009402460B460E4805F0EC
:1030E0000BFE2146154808F057F92146124808F012
:1030F00053F9CEE64C93FF1F1895FF1F7092FF1FE8
:103100002493FF1F0000FA4300007A447492FF1FCB
:103110000000CA42B494FF1FC887FF1FE0260100C9
:103120000000FAC37CC6FF1FE894FF1FEC94FF1F4A
:103130005487FF1FACC5273738330100DC26010058
:103140009092FF1F9C92FF1F8894FF1F8895FF1F7E
:103150004493FF1F0321C74808F01EF9286809F0AF
:10316000AFFE022702460B460097C34805F0C4FD98
:103170000321C04808F010F9D8F8003059F82300AE
:1031800009F09EFE009702460B46BB4805F0B4FDD1
:103190000321B84808F000F9D8F80040B74B286878
:1031A00059F824101E680AF02DFA2860002E3FF40A
:1031B000DEAE0321AF4808F0EFF8286809F080FE82
:1031C00000970B460246AC4805F096FD0321A9483E
:1031D00008F0E2F8A94BD8F800401E682868C6E657
:1031E00009F06EFE022402460B460094A24805F048
:1031F00083FD0421A24808F0CFF8EB6FD8F8004017
:10320000A04A012B7FF465AE9F4B1B68012B00F099
:103210005981022B7FF487AED2F8948040460AF0A1
:10322000A5FA21460AF094FC002840F0CA80C8F1B3
:1032300000000AF09BFA21460AF0A8FC002840F0A2
:10324000C080924A924B12680892089A1A606AE605
:10325000904805F0C3FA09F033FE022402460B46FB
:103260000094854805F048FD0321824808F094F851
:10327000D5F89410804805F035FD03217D4808F00D
:103280008BF815E6DFF830A2D5F89460DAF8004044
:1032900030460AF06BFA21460AF078FC48B17042D9
:1032A0000AF064FA014620460AF070FC00287FF418
:1032B0009BAE794C744E2068022300220E213360AD
:1032C00004F0C4FE33686D4E012B33687FF49BAE6F
:1032D000002B40F02D8100212068DFF8E0816E4F47
:1032E00004F006FF33681FFA80FBC8F800B0002B1B
:1032F00040F02F8100212068684F04F07FFEB5F870
:10330000883040F6E44909FB0BFBBBFBF0F0C01A28
:1033100000B20AF02BFA62498346D5F890000AF011
:1033200079FA014658460AF029FBD8F8003038608F
:103330000021206809FB03F904F060FEB5F888302D
:10334000B9FBF0F00FFA80F9C3EB0903002BB5F8D5
:10335000BE20B8BF5B429342BCBF00233B603368D2
:10336000002B3FF496AD02214E4808F015F8D8F82E
:103370000020206840F6E443002103FB02F404F03F
:103380003DFEB5F88810B4FBF0F000B2411A3A489F
:1033900005F0A8FC0221434807F0FEFF386809F059
:1033A0008FFD022402460B460094334805F0A4FC2E
:1033B00003213D4807F0F0FF21463A4807F0ECFFB3
:1033C00067E5DFF8C8B0DFF8C880DBF800300793A6
:1033D0000798D8F80030DFF8E890C01A0AF0C2F970
:1033E00021460AF017FA31490AF0C8FA2F490AF0C3
:1033F000C5FAD9F800100AF005F9DBF80030069399
:10340000069BC9F80000C8F800308CE51A4805F0A2
:1034100019FC0C21264807F0BFFF0C21254807F0B6
:10342000BBFFF3E5D9F80000002104F0E7FDDBF86D
:10343000003064389842FFF41DAE1DE60021386864
:1034400004F0DCFD40F6E44100230A2201FB0BF10D
:10345000B1FBF0F1084805F005FC0221114807F026
:103460009BFFB5F88A10044805F03CFCD8F800B082
:10347000DBE500BFE0260100C887FF1F1895FF1F8E
:10348000E42601004C93FF1F5487FF1F7CC6FF1FDB
:10349000E894FF1F2493FF1FEC94FF1F7092FF1FFF
:1034A000ACC5273738330100C826010000007A4434
:1034B000CC260100B82601009092FF1F4493FF1F05
:1034C0009C92FF1F304920460AF060FB58B92F49F3
:1034D00020460AF03DFB30B92D4A2E4B126805926A
:1034E000059A1A601FE5DFF8A8B0DFF8A880DBF8BE
:1034F000003004930498D8F80030DFF8B490C01A74
:103500000AF030F921460AF085F923490AF036FA23
:1035100021490AF033FAD9F800100AF073F8DBF801
:1035200000300393039BC9F80000C8F80030FAE4A8
:103530001A4805F087FBEB6F012B4FF00B010CBF16
:103540001748184807F028FF0C21174807F024FFF8
:10355000C1E60021386804F051FD40F6E441002343
:103560000A2201FB0BF1B1FBF0F10C4805F07AFBEC
:1035700001210E4807F010FFB5F88810074805F044
:10358000B1FBD8F800B0B5E60000FA430000FAC37A
:103590007CC6FF1FE894FF1F00007A44C887FF1F06
:1035A000A0260100AC260100B82601007825010004
:1035B0009C92FF1F2DE9F047A74D2B6884B043B9BB
:1035C000A64B1B680393039A42F210739A4200F2CF
:1035D0008780A34CDFF89082E36FA24EA04D012BB1
:1035E00000F0C280D4F884309D4F012B00F0EE80B3
:1035F000D6F80090D7F858A07D6D9B4F05FB0AF5D3
:103600004FF47A7000FB05F00AF0B0F897490546D0
:1036100048460AF0FFF829460AF0B0F994490AF042
:10362000F9F80AF0D3FA6328C8F8000047DD284605
:103630008E490AF0A3F9642330603B608D4B1B6810
:10364000002B39D0E36F864D012B3DD0032B00F0CA
:10365000F080022B00F0E8800221874807F09CFEF2
:10366000864B186809F02CFC022402460B46009495
:10367000834805F041FB2146824807F08DFE214634
:103680007D4807F089FED8F800107D4805F02AFB38
:1036900006217D4807F080FE306874490AF0BAF8C8
:1036A00009F00EFC009402460B46754805F024FB19
:1036B0000321764807F070FE04B0BDE8F0870028CB
:1036C000BCBF00233B60B9E7714B1B68012B4FF077
:1036D0000A010CBF6F48704807F05EFEEB6FB5E75C
:1036E0006E485F4CFEF792F96D49A76EE66E0AF0E0
:1036F00091F80AF091FA226F636FD21B9B1B80B284
:103700009A42A0EB070040F39A8003FB0000531C91
:1037100090FBF3F39819A26DDFF84C81636DC8F844
:10372000000002FB00F003FB00F000EB8000400013
:103730000AF01CF84D494B4E0AF020F901230221F2
:1037400030604D482B6007F027FE4D48444D05F092
:1037500079FA5921534807F01FFE494805F072FADB
:10376000E36F012B7FF43EAF4C48FEF74FF94C4915
:10377000D5F86890EF6E0AF04DF80AF04DFA2A6F0E
:103780006B6FC9EB0202DB1B80B29A42C9EB0000EF
:103790005BDD03FB0000531C90FBF3F31F44A06DA3
:1037A000636DC8F8007000FB07F003FB00F000EB4E
:1037B0008000400009F0DAFF2C49294F0AF0DEF8BA
:1037C000D4F884303060012B7FF412AF3348FEF719
:1037D0001DF93349D7F86890FD6E0AF01BF80AF01E
:1037E0001BFA3A6F7B6FD4F858A0C9EB02025B1B3F
:1037F00080B29A42C9EB0000C6BF03FB0000013251
:10380000584390FBF2F02844656D00FB0AF005FB7D
:1038100000F000EB8000400009F0A8FF13490AF017
:10382000ADF881463060E8E607211F4807F0B4FD97
:1038300012E710211D4807F0AFFDE36F09E703FB16
:1038400000F393FBF2F3981965E703FB00F393FB96
:10385000F2F31F44A3E700BF6C92FF1F7CC6FF1F5B
:103860004C93FF1F9C92FF1F3887FF1FE4388E3E4A
:103870000000C8424087FF1F383301009092FF1FAD
:10388000C887FF1FDC2601007C2701008427010078
:103890005487FF1F48270100542701001897FF1F76
:1038A00000007A44EC260100742701006027010023
:1038B00030B5112083B005F0EBFF012818D012209D
:1038C00005F0E6FF012813D000210B2005F0DAFFF8
:1038D00000210C2005F0D6FF0021152005F0D2FFB5
:1038E0002649274B0120002208701A6003B030BD22
:1038F0000121152005F0C6FF224A234C234B1268F4
:10390000D4F8981001921B68019A1D4D0B44934204
:103910004FF00201296005D901210C2005F0B2FF0A
:1039200003B030BDD4F8A00009F020FF184B19688F
:103930000AF00EF90028EFD101210B2005F0A2FFBB
:1039400094F8C43003242C6043B10C4B02221A704B
:1039500000210C2005F096FF03B030BD122005F0C9
:1039600097FF012808BF054B4FF0110008BF1C70DE
:1039700005F08EFF0128EBD1E7E700BFD894FF1FC9
:103980001495FF1F7CC6FF1F4C93FF1F2095FF1F40
:103990009092FF1FF0B5684E684D34682B689C42CA
:1039A00087B039D014F0010155D014F0020149D08C
:1039B00014F004013DD0E3070ED52B68DF070BD4CC
:1039C0005F4F3A68002A00F082805E4B1B680193CB
:1039D000019B93426DD83468A0070DD52B689907D9
:1039E0000AD4594F3A68002A4CD0564B1B680393AF
:1039F000039B934238D8346862070DD52B685B0768
:103A00000BD4524F3A68002A7ED04E4B1B68059368
:103A1000059B934268D834680CB107B0F0BD2146CD
:103A2000162005F0AFFD2146172005F0ABFD07B0CD
:103A3000F0BD052005F0A6FD2B68346803F0FB03FC
:103A40002B60B8E7172005F09DFD2B68346803F064
:103A5000FD032B60ACE7162005F094FD2B6834685D
:103A600003F0FE032B60A0E7394B1720D3F89C101E
:103A700005F088FD2B68346843F0020300222B60B8
:103A80003A60B9E7334805F0DDF80C21324807F019
:103A900083FC304805F0D6F8FF21172005F072FDB1
:103AA000284B2E4A19680291029912680A443A601A
:103AB0009CE7274B1620D3F89C1005F063FD2B687C
:103AC000346843F0010300222B603A6084E7FF2151
:103AD000162005F057FD1B4B204A196800910099EC
:103AE00012680A443A6071E7194B0520D3F89C101C
:103AF00005F048FD2B68346843F0040300222B6076
:103B00003A60002C89D18AE7124805F09BF80C2115
:103B1000134807F041FC0F4805F094F8FF210520F9
:103B200005F030FD074B0D4A19680491049912689D
:103B30000A443A606AE700BF1495FF1F2094FF1FF4
:103B4000A894FF1F7CC6FF1FAC94FF1FB094FF1FFB
:103B50004C93FF1FC887FF1F882701006887FF1F3E
:103B6000982701002DE9F047544EDFF87481DFF803
:103B700074913068524D00220F2104F067FA00233F
:103B8000012222214F48C8F80030C9F8002007F070
:103B900003FCD8F80030132B22DC40F6E447002168
:103BA0003068B5F888A004F0A3FA00210446306814
:103BB00004F024FAA4B2012107FB04F4B4FBF0F4EE
:103BC00041485444A5F8884007F0E6FB642005F01E
:103BD00095FED8F800300133132BC8F80030DEDD35
:103BE000B5F88830394A3A48A2FB03129B1A02EB17
:103BF0005303C3F30F131946A5F8883005F072F884
:103C00001D21344807F0C8FB0221334807F0C4FBEC
:103C10002F4805F017F800231A460E213068C8F81F
:103C2000003004F013FA022322212648C9F800309C
:103C300007F0B2FBD8F80030132B22DC40F6E44743
:103C400000213068B5F88A9004F052FA0021044649
:103C5000306804F0D3F9A4B2012107FB04F4B4FBEB
:103C6000F0F419484C44A5F88A4007F095FB64200D
:103C700005F044FED8F800300133132BC8F80030AB
:103C8000DEDDB5F88A30114A1148A2FB03129B1AF7
:103C900002EB5303C3F30F131946A5F88A3005F05E
:103CA00021F81D210D4807F077FB02210A4807F093
:103CB00073FB0748BDE8F04704F0C4BFEC94FF1F56
:103CC0004C93FF1FA8270100EC270100876118868D
:103CD000C887FF1FCC27010038330100F0270100FF
:103CE000D094FF1F5487FF1FA64B2DE9F0411B689E
:103CF000A54CA64D40F2513108222160E271286D99
:103D0000002B40F0EE8009F031FD6969064609F0AC
:103D100081FD9F499D4F09F07DFD09F07DFF80B237
:103D2000031263729B4A9C4B12681B68A969A372B9
:103D300015121B12E372227320726573304609F06C
:103D400069FD9349904D09F065FD09F065FF83B267
:103D50001A1229469148A373E27303F099FF904B1E
:103D6000904A1B681288A272DEB206EB86012672A8
:103D700003EB8306490046F3D71640F2553E121274
:103D80004FF000081B1221736673294608268348EA
:103D9000C4F800E0E2726372E67184F80E8084F881
:103DA0000F8003F075FF40F256337F482360E671C1
:103DB000FDF76CFD7D4909F02DFD09F02DFF207206
:103DC0007948FDF763FD794909F024FD09F024FFE6
:103DD000774A7649C0F307236372106809F0CEFD75
:103DE00009F0F4FE40FA06F203466F48E272A3724D
:103DF000FDF784FD664909F00DFD09F0E7FE20732B
:103E00006948FDF77BFD624909F004FD09F0DEFE1B
:103E1000294640F307236148637384F80E8084F8D1
:103E20000F8003F035FF022005F068FD614A624B08
:103E300010785178207290786172D2781978A072D7
:103E4000987893F801E0E2722173DA78A07340F277
:103E50005A332946514884F80DE0E2732360E67135
:103E600003F016FF554B4D481A785978227261724B
:103E70009A78D978A272E1721A79597993F806E0A2
:103E800022736173DA7984F80EE040F25E332946DA
:103E9000E2732360E67103F0FBFE022005F02EFDC5
:103EA000474B3E481A785978227261729A78D978CD
:103EB000A272E1721A79597993F806E0227361735C
:103EC000DA79E6714FF45C732946236084F80EE0DA
:103ED000E27303F0DDFE3B4B1B68012B06D0BDE80F
:103EE000F08109F043FC296A064610E72E48FDF7E9
:103EF00083FCF96C09F086FB80462B48FDF7A2FC99
:103F00000146404609F024FE0028E8D040F2C333C1
:103F10002548EE712B60FDF76FFCBE6C314609F051
:103F200017FEC8B12849304609F074FC09F074FE48
:103F300080B2031268722B7200230126042503222B
:103F4000A672E57222736373A373E3730E49134879
:103F5000BDE8F04103F09CBE1348FDF74DFC1A4943
:103F600009F058FC09F058FEC0F307230E482B72E5
:103F7000FDF742FC144909F04DFC09F04DFE687252
:103F8000DAE700BF7892FF1F0495FF1F4C93FF1FD5
:103F900000002041E494FF1F5092FF1FB8C4FF1F90
:103FA0003887FF1F3C87FF1F1897FF1F0000C8427C
:103FB0009092FF1F4893FF1FDC94FF1F2C87FF1F69
:103FC0005887FF1FF494FF1F00007A44F0B59A4C05
:103FD0009A4D83B007F07AF923682860042B00F02B
:103FE000AA82092B7BD0022B4CD1A0F13102422AAC
:103FF0007ED8DFE812F0CF0A4A0B2B0B390BEF000B
:10400000DB0AEA0A1D0B7D007D007D007D007D003E
:104010007D007D007D007D007D007D007D007D00B8
:104020007D007D007D007D007D007D007D007D00A8
:104030007D007D007D007D007D007D007D007D0098
:104040007D007D007D007D007D007D007D007D0088
:104050007D007D007D007D007D0043007D007D00B2
:104060007D007D007D007D007D007D007D007D0068
:104070007D007D007D0079007D00690AFFF772FDFB
:1040800023682868082B40F0B680332801F0ED84BF
:1040900000F3F282312801F00285322828D107F09E
:1040A00051F9002841F3C7846548664E04F05EFF6D
:1040B00009F05CFB644909F0ADFBD6F8CC20D6F8DA
:1040C000C83096F840100092074602465F48776471
:1040D000FDF7E0FB01236920236028606FE33228AD
:1040E00000F06383712803D10023732023602860CC
:1040F000002B08BF73280CBF01200020002867D0C8
:104100004F4804F09FFD0421514807F045F94C4801
:1041100004F098FD10214F4807F03EF9484804F09C
:1041200091FD13214C4807F037F94C4B444819686E
:1041300004F0D8FD424804F085FD1421484807F0FA
:104140002BF93F4804F07EFD1E21464807F024F974
:104150003B4804F077FD1521434807F01DF9384826
:1041600004F070FD1E21414807F016F9344804F0B0
:1041700069FD20213E4807F00FF9314804F062FD47
:1041800019213C4807F008F92D4804F05BFD122185
:10419000394807F001F92A4804F054FD192137483D
:1041A00007F0FAF8264804F04DFD0F21344807F0D7
:1041B000F3F8234804F046FD0D21324807F0ECF8EF
:1041C0001F4804F03FFD304A0021012311602360A5
:1041D00003B0F0BD0123236007F0B4F8002807DD29
:1041E0001748184E04F0C2FE09F0C0FAC6F88C0059
:1041F000632023682860072B4AD1332801F06684A6
:1042000000F32682312801F01A8432287FF470AF3F
:1042100007F098F8002839DD09480A4E04F0A6FE98
:1042200009F0A4FA084909F0F5FA61230122F063C4
:1042300022602B601846C2E2A092FF1F8C92FF1FE3
:10424000C887FF1F4C93FF1F6F12833A1897FF1FF9
:1042500098310100A0310100B43101002487FF1F13
:10426000C8310100E03101000032010018320100C4
:10427000383201005C320100783201008C320100DA
:10428000A8320100B83201004087FF1F2368286868
:10429000062B40F08D80A0F13102402A3FF628AF76
:1042A00001A151F822F000BF375400006354000010
:1042B000A9530000CF530000F55300001354000031
:1042C0008F540000F1400000A3540000F1400000B2
:1042D000F1400000F1400000F1400000F14000001A
:1042E000F1400000F1400000F1400000F14000000A
:1042F000F1400000F1400000F1400000F1400000FA
:10430000F1400000F1400000F1400000F1400000E9
:10431000F1400000F1400000F1400000F1400000D9
:10432000F1400000F1400000F1400000F1400000C9
:10433000F1400000F1400000F1400000F1400000B9
:10434000F1400000F1400000F1400000F1400000A9
:10435000F1400000F1400000F1400000F140000099
:10436000F1400000F1400000F1400000F140000089
:10437000F1400000F1400000F1400000F140000079
:10438000F1400000F1400000F1400000F140000069
:10439000F1400000F1400000F1400000F140000059
:1043A000F1400000F1400000E94000002368286867
:1043B000052B15D1332801F0D18340F374813528C2
:1043C00001F0BE83C1F2A68371287FF491AEC14A89
:1043D0000023732013602360286089E6236828681F
:1043E000032B40F0A480A0F13002422A3FF680AEB9
:1043F00001A151F822F000BF05450000A3570000BD
:10440000CD5700000B5700002D5700004F570000FC
:1044100079570000BB580000DB580000C55600006B
:10442000F1400000F1400000F1400000F1400000C8
:10443000F1400000F1400000F1400000F1400000B8
:10444000F1400000F1400000F1400000F1400000A8
:10445000F1400000F1400000F1400000F140000098
:10446000F1400000F1400000F1400000F140000088
:10447000F1400000F1400000F1400000F140000078
:10448000F1400000F1400000F1400000F140000068
:10449000F1400000F1400000F1400000F140000058
:1044A000F1400000F1400000F1400000F140000048
:1044B000F1400000F1400000F1400000ED56000026
:1044C000C94E0000A75600007B5800009B58000012
:1044D0003B580000614E0000854E0000F140000096
:1044E000AB4E0000F1400000F1400000F140000040
:1044F000F1400000F1400000F1400000F7570000DB
:104500000358000006F01EFF002840F3468772485B
:10451000724E04F02BFD01270346014662227048CB
:10452000736527602A60FDF7B3F923682868012BBB
:104530007FF4DEAD43E1A0F13002412A3FF6D8AD71
:1045400001A151F822F000BF5F550000E3540000C4
:10455000FB540000FF5400002555000029550000C1
:1045600045550000575500005B550000735500008D
:10457000F1400000F1400000F1400000F140000077
:10458000F1400000F1400000F1400000F140000067
:10459000F1400000F1400000F1400000F140000057
:1045A000F1400000F1400000F1400000F140000047
:1045B000F1400000F1400000F1400000F140000037
:1045C000F1400000F1400000F1400000F140000027
:1045D000F1400000F1400000F1400000F140000017
:1045E000F1400000F1400000F1400000F140000007
:1045F000F1400000F1400000F1400000F1400000F7
:10460000F1400000F1400000F1400000F1400000E6
:10461000F1400000F1400000F1400000F1400000D6
:10462000F1400000F1400000F1400000F1400000C6
:10463000F1400000F1400000F1400000F1400000B6
:10464000F1400000F1400000F1400000E9400000AE
:1046500034287FF447AD06F075FE00287FF716AECC
:104660001D481E4E04F082FC61230122A6F8BC0006
:1046700022602B601846A2E034287FF433AD06F0A8
:1046800061FE002841F3D7811348144E04F06EFCFC
:104690004742D6F8C830726C96F840101048009720
:1046A000C6F8CC7014E5312801F0238232287FF45B
:1046B0001FAD06F047FE00287FF790AE0648074E74
:1046C00004F054FC01226B23C6F8A00022602B608A
:1046D0000AE000BFC894FF1FC887FF1F4C93FF1F4D
:1046E0001897FF1F06F0F2FD06F02CFE0028F9D106
:1046F000A44804F0A7FAA34804F0A4FAA14804F0DF
:10470000A1FAA04804F09EFA9E4804F09BFA2121E9
:104710009D4806F041FE9B4804F094FA15219B4801
:1047200006F03AFED6F89810964804F0DBFA02211B
:10473000974806F031FE934804F084FA1E2195480C
:1047400006F02AFED6F8A0108E4804F0CBFA03211A
:10475000914806F021FE8B4804F074FA1E218F4820
:1047600006F01AFED6F89C10864804F0BBFA85487D
:1047700004F068FA1D218A4806F00EFED6F8A8104B
:10478000804804F0AFFA7F4804F05CFA1E218548A7
:1047900006F002FED6F8AC107A4804F0A3FA794885
:1047A00004F050FA0523236012E57F4E96F8D030CE
:1047B00001225340782086F8D03022602860A0F192
:1047C0005203262B01F22E81DFE813F0AC082C09EE
:1047D0002C092C092C092C092C092C092C092C0931
:1047E0002C092C092C092C092C092900DD0ADB02D3
:1047F00034027A012C092C092C090E012C09DA0A41
:104800002C092C092C092C092C099A082C092C0993
:104810002C092C092C092C099D0006F057FD06F0E7
:1048200091FD05460028F8D156485F4E04F00AFA7B
:10483000544804F007FA534804F004FA514804F0CD
:1048400001FA504804F0FEF91F21584806F0A4FD73
:104850004C4804F0F7F91C21554806F09DFD706A9C
:10486000544908F0D7FF08F02BFB009502460B4691
:10487000444804F041FA02214F4806F08DFD4148BA
:1048800004F0E0F923214D4806F086FDF06B49491C
:1048900008F0C0FF08F014FB009502460B463948AB
:1048A00004F02AFA0221444806F076FD354804F067
:1048B000C9F91921424806F06FFDB06B08F000FB02
:1048C00002250B46024600952E4804F015FA2946AB
:1048D0003C4806F061FD2B4804F0B4F919213A4830
:1048E00006F05AFDB6F8BC10264804F0FBF9032187
:1048F000364806F051FD234804F0A4F9072323604D
:1049000066E406F0E3FC06F01DFD0028F9D11D4821
:1049100004F098F91B4804F095F91A4804F092F94C
:10492000184804F08FF9174804F08CF9152128482D
:1049300006F032FD134804F085F9124804F082F9BC
:104940002C21244806F028FD0E4804F07BF919219B
:10495000214806F021FD144B93F8D030002B41F094
:104960001A810E211D4806F017FD064804F06AF969
:1049700013211B4806F010FD024804F063F90923D7
:10498000236025E4C887FF1F642B0100882B0100EA
:10499000542A0100A02B0100C8260100C02B0100F1
:1049A000E02B0100002C01004C93FF1FC42A0100E2
:1049B000E42A010000007A4400290100042B0100D0
:1049C000282B0100C02A0100442B0100602B0100AC
:1049D0009032010034280100642801008028010081
:1049E000A428010006F072FC06F0ACFC0546002885
:1049F000F8D17D487D4E04F025F97B4804F022F97A
:104A0000794804F01FF9784804F01CF9764804F05E
:104A100019F91521764806F0BFFC734804F012F925
:104A20001821744806F0B8FC2B460A2296F840106C
:104A30006D4804F017F96C4804F004F928216E4819
:104A400006F0AAFC706C6D4908F0E4FE08F038FA34
:104A5000009502460B46644804F04EF9022168486E
:104A600006F09AFC604804F0EDF81921654806F05C
:104A700093FCD6F8C80008F023FA04250B4602463A
:104A80000095594804F038F9574804F0DBF818212C
:104A90005D4806F081FCD6F8CC10534804F022F9AA
:104AA000514804F0CFF81321584806F075FC4E48E1
:104AB00004F0C8F808232360FFF78ABB06F006FC61
:104AC00006F040FC05460028F8D14748474E04F060
:104AD000B9F8454804F0B6F8434804F0B3F8424842
:104AE00004F0B0F8404804F0ADF81121484806F051
:104AF00053FC3D4804F0A6F82821464806F04CFC3B
:104B000070693E4908F086FE08F0DAF90095024621
:104B10000B46354804F0F0F80221394806F03CFC19
:104B2000314804F08FF816213B4806F035FCF06957
:104B3000324908F06FFE08F0C3F900950B460246B3
:104B4000294804F0D9F802212D4806F025FC264812
:104B500004F078F8D6F8B430002B32DD1D212F4850
:104B600006F01AFCF06D08F001FE2D4908F052FE27
:104B700008F0A6F9022502460B4600951A4804F0F3
:104B8000BBF80121274806F007FC174804F05AF843
:104B90001F21254806F000FC306E08F0E7FD204993
:104BA00008F038FE08F08CF9009502460B460E48D6
:104BB00004F0A2F801211B4806F0EEFB0A4804F0BD
:104BC00041F81121194806F0E7FBD6F8B430062B5E
:104BD00000F2BE86DFE813F01C0712070D07080776
:104BE000B8062107170700BFC887FF1F4C93FF1F98
:104BF00060320100B8280100D428010000007A4486
:104C0000002901000429010020290100A428010035
:104C1000043201003C2901006829010080290100BB
:104C2000CDCCCC3D602E0100A0290100C02901009F
:104C300006F04CFB06F086FB0028F9D1AA4804F0E8
:104C400001F8A94803F0FEFFA74803F0FBFFA648C0
:104C500003F0F8FFA44803F0F5FF1321A34806F082
:104C60009BFBA14803F0EEFF0D21A14806F094FB49
:104C70009D4803F0E7FF0F219E4806F08DFB9E4BF9
:104C80009948196804F02EF8974803F0DBFF1321C8
:104C90009A4806F081FB9A4B9348196804F022F871
:104CA000914803F0CFFF1221964806F075FB964B12
:104CB0008D48196804F016F88B4803F0C3FF1121E2
:104CC000924806F069FB924B8748196804F00AF88D
:104CD000854803F0B7FF0E218E4806F05DFB8E4B32
:104CE0008148D3F8A41003F0FDFF7F4803F0AAFF2A
:104CF00019218A4806F050FB894B7B48196803F05C
:104D0000F1FF794803F09EFF1121864806F044FB2D
:104D1000854B7548196803F0E5FF734803F092FF6F
:104D20001021824806F038FB814B6F48196803F068
:104D3000D9FF6D4803F086FF1C217E4806F02CFB4E
:104D40007D4B6948196803F0CDFF674803F07AFF8F
:104D50001B217A4806F020FB794B6348197803F051
:104D6000C1FF614803F06EFF1321764806F014FB83
:104D70005D4803F067FF04232360FFF729BA06F0BC
:104D8000A5FA06F0DFFA0028F9D15748624E03F081
:104D900059FF554803F056FF534803F053FF52485C
:104DA00003F050FF504803F04DFF1F21664806F006
:104DB000F3FA4D4803F046FF1E21644806F0ECFA72
:104DC000494803F03FFF1A21614806F0E5FAF36F06
:104DD000022B00F0AA87032B00F09E87012B00F026
:104DE000AD8709215B4806F0D7FA3F4803F02AFF58
:104DF00014215948484D06F0CFFAB16F3A4803F0F4
:104E000071FF394803F01EFF1C21544806F0C4FA14
:104E1000D6F88410344803F065FF334803F012FFDE
:104E20001C214F4806F0B8FAD6F8B0102E4803F00F
:104E300059FF2D4803F006FFF36F23F00202012A09
:104E400000F0E886022B00F0828713213D4806F02F
:104E5000A3FA254803F0F6FE02232360FFF7B8B952
:104E600006F070FA00280DDD1F482B4E04F07EF886
:104E700008F07CFC3B4908F081FD0122622330628E
:104E800022602B6006F05EFA00280EDD1648224EE6
:104E900004F06CF808F06AFC324908F06FFD01225A
:104EA0006223C6F8C00022602B6006F04BFA00288F
:104EB0000ADD0D48184E04F059F808F057FC01229D
:104EC0006223706322602B6006F03CFA002840F3F6
:104ED00064820548104E04F049F801226223B0664E
:104EE00022602B6042E000BFC887FF1F202C01001A
:104EF000342C0100442C0100A494FF1F542C010009
:104F00001895FF1F682C0100FC94FF1F7C2C0100EA
:104F10000095FF1F902C01004C93FF1FA02C010057
:104F2000CC94FF1FBC2C0100C894FF1FD02C0100A3
:104F30007C92FF1FE42C01006087FF1F042D0100FD
:104F4000A094FF1FA4280100202D0100402D010086
:104F5000602D0100D82D0100E42D0100FC2D010081
:104F60001C2E010000007A4406F0B0F906F0EAF9C0
:104F700005460028F8D1C24803F064FEC04803F09B
:104F800061FEBF4803F05EFEBD4803F05BFEBC4817
:104F900003F058FE1521BB4806F0FEF9B84803F0AF
:104FA00051FE1421B84806F0F7F9B54803F04AFE5F
:104FB0001B21B64806F0F0F9B14803F043FE132177
:104FC000B34806F0E9F9AE4803F03CFEAC4803F004
:104FD00039FEAB4803F036FE2021AE4806F0DCF97E
:104FE000F068AD4908F016FC07F06AFF009502462C
:104FF0000B46A34803F080FE0221A84806F0CCF936
:105000000221A74806F0C8F99D4803F01BFE2121A4
:10501000A44806F0C1F930699F4908F0FBFB07F08E
:105020004FFF009502460B46954803F065FE0221AE
:105030009A4806F0B1F90221994806F0ADF9904876
:1050400003F000FE1F21984806F0A6F9B06A07F0A9
:1050500037FF022702460B460097894803F04CFEB3
:105060000121924806F098F939468D4806F094F9E6
:10507000834803F0E7FD20218D4806F08DF9F06AA2
:1050800007F01EFF009702460B467D4803F034FEF2
:105090000121864806F080F93946814806F07CF9FE
:1050A000774803F0CFFD2321824806F075F9B06CF4
:1050B000794908F0AFFB07F003FF009502460B4665
:1050C0006F4803F019FE3946744806F065F9394611
:1050D000734806F061F96A4803F0B4FD1F21764871
:1050E00006F05AF9F06C6C4908F094FB07F0E8FE02
:1050F000009502460B46624803F0FEFD39466748BC
:1051000006F04AF93946664806F046F95C4803F06D
:1051100099FD1921694806F03FF9B16D584803F02F
:10512000E1FD3946664806F037F939465C4806F035
:1051300033F9534803F086FD1821624806F02CF934
:10514000706E08F013FB604908F064FB07F0B8FECE
:10515000009702460B464A4803F0CEFD01215B480A
:1051600006F01AF939464E4806F016F9444803F09D
:1051700069FD2B21564806F00FF9B069464908F041
:1051800049FB07F09DFE009502460B463C4803F0A4
:10519000B3FD3946414806F0FFF83946404806F06D
:1051A000FBF8374803F04EFD1F214A4806F0F4F89B
:1051B000716D334803F096FD3946394806F0ECF836
:1051C0002F4803F03FFD2021434806F0E5F8316DFC
:1051D0002B4803F087FD3946314806F0DDF82848B2
:1051E00003F030FD10213D4806F0D6F8B16E24489A
:1051F00003F078FD3946294806F0CEF839462848AC
:1052000006F0CAF81E4803F01DFD1321344806F0CD
:10521000C3F8F16E1A4803F065FD0121314806F02C
:10522000BBF839461E4806F0B7F8154803F00AFDEA
:1052300010212D4806F0B0F8316F114803F052FDEF
:105240003946164806F0A8F83946154806F0A4F87D
:105250000B4803F0F7FC1421244806F09DF8716F09
:10526000074803F03FFD01211E4806F095F8394636
:105270000B4806F091F8024803F0E4FC162137E0F1
:10528000C887FF1F0C2F0100242F01003C2F0100B5
:10529000A4280100582F010000007A4400290100D1
:1052A000383301007C2F0100A02F0100A82301004A
:1052B000C02F0100E42F0100083001002830010058
:1052C0004430010048300100CDCCCC3D602E0100BF
:1052D0006430010090300100B0300100D430010092
:1052E000E8300100FC300100003101001431010000
:1052F000BB4806F051F8306ABA4908F08BFA07F05B
:10530000DFFD009502460B46B74803F0F5FC394631
:10531000B64806F041F83946B54806F03DF8B248BF
:1053200003F090FC2421B34806F036F8D6F8C0000C
:10533000AC4908F06FFA07F0C3FD009502460B4632
:10534000A94803F0D9FC3946A84806F025F83946A3
:10535000A74806F021F8A44803F074FC2B21A648C6
:1053600006F01AF8706B07F0ABFD00970B4602468B
:105370009D4803F0C1FC0121A04806F00DF8394614
:105380009B4806F009F8984803F05CFC964803F047
:1053900059FC03232360FEF71BBF23682868012BF9
:1053A0007EF4A6AEFFF70BBA05F0CCFF00287EF71F
:1053B000FDAF8D48924E03F0D9FD00EB8000430015
:1053C00001226520F36522602860FFF7F8B905F037
:1053D000B9FF00287EF7EAAF8348894E03F0C6FD87
:1053E00000EB8000430001226520336622602860C4
:1053F000FFF7E5B9824AD2F8B4300133062BC8BFB3
:105400000023C2F8B4300123652023602860FFF731
:10541000D6B905F097FF00287EF7C8AF7248784EDE
:1054200003F0A4FD65230122C6F8B80022602B60BA
:105430001846FFF7C4B905F085FF00287EF7B6AF20
:1054400069486F4E03F092FD08F090F9654908F045
:1054500095FA65230122706122602B601846FFF7E0
:10546000AEB905F06FFF00287EF7A0AF5E48644E2E
:1054700003F07CFD08F07AF95A4908F07FFA6523B9
:105480000122F06122602B601846FFF798B95C4B4F
:1054900093F8C420002A00F07A83002283F8C42005
:1054A000B1E705F04FFF00287EF780AF4E48544E1D
:1054B00003F05CFD08F05AF9652301223063226095
:1054C0002B601846FFF77BB94D4AD36F0133032B8E
:1054D000C8BF0023D3670123632023602860FFF740
:1054E0006EB9484A1368B3FA83F35B09012164205B
:1054F000136021602860FFF762B9434AF2E7434A2C
:10550000434F1368002B0CBF012300234FF0010011
:105510001360206040F0EB83034664222A6064201D
:10552000FEF761BD3B4ADDE7354ED6F8A430B3FA4D
:1055300083F35B0901226420C6F8A430226028604E
:10554000FFF73DB9012334482360FCF739F8334AAB
:1055500023681060E1E7324AC4E7324AC2E7324AC0
:10556000137801214B406420137021602860FFF7FD
:1055700026B90123236005F0E5FE002800F314831B
:105580002A4B1A68042AC4BF02221A6064232B60C3
:105590002368C4E71A4EB36FB3FA83F35B090122A1
:1055A0006320B36722602860FFF709B901232360F5
:1055B00005F0C8FE00287EF71BAE0B48104E03F026
:1055C000D5FCA6F8BE00FEF713BE0D4BD3F8802025
:1055D000012A0CBF02220122C3F880207BE700BF12
:1055E0002C31010000007A44C887FF1F0029010008
:1055F00038330100443101006C310100A82301005F
:105600004C93FF1FA494FF1F1895FF1FFC94FF1FCE
:10561000A092FF1F0095FF1F1897FF1FCC94FF1F3C
:10562000C894FF1F7C92FF1FA094FF1F6087FF1F7D
:105630000123236005F086FE00287FF74CAFBA48AF
:10564000BA4E03F093FCC6F8940044E701232360AC
:1056500005F078FE00287FF73EAFB348B34E03F065
:1056600085FCC6F8B00036E70123236005F06AFE2A
:1056700000287EF7BDADAC48AC4E03F077FC08F0D7
:1056800075F8C6F89000FEF7B3BDA84ED6F8843082
:10569000B3FA83F35B0901226320C6F884302260E9
:1056A0002860FFF78CB805F04DFE00287FF775AE37
:1056B0009D489E4E03F05AFC01226223F066226050
:1056C0002B6053E405F03EFE00287FF766AE964857
:1056D000964E03F04BFC08F049F8954908F04EF956
:1056E00001226223B06122602B603FE405F02AFEB4
:1056F00000287FF752AE8C488C4E03F037FC012215
:105700006223306522602B6030E405F01BFE002828
:105710007FF743AE8448854E03F028FC08F026F856
:1057200001226223B06222602B601FE405F00AFEB2
:1057300000287FF732AE7C487C4E03F017FC08F05F
:1057400015F801226223F06222602B600EE405F05E
:10575000F9FD00287FF721AE7348744E03F006FC74
:1057600008F004F8724908F009F901226223B064D4
:1057700022602B60FFF7FABB05F0E4FD00287FF7FD
:105780000CAE6948694E03F0F1FB07F0EFFF684982
:1057900008F0F4F801226223F06422602B60FFF726
:1057A000E5BB05F0CFFD00287FF7F7AD5E485F4E03
:1057B00003F0DCFB07F0DAFF5D4908F0DFF80122B7
:1057C0006223F06022602B60FFF7D0BB05F0BAFDCA
:1057D00000287FF7E2AD5448544E03F0C7FB07F0B2
:1057E000C5FF534908F0CAF80122622330612260E4
:1057F0002B60FFF7BBBB0022732322602B60FEF7F8
:105800007FBC4C4B4C48494E002202211A6005F0E7
:10581000C3FD454803F016FA0B21484805F0BCFDCE
:105820000221454805F0B8FD3F4803F00BFA01227C
:10583000622322602B60FFF799BBFCF7FDFC02217D
:105840003D483A4E05F0A8FD374803F0FBF9022128
:10585000394805F0A1FD344803F0F4F90221364837
:1058600005F09AFD304803F0EDF91721344805F0B2
:1058700093FD2D4803F0E6F9D2E705F063FD00281B
:105880007FF78BAD2848294E03F070FB012262237D
:10589000306722602B60FFF769BB05F053FD0028DD
:1058A0007FF77BAD2048214E03F060FB012262238D
:1058B000706722602B60FFF759BB05F043FD00289D
:1058C0007FF76BAD1848194E03F050FB012262239D
:1058D000B06522602B60FFF749BB05F033FD00285F
:1058E0007FF75BAD1048114E03F040FB00EB8000EA
:1058F000430001216222736621602A60FFF736BBF4
:10590000D4220021094803F025FC28680D4AA0F1A3
:10591000730001210023B0FA80F040091160236078
:10592000FEF7ECBB04F0A0FEC887FF1F4C93FF1FDF
:1059300000007A446C92FF1F3833010028280100D0
:10594000102801004087FF1F0D219B4805F024FD12
:105950009A489B4D03F076F9D6F8B430002B12DD4F
:105960001821984805F018FDD5F8B810934803F0B1
:10597000B9F90221944805F00FFD904803F062F94F
:105980008E4803F05FF91B21904805F005FD96F85D
:10599000C430012B15BF122114218D488D4805F00C
:1059A000FBFC864803F04EF91F218B4805F0F4FC00
:1059B000306B07F085FA02250B46024600957F48BA
:1059C00003F09AF92946854805F0E6FC7B4803F088
:1059D00039F91321824805F0DFFC784803F032F9E9
:1059E00006232360FEF7F4BB0D217E4805F0D4FCAE
:1059F000AEE70C217C4805F0CFFCA9E70C217B48E1
:105A000005F0CAFCA4E70421794805F0C5FC9FE72E
:105A10000D21784805F0C0FC9AE70B21764805F087
:105A2000BBFC95E72368002B08BF73280CBF01203F
:105A30000020FEF763BB23682868FEF7DCBB05F097
:105A400081FC00287EF722AC5C485D4E03F08EFAA4
:105A500007F08CFE694907F0DDFE612301227062C8
:105A600022602B601846FEF7AABE05F06BFC0028EA
:105A7000E1DD5248524E03F079FA07F077FE6049B3
:105A800007F0C8FED6F8CC30726C96F84010009340
:105A900007460346C6F8C8705A48FEF719BB05F01A
:105AA00051FC00286BDC464E96F84000D6F8C83012
:105AB000726C032894BF01460021D6F8CC0088BF41
:105AC00086F8401000904F48FEF702BB05F03AFC04
:105AD00000287EF7DBAB3948394E03F047FA07F070
