:1000000000800020BD010000418A0000F989000045
:10001000F9890000F9890000F9890000F9890000D8
:10002000F9890000F9890000F9890000418A00007F
:10003000418A0000F989000005AB000009AC00000E
:10004000418A0000418A0000418A0000418A000084
:10005000418A0000418A0000418A0000418A000074
:10006000418A0000418A0000418A0000418A000064
:10007000418A0000418A0000418A0000418A000054
:10008000418A0000418A0000418A0000418A000044
:10009000418A0000418A0000418A0000418A000034
:1000A000418A0000418A0000418A0000418A000024
:1000B000418A0000657F0000717F0000757F0000AD
:1000C000817F0000857F0000897F0000418A000059
:1000D000418A0000418A0000418A0000418A0000F4
:1000E000418A0000418A0000418A0000418A0000E4
:1000F000418A000015B30000418A0000E19600002B
:10010000418A0000AD980000418A0000418A000049
:10011000418A0000418A0000418A0000418A0000B3
:10012000418A0000418A0000418A0000418A0000A3
:10013000418A0000418A0000418A0000418A000093
:10014000418A0000418A0000418A0000418A000083
:10015000418A0000418A0000418A0000418A000073
:10016000418A0000399B0000418A0000418A00005A
:10017000418A0000418A0000418A0000418A000053
:10018000418A0000418A0000418A0000418A000043
:10019000418A0000418A0000418A0000418A000033
:1001A000418A0000418A0000418A0000418A000023
:1001B000418A0000418A0000418A0000564B4CF2FF
:1001C000205210B51A804DF628121A8000BF00BFC9
:1001D00008F03AFC514B4FF010621A60504A9A6096
:1001E000504ADA60504A136813F4807304D14F49BF
:1001F0000B604FF4A85313604D4B1A78110703D5C9
:100200001A7842F008021A704A4B4B492A221A7097
:100210004A4A4B4B8B4204D252F8040F43F8040B6A
:10022000F8E7484B484900228B4202D243F8042B9E
:10023000FAE74649464A002352F8230041F82300D2
:1002400001336F2BF8D1434B434A802103F8011B44
:100250009342FBD1414B3D4A1A60414B8A221A70AE
:10026000A3F5805324225A70A0221A709A7992071B
:10027000FCD59A79D406FCD43A4A937903F00C035E
:10028000082B384BF9D103221A7140225A719A79FE
:100290009006FCD5334A9179324B4906FBD5324A58
:1002A000324911600221516020221A709A7902F0BD
:1002B0000C020C2AFAD12E4B2E4A1A602E4B2F4AD2
:1002C0001A6000225A60072243F8042C2C4AC3F813
:1002D0000C2D62B608F06EFE144B1B68DA0705D5CC
:1002E000284808F04BFC284B284A1A60284B1B78FA
:1002F0005B0609D5244C254B22689A4204D121483B
:1003000008F03CFC002323600CF0E8FA08F0A2FBA4
:100310000AF0C0FEFEE700BF0E200540308004401A
:10032000823F04000100002B10D0034014D0034092
:1003300002D0074000E007402892FF1F6427010019
:100340002087FF1F2892FF1FC0C7FF1F0082FF1FCB
:100350000000000000E400E05FE400E008ED00E0E1
:100360000050064000400640448004400000030165
:1003700004800440C010050014E000E0FF76010096
:10038000000020206E4E945F1CE00340A5C3945AE9
:1003900000F00740FFFFFFFFFFFFFFFFFFFFFFFF32
:1003A000FFFFFFFFFFFFFFFFFFFFFFFFFFFFFFFF5D
:1003B000FFFFFFFFFFFFFFFFFFFFFFFFFFFFFFFF4D
:1003C000FFFFFFFFFFFFFFFFFFFFFFFFFFFFFFFF3D
:1003D000FFFFFFFFFFFFFFFFFFFFFFFFFFFFFFFF2D
:1003E000FFFFFFFFFFFFFFFFFFFFFFFFFFFFFFFF1D
:1003F000FFFFFFFFFFFFFFFFFFFFFFFFFFFFFFFF0D
:10040000FFFFFFFFFFFFFFFFFFFFFFFFDEF9FFFF23
:1004100010B5054C237833B9044B13B10448AFF33E
:1004200000800123237010BD2892FF1F00000000F0
:1004300060270100084B10B51BB108490848AFF30D
:1004400000800848036803B910BD074B002BFBD0A0
:10045000BDE81040184700BF000000002C92FF1FAD
:10046000602701002892FF1F00000000F0B400F197
:100470001C06134F00243146031F00F13C0243F8D1
:10048000044FB34241F8047F4FF0000542F8044F97
:10049000F5D100230B4A0C4C056647F230514566F6
:1004A0008566C566C56744670267826780F88430E1
:1004B00080F8853080F89C30A0F8AE10F0BC704712
:1004C0000000A040000048430000C8C290F88C0023
:1004D000704700BF90F88800704700BF90F8900008
:1004E000704700BF90F89400704700BF082994BF80
:1004F00050F82100002070472DE9F0410B4E804656
:10050000041F00F11C0754F8045F314628460CF024
:1005100071F930B1D8F8801028460CF089F900B193
:100520002E46BC42EFD13046BDE8F08100002041AC
:100530002DE9F041D0F880704FF00008041F00F161
:100540001C0654F8045F394628460CF071F9084936
:1005500048B128460CF04EF9414620B128460CF02F
:1005600067F900B1A846B442EBD14046BDE8F0813E
:10057000000070422DE9F047D0F8807082464FF0BD
:100580000009041F00F11C064FF0000854F8045F36
:10059000394628460CF04CF90E4950B128460CF06B
:1005A00029F930B1484629460BF07EFE08F10108D2
:1005B0008146B442EAD1B8F1000F01D0CAF8A08058
:1005C00040460BF025FF014648460CF029F8BDE8EF
:1005D000F08700BF00007042D0F8A000704700BF55
:1005E000D0F8983070B5054673B9866E446E3146C2
:1005F00020460CF0FFF8A0B1ED6E204629460CF025
:10060000F9F800B3204670BD012B14D0022B1FD087
:10061000032B1BD00C2B1DD0172B1FD00D2B1BD049
:1006200070BDEC6E304621460CF0E4F80028E9D0AD
:100630003446204670BDC46EAD6E204629460CF08F
:10064000D9F80028DED12C46204670BD446EF3E771
:10065000446ED1E7C46ED5E7846ED3E7446ED1E72C
:10066000D0F8983070B5054673B9866E446E314641
:1006700020460CF0DDF8A0B1ED6E204629460CF0C6
:10068000D7F800B3204670BD012B14D0022B1FD029
:10069000032B1BD00C2B1DD0172B1FD00D2B1BD0C9
:1006A00070BDEC6E304621460CF0C2F80028E9D04F
:1006B0003446204670BDC46EAD6E204629460CF00F
:1006C000B7F80028DED12C46204670BD446EF3E713
:1006D000446ED1E7C46ED5E7846ED3E7446ED1E7AC
:1006E0002DE9F04F022987B00746144600F02E810D
:1006F000032900F0C480012900F0838097F8AC3012
:1007000001933846FFF76CFF396F04460CF072F81E
:1007100000B13C673846FFF7A3FF796F04460CF041
:1007200087F800B17C6707F11C0BA7F1040A07F1F9
:100730003C095D46D0464E4658F8044F55F8040F24
:1007400021460CF075F830B1D7F8801020460CF037
:1007500065F800B12C6056F8041F20460CF068F8CC
:1007600000B13460A945E7D1019B002B7ED0A84C95
:10077000D7F8A82023680393039BB7F8AE109B1A01
:100780008B420DD300224AF8042FD3454FF00003CB
:10079000F9D13B667B66BB66FB6607B0BDE8F08FB0
:1007A00023680493049BC91A0A4441F287339A428E
:1007B000F3D8022197480AF03FF897480AF0D4FA94
:1007C000062196480AF038F800230A2297F89C1070
:1007D00091480AF0D9FA192191480AF02DF82368B6
:1007E0000593059AB7F8AE30D7F8A8108A489B1A37
:1007F00019440A2200230AF0C7FA87480AF0B4FA1B
:10080000CBE7137A80F8A430D0F8B400D7F8B06002
:100810000BF0FEFDE37A0546A07A03EB00200BF017
:10082000F7FD31460BF048FE29460BF03DFD78669A
:10083000637B207B03EB00200BF0EAFD31460BF0DD
:100840003BFE29460BF030FDB866E37BA07B03EB53
:1008500000200BF0DDFD31460BF02EFE29460BF09B
:1008600023FD97F8AC300193F8664AE7684B1B68A4
:100870000293029BC7F8A83007B0BDE8F08F107A4A
:10088000537A03EB00200BF0C3FD66490BF014FE16
:10089000D7F88050294606460BF0CAFF40B162499E
:1008A00030460BF0A7FF18B100233E6187F8AC304B
:1008B000E37AA07A03EB00200BF0AAFD59490BF074
:1008C000FBFD0646014628460BF094FF40B1564911
:1008D00030460BF08FFF18B100237E6187F8AC30F3
:1008E000637B207B03EB00200BF092FD4D490BF066
:1008F000E3FD0646014628460BF07CFF40B14A491D
:1009000030460BF077FF18B10023BE6187F8AC309A
:10091000E37BA07B03EB00200BF07AFD41490BF059
:10092000CBFD0446014628460BF064FF00283FF447
:10093000E5AE3D4920460BF05DFF00283FF4DEAEFA
:100940000023FC6187F8AC300193DAE6107A537A21
:1009500003EB00200BF05CFD32490BF0ADFDD7F846
:100960008050294606460BF063FF00285ED1012324
:1009700087F8AC30E37AA07A03EB00200BF048FD57
:1009800028490BF099FD0646014628460BF032FF38
:1009900000285FD0244930460BF02CFF002859D0A6
:1009A00000237E6087F8AC30637B207B03EB002064
:1009B0000BF02EFD1B490BF07FFD06460146284635
:1009C0000BF018FF002841D0174930460BF012FFFA
:1009D00000283BD00023BE6087F8AC30E37BA07BCF
:1009E00003EB00200BF014FD0E490BF065FD0446EF
:1009F000014628460BF0FEFE18B30B4920460BF0CB
:100A0000F9FEF0B10023FC6087F8AC30019378E682
:100A1000C8C4FF1F681F0100C887FF1FAC0A010080
:100A2000B40A01006F12833A000070420B4930464D
:100A30000BF0E0FE00289AD000233E6087F8AC302F
:100A400098E7012387F8AC3001935AE6012387F831
:100A5000AC30C3E7012387F8AC30A5E70000704253
:100A6000D0F8983010B5044663B1012B15D0022B95
:100A70001ED0032B25D00C2B2CD0172B2CD00D2BBC
:100A800014D010BD816E406E0BF00EFCE16E0BF0C9
:100A90000BFC12490BF0C4FD10BDC16E806E0BF053
:100AA00003FC4FF07C510BF007FD10BD806E10BDB4
:100AB000C16E406E0BF0F8FB4FF07C510BF0FCFC6C
:100AC00010BD816E406E0BF0EFFB4FF07C510BF0D0
:100AD000F3FC10BDC06E10BD406E10BD0000404064
:100AE0002DE9F8430026D0F880800666814604464A
:100AF00000F1200754F8045B414628460BF098FEAD
:100B0000084950B128460BF075FE30B130462946F1
:100B10000BF0CAFB0646C9F86000BC42EAD1304679
:100B2000BDE8F8830000704202299ABF00EB810003
:100B3000406E0020704700BF3E2998BF80F89C108F
:100B4000704700BF90F8A400704700BF90F8840081
:100B5000704700BF90F88500704700BFC0F898103C
:100B6000704700BF80F88410704700BF80F8851080
:100B7000704700BF30B5C0F8801083B008460AF057
:100B8000F1FF074C022502460B46009520460AF06D
:100B900043F9204603B0BDE830400AF0E5B800BF95
:100BA000C887FF1FC0F8B010C0F8B420704700BF5E
:100BB00070B500F535550646303500F1280420465D
:100BC000B834FFF753FCAC42F9D106F1E00501243B
:100BD00028460021FFF7C6FF214628460134FFF7CB
:100BE000ABFF3F2C05F1B805F2D142F67C5400254D
:100BF0000548064A064B3555002130617161B261E6
:100C0000F361304670BD00BF00007A4400004843E5
:100C10000000C8C238B500F1E004012504E0013548
:100C20003F2D04F1B80411D02046FFF78FFF0028B4
:100C3000F5D020460021FFF795FF294620460135D3
:100C4000FFF77AFF3F2D04F1B804EDD138BD00BFA6
:100C500070B500F53556303600F1E004002507E0A8
:100C6000012520460021B834FFF780FFB4420AD0A6
:100C70002046FFF76BFF0028F3D02046FFF76AFFFE
:100C80000028EDD170BD284670BD00BFF8B500F555
:100C90003657002300F535563B60303600F1E0044E
:100CA00002E0B834B4420DD02046FFF74FFF0028D1
:100CB000F7D020463D68FFF78FFCB8342844B44293
:100CC0003860F1D13868F8BDF8B50E46096801F40E
:100CD0007F6500290446A5F5C06515DB2D0901F0E7
:100CE0000F07B82303FB0544283420460121FFF7F2
:100CF00039FF20460121FFF739FF324639462046A9
:100D0000BDE8F840FFF7ECBC0A4801F00F070AF015
:100D10002BF81221084809F08FFD3168054801F0D1
:100D2000004100230A220AF02FF802482D090AF098
:100D30001BF8D6E7C887FF1FD00A01002DE9F04352
:100D40000446002383B0064644F8E03B012504E056
:100D500001353F2D04F1B80466D02046FFF7F6FEBA
:100D60000028F5D04E4800F06DFD29464D4800F0B2
:100D700069FD2046FFF7B4FE0AF0F4FE02460B467A
:100D8000494800F05FFD2046FFF7B6FB804620464D
:100D9000FFF7CEFB074640460AF0E4FE80463846A1
:100DA00089460AF0DFFE42464B46CDE900013F4846
:100DB00000F048FD00212046FFF7B6FE01218046E5
:100DC0002046FFF7B1FE074640460AF0CBFE8046BC
:100DD000384689460AF0C6FE42464B46CDE9000138
:100DE000334800F02FFD2046FFF77AFE01463068B9
:100DF0000BF05AFA30602046FFF7F2FBB1690BF0B6
:100E0000F9FC002833D12046FFF72AFCF1690BF0EA
:100E10000FFD00289CD02046FFF722FC01353F2D16
:100E2000F06104F1B80498D170680BF0F1FA014652
:100E300030680BF0F5FB7169306004460BF0F8FC8C
:100E400000B17461316920460BF0D4FC00B134610B
:100E50000B2008F02BF842F67C53F35C60B99BB191
:100E600042F67C530122F25403B0BDE8F0832046E1
:100E7000FFF7B6FBB061C6E753B942F67C530022D8
:100E8000F25403B0BDE8F0830A4800F009FDE7E73B
:100E9000094800F0EFFC42F67C530022F254F0E7E0
:100EA000D8120100E40A0100200B0100340B0100FC
:100EB000600B01007C0B0100B40B01002DE9F04137
:100EC00000F1E00400F53556DFF85480074625466A
:100ED00030362846FFF73AFEB83508B1C7F8088023
:100EE000B542F6D12046FFF731FE38B9B834B442E6
:100EF00013D02046FFF72AFE0028F7D02046FFF740
:100F0000FBFAB9680BF076FC0028EFD02046FFF71B
:100F1000F3FAB834B442B860EBD1B868BDE8F081F8
:100F20000000A0402DE9F04100F1E00400F5355645
:100F300007464FF00008254630362846FFF706FEE4
:100F4000B83508B1C7F80C80B542F6D12046FFF796
:100F5000FDFD38B9B834B44213D02046FFF7F6FD92
:100F60000028F7D02046FFF7E3FAF9680BF060FCA1
:100F70000028EFD02046FFF7DBFAB834B442F8601F
:100F8000EBD1F868BDE8F0810068704741607047B8
:100F90002DE9F84342F6885642F68C5542F6845EB7
:100FA00042F69054815140F80E20089E435100F5BE
:100FB00035550651894690461F46303500F1E0040C
:100FC00002E0B834AC4214D02046FFF7BFFD002841
:100FD000F7D020464946FFF7C1FD20464146FFF7BE
:100FE000C9FD204632463946B834FFF7DBFDAC4236
:100FF000EAD1BDE8F88300BF2DE9F04342F674530F
:1010000000F535550027C7502E463A4A3A4B426202
:1010100083B080464FF0000903623035343600F16A
:10102000E00402E0B834A54213D02046FFF78EFD5D
:101030000028F7D03368013333602046FFF710FDF6
:101040002E490BF0F5FB80BBB834A54207F1010730
:10105000EBD142F6745358F80340E01B0BF0D8F97B
:10106000014648460BF0DCFA054642F6785058F83F
:1010700000309C4215D042F6905642F68C5342F610
:10108000845242F6885158F8066058F8033058F8F0
:10109000022058F8011048F8004000964046FFF73B
:1010A00077FF284603B0BDE8F0832046FFF7D8FC61
:1010B000014648460BF0F8F881462046FFF7D0FA83
:1010C000D8F820100BF0B4FB70B92046FFF788FA6F
:1010D000D8F824100BF08EFB0028A3D02046FFF791
:1010E0007FFAC8F824009DE72046FFF7B9FAC8F850
:1010F0002000EAE700C0794400C079C400008CC237
:10110000006A704742F67453C0587047406A70478F
:10111000F8B500F5355507460026303500F1E004F6
:1011200002E0B834AC420FD02046FFF70FFD002894
:10113000F7D02046FFF71EFA014630460BF0B4F810
:10114000B834AC420646EFD142F67453F8580BF06F
:101150005FF9014630460BF063FAF8BD2DE9F04F18
:1011600091B0064696480F91934600F013FB9448C1
:1011700000F010FB924800F00DFB42F6745330462D
:1011800056F80380FFF782FD07463068D6F80490D2
:101190000AF0E8FC02460B463046CDE90C23FFF787
:1011A000B7FF82463046B468F568FFF725FF0AF0BE
:1011B000D9FCCDE90A01214628460BF073F8814994
:1011C0000BF07AF90AF0CEFCCDE9080128460AF0C6
:1011D000C9FCCDE9060120460AF0C4FCCDE90401B2
:1011E00050460AF0BFFCDDE90C23CDE90201CDE950
:1011F000002341464B463A46734800F0CBFA70480C
:1012000000F0C8FA0023E03601270C9305E001370F
:101210003F2F06F1B80600F0C2803046FFF796FC7B
:101220000028F4D03046FFF751F93046FFF752F965
:101230003046FFF753F93046FFF754F93046FFF7D1
:1012400081FC08218246614809F0F6FA3946604877
:1012500009F0DAFD092F40F3AD8002215D4809F065
:10126000EBFA3046FFF73CFC0AF07CFC9DF83C8032
:10127000CDF800800B460246554809F0CDFD01210E
:10128000554809F0D9FA3B460C9C474600254FF0DB
:10129000010998462EE00621504809F0CDFA214672
:1012A0004B4809F0B1FD02214D4809F0C5FA294625
:1012B0003046FFF71BF90AF055FC00970B46024633
:1012C000434809F0A9FD012143480C4409F0B4FA50
:1012D00009FA05F3BBF1000F09D013EA0A0F4FF02A
:1012E0000201404804BF4048022109F0A5FA013537
:1012F000082D06D0092CCEDC01213C4809F09CFACF
:10130000C9E7334809F030FD0921394809F094FA5A
:1013100000213046FFF708FC0AF024FC02240246B4
:101320000B4600942A4809F077FD0A21314809F05C
:1013300083FA01213046FFF7F7FB0AF013FC009413
:1013400002460B46224809F067FD0A212A4809F0A7
:1013500073FA21463046FFF7E7FB0AF003FC0B4621
:101360000C9900940246083119480C91474609F03F
:1013700053FDBBF1000F15D00D21204809F05CFA98
:10138000224651460023124809F0FEFC013710485E
:1013900009F0EAFC3F2F06F1B8067FF43EAF11B02A
:1013A000BDE8F08F0121164809F046FA084809F017
:1013B000DBFC2CE701210D4809F03EFA4DE700BFA8
:1013C000D812010000007A44640E0100040F0100ED
:1013D000C887FF1F681F0100100F0100140F0100D4
:1013E000181101001C0F0100200F0100281101003D
:1013F000240F0100300F01003C0F0100480F0100D5
:10140000580F01002DE9F04F85B000F1E0058A4644
:1014100003929B462E464FF0010806E008F10108B2
:10142000B8F13F0F06F1B8067BD03046FFF78EFBD0
:101430000028F3D000230A2251467D4809F0A4FC7D
:1014400001217C4809F0F8F903980AF08BFB00238E
:101450000246009376480B4609F0DEFC01217548F0
:1014600009F0EAF95946724809F0CEFC01217148A9
:1014700009F0E2F941466E4809F0C6FC01216D48C9
:1014800009F0DAF900244FF0020921463046FFF74F
:101490002DF80AF067FBCDF8009002460B46644831
:1014A00009F0BAFC01340121624809F0C5F9082CA1
:1014B0004FF00207E9D100213046FFF735FB0AF073
:1014C00051FB009702460B46594809F0A5FC012143
:1014D000584809F0B1F901213046FFF725FB0AF021
:1014E00041FB009702460B46514809F095FC01214B
:1014F000504809F0A1F939463046FFF715FB0AF0CC
:1015000031FB009702460B46494809F085FC08F17B
:101510000108474809F028FCB8F13F0F06F1B8066A
:1015200083D101274FF0000904E001373F2F05F177
:10153000B80579D02846FFF709FB0028F5D000232D
:101540000A2251463C4809F01FFC0121394807F0A6
:10155000C3FF03980AF006FBCDF8009002460B4645
:10156000354809F059FC0121324807F0B5FF5946CA
:10157000314809F049FC01212E4807F0ADFF3946FA
:101580002D4809F041FC01212A4807F0A5FF00245D
:101590004FF0020821462846FEF7A8FF0AF0E2FABB
:1015A000CDF8008002460B46234809F035FC013493
:1015B0000121204807F090FF082C4FF00206E9D1E6
:1015C00000212846FFF7B0FA0AF0CCFA009602464E
:1015D0000B46194809F020FC0121164807F07CFF52
:1015E00001212846FFF7A0FA0AF0BCFA009602464D
:1015F0000B46114809F010FC01210E4807F06CFF62
:1016000031462846FFF790FA0AF0ACFA00960246F7
:101610000B46094809F000FC0137074809F0A4FB14
:101620003F2F05F1B80585D105B0BDE8F08F00BFAB
:10163000C887FF1F5C0F0100B887FF1F014B1870A0
:10164000704700BF2087FF1F0278002A00F09080BB
:1016500070B5034682B00D46252A2AD158785C1C05
:1016600008B325282FD0732831D0642824D06928C6
:1016700022D066284FD07A2859D0782835D05828DB
:101680002FD062283ED0422838D06C2814D063284E
:1016900012D0742857D054285FD009F051F96278DD
:1016A000631C002AD8D1344802B0BDE8704009F06C
:1016B0005BBB18781C46F0E72B1D29682E481D4699
:1016C00009F0A2FBEBE7104609F03AF9E7E72E68CC
:1016D00030460BF0F5FE01463046043509F0ACF813
:1016E000DDE70221254809F0A7F82E1D29682248C8
:1016F00000231022354609F047FBD0E7022120489D
:1017000009F09AF82E1D29681B480023022235464D
:1017100009F03AFBC3E7073525F007050321D5E9B2
:10172000002315480091083509F076FBB7E7073527
:1017300025F007050021D5E900230F480091083561
:1017400009F06AFBABE7296801290EBF0D480E4876
:101750000121043509F070F8A1E72B68012B07BFC0
:1017600004210A480A480521043509F065F896E77E
:10177000014809F0F9BA00BFC887FF1F600F0100D8
:10178000640F0100680F01006C0F0100700F010071
:10179000780F01000FB400B583B004A951F8040B11
:1017A0000191FFF751FF03B05DF804EB04B07047FF
:1017B00070B51B4B1B4C1B6882B00D460193019BFF
:1017C0002360194604460023164617480A2209F0EA
:1017D000DBFA0321154809F02FF8032C07D8DFE8BE
:1017E00004F01A1510020521114809F025F802210C
:1017F000104809F021F831462846FFF725FF02B0CE
:1018000070BD07210C4809F017F8F0E704210B48D8
:1018100009F012F8EBE70521094809F00DF8E6E7B1
:10182000C8C4FF1F4492FF1FC887FF1F800F01001D
:101830009C0F010018110100940F01008C0F010092
:10184000840F01000FB400B5094B187883B020B1A4
:1018500003B05DF804EB04B0704705AB1A46049979
:101860000193FFF7A5FF03B05DF804EB04B07047E8
:101870002087FF1F0FB4094B00B51B78012B83B0E5
:1018800004D903B05DF804EB04B0704705AB1A4609
:10189000049901930120FFF78BFFF2E72087FF1FD8
:1018A0000FB40B4B00B51B78032B83B004D903B0E6
:1018B0005DF804EB04B0704705AB1A460499019338
:1018C0000320FFF775FF03B05DF804EB04B0704729
:1018D0002087FF1F0A4A0B49D06D936D03FB00F36D
:1018E0004FF47A7000FB03F0642310B50B600AF02C
:1018F0008FFD0549054C0AF093FE206010BD00BF26
:101900005CC1FF1F3087FF1FE4388E3EC4C2FF1F3B
:1019100038B5044608460D460BF0D2FD2368024652
:1019200029465B68204698470546204609F01CFA80
:10193000284438BD2DE9F8434848494E494F4A4CA0
:10194000FFF728FF494B4A4A4A494B485A6013253A
:101950001D704A4D4A4AD9601E610021494E5F619F
:101960005C62494FDD624FF07C540C2598619A62AD
:101970004648474A19635E634649474E9F639C64E5
:1019800040F61C470A245D65444DD8641A65022060
:1019900001221962C3F8C060002164269F66DC66DC
:1019A0004FF496773224DD61DD631D6441F2040556
:1019B000587058721A729A6583F84410DE65A3F85D
:1019C0006470A3F86070A3F862404FF05A091D6775
:1019D0004FF47A789967D867C3F88020C3F88410E9
:1019E000C3F89C40C3F8A840DFF8B8C0C3F8A410FF
:1019F000C3F8B020C3F8B400DFF8ACE0C3F8B860B7
:101A000044F6206783F8C42083F8D010FF2641F203
:101A1000883183F8DC20052540F2D662204CC3F8DB
:101A200074906FF03300C3F8A080C3F88CC0C3F883
:101A300090E0C3F89470C3F8AC60A3F8BE50C3F84C
:101A4000C840C3F8CC00C3F89810A3F8BC10A3F8A2
:101A50008820A3F88A20BDE8F88300BFA40F010006
:101A60000000404033338340CDCCCC3D5CC1FF1FF0
:101A700020A1070066668640CDCC4C40000020C106
:101A800000008242000020420000A0409A99794064
:101A90000AD7233D333373409A99993ECDCC4C3EBF
:101AA0006C09793B0000114400F0C845F0B50021F5
:101AB00085B0112007F008FA0021102007F004FA81
:101AC0000021122007F000FA0021132007F0FCF992
:101AD00001210B2007F0F8F901210C2007F0F4F99F
:101AE0000121142007F0F0F90121152007F0ECF98D
:101AF0000121162007F0E8F90121172007F0E4F989
:101B00000121052007F0E0F9954C964D01210620B2
:101B100007F0DAF901210D2007F0D6F920880AF044
:101B200073FC0146162007F039F920880AF06CFC96
:101B30000146172007F032F920880AF065FC0146BB
:101B4000052007F02BF920880AF05EFC00240146EE
:101B5000062007F023F900942346834A83498448EA
:101B600005F0A8FEE6B232467E49814805F050FEF7
:101B70002B797C497E486FF30003013432462B7188
:101B800005F03CFE082CEDD10924E6B23246754939
:101B9000774805F03DFE2B797249754843F0010303
:101BA000013432462B7105F029FE0D2CEDD1714C1C
:101BB00023681021D3F8840006F0FCFA2368102172
:101BC000D3F8840006F08AFB23680221D3F884004E
:101BD00006F046FA23680221D3F8840006F0CEFB13
:101BE00023680F21D3F8840006F0AAFC0C21624878
:101BF00008F022FE614809F0B7F81421604808F0A7
:101C00001BFE5E4809F0B0F840F2836007F042FA2C
:101C10005A4809F0A9F817215A4808F00DFE57480C
:101C200009F0A2F8584B1B789A0600F1CF80564B6A
:101C30001B781B0700F1D680534B1B785F0700F120
:101C4000DD80514B1B789E0700F1E4804F4B1B78E1
:101C50001D0600F1EB804D4B1B785C0600F1F28015
:101C60004A4B1B78980600F1F980484B1B785907BE
:101C700000F10081454B1B781A0700F10781434BA7
:101C80001B789B0700F10E813C4809F06DF872B695
:101C90003F4A4CF220534DF628112024138023464E
:101CA0001180013BFDD13B4D3B483C4900234FF4A3
:101CB00080562E8003800B8032F80E3C9BB243F09E
:101CC000D30322F80E3C62B69D2007F08FFD21461B
:101CD0003348344D08F0B0FD284809F045F805F1C7
:101CE000E0062F462C46601B06F0F4FD04F8010BBD
:101CF000B442F8D13B78132B01D0FFF71BFE042030
:101D0000FFF79CFC284B294E002401210D201C606C
:101D100007F0C6F8B96D2648FFF738F9D7F8CC00B8
:101D2000D7F8C830BA6C97F8441000902048FFF7F5
:101D30002FF9204B20491A680392039D1B680293D8
:101D40001E4B029A1E480D601A60347006F0ACFCFF
:101D50001C4806F0A9FC1C4806F0A6FC05B0F0BD26
:101D60003487FF1F5CC2FF1FBCC4FF1F20A10700F8
:101D700020C3FF1F00C3FF1FC40F0100C887FF1F40
:101D8000D40F0100EC0F010001F0074000F0074004
:101D90000E20054004200540062005401620054081
:101DA000F01001005CC1FF1F94C0FF1F4CC1FF1F5A
:101DB0000093FF1FC8C4FF1F98C0FF1FA0C0FF1FD4
:101DC00048C2FF1FA4C2FF1F38C1FF1F212139488D
:101DD00008F032FD384808F0C7FF384B1B781B0766
:101DE0007FF52AAF0C21364808F026FD324808F06E
:101DF000BBFF324B1B785F077FF523AF0E213148C5
:101E000008F01AFD2C4808F0AFFF2C4B1B789E07FA
:101E10007FF51CAF17212C4808F00EFD264808F06E
:101E2000A3FF2A4B1B781D067FF515AF0E2128480E
:101E300008F002FD204808F097FF244B1B785C0651
:101E40007FF50EAF1221234808F0F6FC1A4808F07F
:101E50008BFF1E4B1B7898067FF507AF13211E489A
:101E600008F0EAFC144808F07FFF184B1B7859076C
:101E70007FF500AF1C21194808F0DEFC0E4808F081
:101E800073FF124B1B781A077FF5F9AE192114481E
:101E900008F0D2FC084808F067FF0C4B1B789B0742
:101EA0007FF5F2AE18210F4808F0C6FC024808F092
:101EB0005BFFE9E604100100C887FF1F01F007403F
:101EC00028100100381001004810010000F0074000
:101ED00060100100701001008410010098100100D2
:101EE000B8100100D410010070B5424C424D434877
:101EF000E66800232B70FFF715F8014630460AF01C
:101F000079FC08B104232B703C48FEF7D7FF216908
:101F10000AF070FC18B12B7843F010032B7037488F
:101F2000FFF7EEF8A16A0AF083FC18B12B7843F0B2
:101F300040032B70002631486E70FFF7E7F82F48FA
:101F4000EE70FEF7EFFF05462C482B4EFEF7B6FF6E
:101F5000014628460AF0A6F9E16B0AF069FC08B1CF
:101F60000123F370264D254800232B70FEF7DAFF7E
:101F7000616A0646E0680AF095F9014630460AF0C3
:101F800057FC08B104232B701C48FEF797FF616AC9
:101F9000064620690AF088F9014630460AF02AFC14
:101FA00018B12B7843F010032B701448FFF7A8F8F2
:101FB000A16B0646A06A0AF075F9014630460AF0A0
:101FC00037FC18B12B7843F040032B7000230B48EB
:101FD0006B70FFF79BF8A16B0546E06A084C0AF0AE
:101FE00063F9014628460AF005FC08B10123637035
:101FF00070BD00BF5CC1FF1F30C1FF1F0093FF1FFA
:102000004C92FF1F2DE9F0417C4C2368012B82B0DC
:1020100031D0022B00F0A880032B00F0C8803BBB1E
:10202000774B784AD3F8A810D3F8AC3012685B1A13
:10203000632B0EDD744803FB02F380FB0302DB1706
:10204000C3EB62131944062002B0BDE8F04106F06C
:10205000A7BD6E4803FB022380FB0302DB17C3EB23
:1020600022121144062002B0BDE8F04106F098BDEE
:1020700002B0BDE8F081664E33680A33B3F57A7F6B
:1020800000F3B780184633600AF0C2F961490AF0DC
:1020900013FA80465A4DD5F8A8000AF0B9F9074658
:1020A000D5F8AC000AF0B4F939460AF0FBF841461D
:1020B0000AF002FA58490AF0B3FA39460AF0F4F87D
:1020C0000AF0C0FB0146062006F06AFD02215348D3
:1020D00008F0B2FB524808F047FE0621514808F0CC
:1020E000ABFB30680AF094F94A490AF0E5F909F0C7
:1020F00039FD022702460B460097494808F08CFE3E
:102100000D21494808F098FBD5F8A8000AF080F99D
:10211000804630680AF07CF93E490AF0CDF906465F
:10212000D5F8AC000AF074F941460AF0BBF8014654
:1021300030460AF0C1F938490AF072FA41460AF00D
:10214000B3F809F00FFD00970B460246344808F03B
:1021500063FE3946314808F06FFB314808F004FE51
:102160002368022B7FF458AF294B254E00221A60BA
:10217000D6F8A8000AF04CF90546D6F8AC000AF0EB
:1021800047F929460AF08EF800210AF095F922490C
:102190000AF046FA29460AF087F80AF053FB01468E
:1021A000062006F0FDFC2368032B7FF438AF184BA4
:1021B000134E4FF47A721A60D6F8A8000AF028F984
:1021C0000546D6F8AC000AF023F929460AF06AF869
:1021D00011490AF071F910490AF022FA29460AF069
:1021E00063F80AF02FFB0146062006F0D9FC2368AD
:1021F00015E700234FF0000833604BE78092FF1F84
:102200005CC1FF1F3087FF1F1F85EB51CBF08D286E
:102210003CC2FF1FCDCCCC3D0000C842681F01006E
:10222000C887FF1F141101001C11010030B594482C
:10223000944C83B008F098FD914808F095FD9048C3
:1022400008F092FD0D21904808F0F6FAD4F8A43079
:10225000012B00F03F818D4D8948297800230A2207
:1022600008F092FD2B78052B0BD8DFE813F0A201C4
:10227000A701AC01B101B60106000721844808F0AE
:10228000DBFA8448FEF71AFE21690AF0B3FA002847
:1022900040F08A817F48FEF745FEE1680AF0C8FAFF
:1022A000002840F07C817B48FEF73CFE05467948DB
:1022B000FEF704FE0146284609F0F4FFE16B0AF040
:1022C000B7FA002840F066817248FEF719FFA16A4C
:1022D0000AF0AEFA002840F058816E48FEF716FF6B
:1022E000E16A0AF087FA002840F04A8102216A4830
:1022F00008F0A2FA122006F0D9FD012800F0998119
:10230000112006F0D3FD012800F08581634B1B6886
:10231000012B00F0898102215F48614C08F08CFAA2
:10232000604B5748196808F06FFD554808F01CFDD0
:1023300004215D4808F080FA0B2006F0B7FD002369
:1023400001460A224E4808F01FFD0C2006F0AEFDA3
:10235000002301460A224A4808F016FD142006F020
:10236000A5FD002301460A22454808F00DFD152071
:1023700006F09CFD0A2200230146414808F004FDB6
:1023800006214A4808F058FA2368DD074FF001019A
:102390004CBF4748474808F04FFA236898074FF06A
:1023A00001014CBF4248434808F046FA23685A07E7
:1023B0004FF001014CBF3E483E4808F03DFA23680B
:1023C0001B074CBF3A483B48012108F035FA04216D
:1023D000394808F031FA112006F068FD0023014663
:1023E0000A22274808F0D0FC102006F05FFD0023E9
:1023F00001460A22224808F0C7FC122006F056FDCA
:10240000002301460A221E4808F0BEFC132006F0F5
:102410004DFD0A2200230146194808F0B5FC182199
:10242000264808F009FA264BB3F9000009F0F0FF3E
:1024300024490AF041F809F095FB002402460B46B6
:1024400000940F4808F0E8FC1D211F4808F0F4F93B
:102450001E4BB3F9000009F0DBFF1A490AF02CF813
:1024600009F080FB009402460B46054808F0D4FCB6
:102470001748022103B0BDE8304008F0DDB900BFC5
:10248000C887FF1F5CC1FF1F2C1101004CC1FF1F3B
:10249000FC1101000093FF1F681F01006CC2FF1FA9
:1024A000F0C2FF1F5892FF1F341201003C120100BE
:1024B00044120100C0210100481201005012010025
:1024C0007C92FF1FCDCCCC3D6C120100E8C2FF1FF7
:1024D0008C1201000921644808F0AEF96348FEF748
:1024E000EDFC21690AF086F9002840F085805F48FC
:1024F000FEF718FDE1680AF09BF9002840F086809D
:102500005A48FEF70FFD05465848FEF7D7FC01462E
:10251000284609F0C7FEE16B0AF08AF9002870D15D
:102520005248FEF7EDFDA16A0AF082F900285ED15B
:102530004E48FEF7EBFDE16A0AF05CF9002851D144
:102540004B4B4A481B68012B78D0FEF7B7FC21693A
:10255000484D0AF06DF900283FF4C8AE4348FEF735
:10256000E1FCE9680AF046F900283FF4BFAE424BAF
:102570001B78052B72D00821404808F05DF9B5E6BC
:102580000D213F4808F058F9B0E60C213D4808F00D
:1025900053F9A2E611213C4808F04EF994E60E21C9
:1025A0003A4808F049F97EE60F21394808F044F925
:1025B00070E60621374808F03FF962E60721364801
:1025C00008F03AF95DE60721344808F035F958E695
:1025D0000821334808F030F953E60B21314808F060
:1025E0002BF94EE60D21264808F026F9A8E70C2124
:1025F000244808F021F99BE70F21254808F01CF931
:1026000075E71121204808F017F989E70E211F48C6
:1026100008F012F974E70A21234808F00DF9234B5A
:102620001B68012B7FF477AE1121214808F004F9D3
:1026300071E60E211F4808F0FFF861E6FEF73EFC48
:10264000216A0AF0F5F8002895D016211A4808F0FA
:10265000F3F80A21194808F0EFF847E60A2117486D
:1026600008F0EAF842E600BF3C1101000093FF1FAA
:102670008892FF1F5CC1FF1F4CC1FF1FC0110100EA
:102680008C1101007C11010068110100581101003A
:1026900048110100CC110100D4110100E811010022
:1026A000F0110100DC110100141201006CC2FF1FC7
:1026B00020120100041201009C110100B41101005C
:1026C0002DE9F04F8D4CE66F012E8FB000F0C781E1
:1026D000032E00F04381DFF87C82894F894EA36F7F
:1026E0008948012B09BF3168316801F1004131602F
:1026F00005F0A2FF3B68002B40F0E6808248DFF83F
:10270000549205F06FFF3B68C8F800000546002BA7
:1027100040F0BC80E36F794A012B00F0CB807B490D
:102720007B4F28460AF084F8002841D03B68DFF848
:10273000F89109930998D9F80030DFF81CA2C01A63
:1027400009F062FE294609F0B7FE724909F068FFF8
:10275000704909F065FFDAF8001009F0A5FD3B6843
:102760000893089BCAF80000C9F80030D4F8B000FC
:10277000694C09F04DFE294609F09EFE00233360A6
:10278000C8F800000AF05EF80146644805F09AFFB8
:1027900009F03EFE3B68624A0B9311680B9B206078
:1027A0005B1AB3F57A7F5A490ED80FB0BDE8F08FA7
:1027B0005C4928460AF01EF80028B7D13A685A4BFF
:1027C0000A920A9A1A60D1E70B680C930C9B534843
:1027D000136005F0A3FF2068544D0AF033F801465A
:1027E000534805F06FFF09F013FE524A2860136842
:1027F00001333A2B00F3088213604F4B1B68002B08
:10280000D3D04E4808F0B0FA3B680D930A2200235B
:102810000D994A4808F0B8FA0121494808F00CF827
:10282000D8F8000009F09EF9022602460B460096F1
:10283000424808F0F1FA0121414807F0FDFF206805
:1028400009F090F9009602460B463C4808F0E4FA7D
:1028500001213B4807F0F0FF286809F083F9009652
:1028600002460B46354808F0D7FA0121344807F0F4
:10287000E3FF344B186809F075F9009602460B46E1
:102880002E4808F0C9FA0FB0BDE8F08F09F06AF9D8
:10289000022502460B460095284808F0BDFA04219F
:1028A000294807F0C9FFE36FD9F80050134A012BFC
:1028B0007FF435AF254B1B68012B00F01982022BEA
:1028C00000F06981124F51E70F4805F08BFE09F0C7
:1028D00049F9022502460B460095184808F09CFA73
:1028E00003211B4807F0A8FFD4F89410134808F000
:1028F0008BFA0321164807F09FFFFFE65CC1FF1F1C
:102900009CC2FF1FE4C2FF1F78C2FF1F0000FA43F2
:10291000C8C4FF1F00007A4498C2FF1F48C2FF1FAF
:102920006492FF1F0000FAC32CC1FF1FD8C2FF1F13
:10293000A4C2FF1F44C2FF1FFC92FF1FC887FF1FD6
:102940002811010058C1FF1FD41201005487FF1F36
:10295000D012010034C1FF1FC4C2FF1FB74DB84FD2
:102960002B68DFF81083D3F884000F2101233B602C
:1029700005F0E6FD3B68B34F012B3B6800F0968005
:10298000002B40F07D812B68DFF8EC92D3F88400B7
:10299000436B19698EB2C9F8006005F05FFBB4F8AB
:1029A0008A2040F6E44303FB06F1B1FBF0F0801A05
:1029B00000B209F02DFDA449A44E8246D4F88C0043
:1029C00009F07AFD0146504609F02AFED9F8003098
:1029D0003060632BDFF8A0A200F323810023336073
:1029E0003B68002B3FF47BAE0221994807F024FF9F
:1029F0002B68D9F80050D3F8840040F6E44303FB79
:102A000005F505F02BFBB5FBF0F009F0FDFC0546E4
:102A1000B4F88A0009F0FCFC0146284609F042FCA3
:102A200009F0A0F8022502460B460095894808F0F7
:102A3000F3F92946864807F0FFFE306809F092F85E
:102A4000009502460B46834808F0E6F9294682487D
:102A500007F0F2FE29467E4807F0EEFE3FE6DFF87B
:102A60001482D4F89470D8F80050384609F0D0FC9D
:102A7000294609F0DDFE48B1784209F0C9FC01465B
:102A8000284609F0D5FE002840F064816B4D6C4F5C
:102A90002A680223D2F884003B600E2105F050FD25
:102AA0003B68684F012B3B687FF46AAF002B40F016
:102AB0005B812B68DFF8C091D3F88400436B196900
:102AC0001FFA81FBC9F800B005F0C8FAB4F88830E5
:102AD0005E4E40F6E44A0AFB0BFBBBFBF0F0C01A6B
:102AE00000B209F095FC58498346D4F8900009F0EB
:102AF000E3FC0146584609F093FD2A68D9F80030F6
:102B00003060D2F884000AFB03FA05F0A7FAB4F8A3
:102B10008830BAFBF0F00FFA80FAC3EB0A03002BFF
:102B2000B4F8BE20B8BF5B429342BCBF0023336001
:102B30003B68002B3FF4D3AD0221454807F07CFEF3
:102B40002B68D9F80050D3F8840040F6E44303FB27
:102B500005F505F083FAB4F88810B5FBF0F000B283
:102B6000411A3C4808F050F90221394807F064FE48
:102B7000306808F0F7FF022502460B4600953548FD
:102B800008F04AF90321354807F056FE2946304837
:102B900007F052FEA3E5D2F89470384609F038FCED
:102BA000294609F027FE68B9784209F031FC294628
:102BB00009F03EFE30B92A4F2A4B3A680792079A2D
:102BC0001A60D3E5264FDFF89C903B680693069881
:102BD000D9F80030DFF8A4A0C01A09F015FC294686
:102BE00009F06AFC204909F01BFD1F4909F018FD96
:102BF000DAF8001009F058FB3B680593059BCAF80A
:102C00000000C9F80030B1E50023136009F01AFE96
:102C100001461648164E05F055FD09F0F9FB3060E7
:102C2000EBE52B68D3F8840005F018FADAF80030E9
:102C300064389842FFF4D2AED2E600BF00C3FF1F53
:102C40005487FF1F9CC2FF1FACC52737E4C2FF1F7C
:102C5000681F0100C887FF1FCC120100B8120100D5
:102C6000C8C4FF1F2CC1FF1F00007A4438C1FF1FDA
:102C700058C1FF1F34C1FF1F10C3FF1FC4C2FF1F75
:102C80005748DFF89491DFF87CA108F06DF80C212B
:102C9000544807F0D1FD0C21534807F0CDFD2A68B8
:102CA0003B68D2F88400426B11698EB2C9F80060AB
:102CB000002B3FF472AE05F0D1F940F6E441002359
:102CC0000A2201FB06F1B1FBF0F1454808F05CF87F
:102CD0000221464807F0B0FDB4F88A10404808F0D9
:102CE00093F8DAF80030D9F80060D3F8840054E69D
:102CF0003F49404F284609F09BFD50B93E492846C0
:102D000009F078FD28B93A683C4B0492049A1A609D
:102D10002CE53B68DFF8E49003930398D9F8003082
:102D2000DFF8F8A0C01A09F06FFB294609F0C4FBD0
:102D3000334909F075FC324909F072FCDAF80010E9
:102D400009F0B2FA3B680293029BCAF80000C9F886
:102D500000300BE52B4D2C4F2B683E60D3F88400E0
:102D60000F2105F0EDFB05E61D48DFF8AC90254E80
:102D700007F0FAFFE36F012B4FF00B010CBF234864
:102D8000234807F059FD0C21174807F055FD2A6824
:102D90003B68D2F88400426B11691FFA81FBC9F8C5
:102DA00000B0002B3FF490AE05F058F940F6E44136
:102DB00000230A2201FB0BF1B1FBF0F1084807F0F8
:102DC000E3FF0121134807F037FDB4F888100448E9
:102DD00008F01AF83368D9F800B0D3F8840073E625
:102DE000C887FF1FBC120100A8120100681F010064
:102DF0000000FA43C8C4FF1F0000FAC32CC1FF1F24
:102E000000007A4400C3FF1F5487FF1F9012010087
:102E10009C1201002811010010C3FF1FC4C2FF1F34
:102E20002DE9F0478B4D2B6884B043B98A4B1B6862
:102E30000393039A42F210739A4200F2B580874CD2
:102E4000874F884EDFF86082D4F88420834B012AB4
:102E500003D0DA6F002A40F095808348FEF758F9D6
:102E60008249D4F86890E56E09F026FB09F010FD60
:102E7000226F636FC9EB02025B1B80B29A42C9EBFF
:102E80000000D4F85C90C6BF03FB00000132584339
:102E900090FBF2F02844A56D00FB09F005FB00F063
:102EA00000EB8000400009F0B3FA714909F0B8FB6B
:102EB0008246306005FB09F54FF47A7000FB05F09F
:102EC00009F0A6FA6A49DFF898910546504609F0DC
:102ED000F3FA294609F0A4FB664909F0EDFA09F076
:102EE000B1FC6328386047DD2846614909F098FB4A
:102EF00064233060C9F80030D8F80030002B38D097
:102F0000E36F564D012B43D0032B00F09680022B2C
:102F100000F08E800221584807F08EFC574B18684D
:102F200008F020FE022402460B460094544807F0A5
:102F300073FF2146534807F07FFC21464E4807F0B7
:102F40007BFC39684E4807F05FFF06214E4807F0CA
:102F500073FC3068464909F0AFFA08F003FE0094AC
:102F600002460B46464807F057FF0321474807F043
:102F700063FC04B0BDE8F0870028BCBF0023C9F89B
:102F80000030B9E7D6F800A0D3F85C909D6D91E7CA
:102F90003F4B1B68012B4FF00A010CBF3D483E48D8
:102FA00007F04AFCEB6FAFE72F482C4CFEF7B0F868
:102FB0002E49A76EE66E09F07FFA09F069FC226FD0
:102FC000636FD21B9B1B80B29A42A0EB07003ADDD5
:102FD00003FB0000531C90FBF3F31E44E06DA36D54
:102FE0001F4FDFF8C4803E6000FB06F003FB00F0DB
:102FF00000EB8000400009F00BFA1D49194E09F062
:103000000FFBD8F80030306001222A60002B3FF41B
:103010001BAF0221184807F00FFC194807F0A4FE67
:1030200059211E4807F008FC154807F09DFE0BE7E4
:1030300007211B4807F000FC6CE71021194807F036
:10304000FBFBE36F63E703FB00F393FBF2F31E4428
:10305000C4E700BFF892FF1FC8C4FF1F5CC1FF1F79
:103060003087FF1FC4C2FF1F0093FF1F00007A4478
:10307000E4388E3E0000C842681F010034C1FF1FC3
:10308000C887FF1FCC1201006C13010074130100EC
:103090005487FF1F3813010044130100DC120100A4
:1030A00064130100501301002487FF1F30B5112065
:1030B00083B005F0FBFE012818D0122005F0F6FEC3
:1030C000012813D000210B2005F0EAFE00210C207E
:1030D00005F0E6FE0021152005F0E2FE2649274B0B
:1030E0000120002208701A6003B030BD01211520B4
:1030F00005F0D6FE224A234C234B1268D4F89810D0
:1031000001921B68019A1D4D0B4493424FF002013E
:10311000296005D901210C2005F0C2FE03B030BDA5
:10312000D4F8A00009F074F9184B196809F062FB93
:103130000028EFD101210B2005F0B2FE94F8C43035
:1031400003242C6043B10C4B02221A7000210C2086
:1031500005F0A6FE03B030BD122005F0A7FE012841
:1031600008BF054B4FF0110008BF1C7005F09EFE14
:103170000128EBD1E7E700BF4CC1FF1FF492FF1F0E
:10318000C8C4FF1F5CC1FF1F98C0FF1F34C1FF1FD1
:10319000F0B5684E684D34682B689C4287B039D0D2
:1031A00014F0010155D014F0020149D014F00401CB
:1031B0003DD0E3070ED52B68DF070BD45F4F3A688D
:1031C000002A00F082805E4B1B680193019B9342B2
:1031D0006DD83468A0070DD52B6899070AD4594FCC
:1031E0003A68002A4CD0564B1B680393039B9342CA
:1031F00038D8346862070DD52B685B070BD4524F63
:103200003A68002A7ED04E4B1B680593059B93427B
:1032100068D834680CB107B0F0BD2146162005F01F
:10322000BFFC2146172005F0BBFC07B0F0BD052010
:1032300005F0B6FC2B68346803F0FB032B60B8E79D
:10324000172005F0ADFC2B68346803F0FD032B60FC
:10325000ACE7162005F0A4FC2B68346803F0FE03ED
:103260002B60A0E7394B1720D3F89C1005F098FC91
:103270002B68346843F0020300222B603A60B9E700
:10328000334807F071FD0C21324807F0D5FA304879
:1032900007F06AFDFF21172005F082FC284B2E4A1B
:1032A00019680291029912680A443A609CE7274B18
:1032B0001620D3F89C1005F073FC2B68346843F09B
:1032C000010300222B603A6084E7FF21162005F0FD
:1032D00067FC1B4B204A19680091009912680A4448
:1032E0003A6071E7194B0520D3F89C1005F058FCA3
:1032F0002B68346843F0040300222B603A60002CF2
:1033000089D18AE7124807F02FFD0C21134807F0F6
:1033100093FA0F4807F028FDFF21052005F040FC37
:10332000074B0D4A19680491049912680A443A60DF
:103330006AE700BFF492FF1FF0C2FF1F40C2FF1FE9
:10334000C8C4FF1F64C2FF1F68C2FF1F5CC1FF1F0C
:10335000C887FF1F781301004087FF1F88130100F3
:103360002DE9F047534EDFF870813368DFF86C9138
:10337000D3F88400504D0F2105F0E2F8002301221C
:1033800022214E48C8F80030C9F8002007F054FA4E
:10339000D8F80030132B20DC40F6E4473368B5F84A
:1033A00088A0D3F88400436B1C6904F057FEA4B2D4
:1033B000012107FB04F4B4FBF0F441485444A5F8A0
:1033C000884007F039FA642005F0A6FDD8F80030EF
:1033D0000133132BC8F80030E0DDB5F88830394AE6
:1033E0003948A2FB03129B1A02EB5303C3F30F13DA
:1033F0001946A5F8883007F007FD1D21334807F06E
:103400001BFA0221324807F017FA2F4807F0ACFCEC
:1034100032680023D2F88400C8F800300E2105F08D
:103420008FF8022322212548C9F8003007F004FA5A
:10343000D8F80030132B20DC40F6E4473368B5F8A9
:103440008A90D3F88400436B1C6904F007FEA4B291
:10345000012107FB04F4B4FBF0F419484C44A5F82F
:103460008A4007F0E9F9642005F056FDD8F80030ED
:103470000133132BC8F80030E0DDB5F88A30114A6B
:103480001148A2FB03129B1A02EB5303C3F30F1361
:103490001946A5F88A3007F0B7FC1D210D4807F042
:1034A000CBF902210A4807F0C7F90748BDE8F04701
:1034B00007F05ABC00C3FF1F5CC1FF1F9813010037
:1034C000DC13010087611886C887FF1FBC13010049
:1034D000681F0100E01301006092FF1F5487FF1F67
:1034E0002DE9F843C84DD5F8B430072B00F0898199
:1034F000C64BC74C1B68686D40F2513108222160F1
:10350000E271002B00F0788108F082FF296A0646FC
:1035100008F0D2FFBF4908F0CFFF09F0B9F980B237
:1035200003126372BC4ABD4BB2F90020B3F90030FC
:103530002072A969A37230461B121612E37222731D
:10354000667308F0B9FFB34908F0B6FF09F0A0F9B7
:1035500083B21A12AE49B248A373E27304F0A2FB1D
:10356000B04BB14A1B68AA4E1288A272DFB207EBB9
:103570008701277203EB8307490047F3D71740F20F
:10358000553E12124FF000081B122173677331462B
:103590000827A348C4F800E0E2726372E77184F878
:1035A0000E8084F80F8004F07DFB40F256339F4874
:1035B0002360E771FDF7E8FC9D4908F07DFF09F005
:1035C00067F920729948FDF7DFFC994908F074FF0C
:1035D00009F05EF9974A9649C0F3072310686372B1
:1035E00009F01EF809F02EF940FA07F203468F4859
:1035F000E272A372FDF700FD864908F05DFF09F055
:1036000021F920738948FDF7F7FC824908F054FF3F
:1036100009F018F9314640F307238148637384F8B1
:103620000E8084F80F8004F03DFB022005F074FC4E
:10363000814A824B10785178207290786172D278EA
:103640001978A072987893F801E0E2722173DA7821
:10365000A07340F25A333146714884F80DE0E273AA
:103660002360E77104F01EFB754B6D481A7859789A
:10367000227261729A78D978A272E1721A795979B4
:1036800093F806E022736173DA7984F80EE040F271
:103690005E333146E2732360E77104F003FB0220DE
:1036A00005F03AFC674B5E481A78597822726172CD
:1036B0009A78D978A272E1721A79597993F806E06A
:1036C00022736173DA79E7714FF45C7331462360DA
:1036D00084F80EE0E27304F0E5FA5B4B1B68012B03
:1036E00000F0B880022005F017FC082640F2733382
:1036F0004E482360E671FDF7E1FB544908F0DCFE1B
:1037000009F0C6F820724948FDF7D8FB4F4908F088
:10371000D3FE09F0BDF8C0F3072344486372FDF7F8
:1037200001FC4A4908F0C8FE09F0B2F8A0723F480F
:10373000FDF7F8FB454908F0BFFE09F0A9F8C0F312
:1037400007233A48E372FDF7E1FC414908F0ACFD7C
:1037500009F09EF820733548FDF7D8FC3C4908F085
:10376000A3FD09F095F8C0F3072330486373FDF714
:10377000C7FC374908F098FD09F08AF8A0732B4878
:10378000FDF7BEFC324908F08FFD09F081F82049B1
:10379000C0F307232248E37304F084FA022005F003
:1037A000BBFBA96DEB6D022211FB03F3104640F247
:1037B0007931C3F30725E27121602372657205F048
:1037C000ABFB40F2723319482360E671FDF79AFCB7
:1037D00020721648FDF796FC002340FA06F262724A
:1037E000A372E37223736373A373E37308490C48F2
:1037F000BDE8F84304F056BA08F00AFE69690646C7
:1038000086E6034CACE600BF5CC1FF1F8892FF1F39
:103810006892FF1F00002041E8C2FF1F7C92FF1F3B
:1038200020C3FF1F3087FF1F3687FF1F0093FF1F36
:103830000000C84234C1FF1F30C1FF1F4C92FF1F60
:103840005C87FF1F3887FF1F6CC2FF1F00007A4490
:10385000339388432648DFF8A890FDF72FFB296DA6
:1038600008F022FD80462248FDF75CFB01464046F9
:1038700008F0C0FF00283FF435AF40F2C3331C48C6
:10388000F7713360FDF71AFBD9F84C70394608F030
:10389000B1FFC0B11749384608F00EFE08F0F8FF36
:1038A00080B20312707233720023012704260322B0
:1038B00011491248A772E67222736373A373E3730C
:1038C00004F0F0F90EE70A48FDF7F8FA094908F0A4
:1038D000F3FD08F0DDFFC0F3072305483372FDF761
:1038E000EDFA044908F0E8FD08F0D2FF7072DBE75A
:1038F0000093FF1F00007A446892FF1F20C3FF1F40
:103900005CC1FF1FF0B59A4C9A4D83B006F02EFFB4
:1039100023682860042B00F02283092B7BD0022B24
:103920004CD1A0F13102422A7ED8DFE812F03F09E3
:103930004B095909EF0067097809870991097D004A
:103940007D007D007D007D007D007D007D007D008F
:103950007D007D007D007D007D007D007D007D007F
:103960007D007D007D007D007D007D007D007D006F
:103970007D007D007D007D007D007D007D007D005F
:103980007D007D007D007D007D007D007D007D004F
:103990007D0043007D007D007D007D007D007D0079
:1039A0007D007D007D007D007D007D007D00790033
:1039B0007D00B808FFF7D4FC23682868082B40F086
:1039C000B680332801F0168600F36A83312801F0AF
:1039D000CD85322828D106F005FF002841F3C285A5
:1039E0006548664E07F052FB08F012FD644908F086
:1039F00063FDD6F8CC20D6F8C83096F84410009273
:103A0000074602465F48B764FDF7C2FA0123692002
:103A10002360286065E3312800F05983712803D1C1
:103A20000023732023602860732808BF002B0CBF7D
:103A300001200020002867D04F4807F095F90421A5
:103A4000514806F0F9FE4C4807F08EF910214F4816
:103A500006F0F2FE484807F087F913214C4806F0BB
:103A6000EBFE4C4B4448196807F0CEF9424807F08A
:103A70007BF91421484806F0DFFE3F4807F074F94F
:103A80001E21464806F0D8FE3B4807F06DF9152187
:103A9000434806F0D1FE384807F066F91E21414838
:103AA00006F0CAFE344807F05FF920213E4806F0D0
:103AB000C3FE314807F058F919213C4806F0BCFE16
:103AC0002D4807F051F91221394806F0B5FE2A4871
:103AD00007F04AF91621374806F0AEFE264807F0EF
:103AE00043F90F21344806F0A7FE234807F03CF9BC
:103AF0000D21324806F0A0FE1F4807F035F9304A84
:103B0000002101231160236003B0F0BD0123236075
:103B100006F068FE002807DD1748184E07F0B6FAD1
:103B200008F076FCC6F89000632023682860072B15
:103B30004AD1332801F0458500F39E82312801F0F7
:103B40002A8532287FF470AF06F04CFE002839DD5C
:103B500009480A4E07F09AFA08F05AFC084908F09A
:103B6000ABFC61230122F06322602B601846B8E2AF
:103B70000CC3FF1F5492FF1FC887FF1F5CC1FF1FAC
:103B80006F12833A0093FF1FCC1D0100D41D01006A
:103B9000E81D01005087FF1FFC1D0100141E0100DD
:103BA000341E01004C1E01006C1E0100901E01001D
:103BB000AC1E0100C01E0100D81E0100E81E01005D
:103BC0002487FF1F23682868062B40F08D80A0F112
:103BD0003102402A3FF628AF01A151F822F000BF80
:103BE0001F4A00004B4A0000774A0000A14900002C
:103BF0000B4A0000C9490000ED490000293A0000C5
:103C00007B490000293A0000293A0000293A0000C7
:103C1000293A0000293A0000293A0000293A000018
:103C2000293A0000293A0000293A0000293A000008
:103C3000293A0000293A0000293A0000293A0000F8
:103C4000293A0000293A0000293A0000293A0000E8
:103C5000293A0000293A0000293A0000293A0000D8
:103C6000293A0000293A0000293A0000293A0000C8
:103C7000293A0000293A0000293A0000293A0000B8
:103C8000293A0000293A0000293A0000293A0000A8
:103C9000293A0000293A0000293A0000293A000098
:103CA000293A0000293A0000293A0000293A000088
:103CB000293A0000293A0000293A0000293A000078
:103CC000293A0000293A0000293A0000293A000068
:103CD000293A0000293A0000293A0000293A000058
:103CE000213A000023682868052B40F08D80A0F160
:103CF0003102402A3FF698AE01A151F822F000BFF0
:103D00001B4900003B4900005B4900005947000087
:103D1000D5480000F1480000293A0000293A000087
:103D2000293A0000293A0000293A0000293A000007
:103D3000293A0000293A0000293A0000293A0000F7
:103D4000293A0000293A0000293A0000293A0000E7
:103D5000293A0000293A0000293A0000293A0000D7
:103D6000293A0000293A0000293A0000293A0000C7
:103D7000293A0000293A0000293A0000293A0000B7
:103D8000293A0000293A0000293A0000293A0000A7
:103D9000293A0000293A0000293A0000293A000097
:103DA000293A0000293A0000293A0000293A000087
:103DB000293A0000293A0000293A0000293A000077
:103DC000293A0000293A0000293A0000293A000067
:103DD000293A0000293A0000293A0000293A000057
:103DE000293A0000293A0000293A0000293A000047
:103DF000293A0000293A0000293A0000293A000037
:103E00000B49000023682868032B40F0A480A0F130
:103E10003002422A3FF608AE01A151F822F000BF5D
:103E20002D3F00003F53000067530000C5530000C2
:103E3000E753000009540000575200007F52000071
:103E40009D52000017530000293A0000293A000053
:103E5000293A0000293A0000293A0000293A0000D6
:103E6000293A0000293A0000293A0000293A0000C6
:103E7000293A0000293A0000293A0000293A0000B6
:103E8000293A0000293A0000293A0000293A0000A6
:103E9000293A0000293A0000293A0000293A000096
:103EA000293A0000293A0000293A0000293A000086
:103EB000293A0000293A0000293A0000293A000076
:103EC000293A0000293A0000293A0000293A000066
:103ED000293A0000293A0000293A0000293A000056
:103EE000293A0000A7510000D54C0000895100007C
:103EF000C5510000E3510000015200006D4C00006C
:103F0000914C0000293A0000B74C0000E352000039
:103F1000293A0000293A0000293A0000293A000015
:103F2000293A00000B530000C352000006F05AFC6F
:103F3000002841F31083BC48BC4E07F0A7F80127C6
:103F4000034601466222BA48B36527602A60FDF73E
:103F50001DF823682868012B7FF466ADC1E0A0F14D
:103F60003002412A3FF660AD01A151F822F000BFB6
:103F7000594B00006D4B0000B94A0000D14A0000C7
:103F8000F74A0000FB4A0000714B0000834B000021
:103F9000874B00008B4B0000293A0000293A0000B3
:103FA000293A0000293A0000293A0000293A000085
:103FB000293A0000293A0000293A0000293A000075
:103FC000293A0000293A0000293A0000293A000065
:103FD000293A0000293A0000293A0000293A000055
:103FE000293A0000293A0000293A0000293A000045
:103FF000293A0000293A0000293A0000293A000035
:10400000293A0000293A0000293A0000293A000024
:10401000293A0000293A0000293A0000293A000014
:10402000293A0000293A0000293A0000293A000004
:10403000293A0000293A0000293A0000293A0000F4
:10404000293A0000293A0000293A0000293A0000E4
:10405000293A0000293A0000293A0000293A0000D4
:10406000293A0000293A0000293A0000293A0000C4
:10407000293A0000213A000034287FF4CFAC06F042
:10408000B1FB00287FF79EAD6748684E06F0FEFF43
:1040900061230122A6F8BC0022602B60184620E0B4
:1040A00034287FF4BBAC06F09DFB002841F35A8214
:1040B0005D485E4E06F0EAFF4742D6F8C830B26C63
:1040C00096F844105A480097C6F8CC709CE4574EB6
:1040D00096F8D03001225340782086F8D030226004
:1040E0002860A0F15203262B01F22C82DFE813F0A6
:1040F000250A2A0A2A0A2A0A2A0A2A0A2A0A2A0A25
:104100002A0A2A0A2A0A2A0A2A0A2A0A2A0A29001A
:10411000BF0BC5021E025C012A0A2A0A2A0AF00005
:104120002A0ABC0B2A0A2A0A2A0A2A0A2A0A130A73
:104130002A0A2A0A2A0A2A0A2A0A2A0AB60006F09B
:1041400015FB06F04FFB05460028F8D13648374EE0
:1041500006F00AFE344806F007FE334806F004FE77
:10416000314806F001FE304806F0FEFD1F213148BF
:1041700006F062FB2C4806F0F7FD1C212E4806F0E5
:104180005BFB706A2D4908F097F907F0EBFC00958E
:1041900002460B46244806F03FFE0221284806F05E
:1041A0004BFB214806F0E0FD2321264806F044FBA6
:1041B000F06B224908F080F907F0D4FC0095024624
:1041C0000B46194806F028FE02211D4806F034FB74
:1041D000154806F0C9FD19211B4806F02DFBB06BF0
:1041E00007F0C0FC02250B46024600950E4806F07B
:1041F00013FE2946154806F01FFB0B4806F0B4FDD8
:104200001021134806F018FBB6F8BC10064806F05B
:10421000FBFD03210F4806F00FFB034806F0A4FD49
:104220000723236070E400BFC887FF1F5CC1FF1F26
:104230000093FF1F8C160100AC16010000007A44A9
:10424000B4140100CC160100F0160100881601001C
:104250000C1701002017010006F088FA06F0C2FAD8
:104260000028F9D19B4806F07FFD9A4806F07CFDB6
:10427000984806F079FD974806F076FD954806F0D7
:1042800073FD1221944806F0D7FA924806F06CFDAF
:10429000904806F069FD1621904806F0CDFA904B43
:1042A00093F8D030002B41F0CC8104218D4806F0EA
:1042B000C3FA884806F058FD13218B4806F0BCFA73
:1042C000844806F051FD092323601DE406F04EFAF0
:1042D00006F088FA05460028F8D17E48804E06F0A0
:1042E00043FD7C4806F040FD7A4806F03DFD7948E4
:1042F00006F03AFD774806F037FD15217B4806F0B9
:104300009BFA744806F030FD1821794806F094FABB
:104310002B460A2296F844106E4806F035FD6D488B
:1043200006F022FD2821734806F086FAB06C724927
:1043300008F0C2F807F016FC009502460B466548E7
:1043400006F06AFD02216D4806F076FA614806F033
:104350000BFD19216A4806F06FFAD6F8C80007F07D
:1043600001FC04250B46024600955A4806F054FD10
:10437000584806F0F9FC1821624806F05DFAD6F8B4
:10438000CC10544806F040FD524806F0EDFC1321D5
:10439000554806F051FA4F4806F0E6FC0823236022
:1043A000FFF7B2BB06F0E2F906F01CFA054600285A
:1043B000F8D148484A4E06F0D7FC464806F0D4FCEF
:1043C000444806F0D1FC434806F0CEFC414806F0D4
:1043D000CBFC11214C4806F02FFA3E4806F0C4FCF5
:1043E00028214A4806F028FA7069434908F064F821
:1043F00007F0B8FB009502460B46364806F00CFD68
:1044000002213E4806F018FA324806F0ADFC1621AB
:104410003F4806F011FAF069374908F04DF807F007
:10442000A1FB00950B4602462A4806F0F5FC022146
:10443000324806F001FA274806F096FCD6F8B43068
:10444000002B34DD1D21334806F0F6F9B6F9600083
:1044500007F0DEFF304908F02FF807F083FB022554
:1044600002460B4600951B4806F0D6FC01212B485E
:1044700006F0E2F9174806F077FC1F21284806F0FD
:10448000DBF9B6F9620007F0C3FF234908F014F81E
:1044900007F068FB009502460B460E4806F0BCFC90
:1044A00001211E4806F0C8F90A4806F05DFC1121FA
:1044B0001C4806F0C1F9D6F8B430072B00F2BC87CF
:1044C000DFE813F01F0824081A08150810080B0865
:1044D0000608B607C887FF1FC41E01002414010088
:1044E0005CC1FF1F3C14010058140100941E010020
:1044F0006C1401008814010000007A44B414010017
:10450000B8140100D4140100381E0100F014010099
:104510001C15010034150100CDCCCC3D701A0100F2
:10452000541501007415010006F020F906F05AF93F
:104530000028F9D1934806F017FC924806F014FCC5
:10454000904806F011FC8F4806F00EFC8D4806F0EE
:104550000BFC13218C4806F06FF98A4806F004FC26
:104560000D218A4806F068F9864806F0FDFB0F2108
:10457000874806F061F9874B8248196806F044FCC9
:10458000804806F0F1FB1321834806F055F9834B70
:104590007C48196806F038FC7A4806F0E5FB1221E1
:1045A0007F4806F049F97F4B7648196806F02CFCE5
:1045B000744806F0D9FB11217B4806F03DF97B4B8E
:1045C0007048196806F020FC6E4806F0CDFB0E21FD
:1045D000774806F031F9774B6A48D3F8A41006F013
:1045E00013FC684806F0C0FB1921734806F024F953
:1045F000724B6448196806F007FC624806F0B4FB89
:1046000011216F4806F018F96E4B5E48196806F0E4
:10461000FBFB5C4806F0A8FB10216B4806F00CF988
:104620006A4B5848196806F0EFFB564806F09CFBA9
:104630001C21674806F000F9664B5248196806F0DD
:10464000E3FB504806F090FB1B21634806F0F4F8AA
:10465000624B4C48197806F0D7FB4A4806F084FBB9
:1046600013215F4806F0E8F8464806F07DFB042376
:104670002360FFF749BA06F079F806F0B3F800288E
:10468000F9D140484B4E06F06FFB3E4806F06CFBFC
:104690003C4806F069FB3B4806F066FB394806F0EB
:1046A00063FB1F214F4806F0C7F8364806F05CFB55
:1046B0001E214D4806F0C0F8324806F055FB1A217D
:1046C0004A4806F0B9F8F36F022B01F09880032BEB
:1046D00001F08C80012B01F080800921444806F014
:1046E000ABF8284806F040FB14214248314D06F053
:1046F000A3F8B16F234806F087FB224806F034FB8D
:104700001C213D4806F098F8D6F884101D4806F0A4
:104710007BFB1C4806F028FB1C21384806F08CF86F
:10472000D6F8B010174806F06FFB164806F01CFBD1
:10473000F36F23F00202012A00F0CC87022B01F074
:1047400067801321264806F077F80E4806F00CFB28
:1047500002232360FFF7D8B906F044F800287FF75A
:1047600051AB0848134E06F091FC164BC6F8A80052
:1047700002221A60FDF746FC01226B2322602B60A7
:1047800040E000BFC887FF1F301801004418010037
:1047900054180100FCC2FF1F641801009CC2FF1FD7
:1047A00078180100B8C2FF1F8C18010050C1FF1F0C
:1047B000A01801005CC1FF1FB01801005892FF1F34
:1047C000CC1801008092FF1FE01801004892FF1FE3
:1047D000F41801004C87FF1F14190100F8C2FF1FD5
:1047E000581401003019010050190100701901001E
:1047F000E8190100F41901000C1A01002C1A01003B
:1048000005F0B4FF05F0EEFF0028F9D1C248C34D12
:1048100006F0AAFAC04806F0A7FABF4806F0A4FAC4
:10482000BD4806F0A1FABC4806F09EFA2121BC481A
:1048300006F002F8B84806F097FA1521B94805F0D5
:10484000FBFFD6F89810B44806F0DEFA0221B6480D
:1048500005F0F2FFB04806F087FA1E21B34805F0D4
:10486000EBFFD6F8A010AC4806F0CEFA0321B04812
:1048700005F0E2FFA84806F077FA1E21AD4805F0E2
:10488000DBFFD6F89C10A44806F0BEFAA24806F05A
:104890006BFA1D21A84805F0CFFFD6F8A8109E4856
:1048A00006F0B2FA9C4806F05FFA1E21A34805F014
:1048B000C3FFD6F8AC10984806F0A6FA964806F062
:1048C00053FAD6F8A430012B00F0B48705232360F7
:1048D000FFF71AB905F086FF00287FF793AA8E48E4
:1048E0008E4E06F0D3FB964BC6F8AC00032240E791
:1048F0008A4E96F8DC30B3FA83F35B0901216B2210
:1049000086F8DC3021602A607CE78D4A0023732022
:10491000136023602860FFF787B805F063FF002865
:104920007FF770AA7C487D4E06F0B0FB01226B2316
:10493000C6F8980022602B6064E705F053FF00285A
:104940007FF760AA7448754E06F0A0FB01226B2326
:10495000C6F8A00022602B6054E705F043FF002852
:104960007FF750AA6C486D4E06F090FB01226B2336
:10497000C6F89C0022602B6044E705F033FF002856
:104980007FF7B0A96448654E06F080FB07F040FD54
:1049900065230122306322602B601846FFF7A1BB1C
:1049A00005F020FF00287FF79DA95B485B4E06F0CD
:1049B0006DFB00EB8000430001226520A6F8623009
:1049C00022602860FFF78DBB05F00CFF00287FF701
:1049D00089A95148514E06F059FB65230122C6F8BA
:1049E000B80022602B601846FFF77BBB4B4B93F857
:1049F000C420002A00F02086002283F8C42001236E
:104A0000652023602860FFF76CBB444AD2F8B430BD
:104A10000133072BC8BF0023C2F8B430EFE705F01D
:104A2000E1FE00287FF75EA93B483C4E06F02EFBD6
:104A300007F0EEFC434907F0F3FD652301227061A6
:104A400022602B601846FFF74CBB05F0CBFE002818
:104A50007FF748A93048314E06F018FB07F0D8FC24
:104A6000384907F0DDFD65230122F06122602B60EB
:104A70001846FFF736BB05F0B5FE00287FF732A9D0
:104A80002548264E06F002FB00EB80004300012281
:104A90006520A6F8603022602860FFF722BB1F4A1D
:104AA000D36F0133032BC8BF0023D36701236320D7
:104AB00023602860FFF715BB234A1368B3FA83F31A
:104AC0005B0901216420136021602860FFF709BBA6
:104AD0001E4A1F4F1368002B0CBF012300234FF009
:104AE00001001360206040F06286034664222A6061
:104AF0006420FEF714BF174ADFE7084ED6F8A4304B
:104B0000B3FA83F35B0901226420C6F8A430226063
:104B10002860FFF7E6BA00BFC887FF1F5CC1FF1F10
:104B200024170100481701001C160100601701003E
:104B3000B812010080170100A0170100C017010082
:104B40008092FF1F00007A449CC2FF1FB8C2FF1F63
:104B50000CC3FF1F50C1FF1F664A137801214B4051
:104B60006420137021602860FFF7BBBA624AA4E793
:104B7000012362482360FCF789F8614A23681060CA
:104B8000B4E7604A99E7604A97E70123236005F09C
:104B900029FE002800F35E855C4B1A68042AC4BF16
:104BA00002221A6064232B602368A1E7584EB36F7A
:104BB000B3FA83F35B0901226320B36722602860A4
:104BC000FFF78FBA524ED6F88430B3FA83F35B09FD
:104BD00001226320C6F8843022602860FFF781BA82
:104BE0000123236005F0FEFD00287FF75FAF4948F1
:104BF000474E06F04BFAC6F8B00057E70123236092
:104C000005F0F0FD00287EF78FAF4248404E06F0D9
:104C10003DFA07F0FDFBC6F88C00FEF785BF0123C7
:104C2000236005F0DFFD00287EF77EAF3948384E5F
:104C300006F02CFAA6F8BE00FEF776BF344BD3F888
:104C40008020012A0CBF02220122C3F880202DE718
:104C50000123236005F0C6FD00287FF727AF2D480C
:104C60002B4E06F013FAC6F894001FE705F0BAFDC4
:104C700000280DDD2748264E06F008FA07F0C8FB8D
:104C8000254907F0CDFC01226223306222602B60AF
:104C900005F0A8FD00280EDD1E481D4E06F0F6F9B1
:104CA00007F0B6FB1C4907F0BBFC01226223C6F8E3
:104CB000C00022602B6005F095FD00280ADD154834
:104CC000134E06F0E3F907F0A3FB012262237063A1
:104CD00022602B6005F086FD002840F33C840D48DF
:104CE0000B4E06F0D3F901226223B06622602B60DE
:104CF00016E000BFF8C2FF1FFCC2FF1F0093FF1F9A
:104D00005892FF1F8092FF1F4892FF1F4C87FF1F82
:104D10005CC1FF1FC887FF1F00007A4405F026FD15
:104D200005F060FD07460028F8D1C34806F01CF8DE
:104D3000C14806F019F8C04806F016F8BE4806F05B
:104D400013F8BD4806F010F81521BC4805F074FDB5
:104D5000B94806F009F81421B94805F06DFDB648C8
:104D600006F002F81B21B74805F066FDB24805F0D1
:104D7000FBFF1321B44805F05FFDAF4805F0F4FFD9
:104D8000AD4805F0F1FFAC4805F0EEFF2021AF483B
:104D900005F052FDF068AE4907F08EFB06F0E2FE2A
:104DA000009702460B46A44806F036F80221A948AF
:104DB00005F042FD0221A84805F03EFD9E4805F0A1
:104DC000D3FF2121A54805F037FD3069A04907F040
:104DD00073FB06F0C7FE009702460B46964806F0A6
:104DE0001BF802219B4805F027FD02219A4805F097
:104DF00023FD914805F0B8FF1F21994805F01CFDDF
:104E0000B06A06F0AFFE022502460B4600958A48BE
:104E100006F002F80121934805F00EFD29468E4860
:104E200005F00AFD844805F09FFF20218E4805F01B
:104E300003FDF06A06F096FE009502460B467E489A
:104E400005F0EAFF0121874805F0F6FC2946824873
:104E500005F0F2FC784805F087FF2321834805F030
:104E6000EBFCF06C7A4907F027FB06F07BFE00971D
:104E700002460B46704805F0CFFF2946754805F0FD
:104E8000DBFC2946744805F0D7FC6B4805F06CFF45
:104E90001F21774805F0D0FC306D6D4907F00CFB01
:104EA00006F060FE009702460B46634805F0B4FF2B
:104EB0002946684805F0C0FC2946674805F0BCFC57
:104EC0005D4805F051FF19216A4805F0B5FCF16D08
:104ED000594805F099FF2946674805F0ADFC294679
:104EE0005D4805F0A9FC544805F03EFF18216348D1
:104EF00005F0A2FCB6F9640007F08AFA604907F0F1
:104F0000DBFA06F02FFE009502460B464A4805F0F4
:104F100083FF01215B4805F08FFC29464E4805F0D0
:104F20008BFC454805F020FF2B21574805F084FCF9
:104F3000B069474907F0C0FA06F014FE0097024630
:104F40000B463D4805F068FF2946424805F074FCD1
:104F50002946414805F070FC374805F005FF1F2140
:104F60004A4805F069FCB16D334805F04DFF29460C
:104F7000394805F061FC304805F0F6FE2021444830
:104F800005F05AFC716D2C4805F03EFF2946324869
:104F900005F052FC284805F0E7FE10213D4805F0D9
:104FA0004BFCB16E244805F02FFF2946294805F037
:104FB00043FC2946284805F03FFC1F4805F0D4FE75
:104FC0001321354805F038FCF16E1B4805F01CFF35
:104FD0000121324805F030FC29461F4805F02CFC21
:104FE000154805F0C1FE10212D4805F025FC316F54
:104FF000114805F009FF2946164805F01DFC294611
:10500000154805F019FC0C4805F0AEFE14212548A2
:1050100005F012FC716F084805F0F6FE01211F48EB
:1050200005F00AFC29460C4805F006FC024805F08C
:105030009BFE162138E000BFC887FF1F181B010028
:10504000301B0100481B010058140100641B0100C3
:1050500000007A44B4140100681F0100881B01009D
:10506000AC1B0100580F0100CC1B0100F01B01001C
:10507000141C0100341C0100501C0100541C0100D0
:10508000CDCCCC3D701A0100701C01009C1C0100AD
:10509000BC1C0100E01C0100F41C0100081D010003
:1050A0000C1D0100201D0100B94805F0C5FB306A48
:1050B000B84907F001FA06F055FD009702460B4685
:1050C000B54805F0A9FE2946B44805F0B5FB2946C8
:1050D000B34805F0B1FBB04805F046FE2421B148C5
:1050E00005F0AAFBD6F8C000AA4907F0E5F906F0DA
:1050F00039FD009702460B46A74805F08DFE29466C
:10510000A64805F099FB2946A54805F095FBA2485D
:1051100005F02AFE2B21A44805F08EFB706B06F0EB
:1051200021FD009502460B469B4805F075FE0121C6
:105130009E4805F081FB2946994805F07DFB96487D
:1051400005F012FE27219A4805F076FB306C914954
:1051500007F0B2F906F006FD00970B4602468E48AE
:1051600005F05AFE29468D4805F066FB29468C4815
:1051700005F062FB884805F0F7FD874805F0F4FD6F
:1051800003232360FEF7C0BC05F02CFB002840F38E
:10519000E2818148874E05F079FF01226223F066A3
:1051A00022602B60BCE505F01DFB002840F3D38195
:1051B0007948804E05F06AFF012262237065226003
:1051C0002B60ADE505F00EFB002840F3C48172486A
:1051D000784E05F05BFF01226223306722602B606E
:1051E0009EE505F0FFFA002840F3B5816A48714E4C
:1051F00005F04CFF01226223706722602B608FE56F
:10520000FCF798FB022166486A4E05F015FB6248E0
:1052100005F0AAFD0221624805F00EFB5E4805F08C
:10522000A3FD02215E4805F007FB5B4805F09CFDED
:105230001721614805F000FB574805F095FD022154
:10524000574805F0F9FA544805F08EFD0122622313
:1052500022602B6064E505F0C5FA002840F37B81ED
:105260004D48544E05F012FF07F0D2F8494907F0B7
:10527000D7F901226223306522602B6050E505F0EA
:10528000B1FA002840F3678143484A4E05F0FEFE1C
:1052900001226223F06522602B6041E505F0A2FA4D
:1052A000002840F358813C48424E05F0EFFE00EBE9
:1052B0008000430001216222A6F8643021602A6048
:1052C0002EE53E4B36483B4E002202211A6005F087
:1052D000B3FA314805F048FD0B21394805F0ACFA26
:1052E000ADE705F07FFA002840F335812A48314EBA
:1052F00005F0CCFE07F08CF8264907F091F9012261
:105300006223306422602B600AE50022732322604E
:105310002B60FEF791BB05F065FA002840F31B8176
:105320001D48244E05F0B2FE07F072F8194907F047
:1053300077F901226223B06122602B60F0E405F06E
:1053400051FA002840F3078113481A4E05F09EFEDB
:1053500007F05EF80F4907F063F901226223F0605D
:1053600022602B60DCE405F03DFA002840F3F38076
:105370000948104E05F08AFE07F04AF8054907F083
:105380004FF901226223306122602B60C8E400BF24
:10539000381D010000007A44C887FF1FB4140100C3
:1053A000681F0100501D0100781D0100580F010009
:1053B000A41D01005CC1FF1F00140100F892FF1F33
:1053C0001814010005F00EFA002840F3C480A54827
:1053D000A54E05F05BFE07F01BF801226223B062C8
:1053E00022602B609CE405F0FDF9002840F3B380B7
:1053F0009C489D4E05F04AFE07F00AF80122622300
:10540000F06222602B608BE405F0ECF9002840F399
:10541000A2809448944E05F039FE06F0F9FF9349B6
:1054200007F0FEF801226223F06422602B6077E42B
:1054300010218F4805F000FA8A488B4D05F094FC46
:10544000D6F8B430002B12DD18218A4805F0F4F9A3
:10545000D5F8B810834805F0D7FC0221864805F03E
:10546000EBF9804805F080FC7E4805F07DFC1B21AF
:10547000824805F0E1F996F8C430012B15BF1221DE
:1054800014217F487F4805F0D7F9764805F06CFC79
:105490001F217D4805F0D0F9306B06F063FB022533
:1054A0000B46024600956F4805F0B6FC2946774842
:1054B00005F0C2F96B4805F057FC1321744805F05C
:1054C000BBF9684805F050FC06232360FEF71CBBBF
:1054D0000421704805F0B0F9AEE70B216E4805F0E5
:1054E000ABF9A9E70D216D4805F0A6F9A4E70D2158
:1054F0006B4805F0A1F99FE70C216A4805F09CF97B
:105500009AE70D21684805F097F995E70C2167485F
:1055100005F092F990E7E0220021534803F0F4F9F6
:105520002868634AA0F1730001210023B0FA80F0DB
:10553000400911602360FEF77DBA5E4B5E4A1A6037
:10554000FEF7E2BA2368002B08BF73280CBF0120C6
:105550000020FEF76FBA23682868012B7EF464AA46
:10556000FEF7BFBD23682868FEF7E1BA05F03AF9F7
:10557000002859DC3C4E96F84400172834D9002105
:1055800086F84410D6F8CC00D6F8C830B26C00903B
:105590004A48FEF739BA05F025F900287EF712AB24
:1055A0003048314E05F072FD06F032FF444906F0F6
:1055B00083FF61230122706222602B601846FEF790
:1055C00090BD05F00FF900287EF7FCAA2548264E6D
:1055D00005F05CFD06F01CFF61230122B063226030
:1055E0002B601846FEF77DBD364BC340DB07C6D5A2
:1055F0000146C7E705F0F6F80028B3DD19481A4E52
:1056000005F044FD06F004FF2F4906F055FFD6F8DB
:10561000CC30B26C96F84410009307460346C6F8A7
:10562000C8702648FEF7F0B90E480F4E05F02EFD63
:10563000C0B286F84400A0E7012283F8C420FFF737
:10564000DEB91121214805F0F7F8064805F08CFB7A
:10565000FEF732BE034805F019FD1D4B02461860E7
:10566000FFF79CBAC887FF1F5CC1FF1F00007A4488
:10567000EC150100001601001C16010020160100A7
:105680003C16010050160100681601008816010042
:1056900058140100E4150100D8150100C8150100D7
:1056A000B8150100A8150100881501009815010022
:1056B0002487FF1F0CED00E00400FA050093FF1F94
:1056C0006F12833A0F30800017B7D13844140100AD
:1056D0004C87FF1F1C21674805F0AEF8D5F89000F5
:1056E000654906F0E9FE06F03DFA02270B46024640
:1056F0000097624805F090FB0521614805F09CF891
:105700005E4805F031FBEB6F012B18D11D215D4880
:1057100005F092F8D5F88C00574906F0CDFE06F05A
:1057200021FA00970B460246544805F075FB052107
:10573000534805F081F8514805F016FBEB6F23F054
:105740000202012A7EF4FAAF1C214F484F4D05F0AA
:1057500073F8B6F8BE10494805F056FB03214C48D3
:1057600005F06AF8454805F0FFFAF36F012B7EF467
:10577000E5AF1F21474805F05FF8D5F8940006F023
:1057800047FE454906F098FE06F0ECF902270B4665
:1057900002460097394805F03FFB39463F4805F07F
:1057A0004BF8364805F0E0FAEB6FFEF7C7BF3C4B0D
:1057B000002631460B201E6003F072FB31460C20A0
:1057C00003F06EFB3146142003F06AFB31461520CE
:1057D00003F066FB3B68FFF789B91E21314805F0ED
:1057E0002BF8264805F0C0FAFEF77EBF20212E4890
:1057F00005F022F8214805F0B7FAFEF775BF17212A
:105800002A4805F019F81D4805F0AEFAFEF76CBFFE
:10581000172127481D4D05F00FF8D6F88030012BD1
:105820001BD0022B7EF48DAF22491448FCF770F890
:10583000FEF787BF2021204804F0FEFF95F8DC30FA
:105840002BB91E490D48FCF763F8FFF73FB81C4918
:105850000A48FCF75DF8FFF739B81A490748FCF722
:1058600057F8D5F88030DCE7084EFEF7CBBF074E7F
:10587000FFF756BA4C1A01000AD7233CC887FF1F0E
:105880006C1A0100741A0100941A01005CC1FF1F18
:10589000B41A0100B81A01006F12833A8C12010089
:1058A000F492FF1F8C190100AC190100D0190100FE
:1058B000D81A0100041B0100E017010004180100C0
:1058C00010180100F01A010038B5164C164A23686A
:1058D000101D12F8011F904241EA0323F9D1236001
:1058E000124C03F100432360114BDB6F022B11D0EC
:1058F000104B1B68012B00D038BD0F4805F034FA5F
:1059000021680D4805F080FA03210C48BDE83840B5
:1059100004F092BF20680A4D06F07AFD2860FCF77B
:10592000CFFEE5E7ECC2FF1FCFC2FF1FEC92FF1FC7
:105930005CC1FF1FFCC2FF1FC887FF1FF81E0100CC
:10594000E4C2FF1F30B5604C604D614883B0214612
:1059500002F0A0F8D5F880202368012A74D0022A2A
:1059600063D06FF4C0615A18B2F5FF7F4FD903F1CD
:1059700000436FF4C0621344B3F5FF7F05D9554B64
:105980001B68012B09D003B030BD4F495248FBF7CB
:105990009BF9504B1B68012BF5D1504B1B68012B19
:1059A000F1D14F4B4F481B6801930A220023019904
:1059B00005F0EAF92268444B002ADB797CDB4A498E
:1059C0004A4807F041FD494807F07AFD014647483B
:1059D00004F032FF25683C4B15F080455DD1DB7942
:1059E0008BB1631942491A7A404807F02DFD3F48B0
:1059F00007F066FD01463D4804F01EFF0135E379DE
:105A0000EDB2AB42EDD8374805F0AEF9BBE72E4911
:105A10003148FBF759F923686FF4C06203F1004382
:105A20001344B3F5FF7FAAD8AFE740F22252934266
:105A300030D040F2235293421ED040F22152934282
:105A40008FD12C492C4819E0B3F5547F09D040F28E
:105A5000C232934285D1FFF737FFD5F88020236803
:105A60007DE7264AE31D04F10D0013F8011F02F83B
:105A7000011B8342F9D182E71E4921480D794A79F9
:105A8000CB78897802EB052202EB034303EB016339
:105A9000036074E717491B48F0E71B4D134C0FCD0B
:105AA0000FC495E8030044F8040B204620F81419AD
:105AB000152104F0C1FEA6E714490C4822F060420B
:105AC00007F0C2FC7FE700BFC8C2FF1F5CC1FF1F19
:105AD00020C3FF1F2487FF1F0093FF1FFCC2FF1F6F
