:1000000000800020BD010000599100001191000006
:100010001191000011910000119100001191000058
:100020001191000011910000119100005991000000
:1000300059910000119100006D8700007188000047
:100040005991000059910000599100005991000008
:1000500059910000599100005991000059910000F8
:1000600059910000599100005991000059910000E8
:1000700059910000599100005991000059910000D8
:1000800059910000599100005991000059910000C8
:1000900059910000599100005991000059910000B8
:1000A00059910000599100005991000059910000A8
:1000B00059910000D97C0000E57C0000E97C00003B
:1000C000F57C0000F97C0000FD7C000059910000E7
:1000D0005991000059910000599100005991000078
:1000E0005991000059910000599100005991000068
:1000F00059910000EDB30000599100004D9E0000A1
:100100005991000065A1000059910000599100002B
:100110005991000059910000599100005991000037
:100120005991000059910000599100005991000027
:100130005991000059910000599100005991000017
:100140005991000059910000599100005991000007
:1001500059910000599100005991000059910000F7
:1001600059910000F5A30000599100005991000039
:1001700059910000599100005991000059910000D7
:1001800059910000599100005991000059910000C7
:1001900059910000599100005991000059910000B7
:1001A00059910000599100005991000059910000A7
:1001B000599100005991000059910000564B4CF2A2
:1001C000205210B51A804DF628121A8000BF00BFC9
:1001D00008F0C6FF514B4FF010621A60504A9A6007
:1001E000504ADA60504A136813F4807304D14F49BF
:1001F0000B604FF4A85313604D4B1A78110703D5C9
:100200001A7842F008021A704A4B4B492A221A7097
:100210004A4A4B4B8B4204D252F8040F43F8040B6A
:10022000F8E7484B484900228B4202D243F8042B9E
:10023000FAE74649464A002352F8230041F82300D2
:1002400001336F2BF8D1434B434A802103F8011B44
:100250009342FBD1414B3D4A1A60414B8A221A70AE
:10026000A3F5805324225A70A0221A709A7992071B
:10027000FCD59A79D406FCD43A4A937903F00C035E
:10028000082B384BF9D103221A7140225A719A79FE
:100290009006FCD5334A9179324B4906FBD5324A58
:1002A000324911600221516020221A709A7902F0BD
:1002B0000C020C2AFAD12E4B2E4A1A602E4B2F4AD2
:1002C0001A6000225A60072243F8042C2C4AC3F813
:1002D0000C2D62B609F024FA144B1B68DA0705D519
:1002E000284809F001F8284B284A1A60284B1B7847
:1002F0005B0609D5244C254B22689A4204D121483B
:1003000008F0F2FF002323600DF070FB08F02EFFD1
:1003100008F05CFEFEE700BF0E2005403080044080
:10032000823F04000100002B10D0034014D0034092
:1003300002D0074000E007402892FF1FF437010079
:100340002087FF1F2892FF1FB8C7FF1F0082FF1FD3
:100350000000000000E400E05FE400E008ED00E0E1
:100360000050064000400640448004400000030165
:1003700004800440C010050014E000E0FF76010096
:1003800000002020806BD85D1CE00340A5C3945A78
:1003900000F00740FFFFFFFFFFFFFFFFFFFFFFFF32
:1003A000FFFFFFFFFFFFFFFFFFFFFFFFFFFFFFFF5D
:1003B000FFFFFFFFFFFFFFFFFFFFFFFFFFFFFFFF4D
:1003C000FFFFFFFFFFFFFFFFFFFFFFFFFFFFFFFF3D
:1003D000FFFFFFFFFFFFFFFFFFFFFFFFFFFFFFFF2D
:1003E000FFFFFFFFFFFFFFFFFFFFFFFFFFFFFFFF1D
:1003F000FFFFFFFFFFFFFFFFFFFFFFFFFFFFFFFF0D
:10040000FFFFFFFFFFFFFFFFFFFFFFFFDEF9FFFF23
:1004100010B5054C237833B9044B13B10448AFF33E
:1004200000800123237010BD2892FF1F00000000F0
:10043000F0370100084B10B51BB108490848AFF36D
:1004400000800848036803B910BD074B002BFBD0A0
:10045000BDE81040184700BF000000002C92FF1FAD
:10046000F03701002892FF1F00000000F0B400F1F7
:100470001C06134F00243146031F00F13C0243F8D1
:10048000044FB34241F8047F4FF0000542F8044F97
:10049000F5D100230B4A0C4C056647F230514566F6
:1004A0008566C566C56744670267826780F88430E1
:1004B00080F8853080F89C30A0F8AE10F0BC704712
:1004C0000000A040000048430000C8C22DE9F041F0
:1004D00090F89C4084B0202364008DF80530E4B28D
:1004E000042380468DF804408DF80630032720460B
:1004F00009F0D4FD02210DF1050009F0D9FD8DF8B8
:10050000044001F01BFD30B3092140480AF008FE09
:100510000023102221463E4808F068FA01213D4898
:100520000AF0FEFD002310229DF80510384808F05F
:100530005DFA012137480AF0F3FD002310229DF8EF
:100540000610334808F052FA012132480AF0E8FD5B
:100550002F4808F03BFA02208DF8044009F092F889
:1005600001F0ECFC00284CD102AE002409F0B6FDED
:1005700070B3072C1FD101E009F0C0FD09F0AEFDFA
:100580000028F9D101F0DAFC10B1214808F01EFA78
:100590009DF80B009DF80C109DF80D209DF80E3075
:1005A000C8F88800C8F88C10C8F89020C8F89430B3
:1005B00004B0BDE8F08109F0A1FD054606F8010B85
:1005C00001F0BCFC70B9013409F088FD0028D0D1DD
:1005D000072CD3D001F0B2FC78B9013FD8D09DF8F8
:1005E000044084E7E9B200231022094808F0FEF92C
:1005F000012108480AF094FDE5E7054808F0E6F90E
:10060000EBE7072104480AF08BFDADE7981B0100DA
:10061000C887FF1FF8220100A41B010090F88C007E
:10062000704700BF90F88800704700BF90F89000B6
:10063000704700BF90F89400704700BF082994BF2E
:1006400050F82100002070472DE9F0410B4E804604
:10065000041F00F11C0754F8045F314628460DF0D2
:100660003BF930B1D8F8801028460DF053F900B1AD
:100670002E46BC42EFD13046BDE8F081000020415B
:100680002DE9F041D0F880704FF00008041F00F110
:100690001C0654F8045F394628460DF03BF908491A
:1006A00048B128460DF018F9414620B128460DF012
:1006B00031F900B1A846B442EBD14046BDE8F08123
:1006C000000070422DE9F047D0F8807082464FF06C
:1006D0000009041F00F11C064FF0000854F8045FE5
:1006E000394628460DF016F90E4950B128460DF04E
:1006F000F3F830B1484629460CF048FE08F10108ED
:100700008146B442EAD1B8F1000F01D0CAF8A08006
:1007100040460CF0EFFE014648460CF0F3FFBDE802
:10072000F08700BF00007042D0F8A000704700BF03
:10073000D0F8983070B5054673B9866E446E314670
:1007400020460DF0C9F870B1ED6E204629460DF037
:10075000C3F8D0B1204670BD012B0ED0022B19D0AA
:10076000032B15D070BDEC6E304621460DF0B4F869
:100770000028EFD03446204670BDC46EAD6E2046D2
:1007800029460DF0A9F80028E4D12C46204670BD7A
:10079000446EF3E7446ED7E7D0F8983070B505465D
:1007A00073B9866E446E314620460DF0B3F870B1D1
:1007B000ED6E204629460DF0ADF8D0B1204670BD53
:1007C000012B0ED0022B19D0032B15D070BDEC6E6F
:1007D000304621460DF09EF80028EFD034462046E2
:1007E00070BDC46EAD6E204629460DF093F800280A
:1007F000E4D12C46204670BD446EF3E7446ED7E743
:100800002DE9F04F022987B00746144600F02E81EB
:10081000032900F0C480012900F0838097F8AC30F0
:1008200001933846FFF784FF396F04460DF054F802
:1008300000B13C673846FFF7AFFF796F04460DF013
:1008400069F800B17C6707F11C0BA7F1040A07F1F6
:100850003C095D46D0464E4658F8044F55F8040F03
:1008600021460DF057F830B1D7F8801020460DF032
:1008700047F800B12C6056F8041F20460DF04AF8E6
:1008800000B13460A945E7D1019B002B7ED0A84C74
:10089000D7F8A82023680393039BB7F8AE109B1AE0
:1008A0008B420DD300224AF8042FD3454FF00003AA
:1008B000F9D13B667B66BB66FB6607B0BDE8F08F8F
:1008C00023680493049BC91A0A4441F287339A426D
:1008D000F3D8022197480AF023FC974808F076F8ED
:1008E000062196480AF01CFC00230A2297F89C1067
:1008F000914808F07BF8192191480AF011FC23680F
:100900000593059AB7F8AE30D7F8A8108A489B1A15
:1009100019440A22002308F069F8874808F056F8BD
:10092000CBE7137A80F8A430D0F8B400D7F8B060E1
:100930000CF0E0FDE37A0546A07A03EB00200CF012
:10094000D9FD31460CF02AFE29460CF01FFD7866D1
:10095000637B207B03EB00200CF0CCFD31460CF0D8
:100960001DFE29460CF012FDB866E37BA07B03EB6D
:1009700000200CF0BFFD31460CF010FE29460CF0B3
:1009800005FD97F8AC300193F8664AE7684B1B68A1
:100990000293029BC7F8A83007B0BDE8F08F107A29
:1009A000537A03EB00200CF0A5FD66490CF0F6FD30
:1009B000D7F88050294606460CF0ACFF40B162499A
:1009C00030460CF089FF18B100233E6187F8AC3047
:1009D000E37AA07A03EB00200CF08CFD59490CF06F
:1009E000DDFD0646014628460CF076FF40B156492B
:1009F00030460CF071FF18B100237E6187F8AC30EF
:100A0000637B207B03EB00200CF074FD4D490CF060
:100A1000C5FD0646014628460CF05EFF40B14A4936
:100A200030460CF059FF18B10023BE6187F8AC3096
:100A3000E37BA07B03EB00200CF05CFD41490CF054
:100A4000ADFD0446014628460CF046FF00283FF461
:100A5000E5AE3D4920460CF03FFF00283FF4DEAEF6
:100A60000023FC6187F8AC300193DAE6107A537A00
:100A700003EB00200CF03EFD32490CF08FFDD7F85F
:100A80008050294606460CF045FF00285ED1012320
:100A900087F8AC30E37AA07A03EB00200CF02AFD53
:100AA00028490CF07BFD0646014628460CF014FF51
:100AB00000285FD0244930460CF00EFF002859D0A2
:100AC00000237E6087F8AC30637B207B03EB002043
:100AD0000CF010FD1B490CF061FD0646014628464E
:100AE0000CF0FAFE002841D0174930460CF0F4FE15
:100AF00000283BD00023BE6087F8AC30E37BA07BAE
:100B000003EB00200CF0F6FC0E490CF047FD044608
:100B1000014628460CF0E0FE18B30B4920460CF0C5
:100B2000DBFEF0B10023FC6087F8AC30019378E67F
:100B3000E0C4FF1F78300100C887FF1FAC1B010015
:100B4000B41B01006F12833A000070420B4930461B
:100B50000CF0C2FE00289AD000233E6087F8AC302B
:100B600098E7012387F8AC3001935AE6012387F810
:100B7000AC30C3E7012387F8AC30A5E70000704232
:100B80002DE9F04F90F89C3091B007465B008DF84E
:100B90000830FFF79BFCD7F89000D7F89440D7F8BF
:100BA0008C30D7F8882097F89C108DE81100C94840
:100BB00001F0CAFA30223D2303268DF809208DF872
:100BC0000A300DF10A059DF8089049F001084046E9
:100BD00009F064FA0DF10900022109F069FA8DF8B3
:100BE0000880424602AB00205040082410F0800FDD
:100BF0004FEA400018BF80F00700013CC0B2F5D1B9
:100C00009D4202D013F8012FEEE709F047FA01F0F8
:100C100095F9002840F07C8202208DF8089008F0B9
:100C200031FD01F08BF9002840F0B8820DF10C0A7B
:100C3000D146002409F052FA002843D0032C34D1C5
:100C400001E009F05BFA09F049FA0028F9D101F056
:100C500075F910B1A04807F0B9FE312303268DF8CD
:100C600009308DF80A609DF8089049F00108404667
:100C700009F014FA0DF10900022109F019FA8DF8B2
:100C80000880424602AB00205040082410F0800F3C
:100C90004FEA400018BF80F00700013CC0B2F5D118
:100CA0009D4228D013F8012FEEE709F027FA09F842
:100CB000010B804601F042F968B9013409F00EFADF
:100CC0000028BBD1032CBED001F038F978B9013E21
:100CD0007FF479AFC1E75FFA88F1002310227E48E4
:100CE00007F084FE01217D480AF01AFAE5E77A4808
:100CF00007F06CFEEBE709F0D1F901F01FF90028CD
:100D000040F0C58102208DF8089008F0BBFC01F08E
:100D100015F9002840F03D820DF10C09002409F07E
:100D2000DDF9002844D0032C35D101E009F0E6F9C3
:100D300009F0D4F90028F9D101F000F910B16648A2
:100D400007F044FE342201238DF809208DF80A3083
:100D500003269DF8089049F00108404609F09EF9E5
:100D60000DF10900022109F0A3F98DF8088042462F
:100D700002AB00205040082410F0800F4FEA4000E2
:100D800018BF80F00700013CC0B2F5D19D4228D0C9
:100D900013F8012FEEE709F0B1F909F8010B8046CD
:100DA00001F0CCF868B9013409F098F90028BAD1FB
:100DB000032CBDD001F0C2F878B9013E7FF453AFE7
:100DC000C0E75FFA88F100231022434807F00EFEC7
:100DD000012142480AF0A4F9E5E73F4807F0F6FD93
:100DE000EBE709F05BF901F0A9F8002840F00E816B
:100DF00002208DF8089008F045FC01F09FF80028CB
:100E000040F0D6810DF10C09002409F067F90028A3
:100E100000F08480032C72D101E009F06FF909F031
:100E20005DF90028F9D101F089F810B12A4807F0DE
:100E3000CDFD012212238DF809208DF80A304FF0E4
:100E400003089DF80840204609F028F902210DF119
:100E5000090009F02DF98DF8084001F06FF830B362
:100E600009211F480AF05CF90023102221461A4884
:100E700007F0BCFD012119480AF052F900231022A5
:100E80009DF80910144807F0B1FD012113480AF03C
:100E900047F9002310229DF80A100F4807F0A6FD1D
:100EA00001210E480AF03CF90B4807F08FFD06209F
:100EB0008DF8084008F0E6FB01F040F8002840F00B
:100EC000728103AD002609F009F900283FD0162EE3
:100ED0002FD109E0D01B0100C887FF1FF8220100B5
:100EE000981B010009F00AF909F0F8F80028F9D177
:100EF00001F024F8162600287DD1152035E009F0F0
:100F0000FDF809F8010B804601F018F800285BD1C4
:100F1000013409F0E3F800287FF47CAF032C3FF4A0
:100F20007EAF01F00BF800286CD1013E7FF411AFC9
:100F30007FE709F0E3F805F8010B044600F0FEFF37
:100F400000284DD1013609F0C9F80028BFD1162E6E
:100F5000CAD000F0F3FF00284DD1B8F101087FF4AA
:100F600070AF701E002840F31982002303AA1C46AC
:100F700012F8011B08254C4014F0800F4FEA44047E
:100F800018BF84F00704013DE4B2F5D10133834278
:100F9000EEDB9DF8218089484146224601F0D4F8D5
:100FA000162EC146A34602D1A04500F0138197F842
:100FB0009C108348CDF800B04B46324601F0F2F861
:100FC000002011B0BDE8F08F5FFA88F100231022F5
:100FD0007C4807F00BFD01217B480AF0A1F897E758
:100FE000E1B200231022774807F000FD0121764886
:100FF0000AF096F8A6E7734807F0E8FC162EACD185
:101000001520B2E76F4807F0E1FC8EE709216F4831
:101010000AF086F82346102241466A4807F0E6FCAB
:10102000012169480AF07CF8234610229DF8091036
:10103000644807F0DBFC012163480AF071F81022D4
:1010400023469DF80A105F4807F0D0FC01215E4856
:101050000AF066F821460DF10B0002AA12F8014BC6
:101060006140C9B2082311F0800F4FEA410118BF57
:1010700081F00701013BC9B2F5D19042EED11022B7
:10108000504807F0B3FC4F4807F0A0FCB0E6092138
:101090004E480AF045F8234610224146494807F0D9
:1010A000A5FC012148480AF03BF8234610229DF890
:1010B0000910444807F09AFC012143480AF030F82F
:1010C000102223469DF80A103E4807F08FFC0121AC
:1010D0003D480AF025F821460DF10B0002AA12F84E
:1010E000014B6140C9B2082311F0800F4FEA410162
:1010F00018BF81F00701013BC9B2F5D19042EED192
:101100001022304807F072FC2E4807F05FFCF9E52A
:1011100009212E480AF004F82346102241462948A6
:1011200007F064FC0121284809F0FAFF2346102249
:101130009DF80910234807F059FC0121224809F0C5
:10114000EFFF102223469DF80A101E4807F04EFCC0
:1011500001211D4809F0E4FF21460DF10B0002AA10
:1011600012F8014B6140C9B2082311F0800F4FEA19
:10117000410118BF81F00701013BC9B2F5D190428E
:10118000EED110220F4807F031FC0E4807F01EFC8C
:1011900042E507210E4809F0C3FFBDE507210C48D1
:1011A00009F0BEFF42E50721094809F0B9FF88E6CA
:1011B0000721074809F0B4FF24E600BF041C010022
:1011C000501C0100C887FF1FF8220100981B010076
:1011D000A41B01009DF80C3097F89C20B3EB420F44
:1011E0007FF4EEAE9DF80D30012B7FF4E9AE9DF853
:1011F0000E30122B7FF4E4AE9DF810309DF80F00F6
:1012000003EB00200CF076F969490CF0C7F9F96F8F
:10121000386604460CF07EFB00B1FC67B96F2046CF
:101220000CF05AFB00B1BC67A7F1040907F12006D6
:1012300007F140054FF008089AF806309AF80500C3
:1012400003EB00200CF056F95A490CF0A7F949F8C5
:10125000040F316804460CF03FFB0AF1020A30B17A
:10126000D7F8801020460CF04BFB00B134602968A1
:1012700020460CF04FFB043600B12C60B8F1010899
:1012800005F10405D8D19DF81E309DF81D0003EB33
:10129000002002300CF02EF947490CF033FA0146D9
:1012A00046480CF02FFA46490CF06EF845490CF010
:1012B00075F905460AF0E0F9044628460AF0DCF91B
:1012C00041490AF04BFA4149054620460CF066F9BF
:1012D0003F490CF05BF83F49044628460CF05EF9A4
:1012E000014620460CF052F801464FF07E500CF0BB
:1012F00009FA39490CF048F89DF81F209DF8203074
:10130000786603EB022009300CF0F4F833490CF056
:10131000F9F9014629480CF0F5F929490CF034F89F
:1013200028490CF03BF905460AF0A6F90446284680
:101330000AF0A2F924490AF011FA24490546204688
:101340000CF02CF922490CF021F8224904462846D9
:101350000CF024F9014620460CF018F801464FF035
:101360007E500CF0CFF91C490CF00EF8B8663846E8
:10137000FFF7DEF9396F04460CF0AEFA00B13C67B6
:101380003846FFF709FA796F04460CF0C3FA00B14A
:101390007C67134800F0D8FE012012E69DF82190EA
:1013A000104849464246C34600F0CEFEFFE500BF66
:1013B0001357053B2003C839001601470AD7E33FFE
:1013C000E17A644000007A4400004040A40D8F3967
:1013D0005A80473A46A6DB3333938843002C0147B3
:1013E000281C0100041C0100D0F8983010B50446F8
:1013F00033B1012B0FD0022B1FD0032B14D010BD03
:10140000816E406E0BF0C2FFE16E0BF0BFFF0F4923
:101410000CF078F910BDC16E806E0BF0B7FF4FF085
:101420007C510CF0BBF810BD816E406E0BF0AEFF2E
:101430004FF07C510CF0B2F810BDC16E406E0BF055
:10144000A5FF4FF07C510CF0A9F810BD0000404002
:101450002DE9F8430026D0F88080066681460446D0
:1014600000F1200754F8045B414628460CF052FA7C
:10147000084950B128460CF02FFA30B130462946C1
:101480000BF084FF0646C9F86000BC42EAD1304642
:10149000BDE8F8830000704202299ABF00EB81008A
:1014A000406E0020704700BF3E2998BF80F89C1016
:1014B000704700BF90F8A400704700BF90F8840008
:1014C000704700BF90F88500704700BFC0F89810C3
:1014D000704700BF80F88410704700BF80F8851007
:1014E000704700BF30B5C0F8801083B008460BF0DD
:1014F000ABFB074C022502460B460095204607F041
:10150000BFFA204603B0BDE8304007F05FBA00BF25
:10151000C887FF1FC0F8B010C0F8B420704700BFE4
:1015200070B500F535550646303500F128042046E3
:10153000B834FEF79BFFAC42F9D106F1E005012477
:1015400028460021FFF7C6FF214628460134FFF751
:10155000ABFF3F2C05F1B805F2D142F67C540025D3
:101560000548064A064B3555002130617161B2616C
:10157000F361304670BD00BF00007A44000048436C
:101580000000C8C270B500F53556303600F1E004F1
:10159000002507E0012520460021B834FFF79EFF13
:1015A000B4420AD02046FFF789FF0028F3D0204636
:1015B000FFF788FF0028EDD170BD284670BD00BF41
:1015C000F8B500F53657002300F535563B60303648
:1015D00000F1E00402E0B834B4420DD02046FFF739
:1015E0006DFF0028F7D020463D68FFF79DF8B8341E
:1015F0002844B4423860F1D13868F8BDF8B50E46D9
:10160000096801F47F6500290446A5F5C06515DB6E
:101610002D0901F00F07B82303FB054428342046A9
:101620000121FFF757FF20460121FFF757FF324600
:1016300039462046BDE8F840FFF7E2B80A4801F015
:101640000F0707F0C3F91221084809F069FD316856
:10165000054801F0004100230A2207F0C7F90248BB
:101660002D0907F0B3F9D6E7C887FF1FA01C0100BA
:101670002DE9F0430446002383B0064644F8E03BDE
:10168000012504E001353F2D04F1B80469D020465E
:10169000FFF714FF0028F5D0504800F055FD29460B
:1016A0004F4800F051FD2046FFF76AFA2046FFF749
:1016B000CFFE0BF0C9FA02460B464A4800F044FD43
:1016C0002046FEF7C1FF80462046FEF7D9FF0746B9
:1016D00040460BF0B9FA8046384689460BF0B4FA1A
:1016E00042464B46CDE900013F4800F02DFD002168
:1016F0002046FFF7D1FE012180462046FFF7CCFEB1
:10170000074640460BF0A0FA8046384689460BF063
:101710009BFA42464B46CDE90001344800F014FDE7
:101720002046FFF795FE014630680BF02FFE306033
:101730002046FEF7FDFFB1690CF0CEF8002833D14A
:101740002046FFF729F8F1690CF0E4F8002899D059
:101750002046FFF721F801353F2DF06104F1B80470
:1017600095D170680BF0C6FE014630680BF0CAFFD9
:101770007169306004460CF0CDF800B174613169D4
:1017800020460CF0A9F800B134610B2007F044FFAB
:1017900042F67C53F35C60B99BB142F67C53012264
:1017A000F25403B0BDE8F0832046FEF7C1FFB061FC
:1017B000C6E753B942F67C530022F25403B0BDE8A9
:1017C000F0830B4800F0EEFCE7E70A4800F0D4FC99
:1017D00042F67C530022F254F0E700BF9C1E010049
:1017E000B41C0100F01C0100041D0100301D0100AB
:1017F0004C1D0100841D010070B5114B836000F584
:1018000035550646303500F1E00402E0B834AC420C
:1018100013D02046FFF752FE0028F7D02046FEF7EF
:1018200013FFB1680CF058F80028EFD02046FEF7FF
:101830000BFFB834AC42B060EBD1B06870BD00BFF4
:101840000000A04070B5002300F535550646C36082
:10185000303500F1E00402E0B834AC4213D0204649
:10186000FFF72CFE0028F7D02046FEF709FFF168AD
:101870000CF050F80028EFD02046FEF701FFB834F6
:10188000AC42F060EBD1F06870BD00BF00687047FB
:10189000416070472DE9F84342F6885642F68C5570
:1018A00042F6845E42F69054815140F80E20089E24
:1018B000435100F535550651894690461F4630354F
:1018C00000F1E00402E0B834AC4214D02046FFF747
:1018D000F5FD0028F7D020464946FFF7F7FD2046E2
:1018E0004146FFF7FFFD204632463946B834FFF740
:1018F00011FEAC42EAD1BDE8F88300BF2DE9F04308
:1019000042F6745300F535550027C7502E463A4A23
:101910003A4B426283B080464FF000090362303593
:10192000343600F1E00402E0B834A54213D020467A
:10193000FFF7C4FD0028F7D0336801333360204639
:10194000FFF752FD2E490BF0E5FF80BBB834A542EE
:1019500007F10107EBD142F6745358F80340E01B3E
:101960000BF0C8FD014648460BF0CCFE054642F69A
:10197000785058F800309C4215D042F6905642F606
:101980008C5342F6845242F6885158F8066058F853
:10199000033058F8022058F8011048F8004000962B
:1019A0004046FFF777FF284603B0BDE8F0832046A6
:1019B000FFF71AFD014648460BF0E8FC8146204639
:1019C000FEF7EAFED8F820100BF0A4FF70B920460D
:1019D000FEF7AEFED8F824100BF07EFF0028A3D04F
:1019E0002046FEF7A5FEC8F824009DE72046FEF736
:1019F000D3FEC8F82000EAE700C0794400C079C4EB
:101A000000008CC2006A7047406A7047F8B500F564
:101A1000355507460026303500F1E00402E0B834C1
:101A2000AC420FD02046FFF749FD0028F7D02046F2
:101A3000FEF748FE014630460BF0A8FCB834AC4235
:101A40000646EFD142F67453F8580BF053FD0146A9
:101A500030460BF057FEF8BD2DE9F04F91B0064629
:101A600094480F91934600F017FB924800F014FB46
:101A7000904800F011FB42F67453304656F803804C
:101A8000FFF79EFD07463068D6F804900BF0DCF8AF
:101A900002460B463046CDE90C23FFF7B7FF8246DE
:101AA0003046B468F568FFF729FF0BF0CDF8CDE9B3
:101AB0000A01214628460BF067FC7F490BF06EFDBA
:101AC0000BF0C2F8CDE9080128460BF0BDF8CDE9CE
:101AD000060120460BF0B8F8CDE9040150460BF0A2
:101AE000B3F8DDE90C23CDE90201CDE9002341463D
:101AF0004B463A46714800F0CFFA6E4800F0CCFAF7
:101B00000023E03601270C9305E001373F2F06F153
:101B1000B80600F0BF803046FFF7D0FC0028F4D0B4
:101B20003046FEF77BFD3046FEF77CFD3046FEF783
:101B30007DFD3046FEF77EFD3046FFF7BBFC0821F9
:101B400082465F4809F0ECFA39465E4806F08EFF9F
:101B5000092F40F3AA8002215B4809F0E1FA3046E0
:101B6000FFF776FC0BF070F89DF83C80CDF8008014
:101B70000B460246534806F083FF0121534809F003
:101B8000CFFA3B460C9C474600254FF0010998468A
:101B90002EE006214E4809F0C3FA2146494806F0D6
:101BA00065FF02214B4809F0BBFA29463046FEF793
:101BB00045FD0BF049F800970B460246414806F0F8
:101BC0005FFF012141480C4409F0AAFA09FA05F324
:101BD000BBF1000F09D013EA0A0F4FF002013E4893
:101BE00004BF3E48022109F09BFA0135082D06D0BA
:101BF000092CCEDC01213A4809F092FAC9E73148B4
:101C000006F0E4FE0921374809F08AFA002130463F
:101C1000FFF742FC0BF018F8022402460B46009432
:101C2000284806F02DFF0A212F4809F079FA0121F2
:101C30003046FFF731FC0BF007F8009402460B46E4
:101C4000204806F01DFF0A21284809F069FA2146BC
:101C50003046FFF721FC0AF0F7FF0B460C99009481
:101C60000246083117480C91474606F009FFBBF1C0
:101C7000000F12D00D211E4809F052FA01372246FA
:101C8000514600230F4806F0B1FE3F2F06F1B8067B
:101C90007FF441AF11B0BDE8F08F0121154809F084
:101CA0003FFA084806F092FE2FE701210C4809F0A0
:101CB00037FA50E79C1E010000007A4434200100EE
:101CC000D4200100C887FF1F78300100E020010008
:101CD000E420010000230100EC200100F0200100BD
:101CE000F8220100F4200100002101000C21010074
:101CF00018210100282101002DE9F04F85B000F1E5
:101D0000E0058A4603929B462E464FF0010806E006
:101D100008F10108B8F13F0F06F1B8067BD0304654
:101D2000FFF7CCFB0028F3D000230A2251467D4860
:101D300006F05CFE01217C4809F0F2F903980AF0F4
:101D400083FF00230246009376480B4606F098FE78
:101D50000121754809F0E4F95946724806F086FEFB
:101D60000121714809F0DCF941466E4806F07EFE1B
:101D700001216D4809F0D4F900244FF002092146F1
:101D80003046FEF75BFC0AF05FFFCDF8009002469C
:101D90000B46644806F074FE01340121624809F0E4
:101DA000BFF9082C4FF00207E9D100213046FFF7B8
:101DB00073FB0AF049FF009702460B46594806F0AC
:101DC0005FFE0121584809F0ABF901213046FFF7C9
:101DD00063FB0AF039FF009702460B46514806F0B4
:101DE0004FFE0121504809F09BF939463046FFF774
:101DF00053FB0AF029FF009702460B46494806F0BC
:101E00003FFE08F10108474806F0E0FDB8F13F0F3A
:101E100006F1B80683D101274FF0000904E001372D
:101E20003F2F05F1B80579D02846FFF747FB00287A
:101E3000F5D000230A2251463C4806F0D7FD012187
:101E4000394807F0FFFE03980AF0FEFECDF8009037
:101E500002460B46354806F013FE0121324807F0D2
:101E6000F1FE5946314806F001FE01212E4807F0E7
:101E7000E9FE39462D4806F0F9FD01212A4807F010
:101E8000E1FE00244FF0020821462846FEF7D6FB6B
:101E90000AF0DAFECDF8008002460B46234806F031
:101EA000EFFD01340121204807F0CCFE082C4FF053
:101EB0000206E9D100212846FFF7EEFA0AF0C4FE37
:101EC000009602460B46194806F0DAFD0121164835
:101ED00007F0B8FE01212846FFF7DEFA0AF0B4FE4B
:101EE000009602460B46114806F0CAFD01210E4835
:101EF00007F0A8FE31462846FFF7CEFA0AF0A4FE06
:101F0000009602460B46094806F0BAFD013707481D
:101F100006F05CFD3F2F05F1B80585D105B0BDE8A1
:101F2000F08F00BFC887FF1F2C210100AC87FF1F67
:101F3000014B1870704700BF2087FF1F024B1878B5
:101F4000B0FA80F0400970472087FF1F0278002A0E
:101F500000F0908070B5034682B00D46252A2AD144
:101F600058785C1C08B325282FD0732831D06428FA
:101F700024D0692822D066284FD07A2859D07828D2
:101F800035D058282FD062283ED0422838D06C282F
:101F900014D0632812D0742857D054285FD009F089
:101FA00043F96278631C002AD8D1344802B0BDE8F6
:101FB000704006F00BBD18781C46F0E72B1D296811
:101FC0002E481D4606F052FDEBE7104609F02CF9AD
:101FD000E7E72E6830460CF0F3FA01463046043548
:101FE00009F09EF8DDE70221254809F099F82E1D39
:101FF0002968224800231022354606F0F7FCD0E776
:102000000221204809F08CF82E1D29681B48002366
:102010000222354606F0EAFCC3E7073525F007053E
:102020000321D5E9002315480091083506F028FD65
:10203000B7E7073525F007050021D5E900230F484C
:102040000091083506F01CFDABE7296801290EBF99
:102050000D480E480121043509F062F8A1E72B680C
:10206000012B07BF04210A480A480521043509F05D
:1020700057F896E7014806F0A9BC00BFC887FF1FC4
:102080003021010034210100382101003C210100F0
:1020900040210100482101000FB400B583B004A91C
:1020A00051F8040B0191FFF751FF03B05DF804EB09
:1020B00004B0704770B51B4B1B4C1B6882B00D46BB
:1020C0000193019B236019460446002316461748D6
:1020D0000A2206F08BFC0321154809F021F8032C95
:1020E00007D8DFE804F01A1510020521114809F09D
:1020F00017F80221104809F013F831462846FFF777
:1021000025FF02B070BD07210C4809F009F8F0E77F
:1021100004210B4809F004F8EBE70521094808F011
:10212000FFFFE6E7E0C4FF1F4492FF1FC887FF1FC1
:10213000502101006C2101000023010064210100F5
:102140005C210100542101000FB400B5094B18783F
:1021500083B020B103B05DF804EB04B0704705AB69
:102160001A4604990193FFF7A5FF03B05DF804EB4D
:1021700004B070472087FF1F0FB4094B00B51B78D0
:10218000012B83B004D903B05DF804EB04B07047B1
:1021900005AB1A46049901930120FFF78BFFF2E784
:1021A0002087FF1F0FB40B4B00B51B78032B83B0A8
:1021B00004D903B05DF804EB04B0704705AB1A46D0
:1021C000049901930320FFF775FF03B05DF804EB5A
:1021D00004B070472087FF1F38B5044608460D46F7
:1021E0000CF0EEF92368024629465B6820469847C2
:1021F0000546204606F0EAFB284438BD2DE9F041AB
:102200004448454F454D464E464CFFF745FF464B2B
:102210004649474A5960DF60132100274548197035
:102220001A614549454A5D615E62454D9C614FF0CA
:102230007C56444C1F63444F9862D96243485A63AA
:102240000C21434A9D635E6440F61C450A269C644B
:102250001F6241F204043F4FD86419650220012136
:10226000C3F8C0209D6600226425DE661C674FF41B
:1022700096763224DF61DF635A27587058721972DC
:10228000596583F840209D655E66DE651C664FF4E7
:102290007A785F67DFF8C4C09A67D867C3F88010A0
:1022A000C3F88420C3F89C40C3F8A840DFF8B0E02E
:1022B000C3F8A420C3F8B010C3F8B40044F62067F4
:1022C000C3F8B850FF2683F8C410052541F28831C1
:1022D00083F8D020204CC3F8A08040F2D6626FF083
:1022E0003300C3F88CC0C3F890E0A3F89470C3F82F
:1022F000AC60A3F8BE50C3F8C840C3F8CC00C3F824
:102300009810A3F8BC10A3F88820A3F88A20BDE891
:10231000F08100BF7421010066668640333383403C
:10232000CDCCCC3DCDCC4C404893FF1F20A1070025
:102330000000404000008242000020C10000204216
:102340000000A0409A997940333373400AD7233D67
:102350009A99993ECDCC4C3E6C09793B000068427D
:1023600000C02044F0B54FF47A6085B007F08AF9D8
:1023700000210F2007F05EF900210E2007F05AF926
:102380000021112007F056F90021102007F052F922
:102390000021122007F04EF90021132007F04AF91E
:1023A00001210B2007F046F901210C2007F042F92A
:1023B0000121142007F03EF90121152007F03AF918
:1023C0000121162007F036F90121172007F032F914
:1023D0000121052007F02EF9904C914D0121062096
:1023E00007F028F901210D2007F024F920880BF0CF
:1023F0007DF80146162007F087F820880BF076F864
:102400000146172007F080F820880BF06FF801468E
:10241000052007F079F820880BF068F800240146C1
:10242000062007F071F8009423467E4A7E497F48D3
:1024300005F0FAF8E6B2324679497C4805F0A2F890
:102440002B79774979486FF30003013432462B71B9
:1024500005F08EF8082CEDD10924E6B23246704919
:10246000724805F08FF82B796D49704843F00103ED
:10247000013432462B7105F07BF80D2CEDD16C4CFC
:102480004FF0FF322068102105F09AFC20684FF0D1
:10249000FF32102105F06CFC20684FF0FF32022162
:1024A00005F07AFC20684FF0FF32022105F07EFC37
:1024B00000220F21206805F08DFC0C215D4808F0FA
:1024C0002FFE5D4806F082FA14215C4808F028FED1
:1024D000594806F07BFA40F2836007F091F95648BC
:1024E00006F074FA1721564808F01AFE524806F012
:1024F0006DFA544B1B789A0600F1C080514B1B7843
:102500001B0700F1C7804F4B1B785F0700F1CE809F
:102510004C4B1B789E0700F1D5804B4B1B781D065A
:1025200000F1DC80484B1B785C0600F1E380464BF1
:102530001B78980600F1EA80434B1B78590700F19D
:10254000F180414B1B781A0700F1F8803E4B1B7855
:102550009B0700F1FF80384806F038FA72B63B4A14
:102560004CF220534DF6281120241380234611806D
:10257000013BFDD1364D3748374900234FF4805693
:102580002E8003800B8032F80E3C9BB243F0D303C5
:1025900022F80E3C62B69D2007F030FD21462F4800
:1025A0002F4D08F0BDFD244806F010FA05F1D406C1
:1025B0002F462C46601B06F077FC04F8010BB44252
:1025C000F8D13B78132B01D0FFF718FE0420FFF75A
:1025D000AFFC244B244D002401210D201C6007F08A
:1025E00015F8796D2148FFF753F9D7F8CC00D7F8E3
:1025F000C8307A6C97F8401000901C48FFF74AF9F1
:102600001B4B1C491A68039203981B680293029A99
:10261000194B2C7008601A6005B0F0BD2887FF1FA9
:102620008C94FF1FB8C4FF1F20A107001CC3FF1F0D
:10263000E094FF1F94210100C887FF1FA42101001F
:10264000BC21010001F0074000F007400E200540CA
:10265000042005400620054016200540C022010048
:102660004893FF1F5C92FF1FCC94FF1F7C95FF1FB8
:10267000E0C4FF1F1495FF1F9494FF1F21213948C8
:1026800008F04EFD384806F0A1F9384B1B781B07BF
:102690007FF539AF0C21364808F042FD324806F08C
:1026A00095F9324B1B785F077FF532AF0E21314829
:1026B00008F036FD2C4806F089F92C4B1B789E0754
:1026C0007FF52BAF17212C4808F02AFD264806F08D
:1026D0007DF92A4B1B781D067FF524AF0E21284873
:1026E00008F01EFD204806F071F9244B1B785C06AB
:1026F0007FF51DAF1221234808F012FD1A4806F09D
:1027000065F91E4B1B7898067FF516AF13211E48FE
:1027100008F006FD144806F059F9184B1B785907C4
:102720007FF50FAF1C21194808F0FAFC0E4806F09F
:102730004DF9124B1B781A077FF508AF1921144881
:1027400008F0EEFC084806F041F90C4B1B789B079B
:102750007FF501AF18210F4808F0E2FC024806F0AF
:1027600035F9F8E6D4210100C887FF1F01F00740C2
:10277000F8210100082201001822010000F00740A2
:102780003022010040220100542201006822010091
:1027900088220100A4220100F0B55A4C5A4D5B4832
:1027A000E66883B000232B70FFF74CF801463046F3
:1027B0000BF092F808B104232B705448FFF71CF873
:1027C00021690BF089F818B12B7843F010032B70B6
:1027D0004E48FFF717F9A16A0BF09CF818B12B7857
:1027E00043F040032B70002348486B70FFF70CF94F
:1027F000E16A444E0BF070F800285BD10023434897
:10280000EB70FFF71FF8054640483F4EFEF7F4FF18
:10281000014628460AF0B8FDE16B0BF07BF808B1E1
:102820000123F3703A4D394800232B70FFF70AF863
:10283000616A0646E0680AF0A7FD014630460BF0E3
:1028400069F808B104232B703048FEF7D5FF616AA0
:10285000064620690AF09AFD014630460BF03CF826
:1028600018B12B7843F010032B702848FFF7CAF8F3
:10287000A16B0646A06A0AF087FD014630460BF0C0
:1028800049F818B12B7843F040032B7000231F4800
:102890006B70FFF7B9F8A16B0546E06A1C4C0AF0B3
:1028A00075FD014628460BF017F808B10123637047
:1028B00003B0F0BD174806F089F80521164808F066
:1028C0002FFC1248FFF7A0F80AF0BEF902270246D3
:1028D0000B4600970F4806F0D3F801210F4808F087
:1028E0001FFC09210E4808F01BFCF06A0AF0ACF945
:1028F000009702460B46074806F0C2F8054806F066
:1029000065F87BE74893FF1F4493FF1F7C95FF1FEB
:10291000D094FF1FC887FF1FE4220100EC220100B2
:10292000F02201002DE9F0417C4C2368012B82B09C
:1029300031D0022B00F0A880032B00F0C8803BBBF5
:10294000774B784AD3F8A810D3F8AC3012685B1AEA
:10295000632B0EDD744803FB02F380FB0302DB17DD
:10296000C3EB62131944062002B0BDE8F04106F043
:10297000CDBC6E4803FB022380FB0302DB17C3EBD5
:1029800022121144062002B0BDE8F04106F0BEBCA0
:1029900002B0BDE8F081664E33680A33B3F57A7F42
:1029A00000F3B780184633600AF0A4FD61490AF0CD
:1029B000F5FD80465A4DD5F8A8000AF09BFD074664
:1029C000D5F8AC000AF096FD39460AF0DDFC414628
:1029D0000AF0E4FD58490AF095FE39460AF0D6FCA3
:1029E0000AF0B8FF0146062006F090FC0221534889
:1029F00008F096FB524805F0E9FF0621514808F01F
:102A00008FFB30680AF076FD4A490AF0C7FD0AF0EC
:102A10001BF9022702460B460097494806F030F89A
:102A20000D21494808F07CFBD5F8A8000AF062FDAA
:102A3000804630680AF05EFD3E490AF0AFFD06466A
:102A4000D5F8AC000AF056FD41460AF09DFC01465F
:102A500030460AF0A3FD38490AF054FE41460AF018
:102A600095FC0AF0F1F800970B460246344806F050
:102A700007F83946314808F053FB314805F0A6FF06
:102A80002368022B7FF458AF294B254E00221A6091
:102A9000D6F8A8000AF02EFD0546D6F8AC000AF0DC
:102AA00029FD29460AF070FC00210AF077FD224931
:102AB0000AF028FE29460AF069FC0AF04BFF01469D
:102AC000062006F023FC2368032B7FF438AF184B55
:102AD000134E4FF47A721A60D6F8A8000AF00AFD75
:102AE0000546D6F8AC000AF005FD29460AF04CFC74
:102AF00011490AF053FD10490AF004FE29460AF074
:102B000045FC0AF027FF0146062006F0FFFB23687C
:102B100015E700234FF0000833604BE7BC94FF1F1C
:102B20004893FF1F3887FF1F1F85EB51CBF08D287F
:102B30006092FF1FCDCCCC3D0000C8427830010030
:102B4000C887FF1FFC2201000423010070B5B548AF
:102B5000B54C05F03BFFB34805F038FFB14805F030
:102B600035FF0D21B14808F0DBFAD4F8A430012B71
:102B700011D0AF4CAB48217800230A2205F036FF74
:102B80002378052B67D8DFE813F006010B0110014D
:102B900015011A0101010921A64808F0C1FAA64849
:102BA000FEF72AFE21690AF097FE18B10F21A3480B
:102BB00008F0B6FAA048FEF745FEE1680AF0AAFE62
:102BC00018B10E219E4808F0ABFA9B48FEF73AFE7A
:102BD00005469948FEF710FE014628460AF0D4FB48
:102BE000E16B0AF097FE18B11121964808F098FAA7
:102BF0009148FEF707FFA16A0AF08CFE18B10C217C
:102C0000914808F08DFA8C48FEF7FEFEE16A0AF062
:102C100063FE18B10D218D4808F082FA8C4B86486E
:102C20001B68012B00F0E880FEF7E6FD21697E4D70
:102C30000AF070FE78B18048FEF704FEE9680AF0F9
:102C40004BFE40B17A4B1B78052B00F0E680082143
:102C5000804808F065FA02217F4808F061FA1220E6
:102C600006F0DAFC012800F0AF80112006F0D4FC59
:102C7000012800F0B380794B1B68012B00F0B7806E
:102C800002217548764C08F04BFA764B6548196876
:102C900005F0ECFE634805F099FE0421724808F047
:102CA0003FFA0B2006F0B8FC002301460A225D48DB
:102CB00005F09CFE0C2006F0AFFC002301460A2222
:102CC000584805F093FE142006F0A6FC00230146A8
:102CD0000A22544805F08AFE152006F09DFC0A22BF
:102CE000002301464F4805F081FE06215F4808F0A9
:102CF00017FA2368DD074FF001014CBF5C485D48BF
:102D000008F00EFA236898074FF001014CBF5848AD
:102D1000584808F005FA23685A074FF001014CBFE4
:102D20005348544808F0FCF923681B074CBF50482F
:102D30005048012108F0F4F904214F4808F0F0F957
:102D4000112006F069FC002301460A22354805F0EF
:102D50004DFE102006F060FC002301460A22314897
:102D600005F044FE122006F057FC002301460A221B
:102D70002C4805F03BFE132006F04EFC00230146D4
:102D80000A222848BDE8704005F030BE07213B48C4
:102D900008F0C6F95FE70621394808F0C1F95AE79B
:102DA0000721384808F0BCF955E70721364808F0F4
:102DB000B7F950E70821354808F0B2F94BE70B2185
:102DC000334808F0ADF946E70E21324808F0A8F97B
:102DD000112006F021FC01287FF44DAF0A212E4876
:102DE00008F09EF91D4B1B68012B7FF449AF1121A0
:102DF0002A4808F095F943E7FEF7FEFC216A0AF03D
:102E000089FD00283FF423AF1621254808F088F9F2
:102E10000A21244808F084F91DE70A21214808F016
:102E20007FF918E7C887FF1F4893FF1F142301008D
:102E3000CC94FF1F242301007C95FF1F3023010049
:102E4000402301005023010064230100742301008A
:102E50007492FF1FA823010078300100E894FF1F3F
:102E60001C94FF1FC094FF1F1C2401002424010098
:102E70002C2401003032010030240100E423010041
:102E8000B4230100BC230100D0230100D82301009A
:102E9000C4230100EC230100FC23010008240100ED
:102EA000842301009C2301002DE9F04FA04CE36F27
:102EB000012B8DB000F06081032B9E4F5BD09E4EA6
:102EC0009E4DA36F9E48012B09BF2968296801F117
:102ED0000041296005F070FB3368002B40F0D98079
:102EE000974805F03FFBE36F3860012B0646904A98
:102EF00000F0DC8093490AF00DFDB8B992493046E4
:102F00000AF0EAFC90B9914A914B12680B920B9A25
:102F10001A60D4F8B0000AF0EDFA31460AF03EFB30
:102F2000002338602B600DB0BDE8F08FDFF81CA2E5
:102F3000DFF81C82DAF800300A930A98D8F80030DB
:102F4000DFF82C92C01A0AF0D1FA31460AF026FBBB
:102F500080490AF0D7FB7F490AF0D4FBD9F800106A
:102F60000AF014FADAF800300993099BC9F8000056
:102F7000C8F80030CDE7DFF8E481774DD8F80000DD
:102F80006D4E012300220F212B6004F023FF2B68DC
:102F9000012B336800F01681002B40F0B98100212D
:102FA000D8F80000DFF8CC916C4D04F065FF336871
:102FB0001FFA80FBC9F800B0002B40F08E81002181
:102FC000D8F800005D4DDFF894A104F0DBFEB4F802
:102FD0008A3040F6E44101FB0BF1B1FBF0F0C01A7E
:102FE00000B20AF087FA5E498346D4F88C000AF0F2
:102FF000D5FA014658460AF085FBD9F8003028601A
:10300000632BDFF870B100F35C8100232B60336821
:10301000002B3FF456AF0221524808F081F8D9F84E
:103020000020D8F8000040F6E443002103FB02F83A
:1030300004F0A8FEB8FBF0F00AF058FA8046B4F8A5
:103040008A000AF057FA014640460AF09DF909F055
:10305000FBFD4FF0020802460B46CDF800804248C7
:1030600005F00EFD41463F4808F05AF8286809F07F
:10307000EBFDCDF8008002460B463B4805F000FD15
:1030800041463A4808F04CF84146364808F048F8BE
:1030900017E72B4805F066FA09F0D6FD022602462E
:1030A0000B460096304805F0EBFC19E72A4B1B68ED
:1030B000012B00F03981022B7FF42BAFB2F8948002
:1030C00040460AF017FA014630460AF023FC50B990
:1030D000C8F100000AF00EFA014630460AF0FCFB87
:1030E000002800F05681DFF864A0DFF86480DAF889
:1030F000003007930798D8F80030DFF87490C01AB2
:103100000AF0F4F931460AF049FA12490AF0FAFADB
:1031100010490AF0F7FAD9F800100AF037F9DAF88E
:1031200000300693069BC9F80000C8F80030F0E6AE
:103130004893FF1F8C92FF1F0C95FF1F7092FF1F7B
:103140002093FF1F0000FA430000FAC3E0C4FF1FF2
:10315000DC94FF1F00007A445487FF1FE094FF1F98
:1031600017B7D13878300100C887FF1F74240100D9
:103170009892FF1F4093FF1F9F4FB4F894603D68E3
:1031800030460AF0B7F929460AF0C4FB48B170424C
:103190000AF0B0F9014628460AF0BCFB00287FF48B
:1031A000EAAEDFF86082954DD8F80000944E022315
:1031B00000220E212B6004F00DFE2B68012B3368DA
:1031C0007FF4EAAE002B40F006810021D8F8000021
:1031D000DFF870928B4D04F04FFE33681FFA80FBCE
:1031E000C9F800B0002B40F0DB800021D8F80000C7
:1031F000854D04F0C7FDB4F8883040F6E44A0AFB78
:103200000BFBBBFBF0F0C01A00B20AF073F97F4968
:103210008346D4F890000AF0C1F9014658460AF0F6
:1032200071FAD9F8003028600021D8F800000AFBB4
:1032300003FA04F0A7FDB4F88830BAFBF0F00FFAF7
:1032400080FAC3EB0A03002BB4F8BE20B8BF5B4280
:103250009342BCBF00232B603368002B3FF431AE98
:1032600002216B4807F05CFFD9F80020D8F8000075
:1032700040F6E443002103FB02F804F083FDB4F8B8
:103280008810B8FBF0F000B2411A624805F0EEFB7E
:1032900002215F4807F044FF286809F0D5FC4FF091
:1032A000020802460B46CDF800805A4805F0E8FBBC
:1032B0000321594807F034FF4146554807F030FFD5
:1032C000FFE5DAF80000002104F05CFDDBF80030D7
:1032D00064389842FFF499AE99E60021286804F01A
:1032E00051FD40F6E44100230A2201FB0BF1B1FB42
:1032F000F0F1484805F07AFB0221454807F010FF3D
:10330000B4F88A10434805F0B1FBD9F800B056E68E
:10331000404805F05BFB0C21404807F001FF0C2101
:103320003F4807F0FDFE3AE63E490AF0F3FA58B985
:103330003D4930460AF0D0FA30B93C4A3C4B12685D
:103340000592059A1A60E4E5DFF8E0A0DFF8E08076
:10335000DAF8003004930498D8F80030DFF8E890E9
:10336000C01A0AF0C3F831460AF018F931490AF0D8
:10337000C9F930490AF0C6F9D9F800100AF006F880
:10338000DAF800300393039BC9F80000C8F8003056
:10339000BFE5264A264B12680892089A1A60B8E5DB
:1033A0000021286804F0EEFC40F6E44100230A22E4
:1033B00001FB0BF1B1FBF0F1164805F017FB012101
:1033C0001D4807F0ADFEB4F88810124805F04EFB1A
:1033D000D9F800B009E70F4805F0F8FAE36F012BC0
:1033E0004FF00B010CBF1548154807F099FE0C2152
:1033F0000B4807F095FEE8E68C92FF1F5487FF1FED
:103400000C95FF1FE094FF1F7092FF1F17B7D13874
:1034100078300100C887FF1F602401006424010088
:10342000502401000000FA430000FAC3E0C4FF1F6B
:10343000DC94FF1F00007A44F822010038240100C8
:10344000442401004093FF1F9892FF1F2DE9F0478D
:10345000A84D2B6884B043B9A74B1B680393039A0C
:1034600042F210739A4200F28A80A44CDFF89482F0
:10347000E36FA34EA14D012B00F0C580D4F884303A
:103480009E4F012B00F0F180D6F80090D7F858A09D
:103490007D6D9C4F05FB0AF54FF47A7000FB05F03B
:1034A0000AF028F89849054648460AF077F8294670
:1034B0000AF028F995490AF071F80AF04BFA6328E6
:1034C000C8F800004ADD28468F490AF01BF964233A
:1034D00030603B608E4B1B68002B3CD0E36F874D08
:1034E000012B40D0032B00F0F380022B00F0EB8087
:1034F0000221884807F014FE874B186809F0A4FBE6
:10350000022402460B460094844805F0B9FA21468D
:10351000834807F005FE21467E4807F001FED8F8F3
:1035200000107E4805F0A2FA06217E4807F0F8FD5B
:10353000306875490AF032F809F086FB00940246BB
:103540000B46764805F09CFA0321774807F0E8FD22
:10355000724805F03BFA04B0BDE8F0870028BCBF14
:1035600000233B60B6E7714B1B68012B4FF00A014B
:103570000CBF6F486F4807F0D3FDEB6FB2E76E48A2
:103580005E4CFEF743FA6D49A76EE66E0AF006F848
:103590000AF006FA226F636FD21B9B1B80B29A421D
:1035A000A0EB070040F39A8003FB0000531C90FB44
:1035B000F3F39819A26DDFF84C81636DC8F8000031
:1035C00002FB00F003FB00F000EB8000400009F07C
:1035D00091FF4D494A4E0AF095F8012302213060CF
:1035E0004C482B6007F09CFD4C48444D05F0EEF92B
:1035F0005921534807F094FD484805F0E7F9E36F77
:10360000012B7FF43BAF4C48FEF700FA4B49D5F84D
:103610006890EF6E09F0C2FF0AF0C2F92A6F6B6F73
:10362000C9EB0202DB1B80B29A42C9EB00005BDDF2
:1036300003FB0000531C90FBF3F31F44A06D636D6C
:10364000C8F8007000FB07F003FB00F000EB8000FF
:10365000400009F04FFF2C49284F0AF053F8D4F8E6
:1036600084303060012B7FF40FAF3348FEF7CEF982
:103670003249D7F86890FD6E09F090FF0AF090F992
:103680003A6F7B6FD4F858A0C9EB02025B1B80B283
:103690009A42C9EB0000C6BF03FB00000132584349
:1036A00090FBF2F02844656D00FB0AF005FB00F08A
:1036B00000EB8000400009F01DFF13490AF022F8DA
:1036C00081463060E5E607211E4807F029FD0FE737
:1036D00010211D4807F024FDE36F06E703FB00F30C
:1036E00093FBF2F3981965E703FB00F393FBF2F306
:1036F0001F44A3E76C92FF1FE0C4FF1F4893FF1F06
:103700009892FF1F3887FF1FE4388E3E0000C842A2
:103710004087FF1F783001008C92FF1FC887FF1F72
:103720007424010008250100102501005487FF1FA3
:10373000D4240100E02401007C95FF1F00007A449E
:103740007824010000250100EC24010030B511208F
:1037500083B005F061FF012818D0122005F05CFF4E
:10376000012813D000210B2005F050FF00210C2070
:1037700005F04CFF0021152005F048FF2649274B96
:103780000120002208701A6003B030BD012115200D
:1037900005F03CFF224A234C234B1268D4F89810C2
:1037A00001921B68019A1D4D0B4493424FF0020198
:1037B000296005D901210C2005F028FF03B030BD98
:1037C000D4F8A00009F096FE184B19680AF084F8A6
:1037D0000028EFD101210B2005F018FF94F8C43028
:1037E00003242C6043B10C4B02221A7000210C20E0
:1037F00005F00CFF03B030BD122005F00DFF0128CD
:1038000008BF054B4FF0110008BF1C7005F004FF06
:103810000128EBD1E7E700BFCC94FF1F0895FF1FFD
:10382000E0C4FF1F4893FF1F1495FF1F8C92FF1FDA
:10383000F0B5684E684D34682B689C4287B039D02B
:1038400014F0010155D014F0020149D014F0040124
:103850003DD0E3070ED52B68DF070BD45F4F3A68E6
:10386000002A00F082805E4B1B680193019B93420B
:103870006DD83468A0070DD52B6899070AD4594F25
:103880003A68002A4CD0564B1B680393039B934223
:1038900038D8346862070DD52B685B070BD4524FBC
:1038A0003A68002A7ED04E4B1B680593059B9342D5
:1038B00068D834680CB107B0F0BD2146162005F079
:1038C00025FD2146172005F021FD07B0F0BD05209C
:1038D00005F01CFD2B68346803F0FB032B60B8E790
:1038E000172005F013FD2B68346803F0FD032B60EF
:1038F000ACE7162005F00AFD2B68346803F0FE03E0
:103900002B60A0E7394B1720D3F89C1005F0FEFC84
:103910002B68346843F0020300222B603A60B9E759
:10392000334805F053F80C21324807F0F9FB3048D2
:1039300005F04CF8FF21172005F0E8FC284B2E4A33
:1039400019680291029912680A443A609CE7274B71
:103950001620D3F89C1005F0D9FC2B68346843F08E
:10396000010300222B603A6084E7FF21162005F056
:10397000CDFC1B4B204A19680091009912680A443B
:103980003A6071E7194B0520D3F89C1005F0BEFC96
:103990002B68346843F0040300222B603A60002C4B
:1039A00089D18AE7124805F011F80C21134807F075
:1039B000B7FB0F4805F00AF8FF21052005F0A6FC2B
:1039C000074B0D4A19680491049912680A443A6039
:1039D0006AE700BF0895FF1F1C94FF1FA094FF1FFC
:1039E000E0C4FF1FA494FF1FA894FF1F4893FF1F6C
:1039F000C887FF1F142501006887FF1F24250100C9
:103A00002DE9F047544EDFF87481DFF87491306887
:103A1000524D00220F2104F0DDF900230122222162
:103A20004F48C8F80030C9F8002007F079FBD8F8F3
:103A30000030132B22DC40F6E44700213068B5F853
:103A400088A004F019FA00210446306804F09AF9BD
:103A5000A4B2012107FB04F4B4FBF0F44148544440
:103A6000A5F8884007F05CFB642005F00BFED8F851
:103A700000300133132BC8F80030DEDDB5F8883094
:103A8000394A3A48A2FB03129B1A02EB5303C3F3D1
:103A90000F131946A5F8883004F0E8FF1D213448BB
:103AA00007F03EFB0221334807F03AFB2F4804F0B1
:103AB0008DFF00231A460E213068C8F8003004F04C
:103AC00089F9022322212648C9F8003007F028FB93
:103AD000D8F80030132B22DC40F6E4470021306890
:103AE000B5F88A9004F0C8F900210446306804F063
:103AF00049F9A4B2012107FB04F4B4FBF0F419481E
:103B00004C44A5F88A4007F00BFB642005F0BAFD91
:103B1000D8F800300133132BC8F80030DEDDB5F8DB
:103B20008A30114A1148A2FB03129B1A02EB53037D
:103B3000C3F30F131946A5F88A3004F097FF1D212F
:103B40000D4807F0EDFA02210A4807F0E9FA0748A4
:103B5000BDE8F04704F03ABFE094FF1F4893FF1F11
:103B6000342501007825010087611886C887FF1F6A
:103B700058250100783001007C250100C494FF1F06
:103B80005487FF1FA64B2DE9F0411B68A54CA64D9D
:103B900040F2513108222160E271286D002B40F083
:103BA000EE8009F0A7FC6969064609F0F7FC9F4919
:103BB0009D4F09F0F3FC09F0F3FE80B2031263722B
:103BC0009B4A9C4B12681B68A969A37215121B12B1
:103BD000E372227320726573304609F0DFFC93496B
:103BE000904D09F0DBFC09F0DBFE83B21A12294686
:103BF0009148A373E27303F00FFF904B904A1B6848
:103C00001288A272DEB206EB8601267203EB8306EF
:103C1000490046F3D71640F2553E12124FF0000805
:103C20001B1221736673294608268348C4F800E0F6
:103C3000E2726372E67184F80E8084F80F8003F0FC
:103C4000EBFE40F256337F482360E671FDF71EFE1F
:103C50007D4909F0A3FC09F0A3FE20727948FDF725
:103C600015FE794909F09AFC09F09AFE774A7649DF
:103C7000C0F307236372106809F044FD09F06AFE7F
:103C800040FA06F203466F48E272A372FDF736FE71
:103C9000664909F083FC09F05DFE20736948FDF771
:103CA0002DFE624909F07AFC09F054FE294640F3E2
:103CB00007236148637384F80E8084F80F8003F053
:103CC000ABFE022005F0DEFC614A624B10785178B1
:103CD000207290786172D2781978A072987893F8EF
:103CE00001E0E2722173DA78A07340F25A33294678
:103CF000514884F80DE0E2732360E67103F08CFE16
:103D0000554B4D481A785978227261729A78D97851
:103D1000A272E1721A79597993F806E022736173FD
:103D2000DA7984F80EE040F25E332946E2732360CC
:103D3000E67103F071FE022005F0A4FC474B3E48FB
:103D40001A785978227261729A78D978A272E172DF
:103D50001A79597993F806E022736173DA79E6717A
:103D60004FF45C732946236084F80EE0E27303F09D
:103D700053FE3B4B1B68012B06D0BDE8F08109F0D8
:103D8000B9FB296A064610E72E48FDF735FDF96CA8
:103D900009F0FCFA80462B48FDF754FD01464046E9
:103DA00009F09AFD0028E8D040F2C3332548EE71AF
:103DB0002B60FDF721FDBE6C314609F08DFDC8B1C9
:103DC0002849304609F0EAFB09F0EAFD80B2031207
:103DD00068722B720023012604250322A672E57265
:103DE00022736373A373E3730E491348BDE8F04174
:103DF00003F012BE1348FDF7FFFC1A4909F0CEFB91
:103E000009F0CEFDC0F307230E482B72FDF7F4FC3A
:103E1000144909F0C3FB09F0C3FD6872DAE700BF7B
:103E20007492FF1FF894FF1F4893FF1F000020416A
:103E3000D894FF1F5092FF1F1CC3FF1F3887FF1F1E
:103E40003C87FF1F7C95FF1F0000C8428C92FF1F1C
:103E50004493FF1FD094FF1F2C87FF1F5887FF1F1D
:103E6000E894FF1F00007A442DE9F0419A4C9B4DE5
:103E700082B007F0EFF823682860042B00F0AB82D3
:103E8000092B7BD0022B4CD1A0F13102422A7ED8E3
:103E9000DFE812F02D0839084708F00054086508DB
:103EA00074081E087D007D007D007D007D007D0082
:103EB0007D007D007D007D007D007D007D007D001A
:103EC0007D007D007D007D007D007D007D007D000A
:103ED0007D007D007D007D007D007D007D007D00FA
:103EE0007D007D007D007D007D007D007D007D00EA
:103EF0007D007D007D007D0043007D007D007D0014
:103F00007D007D007D007D007D007D007D007D00C9
:103F10007D007D0079007D001108FFF771FD2368A9
:103F20002868082B40F0B780332801F0B58400F3EF
:103F3000F382312801F08584322828D107F0C6F8B1
:103F4000002841F364846648664E04F0D3FE09F00D
:103F5000D1FA654909F022FBD6F8CC20D6F8C83052
:103F600096F8401000920746024660487764FDF7D5
:103F700091FC012369202360286070E3322800F05F
:103F80006483712803D10023732023602860002BF1
:103F900008BF73280CBF01200020002867D05048BC
:103FA00004F014FD0421524807F0BAF84C4804F01C
:103FB0000DFD10214F4807F0B3F8494804F006FD05
:103FC00013214D4807F0ACF84C4B4548196804F0F4
:103FD0004DFD434804F0FAFC1421494807F0A0F8CD
:103FE0003F4804F0F3FC1E21464807F099F83C488E
:103FF00004F0ECFC1521444807F092F8384804F02E
:10400000E5FC1E21414807F08BF8354804F0DEFC42
:1040100020213F4807F084F8314804F0D7FC1921EB
:104020003C4807F07DF82E4804F0D0FC12213A48B5
:1040300007F076F82A4804F0C9FC1921374807F040
:104040006FF8274804F0C2FC0F21354807F068F8E4
:10405000234804F0BBFC0D21324807F061F82048EA
:1040600004F0B4FC304A002101231160236002B047
:10407000BDE8F0810123236007F028F8002807DD60
:104080001748184E04F036FE09F034FAC6F89000CE
:10409000632023682860072B4AD1332801F0E98385
:1040A00000F32682312801F0B68332287FF46FAF07
:1040B00007F00CF8002839DD09480A4E04F01AFE12
:1040C00009F018FA084909F069FA61230122F0633E
:1040D00022602B601846C2E29C92FF1F8892FF1F4D
:1040E000C887FF1F4893FF1F6F12833A7C95FF1FFD
:1040F000D82E0100E02E0100F42E01002487FF1FBE
:10410000082F0100202F0100402F0100582F01002F
:10411000782F01009C2F0100B82F0100CC2F010047
:10412000E82F0100F82F01004087FF1F236828684F
:10413000062B40F08D80A0F13102402A3FF627AFD8
:1041400001A151F822F000BF274D0000494E0000A8
:10415000034D0000514D0000754D0000914D0000D1
:10416000B34D00008F3F00008F3F00008F3F0000E5
:104170008F3F00008F3F00008F3F00008F3F000007
:104180008F3F00008F3F00008F3F00008F3F0000F7
:104190008F3F00008F3F00008F3F00008F3F0000E7
:1041A0008F3F00008F3F00008F3F00008F3F0000D7
:1041B0008F3F00008F3F00008F3F00008F3F0000C7
:1041C0008F3F00008F3F00008F3F00008F3F0000B7
:1041D0008F3F00008F3F00008F3F00008F3F0000A7
:1041E0008F3F00008F3F00008F3F00008F3F000097
:1041F0008F3F00008F3F00008F3F00008F3F000087
:104200008F3F00008F3F00008F3F00008F3F000076
:104210008F3F00008F3F00008F3F00008F3F000066
:104220008F3F00008F3F00008F3F00008F3F000056
:104230008F3F00008F3F00008F3F00008F3F000046
:104240008F3F00008F3F0000873F000023682868F1
:10425000052B15D1332801F04A8340F374813528AA
:1042600001F06C83C1F2548371287FF490AEC14A8F
:104270000023732013602360286088E62368286881
:10428000032B40F0A480A0F13002422A3FF67FAE1B
:1042900001A151F822F000BFA5430000D355000052
:1042A000FB5500003F55000061550000835500009C
:1042B000AB55000023560000415600006556000033
:1042C0008F3F00008F3F00008F3F00008F3F0000B6
:1042D0008F3F00008F3F00008F3F00008F3F0000A6
:1042E0008F3F00008F3F00008F3F00008F3F000096
:1042F0008F3F00008F3F00008F3F00008F3F000086
:104300008F3F00008F3F00008F3F00008F3F000075
:104310008F3F00008F3F00008F3F00008F3F000065
:104320008F3F00008F3F00008F3F00008F3F000055
:104330008F3F00008F3F00008F3F00008F3F000045
:104340008F3F00008F3F00008F3F00008F3F000035
:104350008F3F00008F3F00008F3F00008D56000010
:1043600047500000AB540000AB560000C956000097
:10437000C9540000FD4F0000215000008F3F000095
:104380008F3F00008F3F00008F3F00008F3F0000F5
:104390008F3F00008F3F00008F3F00009F540000C0
:1043A0001F55000006F092FE002841F32982724852
:1043B000724E04F09FFC01270346014662227048BA
:1043C000736527602A60FDF763FA23682868012B6C
:1043D0007FF4DDAD43E1A0F13002412A3FF6D7ADD5
:1043E00001A151F822F000BFBB4F0000EB4E0000CE
:1043F000754E00008D4E0000B34E0000CF4F000000
:10440000EB4F0000914F0000954F0000994F0000C6
:104410008F3F00008F3F00008F3F00008F3F000064
:104420008F3F00008F3F00008F3F00008F3F000054
:104430008F3F00008F3F00008F3F00008F3F000044
:104440008F3F00008F3F00008F3F00008F3F000034
:104450008F3F00008F3F00008F3F00008F3F000024
:104460008F3F00008F3F00008F3F00008F3F000014
:104470008F3F00008F3F00008F3F00008F3F000004
:104480008F3F00008F3F00008F3F00008F3F0000F4
:104490008F3F00008F3F00008F3F00008F3F0000E4
:1044A0008F3F00008F3F00008F3F00008F3F0000D4
:1044B0008F3F00008F3F00008F3F00008F3F0000C4
:1044C0008F3F00008F3F00008F3F00008F3F0000B4
:1044D0008F3F00008F3F00008F3F00008F3F0000A4
:1044E0008F3F00008F3F00008F3F0000873F00009C
:1044F00034287FF446AD06F0E9FD00287FF716AEBC
:104500001D481E4E04F0F6FB61230122A6F8BC00F4
:1045100022602B601846A2E034287FF432AD06F00A
:10452000D5FD002841F373811348144E04F0E2FBDB
:104530004742D6F8C830726C96F840101048009781
:10454000C6F8CC7013E5312801F0C08132287FF421
:104550001EAD06F0BBFD00287FF790AE0648074E63
:1045600004F0C8FB01226B23C6F8A00022602B6078
:104570000AE000BFBC94FF1FC887FF1F4893FF1FBE
:104580007C95FF1F06F066FD06F0A0FD0028F9D11E
:10459000A44804F01BFAA34804F018FAA14804F058
:1045A00015FAA04804F012FA9E4804F00FFA2121EF
:1045B0009D4806F0B5FD9B4804F008FA15219B487C
:1045C00006F0AEFDD6F89810964804F04FFA022196
:1045D000974806F0A5FD934804F0F8F91E21954888
:1045E00006F09EFDD6F8A0108E4804F03FFA032195
:1045F000914806F095FD8B4804F0E8F91E218F489C
:1046000006F08EFDD6F89C10864804F02FFA8548F7
:1046100004F0DCF91D218A4806F082FDD6F8A810C6
:10462000804804F023FA7F4804F0D0F91E21854821
:1046300006F076FDD6F8AC107A4804F017FA7948FF
:1046400004F0C4F90523236011E57F4E96F8D030BD
:1046500001225340782086F8D03022602860A0F1F3
:104660005203262B01F2C380DFE813F04F08C10884
:10467000C108C108C108C108C108C108C108C108F2
:10468000C108C108C108C108C10829008B0ADB02A2
:1046900034027A01C108C108C1080E01C108880AA4
:1046A000C108C108C108C108C1083D08C108C10846
:1046B000C108C108C108C1089D0006F0CBFC06F086
:1046C00005FD05460028F8D156485F4E04F07EF9F6
:1046D000544804F07BF9534804F078F9514804F049
:1046E00075F9504804F072F91F21584806F018FD7A
:1046F0004C4804F06BF91C21554806F011FD706A16
:10470000544908F04BFF08F09FFA009502460B460B
:10471000444804F0B5F902214F4806F001FD414834
:1047200004F054F923214D4806F0FAFCF06B494996
:1047300008F034FF08F088FA009502460B46394825
:1047400004F09EF90221444806F0EAFC354804F0E2
:104750003DF91921424806F0E3FCB06B08F074FA09
:1047600002250B46024600952E4804F089F9294699
:104770003C4806F0D5FC2B4804F028F919213A48AA
:1047800006F0CEFCB6F8BC10264804F06FF9032101
:10479000364806F0C5FC234804F018F907232360C7
:1047A00065E406F057FC06F091FC0028F9D11D489D
:1047B00004F00CF91B4804F009F91A4804F006F952
:1047C000184804F003F9174804F000F915212848A7
:1047D00006F0A6FC134804F0F9F8124804F0F6F8C5
:1047E0002C21244806F09CFC0E4804F0EFF8192117
:1047F000214806F095FC144B93F8D030002B41F083
:10480000B8800E211D4806F08BFC064804F0DEF847
:1048100013211B4806F084FC024804F0D7F8092352
:10482000236024E4C887FF1FD0280100F42801007A
:10483000E02701000C290100602401002C2901005F
:104840004C2901006C2901004893FF1F2C2801000E
:104850004C28010000007A448C2601006C280100DD
:1048600090280100AC280100B0280100CC280100EC
:10487000D02F0100C0250100F02501000C26010009
:104880003026010006F0E6FB06F020FC0546002875
:10489000F8D17D487D4E04F099F87B4804F096F8F5
:1048A000794804F093F8784804F090F8764804F0DA
:1048B0008DF81521764806F033FC734804F086F82D
:1048C0001821744806F02CFC2B460A2296F840105A
:1048D0006D4804F08BF86C4804F078F828216E4895
:1048E00006F01EFC706C6D4908F058FE08F0ACF93B
:1048F000009502460B46644804F0C2F8022168485D
:1049000006F00EFC604804F061F81921654806F0D5
:1049100007FCD6F8C80008F097F904250B460246B4
:104920000095594804F0ACF8574804F04FF81821A6
:104930005D4806F0F5FBD6F8CC10534804F096F825
:10494000514804F043F81321584806F0E9FB4E485B
:1049500004F03CF808232360FFF789BB06F07AFBDC
:1049600006F0B4FB05460028F8D14748474E04F04E
:104970002DF8454804F02AF8434804F027F8424847
:1049800004F024F8404804F021F81121484806F0CA
:10499000C7FB3D4804F01AF82821464806F0C0FB42
:1049A00070693E4908F0FAFD08F04EF9009502469C
:1049B0000B46354804F064F80221394806F0B0FB94
:1049C000314804F003F816213B4806F0A9FBF069D2
:1049D000324908F0E3FD08F037F900950B4602462E
:1049E000294804F04DF802212D4806F099FB26488D
:1049F00003F0ECFFD6F8B430002B32DD1D212F4838
:104A000006F08EFBF06D08F075FD2D4908F0C6FD2F
:104A100008F01AF9022502460B4600951A4804F0E0
:104A20002FF80121274806F07BFB174803F0CEFF43
:104A30001F21254806F074FB306E08F05BFD20490D
:104A400008F0ACFD08F000F9009502460B460E4850
:104A500004F016F801211B4806F062FB0A4803F037
:104A6000B5FF1121194806F05BFBD6F8B430062BD0
:104A700000F26886DFE813F0B106B606AC06A706BA
:104A8000A2069D06620600BFC887FF1F4893FF1F4E
:104A9000A02F0100442601006026010000007A4496
:104AA0008C26010090260100AC2601003026010072
:104AB000442F0100C8260100F42601000C27010044
:104AC000CDCCCC3DCC2B01002C2701004C27010084
:104AD00006F0C0FA06F0FAFA0028F9D1BA4803F055
:104AE00075FFB94803F072FFB74803F06FFFB6488F
:104AF00003F06CFFB44803F069FF1321B34806F0DC
:104B00000FFBB14803F062FF0D21B14806F008FB2E
:104B1000AD4803F05BFF0F21AE4806F001FBAE4B42
:104B2000A948196803F0A2FFA74803F04FFF13211B
:104B3000AA4806F0F5FAAA4BA348196803F096FFB5
:104B4000A14803F043FF1221A64806F0E9FAA64B5C
:104B50009D48196803F08AFF9B4803F037FF112135
:104B6000A24806F0DDFAA24B9748196803F07EFFD1
:104B7000954803F02BFF0E219E4806F0D1FA9E4B7C
:104B80009148D3F8A41003F071FF8F4803F01EFF83
:104B900019219A4806F0C4FA994B8B48196803F01A
:104BA00065FF894803F012FF1121964806F0B8FA14
:104BB000954B8548196803F059FF834803F006FFB9
:104BC0001021924806F0ACFA914B7F48196803F027
:104BD0004DFF7D4803F0FAFE1C218E4806F0A0FA36
:104BE0008D4B7948196803F041FF774803F0EEFEDA
:104BF0001B218A4806F094FA894B7348197803F010
:104C000035FF714803F0E2FE1321864806F088FA6A
:104C10006D4803F0DBFE04232360FFF728BA06F09B
:104C200019FA06F053FA0028F9D16748724E03F0DA
:104C3000CDFE654803F0CAFE634803F0C7FE624834
:104C400003F0C4FE604803F0C1FE1F21764806F061
:104C500067FA5D4803F0BAFE1E21744806F060FA58
:104C6000594803F0B3FE1A21714806F059FAF36F60
:104C7000022B00F02587032B00F0DE86012B00F0CD
:104C8000D28609216B4806F04BFA4F4803F09EFE8E
:104C900014216948DFF8608106F042FAB16F4A4892
:104CA00003F0E4FE484803F091FE1C21634806F03F
:104CB00037FAD6F88410444803F0D8FE424803F08F
:104CC00085FE1C215E4806F02BFAD6F8B0103E484F
:104CD00003F0CCFE3C4803F079FEF56F25F00207A7
:104CE000012F00F05786022D00F0F38613214D4866
:104CF00006F016FA344803F069FE02232360FFF73A
:104D0000B6B906F0E3F900287FF7A0AA2E483A4E7C
:104D100003F0F0FF00EB8000430001226520F36503
:104D2000226028609BE406F0D1F900287FF78EAA64
:104D30002548314E03F0DEFF08F0DCFB414908F066
:104D4000E1FC65230122706122602B60184686E435
:104D500006F0BCF900287FF779AA1B48264E03F01D
:104D6000C9FF00EB8000430001226520336622600A
:104D7000286074E4204AD2F8B4300133062BC8BF4F
:104D80000023C2F8B430012365202360286066E464
:104D900006F09CF900287FF759AA0B48164E03F03D
:104DA000A9FF65230122C6F8B80022602B601846CF
:104DB00055E4114B93F8C420002A00F0D585002259
:104DC00083F8C420DFE700BFC887FF1F8C290100DC
:104DD000A0290100B02901009C94FF1FC0290100F7
:104DE0000C95FF1FD4290100F094FF1FE829010052
:104DF000F494FF1FFC2901004893FF1F0C2A0100B7
:104E0000C094FF1F282A0100BC94FF1F3C2A010008
:104E10007892FF1F502A01006087FF1F702A01004F
:104E20009894FF1F302601008C2A0100AC2A010053
:104E3000CC2A0100442B0100502B0100682B0100FB
:104E4000882B010000007A4406F040F900287FF723
:104E5000FDA98448844E03F04DFF08F04BFB8349C5
:104E600008F050FC65230122F06122602B60184697
:104E7000FFF7F5BB7E4A1368B3FA83F35B090121A0
:104E80006420136021602860FFF7E9BB794A7A4FFC
:104E90001368002B0CBF012300234FF001001360A7
:104EA000206040F0AA85034664222A606420FEF751
:104EB000E9BF724ADFE76C4AD36F0133032BC8BFE7
:104EC0000023D3670123632023602860FFF7C7BB5B
:104ED0000123236006F0FAF80028F3DD6148624EF2
:104EE00003F008FFA6F89400ECE7654AC3E75E4EBE
:104EF000B36FB3FA83F35B0901226320B3672260C7
:104F00002860FFF7ACBB584ED6F88430B3FA83F371
:104F10005B0901226320C6F8843022602860FFF715
:104F20009EBB0123236006F0D1F80028CADD4D485E
:104F30004D4E03F0DFFEC6F8B000C3E70123236047
:104F400006F0C4F800287FF7A3A84648464E03F0B1
:104F5000D1FE08F0CFFAC6F88C00FFF799B801230C
:104F6000236006F0B3F800287FF792A83D483E4E34
:104F700003F0C0FEA6F8BE00FFF78AB83A4BD3F89C
:104F80008020012A0CBF02220122C3F8802099E769
:104F90003C4A70E73C4A6EE70123236006F096F82E
:104FA000002800F3EF84394B1A68042AC4BF022298
:104FB0001A6064232B60236878E7354A137801214F
:104FC0004B406420137021602860FFF748BB264ED9
:104FD000D6F8A430B3FA83F35B0901226420C6F843
:104FE000A43022602860FFF73ABB012329482360E0
:104FF000FCF7E6FA284A2368106055E706F066F8E1
:1050000000280DDD1748184E03F074FE08F072FA00
:10501000164908F077FB01226223306222602B6080
:1050200006F054F800280EDD0E480F4E03F062FE25
:1050300008F060FA0D4908F065FB01226223C6F80A
:10504000C00022602B6006F041F8002840F3D883AE
:105050000448054E03F04EFE01226223B066226032
:105060002B601DE0C887FF1F4893FF1F00007A4494
:105070000C95FF1FF094FF1F9C92FF1FF494FF1FDD
:105080009C94FF1FBC94FF1F7892FF1F6087FF1F37
:105090009894FF1F7C95FF1FC094FF1F05F0DAFF57
:1050A00006F014F805460028F8D1C24803F08EFC3B
:1050B000C04803F08BFCBF4803F088FCBD4803F0F8
:1050C00085FCBC4803F082FC1521BB4806F028F89B
:1050D000B84803F07BFC1421B84806F021F8B54825
:1050E00003F074FC1B21B64806F01AF8B14803F02F
:1050F0006DFC1321B34806F013F8AE4803F066FCCC
:10510000AC4803F063FCAB4803F060FC2021AE48E0
:1051100006F006F8F068AD4908F040FA07F094FD93
:10512000009502460B46A34803F0AAFC0221A848BA
:1051300005F0F6FF0221A74805F0F2FF9D4803F0B5
:1051400045FC2121A44805F0EBFF30699F4908F098
:1051500025FA07F079FD009502460B46954803F0C5
:105160008FFC02219A4805F0DBFF0221994805F0E7
:10517000D7FF904803F02AFC1F21984805F0D0FF84
:10518000B06A07F061FD022702460B460097894886
:1051900003F076FC0121924805F0C2FF39468D48A4
:1051A00005F0BEFF834803F011FC20218D4805F077
:1051B000B7FFF06A07F048FD009702460B467D48AE
:1051C00003F05EFC0121864805F0AAFF39468148BC
:1051D00005F0A6FF774803F0F9FB2321824805F08C
:1051E0009FFFB06C794908F0D9F907F02DFD0095C3
:1051F00002460B466F4803F043FC3946744805F0FD
:105200008FFF3946734805F08BFF6A4803F0DEFBD9
:105210001F21764805F084FFF06C6C4908F0BEF958
:1052200007F012FD009502460B46624803F028FC89
:105230003946674805F074FF3946664805F070FF47
:105240005C4803F0C3FB1921694805F069FFB16DA3
:10525000584803F00BFC3946664805F061FF3946B3
:105260005C4805F05DFF534803F0B0FB182162482D
:1052700005F056FF706E08F03DF9604908F08EF9B0
:1052800007F0E2FC009702460B464A4803F0F8FBA1
:1052900001215B4805F044FF39464E4805F040FFC8
:1052A000444803F093FB2B21564805F039FFB069C1
:1052B000464908F073F907F0C7FC009502460B4613
:1052C0003C4803F0DDFB3946414805F029FF3946EB
:1052D000404805F025FF374803F078FB1F214A4876
:1052E00005F01EFF716D334803F0C0FB39463948A5
:1052F00005F016FF2F4803F069FB2021434805F015
:105300000FFF316D2B4803F0B1FB3946314805F0F2
:1053100007FF284803F05AFB10213D4805F000FF25
:10532000B16E244803F0A2FB3946294805F0F8FE87
:105330003946284805F0F4FE1E4803F047FB1321C8
:10534000344805F0EDFEF16E1A4803F08FFB0121A1
:10535000314805F0E5FE39461E4805F0E1FE1548E6
:1053600003F034FB10212D4805F0DAFE316F1148AF
:1053700003F07CFB3946164805F0D2FE3946154845
:1053800005F0CEFE0B4803F021FB1421244805F064
:10539000C7FE716F074803F069FB01211E4805F045
:1053A000BFFE39460B4805F0BBFE024803F00EFB7A
:1053B000162137E0C887FF1F782C0100902C0100D0
:1053C000A82C010030260100C42C010000007A4402
:1053D0008C26010078300100E82C01000C2D010022
:1053E000282101002C2D0100502D0100742D0100F9
:1053F000942D0100B02D0100B42D0100CDCCCC3D89
:10540000CC2B0100D02D0100FC2D01001C2E010031
:10541000402E0100542E0100682E01006C2E010068
:10542000802E0100BA4805F07BFE306AB94908F0C9
:10543000B5F807F009FC009502460B46B64803F0A4
:105440001FFB3946B54805F06BFE3946B44805F0F8
:1054500067FEB14803F0BAFA2421B24805F060FEB5
:10546000D6F8C000AB4908F099F807F0EDFB0095BD
:105470000B460246A84803F003FB3946A74805F04F
:105480004FFE3946A64805F04BFEA34803F09EFAAE
:10549000A14803F09BFA03232360FEF7E8BD002236
:1054A000732322602B60FEF77ABD05F00FFE002803
:1054B00040F3A68198489C4E03F01CFC0122622315
:1054C000F06622602B60EBE5FCF798FE0221944821
:1054D000954E05F025FE904803F078FA0221904899
:1054E00005F01EFE8C4803F071FA02218C4805F08D
:1054F00017FE894803F06AFA17218C4805F010FE60
:10550000854803F063FA0221854805F009FE8248C8
:1055100003F05CFA0122622322602B60C0E5844B19
:105520007F48814E002202211A6005F0F9FD7A4879
:1055300003F04CFA0B217F4805F0F2FDE3E705F09C
:10554000C5FD002840F35C817348774E03F0D2FB21
:1055500007F0D0FF01226223B06222602B609FE53A
:1055600005F0B4FD002840F34B816B486E4E03F00C
:10557000C1FB07F0BFFF01226223F06222602B60B3
:105580008EE505F0A3FD002840F33A816248664E9F
:1055900003F0B0FB07F0AEFF5E4908F0B3F801225C
:1055A0006223B06422602B607AE505F08FFD00284D
:1055B00040F3268158485C4E03F09CFB07F09AFFAD
:1055C000544908F09FF801226223F06422602B60A6
:1055D00066E505F07BFD002840F312814E48524EEF
:1055E00003F088FB07F086FF4A4908F08BF8012298
:1055F0006223F06022602B6052E505F067FD002811
:1056000040F3FE804448484E03F074FB07F072FFFD
:10561000404908F077F801226223306122602B6054
:105620003EE505F053FD002840F3EA803A483E4E3F
:1056300003F060FB01226223B06522602B602FE53E
:1056400005F044FD002840F3DB803348364E03F07C
:1056500051FB00EB80004300012162227366216050
:105660002A601DE505F032FD002840F3C9802A4874
:105670002D4E03F03FFB07F03DFF264908F042F8AE
:1056800001226223B06122602B6009E505F01EFD56
:10569000002840F3B5802048234E03F02BFB012265
:1056A0006223306522602B60FAE405F00FFD0028CC
:1056B00040F3A68018481C4E03F01CFB0122622315
:1056C000306722602B60EBE405F000FD002840F31A
:1056D00097801148144E03F00DFB0122622370677E
:1056E00022602B60DCE4D42200210F4803F0F6FB9B
:1056F0002868114AA0F1730001210023B0FA80F05C
:10570000400911602360FEF748BC04F071FE00BF41
:10571000982E010000007A44C887FF1F8C260100E4
:1057200078300100B02E01004893FF1F9C25010036
:105730006C92FF1FB42501004087FF1F0421C3485E
:1057400005F0EEFCC248C34D03F040F9D6F8B43082
:10575000002B12DD1821C04805F0E2FCD5F8B81086
:10576000BB4803F083F90221BC4805F0D9FCB848D6
:1057700003F02CF9B64803F029F91B21B84805F0CD
:10578000CFFC96F8C430012B15BF12211421B54867
:10579000B54805F0C5FCAE4803F018F91321B3482D
:1057A00005F0BEFCAA4803F011F906232360FEF7BA
:1057B0005EBC0B21AE4805F0B3FCC3E70D21AD483C
:1057C00005F0AEFCBEE70D21AB4805F0A9FCB9E73A
:1057D0000C21AA4805F0A4FCB4E70D21A84805F067
:1057E0009FFCAFE70C21A74805F09AFCAAE72368C5
:1057F000002B08BF73280CBF01200020FEF7CDBB93
:1058000023682868012B7EF4C2ABFEF728BF23680B
:105810002868FEF740BC05F059FC00287EF786ACEE
:105820008B488C4E03F066FA07F064FE964907F049
:10583000B5FE61230122706222602B601846FEF7DC
:105840000EBF05F043FC002800F38680814E96F8D9
:105850004000D6F8C830726C032894BF014600217E
:10586000D6F8CC0088BF86F8401000908748FEF735
:105870007EBB05F02BFC00287EF758AC7448754EB3
:1058800003F038FA07F036FE61230122B06322608C
:105890002B601846FEF7E3BE05F018FC0028B6DDC5
:1058A0006B486C4E03F026FA07F024FE784907F0A7
:1058B00075FED6F8CC30726C96F84010009307460F
:1058C0000346C6F8C8707148FEF751BB05F0FEFBF1
:1058D00000287EF7D3AC5E485E4E03F00BFA01223F
:1058E0006B23C6F8980022602B60FEF74DBE05F0D2
:1058F000EDFB00287EF7C2AC5548564E03F0FAF98E
:1059000001226B23C6F89C0022602B60FEF73CBE90
:1059100005F0DCFB00287EF7B1AC4D484D4E03F09E
:10592000E9F95C4BC6F8A80002221A60FCF7FAFFFE
:1059300001226B2322602B60FEF726BE05F0C6FB1A
:1059400000287EF79BAC4248424E03F0D3F9514BFE
:10595000C6F8AC000322E8E73D483E4E03F0CAF922
:10596000C0B286F8400074E7012283F8C420FFF734
:105970000ABA1121484805F0D3FB354803F026F850
:10598000FEF746BF324803F0B5F9444B02461860B3
:10599000FFF70BBB1C21424805F0C2FB4149D8F878
:1059A000900007F0FBFD07F04FF9009702460B4609
:1059B000274803F065F805213B4805F0B1FB244872
:1059C00003F004F8D8F87C50012D00F09480032DEA
:1059D0007FF489A91C21354805F0A2FBB6F8BE105A
:1059E0001B4803F043F80321314805F099FB1848A0
:1059F00002F0ECFFF56FFFF776B92E4B002631462B
:105A00000B201E6003F002FE31460C2003F0FEFD69
:105A10003146142003F0FAFD3146152003F0F6FD5F
:105A20003B68FFF741BA1E21234805F079FB08487F
:105A300002F0CCFFFFF72CB92021204805F070FBC5
:105A4000034802F0C3FFFFF723B900BFBC270100E2
:105A5000C887FF1F4893FF1FC4270100E0270100EC
:105A6000E42701000028010014280100302601006D
:105A7000B0270100A0270100902701008027010026
:105A800060270100702701006F12833A7C95FF1F89
:105A900017B7D138BC94FF1F1C2601006087FF1F79
:105AA000A82B0100CDCCCC3DC82B0100142C01004B
:105AB000342C01000895FF1FE82A0100082B010083
:105AC0001721314805F02CFB304802F07FFFFFF72B
:105AD000DFB817212E482F4D05F022FBD6F8803075
