:1000000000800020BD0100008189000039890000C6
:1000100039890000398900003989000039890000D8
:100020003989000039890000398900008189000080
:10003000818900003989000045AA000049AB000011
:100040008189000081890000818900008189000088
:100050008189000081890000818900008189000078
:100060008189000081890000818900008189000068
:100070008189000081890000818900008189000058
:100080008189000081890000818900008189000048
:100090008189000081890000818900008189000038
:1000A0008189000081890000818900008189000028
:1000B00081890000A57E0000B17E0000B57E0000B1
:1000C000C17E0000C57E0000C97E0000818900005D
:1000D00081890000818900008189000081890000F8
:1000E00081890000818900008189000081890000E8
:1000F0008189000055B2000081890000219600002E
:1001000081890000ED97000081890000818900004D
:1001100081890000818900008189000081890000B7
:1001200081890000818900008189000081890000A7
:100130008189000081890000818900008189000097
:100140008189000081890000818900008189000087
:100150008189000081890000818900008189000077
:1001600081890000799A000081890000818900005E
:100170008189000081890000818900008189000057
:100180008189000081890000818900008189000047
:100190008189000081890000818900008189000037
:1001A0008189000081890000818900008189000027
:1001B000818900008189000081890000564B4CF242
:1001C000205210B51A804DF628121A8000BF00BFC9
:1001D00008F0DAFB514B4FF010621A60504A9A60F7
:1001E000504ADA60504A136813F4807304D14F49BF
:1001F0000B604FF4A85313604D4B1A78110703D5C9
:100200001A7842F008021A704A4B4B492A221A7097
:100210004A4A4B4B8B4204D252F8040F43F8040B6A
:10022000F8E7484B484900228B4202D243F8042B9E
:10023000FAE74649464A002352F8230041F82300D2
:1002400001336F2BF8D1434B434A802103F8011B44
:100250009342FBD1414B3D4A1A60414B8A221A70AE
:10026000A3F5805324225A70A0221A709A7992071B
:10027000FCD59A79D406FCD43A4A937903F00C035E
:10028000082B384BF9D103221A7140225A719A79FE
:100290009006FCD5334A9179324B4906FBD5324A58
:1002A000324911600221516020221A709A7902F0BD
:1002B0000C020C2AFAD12E4B2E4A1A602E4B2F4AD2
:1002C0001A6000225A60072243F8042C2C4AC3F813
:1002D0000C2D62B608F00EFE144B1B68DA0705D52C
:1002E000284808F0EBFB284B284A1A60284B1B785B
:1002F0005B0609D5244C254B22689A4204D121483B
:1003000008F0DCFB002323600CF088FA08F042FBC5
:100310000AF060FEFEE700BF0E200540308004407A
:10032000823F04000100002B10D0034014D0034092
:1003300002D0074000E007402892FF1F8C260100F2
:100340002087FF1F2892FF1FB8C7FF1F0082FF1FD3
:100350000000000000E400E05FE400E008ED00E0E1
:100360000050064000400640448004400000030165
:1003700004800440C010050014E000E0FF76010096
:1003800000002020F8B5095F1CE00340A5C3945A83
:1003900000F00740FFFFFFFFFFFFFFFFFFFFFFFF32
:1003A000FFFFFFFFFFFFFFFFFFFFFFFFFFFFFFFF5D
:1003B000FFFFFFFFFFFFFFFFFFFFFFFFFFFFFFFF4D
:1003C000FFFFFFFFFFFFFFFFFFFFFFFFFFFFFFFF3D
:1003D000FFFFFFFFFFFFFFFFFFFFFFFFFFFFFFFF2D
:1003E000FFFFFFFFFFFFFFFFFFFFFFFFFFFFFFFF1D
:1003F000FFFFFFFFFFFFFFFFFFFFFFFFFFFFFFFF0D
:10040000FFFFFFFFFFFFFFFFFFFFFFFFDEF9FFFF23
:1004100010B5054C237833B9044B13B10448AFF33E
:1004200000800123237010BD2892FF1F00000000F0
:1004300088260100084B10B51BB108490848AFF3E6
:1004400000800848036803B910BD074B002BFBD0A0
:10045000BDE81040184700BF000000002C92FF1FAD
:10046000882601002892FF1F00000000F0B400F170
:100470001C06134F00243146031F00F13C0243F8D1
:10048000044FB34241F8047F4FF0000542F8044F97
:10049000F5D100230B4A0C4C056647F230514566F6
:1004A0008566C566C56744670267826780F88430E1
:1004B00080F8853080F89C30A0F8AE10F0BC704712
:1004C0000000A040000048430000C8C290F88C0023
:1004D000704700BF90F88800704700BF90F8900008
:1004E000704700BF90F89400704700BF082994BF80
:1004F00050F82100002070472DE9F0410B4E804656
:10050000041F00F11C0754F8045F314628460CF024
:1005100011F930B1D8F8801028460CF029F900B153
:100520002E46BC42EFD13046BDE8F08100002041AC
:100530002DE9F041D0F880704FF00008041F00F161
:100540001C0654F8045F394628460CF011F9084996
:1005500048B128460CF0EEF8414620B128460CF090
:1005600007F900B1A846B442EBD14046BDE8F0819E
:10057000000070422DE9F047D0F8807082464FF0BD
:100580000009041F00F11C064FF0000854F8045F36
:10059000394628460CF0ECF80E4950B128460CF0CC
:1005A000C9F830B1484629460BF01EFE08F1010893
:1005B0008146B442EAD1B8F1000F01D0CAF8A08058
:1005C00040460BF0C5FE014648460BF0C9FFBDE8AA
:1005D000F08700BF00007042D0F8A000704700BF55
:1005E000D0F8983070B5054673B9866E446E3146C2
:1005F00020460CF09FF8A0B1ED6E204629460CF085
:1006000099F800B3204670BD012B14D0022B1FD0E7
:10061000032B1BD00C2B1DD0172B1FD00D2B1BD049
:1006200070BDEC6E304621460CF084F80028E9D00D
:100630003446204670BDC46EAD6E204629460CF08F
:1006400079F80028DED12C46204670BD446EF3E7D1
:10065000446ED1E7C46ED5E7846ED3E7446ED1E72C
:10066000D0F8983070B5054673B9866E446E314641
:1006700020460CF07DF8A0B1ED6E204629460CF026
:1006800077F800B3204670BD012B14D0022B1FD089
:10069000032B1BD00C2B1DD0172B1FD00D2B1BD0C9
:1006A00070BDEC6E304621460CF062F80028E9D0AF
:1006B0003446204670BDC46EAD6E204629460CF00F
:1006C00057F80028DED12C46204670BD446EF3E773
:1006D000446ED1E7C46ED5E7846ED3E7446ED1E7AC
:1006E0002DE9F04F022987B00746144600F02E810D
:1006F000032900F0C480012900F0838097F8AC3012
:1007000001933846FFF76CFF396F04460CF012F87E
:1007100000B13C673846FFF7A3FF796F04460CF041
:1007200027F800B17C6707F11C0BA7F1040A07F159
:100730003C095D46D0464E4658F8044F55F8040F24
:1007400021460CF015F830B1D7F8801020460CF097
:1007500005F800B12C6056F8041F20460CF008F88C
:1007600000B13460A945E7D1019B002B7ED0A84C95
:10077000D7F8A82023680393039BB7F8AE109B1A01
:100780008B420DD300224AF8042FD3454FF00003CB
:10079000F9D13B667B66BB66FB6607B0BDE8F08FB0
:1007A00023680493049BC91A0A4441F287339A428E
:1007B000F3D80221974809F0DFFF97480AF074FA4E
:1007C0000621964809F0D8FF00230A2297F89C10CA
:1007D00091480AF079FA1921914809F0CDFF236870
:1007E0000593059AB7F8AE30D7F8A8108A489B1A37
:1007F00019440A2200230AF067FA87480AF054FADB
:10080000CBE7137A80F8A430D0F8B400D7F8B06002
:100810000BF09EFDE37A0546A07A03EB00200BF077
:1008200097FD31460BF0E8FD29460BF0DDFC7866BC
:10083000637B207B03EB00200BF08AFD31460BF03D
:10084000DBFD29460BF0D0FCB866E37BA07B03EB15
:1008500000200BF07DFD31460BF0CEFD29460BF05C
:10086000C3FC97F8AC300193F8664AE7684B1B6805
:100870000293029BC7F8A83007B0BDE8F08F107A4A
:10088000537A03EB00200BF063FD66490BF0B4FDD7
:10089000D7F88050294606460BF06AFF40B16249FE
:1008A00030460BF047FF18B100233E6187F8AC30AB
:1008B000E37AA07A03EB00200BF04AFD59490BF0D4
:1008C0009BFD0646014628460BF034FF40B15649D1
:1008D00030460BF02FFF18B100237E6187F8AC3053
:1008E000637B207B03EB00200BF032FD4D490BF0C6
:1008F00083FD0646014628460BF01CFF40B14A49DD
:1009000030460BF017FF18B10023BE6187F8AC30FA
:10091000E37BA07B03EB00200BF01AFD41490BF0B9
:100920006BFD0446014628460BF004FF00283FF407
:10093000E5AE3D4920460BF0FDFE00283FF4DEAE5B
:100940000023FC6187F8AC300193DAE6107A537A21
:1009500003EB00200BF0FCFC32490BF04DFDD7F807
:100960008050294606460BF003FF00285ED1012384
:1009700087F8AC30E37AA07A03EB00200BF0E8FCB8
:1009800028490BF039FD0646014628460BF0D2FEF9
:1009900000285FD0244930460BF0CCFE002859D007
:1009A00000237E6087F8AC30637B207B03EB002064
:1009B0000BF0CEFC1B490BF01FFD064601462846F6
:1009C0000BF0B8FE002841D0174930460BF0B2FEBC
:1009D00000283BD00023BE6087F8AC30E37BA07BCF
:1009E00003EB00200BF0B4FC0E490BF005FD0446B0
:1009F000014628460BF09EFE18B30B4920460BF02B
:100A000099FEF0B10023FC6087F8AC30019378E6E2
:100A1000C0C4FF1F941E0100C887FF1FEC0901001E
:100A2000F40901006F12833A000070420B4930460E
:100A30000BF080FE00289AD000233E6087F8AC308F
:100A400098E7012387F8AC3001935AE6012387F831
:100A5000AC30C3E7012387F8AC30A5E70000704253
:100A6000D0F8983010B5044663B1012B15D0022B95
:100A70001ED0032B25D00C2B2CD0172B2CD00D2BBC
:100A800014D010BD816E406E0BF0AEFBE16E0BF02A
:100A9000ABFB12490BF064FD10BDC16E806E0BF014
:100AA000A3FB4FF07C510BF0A7FC10BD806E10BD76
:100AB000C16E406E0BF098FB4FF07C510BF09CFC2C
:100AC00010BD816E406E0BF08FFB4FF07C510BF030
:100AD00093FC10BDC06E10BD406E10BD00004040C4
:100AE0002DE9F8430026D0F880800666814604464A
:100AF00000F1200754F8045B414628460BF038FE0D
:100B0000084950B128460BF015FE30B13046294651
:100B10000BF06AFB0646C9F86000BC42EAD13046D9
:100B2000BDE8F8830000704202299ABF00EB810003
:100B3000406E0020704700BF3E2998BF80F89C108F
:100B4000704700BF90F8A400704700BF90F8840081
:100B5000704700BF90F88500704700BFC0F898103C
:100B6000704700BF80F88410704700BF80F8851080
:100B7000704700BF30B5C0F8801083B008460AF057
:100B800091FF074C022502460B46009520460AF0CD
:100B9000E3F8204603B0BDE830400AF085B800BF56
:100BA000C887FF1FC0F8B010C0F8B420704700BF5E
:100BB00070B500F535550646303500F1280420465D
:100BC000B834FFF753FCAC42F9D106F1E00501243B
:100BD00028460021FFF7C6FF214628460134FFF7CB
:100BE000ABFF3F2C05F1B805F2D142F67C5400254D
:100BF0000548064A064B3555002130617161B261E6
:100C0000F361304670BD00BF00007A4400004843E5
:100C10000000C8C238B500F1E004012504E0013548
:100C20003F2D04F1B80411D02046FFF78FFF0028B4
:100C3000F5D020460021FFF795FF294620460135D3
:100C4000FFF77AFF3F2D04F1B804EDD138BD00BFA6
:100C500070B500F53556303600F1E004002507E0A8
:100C6000012520460021B834FFF780FFB4420AD0A6
:100C70002046FFF76BFF0028F3D02046FFF76AFFFE
:100C80000028EDD170BD284670BD00BFF8B500F555
:100C90003657002300F535563B60303600F1E0044E
:100CA00002E0B834B4420DD02046FFF74FFF0028D1
:100CB000F7D020463D68FFF78FFCB8342844B44293
:100CC0003860F1D13868F8BDF8B50E46096801F40E
:100CD0007F6500290446A5F5C06515DB2D0901F0E7
:100CE0000F07B82303FB0544283420460121FFF7F2
:100CF00039FF20460121FFF739FF324639462046A9
:100D0000BDE8F840FFF7ECBC0A4801F00F0709F016
:100D1000CBFF1221084809F02FFD3168054801F08A
:100D2000004100230A2209F0CFFF02482D0909F0F3
:100D3000BBFFD6E7C887FF1F100A01002DE9F0436B
:100D40000446002383B0064644F8E03B012504E056
:100D500001353F2D04F1B80466D02046FFF7F6FEBA
:100D60000028F5D04E4800F06DFD29464D4800F0B2
:100D700069FD2046FFF7B4FE0AF094FE02460B46DA
:100D8000494800F05FFD2046FFF7B6FB804620464D
:100D9000FFF7CEFB074640460AF084FE8046384601
:100DA00089460AF07FFE42464B46CDE900013F48A6
:100DB00000F048FD00212046FFF7B6FE01218046E5
:100DC0002046FFF7B1FE074640460AF06BFE80461C
:100DD000384689460AF066FE42464B46CDE9000198
:100DE000334800F02FFD2046FFF77AFE01463068B9
:100DF0000BF0FAF930602046FFF7F2FBB1690BF017
:100E000099FC002833D12046FFF72AFCF1690BF04A
:100E1000AFFC00289CD02046FFF722FC01353F2D77
:100E2000F06104F1B80498D170680BF091FA0146B2
:100E300030680BF095FB7169306004460BF098FC4C
:100E400000B17461316920460BF074FC00B134616B
:100E50000B2007F0CBFF42F67C53F35C60B99BB1EB
:100E600042F67C530122F25403B0BDE8F0832046E1
:100E7000FFF7B6FBB061C6E753B942F67C530022D8
:100E8000F25403B0BDE8F0830A4800F009FDE7E73B
:100E9000094800F0EFFC42F67C530022F254F0E7E0
:100EA00018120100240A0100600A0100740A0100FE
:100EB000A00A0100BC0A0100F40A01002DE9F0417A
:100EC00000F1E00400F53556DFF85480074625466A
:100ED00030362846FFF73AFEB83508B1C7F8088023
:100EE000B542F6D12046FFF731FE38B9B834B442E6
:100EF00013D02046FFF72AFE0028F7D02046FFF740
:100F0000FBFAB9680BF016FC0028EFD02046FFF77B
:100F1000F3FAB834B442B860EBD1B868BDE8F081F8
:100F20000000A0402DE9F04100F1E00400F5355645
:100F300007464FF00008254630362846FFF706FEE4
:100F4000B83508B1C7F80C80B542F6D12046FFF796
:100F5000FDFD38B9B834B44213D02046FFF7F6FD92
:100F60000028F7D02046FFF7E3FAF9680BF000FC01
:100F70000028EFD02046FFF7DBFAB834B442F8601F
:100F8000EBD1F868BDE8F0810068704741607047B8
:100F90002DE9F84342F6885642F68C5542F6845EB7
:100FA00042F69054815140F80E20089E435100F5BE
:100FB00035550651894690461F46303500F1E0040C
:100FC00002E0B834AC4214D02046FFF7BFFD002841
:100FD000F7D020464946FFF7C1FD20464146FFF7BE
:100FE000C9FD204632463946B834FFF7DBFDAC4236
:100FF000EAD1BDE8F88300BF2DE9F04342F674530F
:1010000000F535550027C7502E463A4A3A4B426202
:1010100083B080464FF0000903623035343600F16A
:10102000E00402E0B834A54213D02046FFF78EFD5D
:101030000028F7D03368013333602046FFF710FDF6
:101040002E490BF095FB80BBB834A54207F1010790
:10105000EBD142F6745358F80340E01B0BF078F9DB
:10106000014648460BF07CFA054642F6785058F89F
:1010700000309C4215D042F6905642F68C5342F610
:10108000845242F6885158F8066058F8033058F8F0
:10109000022058F8011048F8004000964046FFF73B
:1010A00077FF284603B0BDE8F0832046FFF7D8FC61
:1010B000014648460BF098F881462046FFF7D0FAE3
:1010C000D8F820100BF054FB70B92046FFF788FACF
:1010D000D8F824100BF02EFB0028A3D02046FFF7F1
:1010E0007FFAC8F824009DE72046FFF7B9FAC8F850
:1010F0002000EAE700C0794400C079C400008CC237
:10110000006A704742F67453C0587047406A70478F
:10111000F8B500F5355507460026303500F1E004F6
:1011200002E0B834AC420FD02046FFF70FFD002894
:10113000F7D02046FFF71EFA014630460BF054F870
:10114000B834AC420646EFD142F67453F8580BF06F
:10115000FFF8014630460BF003FAF8BD2DE9F04FD9
:1011600091B0064696480F91934600F013FB9448C1
:1011700000F010FB924800F00DFB42F6745330462D
:1011800056F80380FFF782FD07463068D6F80490D2
:101190000AF088FC02460B463046CDE90C23FFF7E7
:1011A000B7FF82463046B468F568FFF725FF0AF0BE
:1011B00079FCCDE90A01214628460BF013F8814954
:1011C0000BF01AF90AF06EFCCDE9080128460AF086
:1011D00069FCCDE9060120460AF064FCCDE9040172
:1011E00050460AF05FFCDDE90C23CDE90201CDE9B0
:1011F000002341464B463A46734800F0CBFA70480C
:1012000000F0C8FA0023E03601270C9305E001370F
:101210003F2F06F1B80600F0C2803046FFF796FC7B
:101220000028F4D03046FFF751F93046FFF752F965
:101230003046FFF753F93046FFF754F93046FFF7D1
:1012400081FC08218246614809F096FA39466048D7
:1012500009F07AFD092F40F3AD8002215D4809F0C5
:101260008BFA3046FFF73CFC0AF01CFC9DF83C80F2
:10127000CDF800800B460246554809F06DFD01216E
:10128000554809F079FA3B460C9C474600254FF03B
:10129000010998462EE00621504809F06DFA2146D2
:1012A0004B4809F051FD02214D4809F065FA2946E5
:1012B0003046FFF71BF90AF0F5FB00970B46024694
:1012C000434809F049FD012143480C4409F054FA10
:1012D00009FA05F3BBF1000F09D013EA0A0F4FF02A
:1012E0000201404804BF4048022109F045FA013597
:1012F000082D06D0092CCEDC01213C4809F03CFA2F
:10130000C9E7334809F0D0FC0921394809F034FA1B
:1013100000213046FFF708FC0AF0C4FB0224024615
:101320000B4600942A4809F017FD0A21314809F0BC
:1013300023FA01213046FFF7F7FB0AF0B3FB0094D4
:1013400002460B46224809F007FD0A212A4809F007
:1013500013FA21463046FFF7E7FB0AF0A3FB0B46E2
:101360000C9900940246083119480C91474609F03F
:10137000F3FCBBF1000F15D00D21204809F0FCF95A
:10138000224651460023124809F09EFC01371048BE
:1013900009F08AFC3F2F06F1B8067FF43EAF11B08A
:1013A000BDE8F08F0121164809F0E6F9084809F078
:1013B0007BFC2CE701210D4809F0DEF94DE700BF69
:1013C0001812010000007A44A40D0100440E01002F
:1013D000C887FF1F941E0100500E0100540E01002B
:1013E000581001005C0E0100600E01006810010041
:1013F000640E0100700E01007C0E0100880E0100D9
:10140000980E01002DE9F04F85B000F1E0058A4605
:1014100003929B462E464FF0010806E008F10108B2
:10142000B8F13F0F06F1B8067BD03046FFF78EFBD0
:101430000028F3D000230A2251467D4809F044FCDD
:1014400001217C4809F098F903980AF02BFB00234E
:101450000246009376480B4609F07EFC0121754850
:1014600009F08AF95946724809F06EFC0121714869
:1014700009F082F941466E4809F066FC01216D4889
:1014800009F07AF900244FF0020921463046FFF7AF
:101490002DF80AF007FBCDF8009002460B46644891
:1014A00009F05AFC01340121624809F065F9082C61
:1014B0004FF00207E9D100213046FFF735FB0AF073
:1014C000F1FA009702460B46594809F045FC012104
:1014D000584809F051F901213046FFF725FB0AF081
:1014E000E1FA009702460B46514809F035FC01210C
:1014F000504809F041F939463046FFF715FB0AF02C
:10150000D1FA009702460B46494809F025FC08F13C
:101510000108474809F0C8FBB8F13F0F06F1B806CB
:1015200083D101274FF0000904E001373F2F05F177
:10153000B80579D02846FFF709FB0028F5D000232D
:101540000A2251463C4809F0BFFB0121394807F007
:1015500063FF03980AF0A6FACDF8009002460B4606
:10156000354809F0F9FB0121324807F055FF59468B
:10157000314809F0E9FB01212E4807F04DFF3946BB
:101580002D4809F0E1FB01212A4807F045FF00241E
:101590004FF0020821462846FEF7A8FF0AF082FA1B
:1015A000CDF8008002460B46234809F0D5FB0134F4
:1015B0000121204807F030FF082C4FF00206E9D146
:1015C00000212846FFF7B0FA0AF06CFA00960246AE
:1015D0000B46194809F0C0FB0121164807F01CFF13
:1015E00001212846FFF7A0FA0AF05CFA00960246AD
:1015F0000B46114809F0B0FB01210E4807F00CFF23
:1016000031462846FFF790FA0AF04CFA0096024657
:101610000B46094809F0A0FB0137074809F044FBD5
:101620003F2F05F1B80585D105B0BDE8F08F00BFAB
:10163000C887FF1F9C0E0100B887FF1F014B187061
:10164000704700BF2087FF1F0278002A00F09080BB
:1016500070B5034682B00D46252A2AD158785C1C05
:1016600008B325282FD0732831D0642824D06928C6
:1016700022D066284FD07A2859D0782835D05828DB
:101680002FD062283ED0422838D06C2814D063284E
:1016900012D0742857D054285FD009F0F1F862783E
:1016A000631C002AD8D1344802B0BDE8704009F06C
:1016B000FBBA18781C46F0E72B1D29682E481D46FA
:1016C00009F042FBEBE7104609F0DAF8E7E72E688D
:1016D00030460BF095FE01463046043509F04CF8D3
:1016E000DDE70221254809F047F82E1D2968224828
:1016F00000231022354609F0E7FAD0E702212048FE
:1017000009F03AF82E1D29681B48002302223546AD
:1017100009F0DAFAC3E7073525F007050321D5E913
:10172000002315480091083509F016FBB7E7073587
:1017300025F007050021D5E900230F480091083561
:1017400009F00AFBABE7296801290EBF0D480E48D6
:101750000121043509F010F8A1E72B68012B07BF20
:1017600004210A480A480521043509F005F896E7DE
:10177000014809F099BA00BFC887FF1FA00E0100F9
:10178000A40E0100A80E0100AC0E0100B00E010075
:10179000B80E01000FB400B583B004A951F8040BD2
:1017A0000191FFF751FF03B05DF804EB04B07047FF
:1017B00070B51B4B1B4C1B6882B00D460193019BFF
:1017C0002360194604460023164617480A2209F0EA
:1017D0007BFA0321154808F0CFFF032C07D8DFE878
:1017E00004F01A1510020521114808F0C5FF022166
:1017F000104808F0C1FF31462846FFF725FF02B028
:1018000070BD07210C4808F0B7FFF0E704210B4832
:1018100008F0B2FFEBE70521094808F0ADFFE6E765
:10182000C0C4FF1F4492FF1FC887FF1FC00E0100E6
:10183000DC0E010058100100D40E0100CC0E010096
:10184000C40E01000FB400B5094B187883B020B165
:1018500003B05DF804EB04B0704705AB1A46049979
:101860000193FFF7A5FF03B05DF804EB04B07047E8
:101870002087FF1F0FB4094B00B51B78012B83B0E5
:1018800004D903B05DF804EB04B0704705AB1A4609
:10189000049901930120FFF78BFFF2E72087FF1FD8
:1018A0000FB40B4B00B51B78032B83B004D903B0E6
:1018B0005DF804EB04B0704705AB1A460499019338
:1018C0000320FFF775FF03B05DF804EB04B0704729
:1018D0002087FF1F0A4A0B49D06D936D03FB00F36D
:1018E0004FF47A7000FB03F0642310B50B600AF02C
:1018F0002FFD0549054C0AF033FE206010BD00BFE6
:101900005CC1FF1F3087FF1FE4388E3EC4C2FF1F3B
:1019100038B5044608460D460BF072FD23680246B2
:1019200029465B68204698470546204609F0BCF9E1
:10193000284438BD2DE9F8434848494E494F4A4CA0
:10194000FFF728FF494B4A4A4A494B485A6013253A
:101950001D704A4D4A4AD9601E610021494E5F619F
:101960005C62494FDD624FF07C540C2598619A62AD
:101970004648474A19635E634649474E9F639C64E5
:1019800040F61C470A245D65444DD8641A65022060
:1019900001221962C3F8C060002164269F66DC66DC
:1019A0004FF496773224DD61DD631D6441F2040556
:1019B000587058721A729A6583F84410DE65A3F85D
:1019C0006470A3F86070A3F862404FF05A091D6775
:1019D0004FF47A789967D867C3F88020C3F88410E9
:1019E000C3F89C40C3F8A840DFF8B8C0C3F8A410FF
:1019F000C3F8B020C3F8B400DFF8ACE0C3F8B860B7
:101A000044F6206783F8C42083F8D010FF2641F203
:101A1000883183F8DC20052540F2D662204CC3F8DB
:101A200074906FF03300C3F8A080C3F88CC0C3F883
:101A300090E0C3F89470C3F8AC60A3F8BE50C3F84C
:101A4000C840C3F8CC00C3F89810A3F8BC10A3F8A2
:101A50008820A3F88A20BDE8F88300BFE40E0100C7
:101A60000000404033338340CDCCCC3D5CC1FF1FF0
:101A700020A1070066668640CDCC4C40000020C106
:101A800000008242000020420000A0409A99794064
:101A90000AD7233D333373409A99993ECDCC4C3EBF
:101AA0006C09793B0000114400F0C845F0B50021F5
:101AB00085B0112007F0A8F90021102007F0A4F943
:101AC0000021122007F0A0F90021132007F09CF953
:101AD00001210B2007F098F901210C2007F094F95F
:101AE0000121142007F090F90121152007F08CF94D
:101AF0000121162007F088F90121172007F084F949
:101B00000121052007F080F9954C964D0121062012
:101B100007F07AF901210D2007F076F920880AF004
:101B200013FC0146162007F0D9F820880AF00CFCB7
:101B30000146172007F0D2F820880AF005FC01467C
:101B4000052007F0CBF820880AF0FEFB00240146B0
:101B5000062007F0C3F800942346834A834984484B
:101B600005F048FEE6B232467E49814805F0F0FDB8
:101B70002B797C497E486FF30003013432462B7188
:101B800005F0DCFD082CEDD10924E6B2324675499A
:101B9000774805F0DDFD2B797249754843F0010364
:101BA000013432462B7105F0C9FD0D2CEDD1714C7D
:101BB00023681021D3F8840006F09CFA23681021D2
:101BC000D3F8840006F02AFB23680221D3F88400AE
:101BD00006F0E6F923680221D3F8840006F06EFBD4
:101BE00023680F21D3F8840006F04AFC0C216248D8
:101BF00008F0C2FD614809F057F81421604808F068
:101C0000BBFD5E4809F050F840F2836007F0E2F94E
:101C10005A4809F049F817215A4808F0ADFD5748CD
:101C200009F042F8584B1B789A0600F1CF80564BCA
:101C30001B781B0700F1D680534B1B785F0700F120
:101C4000DD80514B1B789E0700F1E4804F4B1B78E1
:101C50001D0600F1EB804D4B1B785C0600F1F28015
:101C60004A4B1B78980600F1F980484B1B785907BE
:101C700000F10081454B1B781A0700F10781434BA7
:101C80001B789B0700F10E813C4809F00DF872B6F5
:101C90003F4A4CF220534DF628112024138023464E
:101CA0001180013BFDD13B4D3B483C4900234FF4A3
:101CB00080562E8003800B8032F80E3C9BB243F09E
:101CC000D30322F80E3C62B69D2007F02FFD21467B
:101CD0003348344D08F050FD284808F0E5FF05F181
:101CE000E0062F462C46601B06F094FD04F8010B1D
:101CF000B442F8D13B78132B01D0FFF71BFE042030
:101D0000FFF79CFC284B294E002401210D201C606C
:101D100007F066F8B96D2648FFF738F9D7F8CC0018
:101D2000D7F8C830BA6C97F8441000902048FFF7F5
:101D30002FF9204B20491A680392039D1B680293D8
:101D40001E4B029A1E480D601A60347006F04CFC5F
:101D50001C4806F049FC1C4806F046FC05B0F0BDE6
:101D60003487FF1F5CC2FF1FB4C4FF1F20A1070000
:101D700018C3FF1F00C3FF1F040F0100C887FF1F08
:101D8000140F01002C0F010001F0074000F0074084
:101D90000E20054004200540062005401620054081
:101DA000301001005CC1FF1F94C0FF1F4CC1FF1F1A
:101DB0000093FF1FC0C4FF1F98C0FF1FA0C0FF1FDC
:101DC00048C2FF1FA4C2FF1F38C1FF1F212139488D
:101DD00008F0D2FC384808F067FF384B1B781B0727
:101DE0007FF52AAF0C21364808F0C6FC324808F0CF
:101DF0005BFF324B1B785F077FF523AF0E21314825
:101E000008F0BAFC2C4808F04FFF2C4B1B789E07BB
:101E10007FF51CAF17212C4808F0AEFC264808F0CF
:101E200043FF2A4B1B781D067FF515AF0E2128486E
:101E300008F0A2FC204808F037FF244B1B785C0612
:101E40007FF50EAF1221234808F096FC1A4808F0DF
:101E50002BFF1E4B1B7898067FF507AF13211E48FA
:101E600008F08AFC144808F01FFF184B1B7859072C
:101E70007FF500AF1C21194808F07EFC0E4808F0E1
:101E800013FF124B1B781A077FF5F9AE192114487E
:101E900008F072FC084808F007FF0C4B1B789B0702
:101EA0007FF5F2AE18210F4808F066FC024808F0F2
:101EB000FBFEE9E6440F0100C887FF1F01F0074061
:101EC000680F0100780F0100880F010000F0074043
:101ED000A00F0100B00F0100C40F0100D80F0100D6
:101EE000F80F01001410010070B5424C424D4348F8
:101EF000E66800232B70FFF715F8014630460AF01C
:101F000019FC08B104232B703C48FEF7D7FF216968
:101F10000AF010FC18B12B7843F010032B703748EF
:101F2000FFF7EEF8A16A0AF023FC18B12B7843F012
:101F300040032B70002631486E70FFF7E7F82F48FA
:101F4000EE70FEF7EFFF05462C482B4EFEF7B6FF6E
:101F5000014628460AF046F9E16B0AF009FC08B18F
:101F60000123F370264D254800232B70FEF7DAFF7E
:101F7000616A0646E0680AF035F9014630460AF023
:101F8000F7FB08B104232B701C48FEF797FF616A2A
:101F9000064620690AF028F9014630460AF0CAFBD5
:101FA00018B12B7843F010032B701448FFF7A8F8F2
:101FB000A16B0646A06A0AF015F9014630460AF000
:101FC000D7FB18B12B7843F040032B7000230B484C
:101FD0006B70FFF79BF8A16B0546E06A084C0AF0AE
:101FE00003F9014628460AF0A5FB08B101236370F6
:101FF00070BD00BF5CC1FF1F30C1FF1F0093FF1FFA
:102000004C92FF1F2DE9F0417C4C2368012B82B0DC
:1020100031D0022B00F0A880032B00F0C8803BBB1E
:10202000774B784AD3F8A810D3F8AC3012685B1A13
:10203000632B0EDD744803FB02F380FB0302DB1706
:10204000C3EB62131944062002B0BDE8F04106F06C
:1020500047BD6E4803FB022380FB0302DB17C3EB83
:1020600022121144062002B0BDE8F04106F038BD4E
:1020700002B0BDE8F081664E33680A33B3F57A7F6B
:1020800000F3B780184633600AF062F961490AF03C
:10209000B3F980465A4DD5F8A8000AF059F9074619
:1020A000D5F8AC000AF054F939460AF09BF84146DD
:1020B0000AF0A2F958490AF053FA39460AF094F89E
:1020C0000AF060FB0146062006F00AFD0221534893
:1020D00008F052FB524808F0E7FD0621514808F08D
:1020E0004BFB30680AF034F94A490AF085F909F0E7
:1020F000D9FC022702460B460097494808F02CFEFF
:102100000D21494808F038FBD5F8A8000AF020F95D
:10211000804630680AF01CF93E490AF06DF906461F
:10212000D5F8AC000AF014F941460AF05BF8014614
:1021300030460AF061F938490AF012FA41460AF0CD
:1021400053F809F0AFFC00970B460246344808F0FC
:1021500003FE3946314808F00FFB314808F0A4FD72
:102160002368022B7FF458AF294B254E00221A60BA
:10217000D6F8A8000AF0ECF80546D6F8AC000AF04C
:10218000E7F829460AF02EF800210AF035F922492D
:102190000AF0E6F929460AF027F80AF0F3FA0146B0
:1021A000062006F09DFC2368032B7FF438AF184B04
:1021B000134E4FF47A721A60D6F8A8000AF0C8F8E5
:1021C0000546D6F8AC000AF0C3F829460AF00AF82A
:1021D00011490AF011F910490AF0C2F929460AF02A
:1021E00003F80AF0CFFA0146062006F079FC2368CE
:1021F00015E700234FF0000833604BE78092FF1F84
:102200005CC1FF1F3087FF1F1F85EB51CBF08D286E
:102210003CC2FF1FCDCCCC3D0000C842941E010043
:10222000C887FF1F541001005C10010030B59448AE
:10223000944C83B008F038FD914808F035FD904883
:1022400008F032FD0D21904808F096FAD4F8A43039
:10225000012B00F03F818D4D8948297800230A2207
:1022600008F032FD2B78052B0BD8DFE813F0A20124
:10227000A701AC01B101B60106000721844808F0AE
:102280007BFA8448FEF71AFE21690AF053FA002807
:1022900040F08A817F48FEF745FEE1680AF068FA5F
:1022A000002840F07C817B48FEF73CFE05467948DB
:1022B000FEF704FE0146284609F094FFE16B0AF0A0
:1022C00057FA002840F066817248FEF719FFA16AAC
:1022D0000AF04EFA002840F058816E48FEF716FFCB
:1022E000E16A0AF027FA002840F04A8102216A4890
:1022F00008F042FA122006F079FD012800F09981D9
:10230000112006F073FD012800F08581634B1B68E6
:10231000012B00F0898102215F48614C08F02CFA02
:10232000604B5748196808F00FFD554808F0BCFC91
:1023300004215D4808F020FA0B2006F057FD002329
:1023400001460A224E4808F0BFFC0C2006F04EFD64
:10235000002301460A224A4808F0B6FC142006F081
:1023600045FD002301460A22454808F0ADFC152032
:1023700006F03CFD0A2200230146414808F0A4FC77
:1023800006214A4808F0F8F92368DD074FF00101FB
:102390004CBF4748474808F0EFF9236898074FF0CB
:1023A00001014CBF4248434808F0E6F923685A0748
:1023B0004FF001014CBF3E483E4808F0DDF923686C
:1023C0001B074CBF3A483B48012108F0D5F90421CE
:1023D000394808F0D1F9112006F008FD0023014624
:1023E0000A22274808F070FC102006F0FFFC0023AA
:1023F00001460A22224808F067FC122006F0F6FC8B
:10240000002301460A221E4808F05EFC132006F055
:10241000EDFC0A2200230146194808F055FC18215A
:10242000264808F0A9F9264BB3F9000009F090FFFF
:10243000244909F0E1FF09F035FB002402460B4670
:1024400000940F4808F088FC1D211F4808F094F9FB
:102450001E4BB3F9000009F07BFF1A4909F0CCFFCD
:1024600009F020FB009402460B46054808F074FC76
:102470001748022103B0BDE8304008F07DB900BF25
:10248000C887FF1F5CC1FF1F6C1001004CC1FF1FFC
:102490003C1101000093FF1F941E01006CC2FF1F3E
:1024A000F0C2FF1F5892FF1F741101007C11010040
:1024B00084110100EC20010088110100901101003D
:1024C0007C92FF1FCDCCCC3DAC110100E8C2FF1FB8
:1024D000CC1101000921644808F04EF96348FEF769
:1024E000EDFC21690AF026F9002840F085805F485C
:1024F000FEF718FDE1680AF03BF9002840F08680FD
:102500005A48FEF70FFD05465848FEF7D7FC01462E
:10251000284609F067FEE16B0AF02AF9002870D11D
:102520005248FEF7EDFDA16A0AF022F900285ED1BB
:102530004E48FEF7EBFDE16A0AF0FCF8002851D1A5
:102540004B4B4A481B68012B78D0FEF7B7FC21693A
:10255000484D0AF00DF900283FF4C8AE4348FEF795
:10256000E1FCE9680AF0E6F800283FF4BFAE424B10
:102570001B78052B72D00821404808F0FDF8B5E61D
:102580000D213F4808F0F8F8B0E60C213D4808F06E
:10259000F3F8A2E611213C4808F0EEF894E60E218B
:1025A0003A4808F0E9F87EE60F21394808F0E4F8E7
:1025B00070E60621374808F0DFF862E60721364862
:1025C00008F0DAF85DE60721344808F0D5F858E657
:1025D0000821334808F0D0F853E60B21314808F0C1
:1025E000CBF84EE60D21264808F0C6F8A8E70C21E6
:1025F000244808F0C1F89BE70F21254808F0BCF8F3
:1026000075E71121204808F0B7F889E70E211F4827
:1026100008F0B2F874E70A21234808F0ADF8234B1C
:102620001B68012B7FF477AE1121214808F0A4F834
:1026300071E60E211F4808F09FF861E6FEF73EFCA8
:10264000216A0AF095F8002895D016211A4808F05A
:1026500093F80A21194808F08FF847E60A2117482D
:1026600008F08AF842E600BF7C1001000093FF1FCB
:102670008892FF1F5CC1FF1F4CC1FF1F00110100AA
:10268000CC100100BC100100A8100100981001003E
:10269000881001000C110100141101002811010023
:1026A000301101001C110100541101006CC2FF1F08
:1026B0006011010044110100DC100100F410010060
:1026C0002DE9F04F8D4CE66F012E8FB000F0C781E1
:1026D000032E00F04381DFF87C82894F894EA36F7F
:1026E0008948012B09BF3168316801F1004131602F
:1026F00005F042FF3B68002B40F0E6808248DFF89F
:10270000549205F00FFF3B68C8F800000546002B07
:1027100040F0BC80E36F794A012B00F0CB807B490D
:102720007B4F28460AF024F8002841D03B68DFF8A8
:10273000F89109930998D9F80030DFF81CA2C01A63
:1027400009F002FE294609F057FE724909F008FF18
:10275000704909F005FFDAF8001009F045FD3B6803
:102760000893089BCAF80000C9F80030D4F8B000FC
:10277000694C09F0EDFD294609F03EFE0023336067
:10278000C8F8000009F0FEFF0146644805F03AFF72
:1027900009F0DEFD3B68624A0B9311680B9B2060D9
:1027A0005B1AB3F57A7F5A490ED80FB0BDE8F08FA7
:1027B0005C49284609F0BEFF0028B7D13A685A4B59
:1027C0000A920A9A1A60D1E70B680C930C9B534843
:1027D000136005F043FF2068544D09F0D3FF014614
:1027E000534805F00FFF09F0B3FD524A2860136803
:1027F00001333A2B00F3088213604F4B1B68002B08
:10280000D3D04E4808F050FA3B680D930A220023BB
:102810000D994A4808F058FA0121494807F0ACFFE1
:10282000D8F8000009F03EF9022602460B46009651
:10283000424808F091FA0121414807F09DFF2068C5
:1028400009F030F9009602460B463C4808F084FA3D
:1028500001213B4807F090FF286809F023F9009612
:1028600002460B46354808F077FA0121344807F054
:1028700083FF344B186809F015F9009602460B46A1
:102880002E4808F069FA0FB0BDE8F08F09F00AF998
:10289000022502460B460095284808F05DFA0421FF
:1028A000294807F069FFE36FD9F80050134A012B5C
:1028B0007FF435AF254B1B68012B00F01982022BEA
:1028C00000F06981124F51E70F4805F02BFE09F027
:1028D000E9F8022502460B460095184808F03CFA34
:1028E00003211B4807F048FFD4F89410134808F060
:1028F0002BFA0321164807F03FFFFFE65CC1FF1FDC
:102900009CC2FF1FE4C2FF1F78C2FF1F0000FA43F2
:10291000C0C4FF1F00007A4498C2FF1F48C2FF1FB7
:102920006492FF1F0000FAC32CC1FF1FD8C2FF1F13
:10293000A4C2FF1F44C2FF1FFC92FF1FC887FF1FD6
:102940006810010058C1FF1F141201005487FF1FB7
:102950001012010034C1FF1FC4C2FF1FB74DB84F92
:102960002B68DFF81083D3F884000F2101233B602C
:1029700005F086FD3B68B34F012B3B6800F0968065
:10298000002B40F07D812B68DFF8EC92D3F88400B7
:10299000436B19698EB2C9F8006005F0FFFAB4F80C
:1029A0008A2040F6E44303FB06F1B1FBF0F0801A05
:1029B00000B209F0CDFCA449A44E8246D4F88C00A4
:1029C00009F01AFD0146504609F0CAFDD9F8003059
:1029D0003060632BDFF8A0A200F323810023336073
:1029E0003B68002B3FF47BAE0221994807F0C4FE00
:1029F0002B68D9F80050D3F8840040F6E44303FB79
:102A000005F505F0CBFAB5FBF0F009F09DFC0546A5
:102A1000B4F88A0009F09CFC0146284609F0E2FB64
:102A200009F040F8022502460B460095894808F057
:102A300093F92946864807F09FFE306809F032F87E
:102A4000009502460B46834808F086F929468248DD
:102A500007F092FE29467E4807F08EFE3FE6DFF83B
:102A60001482D4F89470D8F80050384609F070FCFD
:102A7000294609F07DFE48B1784209F069FC01461B
:102A8000284609F075FE002840F064816B4D6C4FBC
:102A90002A680223D2F884003B600E2105F0F0FC86
:102AA0003B68684F012B3B687FF46AAF002B40F016
:102AB0005B812B68DFF8C091D3F88400436B196900
:102AC0001FFA81FBC9F800B005F068FAB4F8883045
:102AD0005E4E40F6E44A0AFB0BFBBBFBF0F0C01A6B
:102AE00000B209F035FC58498346D4F8900009F04B
:102AF00083FC0146584609F033FD2A68D9F80030B6
:102B00003060D2F884000AFB03FA05F047FAB4F803
:102B10008830BAFBF0F00FFA80FAC3EB0A03002BFF
:102B2000B4F8BE20B8BF5B429342BCBF0023336001
:102B30003B68002B3FF4D3AD0221454807F01CFE53
:102B40002B68D9F80050D3F8840040F6E44303FB27
:102B500005F505F023FAB4F88810B5FBF0F000B2E3
:102B6000411A3C4808F0F0F80221394807F004FE09
:102B7000306808F097FF022502460B46009535485D
:102B800008F0EAF80321354807F0F6FD29463048F9
:102B900007F0F2FDA3E5D2F89470384609F0D8FBAF
:102BA000294609F0C7FD68B9784209F0D1FB2946EA
:102BB00009F0DEFD30B92A4F2A4B3A680792079A8E
:102BC0001A60D3E5264FDFF89C903B680693069881
:102BD000D9F80030DFF8A4A0C01A09F0B5FB2946E7
:102BE00009F00AFC204909F0BBFC1F4909F0B8FCB8
:102BF000DAF8001009F0F8FA3B680593059BCAF86B
:102C00000000C9F80030B1E50023136009F0BAFDF7
:102C100001461648164E05F0F5FC09F099FB3060A8
:102C2000EBE52B68D3F8840005F0B8F9DAF800304A
:102C300064389842FFF4D2AED2E600BF00C3FF1F53
:102C40005487FF1F9CC2FF1FACC52737E4C2FF1F7C
:102C5000941E0100C887FF1F0C120100F81101002B
:102C6000C0C4FF1F2CC1FF1F00007A4438C1FF1FE2
:102C700058C1FF1F34C1FF1F08C3FF1FC4C2FF1F7D
:102C80005748DFF89491DFF87CA108F00DF80C218B
:102C9000544807F071FD0C21534807F06DFD2A6878
:102CA0003B68D2F88400426B11698EB2C9F80060AB
:102CB000002B3FF472AE05F071F940F6E4410023B9
:102CC0000A2201FB06F1B1FBF0F1454807F0FCFFD9
:102CD0000221464807F050FDB4F88A10404808F039
:102CE00033F8DAF80030D9F80060D3F8840054E6FD
:102CF0003F49404F284609F03BFD50B93E49284620
:102D000009F018FD28B93A683C4B0492049A1A60FD
:102D10002CE53B68DFF8E49003930398D9F8003082
:102D2000DFF8F8A0C01A09F00FFB294609F064FB90
:102D3000334909F015FC324909F012FCDAF80010A9
:102D400009F052FA3B680293029BCAF80000C9F8E6
:102D500000300BE52B4D2C4F2B683E60D3F88400E0
:102D60000F2105F08DFB05E61D48DFF8AC90254EE0
:102D700007F09AFFE36F012B4FF00B010CBF2348C4
:102D8000234807F0F9FC0C21174807F0F5FC2A68E6
:102D90003B68D2F88400426B11691FFA81FBC9F8C5
:102DA00000B0002B3FF490AE05F0F8F840F6E44197
:102DB00000230A2201FB0BF1B1FBF0F1084807F0F8
:102DC00083FF0121134807F0D7FCB4F888100448AA
:102DD00007F0BAFF3368D9F800B0D3F8840073E67F
:102DE000C887FF1FFC110100E8110100941E0100BB
:102DF0000000FA43C0C4FF1F0000FAC32CC1FF1F2C
:102E000000007A4400C3FF1F5487FF1FD011010048
:102E1000DC1101006810010008C3FF1FC4C2FF1FBE
:102E20002DE9F0478B4D2B6884B043B98A4B1B6862
:102E30000393039A42F210739A4200F2B580874CD2
:102E4000874F884EDFF86082D4F88420834B012AB4
:102E500003D0DA6F002A40F095808348FEF758F9D6
:102E60008249D4F86890E56E09F0C6FA09F0B0FC22
:102E7000226F636FC9EB02025B1B80B29A42C9EBFF
:102E80000000D4F85C90C6BF03FB00000132584339
:102E900090FBF2F02844A56D00FB09F005FB00F063
:102EA00000EB8000400009F053FA714909F058FB2B
:102EB0008246306005FB09F54FF47A7000FB05F09F
:102EC00009F046FA6A49DFF898910546504609F03C
:102ED00093FA294609F044FB664909F08DFA09F096
:102EE00051FC6328386047DD2846614909F038FB0A
:102EF00064233060C9F80030D8F80030002B38D097
:102F0000E36F564D012B43D0032B00F09680022B2C
:102F100000F08E800221584807F02EFC574B1868AD
:102F200008F0C0FD022402460B460094544807F006
:102F300013FF2146534807F01FFC21464E4807F077
:102F40001BFC39684E4807F0FFFE06214E4807F08B
:102F500013FC3068464909F04FFA08F0A3FD0094CD
:102F600002460B46464807F0F7FE0321474807F0A4
:102F700003FC04B0BDE8F0870028BCBF0023C9F8FB
:102F80000030B9E7D6F800A0D3F85C909D6D91E7CA
:102F90003F4B1B68012B4FF00A010CBF3D483E48D8
:102FA00007F0EAFBEB6FAFE72F482C4CFEF7B0F8C9
:102FB0002E49A76EE66E09F01FFA09F009FC226F90
:102FC000636FD21B9B1B80B29A42A0EB07003ADDD5
:102FD00003FB0000531C90FBF3F31E44E06DA36D54
:102FE0001F4FDFF8C4803E6000FB06F003FB00F0DB
:102FF00000EB8000400009F0ABF91D49194E09F0C3
:10300000AFFAD8F80030306001222A60002B3FF47C
:103010001BAF0221184807F0AFFB194807F044FE28
:1030200059211E4807F0A8FB154807F03DFE0BE7A5
:1030300007211B4807F0A0FB6CE71021194807F097
:103040009BFBE36F63E703FB00F393FBF2F31E4488
:10305000C4E700BFF892FF1FC0C4FF1F5CC1FF1F81
:103060003087FF1FC4C2FF1F0093FF1F00007A4478
:10307000E4388E3E0000C842941E010034C1FF1F98
:10308000C887FF1F0C120100AC120100B41201002E
:103090005487FF1F78120100841201001C120100E6
:1030A000A4120100901201002487FF1F30B51120E7
:1030B00083B005F09BFE012818D0122005F096FE83
:1030C000012813D000210B2005F08AFE00210C20DE
:1030D00005F086FE0021152005F082FE2649274BCB
:1030E0000120002208701A6003B030BD01211520B4
:1030F00005F076FE224A234C234B1268D4F8981030
:1031000001921B68019A1D4D0B4493424FF002013E
:10311000296005D901210C2005F062FE03B030BD05
:10312000D4F8A00009F014F9184B196809F002FB53
:103130000028EFD101210B2005F052FE94F8C43095
:1031400003242C6043B10C4B02221A7000210C2086
:1031500005F046FE03B030BD122005F047FE012801
:1031600008BF054B4FF0110008BF1C7005F03EFE74
:103170000128EBD1E7E700BF4CC1FF1FF492FF1F0E
:10318000C0C4FF1F5CC1FF1F98C0FF1F34C1FF1FD9
:10319000F0B5684E684D34682B689C4287B039D0D2
:1031A00014F0010155D014F0020149D014F00401CB
:1031B0003DD0E3070ED52B68DF070BD45F4F3A688D
:1031C000002A00F082805E4B1B680193019B9342B2
:1031D0006DD83468A0070DD52B6899070AD4594FCC
:1031E0003A68002A4CD0564B1B680393039B9342CA
:1031F00038D8346862070DD52B685B070BD4524F63
:103200003A68002A7ED04E4B1B680593059B93427B
:1032100068D834680CB107B0F0BD2146162005F01F
:103220005FFC2146172005F05BFC07B0F0BD0520D0
:1032300005F056FC2B68346803F0FB032B60B8E7FD
:10324000172005F04DFC2B68346803F0FD032B605C
:10325000ACE7162005F044FC2B68346803F0FE034D
:103260002B60A0E7394B1720D3F89C1005F038FCF1
:103270002B68346843F0020300222B603A60B9E700
:10328000334807F011FD0C21324807F075FA304839
:1032900007F00AFDFF21172005F022FC284B2E4ADB
:1032A00019680291029912680A443A609CE7274B18
:1032B0001620D3F89C1005F013FC2B68346843F0FB
:1032C000010300222B603A6084E7FF21162005F0FD
:1032D00007FC1B4B204A19680091009912680A44A8
:1032E0003A6071E7194B0520D3F89C1005F0F8FB04
:1032F0002B68346843F0040300222B603A60002CF2
:1033000089D18AE7124807F0CFFC0C21134807F057
:1033100033FA0F4807F0C8FCFF21052005F0E0FB59
:10332000074B0D4A19680491049912680A443A60DF
:103330006AE700BFF492FF1FF0C2FF1F40C2FF1FE9
:10334000C0C4FF1F64C2FF1F68C2FF1F5CC1FF1F14
:10335000C887FF1FB81201004087FF1FC812010075
:103360002DE9F047534EDFF870813368DFF86C9138
:10337000D3F88400504D0F2105F082F8002301227C
:1033800022214E48C8F80030C9F8002007F0F4F9AF
:10339000D8F80030132B20DC40F6E4473368B5F84A
:1033A00088A0D3F88400436B1C6904F0F7FDA4B235
:1033B000012107FB04F4B4FBF0F441485444A5F8A0
:1033C000884007F0D9F9642005F046FDD8F80030B0
:1033D0000133132BC8F80030E0DDB5F88830394AE6
:1033E0003948A2FB03129B1A02EB5303C3F30F13DA
:1033F0001946A5F8883007F0A7FC1D21334807F0CF
:10340000BBF90221324807F0B7F92F4807F04CFC0E
:1034100032680023D2F88400C8F800300E2105F08D
:103420002FF8022322212548C9F8003007F0A4F91B
:10343000D8F80030132B20DC40F6E4473368B5F8A9
:103440008A90D3F88400436B1C6904F0A7FDA4B2F2
:10345000012107FB04F4B4FBF0F419484C44A5F82F
:103460008A4007F089F9642005F0F6FCD8F80030AE
:103470000133132BC8F80030E0DDB5F88A30114A6B
:103480001148A2FB03129B1A02EB5303C3F30F1361
:103490001946A5F88A3007F057FC1D210D4807F0A2
:1034A0006BF902210A4807F067F90748BDE8F047C1
:1034B00007F0FABB00C3FF1F5CC1FF1FD812010059
:1034C0001C13010087611886C887FF1FFC120100CA
:1034D000941E0100201301006092FF1F5487FF1FFC
:1034E0002DE9F843C54BC64CC64E1B68706D40F2C3
:1034F000513108222160E271002B40F0798108F0FF
:1035000027FF7169054608F077FFBF49BD4F08F0F6
:1035100073FF09F05DF980B203126372BB4ABC4BC2
:10352000B2F90020B3F90030B1692072A3722846C5
:103530001B121512E3722273657308F05DFFB24926
:10354000AF4D08F059FF09F043F983B21A1229462A
:10355000B048A373E27304F045FBAF4AAF4B126867
:103560001988A172D3B2237203EB83035B00237328
:1035700002EB820343F3D7134FEA212E12124FF0CE
:1035800008084FF0000929466373A24884F80BE04D
:1035900040F255336272236084F8078084F80E90FD
:1035A00084F80F9004F01EFB40F256339C482360D1
:1035B00084F80780FDF7E8FC9A4908F01DFF09F040
:1035C00007F920729648FDF7DFFC964908F014FFD2
:1035D00009F0FEF8944A9349C0F307231068637218
:1035E00008F0BEFF09F0CEF840FA08F3A0728C484C
:1035F000E372FDF701FD844908F0FEFE09F0C2F810
:1036000020738748FDF7F8FC7F4908F0F5FE09F0C4
:10361000B9F840F30720294660737E4884F80E907D
:1036200084F80F9004F0DEFA022005F015FC7F4AC2
:103630007F4B11782172517890786172D178A072A5
:103640001A789878E172597822736173DA78A073E6
:1036500040F25A3329466F48E273236084F80780AA
:1036600004F0C0FA734B6B481A7822725A7862726F
:103670009A78A272DA78E2721A7922735A796273AE
:103680009A79DB79E373294640F25E33A2732360B3
:1036900084F8078004F0A6FA022005F0DDFB664BF3
:1036A0005C481A7822725A7862729A78A272DA7832
:1036B000E2721A7922735A7962739A79DB79E37329
:1036C00029464FF45C73236084F80780A27304F0EA
:1036D00089FA5A4B1B68012B00F0B680022005F0D6
:1036E000BBFB082540F273334D482360E571FDF7BD
:1036F000E5FB534908F080FE09F06AF8207248485B
:10370000FDF7DCFB4E4908F077FE09F061F8C0F3E5
:10371000072343486372FDF705FC494908F06CFE36
:1037200009F056F8A0723E48FDF7FCFB444908F04A
:1037300063FE09F04DF8C0F307233948E372FDF743
:10374000E5FC404908F050FD09F042F82073344888
:10375000FDF7DCFC3B4908F047FD09F039F8C0F300
:1037600007232F486373FDF7CBFC364908F03CFD77
:1037700009F02EF8A0732A48FDF7C2FC314908F081
:1037800033FD09F025F81E49C0F307232148E373F0
:1037900004F028FA022005F05FFBB16DF36D022200
:1037A00011FB03F3104640F27931C3F30726E271AF
:1037B00021602372667205F04FFB40F272331848A5
:1037C0002360E571FDF79EFC20721548FDF79AFC19
:1037D000002340FA05F26272A372E37223736373EB
:1037E000A373E37306490B48BDE8F84304F0FAB944
:1037F00008F0AEFD316A054685E600BF8892FF1FDE
:103800006892FF1F5CC1FF1F00002041E8C2FF1F3C
:103810007C92FF1F18C3FF1F3087FF1F3687FF1FD3
:103820000093FF1F0000C84234C1FF1F30C1FF1FBB
:103830004C92FF1F5C87FF1F3887FF1F6CC2FF1F62
:1038400000007A44339388432648FDF737FB396DEF
:1038500008F0CAFC81462348FDF764FB0146484650
:1038600008F068FF00283FF439AF40F2C3331D4829
:1038700085F807802B60FDF721FBFF6C394608F0C7
:1038800059FFC8B11849384608F0B6FD08F0A0FF46
:1038900080B240FA08F368722B72002301270425D6
:1038A000032212491248A772E57222736373A3734D
:1038B000E37304F097F911E70A48FDF7FFFA0A49A4
:1038C00008F09AFD08F084FFC0F3072305482B7227
:1038D000FDF7F4FA044908F08FFD08F079FF6872EB
:1038E000DBE700BF0093FF1F00007A446892FF1FD0
:1038F00018C3FF1FF0B5994C994D83B006F0D6FE62
:1039000023682860042B00F02083092B7BD0022B36
:103910004CD1A0F13102422A7ED8DFE812F02B0907
:103920003709450953096409EF00C308CD087D0034
:103930007D007D007D007D007D007D007D007D009F
:103940007D007D007D007D007D007D007D007D008F
:103950007D007D007D007D007D007D007D007D007F
:103960007D007D007D007D007D007D007D007D006F
:103970007D007D007D007D007D007D007D007D005F
:103980007D0043007D007D007D007D007D007D0089
:103990007D007D007D007D007D007D007D00790043
:1039A0007D00B608FFF7DCFC23682868082B40F090
:1039B000B480332801F0E08500F36883312801F0FA
:1039C000C685322828D106F0ADFE002841F3BB851C
:1039D0006448654E07F0FAFA08F0BAFC634908F04B
:1039E0000BFDD6F8CC20D6F8C83096F844100092DB
:1039F000074602465E48B764FDF7CAFA012369200C
:103A00002360286063E3312800F05783712803D1D5
:103A10000023732023602860732808BF002B0CBF8D
:103A200001200020002867D04E4807F03DF904210E
:103A3000504806F0A1FE4B4807F036F910214E48D9
:103A400006F09AFE474807F02FF913214B4806F07D
:103A500093FE4B4B4348196807F076F9414807F04D
:103A600023F91421474806F087FE3E4807F01CF969
:103A70001E21454806F080FE3A4807F015F9152149
:103A8000424806F079FE374807F00EF91E214048FB
:103A900006F072FE334807F007F920213D4806F092
:103AA0006BFE304807F000F919213B4806F064FE30
:103AB0002C4807F0F9F81221384806F05DFE294835
:103AC00007F0F2F81621364806F056FE254807F0B2
:103AD000EBF80F21334806F04FFE224807F0E4F8D8
:103AE0000D21314806F048FE1E4807F0DDF82F4A48
:103AF000002101231160236003B0F0BD0123236086
:103B000006F010FE002805DD1648174E07F05EFA95
:103B1000A6F8BE00632023682860072B4AD133280B
:103B200001F0608500F39E82312801F0458532283E
:103B30007FF472AF06F0F6FD002839DD09480A4E21
:103B400007F044FA08F004FC084908F055FC61232A
:103B50000122F06322602B601846B8E204C3FF1F05
:103B60005492FF1FC887FF1F5CC1FF1F6F12833A6B
:103B70000093FF1FF81C0100001D0100141D01002F
:103B80005087FF1F281D0100401D0100601D01001E
:103B9000781D0100981D0100BC1D0100D81D010009
:103BA000EC1D0100041E0100141E01002487FF1FEC
:103BB00023682868062B40F08D80A0F13102402A4E
:103BC0003FF62AAF01A151F822F000BF0B4A0000D6
:103BD000374A0000634A00008D490000F7490000A1
:103BE000B5490000D9490000193A000067490000B2
:103BF000193A0000193A0000193A0000193A000079
:103C0000193A0000193A0000193A0000193A000068
:103C1000193A0000193A0000193A0000193A000058
:103C2000193A0000193A0000193A0000193A000048
:103C3000193A0000193A0000193A0000193A000038
:103C4000193A0000193A0000193A0000193A000028
:103C5000193A0000193A0000193A0000193A000018
:103C6000193A0000193A0000193A0000193A000008
:103C7000193A0000193A0000193A0000193A0000F8
:103C8000193A0000193A0000193A0000193A0000E8
:103C9000193A0000193A0000193A0000193A0000D8
:103CA000193A0000193A0000193A0000193A0000C8
:103CB000193A0000193A0000193A0000193A0000B8
:103CC000193A0000193A0000193A0000113A0000B0
:103CD00023682868052B40F08D80A0F13102402A2E
:103CE0003FF69AAE01A151F822F000BF074900004B
:103CF000274900004749000045470000C14800002F
:103D0000DD480000193A0000193A0000193A000095
:103D1000193A0000193A0000193A0000193A000057
:103D2000193A0000193A0000193A0000193A000047
:103D3000193A0000193A0000193A0000193A000037
:103D4000193A0000193A0000193A0000193A000027
:103D5000193A0000193A0000193A0000193A000017
:103D6000193A0000193A0000193A0000193A000007
:103D7000193A0000193A0000193A0000193A0000F7
:103D8000193A0000193A0000193A0000193A0000E7
:103D9000193A0000193A0000193A0000193A0000D7
:103DA000193A0000193A0000193A0000193A0000C7
:103DB000193A0000193A0000193A0000193A0000B7
:103DC000193A0000193A0000193A0000193A0000A7
:103DD000193A0000193A0000193A0000193A000097
:103DE000193A0000193A0000193A0000F74800009B
:103DF00023682868032B40F0A480A0F13002422AF7
:103E00003FF60AAE01A151F822F000BF193F0000B1
:103E10002B53000053530000B1530000D353000054
:103E2000F5530000435200006B520000895200001D
:103E300003530000193A0000193A0000193A000033
:103E4000193A0000193A0000193A0000193A000026
:103E5000193A0000193A0000193A0000193A000016
:103E6000193A0000193A0000193A0000193A000006
:103E7000193A0000193A0000193A0000193A0000F6
:103E8000193A0000193A0000193A0000193A0000E6
:103E9000193A0000193A0000193A0000193A0000D6
:103EA000193A0000193A0000193A0000193A0000C6
:103EB000193A0000193A0000193A0000193A0000B6
:103EC000193A0000193A0000193A0000193A0000A6
:103ED00093510000B74C000075510000B151000033
:103EE000CF510000ED5100004F4C0000734C00001A
:103EF000193A0000994C0000CF520000193A000016
:103F0000193A0000193A0000193A0000193A000065
:103F1000F7520000AF52000006F004FC002841F305
:103F20000B83BC48BC4E07F051F8012703460146FD
:103F30006222BA48B36527602A60FDF727F8236834
:103F40002868012B7FF468ADC1E0A0F13002412A5E
:103F50003FF662AD01A151F822F000BF254C0000F0
:103F6000394C0000D34A0000214B0000474B0000B1
:103F7000094C00003D4C00004B4B00004F4B000033
:103F8000534B0000193A0000193A0000193A00009A
:103F9000193A0000193A0000193A0000193A0000D5
:103FA000193A0000193A0000193A0000193A0000C5
:103FB000193A0000193A0000193A0000193A0000B5
:103FC000193A0000193A0000193A0000193A0000A5
:103FD000193A0000193A0000193A0000193A000095
:103FE000193A0000193A0000193A0000193A000085
:103FF000193A0000193A0000193A0000193A000075
:10400000193A0000193A0000193A0000193A000064
:10401000193A0000193A0000193A0000193A000054
:10402000193A0000193A0000193A0000193A000044
:10403000193A0000193A0000193A0000193A000034
:10404000193A0000193A0000193A0000193A000024
:10405000193A0000193A0000193A0000193A000014
:10406000113A000034287FF4D1AC06F05BFB002845
:104070007FF79EAD6748684E06F0A8FF61230122D6
:10408000A6F8BC0022602B60184620E034287FF49C
:10409000BDAC06F047FB002841F355825D485E4EFB
:1040A00006F094FF4742D6F8C830B26C96F8441038
:1040B0005A480097C6F8CC709EE4574E96F8D03018
:1040C00001225340782086F8D03022602860A0F189
:1040D0005203262B01F22782DFE813F0200A250A7B
:1040E000250A250A250A250A250A250A250A250A58
:1040F000250A250A250A250A250A2900B90BC50221
:104100001E025C01250A250A250AF000250AB60BC5
:10411000250A250A250A250A250A0E0A250A250A3E
:10412000250A250A250A250AB60006F0BFFA06F078
:10413000F9FA05460028F8D13648374E06F0B4FDA6
:10414000344806F0B1FD334806F0AEFD314806F0C4
:10415000ABFD304806F0A8FD1F21314806F00CFBEE
:104160002C4806F0A1FD1C212E4806F005FB706AC4
:104170002D4908F041F907F095FC009502460B46E1
:10418000244806F0E9FD0221284806F0F5FA214806
:1041900006F08AFD2321264806F0EEFAF06B22494C
:1041A00008F02AF907F07EFC009502460B461948F4
:1041B00006F0D2FD02211D4806F0DEFA154806F091
:1041C00073FD19211B4806F0D7FAB06B07F06AFCA3
:1041D00002250B46024600950E4806F0BDFD294615
:1041E000154806F0C9FA0B4806F05EFD1021134889
:1041F00006F0C2FAB6F8BC10064806F0A5FD032189
:104200000F4806F0B9FA034806F04EFD0723236075
:1042100072E400BFC887FF1F5CC1FF1F0093FF1F30
:10422000B8150100D815010000007A44F41301000C
:10423000F81501001C160100B41501003816010024
:104240004C16010006F032FA06F06CFA0028F9D19B
:104250009B4806F029FD9A4806F026FD984806F08E
:1042600023FD974806F020FD954806F01DFD12211C
:10427000944806F081FA924806F016FD904806F040
:1042800013FD1621904806F077FA904B93F8D03042
:10429000002B41F0C78104218D4806F06DFA884853
:1042A00006F002FD13218B4806F066FA844806F0FA
:1042B000FBFC092323601FE406F0F8F906F032FA4C
:1042C00005460028F8D17E48804E06F0EDFC7C487B
:1042D00006F0EAFC7A4806F0E7FC794806F0E4FCD0
:1042E000774806F0E1FC15217B4806F045FA744852
:1042F00006F0DAFC1821794806F03EFA2B460A222D
:1043000096F844106E4806F0DFFC6D4806F0CCFCD1
:104310002821734806F030FAB06C724908F06CF846
:1043200007F0C0FB009502460B46654806F014FDF9
:1043300002216D4806F020FA614806F0B5FC19210B
:104340006A4806F019FAD6F8C80007F0ABFB042556
:104350000B46024600955A4806F0FEFC584806F007
:10436000A3FC1821624806F007FAD6F8CC1054488E
:1043700006F0EAFC524806F097FC1321554806F077
:10438000FBF94F4806F090FC08232360FFF7B4BB0D
:1043900006F08CF906F0C6F905460028F8D1484821
:1043A0004A4E06F081FC464806F07EFC444806F082
:1043B0007BFC434806F078FC414806F075FC11216F
:1043C0004C4806F0D9F93E4806F06EFC28214A48D0
:1043D00006F0D2F97069434908F00EF807F062FB65
:1043E000009502460B46364806F0B6FC02213E48D0
:1043F00006F0C2F9324806F057FC16213F4806F095
:10440000BBF9F069374907F0F7FF07F04BFB009560
:104410000B4602462A4806F09FFC0221324806F06D
:10442000ABF9274806F040FCD6F8B430002B34DD59
:104430001D21334806F0A0F9B6F9600007F088FFA7
:10444000304907F0D9FF07F02DFB022502460B4645
:1044500000951B4806F080FC01212B4806F08CF9E2
:10446000174806F021FC1F21284806F085F9B6F907
:10447000620007F06DFF234907F0BEFF07F012FB53
:10448000009502460B460E4806F066FC01211E48C8
:1044900006F072F90A4806F007FC11211C4806F0E4
:1044A0006BF9D6F8B430062B00F2BC87DFE813F0C6
:1044B0001A081F08150810080B080608B60700BFE1
:1044C000C887FF1FF01D0100641301005CC1FF1FBE
:1044D0007C13010098130100C01D0100AC13010002
:1044E000C813010000007A44F4130100F81301001E
:1044F00014140100641D0100301401005C1401005B
:1045000074140100CDCCCC3D9C1901009414010021
:10451000B414010006F0CAF806F004F90028F9D135
:10452000934806F0C1FB924806F0BEFB904806F0A7
:10453000BBFB8F4806F0B8FB8D4806F0B5FB132196
:104540008C4806F019F98A4806F0AEFB0D218A481E
:1045500006F012F9864806F0A7FB0F21874806F0FF
:104560000BF9874B8248196806F0EEFB804806F08D
:104570009BFB1321834806F0FFF8834B7C481968A6
:1045800006F0E2FB7A4806F08FFB12217F4806F026
:10459000F3F87F4B7648196806F0D6FB744806F0AE
:1045A00083FB11217B4806F0E7F87B4B70481968C4
:1045B00006F0CAFB6E4806F077FB0E21774806F03E
:1045C000DBF8774B6A48D3F8A41006F0BDFB6848C7
:1045D00006F06AFB1921734806F0CEF8724B644866
:1045E000196806F0B1FB624806F05EFB11216F48C6
:1045F00006F0C2F86E4B5E48196806F0A5FB5C48F1
:1046000006F052FB10216B4806F0B6F86A4B58488A
:10461000196806F099FB564806F046FB1C216748CE
:1046200006F0AAF8664B5248196806F08DFB504810
:1046300006F03AFB1B21634806F09EF8624B4C489B
:10464000197806F081FB4A4806F02EFB13215F48DB
:1046500006F092F8464806F027FB04232360FFF794
:104660004BBA06F023F806F05DF80028F9D140486F
:104670004B4E06F019FB3E4806F016FB3C4806F090
:1046800013FB3B4806F010FB394806F00DFB1F21D9
:104690004F4806F071F8364806F006FB1E214D48DB
:1046A00006F06AF8324806F0FFFA1A214A4806F086
:1046B00063F8F36F022B01F09280032B01F08680E8
:1046C000012B01F07A800921444806F055F828486A
:1046D00006F0EAFA14214248314D06F04DF8B16F68
:1046E000234806F031FB224806F0DEFA1C213D4843
:1046F00006F042F8D6F884101D4806F025FB1C4849
:1047000006F0D2FA1C21384806F036F8D6F8B01078
:10471000174806F019FB164806F0C6FAF36F23F0A7
:104720000202012A00F0C687022B01F061801321EA
:10473000264806F021F80E4806F0B6FA0223236058
:10474000FFF7DAB905F0EEFF00287FF751AB084814
:10475000134E06F03BFC164BC6F8A80002221A6066
:10476000FDF750FC01226B2322602B6040E000BF6C
:10477000C887FF1F5C170100701701008017010038
:10478000FCC2FF1F901701009CC2FF1FA41701006D
:10479000B8C2FF1FB817010050C1FF1FCC1701009E
:1047A0005CC1FF1FDC1701005892FF1FF8170100C2
:1047B0008092FF1F0C1801004892FF1F2018010073
:1047C0004C87FF1F40180100F8C2FF1F981301001B
:1047D0005C1801007C1801009C18010014190100EC
:1047E00020190100381901005819010005F05EFF79
:1047F00005F098FF0028F9D1BC48BD4D06F054FAE9
:10480000BA4806F051FAB94806F04EFAB74806F031
:104810004BFAB64806F048FA2121B64805F0ACFF3D
:10482000B24806F041FA1521B34805F0A5FFD6F8C5
:104830009810AE4806F088FA0221B04805F09CFFB7
:10484000AA4806F031FA1E21AD4805F095FFD6F8CA
:10485000A010A64806F078FA0321AA4805F08CFFBC
:10486000A24806F021FA1E21A74805F085FFD6F8D8
:104870009C109E4806F068FA9C4806F015FA1D2127
:10488000A24805F079FFD6F8A810984806F05CFA1F
:10489000964806F009FA1E219D4805F06DFFD6F8EE
:1048A000AC10924806F050FA904806F0FDF9D6F8A0
:1048B000A430012B00F0AE8705232360FFF71CB95D
:1048C00005F030FF00287FF793AA8848884E06F04D
:1048D0007DFB904BC6F8AC00032240E7844E96F86F
:1048E000DC30B3FA83F35B0901216B2286F8DC30FC
:1048F00021602A607CE7874A0023732013602360CD
:104900002860FFF789B805F00DFF00287FF770AA2F
:104910007648774E06F05AFB01226B23C6F89800C2
:1049200022602B6064E705F0FDFE00287FF760AA97
:104930006E486F4E06F04AFB01226B23C6F8A000BA
:1049400022602B6054E705F0EDFE00287FF750AAA7
:104950006648674E06F03AFB01226B23C6F89C00BE
:1049600022602B6044E705F0DDFE00287FF7B0A948
:104970005E485F4E06F02AFB07F0EAFC6523012241
:10498000306322602B601846FFF7A1BB05F0CAFE1A
:1049900000287FF79DA95548554E06F017FB00EB00
:1049A0008000430001226520A6F862302260286062
:1049B000FFF78DBB05F0B6FE00287FF789A94B48AD
:1049C0004B4E06F003FB65230122C6F8B8002260B7
:1049D0002B601846FFF77BBB454B93F8C420002A99
:1049E00000F01B86002283F8C42001236520236089
:1049F0002860FFF76CBB3E4AD2F8B4300133062B77
:104A0000C8BF0023C2F8B430EFE705F08BFE0028E2
:104A10007FF75EA93548364E06F0D8FA07F098FCC5
:104A20003D4907F09DFD65230122706122602B60E6
:104A30001846FFF74CBB05F075FE00287FF748A924
:104A40002A482B4E06F0C2FA07F082FC324907F0E2
:104A500087FD65230122F06122602B601846FFF775
:104A600036BB05F05FFE00287FF732A91F48204EB5
:104A700006F0ACFA00EB8000430001226520A6F8A6
:104A8000603022602860FFF722BB194AD36F0133E0
:104A9000032BC8BF0023D367012363202360286052
:104AA000FFF715BB124BD3F88020012A0CBF02225E
:104AB0000122C3F88020EFE70123236005F032FED6
:104AC0000028E9DD09480A4E06F080FAC6F894008D
:104AD000E2E7124A1368B3FA83F35B090121642009
:104AE000136021602860FFF7F2BA00BFC887FF1F7C
:104AF0005CC1FF1F5016010074160100481501002B
:104B00008C160100F8110100AC160100CC16010052
:104B1000EC1601008092FF1F00007A449CC2FF1F28
:104B20006C4A6D4F1368002B0CBF012300234FF01C
:104B300001001360206040F02A86034664222A6048
:104B40006420FEF7E4BE654AC4E7654AC2E7654AE9
:104B5000C0E70123236005F0E5FD002800F36B8525
:104B6000614B1A68042AC4BF02221A6064232B60B6
:104B70002368E5E75D4EB36FB3FA83F35B09012267
:104B80006320B36722602860FFF7A1BA574ED6F8BA
:104B90008430B3FA83F35B0901226320C6F88430C2
:104BA00022602860FFF793BA0123236005F0BAFD65
:104BB00000287FF771AF4E484C4E06F007FAC6F852
:104BC000B00069E70123236005F0ACFD00287EF703
:104BD000A1AF4748454E06F0F9F907F0B9FBC6F812
:104BE0009000FEF797BF0123236005F09BFD00288E
:104BF0007EF790AF3E483D4E06F0E8F907F0A8FB7F
:104C0000C6F88C00FEF786BF384ED6F8A430B3FA4B
:104C100083F35B0901226420C6F8A4302260286077
:104C2000FFF755BA334A137801214B4064201370C3
:104C300021602860FFF74BBA2F4A4BE701232F482A
:104C40002360FCF723F82E4A2368106076E705F00E
:104C500069FD00280DDD2648244E06F0B7F907F05F
:104C600077FB284907F07CFC012262233062226036
:104C70002B6005F057FD00280EDD1D481B4E06F089
:104C8000A5F907F065FB1F4907F06AFC01226223C2
:104C9000C6F8C00022602B6005F044FD00280ADD44
:104CA0001348124E06F092F907F052FB01226223DC
:104CB000706322602B6005F035FD002840F33C84D2
:104CC0000B480A4E06F082F901226223B066226088
:104CD0002B601BE0B8C2FF1F04C3FF1F50C1FF1FA2
:104CE0008092FF1F4892FF1F4C87FF1F5CC1FF1F70
:104CF000C887FF1FF8C2FF1FFCC2FF1F0093FF1FE2
:104D00005892FF1F00007A4405F0D0FC05F00AFD20
:104D100007460028F8D1C34805F0C6FFC14805F092
:104D2000C3FFC04805F0C0FFBE4805F0BDFFBD4849
:104D300005F0BAFF1521BC4805F01EFDB94805F085
:104D4000B3FF1421B94805F017FDB64805F0ACFFD4
:104D50001B21B74805F010FDB24805F0A5FF13214F
:104D6000B44805F009FDAF4805F09EFFAD4805F0D9
:104D70009BFFAC4805F098FF2021AF4805F0FCFCF4
:104D8000F068AE4907F038FB06F08CFE009702464B
:104D90000B46A44805F0E0FF0221A94805F0ECFC11
:104DA0000221A84805F0E8FC9E4805F07DFF21217E
:104DB000A54805F0E1FC3069A04907F01DFB06F0AD
:104DC00071FE009702460B46964805F0C5FF02218A
:104DD0009B4805F0D1FC02219A4805F0CDFC914892
:104DE00005F062FF1F21994805F0C6FCB06A06F085
:104DF00059FE022502460B4600958A4805F0ACFF95
:104E00000121934805F0B8FC29468E4805F0B4FC12
:104E1000844805F049FF20218E4805F0ADFCF06A7A
:104E200006F040FE009502460B467E4805F094FFD2
:104E30000121874805F0A0FC2946824805F09CFC2A
:104E4000784805F031FF2321834805F095FCF06C8C
:104E50007A4907F0D1FA06F025FE009702460B4684
:104E6000704805F079FF2946754805F085FC29460C
:104E7000744805F081FC6B4805F016FF1F21774848
:104E800005F07AFC306D6D4907F0B6FA06F00AFEBF
:104E9000009702460B46634805F05EFF29466848C6
:104EA00005F06AFC2946674805F066FC5D4805F098
:104EB000FBFE19216A4805F05FFCF16D594805F0C9
:104EC00043FF2946674805F057FC29465D4805F031
:104ED00053FC544805F0E8FE1821634805F04CFCEB
:104EE000B6F9640007F034FA604907F085FA06F075
:104EF000D9FD009502460B464A4805F02DFF0121D9
:104F00005B4805F039FC29464E4805F035FC45481C
:104F100005F0CAFE2B21574805F02EFCB069474921
:104F200007F06AFA06F0BEFD009702460B463D48C0
:104F300005F012FF2946424805F01EFC294641486B
:104F400005F01AFC374805F0AFFE1F214A4805F06E
:104F500013FCB16D334805F0F7FE2946394805F0DA
:104F60000BFC304805F0A0FE2021444805F004FC6D
:104F7000716D2C4805F0E8FE2946324805F0FCFB2F
:104F8000284805F091FE10213D4805F0F5FBB16E73
:104F9000244805F0D9FE2946294805F0EDFB2946AD
:104FA000284805F0E9FB1F4805F07EFE132135482F
:104FB00005F0E2FBF16E1B4805F0C6FE0121324808
:104FC00005F0DAFB29461F4805F0D6FB154805F029
:104FD0006BFE10212D4805F0CFFB316F114805F015
:104FE000B3FE2946164805F0C7FB2946154805F0CB
:104FF000C3FB0C4805F058FE1421254805F0BCFB06
:10500000716F084805F0A0FE01211F4805F0B4FBB0
:1050100029460C4805F0B0FB024805F045FE162174
:1050200038E000BFC887FF1F441A01005C1A010066
:10503000741A010098130100901A010000007A44CC
:10504000F4130100941E0100B41A0100D81A0100E3
:10505000980E0100F81A01001C1B0100401B010002
:10506000601B01007C1B0100801B0100CDCCCC3DEE
:105070009C1901009C1B0100C81B0100E81B0100DA
:105080000C1C0100201C0100341C0100381C010014
:105090004C1C0100B94805F06FFB306AB84907F0B5
:1050A000ABF906F0FFFC009702460B46B54805F049
:1050B00053FE2946B44805F05FFB2946B34805F086
:1050C0005BFBB04805F0F0FD2421B14805F054FB2E
:1050D000D6F8C000AA4907F08FF906F0E3FC009764
:1050E00002460B46A74805F037FE2946A64805F0BC
:1050F00043FB2946A54805F03FFBA24805F0D4FD37
:105100002B21A44805F038FB706B06F0CBFC009512
:1051100002460B469B4805F01FFE01219E4805F004
:105120002BFB2946994805F027FB964805F0BCFD66
:1051300027219A4805F020FB306C914907F05CF973
:1051400006F0B0FC00970B4602468E4805F004FEC0
:1051500029468D4805F010FB29468C4805F00CFBCC
:10516000884805F0A1FD874805F09EFD03232360D4
:10517000FEF7C2BC05F0D6FA002840F3DD81814875
:10518000874E05F023FF01226223F06622602B6028
:10519000BCE505F0C7FA002840F3CE817948804E7F
:1051A00005F014FF01226223706522602B60ADE5DB
:1051B00005F0B8FA002840F3BF817248784E05F038
:1051C00005FF01226223306722602B609EE505F017
:1051D000A9FA002840F3B0816A48714E05F0F6FE46
:1051E00001226223706722602B608FE5FCF7A2FB2F
:1051F000022166486A4E05F0BFFA624805F054FD88
:105200000221624805F0B8FA5E4805F04DFD022122
:105210005E4805F0B1FA5B4805F046FD172161488C
:1052200005F0AAFA574805F03FFD0221574805F05E
:10523000A3FA544805F038FD0122622322602B6056
:1052400064E505F06FFA002840F376814D48544E2E
:1052500005F0BCFE07F07CF8494907F081F901220E
:105260006223306522602B6050E505F05BFA002870
:1052700040F3628143484A4E05F0A8FE01226223B2
:10528000F06522602B6041E505F04CFA002840F300
:1052900053813C48424E05F099FE00EB80004300EC
:1052A00001216222A6F8643021602A602EE53E4B7F
:1052B00036483B4E002202211A6005F05DFA314863
:1052C00005F0F2FC0B21394805F056FAADE705F080
:1052D00029FA002840F330812A48314E05F076FE45
:1052E00007F036F8264907F03BF9012262233064C3
:1052F00022602B600AE50022732322602B60FEF7F8
:1053000093BB05F00FFA002840F316811D48244E88
:1053100005F05CFE07F01CF8194907F021F901229D
:105320006223B06122602B60F0E405F0FBF90028F5
:1053300040F3028113481A4E05F048FE07F008F8C2
:105340000F4907F00DF901226223F06022602B6003
:10535000DCE405F0E7F9002840F3EE800948104E40
:1053600005F034FE06F0F4FF054907F0F9F80122D4
:105370006223306122602B60C8E400BF641C01001E
:1053800000007A44C887FF1FF4130100941E010037
:105390007C1C0100A41C0100980E0100D01C01001F
:1053A0005CC1FF1F40130100F892FF1F581301005A
:1053B00005F0B8F9002840F3BF80A348A34E05F0DC
:1053C00005FE06F0C5FF01226223B06222602B6059
:1053D0009CE405F0A7F9002840F3AE809A489B4E64
:1053E00005F0F4FD06F0B4FF01226223F0622260B2
:1053F0002B608BE405F096F9002840F39D809248DD
:10540000924E05F0E3FD06F0A3FF914907F0A8F8DE
:1054100001226223F06422602B6077E404218D482E
:1054200005F0AAF98848894D05F03EFCD6F8B4305D
:10543000002B12DD1821884805F09EF9D5F8B81028
:10544000814805F081FC0221844805F095F97E48E9
:1054500005F02AFC7C4805F027FC1B21804805F05C
:105460008BF996F8C430012B15BF122114217D4809
:105470007D4805F081F9744805F016FC1F217B4832
:1054800005F07AF9306B06F00DFB02250B4602465B
:1054900000956D4805F060FC2946754805F06CF9EB
:1054A000694805F001FC1321724805F065F966486A
:1054B00005F0FAFB06232360FEF71EBB0B216E48A6
:1054C00005F05AF9AEE70D216C4805F055F9A9E74A
:1054D0000D216B4805F050F9A4E70C21694805F04F
:1054E0004BF99FE70D21684805F046F99AE70C2132
:1054F000664805F041F995E7E0220021534803F0A2
:10550000A3F92868624AA0F1730001210023B0FAD0
:1055100080F0400911602360FEF784BA5D4B5E4A5B
:105520001A60FEF7E9BA2368002B08BF73280CBF86
:1055300001200020FEF776BA23682868012B7EF44C
:105540006BAAFEF7C4BD23682868FEF7E6BA05F02B
:10555000E9F8002859DC3D4E96F84400172825D973
:10556000002186F84410D6F8CC00D6F8C830B26CCA
:1055700000904A48FEF740BA05F0D4F80028E2DD72
:105580003148324E05F022FD06F0E2FE444906F0B5
:1055900033FFD6F8CC30B26C96F84410009307462F
:1055A0000346C6F8C8703D48FEF726BA3D4BC340D7
:1055B000DB07D5D50146D6E705F0B4F800287EF71D
:1055C000F7AA2148214E05F001FD06F0C1FE36493B
:1055D00006F012FF61230122706222602B601846E0
:1055E000FEF775BD05F09EF800287EF7E1AA164883
:1055F000164E05F0EBFC06F0ABFE61230122B06312
:1056000022602B601846FEF762BD0F480F4E05F072
:10561000DDFCC0B286F84400A0E7012283F8C42074
:10562000FFF7E3B91121214805F0A6F8064805F077
:105630003BFBFEF737BE044805F0C8FC1C4B024696
:105640001860FFF78FBA00BFC887FF1F5CC1FF1F3C
:1056500000007A44241501002C15010048150100B2
:105660004C150100681501007C150100941501001E
:10567000B415010098130100181501000815010068
:10568000F8140100E8140100C8140100D814010046
:105690002487FF1F0CED00E00400FA050093FF1FB4
:1056A00017B7D1380F3080006F12833A841301008E
:1056B0004C87FF1F1C21674805F05EF8D5F8900065
:1056C000654906F099FE06F0EDF902270B46024601
:1056D0000097624805F040FB0521614805F04CF851
:1056E0005E4805F0E1FAEB6F012B18D11D215D48F2
:1056F00005F042F8D5F88C00574906F07DFE06F01B
:10570000D1F900970B460246544805F025FB0521C8
:10571000534805F031F8514805F0C6FAEB6F23F015
:105720000202012A7FF400A81C214F484F4D05F0CA
:1057300023F8B6F8BE10494805F006FB03214C4893
:1057400005F01AF8454805F0AFFAF36F012B7EF427
:10575000EBAF1F21474805F00FF8D5F8940006F08D
:10576000F7FD454906F048FE06F09CF902270B4676
:1057700002460097394805F0EFFA39463F4804F0F1
:10578000FBFF364805F090FAEB6FFEF7CDBF3C4BC0
:10579000002631460B201E6003F022FB31460C2010
:1057A00003F01EFB3146142003F01AFB314615208E
:1057B00003F016FB3B68FFF7C1B91E21314804F026
:1057C000DBFF264805F070FAFEF784BF20212E4843
:1057D00004F0D2FF214805F067FAFEF77BBF1721DE
:1057E0002A4804F0C9FF1D4805F05EFAFEF772BFB3
:1057F000172127481D4D04F0BFFFD6F88030012B3C
:105800001BD0022B7EF493AF22491448FCF780F89A
:10581000FEF78DBF2021204804F0AEFF95F8DC3064
:105820002BB91E490D48FCF773F8FFF745B81C4922
:105830000A48FCF76DF8FFF73FB81A490748FCF72C
:1058400067F8D5F88030DCE7084EFEF7D1BF074E89
:10585000FFF75CBA781901000AD7233CC887FF1FFD
:1058600098190100A0190100C01901005CC1FF1FB7
:10587000E0190100E41901006F12833ACC11010014
:10588000F492FF1FB8180100D8180100FC1801009D
:10589000041A0100301A01000C1701003017010032
:1058A0003C1701001C1A010038B5164C164A236833
:1058B000101D12F8011F904241EA0323F9D1236021
:1058C000124C03F100432360114BDB6F022B11D00C
:1058D000104B1B68012B00D038BD0F4805F0E4F9D0
:1058E00021680D4805F030FA03210C48BDE8384026
:1058F00004F042BF20680A4D06F02AFD2860FCF73C
:10590000DFFEE5E7ECC2FF1FCFC2FF1FEC92FF1FD7
:105910005CC1FF1FFCC2FF1FC887FF1F241E0100C0
:10592000E4C2FF1F30B5524C524D534883B021465C
:1059300002F050F8D5F880202368012A67D0022AA7
:1059400056D06FF4C0615A18B2F5FF7F04D84849A9
:105950004A48FBF7B9F9236803F100436FF4C062CA
:105960001344B3F5FF7F03D841494448FBF7ACF932
:10597000434B1B68012B01D003B030BD414B1B686A
:10598000012BF9D1404B41481B6801930A220023A7
:10599000019905F099F92268354B002ADB7960DB23
:1059A0003B493C4807F0F0FC3A4807F029FD014626
:1059B000384804F0E1FE25682D4B15F0804541D1B3
:1059C000DB798BB1631934491A7A324807F0DCFC71
:1059D000304807F015FD01462E4804F0CDFE013594
:1059E000E379EDB2AB42EDD8284805F05DF9C3E7A5
:1059F00040F22252934222D040F22352934210D0DE
:105A000040F2215293429CD1244925480BE040F2B8
:105A1000C232934295D1FFF747FFD5F88020236823
:105A20008DE71E491F480D794A79CB78897802EBBA
:105A3000052202EB034303EB0163036098E7174978
:105A40001948F0E7194D134C0FCD0FC495E803002A
:105A500044F8040B204620F81419152104F08CFE9C
:105A6000C2E713490B4822F0604207F08DFC9BE728
:105A7000C8C2FF1F5CC1FF1F18C3FF1F0093FF1F99
:105A80002487FF1FFCC2FF1FC0C4FF1FC887FF1F62
:105A9000501E0100ACC0FF1F7C1E0100A4C0FF1FF0
:105AA000EC92FF1F74C2FF1F70C2FF1F641E010033
:105AB000281E0100A04B1B78052B00F0A4802DE9C7
:105AC000F04F9E4C9E4E9F4DB4F86420B4F8603069
:105AD0009D48328083B02B80FBF718FBE16A06F00B
